{"abi":[{"type":"constructor","inputs":[{"name":"_avsDirectory","type":"address","internalType":"contract IAVSDirectory"},{"name":"_rewardsCoordinator","type":"address","internalType":"contract IRewardsCoordinator"},{"name":"_registryCoordinator","type":"address","internalType":"contract IRegistryCoordinator"},{"name":"_stakeRegistry","type":"address","internalType":"contract IStakeRegistry"}],"stateMutability":"nonpayable"},{"type":"function","name":"avsDirectory","inputs":[],"outputs":[{"name":"","type":"address","internalType":"address"}],"stateMutability":"view"},{"type":"function","name":"createAVSRewardsSubmission","inputs":[{"name":"rewardsSubmissions","type":"tuple[]","internalType":"struct IRewardsCoordinator.RewardsSubmission[]","components":[{"name":"strategiesAndMultipliers","type":"tuple[]","internalType":"struct IRewardsCoordinator.StrategyAndMultiplier[]","components":[{"name":"strategy","type":"address","internalType":"contract IStrategy"},{"name":"multiplier","type":"uint96","internalType":"uint96"}]},{"name":"token","type":"address","internalType":"contract IERC20"},{"name":"amount","type":"uint256","internalType":"uint256"},{"name":"startTimestamp","type":"uint32","internalType":"uint32"},{"name":"duration","type":"uint32","internalType":"uint32"}]}],"outputs":[],"stateMutability":"nonpayable"},{"type":"function","name":"createOperatorDirectedAVSRewardsSubmission","inputs":[{"name":"operatorDirectedRewardsSubmissions","type":"tuple[]","internalType":"struct IRewardsCoordinator.OperatorDirectedRewardsSubmission[]","components":[{"name":"strategiesAndMultipliers","type":"tuple[]","internalType":"struct IRewardsCoordinator.StrategyAndMultiplier[]","components":[{"name":"strategy","type":"address","internalType":"contract IStrategy"},{"name":"multiplier","type":"uint96","internalType":"uint96"}]},{"name":"token","type":"address","internalType":"contract IERC20"},{"name":"operatorRewards","type":"tuple[]","internalType":"struct IRewardsCoordinator.OperatorReward[]","components":[{"name":"operator","type":"address","internalType":"address"},{"name":"amount","type":"uint256","internalType":"uint256"}]},{"name":"startTimestamp","type":"uint32","internalType":"uint32"},{"name":"duration","type":"uint32","internalType":"uint32"},{"name":"description","type":"string","internalType":"string"}]}],"outputs":[],"stateMutability":"nonpayable"},{"type":"function","name":"deregisterOperatorFromAVS","inputs":[{"name":"operator","type":"address","internalType":"address"}],"outputs":[],"stateMutability":"nonpayable"},{"type":"function","name":"getOperatorRestakedStrategies","inputs":[{"name":"operator","type":"address","internalType":"address"}],"outputs":[{"name":"","type":"address[]","internalType":"address[]"}],"stateMutability":"view"},{"type":"function","name":"getRestakeableStrategies","inputs":[],"outputs":[{"name":"","type":"address[]","internalType":"address[]"}],"stateMutability":"view"},{"type":"function","name":"initialize","inputs":[{"name":"initialOwner","type":"address","internalType":"address"},{"name":"rewardsInitiator","type":"address","internalType":"address"}],"outputs":[],"stateMutability":"nonpayable"},{"type":"function","name":"owner","inputs":[],"outputs":[{"name":"","type":"address","internalType":"address"}],"stateMutability":"view"},{"type":"function","name":"registerOperatorToAVS","inputs":[{"name":"operator","type":"address","internalType":"address"},{"name":"operatorSignature","type":"tuple","internalType":"struct ISignatureUtils.SignatureWithSaltAndExpiry","components":[{"name":"signature","type":"bytes","internalType":"bytes"},{"name":"salt","type":"bytes32","internalType":"bytes32"},{"name":"expiry","type":"uint256","internalType":"uint256"}]}],"outputs":[],"stateMutability":"nonpayable"},{"type":"function","name":"renounceOwnership","inputs":[],"outputs":[],"stateMutability":"nonpayable"},{"type":"function","name":"rewardsInitiator","inputs":[],"outputs":[{"name":"","type":"address","internalType":"address"}],"stateMutability":"view"},{"type":"function","name":"setClaimerFor","inputs":[{"name":"claimer","type":"address","internalType":"address"}],"outputs":[],"stateMutability":"nonpayable"},{"type":"function","name":"setRewardsInitiator","inputs":[{"name":"newRewardsInitiator","type":"address","internalType":"address"}],"outputs":[],"stateMutability":"nonpayable"},{"type":"function","name":"transferOwnership","inputs":[{"name":"newOwner","type":"address","internalType":"address"}],"outputs":[],"stateMutability":"nonpayable"},{"type":"function","name":"updateAVSMetadataURI","inputs":[{"name":"_metadataURI","type":"string","internalType":"string"}],"outputs":[],"stateMutability":"nonpayable"},{"type":"event","name":"Initialized","inputs":[{"name":"version","type":"uint8","indexed":false,"internalType":"uint8"}],"anonymous":false},{"type":"event","name":"OwnershipTransferred","inputs":[{"name":"previousOwner","type":"address","indexed":true,"internalType":"address"},{"name":"newOwner","type":"address","indexed":true,"internalType":"address"}],"anonymous":false},{"type":"event","name":"RewardsInitiatorUpdated","inputs":[{"name":"prevRewardsInitiator","type":"address","indexed":false,"internalType":"address"},{"name":"newRewardsInitiator","type":"address","indexed":false,"internalType":"address"}],"anonymous":false}],"bytecode":{"object":"0x6101006040523480156200001257600080fd5b50604051620024e0380380620024e083398101604081905262000035916200014b565b6001600160a01b0380851660805280841660a05280831660c052811660e052838383836200006262000070565b5050505050505050620001b3565b600054610100900460ff1615620000dd5760405162461bcd60e51b815260206004820152602760248201527f496e697469616c697a61626c653a20636f6e747261637420697320696e697469604482015266616c697a696e6760c81b606482015260840160405180910390fd5b60005460ff908116101562000130576000805460ff191660ff9081179091556040519081527f7f26b83ff96e1f2b6a682f133852f6798a09c465da95921460cefb38474024989060200160405180910390a15b565b6001600160a01b03811681146200014857600080fd5b50565b600080600080608085870312156200016257600080fd5b84516200016f8162000132565b6020860151909450620001828162000132565b6040860151909350620001958162000132565b6060860151909250620001a88162000132565b939692955090935050565b60805160a05160c05160e0516122676200027960003960008181610438015281816105930152818161062a01528181610ecc0152818161104f01526110ee015260008181610263015281816102f2015281816103720152818161085a01528181610d2501528181610e0a0152610faa01526000818161094201528181610b6101528181610c1d01528181610ce10152818161138f0152818161144b015261153701526000818161014d015281816108ae01528181610d810152610dcf01526122676000f3fe608060405234801561001057600080fd5b50600436106100f55760003560e01c8063a0169ddd11610097578063e481af9d11610066578063e481af9d146101fd578063f2fde38b14610205578063fc299dee14610218578063fce36c7d1461022b57600080fd5b8063a0169ddd146101b1578063a20b99bf146101c4578063a364f4da146101d7578063a98fb355146101ea57600080fd5b80636b3aa72e116100d35780636b3aa72e1461014b578063715018a6146101855780638da5cb5b1461018d5780639926ee7d1461019e57600080fd5b806333cfb7b7146100fa5780633bc28c8c14610123578063485cc95514610138575b600080fd5b61010d6101083660046118a1565b61023e565b60405161011a91906118c5565b60405180910390f35b6101366101313660046118a1565b61070d565b005b610136610146366004611912565b610721565b7f00000000000000000000000000000000000000000000000000000000000000005b6040516001600160a01b03909116815260200161011a565b61013661083b565b6033546001600160a01b031661016d565b6101366101ac3660046119fe565b61084f565b6101366101bf3660046118a1565b61091b565b6101366101d2366004611af3565b6109a2565b6101366101e53660046118a1565b610d1a565b6101366101f8366004611b34565b610db0565b61010d610e04565b6101366102133660046118a1565b6111cd565b60655461016d906001600160a01b031681565b610136610239366004611af3565b611243565b6040516309aa152760e11b81526001600160a01b0382811660048301526060916000917f000000000000000000000000000000000000000000000000000000000000000016906313542a4e90602401602060405180830381865afa1580156102aa573d6000803e3d6000fd5b505050506040513d601f19601f820116820180604052508101906102ce9190611b84565b60405163871ef04960e01b8152600481018290529091506000906001600160a01b037f0000000000000000000000000000000000000000000000000000000000000000169063871ef04990602401602060405180830381865afa158015610339573d6000803e3d6000fd5b505050506040513d601f19601f8201168201806040525081019061035d9190611b9d565b90506001600160c01b03811615806103f757507f00000000000000000000000000000000000000000000000000000000000000006001600160a01b0316639aa1653d6040518163ffffffff1660e01b8152600401602060405180830381865afa1580156103ce573d6000803e3d6000fd5b505050506040513d601f19601f820116820180604052508101906103f29190611bc6565b60ff16155b1561041357505060408051600081526020810190915292915050565b6000610427826001600160c01b031661156e565b90506000805b82518110156104fd577f00000000000000000000000000000000000000000000000000000000000000006001600160a01b0316633ca5a5f584838151811061047757610477611be9565b01602001516040516001600160e01b031960e084901b16815260f89190911c6004820152602401602060405180830381865afa1580156104bb573d6000803e3d6000fd5b505050506040513d601f19601f820116820180604052508101906104df9190611b84565b6104e99083611c15565b9150806104f581611c2d565b91505061042d565b506000816001600160401b038111156105185761051861194b565b604051908082528060200260200182016040528015610541578160200160208202803683370190505b5090506000805b845181101561070057600085828151811061056557610565611be9565b0160200151604051633ca5a5f560e01b815260f89190911c6004820181905291506000906001600160a01b037f00000000000000000000000000000000000000000000000000000000000000001690633ca5a5f590602401602060405180830381865afa1580156105da573d6000803e3d6000fd5b505050506040513d601f19601f820116820180604052508101906105fe9190611b84565b905060005b818110156106ea576040516356e4026d60e11b815260ff84166004820152602481018290527f00000000000000000000000000000000000000000000000000000000000000006001600160a01b03169063adc804da906044016040805180830381865afa158015610678573d6000803e3d6000fd5b505050506040513d601f19601f8201168201806040525081019061069c9190611c62565b600001518686815181106106b2576106b2611be9565b6001600160a01b0390921660209283029190910190910152846106d481611c2d565b95505080806106e290611c2d565b915050610603565b50505080806106f890611c2d565b915050610548565b5090979650505050505050565b610715611630565b61071e8161168a565b50565b600054610100900460ff16158080156107415750600054600160ff909116105b8061075b5750303b15801561075b575060005460ff166001145b6107c35760405162461bcd60e51b815260206004820152602e60248201527f496e697469616c697a61626c653a20636f6e747261637420697320616c72656160448201526d191e481a5b9a5d1a585b1a5e995960921b60648201526084015b60405180910390fd5b6000805460ff1916600117905580156107e6576000805461ff0019166101001790555b6107f083836116f3565b8015610836576000805461ff0019169055604051600181527f7f26b83ff96e1f2b6a682f133852f6798a09c465da95921460cefb38474024989060200160405180910390a15b505050565b610843611630565b61084d6000611774565b565b336001600160a01b037f000000000000000000000000000000000000000000000000000000000000000016146108975760405162461bcd60e51b81526004016107ba90611cc0565b604051639926ee7d60e01b81526001600160a01b037f00000000000000000000000000000000000000000000000000000000000000001690639926ee7d906108e59085908590600401611d85565b600060405180830381600087803b1580156108ff57600080fd5b505af1158015610913573d6000803e3d6000fd5b505050505050565b610923611630565b60405163a0169ddd60e01b81526001600160a01b0382811660048301527f0000000000000000000000000000000000000000000000000000000000000000169063a0169ddd906024015b600060405180830381600087803b15801561098757600080fd5b505af115801561099b573d6000803e3d6000fd5b5050505050565b6109aa6117c6565b60005b81811015610cc9576000805b8484848181106109cb576109cb611be9565b90506020028101906109dd9190611dd0565b6109eb906040810190611df0565b9050811015610a5d57848484818110610a0657610a06611be9565b9050602002810190610a189190611dd0565b610a26906040810190611df0565b82818110610a3657610a36611be9565b9050604002016020013582610a4b9190611c15565b9150610a5681611c2d565b90506109b9565b50838383818110610a7057610a70611be9565b9050602002810190610a829190611dd0565b610a939060408101906020016118a1565b6040516323b872dd60e01b8152336004820152306024820152604481018390526001600160a01b0391909116906323b872dd906064016020604051808303816000875af1158015610ae8573d6000803e3d6000fd5b505050506040513d601f19601f82011682018060405250810190610b0c9190611e39565b506000848484818110610b2157610b21611be9565b9050602002810190610b339190611dd0565b610b449060408101906020016118a1565b604051636eb1769f60e11b81523060048201526001600160a01b037f000000000000000000000000000000000000000000000000000000000000000081166024830152919091169063dd62ed3e90604401602060405180830381865afa158015610bb2573d6000803e3d6000fd5b505050506040513d601f19601f82011682018060405250810190610bd69190611b84565b9050848484818110610bea57610bea611be9565b9050602002810190610bfc9190611dd0565b610c0d9060408101906020016118a1565b6001600160a01b031663095ea7b37f0000000000000000000000000000000000000000000000000000000000000000610c468486611c15565b6040516001600160e01b031960e085901b1681526001600160a01b03909216600483015260248201526044016020604051808303816000875af1158015610c91573d6000803e3d6000fd5b505050506040513d601f19601f82011682018060405250810190610cb59190611e39565b50505080610cc290611c2d565b90506109ad565b50604051634e5cd2fd60e11b81526001600160a01b037f00000000000000000000000000000000000000000000000000000000000000001690639cb9a5fa906108e590309086908690600401611f95565b336001600160a01b037f00000000000000000000000000000000000000000000000000000000000000001614610d625760405162461bcd60e51b81526004016107ba90611cc0565b6040516351b27a6d60e11b81526001600160a01b0382811660048301527f0000000000000000000000000000000000000000000000000000000000000000169063a364f4da9060240161096d565b610db8611630565b60405163a98fb35560e01b81526001600160a01b037f0000000000000000000000000000000000000000000000000000000000000000169063a98fb3559061096d9084906004016120f1565b606060007f00000000000000000000000000000000000000000000000000000000000000006001600160a01b0316639aa1653d6040518163ffffffff1660e01b8152600401602060405180830381865afa158015610e66573d6000803e3d6000fd5b505050506040513d601f19601f82011682018060405250810190610e8a9190611bc6565b60ff16905080610ea857505060408051600081526020810190915290565b6000805b82811015610f5d57604051633ca5a5f560e01b815260ff821660048201527f00000000000000000000000000000000000000000000000000000000000000006001600160a01b031690633ca5a5f590602401602060405180830381865afa158015610f1b573d6000803e3d6000fd5b505050506040513d601f19601f82011682018060405250810190610f3f9190611b84565b610f499083611c15565b915080610f5581611c2d565b915050610eac565b506000816001600160401b03811115610f7857610f7861194b565b604051908082528060200260200182016040528015610fa1578160200160208202803683370190505b5090506000805b7f00000000000000000000000000000000000000000000000000000000000000006001600160a01b0316639aa1653d6040518163ffffffff1660e01b8152600401602060405180830381865afa158015611006573d6000803e3d6000fd5b505050506040513d601f19601f8201168201806040525081019061102a9190611bc6565b60ff168110156111c357604051633ca5a5f560e01b815260ff821660048201526000907f00000000000000000000000000000000000000000000000000000000000000006001600160a01b031690633ca5a5f590602401602060405180830381865afa15801561109e573d6000803e3d6000fd5b505050506040513d601f19601f820116820180604052508101906110c29190611b84565b905060005b818110156111ae576040516356e4026d60e11b815260ff84166004820152602481018290527f00000000000000000000000000000000000000000000000000000000000000006001600160a01b03169063adc804da906044016040805180830381865afa15801561113c573d6000803e3d6000fd5b505050506040513d601f19601f820116820180604052508101906111609190611c62565b6000015185858151811061117657611176611be9565b6001600160a01b03909216602092830291909101909101528361119881611c2d565b94505080806111a690611c2d565b9150506110c7565b505080806111bb90611c2d565b915050610fa8565b5090949350505050565b6111d5611630565b6001600160a01b03811661123a5760405162461bcd60e51b815260206004820152602660248201527f4f776e61626c653a206e6577206f776e657220697320746865207a65726f206160448201526564647265737360d01b60648201526084016107ba565b61071e81611774565b61124b6117c6565b60005b8181101561151f5782828281811061126857611268611be9565b905060200281019061127a9190612104565b61128b9060408101906020016118a1565b6001600160a01b03166323b872dd33308686868181106112ad576112ad611be9565b90506020028101906112bf9190612104565b604080516001600160e01b031960e087901b1681526001600160a01b039485166004820152939092166024840152013560448201526064016020604051808303816000875af1158015611316573d6000803e3d6000fd5b505050506040513d601f19601f8201168201806040525081019061133a9190611e39565b50600083838381811061134f5761134f611be9565b90506020028101906113619190612104565b6113729060408101906020016118a1565b604051636eb1769f60e11b81523060048201526001600160a01b037f000000000000000000000000000000000000000000000000000000000000000081166024830152919091169063dd62ed3e90604401602060405180830381865afa1580156113e0573d6000803e3d6000fd5b505050506040513d601f19601f820116820180604052508101906114049190611b84565b905083838381811061141857611418611be9565b905060200281019061142a9190612104565b61143b9060408101906020016118a1565b6001600160a01b031663095ea7b37f00000000000000000000000000000000000000000000000000000000000000008387878781811061147d5761147d611be9565b905060200281019061148f9190612104565b6040013561149d9190611c15565b6040516001600160e01b031960e085901b1681526001600160a01b03909216600483015260248201526044016020604051808303816000875af11580156114e8573d6000803e3d6000fd5b505050506040513d601f19601f8201168201806040525081019061150c9190611e39565b50508061151890611c2d565b905061124e565b5060405163fce36c7d60e01b81526001600160a01b037f0000000000000000000000000000000000000000000000000000000000000000169063fce36c7d906108e5908590859060040161211a565b606060008061157c8461185b565b61ffff166001600160401b038111156115975761159761194b565b6040519080825280601f01601f1916602001820160405280156115c1576020820181803683370190505b5090506000805b8251821080156115d9575061010081105b156111c3576001811b935085841615611620578060f81b83838151811061160257611602611be9565b60200101906001600160f81b031916908160001a9053508160010191505b61162981611c2d565b90506115c8565b6033546001600160a01b0316331461084d5760405162461bcd60e51b815260206004820181905260248201527f4f776e61626c653a2063616c6c6572206973206e6f7420746865206f776e657260448201526064016107ba565b606554604080516001600160a01b03928316815291831660208301527fe11cddf1816a43318ca175bbc52cd0185436e9cbead7c83acc54a73e461717e3910160405180910390a1606580546001600160a01b0319166001600160a01b0392909216919091179055565b600054610100900460ff1661175e5760405162461bcd60e51b815260206004820152602b60248201527f496e697469616c697a61626c653a20636f6e7472616374206973206e6f74206960448201526a6e697469616c697a696e6760a81b60648201526084016107ba565b61176782611774565b6117708161168a565b5050565b603380546001600160a01b038381166001600160a01b0319831681179093556040519116919082907f8be0079c531659141344cd1fd0a4f28419497f9722a3daafe3b4186f6b6457e090600090a35050565b6065546001600160a01b0316331461084d5760405162461bcd60e51b815260206004820152604c60248201527f536572766963654d616e61676572426173652e6f6e6c7952657761726473496e60448201527f69746961746f723a2063616c6c6572206973206e6f742074686520726577617260648201526b32399034b734ba34b0ba37b960a11b608482015260a4016107ba565b6000805b8215611886576118706001846121f8565b909216918061187e8161220f565b91505061185f565b92915050565b6001600160a01b038116811461071e57600080fd5b6000602082840312156118b357600080fd5b81356118be8161188c565b9392505050565b6020808252825182820181905260009190848201906040850190845b818110156119065783516001600160a01b0316835292840192918401916001016118e1565b50909695505050505050565b6000806040838503121561192557600080fd5b82356119308161188c565b915060208301356119408161188c565b809150509250929050565b634e487b7160e01b600052604160045260246000fd5b604051606081016001600160401b03811182821017156119835761198361194b565b60405290565b60006001600160401b03808411156119a3576119a361194b565b604051601f8501601f19908116603f011681019082821181831017156119cb576119cb61194b565b816040528093508581528686860111156119e457600080fd5b858560208301376000602087830101525050509392505050565b60008060408385031215611a1157600080fd5b8235611a1c8161188c565b915060208301356001600160401b0380821115611a3857600080fd5b9084019060608287031215611a4c57600080fd5b611a54611961565b823582811115611a6357600080fd5b83019150601f82018713611a7657600080fd5b611a8587833560208501611989565b815260208301356020820152604083013560408201528093505050509250929050565b60008083601f840112611aba57600080fd5b5081356001600160401b03811115611ad157600080fd5b6020830191508360208260051b8501011115611aec57600080fd5b9250929050565b60008060208385031215611b0657600080fd5b82356001600160401b03811115611b1c57600080fd5b611b2885828601611aa8565b90969095509350505050565b600060208284031215611b4657600080fd5b81356001600160401b03811115611b5c57600080fd5b8201601f81018413611b6d57600080fd5b611b7c84823560208401611989565b949350505050565b600060208284031215611b9657600080fd5b5051919050565b600060208284031215611baf57600080fd5b81516001600160c01b03811681146118be57600080fd5b600060208284031215611bd857600080fd5b815160ff811681146118be57600080fd5b634e487b7160e01b600052603260045260246000fd5b634e487b7160e01b600052601160045260246000fd5b60008219821115611c2857611c28611bff565b500190565b6000600019821415611c4157611c41611bff565b5060010190565b6bffffffffffffffffffffffff8116811461071e57600080fd5b600060408284031215611c7457600080fd5b604051604081018181106001600160401b0382111715611c9657611c9661194b565b6040528251611ca48161188c565b81526020830151611cb481611c48565b60208201529392505050565b60208082526052908201527f536572766963654d616e61676572426173652e6f6e6c7952656769737472794360408201527f6f6f7264696e61746f723a2063616c6c6572206973206e6f742074686520726560608201527133b4b9ba393c9031b7b7b93234b730ba37b960711b608082015260a00190565b6000815180845260005b81811015611d5e57602081850181015186830182015201611d42565b81811115611d70576000602083870101525b50601f01601f19169290920160200192915050565b60018060a01b0383168152604060208201526000825160606040840152611daf60a0840182611d38565b90506020840151606084015260408401516080840152809150509392505050565b6000823560be19833603018112611de657600080fd5b9190910192915050565b6000808335601e19843603018112611e0757600080fd5b8301803591506001600160401b03821115611e2157600080fd5b6020019150600681901b3603821315611aec57600080fd5b600060208284031215611e4b57600080fd5b815180151581146118be57600080fd5b6000808335601e19843603018112611e7257600080fd5b83016020810192503590506001600160401b03811115611e9157600080fd5b8060061b3603831315611aec57600080fd5b8183526000602080850194508260005b85811015611f03578135611ec68161188c565b6001600160a01b0316875281830135611ede81611c48565b6bffffffffffffffffffffffff16878401526040968701969190910190600101611eb3565b509495945050505050565b803563ffffffff81168114611f2257600080fd5b919050565b6000808335601e19843603018112611f3e57600080fd5b83016020810192503590506001600160401b03811115611f5d57600080fd5b803603831315611aec57600080fd5b81835281816020850137506000828201602090810191909152601f909101601f19169091010190565b6001600160a01b03848116825260406020808401829052838201859052600092606091828601600588901b8701840189875b8a8110156120e057898303605f190184528135368d900360be19018112611fed57600080fd5b8c0160c0611ffb8280611e5b565b82875261200b8388018284611ea3565b925050508682013561201c8161188c565b88168588015261202e828b0183611e5b565b8683038c88015280835290916000919089015b818310156120725783356120548161188c565b8b168152838a01358a820152928c0192600192909201918c01612041565b61207d8c8601611f0e565b63ffffffff168c89015260809350612096858501611f0e565b63ffffffff811689860152925060a093506120b384860186611f27565b95509250878103848901526120c9818685611f6c565b988a01989750505093870193505050600101611fc7565b50909b9a5050505050505050505050565b6020815260006118be6020830184611d38565b60008235609e19833603018112611de657600080fd5b60208082528181018390526000906040808401600586901b850182018785805b898110156121e957888403603f190185528235368c9003609e1901811261215f578283fd5b8b0160a061216d8280611e5b565b82885261217d8389018284611ea3565b925050508882013561218e8161188c565b6001600160a01b0316868a0152818801358887015260606121b0818401611f0e565b63ffffffff808216838a015260809250806121cc848701611f0e565b16989092019790975250958801959450509186019160010161213a565b50919998505050505050505050565b60008282101561220a5761220a611bff565b500390565b600061ffff8083168181141561222757612227611bff565b600101939250505056fea264697066735822122040b4d0aef3c8c0c56e5776efd0bf12f712ef854f64be29eb98b08fb93ca002fb64736f6c634300080c0033","linkReferences":{}},"methodIdentifiers":{"avsDirectory()":"6b3aa72e","createAVSRewardsSubmission(((address,uint96)[],address,uint256,uint32,uint32)[])":"fce36c7d","createOperatorDirectedAVSRewardsSubmission(((address,uint96)[],address,(address,uint256)[],uint32,uint32,string)[])":"a20b99bf","deregisterOperatorFromAVS(address)":"a364f4da","getOperatorRestakedStrategies(address)":"33cfb7b7","getRestakeableStrategies()":"e481af9d","initialize(address,address)":"485cc955","owner()":"8da5cb5b","registerOperatorToAVS(address,(bytes,bytes32,uint256))":"9926ee7d","renounceOwnership()":"715018a6","rewardsInitiator()":"fc299dee","setClaimerFor(address)":"a0169ddd","setRewardsInitiator(address)":"3bc28c8c","transferOwnership(address)":"f2fde38b","updateAVSMetadataURI(string)":"a98fb355"},"id":163}