{"abi":[{"type":"function","name":"emitSpam","inputs":[{"name":"startIndex","type":"uint256","internalType":"uint256"},{"name":"count","type":"uint256","internalType":"uint256"}],"outputs":[],"stateMutability":"nonpayable"},{"type":"event","name":"Spam","inputs":[{"name":"id","type":"uint256","indexed":true,"internalType":"uint256"}],"anonymous":false}],"bytecode":{"object":"0x608060405234601c57600e6020565b6101bb61002b82396101bb90f35b6026565b60405190565b5f80fdfe60806040526004361015610013575b6100cc565b61001d5f3561002c565b634be6600c0361000e57610098565b60e01c90565b60405190565b5f80fd5b5f80fd5b90565b61004c81610040565b0361005357565b5f80fd5b9050359061006482610043565b565b919060408382031261008e578061008261008b925f8601610057565b93602001610057565b90565b61003c565b5f0190565b346100c7576100b16100ab366004610066565b9061010c565b6100b9610032565b806100c381610093565b0390f35b610038565b5f80fd5b906100db9101610040565b90565b60016100ea9101610040565b90565b90565b6101046100ff61010992610040565b6100ed565b610040565b90565b9061011790826100d0565b905b8061012c61012684610040565b91610040565b1015610181578061017c916101617fd206e705546b2223acf1a54e3a1e00bf9679b2f2fa4c4844d439ad808a95058b916100f0565b9061016a610032565b8061017481610093565b0390a26100de565b610119565b505056fea26469706673582212204d15fcf5180fd48719018b18443e67bed68d86fb72ef95ae5374de5233a9199964736f6c634300081c0033","linkReferences":{}},"methodIdentifiers":{"emitSpam(uint256,uint256)":"4be6600c"},"id":5}