{"abi":[{"type":"function","name":"emitInteger","inputs":[{"name":"value","type":"uint256","internalType":"uint256"}],"outputs":[],"stateMutability":"nonpayable"},{"type":"function","name":"emitString","inputs":[{"name":"value","type":"string","internalType":"string"}],"outputs":[],"stateMutability":"nonpayable"},{"type":"event","name":"IntegerEvent","inputs":[{"name":"from","type":"address","indexed":true,"internalType":"address"},{"name":"value","type":"uint256","indexed":false,"internalType":"uint256"}],"anonymous":false},{"type":"event","name":"StringEvent","inputs":[{"name":"from","type":"address","indexed":true,"internalType":"address"},{"name":"value","type":"string","indexed":false,"internalType":"string"}],"anonymous":false}],"bytecode":{"object":"0x608060405234601c57600e6020565b61030a61002b823961030a90f35b6026565b60405190565b5f80fdfe60806040526004361015610013575b610185565b61001d5f3561003c565b80631436c8be1461003757632536f1270361000e57610151565b61009d565b60e01c90565b60405190565b5f80fd5b5f80fd5b5f80fd5b90565b61006081610054565b0361006757565b5f80fd5b9050359061007882610057565b565b9060208282031261009357610090915f0161006b565b90565b61004c565b5f0190565b346100cb576100b56100b036600461007a565b6101ed565b6100bd610042565b806100c781610098565b0390f35b610048565b5f80fd5b5f80fd5b5f80fd5b909182601f830112156101165781359167ffffffffffffffff831161011157602001926001830284011161010c57565b6100d8565b6100d4565b6100d0565b9060208282031261014c575f82013567ffffffffffffffff81116101475761014392016100dc565b9091565b610050565b61004c565b346101805761016a61016436600461011b565b9061028d565b610172610042565b8061017c81610098565b0390f35b610048565b5f80fd5b60018060a01b031690565b90565b6101ab6101a66101b092610189565b610194565b610189565b90565b6101bc90610197565b90565b6101c8906101b3565b90565b6101d490610054565b9052565b91906101eb905f602085019401906101cb565b565b3361022d61021b7f61f61a0e95d689e4b3328323fd684d2552c1b434926041b1d498705d54de9c13926101bf565b92610224610042565b918291826101d8565b0390a2565b60209181520190565b90825f939282370152565b601f801991011690565b919061026a816102638161026f95610232565b809561023b565b610246565b0190565b909161028a9260208301925f818503910152610250565b90565b3390916102ba7f68af03deed590122bd8815795e27f2ed08fbd7fa9b254ef49c999aed780b10fd926101bf565b926102cf6102c6610042565b92839283610273565b0390a256fea26469706673582212203e9bda90f9d0f21c54f9b861fa3e73b8edb84b07092f66c2e9b8ec9c40f30a6d64736f6c634300081c0033","linkReferences":{}},"methodIdentifiers":{"emitInteger(uint256)":"1436c8be","emitString(string)":"2536f127"},"id":0}