{"abi":[{"type":"constructor","inputs":[{"name":"_avsDirectory","type":"address","internalType":"address"},{"name":"_stakeRegistry","type":"address","internalType":"address"},{"name":"_rewardsCoordinator","type":"address","internalType":"address"},{"name":"_delegationManager","type":"address","internalType":"address"}],"stateMutability":"nonpayable"},{"type":"function","name":"avsDirectory","inputs":[],"outputs":[{"name":"","type":"address","internalType":"address"}],"stateMutability":"view"},{"type":"function","name":"createAVSRewardsSubmission","inputs":[{"name":"rewardsSubmissions","type":"tuple[]","internalType":"struct IRewardsCoordinator.RewardsSubmission[]","components":[{"name":"strategiesAndMultipliers","type":"tuple[]","internalType":"struct IRewardsCoordinator.StrategyAndMultiplier[]","components":[{"name":"strategy","type":"address","internalType":"contract IStrategy"},{"name":"multiplier","type":"uint96","internalType":"uint96"}]},{"name":"token","type":"address","internalType":"contract IERC20"},{"name":"amount","type":"uint256","internalType":"uint256"},{"name":"startTimestamp","type":"uint32","internalType":"uint32"},{"name":"duration","type":"uint32","internalType":"uint32"}]}],"outputs":[],"stateMutability":"nonpayable"},{"type":"function","name":"createOperatorDirectedAVSRewardsSubmission","inputs":[{"name":"operatorDirectedRewardsSubmissions","type":"tuple[]","internalType":"struct IRewardsCoordinator.OperatorDirectedRewardsSubmission[]","components":[{"name":"strategiesAndMultipliers","type":"tuple[]","internalType":"struct IRewardsCoordinator.StrategyAndMultiplier[]","components":[{"name":"strategy","type":"address","internalType":"contract IStrategy"},{"name":"multiplier","type":"uint96","internalType":"uint96"}]},{"name":"token","type":"address","internalType":"contract IERC20"},{"name":"operatorRewards","type":"tuple[]","internalType":"struct IRewardsCoordinator.OperatorReward[]","components":[{"name":"operator","type":"address","internalType":"address"},{"name":"amount","type":"uint256","internalType":"uint256"}]},{"name":"startTimestamp","type":"uint32","internalType":"uint32"},{"name":"duration","type":"uint32","internalType":"uint32"},{"name":"description","type":"string","internalType":"string"}]}],"outputs":[],"stateMutability":"nonpayable"},{"type":"function","name":"deregisterOperatorFromAVS","inputs":[{"name":"operator","type":"address","internalType":"address"}],"outputs":[],"stateMutability":"nonpayable"},{"type":"function","name":"getOperatorRestakedStrategies","inputs":[{"name":"_operator","type":"address","internalType":"address"}],"outputs":[{"name":"","type":"address[]","internalType":"address[]"}],"stateMutability":"view"},{"type":"function","name":"getRestakeableStrategies","inputs":[],"outputs":[{"name":"","type":"address[]","internalType":"address[]"}],"stateMutability":"view"},{"type":"function","name":"owner","inputs":[],"outputs":[{"name":"","type":"address","internalType":"address"}],"stateMutability":"view"},{"type":"function","name":"registerOperatorToAVS","inputs":[{"name":"operator","type":"address","internalType":"address"},{"name":"operatorSignature","type":"tuple","internalType":"struct ISignatureUtils.SignatureWithSaltAndExpiry","components":[{"name":"signature","type":"bytes","internalType":"bytes"},{"name":"salt","type":"bytes32","internalType":"bytes32"},{"name":"expiry","type":"uint256","internalType":"uint256"}]}],"outputs":[],"stateMutability":"nonpayable"},{"type":"function","name":"renounceOwnership","inputs":[],"outputs":[],"stateMutability":"nonpayable"},{"type":"function","name":"rewardsInitiator","inputs":[],"outputs":[{"name":"","type":"address","internalType":"address"}],"stateMutability":"view"},{"type":"function","name":"setClaimerFor","inputs":[{"name":"claimer","type":"address","internalType":"address"}],"outputs":[],"stateMutability":"nonpayable"},{"type":"function","name":"setRewardsInitiator","inputs":[{"name":"newRewardsInitiator","type":"address","internalType":"address"}],"outputs":[],"stateMutability":"nonpayable"},{"type":"function","name":"stakeRegistry","inputs":[],"outputs":[{"name":"","type":"address","internalType":"address"}],"stateMutability":"view"},{"type":"function","name":"transferOwnership","inputs":[{"name":"newOwner","type":"address","internalType":"address"}],"outputs":[],"stateMutability":"nonpayable"},{"type":"function","name":"updateAVSMetadataURI","inputs":[{"name":"_metadataURI","type":"string","internalType":"string"}],"outputs":[],"stateMutability":"nonpayable"},{"type":"function","name":"validate","inputs":[{"name":"data","type":"bytes","internalType":"bytes"},{"name":"signature","type":"bytes","internalType":"bytes"}],"outputs":[],"stateMutability":"view"},{"type":"event","name":"Initialized","inputs":[{"name":"version","type":"uint8","indexed":false,"internalType":"uint8"}],"anonymous":false},{"type":"event","name":"OwnershipTransferred","inputs":[{"name":"previousOwner","type":"address","indexed":true,"internalType":"address"},{"name":"newOwner","type":"address","indexed":true,"internalType":"address"}],"anonymous":false},{"type":"event","name":"RewardsInitiatorUpdated","inputs":[{"name":"prevRewardsInitiator","type":"address","indexed":false,"internalType":"address"},{"name":"newRewardsInitiator","type":"address","indexed":false,"internalType":"address"}],"anonymous":false},{"type":"error","name":"InvalidSignature","inputs":[]}],"bytecode":{"object":"0x6101003461019a57601f611b4a38819003918201601f19168301916001600160401b0383118484101761019e5780849260809460405283398101031261019a57610048816101b2565b90610055602082016101b2565b61006d6060610066604085016101b2565b93016101b2565b9260a05260805260c05260e0525f5460ff8160081c166101455760ff8082161061010b575b60405161198390816101c7823960805181818161054f015281816106e001528181610cac01528181610e6e01528181610f4901526112c0015260a05181818161064d0152818161071001528181610cd50152610e2a015260c051818181610107015281816107b60152610b94015260e0518161100f0152f35b60ff90811916175f557f7f26b83ff96e1f2b6a682f133852f6798a09c465da95921460cefb3847402498602060405160ff8152a15f610092565b60405162461bcd60e51b815260206004820152602760248201527f496e697469616c697a61626c653a20636f6e747261637420697320696e697469604482015266616c697a696e6760c81b6064820152608490fd5b5f80fd5b634e487b7160e01b5f52604160045260245ffd5b51906001600160a01b038216820361019a5756fe60806040526004361015610011575f80fd5b5f5f3560e01c80632a3e7f3b146111ea57806333cfb7b714610f1c5780633bc28c8c14610e9d5780636830483514610e595780636b3aa72e14610e15578063715018a614610dba5780638da5cb5b14610d925780639926ee7d14610bfc578063a0169ddd14610b6f578063a20b99bf14610778578063a364f4da146106bf578063a98fb35514610600578063e481af9d1461052a578063f2fde38b14610461578063fc299dee146104385763fce36c7d146100ca575f80fd5b346101a75760203660031901126101a7576004356001600160401b038111610434576100fa903690600401611463565b610105929192611759565b7f0000000000000000000000000000000000000000000000000000000000000000825b82811061025257506001600160a01b031690813b1561024e576040519363fce36c7d60e01b8552816024860160206004880152526044850160448360051b87010192828690609e19813603015b8383106101b55788808b8181808c0381838f5af180156101aa576101965750f35b816101a0916113fd565b6101a75780f35b80fd5b6040513d84823e3d90fd5b9091929394956043198a820301865286358281121561024a5760206001928582930190608063ffffffff610238826101fe6101f08780611882565b60a0885260a08801916118b6565b95898060a01b036102108983016113a7565b1688870152604081013560408701528361022c6060830161191a565b1660608701520161191a565b16910152980196019493019190610175565b8980fd5b8280fd5b8360206102b36001600160a01b036102758361026f878a8d61192b565b01611856565b16604061028386898c61192b565b6040516323b872dd60e01b8152336004820152306024820152910135604482015293849283919082906064820190565b03925af180156103d157610418575b506001600160a01b036102db602061026f84878a61192b565b604051636eb1769f60e11b81523060048201526001600160a01b03851660248201529160209183916044918391165afa9081156103d1578591879183916103dc575b506020916103889161035590604061034e888b6001600160a01b036103478a61026f85858c61192b565b169661192b565b0135611849565b60405163095ea7b360e01b81526001600160a01b0388166004820152602481019190915293849283919082906044820190565b03925af180156103d15790600192916103a3575b5001610128565b6103c39060203d81116103ca575b6103bb81836113fd565b81019061186a565b505f61039c565b503d6103b1565b6040513d87823e3d90fd5b925050506020813d8211610410575b816103f8602093836113fd565b8101031261040c575184908690602061031d565b5f80fd5b3d91506103eb565b61042f9060203d81116103ca576103bb81836113fd565b6102c2565b5080fd5b50346101a757806003193601126101a7576065546040516001600160a01b039091168152602090f35b50346101a75760203660031901126101a75761047b611391565b6104836116dd565b6001600160a01b031680156104d657603380546001600160a01b0319811683179091556001600160a01b03167f8be0079c531659141344cd1fd0a4f28419497f9722a3daafe3b4186f6b6457e08380a380f35b60405162461bcd60e51b815260206004820152602660248201527f4f776e61626c653a206e6577206f776e657220697320746865207a65726f206160448201526564647265737360d01b6064820152608490fd5b50346101a757806003193601126101a7576040516302e0740360e31b815281816004817f00000000000000000000000000000000000000000000000000000000000000006001600160a01b03165afa9081156101aa5782916105de575b506105938151516116ab565b915b815180518210156105cc57600191906001600160a01b03906105b8908390611661565b5151166105c58286611661565b5201610595565b604051806105da86826113bb565b0390f35b6105fa91503d8084833e6105f281836113fd565b81019061154f565b5f610587565b50346101a75760203660031901126101a757806004356001600160401b0381116106bc57366023820112156106bc5761064390369060248160040135910161141e565b61064b6116dd565b7f00000000000000000000000000000000000000000000000000000000000000006001600160a01b0316803b156106ba5760405163a98fb35560e01b81526020600482015291839183918290849082906106a9906024830190611735565b03925af180156101aa576101965750f35b505b50fd5b50346101a75760203660031901126101a757806106da611391565b61070e337f00000000000000000000000000000000000000000000000000000000000000006001600160a01b0316146114b3565b7f00000000000000000000000000000000000000000000000000000000000000006001600160a01b031690813b156106ba576040516351b27a6d60e11b81526001600160a01b0390911660048201529082908290602490829084905af180156101aa576101965750f35b50346101a75760203660031901126101a7576004356001600160401b038111610434576107a9903690600401611463565b6107b4929192611759565b7f0000000000000000000000000000000000000000000000000000000000000000825b82811061098757506001600160a01b0316803b1561024e5760405191634e5cd2fd60e11b835280604484013060048601526040602486015252606483019460648260051b8501019181869060be19813603015b83831061084b578880898181808b0381838e5af180156101aa576101965750f35b9091929394606319888203018a5285358281121561024a578301906108816108738380611882565b60c0845260c08401916118b6565b916001600160a01b03610896602083016113a7565b16602083015260206108ab6040830183611882565b848603604086015280865294909101938c905b8082106109575750505063ffffffff6108d96060830161191a565b16606083015263ffffffff6108f06080830161191a565b16608083015260a0810135601e1982360301811215610953570190602082359201906001600160401b038311610953578236038213610953578360209384938360a06109429560019903910152611493565b97019a01930191909893929861082a565b8b80fd5b909194604080600192838060a01b0361096f8a6113a7565b168152602089013560208201520196019201906108be565b909291829483955b6109a761099d8585856117f2565b6040810190611814565b90508710156109f7576109be61099d8585856117f2565b8810156109e35760019160206109db928a60061b01013590611849565b96019561098f565b634e487b7160e01b86526032600452602486fd5b909550929390929091906001600160a01b03610a19602061026f85888b6117f2565b6040516323b872dd60e01b81523360048201523060248201526044810184905291602091839160649183918b91165af18015610b4857610b53575b506001600160a01b03610a6d602061026f85888b6117f2565b604051636eb1769f60e11b81523060048201526001600160a01b03861660248201529160209183916044918391165afa908115610b4857908692918391610b11575b50602091610355610ad8928a610ad18661026f8a8d60018060a01b03956117f2565b1692611849565b03925af180156103d1579060019291610af3575b50016107d7565b610b0a9060203d81116103ca576103bb81836113fd565b505f610aec565b9250506020823d8211610b40575b81610b2c602093836113fd565b8101031261040c5790518591906020610aaf565b3d9150610b1f565b6040513d88823e3d90fd5b610b6a9060203d81116103ca576103bb81836113fd565b610a54565b50346101a75760203660031901126101a75780610b8a611391565b610b926116dd565b7f00000000000000000000000000000000000000000000000000000000000000006001600160a01b031690813b156106ba5760405163a0169ddd60e01b81526001600160a01b0390911660048201529082908290602490829084905af180156101aa576101965750f35b503461040c57604036600319011261040c57610c16611391565b602435906001600160401b03821161040c576060600319833603011261040c5760405190606082018281106001600160401b03821117610d7e5760405282600401356001600160401b03811161040c5783013660238201121561040c57610c8790369060246004820135910161141e565b82526020820191602484013583526044604082019401358452610cd360018060a01b037f00000000000000000000000000000000000000000000000000000000000000001633146114b3565b7f00000000000000000000000000000000000000000000000000000000000000006001600160a01b031690813b1561040c575f610d4693819560405197889687958694639926ee7d60e01b865260018060a01b0316600486015260406024860152516060604486015260a4850190611735565b9151606484015251608483015203925af18015610d7357610d65575080f35b610d7191505f906113fd565b005b6040513d5f823e3d90fd5b634e487b7160e01b5f52604160045260245ffd5b3461040c575f36600319011261040c576033546040516001600160a01b039091168152602090f35b3461040c575f36600319011261040c57610dd26116dd565b603380546001600160a01b031981169091555f906001600160a01b03167f8be0079c531659141344cd1fd0a4f28419497f9722a3daafe3b4186f6b6457e08280a3005b3461040c575f36600319011261040c576040517f00000000000000000000000000000000000000000000000000000000000000006001600160a01b03168152602090f35b3461040c575f36600319011261040c576040517f00000000000000000000000000000000000000000000000000000000000000006001600160a01b03168152602090f35b3461040c57602036600319011261040c57610eb6611391565b610ebe6116dd565b606554604080516001600160a01b038084168252841660208201529192917fe11cddf1816a43318ca175bbc52cd0185436e9cbead7c83acc54a73e461717e39190a16001600160a01b03166001600160a01b03199190911617606555005b3461040c57602036600319011261040c57610f35611391565b6040516302e0740360e31b81525f816004817f00000000000000000000000000000000000000000000000000000000000000006001600160a01b03165afa908115610d73575f916111d0575b509081515190610f9082611538565b90610f9e60405192836113fd565b828252610faa83611538565b602083019490601f19013686375f5b8481106111a257505060408051639004134760e01b81526001600160a01b0390921660048301526024820152815160448201819052909384916064830191905f5b81811061118057505f939283900391508290507f00000000000000000000000000000000000000000000000000000000000000006001600160a01b03165afa928315610d73575f936110ee575b505f5f5b8381106110c2575061105c906116ab565b925f905f5b84811061107657604051806105da88826113bb565b6110808183611661565b5161108e575b600101611061565b916001906110ba906001600160a01b036110a88688611661565b51166110b4828a611661565b52611689565b929050611086565b6110cc8186611661565b516110da575b60010161104b565b906110e6600191611689565b9190506110d2565b9092503d805f833e61110081836113fd565b81019060208183031261040c578051906001600160401b03821161040c57019080601f8301121561040c57815161113681611538565b9261114460405194856113fd565b81845260208085019260051b82010192831161040c57602001905b828210611170575050509183611047565b815181526020918201910161115f565b82516001600160a01b0316845287945060209384019390920191600101610ffa565b600190818060a09895981b036111b9828551611661565b5151166111c68287611661565b5201949194610fb9565b6111e491503d805f833e6105f281836113fd565b82610f81565b3461040c57604036600319011261040c576004356001600160401b03811161040c5761121a903690600401611364565b90602435906001600160401b03821161040c5761124a6112406020933690600401611364565b929094369161141e565b828151910120604051838101917f19457468657265756d205369676e6564204d6573736167653a0a3332000000008352603c820152603c815261128e605c826113fd565b5190206112bc6040519485938493630b135d3f60e11b85526004850152604060248501526044840191611493565b03817f00000000000000000000000000000000000000000000000000000000000000006001600160a01b03165afa908115610d73575f91611321575b506001600160e01b031916630b135d3f60e11b0361131257005b638baa579f60e01b5f5260045ffd5b90506020813d60201161135c575b8161133c602093836113fd565b8101031261040c57516001600160e01b03198116810361040c57816112f8565b3d915061132f565b9181601f8401121561040c578235916001600160401b03831161040c576020838186019501011161040c57565b600435906001600160a01b038216820361040c57565b35906001600160a01b038216820361040c57565b60206040818301928281528451809452019201905f5b8181106113de5750505090565b82516001600160a01b03168452602093840193909201916001016113d1565b90601f801991011681019081106001600160401b03821117610d7e57604052565b9291926001600160401b038211610d7e5760405191611447601f8201601f1916602001846113fd565b82948184528183011161040c578281602093845f960137010152565b9181601f8401121561040c578235916001600160401b03831161040c576020808501948460051b01011161040c57565b908060209392818452848401375f828201840152601f01601f1916010190565b156114ba57565b60405162461bcd60e51b815260206004820152604a60248201527f4543445341536572766963654d616e61676572426173652e6f6e6c795374616b60448201527f6552656769737472793a2063616c6c6572206973206e6f7420746865207374616064820152696b65526567697374727960b01b608482015260a490fd5b6001600160401b038111610d7e5760051b60200190565b60208183031261040c578051906001600160401b03821161040c57019060208282031261040c5760405191602083018381106001600160401b03821117610d7e576040528051906001600160401b03821161040c570181601f8201121561040c578051906115bc82611538565b926115ca60405194856113fd565b82845260208085019360061b8301019181831161040c57602001925b8284106115f65750505050815290565b60408483031261040c5760405190604082018281106001600160401b03821117610d7e5760405284516001600160a01b038116810361040c5782526020850151906bffffffffffffffffffffffff8216820361040c57826020928360409501528152019301926115e6565b80518210156116755760209160051b010190565b634e487b7160e01b5f52603260045260245ffd5b5f1981146116975760010190565b634e487b7160e01b5f52601160045260245ffd5b906116b582611538565b6116c260405191826113fd565b82815280926116d3601f1991611538565b0190602036910137565b6033546001600160a01b031633036116f157565b606460405162461bcd60e51b815260206004820152602060248201527f4f776e61626c653a2063616c6c6572206973206e6f7420746865206f776e65726044820152fd5b805180835260209291819084018484015e5f828201840152601f01601f1916010190565b6065546001600160a01b0316330361176d57565b60405162461bcd60e51b815260206004820152605160248201527f4543445341536572766963654d616e61676572426173652e6f6e6c795265776160448201527f726473496e69746961746f723a2063616c6c6572206973206e6f7420746865206064820152703932bbb0b932399034b734ba34b0ba37b960791b608482015260a490fd5b91908110156116755760051b8101359060be198136030182121561040c570190565b903590601e198136030182121561040c57018035906001600160401b03821161040c57602001918160061b3603831361040c57565b9190820180921161169757565b356001600160a01b038116810361040c5790565b9081602091031261040c5751801515810361040c5790565b9035601e198236030181121561040c5701602081359101916001600160401b03821161040c578160061b3603831361040c57565b916020908281520191905f905b8082106118d05750505090565b909192833560018060a01b03811680910361040c5781526020840135906bffffffffffffffffffffffff821680920361040c576040816001936020839401520194019201906118c3565b359063ffffffff8216820361040c57565b91908110156116755760051b81013590609e198136030182121561040c57019056fea264697066735822122046419ab54750fd0698a799daeb2ceaf6c290ab366da73b4e4c5a7e86221522aa64736f6c634300081c0033","linkReferences":{}},"methodIdentifiers":{"avsDirectory()":"6b3aa72e","createAVSRewardsSubmission(((address,uint96)[],address,uint256,uint32,uint32)[])":"fce36c7d","createOperatorDirectedAVSRewardsSubmission(((address,uint96)[],address,(address,uint256)[],uint32,uint32,string)[])":"a20b99bf","deregisterOperatorFromAVS(address)":"a364f4da","getOperatorRestakedStrategies(address)":"33cfb7b7","getRestakeableStrategies()":"e481af9d","owner()":"8da5cb5b","registerOperatorToAVS(address,(bytes,bytes32,uint256))":"9926ee7d","renounceOwnership()":"715018a6","rewardsInitiator()":"fc299dee","setClaimerFor(address)":"a0169ddd","setRewardsInitiator(address)":"3bc28c8c","stakeRegistry()":"68304835","transferOwnership(address)":"f2fde38b","updateAVSMetadataURI(string)":"a98fb355","validate(bytes,bytes)":"2a3e7f3b"},"id":2}