{"abi":[{"type":"constructor","inputs":[{"name":"_avsDirectory","type":"address","internalType":"address"},{"name":"_stakeRegistry","type":"address","internalType":"address"},{"name":"_rewardsCoordinator","type":"address","internalType":"address"},{"name":"_delegationManager","type":"address","internalType":"address"}],"stateMutability":"nonpayable"},{"type":"function","name":"avsDirectory","inputs":[],"outputs":[{"name":"","type":"address","internalType":"address"}],"stateMutability":"view"},{"type":"function","name":"createAVSRewardsSubmission","inputs":[{"name":"rewardsSubmissions","type":"tuple[]","internalType":"struct IRewardsCoordinator.RewardsSubmission[]","components":[{"name":"strategiesAndMultipliers","type":"tuple[]","internalType":"struct IRewardsCoordinator.StrategyAndMultiplier[]","components":[{"name":"strategy","type":"address","internalType":"contract IStrategy"},{"name":"multiplier","type":"uint96","internalType":"uint96"}]},{"name":"token","type":"address","internalType":"contract IERC20"},{"name":"amount","type":"uint256","internalType":"uint256"},{"name":"startTimestamp","type":"uint32","internalType":"uint32"},{"name":"duration","type":"uint32","internalType":"uint32"}]}],"outputs":[],"stateMutability":"nonpayable"},{"type":"function","name":"createOperatorDirectedAVSRewardsSubmission","inputs":[{"name":"operatorDirectedRewardsSubmissions","type":"tuple[]","internalType":"struct IRewardsCoordinator.OperatorDirectedRewardsSubmission[]","components":[{"name":"strategiesAndMultipliers","type":"tuple[]","internalType":"struct IRewardsCoordinator.StrategyAndMultiplier[]","components":[{"name":"strategy","type":"address","internalType":"contract IStrategy"},{"name":"multiplier","type":"uint96","internalType":"uint96"}]},{"name":"token","type":"address","internalType":"contract IERC20"},{"name":"operatorRewards","type":"tuple[]","internalType":"struct IRewardsCoordinator.OperatorReward[]","components":[{"name":"operator","type":"address","internalType":"address"},{"name":"amount","type":"uint256","internalType":"uint256"}]},{"name":"startTimestamp","type":"uint32","internalType":"uint32"},{"name":"duration","type":"uint32","internalType":"uint32"},{"name":"description","type":"string","internalType":"string"}]}],"outputs":[],"stateMutability":"nonpayable"},{"type":"function","name":"deregisterOperatorFromAVS","inputs":[{"name":"operator","type":"address","internalType":"address"}],"outputs":[],"stateMutability":"nonpayable"},{"type":"function","name":"getOperatorRestakedStrategies","inputs":[{"name":"_operator","type":"address","internalType":"address"}],"outputs":[{"name":"","type":"address[]","internalType":"address[]"}],"stateMutability":"view"},{"type":"function","name":"getRestakeableStrategies","inputs":[],"outputs":[{"name":"","type":"address[]","internalType":"address[]"}],"stateMutability":"view"},{"type":"function","name":"getWavsMetadataURI","inputs":[],"outputs":[{"name":"","type":"string","internalType":"string"}],"stateMutability":"view"},{"type":"function","name":"owner","inputs":[],"outputs":[{"name":"","type":"address","internalType":"address"}],"stateMutability":"view"},{"type":"function","name":"registerOperatorToAVS","inputs":[{"name":"operator","type":"address","internalType":"address"},{"name":"operatorSignature","type":"tuple","internalType":"struct ISignatureUtils.SignatureWithSaltAndExpiry","components":[{"name":"signature","type":"bytes","internalType":"bytes"},{"name":"salt","type":"bytes32","internalType":"bytes32"},{"name":"expiry","type":"uint256","internalType":"uint256"}]}],"outputs":[],"stateMutability":"nonpayable"},{"type":"function","name":"renounceOwnership","inputs":[],"outputs":[],"stateMutability":"nonpayable"},{"type":"function","name":"rewardsInitiator","inputs":[],"outputs":[{"name":"","type":"address","internalType":"address"}],"stateMutability":"view"},{"type":"function","name":"setClaimerFor","inputs":[{"name":"claimer","type":"address","internalType":"address"}],"outputs":[],"stateMutability":"nonpayable"},{"type":"function","name":"setRewardsInitiator","inputs":[{"name":"newRewardsInitiator","type":"address","internalType":"address"}],"outputs":[],"stateMutability":"nonpayable"},{"type":"function","name":"setWavsMetadataURI","inputs":[{"name":"_metadataURI","type":"string","internalType":"string"}],"outputs":[],"stateMutability":"nonpayable"},{"type":"function","name":"stakeRegistry","inputs":[],"outputs":[{"name":"","type":"address","internalType":"address"}],"stateMutability":"view"},{"type":"function","name":"transferOwnership","inputs":[{"name":"newOwner","type":"address","internalType":"address"}],"outputs":[],"stateMutability":"nonpayable"},{"type":"function","name":"updateAVSMetadataURI","inputs":[{"name":"_metadataURI","type":"string","internalType":"string"}],"outputs":[],"stateMutability":"nonpayable"},{"type":"function","name":"validate","inputs":[{"name":"data","type":"bytes","internalType":"bytes"},{"name":"signature","type":"bytes","internalType":"bytes"}],"outputs":[],"stateMutability":"view"},{"type":"function","name":"wavsMetadataURI","inputs":[],"outputs":[{"name":"","type":"string","internalType":"string"}],"stateMutability":"view"},{"type":"event","name":"Initialized","inputs":[{"name":"version","type":"uint8","indexed":false,"internalType":"uint8"}],"anonymous":false},{"type":"event","name":"OwnershipTransferred","inputs":[{"name":"previousOwner","type":"address","indexed":true,"internalType":"address"},{"name":"newOwner","type":"address","indexed":true,"internalType":"address"}],"anonymous":false},{"type":"event","name":"RewardsInitiatorUpdated","inputs":[{"name":"prevRewardsInitiator","type":"address","indexed":false,"internalType":"address"},{"name":"newRewardsInitiator","type":"address","indexed":false,"internalType":"address"}],"anonymous":false},{"type":"error","name":"InvalidSignature","inputs":[]}],"bytecode":{"object":"0x6101003461019a57601f611e1238819003918201601f19168301916001600160401b0383118484101761019e5780849260809460405283398101031261019a57610048816101b2565b90610055602082016101b2565b61006d6060610066604085016101b2565b93016101b2565b9260a05260805260c05260e0525f5460ff8160081c166101455760ff8082161061010b575b604051611c4b90816101c782396080518181816105a4015281816106fd01528181610e1f01528181610fe1015281816110bc0152611433015260a05181818161066b0152818161072d01528181610e480152610f9d015260c051818181610128015281816107d30152610bb1015260e051816111820152f35b60ff90811916175f557f7f26b83ff96e1f2b6a682f133852f6798a09c465da95921460cefb3847402498602060405160ff8152a15f610092565b60405162461bcd60e51b815260206004820152602760248201527f496e697469616c697a61626c653a20636f6e747261637420697320696e697469604482015266616c697a696e6760c81b6064820152608490fd5b5f80fd5b634e487b7160e01b5f52604160045260245ffd5b51906001600160a01b038216820361019a5756fe60806040526004361015610011575f80fd5b5f803560e01c806302f30f3b146114d75780632a3e7f3b1461135d57806333cfb7b71461108f5780633bc28c8c146110105780636830483514610fcc5780636b3aa72e14610f88578063715018a614610f2d5780638da5cb5b14610f055780639926ee7d14610d6f5780639c2c2b3514610c19578063a0169ddd14610b8c578063a20b99bf14610795578063a364f4da146106dc578063a98fb35514610651578063e481af9d1461057f578063f1943fc71461054b578063f2fde38b14610482578063fc299dee146104595763fce36c7d146100eb575f80fd5b346101c85760203660031901126101c8576004356001600160401b0381116104555761011b903690600401611653565b610126929192611a01565b7f0000000000000000000000000000000000000000000000000000000000000000825b82811061027357506001600160a01b031690813b1561026f576040519363fce36c7d60e01b8552816024860160206004880152526044850160448360051b87010192828690609e19813603015b8383106101d65788808b8181808c0381838f5af180156101cb576101b75750f35b816101c1916115af565b6101c85780f35b80fd5b6040513d84823e3d90fd5b9091929394956043198a820301865286358281121561026b5760206001928582930190608063ffffffff6102598261021f6102118780611b2a565b60a0885260a0880191611b5e565b95898060a01b03610231898301611559565b1688870152604081013560408701528361024d60608301611bc2565b16606087015201611bc2565b16910152980196019493019190610196565b8980fd5b8280fd5b8360206102d46001600160a01b0361029683610290878a8d611bd3565b01611afe565b1660406102a486898c611bd3565b6040516323b872dd60e01b8152336004820152306024820152910135604482015293849283919082906064820190565b03925af180156103f257610439575b506001600160a01b036102fc602061029084878a611bd3565b604051636eb1769f60e11b81523060048201526001600160a01b03851660248201529160209183916044918391165afa9081156103f2578591879183916103fd575b506020916103a99161037690604061036f888b6001600160a01b036103688a61029085858c611bd3565b1696611bd3565b0135611af1565b60405163095ea7b360e01b81526001600160a01b0388166004820152602481019190915293849283919082906044820190565b03925af180156103f25790600192916103c4575b5001610149565b6103e49060203d81116103eb575b6103dc81836115af565b810190611b12565b505f6103bd565b503d6103d2565b6040513d87823e3d90fd5b925050506020813d8211610431575b81610419602093836115af565b8101031261042d575184908690602061033e565b5f80fd5b3d915061040c565b6104509060203d81116103eb576103dc81836115af565b6102e3565b5080fd5b50346101c857806003193601126101c8576065546040516001600160a01b039091168152602090f35b50346101c85760203660031901126101c85761049c611543565b6104a46119a9565b6001600160a01b031680156104f757603380546001600160a01b0319811683179091556001600160a01b03167f8be0079c531659141344cd1fd0a4f28419497f9722a3daafe3b4186f6b6457e08380a380f35b60405162461bcd60e51b815260206004820152602660248201527f4f776e61626c653a206e6577206f776e657220697320746865207a65726f206160448201526564647265737360d01b6064820152608490fd5b50346101c857806003193601126101c85761057b6105676116bb565b6040519182916020835260208301906114f2565b0390f35b50346101c857806003193601126101c8576040516302e0740360e31b815281816004817f00000000000000000000000000000000000000000000000000000000000000006001600160a01b03165afa9081156101cb57829161062f575b506105e8815151611977565b915b8151805182101561062157600191906001600160a01b039061060d90839061192d565b51511661061a828661192d565b52016105ea565b6040518061057b868261156d565b61064b91503d8084833e61064381836115af565b81019061181b565b5f6105dc565b50346101c8578061066136611615565b6106696119a9565b7f00000000000000000000000000000000000000000000000000000000000000006001600160a01b0316803b156106d85760405163a98fb35560e01b81526020600482015291839183918290849082906106c79060248301906114f2565b03925af180156101cb576101b75750f35b5050fd5b50346101c85760203660031901126101c857806106f7611543565b61072b337f00000000000000000000000000000000000000000000000000000000000000006001600160a01b03161461177f565b7f00000000000000000000000000000000000000000000000000000000000000006001600160a01b031690813b156106d8576040516351b27a6d60e11b81526001600160a01b0390911660048201529082908290602490829084905af180156101cb576101b75750f35b50346101c85760203660031901126101c8576004356001600160401b038111610455576107c6903690600401611653565b6107d1929192611a01565b7f0000000000000000000000000000000000000000000000000000000000000000825b8281106109a457506001600160a01b0316803b1561026f5760405191634e5cd2fd60e11b835280604484013060048601526040602486015252606483019460648260051b8501019181869060be19813603015b838310610868578880898181808b0381838e5af180156101cb576101b75750f35b9091929394606319888203018a5285358281121561026b5783019061089e6108908380611b2a565b60c0845260c0840191611b5e565b916001600160a01b036108b360208301611559565b16602083015260206108c86040830183611b2a565b848603604086015280865294909101938c905b8082106109745750505063ffffffff6108f660608301611bc2565b16606083015263ffffffff61090d60808301611bc2565b16608083015260a0810135601e1982360301811215610970570190602082359201906001600160401b038311610970578236038213610970578360209384938360a061095f956001990391015261175f565b97019a019301919098939298610847565b8b80fd5b909194604080600192838060a01b0361098c8a611559565b168152602089013560208201520196019201906108db565b909291829483955b6109c46109ba858585611a9a565b6040810190611abc565b9050871015610a14576109db6109ba858585611a9a565b881015610a005760019160206109f8928a60061b01013590611af1565b9601956109ac565b634e487b7160e01b86526032600452602486fd5b909550929390929091906001600160a01b03610a36602061029085888b611a9a565b6040516323b872dd60e01b81523360048201523060248201526044810184905291602091839160649183918b91165af18015610b6557610b70575b506001600160a01b03610a8a602061029085888b611a9a565b604051636eb1769f60e11b81523060048201526001600160a01b03861660248201529160209183916044918391165afa908115610b6557908692918391610b2e575b50602091610376610af5928a610aee866102908a8d60018060a01b0395611a9a565b1692611af1565b03925af180156103f2579060019291610b10575b50016107f4565b610b279060203d81116103eb576103dc81836115af565b505f610b09565b9250506020823d8211610b5d575b81610b49602093836115af565b8101031261042d5790518591906020610acc565b3d9150610b3c565b6040513d88823e3d90fd5b610b879060203d81116103eb576103dc81836115af565b610a71565b50346101c85760203660031901126101c85780610ba7611543565b610baf6119a9565b7f00000000000000000000000000000000000000000000000000000000000000006001600160a01b031690813b156106d85760405163a0169ddd60e01b81526001600160a01b0390911660048201529082908290602490829084905af180156101cb576101b75750f35b50346101c857610c2836611615565b9081516001600160401b038111610d5b57610c44609754611683565b601f8111610cf3575b50602092601f8211600114610c8957928293829392610c7e575b50508160011b915f199060031b1c19161760975580f35b015190505f80610c67565b60978352601f198216935f80516020611bf683398151915291845b868110610cdb5750836001959610610cc3575b505050811b0160975580f35b01515f1960f88460031b161c191690555f8080610cb7565b91926020600181928685015181550194019201610ca4565b60978352601f820160051c5f80516020611bf6833981519152019060208310610d46575b601f0160051c5f80516020611bf683398151915201905b818110610d3b5750610c4d565b838155600101610d2e565b5f80516020611bf68339815191529150610d17565b634e487b7160e01b82526041600452602482fd5b503461042d57604036600319011261042d57610d89611543565b602435906001600160401b03821161042d576060600319833603011261042d5760405190606082018281106001600160401b03821117610ef15760405282600401356001600160401b03811161042d5783013660238201121561042d57610dfa9036906024600482013591016115d0565b82526020820191602484013583526044604082019401358452610e4660018060a01b037f000000000000000000000000000000000000000000000000000000000000000016331461177f565b7f00000000000000000000000000000000000000000000000000000000000000006001600160a01b031690813b1561042d575f610eb993819560405197889687958694639926ee7d60e01b865260018060a01b0316600486015260406024860152516060604486015260a48501906114f2565b9151606484015251608483015203925af18015610ee657610ed8575080f35b610ee491505f906115af565b005b6040513d5f823e3d90fd5b634e487b7160e01b5f52604160045260245ffd5b3461042d575f36600319011261042d576033546040516001600160a01b039091168152602090f35b3461042d575f36600319011261042d57610f456119a9565b603380546001600160a01b031981169091555f906001600160a01b03167f8be0079c531659141344cd1fd0a4f28419497f9722a3daafe3b4186f6b6457e08280a3005b3461042d575f36600319011261042d576040517f00000000000000000000000000000000000000000000000000000000000000006001600160a01b03168152602090f35b3461042d575f36600319011261042d576040517f00000000000000000000000000000000000000000000000000000000000000006001600160a01b03168152602090f35b3461042d57602036600319011261042d57611029611543565b6110316119a9565b606554604080516001600160a01b038084168252841660208201529192917fe11cddf1816a43318ca175bbc52cd0185436e9cbead7c83acc54a73e461717e39190a16001600160a01b03166001600160a01b03199190911617606555005b3461042d57602036600319011261042d576110a8611543565b6040516302e0740360e31b81525f816004817f00000000000000000000000000000000000000000000000000000000000000006001600160a01b03165afa908115610ee6575f91611343575b50908151519061110382611804565b9061111160405192836115af565b82825261111d83611804565b602083019490601f19013686375f5b84811061131557505060408051639004134760e01b81526001600160a01b0390921660048301526024820152815160448201819052909384916064830191905f5b8181106112f357505f939283900391508290507f00000000000000000000000000000000000000000000000000000000000000006001600160a01b03165afa928315610ee6575f93611261575b505f805b83811061123557506111cf90611977565b925f905f5b8481106111e9576040518061057b888261156d565b6111f3818361192d565b51611201575b6001016111d4565b9160019061122d906001600160a01b0361121b868861192d565b5116611227828a61192d565b52611955565b9290506111f9565b61123f818661192d565b5161124d575b6001016111be565b90611259600191611955565b919050611245565b9092503d805f833e61127381836115af565b81019060208183031261042d578051906001600160401b03821161042d57019080601f8301121561042d5781516112a981611804565b926112b760405194856115af565b81845260208085019260051b82010192831161042d57602001905b8282106112e35750505091836111ba565b81518152602091820191016112d2565b82516001600160a01b031684528794506020938401939092019160010161116d565b600190818060a09895981b0361132c82855161192d565b515116611339828761192d565b520194919461112c565b61135791503d805f833e61064381836115af565b826110f4565b3461042d57604036600319011261042d576004356001600160401b03811161042d5761138d903690600401611516565b90602435906001600160401b03821161042d576113bd6113b36020933690600401611516565b92909436916115d0565b828151910120604051838101917f19457468657265756d205369676e6564204d6573736167653a0a3332000000008352603c820152603c8152611401605c826115af565b51902061142f6040519485938493630b135d3f60e11b8552600485015260406024850152604484019161175f565b03817f00000000000000000000000000000000000000000000000000000000000000006001600160a01b03165afa908115610ee6575f91611494575b506001600160e01b031916630b135d3f60e11b0361148557005b638baa579f60e01b5f5260045ffd5b90506020813d6020116114cf575b816114af602093836115af565b8101031261042d57516001600160e01b03198116810361042d578161146b565b3d91506114a2565b3461042d575f36600319011261042d5761057b6105676116bb565b805180835260209291819084018484015e5f828201840152601f01601f1916010190565b9181601f8401121561042d578235916001600160401b03831161042d576020838186019501011161042d57565b600435906001600160a01b038216820361042d57565b35906001600160a01b038216820361042d57565b60206040818301928281528451809452019201905f5b8181106115905750505090565b82516001600160a01b0316845260209384019390920191600101611583565b90601f801991011681019081106001600160401b03821117610ef157604052565b9291926001600160401b038211610ef157604051916115f9601f8201601f1916602001846115af565b82948184528183011161042d578281602093845f960137010152565b602060031982011261042d57600435906001600160401b03821161042d578060238301121561042d57816024611650936004013591016115d0565b90565b9181601f8401121561042d578235916001600160401b03831161042d576020808501948460051b01011161042d57565b90600182811c921680156116b1575b602083101461169d57565b634e487b7160e01b5f52602260045260245ffd5b91607f1691611692565b604051905f82609754916116ce83611683565b808352926001811690811561174057506001146116f4575b6116f2925003836115af565b565b5060975f90815290915f80516020611bf68339815191525b8183106117245750509060206116f2928201016116e6565b602091935080600191548385890101520191019091849261170c565b602092506116f294915060ff191682840152151560051b8201016116e6565b908060209392818452848401375f828201840152601f01601f1916010190565b1561178657565b60405162461bcd60e51b815260206004820152604a60248201527f4543445341536572766963654d616e61676572426173652e6f6e6c795374616b60448201527f6552656769737472793a2063616c6c6572206973206e6f7420746865207374616064820152696b65526567697374727960b01b608482015260a490fd5b6001600160401b038111610ef15760051b60200190565b60208183031261042d578051906001600160401b03821161042d57019060208282031261042d5760405191602083018381106001600160401b03821117610ef1576040528051906001600160401b03821161042d570181601f8201121561042d5780519061188882611804565b9261189660405194856115af565b82845260208085019360061b8301019181831161042d57602001925b8284106118c25750505050815290565b60408483031261042d5760405190604082018281106001600160401b03821117610ef15760405284516001600160a01b038116810361042d5782526020850151906bffffffffffffffffffffffff8216820361042d57826020928360409501528152019301926118b2565b80518210156119415760209160051b010190565b634e487b7160e01b5f52603260045260245ffd5b5f1981146119635760010190565b634e487b7160e01b5f52601160045260245ffd5b9061198182611804565b61198e60405191826115af565b828152809261199f601f1991611804565b0190602036910137565b6033546001600160a01b031633036119bd57565b606460405162461bcd60e51b815260206004820152602060248201527f4f776e61626c653a2063616c6c6572206973206e6f7420746865206f776e65726044820152fd5b6065546001600160a01b03163303611a1557565b60405162461bcd60e51b815260206004820152605160248201527f4543445341536572766963654d616e61676572426173652e6f6e6c795265776160448201527f726473496e69746961746f723a2063616c6c6572206973206e6f7420746865206064820152703932bbb0b932399034b734ba34b0ba37b960791b608482015260a490fd5b91908110156119415760051b8101359060be198136030182121561042d570190565b903590601e198136030182121561042d57018035906001600160401b03821161042d57602001918160061b3603831361042d57565b9190820180921161196357565b356001600160a01b038116810361042d5790565b9081602091031261042d5751801515810361042d5790565b9035601e198236030181121561042d5701602081359101916001600160401b03821161042d578160061b3603831361042d57565b916020908281520191905f905b808210611b785750505090565b909192833560018060a01b03811680910361042d5781526020840135906bffffffffffffffffffffffff821680920361042d57604081600193602083940152019401920190611b6b565b359063ffffffff8216820361042d57565b91908110156119415760051b81013590609e198136030182121561042d57019056fe354a83ed9988f79f6038d4c7a7dadbad8af32f4ad6df893e0e5807a1b1944ff9a26469706673582212208cc2cd5695d1923c9e9706841228a4d965b88644ca006d649b62aa94ea5d521364736f6c634300081a0033","linkReferences":{}},"methodIdentifiers":{"avsDirectory()":"6b3aa72e","createAVSRewardsSubmission(((address,uint96)[],address,uint256,uint32,uint32)[])":"fce36c7d","createOperatorDirectedAVSRewardsSubmission(((address,uint96)[],address,(address,uint256)[],uint32,uint32,string)[])":"a20b99bf","deregisterOperatorFromAVS(address)":"a364f4da","getOperatorRestakedStrategies(address)":"33cfb7b7","getRestakeableStrategies()":"e481af9d","getWavsMetadataURI()":"02f30f3b","owner()":"8da5cb5b","registerOperatorToAVS(address,(bytes,bytes32,uint256))":"9926ee7d","renounceOwnership()":"715018a6","rewardsInitiator()":"fc299dee","setClaimerFor(address)":"a0169ddd","setRewardsInitiator(address)":"3bc28c8c","setWavsMetadataURI(string)":"9c2c2b35","stakeRegistry()":"68304835","transferOwnership(address)":"f2fde38b","updateAVSMetadataURI(string)":"a98fb355","validate(bytes,bytes)":"2a3e7f3b","wavsMetadataURI()":"f1943fc7"},"id":2}