{"abi":[{"type":"constructor","inputs":[{"name":"_avsDirectory","type":"address","internalType":"address"},{"name":"_stakeRegistry","type":"address","internalType":"address"},{"name":"_rewardsCoordinator","type":"address","internalType":"address"},{"name":"_delegationManager","type":"address","internalType":"address"}],"stateMutability":"nonpayable"},{"type":"function","name":"addSignedPayload","inputs":[{"name":"signedPayload","type":"tuple","internalType":"struct ILayerServiceManager.SignedPayload","components":[{"name":"data","type":"bytes","internalType":"bytes"},{"name":"signature","type":"bytes","internalType":"bytes"}]}],"outputs":[],"stateMutability":"view"},{"type":"function","name":"addSignedPayloadMulti","inputs":[{"name":"signedPayloads","type":"tuple[]","internalType":"struct ILayerServiceManager.SignedPayload[]","components":[{"name":"data","type":"bytes","internalType":"bytes"},{"name":"signature","type":"bytes","internalType":"bytes"}]}],"outputs":[],"stateMutability":"view"},{"type":"function","name":"avsDirectory","inputs":[],"outputs":[{"name":"","type":"address","internalType":"address"}],"stateMutability":"view"},{"type":"function","name":"createAVSRewardsSubmission","inputs":[{"name":"rewardsSubmissions","type":"tuple[]","internalType":"struct IRewardsCoordinator.RewardsSubmission[]","components":[{"name":"strategiesAndMultipliers","type":"tuple[]","internalType":"struct IRewardsCoordinator.StrategyAndMultiplier[]","components":[{"name":"strategy","type":"address","internalType":"contract IStrategy"},{"name":"multiplier","type":"uint96","internalType":"uint96"}]},{"name":"token","type":"address","internalType":"contract IERC20"},{"name":"amount","type":"uint256","internalType":"uint256"},{"name":"startTimestamp","type":"uint32","internalType":"uint32"},{"name":"duration","type":"uint32","internalType":"uint32"}]}],"outputs":[],"stateMutability":"nonpayable"},{"type":"function","name":"createOperatorDirectedAVSRewardsSubmission","inputs":[{"name":"operatorDirectedRewardsSubmissions","type":"tuple[]","internalType":"struct IRewardsCoordinator.OperatorDirectedRewardsSubmission[]","components":[{"name":"strategiesAndMultipliers","type":"tuple[]","internalType":"struct IRewardsCoordinator.StrategyAndMultiplier[]","components":[{"name":"strategy","type":"address","internalType":"contract IStrategy"},{"name":"multiplier","type":"uint96","internalType":"uint96"}]},{"name":"token","type":"address","internalType":"contract IERC20"},{"name":"operatorRewards","type":"tuple[]","internalType":"struct IRewardsCoordinator.OperatorReward[]","components":[{"name":"operator","type":"address","internalType":"address"},{"name":"amount","type":"uint256","internalType":"uint256"}]},{"name":"startTimestamp","type":"uint32","internalType":"uint32"},{"name":"duration","type":"uint32","internalType":"uint32"},{"name":"description","type":"string","internalType":"string"}]}],"outputs":[],"stateMutability":"nonpayable"},{"type":"function","name":"deregisterOperatorFromAVS","inputs":[{"name":"operator","type":"address","internalType":"address"}],"outputs":[],"stateMutability":"nonpayable"},{"type":"function","name":"getOperatorRestakedStrategies","inputs":[{"name":"_operator","type":"address","internalType":"address"}],"outputs":[{"name":"","type":"address[]","internalType":"address[]"}],"stateMutability":"view"},{"type":"function","name":"getRestakeableStrategies","inputs":[],"outputs":[{"name":"","type":"address[]","internalType":"address[]"}],"stateMutability":"view"},{"type":"function","name":"owner","inputs":[],"outputs":[{"name":"","type":"address","internalType":"address"}],"stateMutability":"view"},{"type":"function","name":"registerOperatorToAVS","inputs":[{"name":"operator","type":"address","internalType":"address"},{"name":"operatorSignature","type":"tuple","internalType":"struct ISignatureUtils.SignatureWithSaltAndExpiry","components":[{"name":"signature","type":"bytes","internalType":"bytes"},{"name":"salt","type":"bytes32","internalType":"bytes32"},{"name":"expiry","type":"uint256","internalType":"uint256"}]}],"outputs":[],"stateMutability":"nonpayable"},{"type":"function","name":"renounceOwnership","inputs":[],"outputs":[],"stateMutability":"nonpayable"},{"type":"function","name":"rewardsInitiator","inputs":[],"outputs":[{"name":"","type":"address","internalType":"address"}],"stateMutability":"view"},{"type":"function","name":"setClaimerFor","inputs":[{"name":"claimer","type":"address","internalType":"address"}],"outputs":[],"stateMutability":"nonpayable"},{"type":"function","name":"setRewardsInitiator","inputs":[{"name":"newRewardsInitiator","type":"address","internalType":"address"}],"outputs":[],"stateMutability":"nonpayable"},{"type":"function","name":"stakeRegistry","inputs":[],"outputs":[{"name":"","type":"address","internalType":"address"}],"stateMutability":"view"},{"type":"function","name":"transferOwnership","inputs":[{"name":"newOwner","type":"address","internalType":"address"}],"outputs":[],"stateMutability":"nonpayable"},{"type":"function","name":"updateAVSMetadataURI","inputs":[{"name":"_metadataURI","type":"string","internalType":"string"}],"outputs":[],"stateMutability":"nonpayable"},{"type":"event","name":"Initialized","inputs":[{"name":"version","type":"uint8","indexed":false,"internalType":"uint8"}],"anonymous":false},{"type":"event","name":"OwnershipTransferred","inputs":[{"name":"previousOwner","type":"address","indexed":true,"internalType":"address"},{"name":"newOwner","type":"address","indexed":true,"internalType":"address"}],"anonymous":false},{"type":"event","name":"RewardsInitiatorUpdated","inputs":[{"name":"prevRewardsInitiator","type":"address","indexed":false,"internalType":"address"},{"name":"newRewardsInitiator","type":"address","indexed":false,"internalType":"address"}],"anonymous":false},{"type":"error","name":"InvalidSignature","inputs":[]}],"bytecode":{"object":"0x6101003461019a57601f611c0738819003918201601f19168301916001600160401b0383118484101761019e5780849260809460405283398101031261019a57610048816101b2565b90610055602082016101b2565b61006d6060610066604085016101b2565b93016101b2565b9260a05260805260c05260e0525f5460ff8160081c166101455760ff8082161061010b575b604051611a4090816101c7823960805181818161053b015281816106bf01528181610c4901528181610df001528181610fe0015261136f015260a051818181610638015281816106ef01528181610c720152610dac015260c051818181610112015281816107900152610b33015260e051816110a60152f35b60ff90811916175f557f7f26b83ff96e1f2b6a682f133852f6798a09c465da95921460cefb3847402498602060405160ff8152a15f610092565b60405162461bcd60e51b815260206004820152602760248201527f496e697469616c697a61626c653a20636f6e747261637420697320696e697469604482015266616c697a696e6760c81b6064820152608490fd5b5f80fd5b634e487b7160e01b5f52604160045260245ffd5b51906001600160a01b038216820361019a5756fe6080806040526004361015610012575f80fd5b5f3560e01c908163309cb933146112815750806333cfb7b714610fb35780633bc28c8c14610f345780634db4585714610e1f5780636830483514610ddb5780636b3aa72e14610d97578063715018a614610d3c5780638da5cb5b14610d145780639926ee7d14610b9a578063a0169ddd14610b10578063a20b99bf14610756578063a364f4da146106a0578063a98fb355146105ed578063e481af9d14610517578063f2fde38b14610450578063fc299dee146104285763fce36c7d146100d7575f80fd5b34610257576020366003190112610257576004356001600160401b0381116102575761010790369060040161147f565b90610110611816565b7f00000000000000000000000000000000000000000000000000000000000000005f5b83811061025b57506001600160a01b031690813b15610257579160405192839163fce36c7d60e01b835280602484016020600486015252604483019060448160051b8501019280925f90609e1983360301905b8483106101bb57875f81808a0381838e5af180156101b0576101a457005b5f6101ae916114af565b005b6040513d5f823e3d90fd5b9193959092949650604319898203018252863590838212156102575760208091876001940190608063ffffffff610241826102076101f9878061193f565b60a0885260a0880191611973565b95898060a01b03610219898301611429565b16888701526040810135604087015283610235606083016119d7565b166060870152016119d7565b1691015298019201930190939188969593610186565b5f80fd5b5f60206102bc6001600160a01b0361027e83610278878b8b6119e8565b01611913565b16604061028c868a8a6119e8565b6040516323b872dd60e01b8152336004820152306024820152910135604482015293849283919082906064820190565b03925af180156101b05761040c575b506001600160a01b036102e460206102788488886119e8565b604051636eb1769f60e11b81523060048201526001600160a01b0385166024820152929160209184916044918391165afa9182156101b0575f926103d8575b505f916020906103909061035d6001600160a01b0361034785610278888d8d6119e8565b16916040610356878c8c6119e8565b0135611906565b60405163095ea7b360e01b81526001600160a01b0388166004820152602481019190915294859283919082906044820190565b03925af19182156101b0576001926103aa575b5001610133565b6103ca9060203d81116103d1575b6103c281836114af565b810190611927565b505f6103a3565b503d6103b8565b91506020823d8211610404575b816103f2602093836114af565b81010312610257579051906020610323565b3d91506103e5565b6104239060203d81116103d1576103c281836114af565b6102cb565b34610257575f366003190112610257576065546040516001600160a01b039091168152602090f35b3461025757602036600319011261025757610469611413565b61047161179a565b6001600160a01b031680156104c357603380546001600160a01b0319811683179091556001600160a01b03167f8be0079c531659141344cd1fd0a4f28419497f9722a3daafe3b4186f6b6457e05f80a3005b60405162461bcd60e51b815260206004820152602660248201527f4f776e61626c653a206e6577206f776e657220697320746865207a65726f206160448201526564647265737360d01b6064820152608490fd5b34610257575f366003190112610257576040516302e0740360e31b81525f816004817f00000000000000000000000000000000000000000000000000000000000000006001600160a01b03165afa9081156101b0575f916105cb575b5061057f815151611768565b905f5b815180518210156105b957600191906001600160a01b03906105a5908390611746565b5151166105b28286611746565b5201610582565b604051806105c7868261143d565b0390f35b6105e791503d805f833e6105df81836114af565b810190611634565b81610573565b34610257576020366003190112610257576004356001600160401b03811161025757366023820112156102575761062e9036906024816004013591016114d0565b61063661179a565b7f00000000000000000000000000000000000000000000000000000000000000006001600160a01b0316803b156102575760405163a98fb35560e01b815260206004820152905f90829081838161069060248201896117f2565b03925af180156101b0576101a457005b34610257576020366003190112610257576106b9611413565b6106ed337f00000000000000000000000000000000000000000000000000000000000000006001600160a01b031614611598565b7f00000000000000000000000000000000000000000000000000000000000000006001600160a01b031690813b15610257576040516351b27a6d60e11b81526001600160a01b039091166004820152905f908290602490829084905af180156101b0576101a457005b34610257576020366003190112610257576004356001600160401b0381116102575761078690369060040161147f565b61078e611816565b7f00000000000000000000000000000000000000000000000000000000000000005f5b82811061093b57506001600160a01b031690813b1561025757604051928391634e5cd2fd60e11b835280604484013060048601526040602486015252606483019160648260051b8501019281925f60be1984360301925b82821061082657875f81808a0381838e5af180156101b0576101a457005b91939590929496506063198982030182528635858112156102575786019061085f610851838061193f565b60c0845260c0840191611973565b916001600160a01b0361087460208301611429565b1660208301526020610889604083018361193f565b848603604086015280865294909101935f5b81811061090b575050506108f96001936020936108eb8463ffffffff6108c460608998016119d7565b16606084015263ffffffff6108db608083016119d7565b16608084015260a0810190611567565b9160a0818503910152611547565b98019201920188969593919492610808565b909194604080600192838060a01b036109238a611429565b1681526020898101359082015201960192910161089b565b90915f935f945b61095a6109508585856118af565b60408101906118d1565b90508610156109aa576109716109508585856118af565b87101561099657600191602061098e928960061b01013590611906565b950194610942565b634e487b7160e01b5f52603260045260245ffd5b9094509092916001600160a01b036109c8602061027884888a6118af565b6040516323b872dd60e01b81523360048201523060248201526044810185905291602091839160649183915f91165af180156101b057610af4575b506001600160a01b03610a1c602061027884888a6118af565b604051636eb1769f60e11b81523060048201526001600160a01b0386166024820152939160209185916044918391165afa9283156101b0575f93610abf575b505f92602091610a879161035d906001600160a01b03610a8086610278898d8f6118af565b1692611906565b03925af19182156101b057600192610aa1575b50016107b1565b610ab89060203d81116103d1576103c281836114af565b5085610a9a565b92506020833d8211610aec575b81610ad9602093836114af565b8101031261025757915191610a87610a5b565b3d9150610acc565b610b0b9060203d81116103d1576103c281836114af565b610a03565b3461025757602036600319011261025757610b29611413565b610b3161179a565b7f00000000000000000000000000000000000000000000000000000000000000006001600160a01b031690813b156102575760405163a0169ddd60e01b81526001600160a01b039091166004820152905f908290602490829084905af180156101b0576101a457005b3461025757604036600319011261025757610bb3611413565b602435906001600160401b03821161025757606060031983360301126102575760405190606082018281106001600160401b03821117610d005760405282600401356001600160401b0381116102575783013660238201121561025757610c249036906024600482013591016114d0565b82526020820191602484013583526044604082019401358452610c7060018060a01b037f0000000000000000000000000000000000000000000000000000000000000000163314611598565b7f00000000000000000000000000000000000000000000000000000000000000006001600160a01b031690813b15610257575f610ce393819560405197889687958694639926ee7d60e01b865260018060a01b0316600486015260406024860152516060604486015260a48501906117f2565b9151606484015251608483015203925af180156101b0576101a457005b634e487b7160e01b5f52604160045260245ffd5b34610257575f366003190112610257576033546040516001600160a01b039091168152602090f35b34610257575f36600319011261025757610d5461179a565b603380546001600160a01b031981169091555f906001600160a01b03167f8be0079c531659141344cd1fd0a4f28419497f9722a3daafe3b4186f6b6457e08280a3005b34610257575f366003190112610257576040517f00000000000000000000000000000000000000000000000000000000000000006001600160a01b03168152602090f35b34610257575f366003190112610257576040517f00000000000000000000000000000000000000000000000000000000000000006001600160a01b03168152602090f35b34610257576020366003190112610257576004356001600160401b03811161025757610e4f90369060040161147f565b9036819003603e1901905f5b8363ffffffff821610156101ae57641fffffffe08160051b168201358381121561025757820190303b15610257575f610ee4926040518094819263309cb93360e01b835260206004840152610ed2610ec7610eb68380611567565b604060248801526064870191611547565b916020810190611567565b84830360231901604486015290611547565b0381305afa9182156101b05763ffffffff92610f24575b501663ffffffff8114610f1057600101610e5b565b634e487b7160e01b5f52601160045260245ffd5b5f610f2e916114af565b85610efb565b3461025757602036600319011261025757610f4d611413565b610f5561179a565b606554604080516001600160a01b038084168252841660208201529192917fe11cddf1816a43318ca175bbc52cd0185436e9cbead7c83acc54a73e461717e39190a16001600160a01b03166001600160a01b03199190911617606555005b3461025757602036600319011261025757610fcc611413565b6040516302e0740360e31b81525f816004817f00000000000000000000000000000000000000000000000000000000000000006001600160a01b03165afa9081156101b0575f91611267575b5090815151906110278261161d565b9061103560405192836114af565b8282526110418361161d565b602083019490601f19013686375f5b84811061123957505060408051639004134760e01b81526001600160a01b0390921660048301526024820152815160448201819052909384916064830191905f5b81811061121757505f939283900391508290507f00000000000000000000000000000000000000000000000000000000000000006001600160a01b03165afa9283156101b0575f93611185575b505f805b83811061115957506110f390611768565b925f905f5b84811061110d57604051806105c7888261143d565b6111178183611746565b51611125575b6001016110f8565b91600190611151906001600160a01b0361113f8688611746565b511661114b828a611746565b5261175a565b92905061111d565b6111638186611746565b51611171575b6001016110e2565b9061117d60019161175a565b919050611169565b9092503d805f833e61119781836114af565b810190602081830312610257578051906001600160401b03821161025757019080601f830112156102575781516111cd8161161d565b926111db60405194856114af565b81845260208085019260051b82010192831161025757602001905b8282106112075750505091836110de565b81518152602091820191016111f6565b82516001600160a01b0316845287945060209384019390920191600101611091565b600190818060a09895981b03611250828551611746565b51511661125d8287611746565b5201949194611050565b61127b91503d805f833e6105df81836114af565b82611018565b3461025757602036600319011261025757600435906001600160401b03821161025757816004019060406003198436030112610257578160246112e4836112f261133e956112d186602099611515565b9490898301958a87526040840191611547565b03601f1981018352826114af565b519020604051858101917f19457468657265756d205369676e6564204d6573736167653a0a3332000000008352603c820152603c8152611333605c826114af565b519020940190611515565b909261136b6040519485938493630b135d3f60e11b85526004850152604060248501526044840191611547565b03817f00000000000000000000000000000000000000000000000000000000000000006001600160a01b03165afa9081156101b0575f916113d0575b506001600160e01b031916630b135d3f60e11b036113c157005b638baa579f60e01b5f5260045ffd5b90506020813d60201161140b575b816113eb602093836114af565b8101031261025757516001600160e01b03198116810361025757816113a7565b3d91506113de565b600435906001600160a01b038216820361025757565b35906001600160a01b038216820361025757565b60206040818301928281528451809452019201905f5b8181106114605750505090565b82516001600160a01b0316845260209384019390920191600101611453565b9181601f84011215610257578235916001600160401b038311610257576020808501948460051b01011161025757565b90601f801991011681019081106001600160401b03821117610d0057604052565b9291926001600160401b038211610d0057604051916114f9601f8201601f1916602001846114af565b829481845281830111610257578281602093845f960137010152565b903590601e198136030182121561025757018035906001600160401b0382116102575760200191813603831361025757565b908060209392818452848401375f828201840152601f01601f1916010190565b9035601e19823603018112156102575701602081359101916001600160401b03821161025757813603831361025757565b1561159f57565b60405162461bcd60e51b815260206004820152604a60248201527f4543445341536572766963654d616e61676572426173652e6f6e6c795374616b60448201527f6552656769737472793a2063616c6c6572206973206e6f7420746865207374616064820152696b65526567697374727960b01b608482015260a490fd5b6001600160401b038111610d005760051b60200190565b602081830312610257578051906001600160401b0382116102575701906020828203126102575760405191602083018381106001600160401b03821117610d00576040528051906001600160401b038211610257570181601f82011215610257578051906116a18261161d565b926116af60405194856114af565b82845260208085019360061b8301019181831161025757602001925b8284106116db5750505050815290565b6040848303126102575760405190604082018281106001600160401b03821117610d005760405284516001600160a01b03811681036102575782526020850151906bffffffffffffffffffffffff8216820361025757826020928360409501528152019301926116cb565b80518210156109965760209160051b010190565b5f198114610f105760010190565b906117728261161d565b61177f60405191826114af565b8281528092611790601f199161161d565b0190602036910137565b6033546001600160a01b031633036117ae57565b606460405162461bcd60e51b815260206004820152602060248201527f4f776e61626c653a2063616c6c6572206973206e6f7420746865206f776e65726044820152fd5b805180835260209291819084018484015e5f828201840152601f01601f1916010190565b6065546001600160a01b0316330361182a57565b60405162461bcd60e51b815260206004820152605160248201527f4543445341536572766963654d616e61676572426173652e6f6e6c795265776160448201527f726473496e69746961746f723a2063616c6c6572206973206e6f7420746865206064820152703932bbb0b932399034b734ba34b0ba37b960791b608482015260a490fd5b91908110156109965760051b8101359060be1981360301821215610257570190565b903590601e198136030182121561025757018035906001600160401b03821161025757602001918160061b3603831361025757565b91908201809211610f1057565b356001600160a01b03811681036102575790565b90816020910312610257575180151581036102575790565b9035601e19823603018112156102575701602081359101916001600160401b038211610257578160061b3603831361025757565b916020908281520191905f905b80821061198d5750505090565b909192833560018060a01b0381168091036102575781526020840135906bffffffffffffffffffffffff821680920361025757604081600193602083940152019401920190611980565b359063ffffffff8216820361025757565b91908110156109965760051b81013590609e198136030182121561025757019056fea26469706673582212205e8a36e5b5ece54b28c7b6dd71c10c07525638d6b56f87a65c6e50876241eddc64736f6c634300081a0033","linkReferences":{}},"methodIdentifiers":{"addSignedPayload((bytes,bytes))":"309cb933","addSignedPayloadMulti((bytes,bytes)[])":"4db45857","avsDirectory()":"6b3aa72e","createAVSRewardsSubmission(((address,uint96)[],address,uint256,uint32,uint32)[])":"fce36c7d","createOperatorDirectedAVSRewardsSubmission(((address,uint96)[],address,(address,uint256)[],uint32,uint32,string)[])":"a20b99bf","deregisterOperatorFromAVS(address)":"a364f4da","getOperatorRestakedStrategies(address)":"33cfb7b7","getRestakeableStrategies()":"e481af9d","owner()":"8da5cb5b","registerOperatorToAVS(address,(bytes,bytes32,uint256))":"9926ee7d","renounceOwnership()":"715018a6","rewardsInitiator()":"fc299dee","setClaimerFor(address)":"a0169ddd","setRewardsInitiator(address)":"3bc28c8c","stakeRegistry()":"68304835","transferOwnership(address)":"f2fde38b","updateAVSMetadataURI(string)":"a98fb355"},"id":28}