{"abi":[{"type":"constructor","inputs":[{"name":"_ethPOS","type":"address","internalType":"contract IETHPOSDeposit"},{"name":"_eigenPodManager","type":"address","internalType":"contract IEigenPodManager"},{"name":"_GENESIS_TIME","type":"uint64","internalType":"uint64"}],"stateMutability":"nonpayable"},{"type":"receive","stateMutability":"payable"},{"type":"function","name":"GENESIS_TIME","inputs":[],"outputs":[{"name":"","type":"uint64","internalType":"uint64"}],"stateMutability":"view"},{"type":"function","name":"activeValidatorCount","inputs":[],"outputs":[{"name":"","type":"uint256","internalType":"uint256"}],"stateMutability":"view"},{"type":"function","name":"checkpointBalanceExitedGwei","inputs":[{"name":"","type":"uint64","internalType":"uint64"}],"outputs":[{"name":"","type":"uint64","internalType":"uint64"}],"stateMutability":"view"},{"type":"function","name":"currentCheckpoint","inputs":[],"outputs":[{"name":"","type":"tuple","internalType":"struct IEigenPod.Checkpoint","components":[{"name":"beaconBlockRoot","type":"bytes32","internalType":"bytes32"},{"name":"proofsRemaining","type":"uint24","internalType":"uint24"},{"name":"podBalanceGwei","type":"uint64","internalType":"uint64"},{"name":"balanceDeltasGwei","type":"int128","internalType":"int128"}]}],"stateMutability":"view"},{"type":"function","name":"currentCheckpointTimestamp","inputs":[],"outputs":[{"name":"","type":"uint64","internalType":"uint64"}],"stateMutability":"view"},{"type":"function","name":"eigenPodManager","inputs":[],"outputs":[{"name":"","type":"address","internalType":"contract IEigenPodManager"}],"stateMutability":"view"},{"type":"function","name":"ethPOS","inputs":[],"outputs":[{"name":"","type":"address","internalType":"contract IETHPOSDeposit"}],"stateMutability":"view"},{"type":"function","name":"getParentBlockRoot","inputs":[{"name":"timestamp","type":"uint64","internalType":"uint64"}],"outputs":[{"name":"","type":"bytes32","internalType":"bytes32"}],"stateMutability":"view"},{"type":"function","name":"initialize","inputs":[{"name":"_podOwner","type":"address","internalType":"address"}],"outputs":[],"stateMutability":"nonpayable"},{"type":"function","name":"lastCheckpointTimestamp","inputs":[],"outputs":[{"name":"","type":"uint64","internalType":"uint64"}],"stateMutability":"view"},{"type":"function","name":"podOwner","inputs":[],"outputs":[{"name":"","type":"address","internalType":"address"}],"stateMutability":"view"},{"type":"function","name":"proofSubmitter","inputs":[],"outputs":[{"name":"","type":"address","internalType":"address"}],"stateMutability":"view"},{"type":"function","name":"recoverTokens","inputs":[{"name":"tokenList","type":"address[]","internalType":"contract IERC20[]"},{"name":"amountsToWithdraw","type":"uint256[]","internalType":"uint256[]"},{"name":"recipient","type":"address","internalType":"address"}],"outputs":[],"stateMutability":"nonpayable"},{"type":"function","name":"setProofSubmitter","inputs":[{"name":"newProofSubmitter","type":"address","internalType":"address"}],"outputs":[],"stateMutability":"nonpayable"},{"type":"function","name":"stake","inputs":[{"name":"pubkey","type":"bytes","internalType":"bytes"},{"name":"signature","type":"bytes","internalType":"bytes"},{"name":"depositDataRoot","type":"bytes32","internalType":"bytes32"}],"outputs":[],"stateMutability":"payable"},{"type":"function","name":"startCheckpoint","inputs":[{"name":"revertIfNoBalance","type":"bool","internalType":"bool"}],"outputs":[],"stateMutability":"nonpayable"},{"type":"function","name":"validatorPubkeyHashToInfo","inputs":[{"name":"validatorPubkeyHash","type":"bytes32","internalType":"bytes32"}],"outputs":[{"name":"","type":"tuple","internalType":"struct IEigenPod.ValidatorInfo","components":[{"name":"validatorIndex","type":"uint64","internalType":"uint64"},{"name":"restakedBalanceGwei","type":"uint64","internalType":"uint64"},{"name":"lastCheckpointedAt","type":"uint64","internalType":"uint64"},{"name":"status","type":"uint8","internalType":"enum IEigenPod.VALIDATOR_STATUS"}]}],"stateMutability":"view"},{"type":"function","name":"validatorPubkeyToInfo","inputs":[{"name":"validatorPubkey","type":"bytes","internalType":"bytes"}],"outputs":[{"name":"","type":"tuple","internalType":"struct IEigenPod.ValidatorInfo","components":[{"name":"validatorIndex","type":"uint64","internalType":"uint64"},{"name":"restakedBalanceGwei","type":"uint64","internalType":"uint64"},{"name":"lastCheckpointedAt","type":"uint64","internalType":"uint64"},{"name":"status","type":"uint8","internalType":"enum IEigenPod.VALIDATOR_STATUS"}]}],"stateMutability":"view"},{"type":"function","name":"validatorStatus","inputs":[{"name":"validatorPubkey","type":"bytes","internalType":"bytes"}],"outputs":[{"name":"","type":"uint8","internalType":"enum IEigenPod.VALIDATOR_STATUS"}],"stateMutability":"view"},{"type":"function","name":"validatorStatus","inputs":[{"name":"pubkeyHash","type":"bytes32","internalType":"bytes32"}],"outputs":[{"name":"","type":"uint8","internalType":"enum IEigenPod.VALIDATOR_STATUS"}],"stateMutability":"view"},{"type":"function","name":"verifyCheckpointProofs","inputs":[{"name":"balanceContainerProof","type":"tuple","internalType":"struct BeaconChainProofs.BalanceContainerProof","components":[{"name":"balanceContainerRoot","type":"bytes32","internalType":"bytes32"},{"name":"proof","type":"bytes","internalType":"bytes"}]},{"name":"proofs","type":"tuple[]","internalType":"struct BeaconChainProofs.BalanceProof[]","components":[{"name":"pubkeyHash","type":"bytes32","internalType":"bytes32"},{"name":"balanceRoot","type":"bytes32","internalType":"bytes32"},{"name":"proof","type":"bytes","internalType":"bytes"}]}],"outputs":[],"stateMutability":"nonpayable"},{"type":"function","name":"verifyStaleBalance","inputs":[{"name":"beaconTimestamp","type":"uint64","internalType":"uint64"},{"name":"stateRootProof","type":"tuple","internalType":"struct BeaconChainProofs.StateRootProof","components":[{"name":"beaconStateRoot","type":"bytes32","internalType":"bytes32"},{"name":"proof","type":"bytes","internalType":"bytes"}]},{"name":"proof","type":"tuple","internalType":"struct BeaconChainProofs.ValidatorProof","components":[{"name":"validatorFields","type":"bytes32[]","internalType":"bytes32[]"},{"name":"proof","type":"bytes","internalType":"bytes"}]}],"outputs":[],"stateMutability":"nonpayable"},{"type":"function","name":"verifyWithdrawalCredentials","inputs":[{"name":"beaconTimestamp","type":"uint64","internalType":"uint64"},{"name":"stateRootProof","type":"tuple","internalType":"struct BeaconChainProofs.StateRootProof","components":[{"name":"beaconStateRoot","type":"bytes32","internalType":"bytes32"},{"name":"proof","type":"bytes","internalType":"bytes"}]},{"name":"validatorIndices","type":"uint40[]","internalType":"uint40[]"},{"name":"validatorFieldsProofs","type":"bytes[]","internalType":"bytes[]"},{"name":"validatorFields","type":"bytes32[][]","internalType":"bytes32[][]"}],"outputs":[],"stateMutability":"nonpayable"},{"type":"function","name":"withdrawRestakedBeaconChainETH","inputs":[{"name":"recipient","type":"address","internalType":"address"},{"name":"amountWei","type":"uint256","internalType":"uint256"}],"outputs":[],"stateMutability":"nonpayable"},{"type":"function","name":"withdrawableRestakedExecutionLayerGwei","inputs":[],"outputs":[{"name":"","type":"uint64","internalType":"uint64"}],"stateMutability":"view"},{"type":"event","name":"CheckpointCreated","inputs":[{"name":"checkpointTimestamp","type":"uint64","indexed":true,"internalType":"uint64"},{"name":"beaconBlockRoot","type":"bytes32","indexed":true,"internalType":"bytes32"},{"name":"validatorCount","type":"uint256","indexed":false,"internalType":"uint256"}],"anonymous":false},{"type":"event","name":"CheckpointFinalized","inputs":[{"name":"checkpointTimestamp","type":"uint64","indexed":true,"internalType":"uint64"},{"name":"totalShareDeltaWei","type":"int256","indexed":false,"internalType":"int256"}],"anonymous":false},{"type":"event","name":"EigenPodStaked","inputs":[{"name":"pubkey","type":"bytes","indexed":false,"internalType":"bytes"}],"anonymous":false},{"type":"event","name":"Initialized","inputs":[{"name":"version","type":"uint8","indexed":false,"internalType":"uint8"}],"anonymous":false},{"type":"event","name":"NonBeaconChainETHReceived","inputs":[{"name":"amountReceived","type":"uint256","indexed":false,"internalType":"uint256"}],"anonymous":false},{"type":"event","name":"ProofSubmitterUpdated","inputs":[{"name":"prevProofSubmitter","type":"address","indexed":false,"internalType":"address"},{"name":"newProofSubmitter","type":"address","indexed":false,"internalType":"address"}],"anonymous":false},{"type":"event","name":"RestakedBeaconChainETHWithdrawn","inputs":[{"name":"recipient","type":"address","indexed":true,"internalType":"address"},{"name":"amount","type":"uint256","indexed":false,"internalType":"uint256"}],"anonymous":false},{"type":"event","name":"ValidatorBalanceUpdated","inputs":[{"name":"validatorIndex","type":"uint40","indexed":false,"internalType":"uint40"},{"name":"balanceTimestamp","type":"uint64","indexed":false,"internalType":"uint64"},{"name":"newValidatorBalanceGwei","type":"uint64","indexed":false,"internalType":"uint64"}],"anonymous":false},{"type":"event","name":"ValidatorCheckpointed","inputs":[{"name":"checkpointTimestamp","type":"uint64","indexed":true,"internalType":"uint64"},{"name":"validatorIndex","type":"uint40","indexed":true,"internalType":"uint40"}],"anonymous":false},{"type":"event","name":"ValidatorRestaked","inputs":[{"name":"validatorIndex","type":"uint40","indexed":false,"internalType":"uint40"}],"anonymous":false},{"type":"event","name":"ValidatorWithdrawn","inputs":[{"name":"checkpointTimestamp","type":"uint64","indexed":true,"internalType":"uint64"},{"name":"validatorIndex","type":"uint40","indexed":true,"internalType":"uint40"}],"anonymous":false}],"bytecode":{"object":"0x60e0346101a357601f613e8e38819003918201601f19168301916001600160401b038311848410176101a7578084926060946040528339810103126101a3578051906001600160a01b03821682036101a3576020810151906001600160a01b03821682036101a35760400151916001600160401b03831683036101a35760805260a05260c0525f5460ff8160081c1661014e5760ff80821610610114575b604051613cd290816101bc823960805181818161076701526108ed015260a0518181816102550152818161045d015281816107f8015281816108ad01528181610ab301528181610fca0152818161110d0152818161157b0152818161181c01528181611ef901526135a0015260c051816110340152f35b60ff90811916175f557f7f26b83ff96e1f2b6a682f133852f6798a09c465da95921460cefb3847402498602060405160ff8152a15f61009d565b60405162461bcd60e51b815260206004820152602760248201527f496e697469616c697a61626c653a20636f6e747261637420697320696e697469604482015266616c697a696e6760c81b6064820152608490fd5b5f80fd5b634e487b7160e01b5f52604160045260245ffdfe60806040526004361015610022575b3615610018575f80fd5b6100206123a6565b005b5f3560e01c8063039157d2146101b15780630b18ff66146101ac5780632340e8d3146101a75780633474aa16146101a25780633f65cf191461019d57806342ecff2a146101985780634665bcda1461019357806347d283721461018e57806352396a5914610189578063587533571461018457806358eaee791461017f5780636c0d2d5a1461017a5780636fcd0e53146101755780637439841f1461017057806374cdd7981461016b57806388676cad146101665780639b4e463414610161578063b522538a1461015c578063c490744214610157578063c4d66de814610152578063d06d55871461014d578063dda3346c14610148578063ee94d67c14610143578063f074ba621461013e5763f28824610361000e57611015565b610f5b565b610f35565b610e7c565b610d11565b610c1a565b610a8d565b610a2b565b610857565b6107a0565b610752565b61071d565b610692565b610619565b6105d6565b610528565b6104e7565b61048c565b610448565b61041f565b61037a565b610324565b610307565b6102df565b6101de565b600435906001600160401b03821682036101cc57565b5f80fd5b908160409103126101cc5790565b346101cc5760603660031901126101cc576101f76101b6565b6024356001600160401b0381116101cc576102169036906004016101d0565b6044356001600160401b0381116101cc576102359036906004016101d0565b604051635ac86ab760e01b815260066004820152929091906020846024817f00000000000000000000000000000000000000000000000000000000000000006001600160a01b03165afa9384156102d0576100209461029c915f916102a1575b501561107b565b6110ed565b6102c3915060203d6020116102c9575b6102bb8183610dca565b810190611058565b5f610295565b503d6102b1565b611070565b5f9103126101cc57565b346101cc575f3660031901126101cc576033546040516001600160a01b039091168152602090f35b346101cc575f3660031901126101cc576020603954604051908152f35b346101cc575f3660031901126101cc5760206001600160401b0360345416604051908152f35b9181601f840112156101cc578235916001600160401b0383116101cc576020808501948460051b0101116101cc57565b346101cc5760a03660031901126101cc576103936101b6565b6024356001600160401b0381116101cc576103b29036906004016101d0565b6044356001600160401b0381116101cc576103d190369060040161034a565b6064939193356001600160401b0381116101cc576103f390369060040161034a565b91608435956001600160401b0387116101cc5761041761002097369060040161034a565b96909561153a565b346101cc575f3660031901126101cc5760206001600160401b03603a5460401c16604051908152f35b346101cc575f3660031901126101cc576040517f00000000000000000000000000000000000000000000000000000000000000006001600160a01b03168152602090f35b346101cc575f3660031901126101cc576104a4611908565b5060806104af61192c565b6060604051918051835262ffffff60208201511660208401526001600160401b0360408201511660408401520151600f0b6060820152f35b346101cc5760203660031901126101cc576001600160401b036105086101b6565b165f52603b60205260206001600160401b0360405f205416604051908152f35b346101cc575f3660031901126101cc57603e546040516001600160a01b039091168152602090f35b9181601f840112156101cc578235916001600160401b0383116101cc57602083818601950101116101cc57565b60206003198201126101cc57600435906001600160401b0382116101cc576105a791600401610550565b9091565b600311156105b557565b634e487b7160e01b5f52602160045260245ffd5b9060038210156105b55752565b346101cc576105f66105f16105ea3661057d565b3691611987565b612eb0565b5f526036602052602060ff60405f205460c01c1661061760405180926105c9565bf35b346101cc5760203660031901126101cc57602061063c6106376101b6565b611ab9565b604051908152f35b6106909092919260608060808301956001600160401b0381511684526001600160401b0360208201511660208501526001600160401b03604082015116604085015201519101906105c9565b565b346101cc5760203660031901126101cc576004356106ae611908565b505f52603660205261071960405f2061070d60ff604051926106cf84610daa565b546001600160401b03811684526001600160401b038160401c1660208501526001600160401b038160801c16604085015260c01c16606083016112c3565b60405191829182610644565b0390f35b346101cc5760203660031901126101cc576004355f526036602052602060ff60405f205460c01c1661061760405180926105c9565b346101cc575f3660031901126101cc576040517f00000000000000000000000000000000000000000000000000000000000000006001600160a01b03168152602090f35b801515036101cc57565b346101cc5760203660031901126101cc576004356107bd81610796565b6033546001600160a01b031633148015610843575b6107db906114b1565b604051635ac86ab760e01b815260066004820152906020826024817f00000000000000000000000000000000000000000000000000000000000000006001600160a01b03165afa9182156102d0576100209261083e915f916102a157501561107b565b612989565b50603e546001600160a01b031633146107d2565b60603660031901126101cc576004356001600160401b0381116101cc57610882903690600401610550565b6024356001600160401b0381116101cc576108a1903690600401610550565b9290604435936108db337f00000000000000000000000000000000000000000000000000000000000000006001600160a01b031614611bb9565b6801bc16d674ec80000034036109b4577f00000000000000000000000000000000000000000000000000000000000000006001600160a01b031661091d612f6b565b92813b156101cc576801bc16d674ec8000005f94610953604051998a96879586946304512a2360e31b86528c8c60048801611c63565b03925af19283156102d0577f606865b7934a25d4aed43f6cdb426403353fa4b3009c4d228407474581b01e239361099a575b5061099560405192839283611ca5565b0390a1005b806109a85f6109ae93610dca565b806102d5565b5f610985565b60a460405162461bcd60e51b815260206004820152604460248201527f456967656e506f642e7374616b653a206d75737420696e697469616c6c79207360448201527f74616b6520666f7220616e792076616c696461746f72207769746820333220656064820152633a3432b960e11b6084820152fd5b346101cc57610a4f6105f1610a3f3661057d565b610a47611908565b503691611987565b5f52603660205261071960405f2061070d60ff604051926106cf84610daa565b6001600160a01b038116036101cc57565b6044359061069082610a6f565b346101cc5760403660031901126101cc57600435610aaa81610a6f565b602435610ae1337f00000000000000000000000000000000000000000000000000000000000000006001600160a01b031614611bb9565b633b9aca008106610b985761002091610b58610b3c610b0d633b9aca0085045b6001600160401b031690565b6034546001600160401b0316610b376001600160401b0382166001600160401b0384161115611cb6565b611d59565b6001600160401b03166001600160401b03196034541617603455565b6040518281526001600160a01b03919091169081907f8947fd2ce07ef9cc302c4e8f0461015615d91ce851564839e91cc804c2f49d8e90602090a2612f96565b60405162461bcd60e51b815260206004820152604e60248201527f456967656e506f642e776974686472617752657374616b6564426561636f6e4360448201527f6861696e4554483a20616d6f756e74576569206d75737420626520612077686f60648201526d1b194811ddd95a48185b5bdd5b9d60921b608482015260a490fd5b346101cc5760203660031901126101cc57600435610c3781610a6f565b610c855f5491610c6b610c55610c518560ff9060081c1690565b1590565b80948195610d03575b8115610ce3575b50611d79565b82610c7c600160ff195f5416175f55565b610ccc57611ddc565b610c8b57005b610c9961ff00195f54165f55565b604051600181527f7f26b83ff96e1f2b6a682f133852f6798a09c465da95921460cefb3847402498908060208101610995565b610cde61010061ff00195f5416175f55565b611ddc565b303b15915081610cf5575b505f610c65565b60ff1660011490505f610cee565b600160ff8216109150610c5e565b346101cc5760203660031901126101cc57600435610d2e81610a6f565b610d4360018060a01b03603354163314611e67565b603e54604080516001600160a01b03808416825290931660208401819052927ffb8129080a19d34dceac04ba253fc50304dc86c729bd63cdca4a969ad19a5eac9190a16001600160a01b03191617603e55005b634e487b7160e01b5f52604160045260245ffd5b608081019081106001600160401b03821117610dc557604052565b610d96565b90601f801991011681019081106001600160401b03821117610dc557604052565b60405190610690608083610dca565b906106906040519283610dca565b6001600160401b038111610dc55760051b60200190565b9080601f830112156101cc578135610e3681610e08565b92610e446040519485610dca565b81845260208085019260051b8201019283116101cc57602001905b828210610e6c5750505090565b8135815260209182019101610e5f565b346101cc5760603660031901126101cc576004356001600160401b0381116101cc57366023820112156101cc57806004013590610eb882610e08565b91610ec66040519384610dca565b8083526024602084019160051b830101913683116101cc57602401905b828210610f1b57602435846001600160401b0382116101cc57610f0d610020923690600401610e1f565b610f15610a80565b91611ec4565b602080918335610f2a81610a6f565b815201910190610ee3565b346101cc575f3660031901126101cc5760206001600160401b03603a5416604051908152f35b346101cc5760403660031901126101cc576004356001600160401b0381116101cc57610f8b9036906004016101d0565b6024356001600160401b0381116101cc57610faa90369060040161034a565b604051635ac86ab760e01b815260076004820152929091906020846024817f00000000000000000000000000000000000000000000000000000000000000006001600160a01b03165afa9384156102d05761002094611010915f916102a157501561107b565b6121ca565b346101cc575f3660031901126101cc5760206040516001600160401b037f0000000000000000000000000000000000000000000000000000000000000000168152f35b908160209103126101cc575161106d81610796565b90565b6040513d5f823e3d90fd5b1561108257565b60405162461bcd60e51b815260206004820152603e60248201527f456967656e506f642e6f6e6c795768656e4e6f745061757365643a20696e646560448201527f782069732070617573656420696e20456967656e506f644d616e6167657200006064820152608490fd5b604051635ac86ab760e01b815260086004820152919291906020826024817f00000000000000000000000000000000000000000000000000000000000000006001600160a01b03165afa80156102d05761123a9461115961121a9261122a955f916102a157501561107b565b6111756111706111698780611242565b3691611277565b6123d2565b5f5260366020526111fe816111f961118f60405f206112cf565b956111ba6111aa610b0160408a01516001600160401b031690565b6001600160401b03831611611321565b6111dc600160608901516111cd816105ab565b6111d6816105ab565b14611392565b6106376111f46111ef6111698c80611242565b6123e0565b6113fb565b612470565b359361123461120d8280611242565b939092602081019061147f565b959094516001600160401b031690565b64ffffffffff1690565b94612687565b610690612856565b903590601e19813603018212156101cc57018035906001600160401b0382116101cc57602001918160051b360383136101cc57565b92919061128381610e08565b936112916040519586610dca565b602085838152019160051b81019283116101cc57905b8282106112b357505050565b81358152602091820191016112a7565b60038210156105b55752565b906106906040516112df81610daa565b606060ff8295546001600160401b03811684526001600160401b038160401c1660208501526001600160401b038160801c16604085015260c01c1691016112c3565b1561132857565b608460405162461bcd60e51b815260206004820152604060248201527f456967656e506f642e7665726966795374616c6542616c616e63653a2070726f60448201527f6f66206973206f6c646572207468616e206c61737420636865636b706f696e746064820152fd5b1561139957565b60405162461bcd60e51b815260206004820152603460248201527f456967656e506f642e7665726966795374616c6542616c616e63653a2076616c604482015273696461746f72206973206e6f742061637469766560601b6064820152608490fd5b1561140257565b60405162461bcd60e51b815260206004820152604960248201527f456967656e506f642e7665726966795374616c6542616c616e63653a2076616c60448201527f696461746f72206d75737420626520736c617368656420746f206265206d61726064820152686b6564207374616c6560b81b608482015260a490fd5b903590601e19813603018212156101cc57018035906001600160401b0382116101cc576020019181360383136101cc57565b156114b857565b60405162461bcd60e51b815260206004820152604e60248201527f456967656e506f642e6f6e6c794f776e65724f7250726f6f665375626d69747460448201527f65723a2063616c6c6572206973206e6f7420706f64206f776e6572206f72207060648201526d3937b7b31039bab136b4ba3a32b960911b608482015260a490fd5b9695949392919060018060a01b0360335416331480156115c6575b61155e906114b1565b604051635ac86ab760e01b815260026004820152976020896024817f00000000000000000000000000000000000000000000000000000000000000006001600160a01b03165afa9889156102d057610690996115c1915f916102a157501561107b565b6117aa565b50603e546001600160a01b03163314611555565b156115e157565b60405162461bcd60e51b815260206004820152605560248201527f456967656e506f642e7665726966795769746864726177616c43726564656e7460448201527f69616c733a2076616c696461746f72496e646963657320616e642070726f6f666064820152740e640daeae6e840c4ca40e6c2daca40d8cadccee8d605b1b608482015260a490fd5b1561167157565b60405162461bcd60e51b815260206004820152604c60248201527f456967656e506f642e7665726966795769746864726177616c43726564656e7460448201527f69616c733a207370656369666965642074696d657374616d7020697320746f6f60648201526b0819985c881a5b881c185cdd60a21b608482015260a490fd5b634e487b7160e01b5f52603260045260245ffd5b91908110156117155760051b0190565b6116f1565b3564ffffffffff811681036101cc5790565b90821015611715576105a79160051b81019061147f565b90821015611715576105a79160051b810190611242565b634e487b7160e01b5f52601160045260245ffd5b906005820180921161177c57565b61175a565b906020820180921161177c57565b906001820180921161177c57565b9190820180921161177c57565b816111f961180192999599989496979398848b14806118ff575b6117d5909b9a99989796959b6115da565b6106376117f1610b01603a546001600160401b039060401c1690565b6001600160401b0383161161166a565b5f965f965b8088106118a15750506033546001600160a01b037f0000000000000000000000000000000000000000000000000000000000000000811698975016945061184d9350505050565b90823b156101cc5760405163030b147160e61b81526001600160a01b039290921660048301526024820152905f908290604490829084905af180156102d0576118935750565b806109a85f61069093610dca565b90919293949596976118f16001916118eb89896118e38e6118d98f8b6118d36118ce858e81953599611705565b61171a565b9661172c565b9290918d8d611743565b949093612c94565b9061179d565b980196959493929190611806565b508487146117c4565b6040519061191582610daa565b5f6060838281528260208201528260408201520152565b6040519061193982610daa565b81603c5481526060603d5462ffffff811660208401526001600160401b038160181c16604084015260581c600f0b910152565b6001600160401b038111610dc557601f01601f191660200190565b9291926119938261196c565b916119a16040519384610dca565b8294818452818301116101cc578281602093845f960137010152565b600581901b91906001600160fb1b0381160361177c57565b90633b9aca00820291808304633b9aca00149015171561177c57565b600181901b91906001600160ff1b0381160361177c57565b3d15611a33573d90611a1a8261196c565b91611a286040519384610dca565b82523d5f602084013e565b606090565b15611a3f57565b60405162461bcd60e51b815260206004820152603860248201527f456967656e506f642e676574506172656e74426c6f636b526f6f743a20696e7660448201527f616c696420626c6f636b20726f6f742072657475726e656400000000000000006064820152608490fd5b908160209103126101cc575190565b6001600160401b038116420342811161177c5762017ff41115611b58575f8061106d92604051611b0f81611b016020820194859190916001600160401b036020820193169052565b03601f198101835282610dca565b5190720f3df6d732807ef1319fb7b8bb8522d0beac025afa611b2f611a09565b9080611b4e575b611b3f90611a38565b60208082518301019101611aaa565b5080511515611b36565b60405162461bcd60e51b815260206004820152603360248201527f456967656e506f642e676574506172656e74426c6f636b526f6f743a2074696d604482015272657374616d70206f7574206f662072616e676560681b6064820152608490fd5b15611bc057565b60405162461bcd60e51b815260206004820152603160248201527f456967656e506f642e6f6e6c79456967656e506f644d616e616765723a206e6f6044820152703a1032b4b3b2b72837b226b0b730b3b2b960791b6064820152608490fd5b908060209392818452848401375f828201840152601f01601f1916010190565b805180835260209291819084018484015e5f828201840152601f01601f1916010190565b96959490611ca093611c84611c92926060979560808c5260808c0191611c1f565b9089820360208b0152611c3f565b918783036040890152611c1f565b930152565b91602061106d938181520191611c1f565b15611cbd57565b60405162461bcd60e51b815260206004820152606260248201527f456967656e506f642e776974686472617752657374616b6564426561636f6e4360448201527f6861696e4554483a20616d6f756e74477765692065786365656473207769746860648201527f6472617761626c6552657374616b6564457865637574696f6e4c617965724777608482015261656960f01b60a482015260c490fd5b906001600160401b03809116911603906001600160401b03821161177c57565b15611d8057565b60405162461bcd60e51b815260206004820152602e60248201527f496e697469616c697a61626c653a20636f6e747261637420697320616c72656160448201526d191e481a5b9a5d1a585b1a5e995960921b6064820152608490fd5b6001600160a01b03168015611e05576bffffffffffffffffffffffff60a01b6033541617603355565b60405162461bcd60e51b815260206004820152603460248201527f456967656e506f642e696e697469616c697a653a20706f644f776e65722063616044820152736e6e6f74206265207a65726f206164647265737360601b6064820152608490fd5b15611e6e57565b60405162461bcd60e51b815260206004820152602860248201527f456967656e506f642e6f6e6c79456967656e506f644f776e65723a206e6f74206044820152673837b227bbb732b960c11b6064820152608490fd5b92919092611edd60018060a01b03603354163314611e67565b604051635ac86ab760e01b8152600560048201526020816024817f00000000000000000000000000000000000000000000000000000000000000006001600160a01b03165afa80156102d057611f3a915f916102a157501561107b565b8051845103611f8d575f5b8151811015611f865780611f80611f6e611f6160019486612019565b516001600160a01b031690565b85611f79848a612019565b5191613070565b01611f45565b5050509050565b60405162461bcd60e51b815260206004820152604b60248201527f456967656e506f642e7265636f766572546f6b656e733a20746f6b656e4c697360448201527f7420616e6420616d6f756e7473546f5769746864726177206d7573742062652060648201526a0e6c2daca40d8cadccee8d60ab1b608482015260a490fd5b8051156117155760200190565b80518210156117155760209160051b010190565b1561203457565b60405162461bcd60e51b815260206004820152605860248201527f456967656e506f642e766572696679436865636b706f696e7450726f6f66733a60448201527f206d75737420686176652061637469766520636865636b706f696e7420746f2060648201527f706572666f726d20636865636b706f696e742070726f6f660000000000000000608482015260a490fd5b91908110156117155760051b81013590605e19813603018212156101cc570190565b62ffffff16801561177c575f190190565b90600f0b90600f0b019060016001607f1b0319821260016001607f1b0383131761177c57565b906001600160401b03809116911601906001600160401b03821161177c57565b9060038110156105b557815460ff60c01b191660c09190911b60ff60c01b16179055565b8151815460208401516040808601516001600160401b039094166001600160c01b031990931692909217911b67ffffffffffffffff60401b161760809190911b67ffffffffffffffff60801b1617815560609091015160038110156105b5576106909161213e565b603a5460401c6001600160401b0316939291846121e881151561202d565b6121f061192c565b936121fc8486516131b6565b5f935f602087019260608801915b818110612274575050505050505061226f9061225561223e61069095966001600160401b03165f52603b60205260405f2090565b9161225083546001600160401b031690565b61211e565b6001600160401b03166001600160401b0319825416179055565b6134b0565b61227f8183896120c5565b80359861229c6122978b5f52603660205260405f2090565b6112cf565b91600160608401516122ad816105ab565b6122b6816105ab565b0361239a578d896122d4610b0160408701516001600160401b031690565b101561238d57836123546001969561234f61234061232f612361988f8f8f906122509261230e61122a9d61122a9d6123399435908c613325565b969091612326612321825162ffffff1690565b6120e7565b62ffffff169052565b8251600f0b6120f8565b600f0b9052565b9f5f52603660205260405f2090565b612162565b516001600160401b031690565b877fa91c59033c3423e18b54d0acecebb4972f9ea95aedf5f4cae3b677b02eaf3a3f5f80a35b0161220a565b5050985050600190612387565b50985050600190612387565b7f6fdd3dbdb173299608c0aa9f368735857c8842b581f8389238bf05bd04b3bf496020604051348152a1565b805115611715576020015190565b8051600310156117155760800151151590565b156123fa57565b60405162461bcd60e51b815260206004820152604260248201527f426561636f6e436861696e50726f6f66732e7665726966795374617465526f6f60448201527f743a20496e76616c696420737461746520726f6f74206d65726b6c652070726f60648201526137b360f11b608482015260a490fd5b9091602083016060612482828661147f565b905003612552576124966124a0918561147f565b9435943691611987565b926003936124b981518015159081612546575b50613acc565b6020926124c584610dfa565b92835283955b82518711612535576001811661250b5783515f52868301518552848460405f60026107cf195a01fa156101cc576125059060011c96611781565b956124cb565b868301515f5283518552848460405f60026107cf195a01fa156101cc576125059060011c96611781565b5094505061069092915051146123f3565b601f169050155f6124b3565b60405162461bcd60e51b815260206004820152603d60248201527f426561636f6e436861696e50726f6f66732e7665726966795374617465526f6f60448201527f743a2050726f6f662068617320696e636f7272656374206c656e6774680000006064820152608490fd5b156125c457565b60405162461bcd60e51b815260206004820152604360248201525f516020613c7d5f395f51905f5260448201527f724669656c64733a2050726f6f662068617320696e636f7272656374206c656e6064820152620cee8d60eb1b608482015260a490fd5b1561262f57565b60405162461bcd60e51b815260206004820152603d60248201525f516020613c7d5f395f51905f5260448201527f724669656c64733a20496e76616c6964206d65726b6c652070726f6f660000006064820152608490fd5b909491939294600885036126e8576106909564ffffffffff6126ce6126c96126de946126e3996111696126c26126bd602961176e565b6119bd565b8b146125bd565b6137b3565b9416600b60291b17943691611987565b6136e1565b612628565b60405162461bcd60e51b815260206004820152604e60248201525f516020613c7d5f395f51905f5260448201527f724669656c64733a2056616c696461746f72206669656c64732068617320696e60648201526d0c6dee4e4cac6e840d8cadccee8d60931b608482015260a490fd5b1561275e57565b60405162461bcd60e51b815260206004820152605260248201527f456967656e506f642e5f7374617274436865636b706f696e743a206d7573742060448201527f66696e6973682070726576696f757320636865636b706f696e74206265666f72606482015271329039ba30b93a34b7339030b737ba3432b960711b608482015260a490fd5b156127eb57565b60405162461bcd60e51b815260206004820152603f60248201527f456967656e506f642e5f7374617274436865636b706f696e743a2063616e6e6f60448201527f7420636865636b706f696e7420747769636520696e206f6e6520626c6f636b006064820152608490fd5b6001600160401b03612893612886603a54610b018461287f836001600160401b039060401c1690565b1615612757565b42831692168214156127e4565b6128b76128a5633b9aca004704610b01565b6034546001600160401b031690611d59565b907f575796133bbed337e5b39aa49a30dc2556a91e0c6c2af4b7b886ae77ebef107661298461296e6128e884611ab9565b6129286128f960395462ffffff1690565b96612902610deb565b9283526129186020840198899062ffffff169052565b6001600160401b03166040830152565b5f6060820152603a80546fffffffffffffffff00000000000000001916604087901b67ffffffffffffffff60401b16179055612963816134b0565b51945162ffffff1690565b60405162ffffff90911681529081906020820190565b0390a3565b6001600160401b036129b2612886603a54610b018461287f836001600160401b039060401c1690565b6129c46128a5633b9aca004704610b01565b9180612a6f575b6129ff577f575796133bbed337e5b39aa49a30dc2556a91e0c6c2af4b7b886ae77ebef107661298461296e6128e884611ab9565b60405162461bcd60e51b815260206004820152603d60248201527f456967656e506f642e5f7374617274436865636b706f696e743a206e6f20626160448201527f6c616e636520617661696c61626c6520746f20636865636b706f696e74000000606482015280608481015b0390fd5b506001600160401b038216156129cb565b15612a8757565b60405162461bcd60e51b815260206004820152606160248201525f516020613c5d5f395f51905f5260448201527f7469616c733a2076616c696461746f72206d75737420626520696e616374697660648201527f6520746f2070726f7665207769746864726177616c2063726564656e7469616c6084820152607360f81b60a482015260c490fd5b15612b1657565b60405162461bcd60e51b815260206004820152605560248201525f516020613c5d5f395f51905f5260448201527f7469616c733a2076616c696461746f72206d75737420626520696e207468652060648201527470726f63657373206f662061637469766174696e6760581b608482015260a490fd5b15612b9357565b60a460405162461bcd60e51b815260206004820152604460248201525f516020613c5d5f395f51905f5260448201527f7469616c733a2076616c696461746f72206d757374206e6f742062652065786960648201526374696e6760e01b6084820152fd5b602081519101519060208110612c0b575090565b5f199060200360031b1b1690565b15612c2057565b60405162461bcd60e51b815260206004820152604560248201525f516020613c5d5f395f51905f5260448201527f7469616c733a2070726f6f66206973206e6f7420666f72207468697320456967606482015264195b941bd960da1b608482015260a490fd5b5f19811461177c5760010190565b9290612d92816001600160401b0396937f0e5fac175b83177cc047381e030d8fb3b42b37bd1c025e22c280facad62c32df9561106d99612cd861117036838a611277565b96612d0d6060612cf36122978b5f52603660205260405f2090565b0151612cfe816105ab565b612d07816105ab565b15612a80565b612d2d8b80612d25612d20368787611277565b6138be565b161415612b0f565b612d4d8b612d47610b01612d42368787611277565b6138d5565b14612b8c565b612d79612d63612d5e368585611277565b6138ec565b612d73612d6e612f6b565b612bf7565b14612c19565b612d8c612d87368484611277565b6138fd565b99612687565b612da5612da0603954612c86565b603955565b612e1d603a54612dbf816001600160401b039060401c1690565b90878216612e84576001600160401b03169050925b61234f612ddf610deb565b64ffffffffff85168152916001600160401b03881660208401526001600160401b0386166040840152600160608401525f52603660205260405f2090565b60405164ffffffffff821681527f2d0800bbc377ea54a08c5db6a87aafff5e3e9c8fead0eda110e40e0c1044144990602090a16040805164ffffffffff9290921682526001600160401b03928316602083015291841691810191909152606090a1166119d5565b5092612dd4565b805191908290602001825e015f815290565b612ea990601092612e8b565b5f81520190565b6030815103612ef0575f612ee0611b01612ed4602094604051928391878301612e9d565b60405191828092612e8b565b039060025afa156102d0575f5190565b60405162461bcd60e51b815260206004820152604760248201527f456967656e506f642e5f63616c63756c61746556616c696461746f725075626b60448201527f657948617368206d75737420626520612034382d6279746520424c53207075626064820152666c6963206b657960c81b608482015260a490fd5b604051600160f81b60208201525f60218201523060601b602c8201526020815261106d604082610dca565b81471061302b575f918291829182916001600160a01b03165af1612fb8611a09565b5015612fc057565b60405162461bcd60e51b815260206004820152603a60248201527f416464726573733a20756e61626c6520746f2073656e642076616c75652c207260448201527f6563697069656e74206d617920686176652072657665727465640000000000006064820152608490fd5b60405162461bcd60e51b815260206004820152601d60248201527f416464726573733a20696e73756666696369656e742062616c616e63650000006044820152606490fd5b5f61310d9392819260405194602086019263a9059cbb60e01b845260018060a01b031660248701526044860152604485526130ac606486610dca565b60018060a01b03169082604051956130c5604088610dca565b602087527f5361666545524332303a206c6f772d6c6576656c2063616c6c206661696c656460208801526130fb843b1515613bd0565b51925af1613107611a09565b90613c1c565b805180613118575050565b8160208061312d936106909501019101611058565b613914565b1561313957565b60405162461bcd60e51b815260206004820152604960248201527f426561636f6e436861696e50726f6f66732e76657269667942616c616e63654360448201527f6f6e7461696e65723a20696e76616c69642062616c616e636520636f6e7461696064820152683732b910383937b7b360b91b608482015260a490fd5b9091602083016101006131c9828661147f565b905003613282576124966131dd918561147f565b92606c936131f5815180151590816125465750613acc565b60209261320184610dfa565b92835283955b8251871161327157600181166132475783515f52868301518552848460405f60026107cf195a01fa156101cc576132419060011c96611781565b95613207565b868301515f5283518552848460405f60026107cf195a01fa156101cc576132419060011c96611781565b509450506106909291505114613132565b60a460405162461bcd60e51b815260206004820152604460248201527f426561636f6e436861696e50726f6f66732e76657269667942616c616e63654360448201527f6f6e7461696e65723a2050726f6f662068617320696e636f7272656374206c656064820152630dccee8d60e31b6084820152fd5b801561177c575f190190565b600f0b6f7fffffffffffffffffffffffffffffff19811461177c575f0390565b919392905f925f9561334161122a83516001600160401b031690565b9361336260208401918661335c84516001600160401b031690565b946139d2565b906001600160401b038216926001600160401b0381168403613422575b506001600160401b0390911690525b6001600160401b0383166040830152156133aa575b5050509190565b6133c9919295506060906133c2612da06039546132f9565b0160029052565b6001600160401b0364ffffffffff6133f2610b016133e686613305565b6001600160801b031690565b951691167f2a02361ffa66cf2c2da4682c2355a6adcaa9f6c227b6e6563e68480f9587626a5f80a35f80806133a3565b829197506134339061338e93613a9a565b967f0e5fac175b83177cc047381e030d8fb3b42b37bd1c025e22c280facad62c32df6040518061348a858a8c849160409194936001600160401b03809264ffffffffff606087019816865216602085015216910152565b0390a1909161337f565b90633b9aca00820291808305633b9aca00149015171561177c57565b62ffffff6134c4602083015162ffffff1690565b166136725761353e610b3c61352d61351f613517604086019561351160606135086134f9610b018b516001600160401b031690565b6001600160801b0316600f0b90565b920151600f0b90565b906120f8565b600f0b613494565b93516001600160401b031690565b6034546001600160401b031661211e565b603a5461356d9060401c6001600160401b03166001600160401b03166001600160401b0319603a541617603a55565b61358667ffffffffffffffff60401b19603a5416603a55565b6135935f603c555f603d55565b6033546001600160a01b037f00000000000000000000000000000000000000000000000000000000000000008116911690803b156101cc5760405163030b147160e61b81526001600160a01b03929092166004830152602482018390525f908290604490829084905af180156102d05761365e575b507f525408c201bc1576eb44116f6478f1c2a54775b19a043bcfdc708364f74f8e446136596001600160401b03613647603a546001600160401b031690565b60405194855216929081906020820190565b0390a2565b806109a85f61366c93610dca565b5f613608565b610690906060908051603c5562ffffff602082015116603d54906affffffffffffffff000000604084015160181b16916affffffffffffffffffffff19161717603d550151600f0b603d549060581b6001600160801b0360581b16906001600160801b0360581b191617603d55565b93919092936136fa815180151590816125465750613acc565b60209261370684610dfa565b92835283955b82518711613776576001811661374c5783515f52868301518552848460405f60026107cf195a01fa156101cc576137469060011c96611781565b9561370c565b868301515f5283518552848460405f60026107cf195a01fa156101cc576137469060011c96611781565b509450509050511490565b9061378b82610e08565b6137986040519182610dca565b82815280926137a9601f1991610e08565b0190602036910137565b805160011c6137c181613781565b915f5b82811061386c57505060011c805b6137e457506137e09061200c565b5190565b5f5b8181106137f7575060011c806137d2565b60205f61384b61380f613809856119f1565b87612019565b51612ed461382d613827613822886119f1565b61178f565b89612019565b5191611b016040519384928884019091604092825260208201520190565b039060025afa156102d0576001905f516138658286612019565b52016137e6565b60205f61389d61388461387e856119f1565b86612019565b51612ed461382d613897613822886119f1565b88612019565b039060025afa156102d0576001905f516138b78287612019565b52016137c4565b8051600510156117155760c061106d910151613b5b565b8051600610156117155760e061106d910151613b5b565b805160011015611715576040015190565b80516002101561171557606061106d910151613b5b565b1561391b57565b60405162461bcd60e51b815260206004820152602a60248201527f5361666545524332303a204552433230206f7065726174696f6e20646964206e6044820152691bdd081cdd58d8d9595960b21b6064820152608490fd5b1561397a57565b60405162461bcd60e51b815260206004820152603e60248201525f516020613c7d5f395f51905f5260448201527f7242616c616e63653a20496e76616c6964206d65726b6c652070726f6f6600006064820152608490fd5b91604081016104e06139e4828461147f565b905003613a3657613a2c613a3191602061106d966126de613a1d613a16643fffffffff8a60021c1664ffffffffff1690565b948861147f565b93909701359687933691611987565b613973565b613bc0565b60a460405162461bcd60e51b815260206004820152604460248201525f516020613c7d5f395f51905f5260448201527f7242616c616e63653a2050726f6f662068617320696e636f7272656374206c656064820152630dccee8d60e31b6084820152fd5b906001600160401b03809116600f0b9116600f0b0360016001607f1b03811360016001607f1b031982121761177c5790565b15613ad357565b60405162461bcd60e51b815260206004820152605460248201527f4d65726b6c652e70726f63657373496e636c7573696f6e50726f6f665368613260448201527f35363a2070726f6f66206c656e6774682073686f756c642062652061206e6f6e60648201527316bd32b9379036bab63a34b836329037b310199960611b608482015260a490fd5b609881901c66ff0000000000001660a882901c65ff00000000001660e883901c61ff001660f884901c1760d884901c62ff0000161760c884901c63ff000000161764ff0000000060b885901c161717179067ff0000000000000060889190911c161790565b60c061106d9260061b161b613b5b565b15613bd757565b60405162461bcd60e51b815260206004820152601d60248201527f416464726573733a2063616c6c20746f206e6f6e2d636f6e74726163740000006044820152606490fd5b90919015613c28575090565b815115613c385750805190602001fd5b60405162461bcd60e51b815260206004820152908190612a6b906024830190611c3f56fe456967656e506f642e5f7665726966795769746864726177616c43726564656e426561636f6e436861696e50726f6f66732e76657269667956616c696461746fa264697066735822122017fa4a6cbe9b44aaa845a877d6489be39e1363ce5293cfc562f38a5b6529094b64736f6c634300081c0033","linkReferences":{}},"methodIdentifiers":{"GENESIS_TIME()":"f2882461","activeValidatorCount()":"2340e8d3","checkpointBalanceExitedGwei(uint64)":"52396a59","currentCheckpoint()":"47d28372","currentCheckpointTimestamp()":"42ecff2a","eigenPodManager()":"4665bcda","ethPOS()":"74cdd798","getParentBlockRoot(uint64)":"6c0d2d5a","initialize(address)":"c4d66de8","lastCheckpointTimestamp()":"ee94d67c","podOwner()":"0b18ff66","proofSubmitter()":"58753357","recoverTokens(address[],uint256[],address)":"dda3346c","setProofSubmitter(address)":"d06d5587","stake(bytes,bytes,bytes32)":"9b4e4634","startCheckpoint(bool)":"88676cad","validatorPubkeyHashToInfo(bytes32)":"6fcd0e53","validatorPubkeyToInfo(bytes)":"b522538a","validatorStatus(bytes)":"58eaee79","validatorStatus(bytes32)":"7439841f","verifyCheckpointProofs((bytes32,bytes),(bytes32,bytes32,bytes)[])":"f074ba62","verifyStaleBalance(uint64,(bytes32,bytes),(bytes32[],bytes))":"039157d2","verifyWithdrawalCredentials(uint64,(bytes32,bytes),uint40[],bytes[],bytes32[][])":"3f65cf19","withdrawRestakedBeaconChainETH(address,uint256)":"c4907442","withdrawableRestakedExecutionLayerGwei()":"3474aa16"},"id":39}