{"abi":[{"type":"function","name":"getServiceURI","inputs":[],"outputs":[{"name":"","type":"string","internalType":"string"}],"stateMutability":"view"},{"type":"function","name":"setServiceURI","inputs":[{"name":"_serviceURI","type":"string","internalType":"string"}],"outputs":[],"stateMutability":"nonpayable"},{"type":"function","name":"validate","inputs":[{"name":"envelope","type":"tuple","internalType":"struct IWavsServiceHandler.Envelope","components":[{"name":"eventId","type":"bytes20","internalType":"bytes20"},{"name":"ordering","type":"bytes12","internalType":"bytes12"},{"name":"payload","type":"bytes","internalType":"bytes"}]},{"name":"signatureData","type":"tuple","internalType":"struct IWavsServiceHandler.SignatureData","components":[{"name":"operators","type":"address[]","internalType":"address[]"},{"name":"signatures","type":"bytes[]","internalType":"bytes[]"},{"name":"referenceBlock","type":"uint32","internalType":"uint32"}]}],"outputs":[],"stateMutability":"view"},{"type":"event","name":"ServiceURIUpdated","inputs":[{"name":"serviceURI","type":"string","indexed":false,"internalType":"string"}],"anonymous":false},{"type":"error","name":"InvalidSignature","inputs":[]}],"bytecode":{"object":"0x60808060405234601557610402908161001a8239f35b5f80fdfe60806040526004361015610011575f80fd5b5f3560e01c80635f11301b1461018c578063cc922c6a146100935763cd71589e1461003a575f80fd5b3461008f57604036600319011261008f5760043567ffffffffffffffff811161008f57606090600319903603011261008f5760243567ffffffffffffffff811161008f57606090600319903603011261008f57005b5f80fd5b3461008f575f36600319011261008f576040515f8054906100b382610374565b8084526020840192600181169081156101735750600114610132575b50829003601f01601f191682019167ffffffffffffffff83118184101761011e576040918391828452602083525180918160208501528484015e5f828201840152601f01601f19168101030190f35b634e487b7160e01b5f52604160045260245ffd5b90505f80525f805160206103ad8339815191525f905b82821061015d575060209150830101836100cf565b6001816020925483858901015201910190610148565b60ff1916845250151560051b83016020019050836100cf565b3461008f57602036600319011261008f5760043567ffffffffffffffff811161008f573660238201121561008f57806004013567ffffffffffffffff811161008f57366024828401011161008f576101e45f54610374565b601f811161030d575b505f601f8211600114610275577fd2f056df94c31bdb3b4e16080f2ac6dbd4233c6001058d94afc3ad1242dff48892826024936040935f91610268575b508160011b905f198360031b1c1916175f555b8083519485936020855282602086015201848401375f828201840152601f01601f19168101030190a1005b859150830101358661022a565b601f198216905f80525f805160206103ad833981519152915f5b8181106102f25750926040927fd2f056df94c31bdb3b4e16080f2ac6dbd4233c6001058d94afc3ad1242dff488959282602496106102d7575b5050600181811b015f5561023d565b83018501355f19600384901b60f8161c1916905585806102c8565b91926020600181926024878a0101358155019401920161028f565b5f8052601f820160051c5f805160206103ad83398151915201906020831061035f575b601f0160051c5f805160206103ad83398151915201905b81811061035457506101ed565b5f8155600101610347565b5f805160206103ad8339815191529150610330565b90600182811c921680156103a2575b602083101461038e57565b634e487b7160e01b5f52602260045260245ffd5b91607f169161038356fe290decd9548b62a8d60345a988386fc84ba6bc95484008f6362f93160ef3e563a26469706673582212208b49eb461b76759127bcbcaa3fa2d2933014b526a232106a3e038641bb18dfe964736f6c634300081a0033","linkReferences":{}},"methodIdentifiers":{"getServiceURI()":"cc922c6a","setServiceURI(string)":"5f11301b","validate((bytes20,bytes12,bytes),(address[],bytes[],uint32))":"cd71589e"},"id":2}