{"abi":[{"type":"function","name":"getLastCheckpointThresholdWeight","inputs":[],"outputs":[{"name":"","type":"uint256","internalType":"uint256"}],"stateMutability":"view"},{"type":"function","name":"getLastCheckpointTotalWeight","inputs":[],"outputs":[{"name":"","type":"uint256","internalType":"uint256"}],"stateMutability":"view"},{"type":"function","name":"getLatestOperatorForSigningKey","inputs":[{"name":"signingKey","type":"address","internalType":"address"}],"outputs":[{"name":"","type":"address","internalType":"address"}],"stateMutability":"pure"},{"type":"function","name":"getOperatorWeight","inputs":[{"name":"operator","type":"address","internalType":"address"}],"outputs":[{"name":"","type":"uint256","internalType":"uint256"}],"stateMutability":"view"},{"type":"function","name":"getServiceURI","inputs":[],"outputs":[{"name":"","type":"string","internalType":"string"}],"stateMutability":"view"},{"type":"function","name":"setLastCheckpointThresholdWeight","inputs":[{"name":"weight","type":"uint256","internalType":"uint256"}],"outputs":[],"stateMutability":"nonpayable"},{"type":"function","name":"setLastCheckpointTotalWeight","inputs":[{"name":"weight","type":"uint256","internalType":"uint256"}],"outputs":[],"stateMutability":"nonpayable"},{"type":"function","name":"setOperatorWeight","inputs":[{"name":"operator","type":"address","internalType":"address"},{"name":"weight","type":"uint256","internalType":"uint256"}],"outputs":[],"stateMutability":"nonpayable"},{"type":"function","name":"setServiceURI","inputs":[{"name":"_serviceURI","type":"string","internalType":"string"}],"outputs":[],"stateMutability":"nonpayable"},{"type":"function","name":"validate","inputs":[{"name":"","type":"tuple","internalType":"struct IWavsServiceHandler.Envelope","components":[{"name":"eventId","type":"bytes20","internalType":"bytes20"},{"name":"ordering","type":"bytes12","internalType":"bytes12"},{"name":"payload","type":"bytes","internalType":"bytes"}]},{"name":"signatureData","type":"tuple","internalType":"struct IWavsServiceHandler.SignatureData","components":[{"name":"signers","type":"address[]","internalType":"address[]"},{"name":"signatures","type":"bytes[]","internalType":"bytes[]"},{"name":"referenceBlock","type":"uint32","internalType":"uint32"}]}],"outputs":[],"stateMutability":"view"},{"type":"event","name":"QuorumThresholdUpdated","inputs":[{"name":"numerator","type":"uint256","indexed":false,"internalType":"uint256"},{"name":"denominator","type":"uint256","indexed":false,"internalType":"uint256"}],"anonymous":false},{"type":"event","name":"ServiceURIUpdated","inputs":[{"name":"serviceURI","type":"string","indexed":false,"internalType":"string"}],"anonymous":false},{"type":"error","name":"InsufficientQuorum","inputs":[{"name":"signerWeight","type":"uint256","internalType":"uint256"},{"name":"thresholdWeight","type":"uint256","internalType":"uint256"},{"name":"totalWeight","type":"uint256","internalType":"uint256"}]},{"type":"error","name":"InsufficientQuorumZero","inputs":[]},{"type":"error","name":"InvalidQuorumParameters","inputs":[]},{"type":"error","name":"InvalidSignature","inputs":[]},{"type":"error","name":"InvalidSignatureBlock","inputs":[]},{"type":"error","name":"InvalidSignatureLength","inputs":[]},{"type":"error","name":"InvalidSignatureOrder","inputs":[]}],"bytecode":{"object":"0x608060405234601c57600e6020565b610ffb61002b8239610ffb90f35b6026565b60405190565b5f80fdfe60806040526004361015610013575b610573565b61001d5f356100bc565b806308fc760a146100b75780630e6b1110146100b2578063314f3a49146100ad5780635f11301b146100a857806398ec1ac9146100a3578063ac7cbfd91461009e578063b933fa7414610099578063cc922c6a14610094578063cd71589e1461008f5763fb8524b10361000e57610540565b61050c565b610450565b6103b0565b61037b565b610324565b6102d2565b61021c565b6101b7565b61011d565b60e01c90565b60405190565b5f80fd5b5f80fd5b5f80fd5b90565b6100e0816100d4565b036100e757565b5f80fd5b905035906100f8826100d7565b565b9060208282031261011357610110915f016100eb565b90565b6100cc565b5f0190565b3461014b576101356101303660046100fa565b6105d4565b61013d6100c2565b8061014781610118565b0390f35b6100c8565b60018060a01b031690565b61016490610150565b90565b6101708161015b565b0361017757565b5f80fd5b9050359061018882610167565b565b91906040838203126101b257806101a66101af925f860161017b565b936020016100eb565b90565b6100cc565b346101e6576101d06101ca36600461018a565b9061062b565b6101d86100c2565b806101e281610118565b0390f35b6100c8565b5f9103126101f557565b6100cc565b610203906100d4565b9052565b919061021a905f602085019401906101fa565b565b3461024c5761022c3660046101eb565b61024861023761066e565b61023f6100c2565b91829182610207565b0390f35b6100c8565b5f80fd5b5f80fd5b5f80fd5b909182601f830112156102975781359167ffffffffffffffff831161029257602001926001830284011161028d57565b610259565b610255565b610251565b906020828203126102cd575f82013567ffffffffffffffff81116102c8576102c4920161025d565b9091565b6100d0565b6100cc565b34610301576102eb6102e536600461029c565b90610911565b6102f36100c2565b806102fd81610118565b0390f35b6100c8565b9060208282031261031f5761031c915f0161017b565b90565b6100cc565b346103545761035061033f61033a366004610306565b610959565b6103476100c2565b91829182610207565b0390f35b6100c8565b6103629061015b565b9052565b9190610379905f60208501940190610359565b565b346103ab576103a7610396610391366004610306565b61097c565b61039e6100c2565b91829182610366565b0390f35b6100c8565b346103e0576103c03660046101eb565b6103dc6103cb610988565b6103d36100c2565b91829182610207565b0390f35b6100c8565b5190565b60209181520190565b90825f9392825e0152565b601f801991011690565b61042661042f6020936104349361041d816103e5565b938480936103e9565b958691016103f2565b6103fd565b0190565b61044d9160208201915f818403910152610407565b90565b34610480576104603660046101eb565b61047c61046b610a9c565b6104736100c2565b91829182610438565b0390f35b6100c8565b5f80fd5b908160609103126104975790565b610485565b908160609103126104aa5790565b610485565b919091604081840312610507575f81013567ffffffffffffffff811161050257836104db918301610489565b92602082013567ffffffffffffffff81116104fd576104fa920161049c565b90565b6100d0565b6100d0565b6100cc565b3461053b5761052561051f3660046104af565b90610c6d565b61052d6100c2565b8061053781610118565b0390f35b6100c8565b3461056e576105586105533660046100fa565b610e9f565b6105606100c2565b8061056a81610118565b0390f35b6100c8565b5f80fd5b5f1b90565b906105885f1991610577565b9181191691161790565b90565b6105a96105a46105ae926100d4565b610592565b6100d4565b90565b90565b906105c96105c46105d092610595565b6105b1565b825461057c565b9055565b6105df9060036105b4565b565b6105f56105f06105fa92610150565b610592565b610150565b90565b610606906105e1565b90565b610612906105fd565b90565b9061061f90610609565b5f5260205260405f2090565b61063a61063f92916001610615565b6105b4565b565b5f90565b5f1c90565b90565b61065961065e91610645565b61064a565b90565b61066b905461064d565b90565b610676610641565b506106816003610661565b90565b5090565b634e487b7160e01b5f52604160045260245ffd5b634e487b7160e01b5f52602260045260245ffd5b90600160028304921680156106d0575b60208310146106cb57565b61069c565b91607f16916106c0565b5f5260205f2090565b601f602091010490565b1b90565b9190600861070c9102916107065f19846106ed565b926106ed565b9181191691161790565b919061072c61072761073493610595565b6105b1565b9083546106f1565b9055565b61074a91610744610641565b91610716565b565b5b818110610758575050565b806107655f600193610738565b0161074d565b9190601f811161077b575b505050565b6107876107ac936106da565b906020610793846106e3565b830193106107b4575b6107a5906106e3565b019061074c565b5f8080610776565b91506107a58192905061079c565b1c90565b906107d6905f19906008026107c2565b191690565b816107e5916107c6565b906002021790565b916107f89082610684565b9067ffffffffffffffff82116108b75761081c8261081685546106b0565b8561076b565b5f90601f831160011461084f5791809161083e935f92610843575b50506107db565b90555b565b90915001355f80610837565b601f1983169161085e856106da565b925f5b81811061089f57509160029391856001969410610885575b50505002019055610841565b610895910135601f8416906107c6565b90555f8080610879565b91936020600181928787013581550195019201610861565b610688565b906108c792916107ed565b565b90825f939282370152565b91906108ee816108e7816108f3956103e9565b80956108c9565b6103fd565b0190565b909161090e9260208301925f8185039101526108d4565b90565b61091d8183905f6108bc565b907fd2f056df94c31bdb3b4e16080f2ac6dbd4233c6001058d94afc3ad1242dff4889161095461094b6100c2565b928392836108f7565b0390a1565b61097061097591610968610641565b506001610615565b610661565b90565b5f90565b610984610978565b5090565b610990610641565b5061099b6002610661565b90565b606090565b60209181520190565b905f92918054906109c66109bf836106b0565b80946109a3565b916001811690815f14610a1d57506001146109e1575b505050565b6109ee91929394506106da565b915f925b818410610a0557505001905f80806109dc565b600181602092959395548486015201910192906109f2565b92949550505060ff19168252151560200201905f80806109dc565b90610a42916109ac565b90565b90610a4f906103fd565b810190811067ffffffffffffffff821117610a6957604052565b610688565b90610a8e610a8792610a7e6100c2565b93848092610a38565b0383610a45565b565b610a9990610a6e565b90565b610aa461099e565b50610aae5f610a90565b90565b5f80fd5b5f80fd5b5f80fd5b903590600160200381360303821215610aff570180359067ffffffffffffffff8211610afa57602001916020820236038313610af557565b610ab9565b610ab5565b610ab1565b5090565b90565b610b1f610b1a610b2492610b08565b610592565b6100d4565b90565b903590600160200381360303821215610b69570180359067ffffffffffffffff8211610b6457602001916020820236038313610b5f57565b610ab9565b610ab5565b610ab1565b5090565b63ffffffff1690565b610b8481610b72565b03610b8b57565b5f80fd5b35610b9981610b7b565b90565b610bb0610bab610bb592610b72565b610592565b6100d4565b90565b151590565b6001610bc991016100d4565b90565b634e487b7160e01b5f52603260045260245ffd5b9190811015610bf0576020020190565b610bcc565b35610bff81610167565b90565b634e487b7160e01b5f52601160045260245ffd5b610c25610c2b919392936100d4565b926100d4565b8201809211610c3657565b610c02565b604090610c64610c6b9496959396610c5a60608401985f8501906101fa565b60208301906101fa565b01906101fa565b565b50610c84610c7e825f810190610abd565b90610b04565b610c96610c905f610b0b565b916100d4565b148015610e59575b610e3d57610cae60408201610b8f565b610cc0610cba436100d4565b91610b9c565b1015610e2157610ce5610cdf610cd9835f810190610abd565b90610ef4565b15610bb8565b610e0557610cf25f610b0b565b90610cfc5f610b0b565b915b82610d26610d20610d1b610d15865f810190610abd565b90610b04565b6100d4565b916100d4565b1015610d7757610d6b610d7191610d65610d606001610d5a610d55610d4e895f810190610abd565b8b91610be0565b610bf5565b90610615565b610661565b90610c16565b92610bbd565b91610cfe565b91505080610d8d610d875f610b0b565b916100d4565b14610de95780610dae610da8610da36002610661565b6100d4565b916100d4565b10610db65750565b610dc06002610661565b90610de5610dce6003610661565b5f9384936386b1609160e01b855260048501610c3b565b0390fd5b5f632f41f79b60e01b815280610e0160048201610118565b0390fd5b5f6309cf9e4960e11b815280610e1d60048201610118565b0390fd5b5f63898deb1d60e01b815280610e3960048201610118565b0390fd5b5f634be6321b60e01b815280610e5560048201610118565b0390fd5b50610e70610e6a825f810190610abd565b90610b04565b610e98610e92610e8d610e87856020810190610b27565b90610b6e565b6100d4565b916100d4565b1415610c9e565b610eaa9060026105b4565b565b5f90565b90565b610ec7610ec2610ecc92610eb0565b610592565b6100d4565b90565b610ede610ee4919392936100d4565b926100d4565b8203918211610eef57565b610c02565b610efc610eac565b50610f08818390610b04565b610f1b610f156001610eb3565b916100d4565b1115610fbe57610f2b6001610eb3565b5b80610f49610f43610f3e858790610b04565b6100d4565b916100d4565b1015610fb657610f63610f5e83858491610be0565b610bf5565b610f9b610f95610f90610f8b8688610f8588610f7f6001610eb3565b90610ecf565b91610be0565b610bf5565b61015b565b9161015b565b1115610faf57610faa90610bbd565b610f2c565b5050505f90565b505050600190565b505060019056fea2646970667358221220bab794c737cbb430f19d67cd57b10e169fd0c6423d70e187807a50ea30e9305d64736f6c634300081b0033","linkReferences":{}},"methodIdentifiers":{"getLastCheckpointThresholdWeight()":"b933fa74","getLastCheckpointTotalWeight()":"314f3a49","getLatestOperatorForSigningKey(address)":"ac7cbfd9","getOperatorWeight(address)":"98ec1ac9","getServiceURI()":"cc922c6a","setLastCheckpointThresholdWeight(uint256)":"fb8524b1","setLastCheckpointTotalWeight(uint256)":"08fc760a","setOperatorWeight(address,uint256)":"0e6b1110","setServiceURI(string)":"5f11301b","validate((bytes20,bytes12,bytes),(address[],bytes[],uint32))":"cd71589e"},"id":4}