{"abi":[{"type":"function","name":"getLastCheckpointThresholdWeight","inputs":[],"outputs":[{"name":"","type":"uint256","internalType":"uint256"}],"stateMutability":"pure"},{"type":"function","name":"getOperatorWeight","inputs":[{"name":"","type":"address","internalType":"address"}],"outputs":[{"name":"","type":"uint256","internalType":"uint256"}],"stateMutability":"pure"},{"type":"function","name":"getServiceURI","inputs":[],"outputs":[{"name":"","type":"string","internalType":"string"}],"stateMutability":"view"},{"type":"function","name":"setServiceURI","inputs":[{"name":"_serviceURI","type":"string","internalType":"string"}],"outputs":[],"stateMutability":"nonpayable"},{"type":"function","name":"validate","inputs":[{"name":"envelope","type":"tuple","internalType":"struct IWavsServiceHandler.Envelope","components":[{"name":"eventId","type":"bytes20","internalType":"bytes20"},{"name":"ordering","type":"bytes12","internalType":"bytes12"},{"name":"payload","type":"bytes","internalType":"bytes"}]},{"name":"signatureData","type":"tuple","internalType":"struct IWavsServiceHandler.SignatureData","components":[{"name":"operators","type":"address[]","internalType":"address[]"},{"name":"signatures","type":"bytes[]","internalType":"bytes[]"},{"name":"referenceBlock","type":"uint32","internalType":"uint32"}]}],"outputs":[],"stateMutability":"view"},{"type":"event","name":"ServiceURIUpdated","inputs":[{"name":"serviceURI","type":"string","indexed":false,"internalType":"string"}],"anonymous":false},{"type":"error","name":"InvalidSignature","inputs":[]}],"bytecode":{"object":"0x60808060405234601557610461908161001a8239f35b5f80fdfe60806040526004361015610011575f80fd5b5f3560e01c80635f11301b146101eb57806398ec1ac9146101bd578063b933fa74146101a2578063cc922c6a146100a95763cd71589e14610050575f80fd5b346100a55760403660031901126100a55760043567ffffffffffffffff81116100a55760609060031990360301126100a55760243567ffffffffffffffff81116100a55760609060031990360301126100a557005b5f80fd5b346100a5575f3660031901126100a5576040515f5f54906100c9826103d3565b8084526020840192600181169081156101895750600114610148575b50829003601f01601f191682019167ffffffffffffffff831181841017610134576040918391828452602083525180918160208501528484015e5f828201840152601f01601f19168101030190f35b634e487b7160e01b5f52604160045260245ffd5b90505f80525f51602061040c5f395f51905f525f905b828210610173575060209150830101836100e5565b600181602092548385890101520191019061015e565b60ff1916845250151560051b83016020019050836100e5565b346100a5575f3660031901126100a557602060405160038152f35b346100a55760203660031901126100a5576004356001600160a01b038116036100a557602060405160018152f35b346100a55760203660031901126100a55760043567ffffffffffffffff81116100a557366023820112156100a557806004013567ffffffffffffffff81116100a55736602482840101116100a5576102435f546103d3565b601f811161036c575b505f601f82116001146102d4577fd2f056df94c31bdb3b4e16080f2ac6dbd4233c6001058d94afc3ad1242dff48892826024936040935f916102c7575b508160011b905f198360031b1c1916175f555b8083519485936020855282602086015201848401375f828201840152601f01601f19168101030190a1005b8591508301013586610289565b601f198216905f80525f51602061040c5f395f51905f52915f5b8181106103515750926040927fd2f056df94c31bdb3b4e16080f2ac6dbd4233c6001058d94afc3ad1242dff48895928260249610610336575b5050600181811b015f5561029c565b83018501355f19600384901b60f8161c191690558580610327565b91926020600181926024878a010135815501940192016102ee565b5f8052601f820160051c5f51602061040c5f395f51905f520190602083106103be575b601f0160051c5f51602061040c5f395f51905f5201905b8181106103b3575061024c565b5f81556001016103a6565b5f51602061040c5f395f51905f52915061038f565b90600182811c92168015610401575b60208310146103ed57565b634e487b7160e01b5f52602260045260245ffd5b91607f16916103e256fe290decd9548b62a8d60345a988386fc84ba6bc95484008f6362f93160ef3e563a26469706673582212206dd64388116c7b5a1106d96dc94d40b202dbeb7c0f1dac9703ebccaa847d18c464736f6c634300081c0033","linkReferences":{}},"methodIdentifiers":{"getLastCheckpointThresholdWeight()":"b933fa74","getOperatorWeight(address)":"98ec1ac9","getServiceURI()":"cc922c6a","setServiceURI(string)":"5f11301b","validate((bytes20,bytes12,bytes),(address[],bytes[],uint32))":"cd71589e"},"id":2}