{"abi":[{"type":"function","name":"getLastCheckpointThresholdWeight","inputs":[],"outputs":[{"name":"","type":"uint256","internalType":"uint256"}],"stateMutability":"view"},{"type":"function","name":"getLastCheckpointTotalWeight","inputs":[],"outputs":[{"name":"","type":"uint256","internalType":"uint256"}],"stateMutability":"view"},{"type":"function","name":"getOperatorWeight","inputs":[{"name":"operator","type":"address","internalType":"address"}],"outputs":[{"name":"","type":"uint256","internalType":"uint256"}],"stateMutability":"view"},{"type":"function","name":"getServiceURI","inputs":[],"outputs":[{"name":"","type":"string","internalType":"string"}],"stateMutability":"view"},{"type":"function","name":"setLastCheckpointThresholdWeight","inputs":[{"name":"weight","type":"uint256","internalType":"uint256"}],"outputs":[],"stateMutability":"nonpayable"},{"type":"function","name":"setLastCheckpointTotalWeight","inputs":[{"name":"weight","type":"uint256","internalType":"uint256"}],"outputs":[],"stateMutability":"nonpayable"},{"type":"function","name":"setOperatorWeight","inputs":[{"name":"operator","type":"address","internalType":"address"},{"name":"weight","type":"uint256","internalType":"uint256"}],"outputs":[],"stateMutability":"nonpayable"},{"type":"function","name":"setServiceURI","inputs":[{"name":"_serviceURI","type":"string","internalType":"string"}],"outputs":[],"stateMutability":"nonpayable"},{"type":"function","name":"validate","inputs":[{"name":"","type":"tuple","internalType":"struct IWavsServiceHandler.Envelope","components":[{"name":"eventId","type":"bytes20","internalType":"bytes20"},{"name":"ordering","type":"bytes12","internalType":"bytes12"},{"name":"payload","type":"bytes","internalType":"bytes"}]},{"name":"signatureData","type":"tuple","internalType":"struct IWavsServiceHandler.SignatureData","components":[{"name":"operators","type":"address[]","internalType":"address[]"},{"name":"signatures","type":"bytes[]","internalType":"bytes[]"},{"name":"referenceBlock","type":"uint32","internalType":"uint32"}]}],"outputs":[],"stateMutability":"view"},{"type":"event","name":"QuorumThresholdUpdated","inputs":[{"name":"numerator","type":"uint256","indexed":false,"internalType":"uint256"},{"name":"denominator","type":"uint256","indexed":false,"internalType":"uint256"}],"anonymous":false},{"type":"event","name":"ServiceURIUpdated","inputs":[{"name":"serviceURI","type":"string","indexed":false,"internalType":"string"}],"anonymous":false},{"type":"error","name":"InsufficientQuorum","inputs":[]},{"type":"error","name":"InvalidQuorumParameters","inputs":[]},{"type":"error","name":"InvalidSignature","inputs":[]}],"bytecode":{"object":"0x6080806040523460155761073f908161001a8239f35b5f80fdfe60806040526004361015610011575f80fd5b5f3560e01c806308fc760a1461059f5780630e6b11101461056a578063314f3a491461054d5780635f11301b1461036557806398ec1ac91461032d578063b933fa7414610310578063cc922c6a14610217578063cd71589e146100995763fb8524b11461007c575f80fd5b3461009557602036600319011261009557600435600255005b5f80fd5b346100955760403660031901126100955760043567ffffffffffffffff81116100955760609060031990360301126100955760243567ffffffffffffffff811161009557606081600401916003199036030112610095576101036100fd8280610606565b90610674565b156101c8575f90815b6101168280610606565b9050831015610179578261014461013f6101308580610606565b6001600160a01b03949161063c565b610660565b165f52600160205260405f205481018091116101655760019092019161010c565b634e487b7160e01b5f52601160045260245ffd5b6002541161018357005b60405162461bcd60e51b815260206004820152601a60248201527f4e6f7420656e6f756768206f70657261746f72207765696768740000000000006044820152606490fd5b60405162461bcd60e51b815260206004820152602160248201527f4f70657261746f727320617265206e6f742070726f7065726c7920736f7274656044820152601960fa1b6064820152608490fd5b34610095575f366003190112610095576040515f5f5490610237826105ce565b8084526020840192600181169081156102f757506001146102b6575b50829003601f01601f191682019167ffffffffffffffff8311818410176102a2576040918391828452602083525180918160208501528484015e5f828201840152601f01601f19168101030190f35b634e487b7160e01b5f52604160045260245ffd5b90505f80525f5160206106ea5f395f51905f525f905b8282106102e157506020915083010183610253565b60018160209254838589010152019101906102cc565b60ff1916845250151560051b8301602001905083610253565b34610095575f366003190112610095576020600254604051908152f35b34610095576020366003190112610095576001600160a01b0361034e6105b8565b165f526001602052602060405f2054604051908152f35b346100955760203660031901126100955760043567ffffffffffffffff8111610095573660238201121561009557806004013567ffffffffffffffff8111610095573660248284010111610095576103bd5f546105ce565b601f81116104e6575b505f601f821160011461044e577fd2f056df94c31bdb3b4e16080f2ac6dbd4233c6001058d94afc3ad1242dff48892826024936040935f91610441575b508160011b905f198360031b1c1916175f555b8083519485936020855282602086015201848401375f828201840152601f01601f19168101030190a1005b8591508301013586610403565b601f198216905f80525f5160206106ea5f395f51905f52915f5b8181106104cb5750926040927fd2f056df94c31bdb3b4e16080f2ac6dbd4233c6001058d94afc3ad1242dff488959282602496106104b0575b5050600181811b015f55610416565b83018501355f19600384901b60f8161c1916905585806104a1565b91926020600181926024878a01013581550194019201610468565b5f8052601f820160051c5f5160206106ea5f395f51905f52019060208310610538575b601f0160051c5f5160206106ea5f395f51905f5201905b81811061052d57506103c6565b5f8155600101610520565b5f5160206106ea5f395f51905f529150610509565b34610095575f366003190112610095576020600354604051908152f35b34610095576040366003190112610095576001600160a01b0361058b6105b8565b165f52600160205260243560405f20555f80f35b3461009557602036600319011261009557600435600355005b600435906001600160a01b038216820361009557565b90600182811c921680156105fc575b60208310146105e857565b634e487b7160e01b5f52602260045260245ffd5b91607f16916105dd565b903590601e1981360301821215610095570180359067ffffffffffffffff821161009557602001918160051b3603831361009557565b919081101561064c5760051b0190565b634e487b7160e01b5f52603260045260245ffd5b356001600160a01b03811681036100955790565b9060018111156106e25760015b81811061069057505050600190565b61069e61013f82848661063c565b5f198201828111610165576001600160a01b03906106c19061013f90868861063c565b166001600160a01b0390911611156106db57600101610681565b5050505f90565b505060019056fe290decd9548b62a8d60345a988386fc84ba6bc95484008f6362f93160ef3e563a2646970667358221220a1fd325ec132d2a5c5a92cd9c2177c62782dda5750bd424df08fe99e26f59e1464736f6c634300081c0033","linkReferences":{}},"methodIdentifiers":{"getLastCheckpointThresholdWeight()":"b933fa74","getLastCheckpointTotalWeight()":"314f3a49","getOperatorWeight(address)":"98ec1ac9","getServiceURI()":"cc922c6a","setLastCheckpointThresholdWeight(uint256)":"fb8524b1","setLastCheckpointTotalWeight(uint256)":"08fc760a","setOperatorWeight(address,uint256)":"0e6b1110","setServiceURI(string)":"5f11301b","validate((bytes20,bytes12,bytes),(address[],bytes[],uint32))":"cd71589e"},"id":4}