{"abi":[{"type":"function","name":"getLastCheckpointThresholdWeight","inputs":[],"outputs":[{"name":"","type":"uint256","internalType":"uint256"}],"stateMutability":"pure"},{"type":"function","name":"getLastCheckpointTotalWeight","inputs":[],"outputs":[{"name":"","type":"uint256","internalType":"uint256"}],"stateMutability":"pure"},{"type":"function","name":"getOperatorWeight","inputs":[{"name":"","type":"address","internalType":"address"}],"outputs":[{"name":"","type":"uint256","internalType":"uint256"}],"stateMutability":"pure"},{"type":"function","name":"getServiceURI","inputs":[],"outputs":[{"name":"","type":"string","internalType":"string"}],"stateMutability":"view"},{"type":"function","name":"setServiceURI","inputs":[{"name":"_serviceURI","type":"string","internalType":"string"}],"outputs":[],"stateMutability":"nonpayable"},{"type":"function","name":"validate","inputs":[{"name":"envelope","type":"tuple","internalType":"struct IWavsServiceHandler.Envelope","components":[{"name":"eventId","type":"bytes20","internalType":"bytes20"},{"name":"ordering","type":"bytes12","internalType":"bytes12"},{"name":"payload","type":"bytes","internalType":"bytes"}]},{"name":"signatureData","type":"tuple","internalType":"struct IWavsServiceHandler.SignatureData","components":[{"name":"operators","type":"address[]","internalType":"address[]"},{"name":"signatures","type":"bytes[]","internalType":"bytes[]"},{"name":"referenceBlock","type":"uint32","internalType":"uint32"}]}],"outputs":[],"stateMutability":"view"},{"type":"event","name":"ServiceURIUpdated","inputs":[{"name":"serviceURI","type":"string","indexed":false,"internalType":"string"}],"anonymous":false},{"type":"error","name":"InvalidSignature","inputs":[]}],"bytecode":{"object":"0x60808060405234601557610488908161001a8239f35b5f80fdfe6080806040526004361015610012575f80fd5b5f3560e01c908163314f3a49146103e1575080635f11301b146101f957806398ec1ac9146101cb578063b933fa74146101b0578063cc922c6a146100b75763cd71589e1461005e575f80fd5b346100b35760403660031901126100b35760043567ffffffffffffffff81116100b35760609060031990360301126100b35760243567ffffffffffffffff81116100b35760609060031990360301126100b357005b5f80fd5b346100b3575f3660031901126100b3576040515f5f54906100d7826103fa565b8084526020840192600181169081156101975750600114610156575b50829003601f01601f191682019167ffffffffffffffff831181841017610142576040918391828452602083525180918160208501528484015e5f828201840152601f01601f19168101030190f35b634e487b7160e01b5f52604160045260245ffd5b90505f80525f5160206104335f395f51905f525f905b828210610181575060209150830101836100f3565b600181602092548385890101520191019061016c565b60ff1916845250151560051b83016020019050836100f3565b346100b3575f3660031901126100b357602060405160038152f35b346100b35760203660031901126100b3576004356001600160a01b038116036100b357602060405160018152f35b346100b35760203660031901126100b35760043567ffffffffffffffff81116100b357366023820112156100b357806004013567ffffffffffffffff81116100b35736602482840101116100b3576102515f546103fa565b601f811161037a575b505f601f82116001146102e2577fd2f056df94c31bdb3b4e16080f2ac6dbd4233c6001058d94afc3ad1242dff48892826024936040935f916102d5575b508160011b905f198360031b1c1916175f555b8083519485936020855282602086015201848401375f828201840152601f01601f19168101030190a1005b8591508301013586610297565b601f198216905f80525f5160206104335f395f51905f52915f5b81811061035f5750926040927fd2f056df94c31bdb3b4e16080f2ac6dbd4233c6001058d94afc3ad1242dff48895928260249610610344575b5050600181811b015f556102aa565b83018501355f19600384901b60f8161c191690558580610335565b91926020600181926024878a010135815501940192016102fc565b5f8052601f820160051c5f5160206104335f395f51905f520190602083106103cc575b601f0160051c5f5160206104335f395f51905f5201905b8181106103c1575061025a565b5f81556001016103b4565b5f5160206104335f395f51905f52915061039d565b346100b3575f3660031901126100b35780600560209252f35b90600182811c92168015610428575b602083101461041457565b634e487b7160e01b5f52602260045260245ffd5b91607f169161040956fe290decd9548b62a8d60345a988386fc84ba6bc95484008f6362f93160ef3e563a26469706673582212203efa0af793c46f0e6034bd19df986d2a3d9efb6b7b1598cee09a2cebceeab17464736f6c634300081b0033","linkReferences":{}},"methodIdentifiers":{"getLastCheckpointThresholdWeight()":"b933fa74","getLastCheckpointTotalWeight()":"314f3a49","getOperatorWeight(address)":"98ec1ac9","getServiceURI()":"cc922c6a","setServiceURI(string)":"5f11301b","validate((bytes20,bytes12,bytes),(address[],bytes[],uint32))":"cd71589e"},"id":4}