{"abi":[{"type":"function","name":"getOperatorWeightAtBlock","inputs":[{"name":"","type":"address","internalType":"address"},{"name":"","type":"uint32","internalType":"uint32"}],"outputs":[{"name":"","type":"uint256","internalType":"uint256"}],"stateMutability":"pure"},{"type":"function","name":"getServiceURI","inputs":[],"outputs":[{"name":"","type":"string","internalType":"string"}],"stateMutability":"view"},{"type":"function","name":"setServiceURI","inputs":[{"name":"_serviceURI","type":"string","internalType":"string"}],"outputs":[],"stateMutability":"nonpayable"},{"type":"function","name":"validate","inputs":[{"name":"envelope","type":"tuple","internalType":"struct IWavsServiceHandler.Envelope","components":[{"name":"eventId","type":"bytes20","internalType":"bytes20"},{"name":"ordering","type":"bytes12","internalType":"bytes12"},{"name":"payload","type":"bytes","internalType":"bytes"}]},{"name":"signatureData","type":"tuple","internalType":"struct IWavsServiceHandler.SignatureData","components":[{"name":"operators","type":"address[]","internalType":"address[]"},{"name":"signatures","type":"bytes[]","internalType":"bytes[]"},{"name":"referenceBlock","type":"uint32","internalType":"uint32"}]}],"outputs":[],"stateMutability":"view"},{"type":"event","name":"ServiceURIUpdated","inputs":[{"name":"serviceURI","type":"string","indexed":false,"internalType":"string"}],"anonymous":false},{"type":"error","name":"InvalidSignature","inputs":[]}],"bytecode":{"object":"0x6080806040523460155761044a908161001a8239f35b5f80fdfe60806040526004361015610011575f80fd5b5f3560e01c80635f11301b146101d4578063955f2d9014610197578063cc922c6a1461009e5763cd71589e14610045575f80fd5b3461009a57604036600319011261009a5760043567ffffffffffffffff811161009a57606090600319903603011261009a5760243567ffffffffffffffff811161009a57606090600319903603011261009a57005b5f80fd5b3461009a575f36600319011261009a576040515f5f54906100be826103bc565b80845260208401926001811690811561017e575060011461013d575b50829003601f01601f191682019167ffffffffffffffff831181841017610129576040918391828452602083525180918160208501528484015e5f828201840152601f01601f19168101030190f35b634e487b7160e01b5f52604160045260245ffd5b90505f80525f5160206103f55f395f51905f525f905b828210610168575060209150830101836100da565b6001816020925483858901015201910190610153565b60ff1916845250151560051b83016020019050836100da565b3461009a57604036600319011261009a576004356001600160a01b0381160361009a5760243563ffffffff81160361009a57602060405160018152f35b3461009a57602036600319011261009a5760043567ffffffffffffffff811161009a573660238201121561009a57806004013567ffffffffffffffff811161009a57366024828401011161009a5761022c5f546103bc565b601f8111610355575b505f601f82116001146102bd577fd2f056df94c31bdb3b4e16080f2ac6dbd4233c6001058d94afc3ad1242dff48892826024936040935f916102b0575b508160011b905f198360031b1c1916175f555b8083519485936020855282602086015201848401375f828201840152601f01601f19168101030190a1005b8591508301013586610272565b601f198216905f80525f5160206103f55f395f51905f52915f5b81811061033a5750926040927fd2f056df94c31bdb3b4e16080f2ac6dbd4233c6001058d94afc3ad1242dff4889592826024961061031f575b5050600181811b015f55610285565b83018501355f19600384901b60f8161c191690558580610310565b91926020600181926024878a010135815501940192016102d7565b5f8052601f820160051c5f5160206103f55f395f51905f520190602083106103a7575b601f0160051c5f5160206103f55f395f51905f5201905b81811061039c5750610235565b5f815560010161038f565b5f5160206103f55f395f51905f529150610378565b90600182811c921680156103ea575b60208310146103d657565b634e487b7160e01b5f52602260045260245ffd5b91607f16916103cb56fe290decd9548b62a8d60345a988386fc84ba6bc95484008f6362f93160ef3e563a2646970667358221220b4032a8ac0b14cbeab2408bdbf6e63a00837f4800bb4a6788938ca8b5b2143f964736f6c634300081c0033","linkReferences":{}},"methodIdentifiers":{"getOperatorWeightAtBlock(address,uint32)":"955f2d90","getServiceURI()":"cc922c6a","setServiceURI(string)":"5f11301b","validate((bytes20,bytes12,bytes),(address[],bytes[],uint32))":"cd71589e"},"id":2}