{"abi":[{"type":"function","name":"getLastCheckpointThresholdWeight","inputs":[],"outputs":[{"name":"","type":"uint256","internalType":"uint256"}],"stateMutability":"view"},{"type":"function","name":"getLastCheckpointTotalWeight","inputs":[],"outputs":[{"name":"","type":"uint256","internalType":"uint256"}],"stateMutability":"view"},{"type":"function","name":"getLatestOperatorForSigningKey","inputs":[{"name":"signingKey","type":"address","internalType":"address"}],"outputs":[{"name":"","type":"address","internalType":"address"}],"stateMutability":"pure"},{"type":"function","name":"getOperatorWeight","inputs":[{"name":"operator","type":"address","internalType":"address"}],"outputs":[{"name":"","type":"uint256","internalType":"uint256"}],"stateMutability":"view"},{"type":"function","name":"getServiceURI","inputs":[],"outputs":[{"name":"","type":"string","internalType":"string"}],"stateMutability":"view"},{"type":"function","name":"setLastCheckpointThresholdWeight","inputs":[{"name":"weight","type":"uint256","internalType":"uint256"}],"outputs":[],"stateMutability":"nonpayable"},{"type":"function","name":"setLastCheckpointTotalWeight","inputs":[{"name":"weight","type":"uint256","internalType":"uint256"}],"outputs":[],"stateMutability":"nonpayable"},{"type":"function","name":"setOperatorWeight","inputs":[{"name":"operator","type":"address","internalType":"address"},{"name":"weight","type":"uint256","internalType":"uint256"}],"outputs":[],"stateMutability":"nonpayable"},{"type":"function","name":"setServiceURI","inputs":[{"name":"_serviceURI","type":"string","internalType":"string"}],"outputs":[],"stateMutability":"nonpayable"},{"type":"function","name":"validate","inputs":[{"name":"","type":"tuple","internalType":"struct IWavsServiceHandler.Envelope","components":[{"name":"eventId","type":"bytes20","internalType":"bytes20"},{"name":"ordering","type":"bytes12","internalType":"bytes12"},{"name":"payload","type":"bytes","internalType":"bytes"}]},{"name":"signatureData","type":"tuple","internalType":"struct IWavsServiceHandler.SignatureData","components":[{"name":"signers","type":"address[]","internalType":"address[]"},{"name":"signatures","type":"bytes[]","internalType":"bytes[]"},{"name":"referenceBlock","type":"uint32","internalType":"uint32"}]}],"outputs":[],"stateMutability":"view"},{"type":"event","name":"QuorumThresholdUpdated","inputs":[{"name":"numerator","type":"uint256","indexed":false,"internalType":"uint256"},{"name":"denominator","type":"uint256","indexed":false,"internalType":"uint256"}],"anonymous":false},{"type":"event","name":"ServiceURIUpdated","inputs":[{"name":"serviceURI","type":"string","indexed":false,"internalType":"string"}],"anonymous":false},{"type":"error","name":"InsufficientQuorum","inputs":[{"name":"signerWeight","type":"uint256","internalType":"uint256"},{"name":"thresholdWeight","type":"uint256","internalType":"uint256"},{"name":"totalWeight","type":"uint256","internalType":"uint256"}]},{"type":"error","name":"InsufficientQuorumZero","inputs":[]},{"type":"error","name":"InvalidQuorumParameters","inputs":[]},{"type":"error","name":"InvalidSignature","inputs":[]},{"type":"error","name":"InvalidSignatureBlock","inputs":[]},{"type":"error","name":"InvalidSignatureLength","inputs":[]},{"type":"error","name":"InvalidSignatureOrder","inputs":[]}],"bytecode":{"object":"0x60808060405234601557610798908161001a8239f35b5f80fdfe60806040526004361015610011575f80fd5b5f3560e01c806308fc760a146105f85780630e6b1110146105c3578063314f3a49146105a65780635f11301b146103be57806398ec1ac914610386578063ac7cbfd914610359578063b933fa741461033c578063cc922c6a14610243578063cd71589e146100a45763fb8524b114610087575f80fd5b346100a05760203660031901126100a057600435600255005b5f80fd5b346100a05760403660031901126100a05760043567ffffffffffffffff81116100a05760609060031990360301126100a05760243567ffffffffffffffff81116100a0578060040190606060031982360301126100a057610105828061065f565b905015801561021f575b610210576044013563ffffffff81168091036100a0574311156102015761013f610139828061065f565b906106cd565b156101f2575f90815b610152828061065f565b90508310156101b5578261018061017b61016c858061065f565b6001600160a01b039491610695565b6106b9565b165f52600160205260405f205481018091116101a157600190920191610148565b634e487b7160e01b5f52601160045260245ffd5b80156101e3576002548082106101c757005b600354916386b1609160e01b5f5260045260245260445260645ffd5b632f41f79b60e01b5f5260045ffd5b6309cf9e4960e11b5f5260045ffd5b63898deb1d60e01b5f5260045ffd5b634be6321b60e01b5f5260045ffd5b5061022a828061065f565b9050610239602483018461065f565b919050141561010f565b346100a0575f3660031901126100a0576040515f5f549061026382610627565b80845260208401926001811690811561032357506001146102e2575b50829003601f01601f191682019167ffffffffffffffff8311818410176102ce576040918391828452602083525180918160208501528484015e5f828201840152601f01601f19168101030190f35b634e487b7160e01b5f52604160045260245ffd5b90505f80525f5160206107435f395f51905f525f905b82821061030d5750602091508301018361027f565b60018160209254838589010152019101906102f8565b60ff1916845250151560051b830160200190508361027f565b346100a0575f3660031901126100a0576020600254604051908152f35b346100a05760203660031901126100a0576020610374610611565b6040516001600160a01b039091168152f35b346100a05760203660031901126100a0576001600160a01b036103a7610611565b165f526001602052602060405f2054604051908152f35b346100a05760203660031901126100a05760043567ffffffffffffffff81116100a057366023820112156100a057806004013567ffffffffffffffff81116100a05736602482840101116100a0576104165f54610627565b601f811161053f575b505f601f82116001146104a7577fd2f056df94c31bdb3b4e16080f2ac6dbd4233c6001058d94afc3ad1242dff48892826024936040935f9161049a575b508160011b905f198360031b1c1916175f555b8083519485936020855282602086015201848401375f828201840152601f01601f19168101030190a1005b859150830101358661045c565b601f198216905f80525f5160206107435f395f51905f52915f5b8181106105245750926040927fd2f056df94c31bdb3b4e16080f2ac6dbd4233c6001058d94afc3ad1242dff48895928260249610610509575b5050600181811b015f5561046f565b83018501355f19600384901b60f8161c1916905585806104fa565b91926020600181926024878a010135815501940192016104c1565b5f8052601f820160051c5f5160206107435f395f51905f52019060208310610591575b601f0160051c5f5160206107435f395f51905f5201905b818110610586575061041f565b5f8155600101610579565b5f5160206107435f395f51905f529150610562565b346100a0575f3660031901126100a0576020600354604051908152f35b346100a05760403660031901126100a0576001600160a01b036105e4610611565b165f52600160205260243560405f20555f80f35b346100a05760203660031901126100a057600435600355005b600435906001600160a01b03821682036100a057565b90600182811c92168015610655575b602083101461064157565b634e487b7160e01b5f52602260045260245ffd5b91607f1691610636565b903590601e19813603018212156100a0570180359067ffffffffffffffff82116100a057602001918160051b360383136100a057565b91908110156106a55760051b0190565b634e487b7160e01b5f52603260045260245ffd5b356001600160a01b03811681036100a05790565b90600181111561073b5760015b8181106106e957505050600190565b6106f761017b828486610695565b5f1982018281116101a1576001600160a01b039061071a9061017b908688610695565b166001600160a01b039091161115610734576001016106da565b5050505f90565b505060019056fe290decd9548b62a8d60345a988386fc84ba6bc95484008f6362f93160ef3e563a2646970667358221220c65e3e39a44025b2a49cc9667f71312ed8f9e35f7b84f7356427a2aef7e9357b64736f6c634300081b0033","linkReferences":{}},"methodIdentifiers":{"getLastCheckpointThresholdWeight()":"b933fa74","getLastCheckpointTotalWeight()":"314f3a49","getLatestOperatorForSigningKey(address)":"ac7cbfd9","getOperatorWeight(address)":"98ec1ac9","getServiceURI()":"cc922c6a","setLastCheckpointThresholdWeight(uint256)":"fb8524b1","setLastCheckpointTotalWeight(uint256)":"08fc760a","setOperatorWeight(address,uint256)":"0e6b1110","setServiceURI(string)":"5f11301b","validate((bytes20,bytes12,bytes),(address[],bytes[],uint32))":"cd71589e"},"id":4}