{"abi":[{"type":"constructor","inputs":[{"name":"handler","type":"address","internalType":"contract IWavsServiceHandler"}],"stateMutability":"nonpayable"},{"type":"function","name":"getHandler","inputs":[],"outputs":[{"name":"","type":"address","internalType":"contract IWavsServiceHandler"}],"stateMutability":"view"},{"type":"function","name":"handleSignedDataMulti","inputs":[{"name":"datas","type":"bytes[]","internalType":"bytes[]"},{"name":"signatures","type":"bytes[]","internalType":"bytes[]"}],"outputs":[],"stateMutability":"nonpayable"},{"type":"error","name":"InvalidLength","inputs":[]}],"bytecode":{"object":"0x608034606f57601f6102f038819003918201601f19168301916001600160401b03831184841017607357808492602094604052833981010312606f57516001600160a01b03811690819003606f575f80546001600160a01b03191691909117905560405161026890816100888239f35b5f80fd5b634e487b7160e01b5f52604160045260245ffdfe60806040526004361015610011575f80fd5b5f3560e01c8063082cfde61461005a576312e028fd1461002f575f80fd5b34610056575f366003190112610056575f546040516001600160a01b039091168152602090f35b5f80fd5b346100565760403660031901126100565760043567ffffffffffffffff81116100565761008b90369060040161018b565b60243567ffffffffffffffff8111610056576100ab90369060040161018b565b80830361017c575f5b8381106100bd57005b5f546001600160a01b0316906100d48186886101bc565b6100df8386886101bc565b949092813b15610056575f6101189361012a8296604051998a9788968795631da044c960e31b8752604060048801526044870191610212565b84810360031901602486015291610212565b03925af1801561017157610143575b60019150016100b4565b67ffffffffffffffff821161015d57600191604052610139565b634e487b7160e01b5f52604160045260245ffd5b6040513d5f823e3d90fd5b63251f56a160e21b5f5260045ffd5b9181601f840112156100565782359167ffffffffffffffff8311610056576020808501948460051b01011161005657565b91908110156101fe5760051b81013590601e198136030182121561005657019081359167ffffffffffffffff8311610056576020018236038113610056579190565b634e487b7160e01b5f52603260045260245ffd5b908060209392818452848401375f828201840152601f01601f191601019056fea26469706673582212203b01945a2a2ac71d467c87bb6b3d544e1f8201c56eadbe34494055ae9bd0297664736f6c634300081a0033","linkReferences":{}},"methodIdentifiers":{"getHandler()":"12e028fd","handleSignedDataMulti(bytes[],bytes[])":"082cfde6"},"id":1}