{"abi":[{"type":"constructor","inputs":[{"name":"_delegation","type":"address","internalType":"contract IDelegationManager"}],"stateMutability":"nonpayable"},{"type":"function","name":"DOMAIN_TYPEHASH","inputs":[],"outputs":[{"name":"","type":"bytes32","internalType":"bytes32"}],"stateMutability":"view"},{"type":"function","name":"OPERATOR_AVS_REGISTRATION_TYPEHASH","inputs":[],"outputs":[{"name":"","type":"bytes32","internalType":"bytes32"}],"stateMutability":"view"},{"type":"function","name":"avsOperatorStatus","inputs":[{"name":"","type":"address","internalType":"address"},{"name":"","type":"address","internalType":"address"}],"outputs":[{"name":"","type":"uint8","internalType":"enum IAVSDirectory.OperatorAVSRegistrationStatus"}],"stateMutability":"view"},{"type":"function","name":"calculateOperatorAVSRegistrationDigestHash","inputs":[{"name":"operator","type":"address","internalType":"address"},{"name":"avs","type":"address","internalType":"address"},{"name":"salt","type":"bytes32","internalType":"bytes32"},{"name":"expiry","type":"uint256","internalType":"uint256"}],"outputs":[{"name":"","type":"bytes32","internalType":"bytes32"}],"stateMutability":"view"},{"type":"function","name":"cancelSalt","inputs":[{"name":"salt","type":"bytes32","internalType":"bytes32"}],"outputs":[],"stateMutability":"nonpayable"},{"type":"function","name":"delegation","inputs":[],"outputs":[{"name":"","type":"address","internalType":"contract IDelegationManager"}],"stateMutability":"view"},{"type":"function","name":"deregisterOperatorFromAVS","inputs":[{"name":"operator","type":"address","internalType":"address"}],"outputs":[],"stateMutability":"nonpayable"},{"type":"function","name":"domainSeparator","inputs":[],"outputs":[{"name":"","type":"bytes32","internalType":"bytes32"}],"stateMutability":"view"},{"type":"function","name":"initialize","inputs":[{"name":"initialOwner","type":"address","internalType":"address"},{"name":"_pauserRegistry","type":"address","internalType":"contract IPauserRegistry"},{"name":"initialPausedStatus","type":"uint256","internalType":"uint256"}],"outputs":[],"stateMutability":"nonpayable"},{"type":"function","name":"operatorSaltIsSpent","inputs":[{"name":"","type":"address","internalType":"address"},{"name":"","type":"bytes32","internalType":"bytes32"}],"outputs":[{"name":"","type":"bool","internalType":"bool"}],"stateMutability":"view"},{"type":"function","name":"owner","inputs":[],"outputs":[{"name":"","type":"address","internalType":"address"}],"stateMutability":"view"},{"type":"function","name":"pause","inputs":[{"name":"newPausedStatus","type":"uint256","internalType":"uint256"}],"outputs":[],"stateMutability":"nonpayable"},{"type":"function","name":"pauseAll","inputs":[],"outputs":[],"stateMutability":"nonpayable"},{"type":"function","name":"paused","inputs":[{"name":"index","type":"uint8","internalType":"uint8"}],"outputs":[{"name":"","type":"bool","internalType":"bool"}],"stateMutability":"view"},{"type":"function","name":"paused","inputs":[],"outputs":[{"name":"","type":"uint256","internalType":"uint256"}],"stateMutability":"view"},{"type":"function","name":"pauserRegistry","inputs":[],"outputs":[{"name":"","type":"address","internalType":"contract IPauserRegistry"}],"stateMutability":"view"},{"type":"function","name":"registerOperatorToAVS","inputs":[{"name":"operator","type":"address","internalType":"address"},{"name":"operatorSignature","type":"tuple","internalType":"struct ISignatureUtils.SignatureWithSaltAndExpiry","components":[{"name":"signature","type":"bytes","internalType":"bytes"},{"name":"salt","type":"bytes32","internalType":"bytes32"},{"name":"expiry","type":"uint256","internalType":"uint256"}]}],"outputs":[],"stateMutability":"nonpayable"},{"type":"function","name":"renounceOwnership","inputs":[],"outputs":[],"stateMutability":"nonpayable"},{"type":"function","name":"setPauserRegistry","inputs":[{"name":"newPauserRegistry","type":"address","internalType":"contract IPauserRegistry"}],"outputs":[],"stateMutability":"nonpayable"},{"type":"function","name":"transferOwnership","inputs":[{"name":"newOwner","type":"address","internalType":"address"}],"outputs":[],"stateMutability":"nonpayable"},{"type":"function","name":"unpause","inputs":[{"name":"newPausedStatus","type":"uint256","internalType":"uint256"}],"outputs":[],"stateMutability":"nonpayable"},{"type":"function","name":"updateAVSMetadataURI","inputs":[{"name":"metadataURI","type":"string","internalType":"string"}],"outputs":[],"stateMutability":"nonpayable"},{"type":"event","name":"AVSMetadataURIUpdated","inputs":[{"name":"avs","type":"address","indexed":true,"internalType":"address"},{"name":"metadataURI","type":"string","indexed":false,"internalType":"string"}],"anonymous":false},{"type":"event","name":"Initialized","inputs":[{"name":"version","type":"uint8","indexed":false,"internalType":"uint8"}],"anonymous":false},{"type":"event","name":"OperatorAVSRegistrationStatusUpdated","inputs":[{"name":"operator","type":"address","indexed":true,"internalType":"address"},{"name":"avs","type":"address","indexed":true,"internalType":"address"},{"name":"status","type":"uint8","indexed":false,"internalType":"enum IAVSDirectory.OperatorAVSRegistrationStatus"}],"anonymous":false},{"type":"event","name":"OwnershipTransferred","inputs":[{"name":"previousOwner","type":"address","indexed":true,"internalType":"address"},{"name":"newOwner","type":"address","indexed":true,"internalType":"address"}],"anonymous":false},{"type":"event","name":"Paused","inputs":[{"name":"account","type":"address","indexed":true,"internalType":"address"},{"name":"newPausedStatus","type":"uint256","indexed":false,"internalType":"uint256"}],"anonymous":false},{"type":"event","name":"PauserRegistrySet","inputs":[{"name":"pauserRegistry","type":"address","indexed":false,"internalType":"contract IPauserRegistry"},{"name":"newPauserRegistry","type":"address","indexed":false,"internalType":"contract IPauserRegistry"}],"anonymous":false},{"type":"event","name":"Unpaused","inputs":[{"name":"account","type":"address","indexed":true,"internalType":"address"},{"name":"newPausedStatus","type":"uint256","indexed":false,"internalType":"uint256"}],"anonymous":false}],"bytecode":{"object":"0x60c03461012557601f611aa138819003918201601f19168301916001600160401b038311848410176101295780849260209460405283398101031261012557516001600160a01b0381168103610125576080525f5460ff8160081c166100d05760ff80821610610096575b4660a052604051611963908161013e82396080518181816103cc01526107b0015260a0518161146c0152f35b60ff90811916175f557f7f26b83ff96e1f2b6a682f133852f6798a09c465da95921460cefb3847402498602060405160ff8152a15f61006a565b60405162461bcd60e51b815260206004820152602760248201527f496e697469616c697a61626c653a20636f6e747261637420697320696e697469604482015266616c697a696e6760c81b6064820152608490fd5b5f80fd5b634e487b7160e01b5f52604160045260245ffdfe6080806040526004361015610012575f80fd5b5f3560e01c90816310d67a2f146111b957508063136439dd146110a05780631794bb3c14610e8b57806320606b7014610e51578063374823b514610e0857806349075da314610daa578063595c6a6714610d045780635ac86ab714610cd15780635c975abb14610cb4578063715018a614610c59578063886f119514610c315780638da5cb5b14610c095780639926ee7d14610642578063a1060c881461060e578063a364f4da146104d9578063a98fb35514610435578063d79aceab146103fb578063df5cf723146103b7578063ec76f44214610301578063f2fde38b14610272578063f698da25146102505763fabc1cbc1461010e575f80fd5b3461024c57602036600319011261024c5760655460405163755b36bd60e11b81526004803592602091839182906001600160a01b03165afa801561024157610168915f91610212575b506001600160a01b031633146112ab565b6066541981198116036101a757806066556040519081527f3582d1828e26bf56bd801502bc021ac0bc8afb57c826e4986b45593c8fad389c60203392a2005b60405162461bcd60e51b815260206004820152603860248201527f5061757361626c652e756e70617573653a20696e76616c696420617474656d7060448201527f7420746f2070617573652066756e6374696f6e616c69747900000000000000006064820152608490fd5b610234915060203d60201161023a575b61022c818361126a565b81019061128c565b5f610157565b503d610222565b6040513d5f823e3d90fd5b5f80fd5b3461024c575f36600319011261024c57602061026a611469565b604051908152f35b3461024c57602036600319011261024c5761028b61123e565b610293611635565b6001600160a01b038116156102ad576102ab906115ed565b005b60405162461bcd60e51b815260206004820152602660248201527f4f776e61626c653a206e6577206f776e657220697320746865207a65726f206160448201526564647265737360d01b6064820152608490fd5b3461024c57602036600319011261024c57600435335f52609960205260405f20815f5260205260ff60405f20541661035857335f52609960205260405f20905f5260205260405f20600160ff198254161790555f80f35b60405162461bcd60e51b815260206004820152603160248201527f4156534469726563746f72792e63616e63656c53616c743a2063616e6e6f742060448201527018d85b98d95b081cdc195b9d081cd85b1d607a1b6064820152608490fd5b3461024c575f36600319011261024c576040517f00000000000000000000000000000000000000000000000000000000000000006001600160a01b03168152602090f35b3461024c575f36600319011261024c5760206040517fda2c89bafdd34776a2b8bb9c83c82f419e20cc8c67207f70edd58249b92661bd8152f35b3461024c57602036600319011261024c5760043567ffffffffffffffff811161024c573660238201121561024c5780600401359067ffffffffffffffff821161024c57366024838301011161024c577fa89c1dc243d8908a96dd84944bcc97d6bc6ac00dd78e20621576be6a3c9437139082602460405192602084528260208501520160408301375f604084830101526040813394601f80199101168101030190a2005b3461024c57602036600319011261024c576104f261123e565b61050360018060665416141561137f565b335f52609860205260405f2060018060a01b0382165f5260205260ff60405f20541660028110156105fa5760010361058f57335f8181526098602090815260408083206001600160a01b0395909516808452948252808320805460ff19169055519182529192917ff0952b1c65271d819d39983d2abb044b9cace59bcc4d4dd389f586ebdcb15b4191a3005b60405162461bcd60e51b815260206004820152603f60248201527f4156534469726563746f72792e646572656769737465724f70657261746f724660448201527f726f6d4156533a206f70657261746f72206e6f742072656769737465726564006064820152608490fd5b634e487b7160e01b5f52602160045260245ffd5b3461024c57608036600319011261024c57602061026a61062c61123e565b610634611254565b9060643591604435916113cb565b3461024c57604036600319011261024c5761065b61123e565b6024359067ffffffffffffffff821161024c576060600319833603011261024c57604051906060820182811067ffffffffffffffff821117610bf557604052826004013567ffffffffffffffff811161024c5783013660238201121561024c57600481013567ffffffffffffffff8111610bf557604051916106e7601f8301601f19166020018461126a565b818352366024828401011161024c57815f9260246020930183860137830101528252602082019160248401358352604460408201940135845261073160018060665416141561137f565b83514211610b9d57335f52609860205260405f2060018060a01b0383165f5260205260ff60405f20541660028110156105fa57600114610b455760018060a01b03821693845f52609960205260405f2084515f5260205260ff60405f205416610af4576040516336b87bd760e11b8152600481018690526020816024817f00000000000000000000000000000000000000000000000000000000000000006001600160a01b03165afa908115610241575f91610ac5575b5015610a57576107ff8591855190519033866113cb565b9151923b156109b85750602091606483926040519485938492630b135d3f60e11b84526004840152604060248401528051918291826044860152018484015e5f828201840152601f01601f19168101030181865afa908115610241575f91610975575b506001600160e01b0319166374eca2c160e11b016108ee575b335f52609860205260405f20825f5260205260405f20600160ff19825416179055815f52609960205260405f2090515f5260205260405f20600160ff1982541617905560405190600182527ff0952b1c65271d819d39983d2abb044b9cace59bcc4d4dd389f586ebdcb15b4160203393a3005b60405162461bcd60e51b815260206004820152605360248201527f454950313237315369676e61747572655574696c732e636865636b5369676e6160448201527f747572655f454950313237313a2045524331323731207369676e6174757265206064820152721d995c9a599a58d85d1a5bdb8819985a5b1959606a1b608482015260a490fd5b90506020813d6020116109b0575b816109906020938361126a565b8101031261024c57516001600160e01b03198116810361024c5783610862565b3d9150610983565b916109c6906109ce9261168d565b91909161170f565b6001600160a01b03161461087b5760405162461bcd60e51b815260206004820152604760248201527f454950313237315369676e61747572655574696c732e636865636b5369676e6160448201527f747572655f454950313237313a207369676e6174757265206e6f742066726f6d6064820152661039b4b3b732b960c91b608482015260a490fd5b60405162461bcd60e51b815260206004820152604d60248201525f51602061190e5f395f51905f5260448201527f56533a206f70657261746f72206e6f74207265676973746572656420746f204560648201526c1a59d95b93185e595c881e595d609a1b608482015260a490fd5b610ae7915060203d602011610aed575b610adf818361126a565b81019061130a565b866107e8565b503d610ad5565b60405162461bcd60e51b815260206004820152603660248201525f51602061190e5f395f51905f526044820152751594ce881cd85b1d08185b1c9958591e481cdc195b9d60521b6064820152608490fd5b60405162461bcd60e51b815260206004820152603f60248201525f51602061190e5f395f51905f5260448201527f56533a206f70657261746f7220616c72656164792072656769737465726564006064820152608490fd5b60405162461bcd60e51b815260206004820152603e60248201525f51602061190e5f395f51905f5260448201527f56533a206f70657261746f72207369676e6174757265206578706972656400006064820152608490fd5b634e487b7160e01b5f52604160045260245ffd5b3461024c575f36600319011261024c576033546040516001600160a01b039091168152602090f35b3461024c575f36600319011261024c576065546040516001600160a01b039091168152602090f35b3461024c575f36600319011261024c57610c71611635565b603380546001600160a01b031981169091555f906001600160a01b03167f8be0079c531659141344cd1fd0a4f28419497f9722a3daafe3b4186f6b6457e08280a3005b3461024c575f36600319011261024c576020606654604051908152f35b3461024c57602036600319011261024c5760043560ff811680910361024c5760016020911b806066541614604051908152f35b3461024c575f36600319011261024c5760655460405163237dfb4760e11b815233600482015290602090829060249082906001600160a01b03165afa801561024157610d57915f91610d8b575b50611322565b5f196066556040515f1981527fab40a374bc51de372200a8bc981af8c9ecdc08dfdaef0bb6e09f88f3c616ef3d60203392a2005b610da4915060203d602011610aed57610adf818361126a565b82610d51565b3461024c57604036600319011261024c57610dc361123e565b610dcb611254565b9060018060a01b03165f52609860205260405f209060018060a01b03165f5260205260ff60405f20541660405160028210156105fa576020918152f35b3461024c57604036600319011261024c576001600160a01b03610e2961123e565b165f52609960205260405f206024355f52602052602060ff60405f2054166040519015158152f35b3461024c575f36600319011261024c5760206040517f8cad95687ba82c2ce50e74f7b754645e5117c3a5bec8151c0726d5857980a8668152f35b3461024c57606036600319011261024c57610ea461123e565b610eac611254565b604435915f549260ff8460081c161593848095611093575b801561107c575b156110205760ff1981166001175f558461100f575b506065546001600160a01b03161580610ffd575b15610f8257610f469281610f36926066556040519081527fab40a374bc51de372200a8bc981af8c9ecdc08dfdaef0bb6e09f88f3c616ef3d60203392a26114a1565b610f3e61157b565b6097556115ed565b610f4c57005b61ff00195f54165f557f7f26b83ff96e1f2b6a682f133852f6798a09c465da95921460cefb3847402498602060405160018152a1005b60405162461bcd60e51b815260206004820152604760248201527f5061757361626c652e5f696e697469616c697a655061757365723a205f696e6960448201527f7469616c697a6550617573657228292063616e206f6e6c792062652063616c6c6064820152666564206f6e636560c81b608482015260a490fd5b506001600160a01b0383161515610ef4565b61ffff1916610101175f5584610ee0565b60405162461bcd60e51b815260206004820152602e60248201527f496e697469616c697a61626c653a20636f6e747261637420697320616c72656160448201526d191e481a5b9a5d1a585b1a5e995960921b6064820152608490fd5b50303b158015610ecb5750600160ff821614610ecb565b50600160ff821610610ec4565b3461024c57602036600319011261024c576004356024602060018060a01b03606554166040519283809263237dfb4760e11b82523360048301525afa8015610241576110f2915f9161119a5750611322565b6066548181160361112f57806066556040519081527fab40a374bc51de372200a8bc981af8c9ecdc08dfdaef0bb6e09f88f3c616ef3d60203392a2005b60405162461bcd60e51b815260206004820152603860248201527f5061757361626c652e70617573653a20696e76616c696420617474656d70742060448201527f746f20756e70617573652066756e6374696f6e616c69747900000000000000006064820152608490fd5b6111b3915060203d602011610aed57610adf818361126a565b83610d51565b3461024c57602036600319011261024c576111d261123e565b60655463755b36bd60e11b8352602090839060049082906001600160a01b03165afa918215610241576102ab9261121a915f9161121f57506001600160a01b031633146112ab565b6114a1565b611238915060203d60201161023a5761022c818361126a565b84610157565b600435906001600160a01b038216820361024c57565b602435906001600160a01b038216820361024c57565b90601f8019910116810190811067ffffffffffffffff821117610bf557604052565b9081602091031261024c57516001600160a01b038116810361024c5790565b156112b257565b60405162461bcd60e51b815260206004820152602a60248201527f6d73672e73656e646572206973206e6f74207065726d697373696f6e6564206160448201526939903ab73830bab9b2b960b11b6064820152608490fd5b9081602091031261024c5751801515810361024c5790565b1561132957565b60405162461bcd60e51b815260206004820152602860248201527f6d73672e73656e646572206973206e6f74207065726d697373696f6e6564206160448201526739903830bab9b2b960c11b6064820152608490fd5b1561138657565b60405162461bcd60e51b815260206004820152601960248201527f5061757361626c653a20696e64657820697320706175736564000000000000006044820152606490fd5b9290916040519260208401947fda2c89bafdd34776a2b8bb9c83c82f419e20cc8c67207f70edd58249b92661bd865260018060a01b0316604085015260018060a01b03166060840152608083015260a082015260a0815261142d60c08261126a565b519020611438611469565b9060405190602082019261190160f01b8452602283015260428201526042815261146360628261126a565b51902090565b467f0000000000000000000000000000000000000000000000000000000000000000036114965760975490565b61149e61157b565b90565b6001600160a01b031680156114fe57606554604080516001600160a01b0383168152602081018490527f6e9fcd539896fca60e8b0f01dd580233e48a6b0f7df013b89ba7f565869acdb69190a16001600160a01b03191617606555565b60405162461bcd60e51b815260206004820152604960248201527f5061757361626c652e5f73657450617573657252656769737472793a206e657760448201527f50617573657252656769737472792063616e6e6f7420626520746865207a65726064820152686f206164647265737360b81b608482015260a490fd5b600a602060405161158d60408261126a565b828152016922b4b3b2b72630bcb2b960b11b81522060405160208101917f8cad95687ba82c2ce50e74f7b754645e5117c3a5bec8151c0726d5857980a866835260408201524660608201523060808201526080815261146360a08261126a565b603380546001600160a01b039283166001600160a01b0319821681179092559091167f8be0079c531659141344cd1fd0a4f28419497f9722a3daafe3b4186f6b6457e05f80a3565b6033546001600160a01b0316330361164957565b606460405162461bcd60e51b815260206004820152602060248201527f4f776e61626c653a2063616c6c6572206973206e6f7420746865206f776e65726044820152fd5b8151604181036116b95750906116b591602082015190606060408401519301515f1a9061186b565b9091565b6040036117065760406020830151920151918260ff1c91601b83018093116116f2576116b5936001600160ff1b03169260ff169061186b565b634e487b7160e01b5f52601160045260245ffd5b50505f90600290565b60058110156105fa57806117205750565b6001810361176d5760405162461bcd60e51b815260206004820152601860248201527f45434453413a20696e76616c6964207369676e617475726500000000000000006044820152606490fd5b600281036117ba5760405162461bcd60e51b815260206004820152601f60248201527f45434453413a20696e76616c6964207369676e6174757265206c656e677468006044820152606490fd5b600381036118125760405162461bcd60e51b815260206004820152602260248201527f45434453413a20696e76616c6964207369676e6174757265202773272076616c604482015261756560f01b6064820152608490fd5b60041461181b57565b60405162461bcd60e51b815260206004820152602260248201527f45434453413a20696e76616c6964207369676e6174757265202776272076616c604482015261756560f01b6064820152608490fd5b907f7fffffffffffffffffffffffffffffff5d576e7357a4501ddfe92f46681b20a084116119025760ff1690601b821415806118f7575b6118ec576020935f93608093604051938452868401526040830152606082015282805260015afa15610241575f516001600160a01b038116156118e457905f90565b505f90600190565b505050505f90600490565b50601c8214156118a2565b505050505f9060039056fe4156534469726563746f72792e72656769737465724f70657261746f72546f41a2646970667358221220b9d670fa44b9d036808c497baf4a7bb7ea4f7a5e0ba92dd2ee27923fede7d9b264736f6c634300081c0033","linkReferences":{}},"methodIdentifiers":{"DOMAIN_TYPEHASH()":"20606b70","OPERATOR_AVS_REGISTRATION_TYPEHASH()":"d79aceab","avsOperatorStatus(address,address)":"49075da3","calculateOperatorAVSRegistrationDigestHash(address,address,bytes32,uint256)":"a1060c88","cancelSalt(bytes32)":"ec76f442","delegation()":"df5cf723","deregisterOperatorFromAVS(address)":"a364f4da","domainSeparator()":"f698da25","initialize(address,address,uint256)":"1794bb3c","operatorSaltIsSpent(address,bytes32)":"374823b5","owner()":"8da5cb5b","pause(uint256)":"136439dd","pauseAll()":"595c6a67","paused()":"5c975abb","paused(uint8)":"5ac86ab7","pauserRegistry()":"886f1195","registerOperatorToAVS(address,(bytes,bytes32,uint256))":"9926ee7d","renounceOwnership()":"715018a6","setPauserRegistry(address)":"10d67a2f","transferOwnership(address)":"f2fde38b","unpause(uint256)":"fabc1cbc","updateAVSMetadataURI(string)":"a98fb355"},"id":10}