{"abi":[{"type":"constructor","inputs":[{"name":"_avsDirectory","type":"address","internalType":"address"},{"name":"_stakeRegistry","type":"address","internalType":"address"},{"name":"_rewardsCoordinator","type":"address","internalType":"address"},{"name":"_delegationManager","type":"address","internalType":"address"}],"stateMutability":"nonpayable"},{"type":"function","name":"avsDirectory","inputs":[],"outputs":[{"name":"","type":"address","internalType":"address"}],"stateMutability":"view"},{"type":"function","name":"createAVSRewardsSubmission","inputs":[{"name":"rewardsSubmissions","type":"tuple[]","internalType":"struct IRewardsCoordinator.RewardsSubmission[]","components":[{"name":"strategiesAndMultipliers","type":"tuple[]","internalType":"struct IRewardsCoordinator.StrategyAndMultiplier[]","components":[{"name":"strategy","type":"address","internalType":"contract IStrategy"},{"name":"multiplier","type":"uint96","internalType":"uint96"}]},{"name":"token","type":"address","internalType":"contract IERC20"},{"name":"amount","type":"uint256","internalType":"uint256"},{"name":"startTimestamp","type":"uint32","internalType":"uint32"},{"name":"duration","type":"uint32","internalType":"uint32"}]}],"outputs":[],"stateMutability":"nonpayable"},{"type":"function","name":"createOperatorDirectedAVSRewardsSubmission","inputs":[{"name":"operatorDirectedRewardsSubmissions","type":"tuple[]","internalType":"struct IRewardsCoordinator.OperatorDirectedRewardsSubmission[]","components":[{"name":"strategiesAndMultipliers","type":"tuple[]","internalType":"struct IRewardsCoordinator.StrategyAndMultiplier[]","components":[{"name":"strategy","type":"address","internalType":"contract IStrategy"},{"name":"multiplier","type":"uint96","internalType":"uint96"}]},{"name":"token","type":"address","internalType":"contract IERC20"},{"name":"operatorRewards","type":"tuple[]","internalType":"struct IRewardsCoordinator.OperatorReward[]","components":[{"name":"operator","type":"address","internalType":"address"},{"name":"amount","type":"uint256","internalType":"uint256"}]},{"name":"startTimestamp","type":"uint32","internalType":"uint32"},{"name":"duration","type":"uint32","internalType":"uint32"},{"name":"description","type":"string","internalType":"string"}]}],"outputs":[],"stateMutability":"nonpayable"},{"type":"function","name":"deregisterOperatorFromAVS","inputs":[{"name":"operator","type":"address","internalType":"address"}],"outputs":[],"stateMutability":"nonpayable"},{"type":"function","name":"getOperatorRestakedStrategies","inputs":[{"name":"_operator","type":"address","internalType":"address"}],"outputs":[{"name":"","type":"address[]","internalType":"address[]"}],"stateMutability":"view"},{"type":"function","name":"getRestakeableStrategies","inputs":[],"outputs":[{"name":"","type":"address[]","internalType":"address[]"}],"stateMutability":"view"},{"type":"function","name":"initialize","inputs":[{"name":"initialOwner","type":"address","internalType":"address"},{"name":"rewardsInitiator","type":"address","internalType":"address"}],"outputs":[],"stateMutability":"nonpayable"},{"type":"function","name":"owner","inputs":[],"outputs":[{"name":"","type":"address","internalType":"address"}],"stateMutability":"view"},{"type":"function","name":"registerOperatorToAVS","inputs":[{"name":"operator","type":"address","internalType":"address"},{"name":"operatorSignature","type":"tuple","internalType":"struct ISignatureUtils.SignatureWithSaltAndExpiry","components":[{"name":"signature","type":"bytes","internalType":"bytes"},{"name":"salt","type":"bytes32","internalType":"bytes32"},{"name":"expiry","type":"uint256","internalType":"uint256"}]}],"outputs":[],"stateMutability":"nonpayable"},{"type":"function","name":"renounceOwnership","inputs":[],"outputs":[],"stateMutability":"nonpayable"},{"type":"function","name":"rewardsInitiator","inputs":[],"outputs":[{"name":"","type":"address","internalType":"address"}],"stateMutability":"view"},{"type":"function","name":"setClaimerFor","inputs":[{"name":"claimer","type":"address","internalType":"address"}],"outputs":[],"stateMutability":"nonpayable"},{"type":"function","name":"setRewardsInitiator","inputs":[{"name":"newRewardsInitiator","type":"address","internalType":"address"}],"outputs":[],"stateMutability":"nonpayable"},{"type":"function","name":"stakeRegistry","inputs":[],"outputs":[{"name":"","type":"address","internalType":"address"}],"stateMutability":"view"},{"type":"function","name":"transferOwnership","inputs":[{"name":"newOwner","type":"address","internalType":"address"}],"outputs":[],"stateMutability":"nonpayable"},{"type":"function","name":"updateAVSMetadataURI","inputs":[{"name":"_metadataURI","type":"string","internalType":"string"}],"outputs":[],"stateMutability":"nonpayable"},{"type":"event","name":"Initialized","inputs":[{"name":"version","type":"uint8","indexed":false,"internalType":"uint8"}],"anonymous":false},{"type":"event","name":"OwnershipTransferred","inputs":[{"name":"previousOwner","type":"address","indexed":true,"internalType":"address"},{"name":"newOwner","type":"address","indexed":true,"internalType":"address"}],"anonymous":false},{"type":"event","name":"RewardsInitiatorUpdated","inputs":[{"name":"prevRewardsInitiator","type":"address","indexed":false,"internalType":"address"},{"name":"newRewardsInitiator","type":"address","indexed":false,"internalType":"address"}],"anonymous":false}],"bytecode":{"object":"0x6101006040523480156200001257600080fd5b50604051620021713803806200217183398101604081905262000035916200014f565b6001600160a01b0380851660a05280841660805280831660c052811660e052838383836200006262000070565b5050505050505050620001ac565b600054610100900460ff1615620000dd5760405162461bcd60e51b815260206004820152602760248201527f496e697469616c697a61626c653a20636f6e747261637420697320696e697469604482015266616c697a696e6760c81b606482015260840160405180910390fd5b60005460ff908116101562000130576000805460ff191660ff9081179091556040519081527f7f26b83ff96e1f2b6a682f133852f6798a09c465da95921460cefb38474024989060200160405180910390a15b565b80516001600160a01b03811681146200014a57600080fd5b919050565b600080600080608085870312156200016657600080fd5b620001718562000132565b9350620001816020860162000132565b9250620001916040860162000132565b9150620001a16060860162000132565b905092959194509250565b60805160a05160c05160e051611f30620002416000396000610692015260008181610a7a01528181610d2b01528181610de701528181610eab01528181611209015281816112c501526113b101526000818161019a015281816109ee01528181610f030152610f4901526000818161015b015281816103d30152818161044c015281816105400152610f840152611f306000f3fe608060405234801561001057600080fd5b50600436106101005760003560e01c8063a0169ddd11610097578063e481af9d11610066578063e481af9d14610234578063f2fde38b1461023c578063fc299dee1461024f578063fce36c7d1461026257600080fd5b8063a0169ddd146101e8578063a20b99bf146101fb578063a364f4da1461020e578063a98fb3551461022157600080fd5b80636b3aa72e116100d35780636b3aa72e14610195578063715018a6146101bc5780638da5cb5b146101c45780639926ee7d146101d557600080fd5b806333cfb7b7146101055780633bc28c8c1461012e578063485cc955146101435780636830483514610156575b600080fd5b6101186101133660046113fd565b610275565b6040516101259190611421565b60405180910390f35b61014161013c3660046113fd565b610286565b005b61014161015136600461146e565b61029a565b61017d7f000000000000000000000000000000000000000000000000000000000000000081565b6040516001600160a01b039091168152602001610125565b61017d7f000000000000000000000000000000000000000000000000000000000000000081565b6101416103b4565b6033546001600160a01b031661017d565b6101416101e33660046115b0565b6103c8565b6101416101f63660046113fd565b61041e565b6101416102093660046116a5565b61042f565b61014161021c3660046113fd565b610441565b61014161022f3660046116e6565b610492565b6101186104a3565b61014161024a3660046113fd565b6104b2565b60655461017d906001600160a01b031681565b6101416102703660046116a5565b610528565b60606102808261053a565b92915050565b61028e610845565b6102978161089f565b50565b600054610100900460ff16158080156102ba5750600054600160ff909116105b806102d45750303b1580156102d4575060005460ff166001145b61033c5760405162461bcd60e51b815260206004820152602e60248201527f496e697469616c697a61626c653a20636f6e747261637420697320616c72656160448201526d191e481a5b9a5d1a585b1a5e995960921b60648201526084015b60405180910390fd5b6000805460ff19166001179055801561035f576000805461ff0019166101001790555b6103698383610908565b80156103af576000805461ff0019169055604051600181527f7f26b83ff96e1f2b6a682f133852f6798a09c465da95921460cefb38474024989060200160405180910390a15b505050565b6103bc610845565b6103c66000610985565b565b336001600160a01b037f000000000000000000000000000000000000000000000000000000000000000016146104105760405162461bcd60e51b815260040161033390611736565b61041a82826109d7565b5050565b610426610845565b61029781610a5b565b610437610ada565b61041a8282610b74565b336001600160a01b037f000000000000000000000000000000000000000000000000000000000000000016146104895760405162461bcd60e51b815260040161033390611736565b61029781610ee4565b61049a610845565b61029781610f32565b60606104ad610f7e565b905090565b6104ba610845565b6001600160a01b03811661051f5760405162461bcd60e51b815260206004820152602660248201527f4f776e61626c653a206e6577206f776e657220697320746865207a65726f206160448201526564647265737360d01b6064820152608401610333565b61029781610985565b610530610ada565b61041a82826110c5565b606060007f00000000000000000000000000000000000000000000000000000000000000006001600160a01b0316631703a0186040518163ffffffff1660e01b8152600401600060405180830381865afa15801561059c573d6000803e3d6000fd5b505050506040513d6000823e601f3d908101601f191682016040526105c491908101906117e3565b8051519091506000816001600160401b038111156105e4576105e46114a7565b60405190808252806020026020018201604052801561060d578160200160208202803683370190505b50905060005b8281101561067757835180518290811061062f5761062f6118e4565b60200260200101516000015182828151811061064d5761064d6118e4565b6001600160a01b03909216602092830291909101909101528061066f81611910565b915050610613565b50604051639004134760e01b81526000906001600160a01b037f000000000000000000000000000000000000000000000000000000000000000016906390041347906106c9908990869060040161192b565b600060405180830381865afa1580156106e6573d6000803e3d6000fd5b505050506040513d6000823e601f3d908101601f1916820160405261070e9190810190611979565b90506000805b8481101561075e576000838281518110610730576107306118e4565b6020026020010151111561074c578161074881611910565b9250505b8061075681611910565b915050610714565b506000816001600160401b03811115610779576107796114a7565b6040519080825280602002602001820160405280156107a2578160200160208202803683370190505b5090506000805b868110156108375760008582815181106107c5576107c56118e4565b60200260200101511115610825578581815181106107e5576107e56118e4565b60200260200101518383815181106107ff576107ff6118e4565b6001600160a01b03909216602092830291909101909101528161082181611910565b9250505b8061082f81611910565b9150506107a9565b509098975050505050505050565b6033546001600160a01b031633146103c65760405162461bcd60e51b815260206004820181905260248201527f4f776e61626c653a2063616c6c6572206973206e6f7420746865206f776e65726044820152606401610333565b606554604080516001600160a01b03928316815291831660208301527fe11cddf1816a43318ca175bbc52cd0185436e9cbead7c83acc54a73e461717e3910160405180910390a1606580546001600160a01b0319166001600160a01b0392909216919091179055565b600054610100900460ff166109735760405162461bcd60e51b815260206004820152602b60248201527f496e697469616c697a61626c653a20636f6e7472616374206973206e6f74206960448201526a6e697469616c697a696e6760a81b6064820152608401610333565b61097c82610985565b61041a8161089f565b603380546001600160a01b038381166001600160a01b0319831681179093556040519116919082907f8be0079c531659141344cd1fd0a4f28419497f9722a3daafe3b4186f6b6457e090600090a35050565b604051639926ee7d60e01b81526001600160a01b037f00000000000000000000000000000000000000000000000000000000000000001690639926ee7d90610a259085908590600401611a56565b600060405180830381600087803b158015610a3f57600080fd5b505af1158015610a53573d6000803e3d6000fd5b505050505050565b60405163a0169ddd60e01b81526001600160a01b0382811660048301527f0000000000000000000000000000000000000000000000000000000000000000169063a0169ddd906024015b600060405180830381600087803b158015610abf57600080fd5b505af1158015610ad3573d6000803e3d6000fd5b5050505050565b6065546001600160a01b031633146103c65760405162461bcd60e51b815260206004820152605160248201527f4543445341536572766963654d616e61676572426173652e6f6e6c795265776160448201527f726473496e69746961746f723a2063616c6c6572206973206e6f7420746865206064820152703932bbb0b932399034b734ba34b0ba37b960791b608482015260a401610333565b60005b81811015610e93576000805b848484818110610b9557610b956118e4565b9050602002810190610ba79190611aa1565b610bb5906040810190611ac1565b9050811015610c2757848484818110610bd057610bd06118e4565b9050602002810190610be29190611aa1565b610bf0906040810190611ac1565b82818110610c0057610c006118e4565b9050604002016020013582610c159190611b0a565b9150610c2081611910565b9050610b83565b50838383818110610c3a57610c3a6118e4565b9050602002810190610c4c9190611aa1565b610c5d9060408101906020016113fd565b6040516323b872dd60e01b8152336004820152306024820152604481018390526001600160a01b0391909116906323b872dd906064016020604051808303816000875af1158015610cb2573d6000803e3d6000fd5b505050506040513d601f19601f82011682018060405250810190610cd69190611b22565b506000848484818110610ceb57610ceb6118e4565b9050602002810190610cfd9190611aa1565b610d0e9060408101906020016113fd565b604051636eb1769f60e11b81523060048201526001600160a01b037f000000000000000000000000000000000000000000000000000000000000000081166024830152919091169063dd62ed3e90604401602060405180830381865afa158015610d7c573d6000803e3d6000fd5b505050506040513d601f19601f82011682018060405250810190610da09190611b44565b9050848484818110610db457610db46118e4565b9050602002810190610dc69190611aa1565b610dd79060408101906020016113fd565b6001600160a01b031663095ea7b37f0000000000000000000000000000000000000000000000000000000000000000610e108486611b0a565b6040516001600160e01b031960e085901b1681526001600160a01b03909216600483015260248201526044016020604051808303816000875af1158015610e5b573d6000803e3d6000fd5b505050506040513d601f19601f82011682018060405250810190610e7f9190611b22565b50505080610e8c90611910565b9050610b77565b50604051634e5cd2fd60e11b81526001600160a01b037f00000000000000000000000000000000000000000000000000000000000000001690639cb9a5fa90610a2590309086908690600401611c97565b6040516351b27a6d60e11b81526001600160a01b0382811660048301527f0000000000000000000000000000000000000000000000000000000000000000169063a364f4da90602401610aa5565b60405163a98fb35560e01b81526001600160a01b037f0000000000000000000000000000000000000000000000000000000000000000169063a98fb35590610aa5908490600401611df3565b606060007f00000000000000000000000000000000000000000000000000000000000000006001600160a01b0316631703a0186040518163ffffffff1660e01b8152600401600060405180830381865afa158015610fe0573d6000803e3d6000fd5b505050506040513d6000823e601f3d908101601f1916820160405261100891908101906117e3565b905060008160000151516001600160401b03811115611029576110296114a7565b604051908082528060200260200182016040528015611052578160200160208202803683370190505b50905060005b8251518110156110be578251805182908110611076576110766118e4565b602002602001015160000151828281518110611094576110946118e4565b6001600160a01b0390921660209283029190910190910152806110b681611910565b915050611058565b5092915050565b60005b81811015611399578282828181106110e2576110e26118e4565b90506020028101906110f49190611e06565b6111059060408101906020016113fd565b6001600160a01b03166323b872dd3330868686818110611127576111276118e4565b90506020028101906111399190611e06565b604080516001600160e01b031960e087901b1681526001600160a01b039485166004820152939092166024840152013560448201526064016020604051808303816000875af1158015611190573d6000803e3d6000fd5b505050506040513d601f19601f820116820180604052508101906111b49190611b22565b5060008383838181106111c9576111c96118e4565b90506020028101906111db9190611e06565b6111ec9060408101906020016113fd565b604051636eb1769f60e11b81523060048201526001600160a01b037f000000000000000000000000000000000000000000000000000000000000000081166024830152919091169063dd62ed3e90604401602060405180830381865afa15801561125a573d6000803e3d6000fd5b505050506040513d601f19601f8201168201806040525081019061127e9190611b44565b9050838383818110611292576112926118e4565b90506020028101906112a49190611e06565b6112b59060408101906020016113fd565b6001600160a01b031663095ea7b37f0000000000000000000000000000000000000000000000000000000000000000838787878181106112f7576112f76118e4565b90506020028101906113099190611e06565b604001356113179190611b0a565b6040516001600160e01b031960e085901b1681526001600160a01b03909216600483015260248201526044016020604051808303816000875af1158015611362573d6000803e3d6000fd5b505050506040513d601f19601f820116820180604052508101906113869190611b22565b50508061139290611910565b90506110c8565b5060405163fce36c7d60e01b81526001600160a01b037f0000000000000000000000000000000000000000000000000000000000000000169063fce36c7d90610a259085908590600401611e1c565b6001600160a01b038116811461029757600080fd5b60006020828403121561140f57600080fd5b813561141a816113e8565b9392505050565b6020808252825182820181905260009190848201906040850190845b818110156114625783516001600160a01b03168352928401929184019160010161143d565b50909695505050505050565b6000806040838503121561148157600080fd5b823561148c816113e8565b9150602083013561149c816113e8565b809150509250929050565b634e487b7160e01b600052604160045260246000fd5b604051606081016001600160401b03811182821017156114df576114df6114a7565b60405290565b604051602081016001600160401b03811182821017156114df576114df6114a7565b604080519081016001600160401b03811182821017156114df576114df6114a7565b604051601f8201601f191681016001600160401b0381118282101715611551576115516114a7565b604052919050565b60006001600160401b03831115611572576115726114a7565b611585601f8401601f1916602001611529565b905082815283838301111561159957600080fd5b828260208301376000602084830101529392505050565b600080604083850312156115c357600080fd5b82356115ce816113e8565b915060208301356001600160401b03808211156115ea57600080fd5b90840190606082870312156115fe57600080fd5b6116066114bd565b82358281111561161557600080fd5b83019150601f8201871361162857600080fd5b61163787833560208501611559565b815260208301356020820152604083013560408201528093505050509250929050565b60008083601f84011261166c57600080fd5b5081356001600160401b0381111561168357600080fd5b6020830191508360208260051b850101111561169e57600080fd5b9250929050565b600080602083850312156116b857600080fd5b82356001600160401b038111156116ce57600080fd5b6116da8582860161165a565b90969095509350505050565b6000602082840312156116f857600080fd5b81356001600160401b0381111561170e57600080fd5b8201601f8101841361171f57600080fd5b61172e84823560208401611559565b949350505050565b6020808252604a908201527f4543445341536572766963654d616e61676572426173652e6f6e6c795374616b60408201527f6552656769737472793a2063616c6c6572206973206e6f7420746865207374616060820152696b65526567697374727960b01b608082015260a00190565b60006001600160401b038211156117bf576117bf6114a7565b5060051b60200190565b6bffffffffffffffffffffffff8116811461029757600080fd5b600060208083850312156117f657600080fd5b82516001600160401b038082111561180d57600080fd5b818501915082828703121561182157600080fd5b6118296114e5565b82518281111561183857600080fd5b80840193505086601f84011261184d57600080fd5b8251915061186261185d836117a6565b611529565b82815260069290921b8301840191848101908884111561188157600080fd5b938501935b838510156118d7576040858a03121561189f5760008081fd5b6118a7611507565b85516118b2816113e8565b8152858701516118c1816117c9565b8188015282526040949094019390850190611886565b8252509695505050505050565b634e487b7160e01b600052603260045260246000fd5b634e487b7160e01b600052601160045260246000fd5b6000600019821415611924576119246118fa565b5060010190565b6001600160a01b038381168252604060208084018290528451918401829052600092858201929091906060860190855b8181101561083757855185168352948301949183019160010161195b565b6000602080838503121561198c57600080fd5b82516001600160401b038111156119a257600080fd5b8301601f810185136119b357600080fd5b80516119c161185d826117a6565b81815260059190911b820183019083810190878311156119e057600080fd5b928401925b828410156119fe578351825292840192908401906119e5565b979650505050505050565b6000815180845260005b81811015611a2f57602081850181015186830182015201611a13565b81811115611a41576000602083870101525b50601f01601f19169290920160200192915050565b60018060a01b0383168152604060208201526000825160606040840152611a8060a0840182611a09565b90506020840151606084015260408401516080840152809150509392505050565b6000823560be19833603018112611ab757600080fd5b9190910192915050565b6000808335601e19843603018112611ad857600080fd5b8301803591506001600160401b03821115611af257600080fd5b6020019150600681901b360382131561169e57600080fd5b60008219821115611b1d57611b1d6118fa565b500190565b600060208284031215611b3457600080fd5b8151801515811461141a57600080fd5b600060208284031215611b5657600080fd5b5051919050565b6000808335601e19843603018112611b7457600080fd5b83016020810192503590506001600160401b03811115611b9357600080fd5b8060061b360383131561169e57600080fd5b8183526000602080850194508260005b85811015611c05578135611bc8816113e8565b6001600160a01b0316875281830135611be0816117c9565b6bffffffffffffffffffffffff16878401526040968701969190910190600101611bb5565b509495945050505050565b803563ffffffff81168114611c2457600080fd5b919050565b6000808335601e19843603018112611c4057600080fd5b83016020810192503590506001600160401b03811115611c5f57600080fd5b80360383131561169e57600080fd5b81835281816020850137506000828201602090810191909152601f909101601f19169091010190565b6001600160a01b03848116825260406020808401829052838201859052600092606091828601600588901b8701840189875b8a811015611de257898303605f190184528135368d900360be19018112611cef57600080fd5b8c0160c0611cfd8280611b5d565b828752611d0d8388018284611ba5565b9250505086820135611d1e816113e8565b881685880152611d30828b0183611b5d565b8683038c88015280835290916000919089015b81831015611d74578335611d56816113e8565b8b168152838a01358a820152928c0192600192909201918c01611d43565b611d7f8c8601611c10565b63ffffffff168c89015260809350611d98858501611c10565b63ffffffff811689860152925060a09350611db584860186611c29565b9550925087810384890152611dcb818685611c6e565b988a01989750505093870193505050600101611cc9565b50909b9a5050505050505050505050565b60208152600061141a6020830184611a09565b60008235609e19833603018112611ab757600080fd5b60208082528181018390526000906040808401600586901b850182018785805b89811015611eeb57888403603f190185528235368c9003609e19018112611e61578283fd5b8b0160a0611e6f8280611b5d565b828852611e7f8389018284611ba5565b9250505088820135611e90816113e8565b6001600160a01b0316868a015281880135888701526060611eb2818401611c10565b63ffffffff808216838a01526080925080611ece848701611c10565b169890920197909752509588019594505091860191600101611e3c565b5091999850505050505050505056fea2646970667358221220d34f49d6cba8c87159a0c3f8800747bc480ca98301c8ceeeabe703b494b6e58164736f6c634300080c0033","linkReferences":{}},"methodIdentifiers":{"avsDirectory()":"6b3aa72e","createAVSRewardsSubmission(((address,uint96)[],address,uint256,uint32,uint32)[])":"fce36c7d","createOperatorDirectedAVSRewardsSubmission(((address,uint96)[],address,(address,uint256)[],uint32,uint32,string)[])":"a20b99bf","deregisterOperatorFromAVS(address)":"a364f4da","getOperatorRestakedStrategies(address)":"33cfb7b7","getRestakeableStrategies()":"e481af9d","initialize(address,address)":"485cc955","owner()":"8da5cb5b","registerOperatorToAVS(address,(bytes,bytes32,uint256))":"9926ee7d","renounceOwnership()":"715018a6","rewardsInitiator()":"fc299dee","setClaimerFor(address)":"a0169ddd","setRewardsInitiator(address)":"3bc28c8c","stakeRegistry()":"68304835","transferOwnership(address)":"f2fde38b","updateAVSMetadataURI(string)":"a98fb355"},"id":159}