{"abi":[{"type":"constructor","inputs":[{"name":"_delegationManager","type":"address","internalType":"contract IDelegationManager"}],"stateMutability":"nonpayable"},{"type":"function","name":"deregisterOperator","inputs":[],"outputs":[],"stateMutability":"nonpayable"},{"type":"function","name":"getLastCheckpointOperatorWeight","inputs":[{"name":"_operator","type":"address","internalType":"address"}],"outputs":[{"name":"","type":"uint256","internalType":"uint256"}],"stateMutability":"view"},{"type":"function","name":"getLastCheckpointThresholdWeight","inputs":[],"outputs":[{"name":"","type":"uint256","internalType":"uint256"}],"stateMutability":"view"},{"type":"function","name":"getLastCheckpointThresholdWeightAtBlock","inputs":[{"name":"_blockNumber","type":"uint32","internalType":"uint32"}],"outputs":[{"name":"","type":"uint256","internalType":"uint256"}],"stateMutability":"view"},{"type":"function","name":"getLastCheckpointTotalWeight","inputs":[],"outputs":[{"name":"","type":"uint256","internalType":"uint256"}],"stateMutability":"view"},{"type":"function","name":"getLastCheckpointTotalWeightAtBlock","inputs":[{"name":"_blockNumber","type":"uint32","internalType":"uint32"}],"outputs":[{"name":"","type":"uint256","internalType":"uint256"}],"stateMutability":"view"},{"type":"function","name":"getLastestOperatorSigningKey","inputs":[{"name":"_operator","type":"address","internalType":"address"}],"outputs":[{"name":"","type":"address","internalType":"address"}],"stateMutability":"view"},{"type":"function","name":"getOperatorSigningKeyAtBlock","inputs":[{"name":"_operator","type":"address","internalType":"address"},{"name":"_blockNumber","type":"uint256","internalType":"uint256"}],"outputs":[{"name":"","type":"address","internalType":"address"}],"stateMutability":"view"},{"type":"function","name":"getOperatorWeight","inputs":[{"name":"_operator","type":"address","internalType":"address"}],"outputs":[{"name":"","type":"uint256","internalType":"uint256"}],"stateMutability":"view"},{"type":"function","name":"getOperatorWeightAtBlock","inputs":[{"name":"_operator","type":"address","internalType":"address"},{"name":"_blockNumber","type":"uint32","internalType":"uint32"}],"outputs":[{"name":"","type":"uint256","internalType":"uint256"}],"stateMutability":"view"},{"type":"function","name":"initialize","inputs":[{"name":"_serviceManager","type":"address","internalType":"address"},{"name":"_thresholdWeight","type":"uint256","internalType":"uint256"},{"name":"_quorum","type":"tuple","internalType":"struct Quorum","components":[{"name":"strategies","type":"tuple[]","internalType":"struct StrategyParams[]","components":[{"name":"strategy","type":"address","internalType":"contract IStrategy"},{"name":"multiplier","type":"uint96","internalType":"uint96"}]}]}],"outputs":[],"stateMutability":"nonpayable"},{"type":"function","name":"isValidSignature","inputs":[{"name":"_dataHash","type":"bytes32","internalType":"bytes32"},{"name":"_signatureData","type":"bytes","internalType":"bytes"}],"outputs":[{"name":"","type":"bytes4","internalType":"bytes4"}],"stateMutability":"view"},{"type":"function","name":"minimumWeight","inputs":[],"outputs":[{"name":"","type":"uint256","internalType":"uint256"}],"stateMutability":"view"},{"type":"function","name":"operatorRegistered","inputs":[{"name":"_operator","type":"address","internalType":"address"}],"outputs":[{"name":"","type":"bool","internalType":"bool"}],"stateMutability":"view"},{"type":"function","name":"owner","inputs":[],"outputs":[{"name":"","type":"address","internalType":"address"}],"stateMutability":"view"},{"type":"function","name":"quorum","inputs":[],"outputs":[{"name":"","type":"tuple","internalType":"struct Quorum","components":[{"name":"strategies","type":"tuple[]","internalType":"struct StrategyParams[]","components":[{"name":"strategy","type":"address","internalType":"contract IStrategy"},{"name":"multiplier","type":"uint96","internalType":"uint96"}]}]}],"stateMutability":"view"},{"type":"function","name":"registerOperatorWithSignature","inputs":[{"name":"_operatorSignature","type":"tuple","internalType":"struct ISignatureUtils.SignatureWithSaltAndExpiry","components":[{"name":"signature","type":"bytes","internalType":"bytes"},{"name":"salt","type":"bytes32","internalType":"bytes32"},{"name":"expiry","type":"uint256","internalType":"uint256"}]},{"name":"_signingKey","type":"address","internalType":"address"}],"outputs":[],"stateMutability":"nonpayable"},{"type":"function","name":"renounceOwnership","inputs":[],"outputs":[],"stateMutability":"nonpayable"},{"type":"function","name":"transferOwnership","inputs":[{"name":"newOwner","type":"address","internalType":"address"}],"outputs":[],"stateMutability":"nonpayable"},{"type":"function","name":"updateMinimumWeight","inputs":[{"name":"_newMinimumWeight","type":"uint256","internalType":"uint256"},{"name":"_operators","type":"address[]","internalType":"address[]"}],"outputs":[],"stateMutability":"nonpayable"},{"type":"function","name":"updateOperatorSigningKey","inputs":[{"name":"_newSigningKey","type":"address","internalType":"address"}],"outputs":[],"stateMutability":"nonpayable"},{"type":"function","name":"updateOperators","inputs":[{"name":"_operators","type":"address[]","internalType":"address[]"}],"outputs":[],"stateMutability":"nonpayable"},{"type":"function","name":"updateOperatorsForQuorum","inputs":[{"name":"operatorsPerQuorum","type":"address[][]","internalType":"address[][]"},{"name":"","type":"bytes","internalType":"bytes"}],"outputs":[],"stateMutability":"nonpayable"},{"type":"function","name":"updateQuorumConfig","inputs":[{"name":"_quorum","type":"tuple","internalType":"struct Quorum","components":[{"name":"strategies","type":"tuple[]","internalType":"struct StrategyParams[]","components":[{"name":"strategy","type":"address","internalType":"contract IStrategy"},{"name":"multiplier","type":"uint96","internalType":"uint96"}]}]},{"name":"_operators","type":"address[]","internalType":"address[]"}],"outputs":[],"stateMutability":"nonpayable"},{"type":"function","name":"updateStakeThreshold","inputs":[{"name":"_thresholdWeight","type":"uint256","internalType":"uint256"}],"outputs":[],"stateMutability":"nonpayable"},{"type":"event","name":"Initialized","inputs":[{"name":"version","type":"uint8","indexed":false,"internalType":"uint8"}],"anonymous":false},{"type":"event","name":"MinimumWeightUpdated","inputs":[{"name":"_old","type":"uint256","indexed":false,"internalType":"uint256"},{"name":"_new","type":"uint256","indexed":false,"internalType":"uint256"}],"anonymous":false},{"type":"event","name":"OperatorDeregistered","inputs":[{"name":"_operator","type":"address","indexed":true,"internalType":"address"},{"name":"_avs","type":"address","indexed":true,"internalType":"address"}],"anonymous":false},{"type":"event","name":"OperatorRegistered","inputs":[{"name":"_operator","type":"address","indexed":true,"internalType":"address"},{"name":"_avs","type":"address","indexed":true,"internalType":"address"}],"anonymous":false},{"type":"event","name":"OperatorWeightUpdated","inputs":[{"name":"_operator","type":"address","indexed":true,"internalType":"address"},{"name":"oldWeight","type":"uint256","indexed":false,"internalType":"uint256"},{"name":"newWeight","type":"uint256","indexed":false,"internalType":"uint256"}],"anonymous":false},{"type":"event","name":"OwnershipTransferred","inputs":[{"name":"previousOwner","type":"address","indexed":true,"internalType":"address"},{"name":"newOwner","type":"address","indexed":true,"internalType":"address"}],"anonymous":false},{"type":"event","name":"QuorumUpdated","inputs":[{"name":"_old","type":"tuple","indexed":false,"internalType":"struct Quorum","components":[{"name":"strategies","type":"tuple[]","internalType":"struct StrategyParams[]","components":[{"name":"strategy","type":"address","internalType":"contract IStrategy"},{"name":"multiplier","type":"uint96","internalType":"uint96"}]}]},{"name":"_new","type":"tuple","indexed":false,"internalType":"struct Quorum","components":[{"name":"strategies","type":"tuple[]","internalType":"struct StrategyParams[]","components":[{"name":"strategy","type":"address","internalType":"contract IStrategy"},{"name":"multiplier","type":"uint96","internalType":"uint96"}]}]}],"anonymous":false},{"type":"event","name":"SigningKeyUpdate","inputs":[{"name":"operator","type":"address","indexed":true,"internalType":"address"},{"name":"updateBlock","type":"uint256","indexed":true,"internalType":"uint256"},{"name":"newSigningKey","type":"address","indexed":true,"internalType":"address"},{"name":"oldSigningKey","type":"address","indexed":false,"internalType":"address"}],"anonymous":false},{"type":"event","name":"ThresholdWeightUpdated","inputs":[{"name":"_thresholdWeight","type":"uint256","indexed":false,"internalType":"uint256"}],"anonymous":false},{"type":"event","name":"TotalWeightUpdated","inputs":[{"name":"oldTotalWeight","type":"uint256","indexed":false,"internalType":"uint256"},{"name":"newTotalWeight","type":"uint256","indexed":false,"internalType":"uint256"}],"anonymous":false},{"type":"event","name":"UpdateMinimumWeight","inputs":[{"name":"oldMinimumWeight","type":"uint256","indexed":false,"internalType":"uint256"},{"name":"newMinimumWeight","type":"uint256","indexed":false,"internalType":"uint256"}],"anonymous":false},{"type":"error","name":"InsufficientSignedStake","inputs":[]},{"type":"error","name":"InsufficientWeight","inputs":[]},{"type":"error","name":"InvalidLength","inputs":[]},{"type":"error","name":"InvalidQuorum","inputs":[]},{"type":"error","name":"InvalidReferenceBlock","inputs":[]},{"type":"error","name":"InvalidSignature","inputs":[]},{"type":"error","name":"InvalidSignedWeight","inputs":[]},{"type":"error","name":"InvalidThreshold","inputs":[]},{"type":"error","name":"LengthMismatch","inputs":[]},{"type":"error","name":"MustUpdateAllOperators","inputs":[]},{"type":"error","name":"NotSorted","inputs":[]},{"type":"error","name":"OperatorAlreadyRegistered","inputs":[]},{"type":"error","name":"OperatorNotRegistered","inputs":[]}],"bytecode":{"object":"0x60a06040523461003857610019610014610109565b61012a565b61002161003d565b61471361013b823960805181611c63015261471390f35b610043565b60405190565b5f80fd5b601f801991011690565b634e487b7160e01b5f52604160045260245ffd5b9061006f90610047565b810190811060018060401b0382111761008757604052565b610051565b9061009f61009861003d565b9283610065565b565b5f80fd5b60018060a01b031690565b6100b9906100a5565b90565b6100c5906100b0565b90565b6100d1816100bc565b036100d857565b5f80fd5b905051906100e9826100c8565b565b9060208282031261010457610101915f016100dc565b90565b6100a1565b61012761484e8038038061011c8161008c565b9283398101906100eb565b90565b61013390610135565b565b60805256fe60806040526004361015610013575b61104f565b61001d5f356101ab565b8062cf2ab5146101a65780630dba3394146101a15780631626ba7e1461019c5780631703a018146101975780631e4cd85e14610192578063314f3a491461018d5780633b242e4a146101885780633d5611f61461018357806340bf2fb71461017e5780635140a548146101795780635e1042e8146101745780635ef533291461016f578063696255be1461016a578063715018a614610165578063743c31f414610160578063857dc1901461015b5780638da5cb5b14610156578063955f2d901461015157806398ec1ac91461014c578063ab11899514610147578063b933fa7414610142578063cdcd35811461013d578063dec5d1f614610138578063ec7fbb31146101335763f2fde38b0361000e5761101c565b610fe7565b610f8c565b610efa565b610ec5565b610e91565b610c9c565b610c66565b610c04565b610bd1565b610b9e565b610b6b565b610b37565b610abf565b610a6b565b6109e8565b6108a6565b610872565b610763565b610710565b6106db565b6106a6565b61052d565b6103d4565b610332565b60e01c90565b60405190565b5f80fd5b5f80fd5b5f80fd5b5f80fd5b601f801991011690565b634e487b7160e01b5f52604160045260245ffd5b906101ef906101c7565b810190811067ffffffffffffffff82111761020957604052565b6101d1565b9061022161021a6101b1565b92836101e5565b565b67ffffffffffffffff811161023b5760208091020190565b6101d1565b5f80fd5b60018060a01b031690565b61025890610244565b90565b6102648161024f565b0361026b57565b5f80fd5b9050359061027c8261025b565b565b9092919261029361028e82610223565b61020e565b93818552602080860192028301928184116102d057915b8383106102b75750505050565b602080916102c5848661026f565b8152019201916102aa565b610240565b9080601f830112156102f3578160206102f09335910161027e565b90565b6101c3565b90602082820312610328575f82013567ffffffffffffffff81116103235761032092016102d5565b90565b6101bf565b6101bb565b5f0190565b346103605761034a6103453660046102f8565b611053565b6103526101b1565b8061035c8161032d565b0390f35b6101b7565b63ffffffff1690565b61037781610365565b0361037e57565b5f80fd5b9050359061038f8261036e565b565b906020828203126103aa576103a7915f01610382565b90565b6101bb565b90565b6103bb906103af565b9052565b91906103d2905f602085019401906103b2565b565b34610404576104006103ef6103ea366004610391565b611081565b6103f76101b1565b918291826103bf565b0390f35b6101b7565b90565b61041581610409565b0361041c57565b5f80fd5b9050359061042d8261040c565b565b5f80fd5b67ffffffffffffffff81116104515761044d6020916101c7565b0190565b6101d1565b90825f939282370152565b9092919261047661047182610433565b61020e565b938185526020850190828401116104925761049092610456565b565b61042f565b9080601f830112156104b5578160206104b293359101610461565b90565b6101c3565b9190916040818403126104fa576104d3835f8301610420565b92602082013567ffffffffffffffff81116104f5576104f29201610497565b90565b6101bf565b6101bb565b63ffffffff60e01b1690565b610514906104ff565b9052565b919061052b905f6020850194019061050b565b565b3461055e5761055a6105496105433660046104ba565b906112c9565b6105516101b1565b91829182610518565b0390f35b6101b7565b5f91031261056d57565b6101bb565b5190565b60209181520190565b60200190565b90565b61059c6105976105a192610244565b610585565b610244565b90565b6105ad90610588565b90565b6105b9906105a4565b90565b6105c5906105b0565b9052565b6bffffffffffffffffffffffff1690565b6105e3906105c9565b9052565b90602080610609936105ff5f8201515f8601906105bc565b01519101906105da565b565b90610618816040936105e7565b0190565b60200190565b9061063f61063961063284610572565b8093610576565b9261057f565b905f5b81811061064f5750505090565b909192610668610662600192865161060b565b9461061c565b9101919091610642565b61068b915f60208201920151905f818403910152610622565b90565b6106a39160208201915f818403910152610672565b90565b346106d6576106b6366004610563565b6106d26106c16114b8565b6106c96101b1565b9182918261068e565b0390f35b6101b7565b3461070b576107076106f66106f1366004610391565b6114ce565b6106fe6101b1565b918291826103bf565b0390f35b6101b7565b3461074057610720366004610563565b61073c61072b6114f7565b6107336101b1565b918291826103bf565b0390f35b6101b7565b9060208282031261075e5761075b915f0161026f565b90565b6101bb565b346107935761078f61077e610779366004610745565b611537565b6107866101b1565b918291826103bf565b0390f35b6101b7565b5f80fd5b5f80fd5b6107a9816103af565b036107b057565b5f80fd5b905035906107c1826107a0565b565b919091606081840312610828576107da606061020e565b925f8201359167ffffffffffffffff8311610823576107fe8261081c948301610497565b5f86015261080f8260208301610420565b60208601526040016107b4565b6040830152565b61079c565b610798565b919060408382031261086d575f8301359067ffffffffffffffff82116108685761085c816108659386016107c3565b9360200161026f565b90565b6101bf565b6101bb565b346108a15761088b61088536600461082d565b9061155e565b6108936101b1565b8061089d8161032d565b0390f35b6101b7565b346108d6576108b6366004610563565b6108d26108c1611591565b6108c96101b1565b918291826103bf565b0390f35b6101b7565b67ffffffffffffffff81116108f35760208091020190565b6101d1565b92919061090c610907826108db565b61020e565b93818552602080860192028101918383116109635781905b838210610932575050505050565b813567ffffffffffffffff811161095e5760209161095387849387016102d5565b815201910190610924565b6101c3565b610240565b9080601f8301121561098657816020610983933591016108f8565b90565b6101c3565b9190916040818403126109e3575f81013567ffffffffffffffff81116109de57836109b7918301610968565b92602082013567ffffffffffffffff81116109d9576109d69201610497565b90565b6101bf565b6101bf565b6101bb565b34610a1757610a016109fb36600461098b565b906115fe565b610a096101b1565b80610a138161032d565b0390f35b6101b7565b9190604083820312610a445780610a38610a41925f860161026f565b936020016107b4565b90565b6101bb565b610a529061024f565b9052565b9190610a69905f60208501940190610a49565b565b34610a9c57610a98610a87610a81366004610a1c565b9061163e565b610a8f6101b1565b91829182610a56565b0390f35b6101b7565b90602082820312610aba57610ab7915f016107b4565b90565b6101bb565b34610aed57610ad7610ad2366004610aa1565b611694565b610adf6101b1565b80610ae98161032d565b0390f35b6101b7565b919091604081840312610b3257610b0b835f83016107b4565b92602082013567ffffffffffffffff8111610b2d57610b2a92016102d5565b90565b6101bf565b6101bb565b34610b6657610b50610b4a366004610af2565b906116c7565b610b586101b1565b80610b628161032d565b0390f35b6101b7565b34610b9957610b7b366004610563565b610b83611720565b610b8b6101b1565b80610b958161032d565b0390f35b6101b7565b34610bcc57610bb6610bb1366004610745565b611767565b610bbe6101b1565b80610bc88161032d565b0390f35b6101b7565b34610bff57610be1366004610563565b610be96117b0565b610bf16101b1565b80610bfb8161032d565b0390f35b6101b7565b34610c3457610c14366004610563565b610c30610c1f6117e7565b610c276101b1565b91829182610a56565b0390f35b6101b7565b9190604083820312610c615780610c55610c5e925f860161026f565b93602001610382565b90565b6101bb565b34610c9757610c93610c82610c7c366004610c39565b906117fd565b610c8a6101b1565b918291826103bf565b0390f35b6101b7565b34610ccc57610cc8610cb7610cb2366004610745565b611bc3565b610cbf6101b1565b918291826103bf565b0390f35b6101b7565b67ffffffffffffffff8111610ce95760208091020190565b6101d1565b610cf79061024f565b90565b610d0381610cee565b03610d0a57565b5f80fd5b90503590610d1b82610cfa565b565b610d26816105c9565b03610d2d57565b5f80fd5b90503590610d3e82610d1d565b565b9190604083820312610d7a57610d7390610d5a604061020e565b93610d67825f8301610d0e565b5f860152602001610d31565b6020830152565b610798565b90929192610d94610d8f82610cd1565b61020e565b938185526040602086019202830192818411610dd357915b838310610db95750505050565b6020604091610dc88486610d40565b815201920191610dac565b610240565b9080601f83011215610df657816020610df393359101610d7f565b90565b6101c3565b919091602081840312610e3b57610e12602061020e565b925f82013567ffffffffffffffff8111610e3657610e309201610dd8565b5f830152565b61079c565b610798565b91606083830312610e8c57610e57825f850161026f565b92610e6583602083016107b4565b92604082013567ffffffffffffffff8111610e8757610e849201610dfb565b90565b6101bf565b6101bb565b34610ec057610eaa610ea4366004610e40565b916120de565b610eb26101b1565b80610ebc8161032d565b0390f35b6101b7565b34610ef557610ed5366004610563565b610ef1610ee06120eb565b610ee86101b1565b918291826103bf565b0390f35b6101b7565b34610f2a57610f26610f15610f10366004610745565b612109565b610f1d6101b1565b91829182610a56565b0390f35b6101b7565b919091604081840312610f87575f81013567ffffffffffffffff8111610f825783610f5b918301610dfb565b92602082013567ffffffffffffffff8111610f7d57610f7a92016102d5565b90565b6101bf565b6101bf565b6101bb565b34610fbb57610fa5610f9f366004610f2f565b90612168565b610fad6101b1565b80610fb78161032d565b0390f35b6101b7565b151590565b610fce90610fc0565b9052565b9190610fe5905f60208501940190610fc5565b565b3461101757611013611002610ffd366004610745565b612178565b61100a6101b1565b91829182610fd2565b0390f35b6101b7565b3461104a5761103461102f366004610745565b612282565b61103c6101b1565b806110468161032d565b0390f35b6101b7565b5f80fd5b61105c906122fa565b565b5f90565b90565b61107961107461107e92610365565b610585565b6103af565b90565b6110a79061108d61105e565b506110a161109b606b611062565b91611065565b90612509565b90565b5f90565b905051906110bb8261025b565b565b909291926110d26110cd82610223565b61020e565b938185526020808601920283019281841161110f57915b8383106110f65750505050565b6020809161110484866110ae565b8152019201916110e9565b610240565b9080601f830112156111325781602061112f935191016110bd565b90565b6101c3565b67ffffffffffffffff811161114f5760208091020190565b6101d1565b90825f9392825e0152565b9092919261117461116f82610433565b61020e565b938185526020850190828401116111905761118e92611154565b565b61042f565b9080601f830112156111b3578160206111b09351910161115f565b90565b6101c3565b9291906111cc6111c782611137565b61020e565b93818552602080860192028101918383116112235781905b8382106111f2575050505050565b815167ffffffffffffffff811161121e576020916112138784938701611195565b8152019101906111e4565b6101c3565b610240565b9080601f8301121561124657816020611243935191016111b8565b90565b6101c3565b905051906112588261036e565b565b90916060828403126112c0575f82015167ffffffffffffffff81116112bb5783611285918401611114565b9260208301519067ffffffffffffffff82116112b6576112aa816112b3938601611228565b9360400161124b565b90565b6101bf565b6101bf565b6101bb565b5190565b6112ef6112fe926112d86110aa565b5060206112e4826112c5565b81830101910161125a565b9092919290919290919261264e565b630b135d3f60e11b90565b611313602061020e565b90565b606090565b611323611309565b9060208261132f611316565b81525050565b61133d61131b565b90565b5490565b9061135661135183610cd1565b61020e565b918252565b5f5260205f2090565b5f1c90565b60018060a01b031690565b61138061138591611364565b611369565b90565b6113929054611374565b90565b9061139f90610cee565b9052565b60a01c90565b6bffffffffffffffffffffffff1690565b6113c66113cb916113a3565b6113a9565b90565b6113d890546113ba565b90565b906113e5906105c9565b9052565b6113f3604061020e565b90565b9061142c6114235f6114066113e9565b9461141d611415838301611388565b838801611395565b016113ce565b602084016113db565b565b611437906113f6565b90565b9061144482611340565b61144d81611344565b9261145b602085019161135b565b5f915b83831061146b5750505050565b60016020819261147a8561142e565b81520192019201919061145e565b52565b906114aa6114a25f61149b611309565b940161143a565b5f8401611488565b565b6114b59061148b565b90565b6114c0611335565b506114cb60666114ac565b90565b6114f4906114da61105e565b506114ee6114e8606c611062565b91611065565b90612509565b90565b6114ff61105e565b5061151261150d606b611062565b61272c565b90565b61151e906105a4565b90565b9061152b90611515565b5f5260205260405f2090565b61155661155161155b9261154961105e565b50606d611521565b611062565b61272c565b90565b61156b9133919091612923565b565b90565b61157c61158191611364565b61156d565b90565b61158e9054611570565b90565b61159961105e565b506115a46067611584565b90565b634e487b7160e01b5f52603260045260245ffd5b5190565b906115c9826115bb565b8110156115da576020809102010190565b6115a7565b90565b6115f66115f16115fb926115df565b610585565b6103af565b90565b61161c9150611616906116105f6115e2565b906115bf565b51612a95565b565b5f90565b61163661163161163b926103af565b610585565b610244565b90565b6116696116739261166461165f61166e9461165761161e565b50606a611521565b611062565b612509565b611622565b6105a4565b90565b61168790611682612b66565b611689565b565b61169290612b92565b565b61169d90611676565b565b906116b1916116ac612b66565b6116b3565b565b906116c06116c592612c06565b6122fa565b565b906116d19161169f565b565b6116db612b66565b6116e361170d565b565b6116f96116f46116fe926115df565b610585565b610244565b90565b61170a906116e5565b90565b61171e6117195f611701565b612c95565b565b6117286116d3565b565b9061173490611515565b5f5260205260405f2090565b60ff1690565b61175261175791611364565b611740565b90565b6117649054611746565b90565b61178461177e611779606e339061172a565b61175a565b15610fc0565b611794576117929033612d1e565b565b5f6325ec6c1f60e01b8152806117ac6004820161032d565b0390fd5b6117b933612e6e565b565b60018060a01b031690565b6117d26117d791611364565b6117bb565b90565b6117e490546117c6565b90565b6117ef61161e565b506117fa60336117da565b90565b9061182661182061181b61182c9461181361105e565b50606d611521565b611062565b91611065565b90612509565b90565b6118389061143a565b90565b67ffffffffffffffff81116118535760208091020190565b6101d1565b9061186a6118658361183b565b61020e565b918252565b369037565b9061189961188183611858565b9260208061188f869361183b565b920191039061186f565b565b60016118a791016103af565b90565b906118b482610572565b8110156118c5576020809102010190565b6115a7565b6118d49051610cee565b90565b5190565b906118e5826118d7565b8110156118f6576020809102010190565b6115a7565b611904906105a4565b90565b5f80fd5b60e01b90565b67ffffffffffffffff81116119295760208091020190565b6101d1565b9050519061193b826107a0565b565b9092919261195261194d82611911565b61020e565b938185526020808601920283019281841161198f57915b8383106119765750505050565b60208091611984848661192e565b815201920191611969565b610240565b9080601f830112156119b2578160206119af9351910161193d565b90565b6101c3565b906020828203126119e7575f82015167ffffffffffffffff81116119e2576119df9201611994565b90565b6101bf565b6101bb565b60209181520190565b60200190565b90611a08816020936105bc565b0190565b60200190565b90611a2f611a29611a22846118d7565b80936119ec565b926119f5565b905f5b818110611a3f5750505090565b909192611a58611a5260019286516119fb565b94611a0c565b9101919091611a32565b91611a8592611a7860408201935f830190610a49565b6020818403910152611a12565b90565b611a906101b1565b3d5f823e3d90fd5b5190565b90611aa682611a98565b811015611ab7576020809102010190565b6115a7565b611ac690516103af565b90565b611ad390516105c9565b90565b611aea611ae5611aef926105c9565b610585565b6103af565b90565b634e487b7160e01b5f52601160045260245ffd5b611b15611b1b919392936103af565b926103af565b91611b278382026103af565b928184041490151715611b3657565b611af2565b611b4a611b50919392936103af565b926103af565b8201809211611b5b57565b611af2565b90565b611b77611b72611b7c92611b60565b610585565b6103af565b90565b611b8a612710611b63565b90565b634e487b7160e01b5f52601260045260245ffd5b611bad611bb3916103af565b916103af565b908115611bbe570490565b611b8d565b611bcb61105e565b50611bd85f60660161182f565b91611be161105e565b90611bf3611bee85610572565b611874565b91611bfc61105e565b5b80611c18611c12611c0d89610572565b6103af565b916103af565b1015611c5757611c5290611c4d611c3b5f611c348a85906118aa565b51016118ca565b611c4887918490926118db565b611395565b61189b565b611bfd565b50915f90939193611c877f00000000000000000000000000000000000000000000000000000000000000006118fb565b611ca96390041347949294611cb4611c9d6101b1565b9687958694859461190b565b845260048401611a62565b03915afa908115611db3575f91611d91575b50611ccf61105e565b915b82611cec611ce6611ce188610572565b6103af565b916103af565b1015611d4657611d3a611d4091611d34611d0f611d0a868890611a9c565b611abc565b611d2e611d296020611d228c8b906118aa565b5101611ac9565b611ad6565b90611b06565b90611b3b565b9261189b565b91611cd1565b915050611d5d919250611d57611b7f565b90611ba1565b80611d79611d73611d6e6067611584565b6103af565b916103af565b10155f14611d845790565b50611d8e5f6115e2565b90565b611dad91503d805f833e611da581836101e5565b8101906119b7565b5f611cc6565b611a88565b60081c90565b611dca611dcf91611db8565b611740565b90565b611ddc9054611dbe565b90565b60ff1690565b611df1611df691611364565b611ddf565b90565b611e039054611de5565b90565b60ff1690565b90565b611e23611e1e611e2892611e0c565b610585565b611e06565b90565b611e34906105a4565b90565b60209181520190565b60207f647920696e697469616c697a6564000000000000000000000000000000000000917f496e697469616c697a61626c653a20636f6e747261637420697320616c7265615f8201520152565b611e9a602e604092611e37565b611ea381611e40565b0190565b611ebc9060208101905f818303910152611e8d565b90565b15611ec657565b611ece6101b1565b62461bcd60e51b815280611ee460048201611ea7565b0390fd5b5f1b90565b90611ef960ff91611ee8565b9181191691161790565b611f17611f12611f1c92611e06565b610585565b611e06565b90565b90565b90611f37611f32611f3e92611f03565b611f1f565b8254611eed565b9055565b60081b90565b90611f5561ff0091611f42565b9181191691161790565b611f6890610fc0565b90565b90565b90611f83611f7e611f8a92611f5f565b611f6b565b8254611f48565b9055565b611f9790611e0f565b9052565b9190611fae905f60208501940190611f8e565b565b91611ffd91611fc7611fc15f611dd2565b15610fc0565b9384806120ac575b801561205e575b611fdf90611ebf565b611ff2611fec6001611e0f565b5f611f22565b8461204e575b6120cf565b612004575b565b61200e5f80611f6e565b60016120467f7f26b83ff96e1f2b6a682f133852f6798a09c465da95921460cefb38474024989161203d6101b1565b91829182611f9b565b0390a1612002565b61205960015f611f6e565b611ff8565b5061207961207361206e30611e2b565b612fda565b15610fc0565b80612084575b611fd6565b50611fdf6120915f611df9565b6120a461209e6001611e0f565b91611e06565b14905061207f565b506120b65f611df9565b6120c96120c36001611e0f565b91611e06565b10611fcf565b916120dc929190916130e7565b565b906120e99291611fb0565b565b6120f361105e565b50612106612101606c611062565b61272c565b90565b61213861213361212e61212961213d9461212161161e565b50606a611521565b611062565b61272c565b611622565b6105a4565b90565b906121529161214d612b66565b612154565b565b906121616121669261338d565b6122fa565b565b9061217291612140565b565b5f90565b61218f61219491612187612174565b50606e61172a565b61175a565b90565b6121a8906121a3612b66565b612252565b565b60207f6464726573730000000000000000000000000000000000000000000000000000917f4f776e61626c653a206e6577206f776e657220697320746865207a65726f20615f8201520152565b6122046026604092611e37565b61220d816121aa565b0190565b6122269060208101905f8183039101526121f7565b90565b1561223057565b6122386101b1565b62461bcd60e51b81528061224e60048201612211565b0390fd5b6122809061227b8161227461226e6122695f611701565b61024f565b9161024f565b1415612229565b612c95565b565b61228b90612197565b565b5f90565b5190565b9061229f82612291565b8110156122b0576020809102010190565b6115a7565b6122bf905161024f565b90565b90565b6122d46122da919392936122c2565b926122c2565b808301925f828512158183121692851291121516176122f557565b611af2565b9061230361228d565b61230b61105e565b905b8161232861232261231d87612291565b6103af565b916103af565b10156123625761235661235c9161235061234b612346888790612295565b6122b5565b6134df565b906122c5565b9161189b565b9061230d565b905061236f919250613663565b5050565b5f7f436865636b706f696e74733a20626c6f636b206e6f7420796574206d696e6564910152565b6123a660208092611e37565b6123af81612373565b0190565b6123c89060208101905f81830391015261239a565b90565b156123d257565b6123da6101b1565b62461bcd60e51b8152806123f0600482016123b3565b0390fd5b5490565b5f5260205f2090565b61240a816123f4565b8210156124245761241c6001916123f8565b910201905f90565b6115a7565b63ffffffff1690565b61243e61244391611364565b612429565b90565b6124509054612432565b90565b61246761246261246c92611e0c565b610585565b6103af565b90565b61247e612484919392936103af565b926103af565b820391821161248f57565b611af2565b60201c90565b60018060e01b031690565b6124b16124b691612494565b61249a565b90565b6124c390546124a5565b90565b60018060e01b031690565b6124e56124e06124ea926115df565b610585565b6124c6565b90565b6125016124fc612506926124c6565b610585565b6103af565b90565b9161251261105e565b5061252f82612529612523436103af565b916103af565b106123cb565b61253a5f84016123f4565b6125435f6115e2565b905b81612558612552836103af565b916103af565b10156125c157612569828290613715565b906125825f61257b8189018590612401565b5001612446565b61259461258e876103af565b91611065565b115f146125a45750915b91612545565b9291506125bb906125b56001612453565b90611b3b565b9061259e565b92505091816125d86125d25f6115e2565b916103af565b145f146125f65750506125f36125ed5f6124d1565b5b6124ed565b90565b5f61261e6125f393612618836126259501916126126001612453565b9061246f565b90612401565b50016124b9565b6125ee565b5190565b906126388261262a565b811015612649576020809102010190565b6115a7565b9392919361265b82612291565b9461266461161e565b5061266d61161e565b9261267661161e565b5061267f61105e565b956126938861268d8561262a565b90613743565b61269b61105e565b965b876126b06126aa8b6103af565b916103af565b10156127195761270d612713916126fc6126d36126ce878d90612295565b6122b5565b986126ea6126e28b8d906137ad565b918b90613825565b886126f58d8a61262e565b519161385c565b612707888a90613895565b90611b3b565b9761189b565b9661269d565b9450965050505061272a92506138fc565b565b61273461105e565b506127405f82016123f4565b908161275461274e5f6115e2565b916103af565b145f1461277257505061276f6127695f6124d1565b5b6124ed565b90565b5f61279a61276f93612794836127a195019161278e6001612453565b9061246f565b90612401565b50016124b9565b61276a565b6127af906103af565b5f1981146127bd5760010190565b611af2565b906127ce5f1991611ee8565b9181191691161790565b6127ec6127e76127f1926103af565b610585565b6103af565b90565b90565b9061280c612807612813926127d8565b6127f4565b82546127c2565b9055565b9061282c61282761283392611f5f565b611f6b565b8254611eed565b9055565b61284090610588565b90565b61284c90612837565b90565b612858906105a4565b90565b5f91031261286557565b6101bb565b60209181520190565b61289261289b6020936128a093612889816112c5565b9384809361286a565b95869101611154565b6101c7565b0190565b6128ad90610409565b9052565b6128ba906103af565b9052565b906128fa906040806128dd606084015f8701518582035f870152612873565b946128f0602082015160208601906128a4565b01519101906128b1565b90565b916129209261291360408201935f830190610a49565b60208184039101526128be565b90565b91612938612933606e859061172a565b61175a565b612a795761298b9061295c6129556129506065611584565b6127a6565b60656127f7565b612972600161296d606e879061172a565b612817565b61298361297e856134df565b613663565b505083612d1e565b6129a56129a061299b60686117da565b612843565b61284f565b90639926ee7d90839092803b15612a74576129d35f80946129de6129c76101b1565b9788968795869461190b565b8452600484016128fd565b03925af18015612a6f57612a43575b506129f860686117da565b612a2b612a257fa453db612af59e5521d6ab9284dc3e2d06af286eb1b1b7b771fce4716c19f2c193611515565b91611515565b91612a346101b1565b80612a3e8161032d565b0390a3565b612a62905f3d8111612a68575b612a5a81836101e5565b81019061285b565b5f6129ed565b503d612a50565b611a88565b611907565b5f6342ee68b560e01b815280612a916004820161032d565b0390fd5b612a9e81612291565b612ab9612ab3612aae6065611584565b6103af565b916103af565b03612ac957612ac7906122fa565b565b5f63169efb5b60e11b815280612ae16004820161032d565b0390fd5b5f7f4f776e61626c653a2063616c6c6572206973206e6f7420746865206f776e6572910152565b612b1860208092611e37565b612b2181612ae5565b0190565b612b3a9060208101905f818303910152612b0c565b90565b15612b4457565b612b4c6101b1565b62461bcd60e51b815280612b6260048201612b25565b0390fd5b612b90612b716117e7565b612b8a612b84612b7f613978565b61024f565b9161024f565b14612b3d565b565b612ba6612b9f606c611062565b8290613b34565b5050612bde7f9324f7e5a7c0288808a634ccde44b8e979676474b22e29ee9dd569b55e791a4b91612bd56101b1565b918291826103bf565b0390a1565b916020612c04929493612bfd60408201965f8301906103b2565b01906103b2565b565b612c106067611584565b612c1b8260676127f7565b907f713ca53b88d6eb63f5b1854cb8cbdd736ec51eda225e46791aa9298b0160648f91612c52612c496101b1565b92839283612be3565b0390a1565b90612c6860018060a01b0391611ee8565b9181191691161790565b90565b90612c8a612c85612c9192611515565b612c72565b8254612c57565b9055565b612c9f60336117da565b612caa826033612c75565b90612cde612cd87f8be0079c531659141344cd1fd0a4f28419497f9722a3daafe3b4186f6b6457e093611515565b91611515565b91612ce76101b1565b80612cf18161032d565b0390a3565b612cff90610588565b90565b612d16612d11612d1b92610244565b610585565b6103af565b90565b612d4a612d45612d40612d3b612d36606a8690611521565b611062565b61272c565b611622565b6105a4565b9082612d5e612d588461024f565b9161024f565b14612dee57612d91612d7a612d75606a8490611521565b611062565b612d8b612d8686612cf6565b612d02565b90613b34565b50509143909192612de9612dd7612dd1612dcb7fd061168252f441733658f09e4d8f5b2d998ed4ef24a2bbfd6ceca52ea131500294611515565b946127d8565b94611515565b94612de06101b1565b91829182610a56565b0390a4565b505050565b612dfc906103af565b5f8114612e0a576001900390565b611af2565b1b90565b91906008612e2e910291612e2860ff84612e0f565b92612e0f565b9181191691161790565b9190612e4e612e49612e5693611f5f565b611f6b565b908354612e13565b9055565b612e6c91612e66612174565b91612e38565b565b612e8b612e85612e80606e849061172a565b61175a565b15610fc0565b612fbe57612eab612ea4612e9f6065611584565b612df3565b60656127f7565b612ec05f612ebb606e849061172a565b612e5a565b612ed1612ecc826134df565b613663565b5050612eed612ee8612ee360686117da565b612843565b61284f565b63a364f4da82823b15612fb957612f2392612f185f8094612f0c6101b1565b9687958694859361190b565b835260048301610a56565b03925af18015612fb457612f88575b50612f3d60686117da565b612f70612f6a7f31e0adfec71bccee37b6e83a90c2fedb17d8f1693fee863c4771e7bfe2aed58093611515565b91611515565b91612f796101b1565b80612f838161032d565b0390a3565b612fa7905f3d8111612fad575b612f9f81836101e5565b81019061285b565b5f612f32565b503d612f95565b611a88565b611907565b5f6325ec6c1f60e01b815280612fd66004820161032d565b0390fd5b612fe2612174565b503b612ff6612ff05f6115e2565b916103af565b1190565b60207f6e697469616c697a696e67000000000000000000000000000000000000000000917f496e697469616c697a61626c653a20636f6e7472616374206973206e6f7420695f8201520152565b613054602b604092611e37565b61305d81612ffa565b0190565b6130769060208101905f818303910152613047565b90565b1561308057565b6130886101b1565b62461bcd60e51b81528061309e60048201613061565b0390fd5b906130be92916130b96130b45f611dd2565b613079565b6130c0565b565b6130dd92916130d36130d8926068612c75565b612b92565b61338d565b6130e5613c6f565b565b906130f292916130a2565b565b600190818003010490565b5f80910155565b634e487b7160e01b5f525f60045260245ffd5b905f0361312b57613129906130ff565b565b613106565b5b81811061313c575050565b806131495f600193613119565b01613131565b1c90565b9091828110613162575b505050565b61318061317a61317461318b956130f4565b926130f4565b9261135b565b918201910190613130565b5f808061315d565b906801000000000000000081116131bc57816131b16131ba93611340565b90828155613153565b565b6101d1565b5f6131cb91613193565b565b905f036131df576131dd906131c1565b565b613106565b5f806131f092016131cd565b565b905f0361320457613202906131e4565b565b613106565b90565b5f5260205f2090565b5490565b61322281613215565b82101561323c5761323460019161320c565b910201905f90565b6115a7565b61324a90610588565b90565b61325690613241565b90565b90565b9061327161326c6132789261324d565b613259565b8254612c57565b9055565b60a01b90565b9061329c6bffffffffffffffffffffffff60a01b9161327c565b9181191691161790565b6132ba6132b56132bf926105c9565b610585565b6105c9565b90565b90565b906132da6132d56132e1926132a6565b6132c2565b8254613282565b9055565b9061330f60205f613315946133078282016133018488016118ca565b9061325c565b019201611ac9565b906132c5565b565b919061332857613326916132e5565b565b613106565b908154916801000000000000000083101561335d578261335591600161335b95018155613219565b90613317565b565b6101d1565b909161337c61338a9360408401908482035f860152610672565b916020818403910152610672565b90565b61339f61339982613c79565b15610fc0565b613456576133ad60666114ac565b916133b95f60666131f2565b6133c161105e565b5b806133e06133da6133d55f870151610572565b6103af565b916103af565b1015613418576134139061340e6133f95f606601613209565b6134075f87015184906118aa565b519061332d565b61189b565b6133c2565b5091907f23aad4e61744ece164130aa415c1616e80136b0f0770e56589438b90b269265e916134516134486101b1565b92839283613362565b0390a1565b5f63d173577960e01b81528061346e6004820161032d565b0390fd5b61348661348161348b926103af565b610585565b6122c2565b90565b61349d6134a3919392936122c2565b926122c2565b91828103925f8285128183121692851391121516176134be57565b611af2565b6134d76134d26134dc926115df565b610585565b6122c2565b90565b6134e761228d565b506134f061228d565b6134f861105e565b9061351561351061350b606d8690611521565b611062565b61272c565b9061353361352d613528606e879061172a565b61175a565b15610fc0565b5f146135db5761354c9061354683613472565b9061348e565b928361356061355a5f6134c3565b916122c2565b146135d55761358b61357c613577606d8490611521565b611062565b6135855f6115e2565b90613b34565b50505b90916135ba7f88770dc862e47a7ed586907857eb1b75e4c5ffc8b707c7ee10eb74d6885fe59492611515565b926135cf6135c66101b1565b92839283612be3565b0390a290565b50505090565b5090506135e782611bc3565b906136036135f483613472565b6135fd83613472565b9061348e565b92836136176136115f6134c3565b916122c2565b146136415761363a61363361362e606d8490611521565b611062565b8490613b34565b505061358e565b50505090565b61365b613656613660926122c2565b610585565b6103af565b90565b9061366c61105e565b5061367561105e565b506136a261369d61368e613689606b611062565b61272c565b9361369885613472565b6122c5565b613647565b906136b76136b0606b611062565b8390613b34565b505082827f86dcf86b12dfeedea74ae9300dbdaa193bcce5809369c8177ea2f4eaaa65729b916136f16136e86101b1565b92839283612be3565b0390a1565b90565b61370d613708613712926136f6565b610585565b6103af565b90565b61373a6137409261372461105e565b50828116921861373460026136f9565b90611ba1565b90611b3b565b90565b9061375761375183926103af565b916103af565b036137915761376e6137685f6115e2565b916103af565b1461377557565b5f63251f56a160e21b81528061378d6004820161032d565b0390fd5b5f631fec674760e31b8152806137a96004820161032d565b0390fd5b906137b661161e565b50806137ca6137c4436103af565b91611065565b1015613809576137fc613801916137f66137f06137eb61380696606a611521565b611062565b91611065565b90612509565b611622565b6105a4565b90565b5f63e64f180f60e01b8152806138216004820161032d565b0390fd5b613832613838919261024f565b9161024f565b101561384057565b5f63ba50f91160e01b8152806138586004820161032d565b0390fd5b906138739261386d92919091613ec9565b15610fc0565b61387957565b5f638baa579f60e01b8152806138916004820161032d565b0390fd5b9061389e61105e565b50806138b26138ac436103af565b91611065565b10156138e0576138d76138d16138cc6138dd94606d611521565b611062565b91611065565b90612509565b90565b5f63e64f180f60e01b8152806138f86004820161032d565b0390fd5b9061390681613fdf565b61391961391384926103af565b916103af565b1161395c5761393361392d6139399261403d565b926103af565b916103af565b1161394057565b5f63e121632f60e01b8152806139586004820161032d565b0390fd5b5f634b05a0f760e11b8152806139746004820161032d565b0390fd5b61398061161e565b503390565b90565b613992604061020e565b90565b9061399f90610365565b9052565b906139ad906124c6565b9052565b5f5260205f2090565b5490565b6139c7816139ba565b8210156139e1576139d96001916139b1565b910201905f90565b6115a7565b6139f09051610365565b90565b90613a0263ffffffff91611ee8565b9181191691161790565b613a20613a1b613a2592610365565b610585565b610365565b90565b90565b90613a40613a3b613a4792613a0c565b613a28565b82546139f3565b9055565b613a5590516124c6565b90565b60201b90565b90613a6e63ffffffff1991613a58565b9181191691161790565b613a8c613a87613a91926124c6565b610585565b6124c6565b90565b90565b90613aac613aa7613ab392613a78565b613a94565b8254613a5e565b9055565b90613ae160205f613ae794613ad9828201613ad38488016139e6565b90613a2b565b019201613a4b565b90613a97565b565b9190613afa57613af891613ab7565b565b613106565b9081549168010000000000000000831015613b2f5782613b27916001613b2d950181556139be565b90613ae9565b565b6101d1565b919091613b3f61105e565b50613b4861105e565b50613b545f82016123f4565b90613b5e8161272c565b9180613b72613b6c5f6115e2565b916103af565b1180613c06575b5f14613bba57905f613bae613bb593613ba883613b958a614261565b950191613ba26001612453565b9061246f565b90612401565b5001613a97565b5b9190565b50613bc95f613c019201613985565b613bd243614163565b90613bfc613bdf87614261565b613bf3613bea613988565b945f8601613995565b602084016139a3565b613aff565b613bb6565b50613c325f613c2b818501613c2585613c1f6001612453565b9061246f565b90612401565b5001612446565b613c44613c3e436103af565b91611065565b14613b79565b613c5b613c565f611dd2565b613079565b613c63613c65565b565b613c6d6142c6565b565b613c77613c4a565b565b5f90613c83612174565b50015190613c8f61161e565b613c9761161e565b50613ca061105e565b90613ca961105e565b905b81613cc6613cc0613cbb88610572565b6103af565b916103af565b1015613d5957613cea613ce55f613cde8886906118aa565b51016118ca565b6105b0565b90613cfd613cf78361024f565b9161024f565b1015613d3d57613d30613d369193613d2a613d256020613d1e8a88906118aa565b5101611ac9565b611ad6565b90611b3b565b9161189b565b9091613cab565b5f63ba50f91160e01b815280613d556004820161032d565b0390fd5b5050909150613d77613d71613d6c611b7f565b6103af565b916103af565b14155f14613d83575f90565b600190565b634e487b7160e01b5f52602160045260245ffd5b60051115613da657565b613d88565b90613db582613d9c565b565b613dc090610409565b9052565b60209181520190565b613dec613df5602093613dfa93613de3816112c5565b93848093613dc4565b95869101611154565b6101c7565b0190565b91613e2192613e1460408201935f830190613db7565b6020818403910152613dcd565b90565b90613e36613e3183610433565b61020e565b918252565b606090565b3d5f14613e5b57613e503d613e24565b903d5f602084013e5b565b613e63613e3b565b90613e59565b90565b613e80613e7b613e8592613e69565b610585565b6103af565b90565b613e91816104ff565b03613e9857565b5f80fd5b90505190613ea982613e88565b565b90602082820312613ec457613ec1915f01613e9c565b90565b6101bb565b9091613ed3612174565b50613edf83829061431a565b613ef1613eeb5f613dab565b91613dab565b149081613fc4575b50613fbc576004613f3b5f94613f2c869594630b135d3f60e11b92613f1c6101b1565b9586946020860190815201613dfe565b602082018103825203826101e5565b602081019051915afa613f4c613e40565b9080613f99575b9081613f5e575b5090565b613f7991506020613f6e826112c5565b818301019101613eab565b613f92613f8c630b135d3f60e11b6104ff565b916104ff565b145f613f5a565b50613fa3816112c5565b613fb6613fb06020613e6c565b916103af565b14613f53565b505050600190565b9050613fd8613fd28461024f565b9161024f565b145f613ef9565b613fe761105e565b5080613ffb613ff5436103af565b91611065565b10156140215761401e90614018614012606b611062565b91611065565b90612509565b90565b5f63e64f180f60e01b8152806140396004820161032d565b0390fd5b61404561105e565b5080614059614053436103af565b91611065565b101561407f5761407c90614076614070606c611062565b91611065565b90612509565b90565b5f63e64f180f60e01b8152806140976004820161032d565b0390fd5b5f90565b60207f3220626974730000000000000000000000000000000000000000000000000000917f53616665436173743a2076616c756520646f65736e27742066697420696e20335f8201520152565b6140f96026604092611e37565b6141028161409f565b0190565b61411b9060208101905f8183039101526140ec565b90565b1561412557565b61412d6101b1565b62461bcd60e51b81528061414360048201614106565b0390fd5b61415b614156614160926103af565b610585565b610365565b90565b6141969061416f61409b565b506141918161418a61418463ffffffff611065565b916103af565b111561411e565b614147565b90565b5f90565b60207f3234206269747300000000000000000000000000000000000000000000000000917f53616665436173743a2076616c756520646f65736e27742066697420696e20325f8201520152565b6141f76027604092611e37565b6142008161419d565b0190565b6142199060208101905f8183039101526141ea565b90565b1561422357565b61422b6101b1565b62461bcd60e51b81528061424160048201614204565b0390fd5b61425961425461425e926103af565b610585565b6124c6565b90565b6142969061426d614199565b506142918161428a61428460018060e01b036124ed565b916103af565b111561421c565b614245565b90565b6142aa6142a55f611dd2565b613079565b6142b26142b4565b565b6142c46142bf613978565b612c95565b565b6142ce614299565b565b5f90565b90565b6142eb6142e66142f0926142d4565b610585565b6103af565b90565b90565b61430a61430561430f926142f3565b610585565b6103af565b90565b5f90565b5f90565b9061432361161e565b5061432c6142d0565b50614336816112c5565b61434961434360416142d7565b916103af565b145f1461438f57906143899161435d614312565b50614366614312565b5061436f614316565b506020810151606060408301519201515f1a9091926145b9565b91909190565b614398816112c5565b6143ab6143a560406142f6565b916103af565b145f146143e1576143db916143be614312565b506143c7614312565b5060406020830151920151909190916144a6565b91909190565b50506143ec5f611701565b90600290565b90565b61440961440461440e926143f2565b611ee8565b610409565b90565b61441d61442291611364565b6127d8565b90565b90565b61443c61443761444192614425565b610585565b611e06565b90565b6144639061445d61445761446894611e06565b916103af565b9061314f565b6103af565b90565b90565b61448261447d6144879261446b565b610585565b6103af565b90565b61449e6144996144a3926103af565b610585565b611e06565b90565b909161450e926144b461161e565b506144bd6142d0565b506145066145016144f16144e1856144da60018060ff1b036143f5565b1695614411565b6144eb60ff614428565b90614444565b6144fb601b61446e565b90611b3b565b61448a565b9091926145b9565b91909190565b90565b61452b61452661453092614514565b610585565b6103af565b90565b61454761454261454c9261446b565b610585565b611e06565b90565b90565b61456661456161456b9261454f565b610585565b611e06565b90565b61457790611e06565b9052565b6145b06145b7946145a660609498979561459c608086019a5f870190613db7565b602085019061456e565b6040830190613db7565b0190613db7565b565b9291906145c461161e565b506145cd6142d0565b506145d783614411565b6146096146037f7fffffffffffffffffffffffffffffff5d576e7357a4501ddfe92f46681b20a0614517565b916103af565b116146ca578061462261461c601b614533565b91611e06565b1415806146ae575b61469b576146495f9360209592936146406101b1565b9485948561457b565b838052039060015afa15614696576146615f51611ee8565b8061467c6146766146715f611701565b61024f565b9161024f565b1461468657905f90565b506146905f611701565b90600190565b611a88565b505050506146a85f611701565b90600490565b50806146c36146bd601c614552565b91611e06565b141561462a565b505050506146d75f611701565b9060039056fea26469706673582212207e60d52639fb4a0e53d992b9b01c432f432dfe5877bc3bbac5661517e99ab90764736f6c634300081a0033","linkReferences":{}},"methodIdentifiers":{"deregisterOperator()":"857dc190","getLastCheckpointOperatorWeight(address)":"3b242e4a","getLastCheckpointThresholdWeight()":"b933fa74","getLastCheckpointThresholdWeightAtBlock(uint32)":"1e4cd85e","getLastCheckpointTotalWeight()":"314f3a49","getLastCheckpointTotalWeightAtBlock(uint32)":"0dba3394","getLastestOperatorSigningKey(address)":"cdcd3581","getOperatorSigningKeyAtBlock(address,uint256)":"5e1042e8","getOperatorWeight(address)":"98ec1ac9","getOperatorWeightAtBlock(address,uint32)":"955f2d90","initialize(address,uint256,((address,uint96)[]))":"ab118995","isValidSignature(bytes32,bytes)":"1626ba7e","minimumWeight()":"40bf2fb7","operatorRegistered(address)":"ec7fbb31","owner()":"8da5cb5b","quorum()":"1703a018","registerOperatorWithSignature((bytes,bytes32,uint256),address)":"3d5611f6","renounceOwnership()":"715018a6","transferOwnership(address)":"f2fde38b","updateMinimumWeight(uint256,address[])":"696255be","updateOperatorSigningKey(address)":"743c31f4","updateOperators(address[])":"00cf2ab5","updateOperatorsForQuorum(address[][],bytes)":"5140a548","updateQuorumConfig(((address,uint96)[]),address[])":"dec5d1f6","updateStakeThreshold(uint256)":"5ef53329"},"id":32}