{"abi":[{"type":"constructor","inputs":[{"name":"_delegationManager","type":"address","internalType":"contract IDelegationManager"}],"stateMutability":"nonpayable"},{"type":"function","name":"deregisterOperator","inputs":[],"outputs":[],"stateMutability":"nonpayable"},{"type":"function","name":"getLastCheckpointOperatorWeight","inputs":[{"name":"_operator","type":"address","internalType":"address"}],"outputs":[{"name":"","type":"uint256","internalType":"uint256"}],"stateMutability":"view"},{"type":"function","name":"getLastCheckpointThresholdWeight","inputs":[],"outputs":[{"name":"","type":"uint256","internalType":"uint256"}],"stateMutability":"view"},{"type":"function","name":"getLastCheckpointThresholdWeightAtBlock","inputs":[{"name":"_blockNumber","type":"uint32","internalType":"uint32"}],"outputs":[{"name":"","type":"uint256","internalType":"uint256"}],"stateMutability":"view"},{"type":"function","name":"getLastCheckpointTotalWeight","inputs":[],"outputs":[{"name":"","type":"uint256","internalType":"uint256"}],"stateMutability":"view"},{"type":"function","name":"getLastCheckpointTotalWeightAtBlock","inputs":[{"name":"_blockNumber","type":"uint32","internalType":"uint32"}],"outputs":[{"name":"","type":"uint256","internalType":"uint256"}],"stateMutability":"view"},{"type":"function","name":"getLastestOperatorSigningKey","inputs":[{"name":"_operator","type":"address","internalType":"address"}],"outputs":[{"name":"","type":"address","internalType":"address"}],"stateMutability":"view"},{"type":"function","name":"getOperatorSigningKeyAtBlock","inputs":[{"name":"_operator","type":"address","internalType":"address"},{"name":"_blockNumber","type":"uint256","internalType":"uint256"}],"outputs":[{"name":"","type":"address","internalType":"address"}],"stateMutability":"view"},{"type":"function","name":"getOperatorWeight","inputs":[{"name":"_operator","type":"address","internalType":"address"}],"outputs":[{"name":"","type":"uint256","internalType":"uint256"}],"stateMutability":"view"},{"type":"function","name":"getOperatorWeightAtBlock","inputs":[{"name":"_operator","type":"address","internalType":"address"},{"name":"_blockNumber","type":"uint32","internalType":"uint32"}],"outputs":[{"name":"","type":"uint256","internalType":"uint256"}],"stateMutability":"view"},{"type":"function","name":"initialize","inputs":[{"name":"_serviceManager","type":"address","internalType":"address"},{"name":"_thresholdWeight","type":"uint256","internalType":"uint256"},{"name":"_quorum","type":"tuple","internalType":"struct Quorum","components":[{"name":"strategies","type":"tuple[]","internalType":"struct StrategyParams[]","components":[{"name":"strategy","type":"address","internalType":"contract IStrategy"},{"name":"multiplier","type":"uint96","internalType":"uint96"}]}]}],"outputs":[],"stateMutability":"nonpayable"},{"type":"function","name":"isValidSignature","inputs":[{"name":"_dataHash","type":"bytes32","internalType":"bytes32"},{"name":"_signatureData","type":"bytes","internalType":"bytes"}],"outputs":[{"name":"","type":"bytes4","internalType":"bytes4"}],"stateMutability":"view"},{"type":"function","name":"minimumWeight","inputs":[],"outputs":[{"name":"","type":"uint256","internalType":"uint256"}],"stateMutability":"view"},{"type":"function","name":"operatorRegistered","inputs":[{"name":"_operator","type":"address","internalType":"address"}],"outputs":[{"name":"","type":"bool","internalType":"bool"}],"stateMutability":"view"},{"type":"function","name":"owner","inputs":[],"outputs":[{"name":"","type":"address","internalType":"address"}],"stateMutability":"view"},{"type":"function","name":"quorum","inputs":[],"outputs":[{"name":"","type":"tuple","internalType":"struct Quorum","components":[{"name":"strategies","type":"tuple[]","internalType":"struct StrategyParams[]","components":[{"name":"strategy","type":"address","internalType":"contract IStrategy"},{"name":"multiplier","type":"uint96","internalType":"uint96"}]}]}],"stateMutability":"view"},{"type":"function","name":"registerOperatorWithSignature","inputs":[{"name":"_operatorSignature","type":"tuple","internalType":"struct ISignatureUtils.SignatureWithSaltAndExpiry","components":[{"name":"signature","type":"bytes","internalType":"bytes"},{"name":"salt","type":"bytes32","internalType":"bytes32"},{"name":"expiry","type":"uint256","internalType":"uint256"}]},{"name":"_signingKey","type":"address","internalType":"address"}],"outputs":[],"stateMutability":"nonpayable"},{"type":"function","name":"renounceOwnership","inputs":[],"outputs":[],"stateMutability":"nonpayable"},{"type":"function","name":"transferOwnership","inputs":[{"name":"newOwner","type":"address","internalType":"address"}],"outputs":[],"stateMutability":"nonpayable"},{"type":"function","name":"updateMinimumWeight","inputs":[{"name":"_newMinimumWeight","type":"uint256","internalType":"uint256"},{"name":"_operators","type":"address[]","internalType":"address[]"}],"outputs":[],"stateMutability":"nonpayable"},{"type":"function","name":"updateOperatorSigningKey","inputs":[{"name":"_newSigningKey","type":"address","internalType":"address"}],"outputs":[],"stateMutability":"nonpayable"},{"type":"function","name":"updateOperators","inputs":[{"name":"_operators","type":"address[]","internalType":"address[]"}],"outputs":[],"stateMutability":"nonpayable"},{"type":"function","name":"updateOperatorsForQuorum","inputs":[{"name":"operatorsPerQuorum","type":"address[][]","internalType":"address[][]"},{"name":"","type":"bytes","internalType":"bytes"}],"outputs":[],"stateMutability":"nonpayable"},{"type":"function","name":"updateQuorumConfig","inputs":[{"name":"_quorum","type":"tuple","internalType":"struct Quorum","components":[{"name":"strategies","type":"tuple[]","internalType":"struct StrategyParams[]","components":[{"name":"strategy","type":"address","internalType":"contract IStrategy"},{"name":"multiplier","type":"uint96","internalType":"uint96"}]}]},{"name":"_operators","type":"address[]","internalType":"address[]"}],"outputs":[],"stateMutability":"nonpayable"},{"type":"function","name":"updateStakeThreshold","inputs":[{"name":"_thresholdWeight","type":"uint256","internalType":"uint256"}],"outputs":[],"stateMutability":"nonpayable"},{"type":"event","name":"Initialized","inputs":[{"name":"version","type":"uint8","indexed":false,"internalType":"uint8"}],"anonymous":false},{"type":"event","name":"MinimumWeightUpdated","inputs":[{"name":"_old","type":"uint256","indexed":false,"internalType":"uint256"},{"name":"_new","type":"uint256","indexed":false,"internalType":"uint256"}],"anonymous":false},{"type":"event","name":"OperatorDeregistered","inputs":[{"name":"_operator","type":"address","indexed":true,"internalType":"address"},{"name":"_avs","type":"address","indexed":true,"internalType":"address"}],"anonymous":false},{"type":"event","name":"OperatorRegistered","inputs":[{"name":"_operator","type":"address","indexed":true,"internalType":"address"},{"name":"_avs","type":"address","indexed":true,"internalType":"address"}],"anonymous":false},{"type":"event","name":"OperatorWeightUpdated","inputs":[{"name":"_operator","type":"address","indexed":true,"internalType":"address"},{"name":"oldWeight","type":"uint256","indexed":false,"internalType":"uint256"},{"name":"newWeight","type":"uint256","indexed":false,"internalType":"uint256"}],"anonymous":false},{"type":"event","name":"OwnershipTransferred","inputs":[{"name":"previousOwner","type":"address","indexed":true,"internalType":"address"},{"name":"newOwner","type":"address","indexed":true,"internalType":"address"}],"anonymous":false},{"type":"event","name":"QuorumUpdated","inputs":[{"name":"_old","type":"tuple","indexed":false,"internalType":"struct Quorum","components":[{"name":"strategies","type":"tuple[]","internalType":"struct StrategyParams[]","components":[{"name":"strategy","type":"address","internalType":"contract IStrategy"},{"name":"multiplier","type":"uint96","internalType":"uint96"}]}]},{"name":"_new","type":"tuple","indexed":false,"internalType":"struct Quorum","components":[{"name":"strategies","type":"tuple[]","internalType":"struct StrategyParams[]","components":[{"name":"strategy","type":"address","internalType":"contract IStrategy"},{"name":"multiplier","type":"uint96","internalType":"uint96"}]}]}],"anonymous":false},{"type":"event","name":"SigningKeyUpdate","inputs":[{"name":"operator","type":"address","indexed":true,"internalType":"address"},{"name":"updateBlock","type":"uint256","indexed":true,"internalType":"uint256"},{"name":"newSigningKey","type":"address","indexed":true,"internalType":"address"},{"name":"oldSigningKey","type":"address","indexed":false,"internalType":"address"}],"anonymous":false},{"type":"event","name":"ThresholdWeightUpdated","inputs":[{"name":"_thresholdWeight","type":"uint256","indexed":false,"internalType":"uint256"}],"anonymous":false},{"type":"event","name":"TotalWeightUpdated","inputs":[{"name":"oldTotalWeight","type":"uint256","indexed":false,"internalType":"uint256"},{"name":"newTotalWeight","type":"uint256","indexed":false,"internalType":"uint256"}],"anonymous":false},{"type":"event","name":"UpdateMinimumWeight","inputs":[{"name":"oldMinimumWeight","type":"uint256","indexed":false,"internalType":"uint256"},{"name":"newMinimumWeight","type":"uint256","indexed":false,"internalType":"uint256"}],"anonymous":false},{"type":"error","name":"InsufficientSignedStake","inputs":[]},{"type":"error","name":"InsufficientWeight","inputs":[]},{"type":"error","name":"InvalidLength","inputs":[]},{"type":"error","name":"InvalidQuorum","inputs":[]},{"type":"error","name":"InvalidReferenceBlock","inputs":[]},{"type":"error","name":"InvalidSignature","inputs":[]},{"type":"error","name":"InvalidSignedWeight","inputs":[]},{"type":"error","name":"InvalidThreshold","inputs":[]},{"type":"error","name":"LengthMismatch","inputs":[]},{"type":"error","name":"MustUpdateAllOperators","inputs":[]},{"type":"error","name":"NotSorted","inputs":[]},{"type":"error","name":"OperatorAlreadyRegistered","inputs":[]},{"type":"error","name":"OperatorNotRegistered","inputs":[]}],"bytecode":{"object":"0x60a034606657601f61249838819003918201601f19168301916001600160401b03831184841017606a57808492602094604052833981010312606657516001600160a01b0381168103606657608052604051612419908161007f8239608051816114ab0152f35b5f80fd5b634e487b7160e01b5f52604160045260245ffdfe60806040526004361015610011575f80fd5b5f803560e01c8062cf2ab51461107a5780630dba3394146110515780631626ba7e14610caa5780631703a01814610c5a5780631e4cd85e14610b5e578063314f3a4914610b445780633b242e4a14610b0d5780633d5611f61461092457806340bf2fb7146109065780635140a548146107fa5780635e1042e8146107b45780635ef533291461078f578063696255be14610714578063715018a6146106b7578063743c31f41461066f578063857dc1901461055a5780638da5cb5b14610531578063955f2d90146104e457806398ec1ac9146104b8578063ab11899514610323578063b933fa74146102bb578063cdcd358114610270578063dec5d1f6146101fe578063ec7fbb31146101bf5763f2fde38b1461012c575f80fd5b346101bc5760203660031901126101bc5761014561111d565b61014d6117fc565b6001600160a01b038116156101685761016590611a0c565b80f35b60405162461bcd60e51b815260206004820152602660248201527f4f776e61626c653a206e6577206f776e657220697320746865207a65726f206160448201526564647265737360d01b6064820152608490fd5b80fd5b50346101bc5760203660031901126101bc5760209060ff906040906001600160a01b036101ea61111d565b168152606e84522054166040519015158152f35b50346101bc5760403660031901126101bc576004356001600160401b03811161026c5761022f90369060040161126e565b602435906001600160401b03821161026857610263610255610165933690600401611133565b9161025e6117fc565b611b39565b611624565b8280fd5b5080fd5b50346101bc5760203660031901126101bc576020906001600160a01b0361029561111d565b168152606a8252604090206001600160a01b03906102b2906117ca565b16604051908152f35b50346101bc57806003193601126101bc57606c5490816102ed57602091505b6040516001600160e01b03919091168152f35b5f19820191821161030f5750610306602091606c611673565b5054811c6102da565b634e487b7160e01b81526011600452602490fd5b50346101bc5760603660031901126101bc5761033d61111d565b6044356001600160401b0381116102685761035c90369060040161126e565b82549060ff8260081c1615928380946104ab575b8015610494575b156104385760ff19831660011785556103c79284610427575b506103a160ff865460081c16611ad9565b60018060a01b03166001600160601b0360a01b606854161760685561025e602435611854565b6103e060ff835460081c166103db81611ad9565b611ad9565b6103e933611a0c565b6103f05780f35b61ff001981541681557f7f26b83ff96e1f2b6a682f133852f6798a09c465da95921460cefb3847402498602060405160018152a180f35b61ffff19166101011785555f610390565b60405162461bcd60e51b815260206004820152602e60248201527f496e697469616c697a61626c653a20636f6e747261637420697320616c72656160448201526d191e481a5b9a5d1a585b1a5e995960921b6064820152608490fd5b50303b1580156103775750600160ff841614610377565b50600160ff841610610370565b50346101bc5760203660031901126101bc5760206104dc6104d761111d565b6113eb565b604051908152f35b50346101bc5760403660031901126101bc576104fe61111d565b6024359063ffffffff8216809203610268576001600160a01b03168252606d602090815260409092206104dc919061172d565b50346101bc57806003193601126101bc576033546040516001600160a01b039091168152602090f35b50346101bc57806003193601126101bc57338152606e60205260ff6040822054161561066057606554801561064c575f1901606555338152606e6020526040812060ff1981541690556105b46105af33611c9e565b611e9b565b505060685481906001600160a01b0316803b15610649578180916024604051809481936351b27a6d60e11b83523360048401525af1801561063e57610629575b506068546001600160a01b0316337f31e0adfec71bccee37b6e83a90c2fedb17d8f1693fee863c4771e7bfe2aed5808380a380f35b81610633916110e5565b6101bc57805f6105f4565b6040513d84823e3d90fd5b50fd5b634e487b7160e01b82526011600452602482fd5b6325ec6c1f60e01b8152600490fd5b50346101bc5760203660031901126101bc5761068961111d565b338252606e60205260ff604083205416156106a8576101659033611a54565b6325ec6c1f60e01b8252600482fd5b50346101bc57806003193601126101bc576106d06117fc565b603380546001600160a01b0319811690915581906001600160a01b03167f8be0079c531659141344cd1fd0a4f28419497f9722a3daafe3b4186f6b6457e08280a380f35b50346101bc5760403660031901126101bc576024356004356001600160401b038211610268577f713ca53b88d6eb63f5b1854cb8cbdd736ec51eda225e46791aa9298b0160648f604061076e610165943690600401611133565b926107776117fc565b606754908060675582519182526020820152a1611624565b50346101bc5760203660031901126101bc576107a96117fc565b610165600435611854565b50346101bc5760403660031901126101bc576020906001600160a01b036107d961111d565b168152606a8252604090206001600160a01b03906102b2906024359061172d565b50346101bc5760403660031901126101bc576004356001600160401b03811161026c573660238201121561026c5780600401359061083782611106565b9061084560405192836110e5565b828252602082019260051b8101602401833682116109025760248301905b8282106108cf57505050506024356001600160401b0381116108cb5761088d9036906004016111cf565b5051156108b757518051606554036108a85761016590611624565b63169efb5b60e11b8252600482fd5b634e487b7160e01b82526032600452602482fd5b8380fd5b81356001600160401b0381116108fe576020916108f3839260243691890101611133565b815201910190610863565b8780fd5b8580fd5b50346101bc57806003193601126101bc576020606754604051908152f35b5034610ad2576040366003190112610ad2576004356001600160401b038111610ad25760606003198236030112610ad257604051606081018181106001600160401b03821117610af95760405281600401356001600160401b038111610ad25761099490600436918501016111cf565b8152602480830135602083019081526044909301356040830190815290356001600160a01b0381168103610ad257335f52606e60205260ff60405f205416610aea57606554905f198214610ad6576001610a179201606555335f52606e60205260405f20600160ff19825416179055610a0f6105af33611c9e565b505033611a54565b6068546001600160a01b0316803b15610ad257610a635f809460405196879586948593639926ee7d60e01b855233600486015260406024860152516060604486015260a48501906117d8565b9151606484015251608483015203925af18015610ac757610ab4575b506068546001600160a01b0316337fa453db612af59e5521d6ab9284dc3e2d06af286eb1b1b7b771fce4716c19f2c18380a380f35b610ac091505f906110e5565b5f80610a7f565b6040513d5f823e3d90fd5b5f80fd5b634e487b7160e01b5f52601160045260245ffd5b6342ee68b560e01b5f5260045ffd5b634e487b7160e01b5f52604160045260245ffd5b34610ad2576020366003190112610ad2576001600160a01b03610b2e61111d565b165f52606d60205260206104dc60405f206117ca565b34610ad2575f366003190112610ad25760206104dc6117bd565b34610ad2576020366003190112610ad25763ffffffff610b7c6111a1565b1643811015610c1657606c54905f905b828210610bbd578280610ba557506040515f8152602090f35b5f198101908111610ad657610306602091606c611673565b9091610bd081841860011c8285166113de565b908263ffffffff610be284606c611673565b5054161115610bf45750915b90610b8c565b92506001810180911115610bee57634e487b7160e01b5f52601160045260245ffd5b606460405162461bcd60e51b815260206004820152602060248201527f436865636b706f696e74733a20626c6f636b206e6f7420796574206d696e65646044820152fd5b34610ad2575f366003190112610ad2576060604051610c78816110af565b52610ca6604051610c88816110af565b610c9061133f565b8152604051918291602083526020830190611215565b0390f35b34610ad2576040366003190112610ad2576004356024356001600160401b038111610ad257610cdd9036906004016111cf565b90815182019160608160208501940312610ad25760208101516001600160401b038111610ad25781019083603f83011215610ad2576020820151610d2081611106565b92610d2e60405194856110e5565b8184526020808086019360051b8301010190868211610ad257604001915b8183106110315750505060408101516001600160401b038111610ad25781019380603f86011215610ad257602085015194610d8686611106565b95610d9460405197886110e5565b8087526020808089019260051b8401010191838311610ad25760408101915b838310610fc75788888860608901519163ffffffff8316809303610ad2578151905f945f9581518403610fb8578315610fa95792905f92438710958615955b848610610ef557505050505050610ee657610e0c82611688565b8311610ed75715610c1657606c54905f905b828210610e7e57505080610e5e57505f5b6001600160e01b031611610e4f57604051630b135d3f60e11b8152602090f35b63e121632f60e01b5f5260045ffd5b5f198101908111610ad657610e7490606c611673565b505460201c610e2f565b9091610e9181841860011c8285166113de565b908263ffffffff610ea384606c611673565b5054161115610eb55750915b90610e1e565b92506001810180911115610eaf57634e487b7160e01b5f52601160045260245ffd5b634b05a0f760e11b5f5260045ffd5b63e64f180f60e01b5f5260045ffd5b949893949293926001600160a01b03610f0e8b846113b6565b511696610ee657865f52606a6020528660018060a01b03610f328b60405f2061172d565b16916001600160a01b03161015610f9a57610f599083610f528c886113b6565b519161212c565b15610f8b576001610f8187945f985f52606d602052610f7b8b60405f2061172d565b906113de565b9901949392610df2565b638baa579f60e01b5f5260045ffd5b63ba50f91160e01b5f5260045ffd5b63251f56a160e21b5f5260045ffd5b631fec674760e31b5f5260045ffd5b82516001600160401b038111610ad25760209083010185603f82011215610ad257602081015191610ff7836111b4565b61100460405191826110e5565b8381526040838501018810610ad2575f602085819660408397018386015e83010152815201920191610db3565b82516001600160a01b0381168103610ad257815260209283019201610d4c565b34610ad2576020366003190112610ad25760206104dc63ffffffff6110746111a1565b16611688565b34610ad2576020366003190112610ad2576004356001600160401b038111610ad2576102636110ad913690600401611133565b005b602081019081106001600160401b03821117610af957604052565b604081019081106001600160401b03821117610af957604052565b90601f801991011681019081106001600160401b03821117610af957604052565b6001600160401b038111610af95760051b60200190565b600435906001600160a01b0382168203610ad257565b9080601f83011215610ad25781359061114b82611106565b9261115960405194856110e5565b82845260208085019360051b820101918211610ad257602001915b8183106111815750505090565b82356001600160a01b0381168103610ad257815260209283019201611174565b6004359063ffffffff82168203610ad257565b6001600160401b038111610af957601f01601f191660200190565b81601f82011215610ad2578035906111e6826111b4565b926111f460405194856110e5565b82845260208383010111610ad257815f926020809301838601378301015290565b602060408184019251938281528451809452019201905f5b81811061123a5750505090565b825180516001600160a01b031685526020908101516001600160601b0316818601526040909401939092019160010161122d565b9190602083820312610ad257604051611286816110af565b80938035906001600160401b038211610ad2570182601f82011215610ad2578035906112b182611106565b936112bf60405195866110e5565b82855260208086019360061b83010191818311610ad257602001925b8284106112e9575050505052565b604084830312610ad25760405190611300826110ca565b84356001600160a01b0381168103610ad25782526020850135906001600160601b0382168203610ad257826020928360409501528152019301926112db565b6066549061134c82611106565b9161135a60405193846110e5565b80835260665f9081525f805160206123c4833981519152602085015b8383106113835750505050565b600160208192604051611395816110ca565b8554848060a01b038116825260a01c83820152815201920192019190611376565b80518210156113ca5760209160051b010190565b634e487b7160e01b5f52603260045260245ffd5b91908201809211610ad657565b6113f361133f565b805190925f61141a61140484611106565b9361141260405195866110e5565b808552611106565b6020840190601f19013682375f5b865181101561145a576001906001600160a01b03611446828a6113b6565b51511661145382886113b6565b5201611428565b5060408051639004134760e01b81526001600160a01b0390961660048701526024860152925160448501819052919390929091829160648301915f5b8181106115e757505f939283900391508290507f00000000000000000000000000000000000000000000000000000000000000006001600160a01b03165afa908115610ac7575f91611557575b505f915b8451831015611539576114fa83836113b6565b51906001600160601b03602061151086896113b6565b5101511691828102928184041490151715610ad657600191611531916113de565b9201916114e7565b915050612710919250046067548110155f146115525790565b505f90565b90503d805f833e61156881836110e5565b810190602081830312610ad2578051906001600160401b038211610ad257019080601f83011215610ad257815161159e81611106565b926115ac60405194856110e5565b81845260208085019260051b820101928311610ad257602001905b8282106115d7575050505f6114e3565b81518152602091820191016115c7565b82516001600160a01b0316845285945060209384019390920191600101611496565b9190915f8382019384129112908015821691151617610ad657565b905f805b83518210156116625760019061165a906116546001600160a01b0361164d86896113b6565b5116611c9e565b90611609565b910190611628565b905061166f919250611e9b565b5050565b80548210156113ca575f5260205f2001905f90565b43811015610c1657606b54905f905b8282106116d4575050806116b457505f5b6001600160e01b031690565b5f198101908111610ad6576116ca90606b611673565b505460201c6116a8565b90916116e781841860011c8285166113de565b908263ffffffff6116f984606b611673565b505416111561170b5750915b90611697565b9250600181018091111561170557634e487b7160e01b5f52601160045260245ffd5b9043811015610c16578154905f905b8282106117655750508061175157505f919050565b5f198101908111610ad6576116ca91611673565b909161177881841860011c8285166113de565b908263ffffffff6117898488611673565b505416111561179b5750915b9061173c565b9250600181018091111561179557634e487b7160e01b5f52601160045260245ffd5b606b54806116b457505f90565b80548061175157505f919050565b805180835260209291819084018484015e5f828201840152601f01601f1916010190565b6033546001600160a01b0316330361181057565b606460405162461bcd60e51b815260206004820152602060248201527f4f776e61626c653a2063616c6c6572206973206e6f7420746865206f776e65726044820152fd5b606c5490611862606c6117ca565b90821515806119e6575b156118da5761187a81612244565b915f198401938411610ad6576118d06020936118b87f9324f7e5a7c0288808a634ccde44b8e979676474b22e29ee9dd569b55e791a4b96606c611673565b509063ffffffff82549181199060201b169116179055565b50604051908152a1565b63ffffffff4311611992576118ee81612244565b91604051936118fc856110ca565b4363ffffffff1685526001600160e01b039093166020850190815292600160401b811015610af9578060016119369201606c55606c611673565b94909461197f5751925163ffffffff90931663ffffffff19602094851b16179093557f9324f7e5a7c0288808a634ccde44b8e979676474b22e29ee9dd569b55e791a4b926118d0565b634e487b7160e01b5f525f60045260245ffd5b60405162461bcd60e51b815260206004820152602660248201527f53616665436173743a2076616c756520646f65736e27742066697420696e203360448201526532206269747360d01b6064820152608490fd5b505f198301838111610ad657611a0263ffffffff91606c611673565b505416431461186c565b603380546001600160a01b039283166001600160a01b0319821681179092559091167f8be0079c531659141344cd1fd0a4f28419497f9722a3daafe3b4186f6b6457e05f80a3565b6001600160a01b039081165f818152606a6020526040902090929190611a79906117ca565b6001600160a01b0390921692911690828214611ad457805f52606a602052611aa48360405f20611fc9565b50506040519182527fd061168252f441733658f09e4d8f5b2d998ed4ef24a2bbfd6ceca52ea131500260204393a4565b505050565b15611ae057565b60405162461bcd60e51b815260206004820152602b60248201527f496e697469616c697a61626c653a20636f6e7472616374206973206e6f74206960448201526a6e697469616c697a696e6760a81b6064820152608490fd5b611b42816120b2565b15611c775760405191611b54836110af565b611b5c61133f565b83526066545f60665580611c3d575b505f5b82518051821015611bea5781611b83916113b6565b519060665491600160401b831015610af957600183016066556066548310156113ca5760665f5280516020919091015160a01b6001600160a01b0319166001600160a01b0391909116175f805160206123c483398151915290920191909155600101611b6e565b505091611c2a90611c387f23aad4e61744ece164130aa415c1616e80136b0f0770e56589438b90b269265e93604051938493604085526040850190611215565b908382036020850152611215565b0390a1565b60665f525f805160206123c4833981519152015f805160206123c48339815191525b818110611c6c5750611b6b565b5f8155600101611c5f565b63d173577960e01b5f5260045ffd5b81810392915f138015828513169184121617610ad657565b6001600160a01b0381165f818152606d602052604081209092908390611cc3906117ca565b8094845f52606e60205260ff60405f205416155f14611e3d57611ce7929350611c86565b928315611e3757825f52606d60205260405f2090815492611d07836117ca565b84151580611e12575b15611d6b57611d1e5f612244565b945f198101908111610ad6577f88770dc862e47a7ed586907857eb1b75e4c5ffc8b707c7ee10eb74d6885fe594956118b8611d5b92604097611673565b505b82519182526020820152a290565b63ffffffff431161199257611d7f5f612244565b9360405195611d8d876110ca565b4363ffffffff1687526001600160e01b039095166020870190815294600160401b811015610af957611dc491600182018155611673565b95909561197f5751935160201b63ffffffff191663ffffffff94909416939093179093557f88770dc862e47a7ed586907857eb1b75e4c5ffc8b707c7ee10eb74d6885fe59492604092611d5b565b505f198501858111610ad657611e2d63ffffffff9186611673565b5054164314611d10565b50505090565b505050611e49906113eb565b91611e548184611c86565b928315611e37577f88770dc862e47a7ed586907857eb1b75e4c5ffc8b707c7ee10eb74d6885fe59491604091845f52606d602052611e9481845f20611fc9565b5050611d5d565b90611eae611ea76117bd565b9283611609565b90606b54611ebc606b6117ca565b9080151580611fa3575b15611f1f57611ed484612244565b5f198201918211610ad6576118b8611eed92606b611673565b507f86dcf86b12dfeedea74ae9300dbdaa193bcce5809369c8177ea2f4eaaa65729b60408051858152846020820152a1565b63ffffffff431161199257611f3384612244565b60405191611f40836110ca565b4363ffffffff1683526001600160e01b039091166020830190815290600160401b811015610af957806001611f7a9201606b55606b611673565b91909161197f579151915160201b63ffffffff191663ffffffff92909216919091179055611eed565b505f198101818111610ad657611fbf63ffffffff91606b611673565b5054164314611ec6565b9190918054611fd7826117ca565b918115158061208d575b1561200c57611fef85612244565b905f198301928311610ad657612008926118b891611673565b9190565b63ffffffff43116119925761202085612244565b906040519261202e846110ca565b4363ffffffff1684526001600160e01b039092166020840190815291600160401b811015610af95761206591600182018155611673565b91909161197f579151915160201b63ffffffff191663ffffffff929092169190911790559190565b505f198201828111610ad6576120a863ffffffff9183611673565b5054164314611fe1565b51905f80805b8451821015612115576001600160a01b036120d383876113b6565b515116906001600160a01b0316811115610f9a5761210c600191936001600160601b036020612102868a6113b6565b51015116906113de565b910190916120b8565b50919250612710149050612127575f90565b600190565b91909161213982846122b3565b60058110156122305715908161221a575b50612212575f9261218461219285946040519283916020830195630b135d3f60e11b875260248401526040604484015260648301906117d8565b03601f1981018352826110e5565b51915afa3d1561220b573d6121a6816111b4565b906121b460405192836110e5565b81523d5f602083013e5b816121ff575b816121cd575090565b9050602081805181010312610ad257602001516001600160e01b0319811690819003610ad257630b135d3f60e11b1490565b805160201491506121c4565b60606121be565b505050600190565b6001600160a01b0383811691161490505f61214a565b634e487b7160e01b5f52602160045260245ffd5b6001600160e01b03811161225e576001600160e01b031690565b60405162461bcd60e51b815260206004820152602760248201527f53616665436173743a2076616c756520646f65736e27742066697420696e20326044820152663234206269747360c81b6064820152608490fd5b8151604181036122df5750906122db91602082015190606060408401519301515f1a90612321565b9091565b6040036123185760406020830151920151918260ff1c91601b8301809311610ad6576122db936001600160ff1b03169260ff1690612321565b50505f90600290565b907f7fffffffffffffffffffffffffffffff5d576e7357a4501ddfe92f46681b20a084116123b85760ff1690601b821415806123ad575b6123a2576020935f93608093604051938452868401526040830152606082015282805260015afa15610ac7575f516001600160a01b0381161561239a57905f90565b505f90600190565b505050505f90600490565b50601c821415612358565b505050505f9060039056fe46501879b8ca8525e8c2fd519e2fbfcfa2ebea26501294aa02cbfcfb12e94354a2646970667358221220bc483acd219e9c420e06a0ff4c9bd7a0d330db8dd90cb8b28c7ada7f03fb98e364736f6c634300081a0033","linkReferences":{}},"methodIdentifiers":{"deregisterOperator()":"857dc190","getLastCheckpointOperatorWeight(address)":"3b242e4a","getLastCheckpointThresholdWeight()":"b933fa74","getLastCheckpointThresholdWeightAtBlock(uint32)":"1e4cd85e","getLastCheckpointTotalWeight()":"314f3a49","getLastCheckpointTotalWeightAtBlock(uint32)":"0dba3394","getLastestOperatorSigningKey(address)":"cdcd3581","getOperatorSigningKeyAtBlock(address,uint256)":"5e1042e8","getOperatorWeight(address)":"98ec1ac9","getOperatorWeightAtBlock(address,uint32)":"955f2d90","initialize(address,uint256,((address,uint96)[]))":"ab118995","isValidSignature(bytes32,bytes)":"1626ba7e","minimumWeight()":"40bf2fb7","operatorRegistered(address)":"ec7fbb31","owner()":"8da5cb5b","quorum()":"1703a018","registerOperatorWithSignature((bytes,bytes32,uint256),address)":"3d5611f6","renounceOwnership()":"715018a6","transferOwnership(address)":"f2fde38b","updateMinimumWeight(uint256,address[])":"696255be","updateOperatorSigningKey(address)":"743c31f4","updateOperators(address[])":"00cf2ab5","updateOperatorsForQuorum(address[][],bytes)":"5140a548","updateQuorumConfig(((address,uint96)[]),address[])":"dec5d1f6","updateStakeThreshold(uint256)":"5ef53329"},"id":32}