{"abi":[{"type":"constructor","inputs":[{"name":"_strategyManager","type":"address","internalType":"contract IStrategyManager"}],"stateMutability":"nonpayable"},{"type":"function","name":"deposit","inputs":[{"name":"token","type":"address","internalType":"contract IERC20"},{"name":"amount","type":"uint256","internalType":"uint256"}],"outputs":[{"name":"newShares","type":"uint256","internalType":"uint256"}],"stateMutability":"nonpayable"},{"type":"function","name":"explanation","inputs":[],"outputs":[{"name":"","type":"string","internalType":"string"}],"stateMutability":"pure"},{"type":"function","name":"getTVLLimits","inputs":[],"outputs":[{"name":"","type":"uint256","internalType":"uint256"},{"name":"","type":"uint256","internalType":"uint256"}],"stateMutability":"view"},{"type":"function","name":"initialize","inputs":[{"name":"_maxPerDeposit","type":"uint256","internalType":"uint256"},{"name":"_maxTotalDeposits","type":"uint256","internalType":"uint256"},{"name":"_underlyingToken","type":"address","internalType":"contract IERC20"},{"name":"_pauserRegistry","type":"address","internalType":"contract IPauserRegistry"}],"outputs":[],"stateMutability":"nonpayable"},{"type":"function","name":"initialize","inputs":[{"name":"_underlyingToken","type":"address","internalType":"contract IERC20"},{"name":"_pauserRegistry","type":"address","internalType":"contract IPauserRegistry"}],"outputs":[],"stateMutability":"nonpayable"},{"type":"function","name":"maxPerDeposit","inputs":[],"outputs":[{"name":"","type":"uint256","internalType":"uint256"}],"stateMutability":"view"},{"type":"function","name":"maxTotalDeposits","inputs":[],"outputs":[{"name":"","type":"uint256","internalType":"uint256"}],"stateMutability":"view"},{"type":"function","name":"pause","inputs":[{"name":"newPausedStatus","type":"uint256","internalType":"uint256"}],"outputs":[],"stateMutability":"nonpayable"},{"type":"function","name":"pauseAll","inputs":[],"outputs":[],"stateMutability":"nonpayable"},{"type":"function","name":"paused","inputs":[{"name":"index","type":"uint8","internalType":"uint8"}],"outputs":[{"name":"","type":"bool","internalType":"bool"}],"stateMutability":"view"},{"type":"function","name":"paused","inputs":[],"outputs":[{"name":"","type":"uint256","internalType":"uint256"}],"stateMutability":"view"},{"type":"function","name":"pauserRegistry","inputs":[],"outputs":[{"name":"","type":"address","internalType":"contract IPauserRegistry"}],"stateMutability":"view"},{"type":"function","name":"setPauserRegistry","inputs":[{"name":"newPauserRegistry","type":"address","internalType":"contract IPauserRegistry"}],"outputs":[],"stateMutability":"nonpayable"},{"type":"function","name":"setTVLLimits","inputs":[{"name":"newMaxPerDeposit","type":"uint256","internalType":"uint256"},{"name":"newMaxTotalDeposits","type":"uint256","internalType":"uint256"}],"outputs":[],"stateMutability":"nonpayable"},{"type":"function","name":"shares","inputs":[{"name":"user","type":"address","internalType":"address"}],"outputs":[{"name":"","type":"uint256","internalType":"uint256"}],"stateMutability":"view"},{"type":"function","name":"sharesToUnderlying","inputs":[{"name":"amountShares","type":"uint256","internalType":"uint256"}],"outputs":[{"name":"","type":"uint256","internalType":"uint256"}],"stateMutability":"view"},{"type":"function","name":"sharesToUnderlyingView","inputs":[{"name":"amountShares","type":"uint256","internalType":"uint256"}],"outputs":[{"name":"","type":"uint256","internalType":"uint256"}],"stateMutability":"view"},{"type":"function","name":"strategyManager","inputs":[],"outputs":[{"name":"","type":"address","internalType":"contract IStrategyManager"}],"stateMutability":"view"},{"type":"function","name":"totalShares","inputs":[],"outputs":[{"name":"","type":"uint256","internalType":"uint256"}],"stateMutability":"view"},{"type":"function","name":"underlyingToShares","inputs":[{"name":"amountUnderlying","type":"uint256","internalType":"uint256"}],"outputs":[{"name":"","type":"uint256","internalType":"uint256"}],"stateMutability":"view"},{"type":"function","name":"underlyingToSharesView","inputs":[{"name":"amountUnderlying","type":"uint256","internalType":"uint256"}],"outputs":[{"name":"","type":"uint256","internalType":"uint256"}],"stateMutability":"view"},{"type":"function","name":"underlyingToken","inputs":[],"outputs":[{"name":"","type":"address","internalType":"contract IERC20"}],"stateMutability":"view"},{"type":"function","name":"unpause","inputs":[{"name":"newPausedStatus","type":"uint256","internalType":"uint256"}],"outputs":[],"stateMutability":"nonpayable"},{"type":"function","name":"userUnderlying","inputs":[{"name":"user","type":"address","internalType":"address"}],"outputs":[{"name":"","type":"uint256","internalType":"uint256"}],"stateMutability":"nonpayable"},{"type":"function","name":"userUnderlyingView","inputs":[{"name":"user","type":"address","internalType":"address"}],"outputs":[{"name":"","type":"uint256","internalType":"uint256"}],"stateMutability":"view"},{"type":"function","name":"withdraw","inputs":[{"name":"recipient","type":"address","internalType":"address"},{"name":"token","type":"address","internalType":"contract IERC20"},{"name":"amountShares","type":"uint256","internalType":"uint256"}],"outputs":[],"stateMutability":"nonpayable"},{"type":"event","name":"ExchangeRateEmitted","inputs":[{"name":"rate","type":"uint256","indexed":false,"internalType":"uint256"}],"anonymous":false},{"type":"event","name":"Initialized","inputs":[{"name":"version","type":"uint8","indexed":false,"internalType":"uint8"}],"anonymous":false},{"type":"event","name":"MaxPerDepositUpdated","inputs":[{"name":"previousValue","type":"uint256","indexed":false,"internalType":"uint256"},{"name":"newValue","type":"uint256","indexed":false,"internalType":"uint256"}],"anonymous":false},{"type":"event","name":"MaxTotalDepositsUpdated","inputs":[{"name":"previousValue","type":"uint256","indexed":false,"internalType":"uint256"},{"name":"newValue","type":"uint256","indexed":false,"internalType":"uint256"}],"anonymous":false},{"type":"event","name":"Paused","inputs":[{"name":"account","type":"address","indexed":true,"internalType":"address"},{"name":"newPausedStatus","type":"uint256","indexed":false,"internalType":"uint256"}],"anonymous":false},{"type":"event","name":"PauserRegistrySet","inputs":[{"name":"pauserRegistry","type":"address","indexed":false,"internalType":"contract IPauserRegistry"},{"name":"newPauserRegistry","type":"address","indexed":false,"internalType":"contract IPauserRegistry"}],"anonymous":false},{"type":"event","name":"StrategyTokenSet","inputs":[{"name":"token","type":"address","indexed":false,"internalType":"contract IERC20"},{"name":"decimals","type":"uint8","indexed":false,"internalType":"uint8"}],"anonymous":false},{"type":"event","name":"Unpaused","inputs":[{"name":"account","type":"address","indexed":true,"internalType":"address"},{"name":"newPausedStatus","type":"uint256","indexed":false,"internalType":"uint256"}],"anonymous":false}],"bytecode":{"object":"0x60a03461012657601f611a1338819003918201601f19168301916001600160401b0383118484101761012a5780849260209460405283398101031261012657516001600160a01b0381168103610126576080525f5460ff8160081c166100d15760ff80821610610097575b6040516118d4908161013f823960805181818161031f01528181610b9901528181610ea6015261153d0152f35b60ff90811916175f557f7f26b83ff96e1f2b6a682f133852f6798a09c465da95921460cefb3847402498602060405160ff8152a15f61006a565b60405162461bcd60e51b815260206004820152602760248201527f496e697469616c697a61626c653a20636f6e747261637420697320696e697469604482015266616c697a696e6760c81b6064820152608490fd5b5f80fd5b634e487b7160e01b5f52604160045260245ffdfe60806040526004361015610011575f80fd5b5f3560e01c8063019e27291461111957806310d67a2f1461108e57806311c70c9d14611005578063136439dd14610efd5780632495a59914610ed557806339b70e3814610e915780633a98ef3914610e7457806343fe08b014610e5757806347e7ef2414610b66578063485cc9551461088d578063553ca5f81461072a578063595c6a67146107e85780635ac86ab7146107b55780635c975abb1461079857806361b01b5d1461077b5780637a8b26371461027b578063886f1195146107505780638c871019146102a15780638f6a62401461072a578063ab5921e114610693578063ce7c2ac214610670578063d9caed12146102e3578063df6fadc1146102bf578063e3dae51c146102a1578063f3e738751461027b5763fabc1cbc14610137575f80fd5b34610277576020366003190112610277575f5460405163755b36bd60e11b815260048035926020918391829060101c6001600160a01b03165afa801561026c57610193915f9161023d575b506001600160a01b03163314611331565b6001541981198116036101d257806001556040519081527f3582d1828e26bf56bd801502bc021ac0bc8afb57c826e4986b45593c8fad389c60203392a2005b60405162461bcd60e51b815260206004820152603860248201527f5061757361626c652e756e70617573653a20696e76616c696420617474656d7060448201527f7420746f2070617573652066756e6374696f6e616c69747900000000000000006064820152608490fd5b61025f915060203d602011610265575b61025781836112f0565b810190611312565b5f610182565b503d61024d565b6040513d5f823e3d90fd5b5f80fd5b346102775760203660031901126102775760206102996004356114da565b604051908152f35b3461027757602036600319011261027757602061029960043561159f565b34610277575f36600319011261027757604060645460655482519182526020820152f35b34610277576060366003190112610277576102fc611237565b61030461124d565b60443590610319600280600154161415611405565b61034d337f00000000000000000000000000000000000000000000000000000000000000006001600160a01b031614611451565b6032546001600160a01b039182169116810361060557603354808311610584576103e88101808211610570576103816117b2565b916103e88301809311610570576103af6103a76103b9936103a288876114a9565b6114bc565b95869261149c565b928360335561149c565b906103e88101809111610570576103cf916117ef565b60405163a9059cbb60e01b602082019081526001600160a01b0390941660248201526044808201939093529182526104086064836112f0565b60409283519261041885856112f0565b602084527f5361666545524332303a206c6f772d6c6576656c2063616c6c206661696c65646020850152823b1561052c57515f9283929083905af1903d15610520573d67ffffffffffffffff811161050c578351610494939091610486601f8201601f1916602001846112f0565b82523d5f602084013e611842565b8051908161049e57005b6020806104af938301019101611390565b156104b657005b5162461bcd60e51b815260206004820152602a60248201527f5361666545524332303a204552433230206f7065726174696f6e20646964206e6044820152691bdd081cdd58d8d9595960b21b6064820152608490fd5b634e487b7160e01b5f52604160045260245ffd5b61049491606090611842565b845162461bcd60e51b815260206004820152601d60248201527f416464726573733a2063616c6c20746f206e6f6e2d636f6e74726163740000006044820152606490fd5b634e487b7160e01b5f52601160045260245ffd5b60405162461bcd60e51b815260206004820152604d60248201527f5374726174656779426173652e77697468647261773a20616d6f756e7453686160448201527f726573206d757374206265206c657373207468616e206f7220657175616c207460648201526c6f20746f74616c53686172657360981b608482015260a490fd5b60405162461bcd60e51b815260206004820152603b60248201527f5374726174656779426173652e77697468647261773a2043616e206f6e6c792060448201527f77697468647261772074686520737472617465677920746f6b656e00000000006064820152608490fd5b3461027757602036600319011261027757602061029961068e611237565b61150d565b34610277575f366003190112610277576107266040516106b46080826112f0565b604d81527f4261736520537472617465677920696d706c656d656e746174696f6e20746f2060208201527f696e68657269742066726f6d20666f72206d6f726520636f6d706c657820696d60408201526c706c656d656e746174696f6e7360981b606082015260405191829182611263565b0390f35b3461027757602036600319011261027757602061029961074b61068e611237565b6114da565b34610277575f366003190112610277575f5460405160109190911c6001600160a01b03168152602090f35b34610277575f366003190112610277576020606554604051908152f35b34610277575f366003190112610277576020600154604051908152f35b346102775760203660031901126102775760043560ff81168091036102775760016020911b806001541614604051908152f35b34610277575f366003190112610277575f5460405163237dfb4760e11b8152336004820152906020908290602490829060101c6001600160a01b03165afa801561026c5761083d915f9161085e575b506113a8565b5f196001556040515f1981525f51602061187f5f395f51905f5260203392a2005b610880915060203d602011610886575b61087881836112f0565b810190611390565b82610837565b503d61086e565b34610277576040366003190112610277576108a6611237565b6108ae61124d565b905f549160ff8360081c161592838094610b59575b8015610b42575b6108d39061128d565b60ff1981166001175f5583610b31575b505f549160ff8360081c1615610ad857603280546001600160a01b0319166001600160a01b039283169081179091559260101c161580610ac6575b15610a4b57610949905f6001556040515f81525f51602061187f5f395f51905f5260203392a26116c3565b60325460405163313ce56760e01b81526001600160a01b0390911691602090829060049082905afa90811561026c575f916109ef575b507f1c540707b00eb5427b6b774fc799d756516a54aee108b64b327acc55af5575079160ff6040928351928352166020820152a16109b957005b61ff00195f54165f557f7f26b83ff96e1f2b6a682f133852f6798a09c465da95921460cefb3847402498602060405160018152a1005b90506020813d602011610a43575b81610a0a602093836112f0565b81010312610277575160ff81168103610277577f1c540707b00eb5427b6b774fc799d756516a54aee108b64b327acc55af55750761097f565b3d91506109fd565b60405162461bcd60e51b815260206004820152604760248201527f5061757361626c652e5f696e697469616c697a655061757365723a205f696e6960448201527f7469616c697a6550617573657228292063616e206f6e6c792062652063616c6c6064820152666564206f6e636560c81b608482015260a490fd5b506001600160a01b038116151561091e565b60405162461bcd60e51b815260206004820152602b60248201527f496e697469616c697a61626c653a20636f6e7472616374206973206e6f74206960448201526a6e697469616c697a696e6760a81b6064820152608490fd5b61ffff1916610101175f55836108e3565b50303b1580156108ca575060ff81166001146108ca565b50600160ff8216106108c3565b3461027757604036600319011261027757610b7f611237565b60243590610b936001808054161415611405565b610bc7337f00000000000000000000000000000000000000000000000000000000000000006001600160a01b031614611451565b6064548211610dfa57610bd86117b2565b60655410610da0576032546001600160a01b03908116911603610d3c57603354906103e8820180831161057057610c0d6117b2565b916103e88301809311610570576103a2610c3192610c2b838661149c565b926114a9565b908115610ce05781830180931161057057826033556f4b3b4ca85a86c47a098a223fffffffff8311610c75576103e8830180931161057057602092610299916117ef565b60405162461bcd60e51b815260206004820152603c60248201527f5374726174656779426173652e6465706f7369743a20746f74616c536861726560448201527f73206578636565647320604d41585f544f54414c5f53484152455360000000006064820152608490fd5b60405162461bcd60e51b815260206004820152602e60248201527f5374726174656779426173652e6465706f7369743a206e65775368617265732060448201526d63616e6e6f74206265207a65726f60901b6064820152608490fd5b60405162461bcd60e51b815260206004820152603660248201527f5374726174656779426173652e6465706f7369743a2043616e206f6e6c79206460448201527532b837b9b4ba103ab73232b9363cb4b733aa37b5b2b760511b6064820152608490fd5b60405162461bcd60e51b815260206004820152602c60248201527f53747261746567794261736554564c4c696d6974733a206d6178206465706f7360448201526b1a5d1cc8195e18d95959195960a21b6064820152608490fd5b60405162461bcd60e51b815260206004820152602f60248201527f53747261746567794261736554564c4c696d6974733a206d617820706572206460448201526e195c1bdcda5d08195e18d959591959608a1b6064820152608490fd5b34610277575f366003190112610277576020606454604051908152f35b34610277575f366003190112610277576020603354604051908152f35b34610277575f366003190112610277576040517f00000000000000000000000000000000000000000000000000000000000000006001600160a01b03168152602090f35b34610277575f366003190112610277576032546040516001600160a01b039091168152602090f35b34610277576020366003190112610277576004356024602060018060a01b035f5460101c166040519283809263237dfb4760e11b82523360048301525afa801561026c57610f51915f91610fe657506113a8565b60015481811603610f7b57806001556040519081525f51602061187f5f395f51905f5260203392a2005b60405162461bcd60e51b815260206004820152603860248201527f5061757361626c652e70617573653a20696e76616c696420617474656d70742060448201527f746f20756e70617573652066756e6374696f6e616c69747900000000000000006064820152608490fd5b610fff915060203d6020116108865761087881836112f0565b83610837565b34610277576040366003190112610277575f5460405163755b36bd60e11b8152906020908290600490829060101c6001600160a01b03165afa801561026c5761105f915f9161106f57506001600160a01b03163314611331565b61106d6024356004356115d1565b005b611088915060203d6020116102655761025781836112f0565b82610182565b346102775760203660031901126102775760046110a9611237565b5f5460405163755b36bd60e11b815292602091849190829060101c6001600160a01b03165afa91821561026c5761106d926110f5915f916110fa57506001600160a01b03163314611331565b6116c3565b611113915060203d6020116102655761025781836112f0565b84610182565b34610277576080366003190112610277576044356001600160a01b03811690819003610277576064356001600160a01b0381169190828103610277575f549260ff8460081c16159384809561122a575b8015611213575b6111799061128d565b60ff1981166001175f5584611202575b506111986024356004356115d1565b5f5460ff8160081c1615610ad857603280546001600160a01b0319168517905560101c6001600160a01b03161590816111f8575b5015610a4b57610949905f6001556040515f81525f51602061187f5f395f51905f5260203392a26116c3565b90501515846111cc565b61ffff1916610101175f5584611189565b50303b158015611170575060ff8116600114611170565b50600160ff821610611169565b600435906001600160a01b038216820361027757565b602435906001600160a01b038216820361027757565b602060409281835280519182918282860152018484015e5f828201840152601f01601f1916010190565b1561129457565b60405162461bcd60e51b815260206004820152602e60248201527f496e697469616c697a61626c653a20636f6e747261637420697320616c72656160448201526d191e481a5b9a5d1a585b1a5e995960921b6064820152608490fd5b90601f8019910116810190811067ffffffffffffffff82111761050c57604052565b9081602091031261027757516001600160a01b03811681036102775790565b1561133857565b60405162461bcd60e51b815260206004820152602a60248201527f6d73672e73656e646572206973206e6f74207065726d697373696f6e6564206160448201526939903ab73830bab9b2b960b11b6064820152608490fd5b90816020910312610277575180151581036102775790565b156113af57565b60405162461bcd60e51b815260206004820152602860248201527f6d73672e73656e646572206973206e6f74207065726d697373696f6e6564206160448201526739903830bab9b2b960c11b6064820152608490fd5b1561140c57565b60405162461bcd60e51b815260206004820152601960248201527f5061757361626c653a20696e64657820697320706175736564000000000000006044820152606490fd5b1561145857565b606460405162461bcd60e51b815260206004820152602060248201527f5374726174656779426173652e6f6e6c7953747261746567794d616e616765726044820152fd5b9190820391821161057057565b8181029291811591840414171561057057565b81156114c6570490565b634e487b7160e01b5f52601260045260245ffd5b6033546103e88101809111610570576114f16117b2565b6103e881018091116105705761150a926103a2916114a9565b90565b604051633d3f06c960e11b81526001600160a01b03918216600482015230602482015290602090829060449082907f0000000000000000000000000000000000000000000000000000000000000000165afa90811561026c575f91611570575090565b90506020813d602011611597575b8161158b602093836112f0565b81010312610277575190565b3d915061157e565b603354906103e88201809211610570576115b76117b2565b906103e882018092116105705761150a926103a2916114a9565b7ff97ed4e083acac67830025ecbc756d8fe847cdbdca4cee3fe1e128e98b54ecb560406064548151908152836020820152a17f6ab181e0440bfbf4bacdf2e99674735ce6638005490688c5f994f5399353e45260406065548151908152846020820152a181811161164457606455606555565b60405162461bcd60e51b815260206004820152604b60248201527f53747261746567794261736554564c4c696d6974732e5f73657454564c4c696d60448201527f6974733a206d61785065724465706f7369742065786365656473206d6178546f60648201526a74616c4465706f7369747360a81b608482015260a490fd5b6001600160a01b038116908115611735577f6e9fcd539896fca60e8b0f01dd580233e48a6b0f7df013b89ba7f565869acdb660405f549381519060018060a01b038660101c1682526020820152a162010000600160b01b031990911660109190911b62010000600160b01b0316175f55565b60405162461bcd60e51b815260206004820152604960248201527f5061757361626c652e5f73657450617573657252656769737472793a206e657760448201527f50617573657252656769737472792063616e6e6f7420626520746865207a65726064820152686f206164647265737360b81b608482015260a490fd5b6032546040516370a0823160e01b815230600482015290602090829060249082906001600160a01b03165afa90811561026c575f91611570575090565b9081670de0b6b3a76400000291670de0b6b3a7640000830403610570576118396020917fd2494f3479e5da49d386657c292c610b5b01df313d07c62eb0cfa49924a31be8936114bc565b604051908152a1565b9091901561184e575090565b81511561185e5750805190602001fd5b60405162461bcd60e51b815290819061187a9060048301611263565b0390fdfeab40a374bc51de372200a8bc981af8c9ecdc08dfdaef0bb6e09f88f3c616ef3da2646970667358221220b2882eec86e31b31416fe066b13afb2e2337eedfaa0d5ca6c2080600e2914f6064736f6c634300081c0033","linkReferences":{}},"methodIdentifiers":{"deposit(address,uint256)":"47e7ef24","explanation()":"ab5921e1","getTVLLimits()":"df6fadc1","initialize(address,address)":"485cc955","initialize(uint256,uint256,address,address)":"019e2729","maxPerDeposit()":"43fe08b0","maxTotalDeposits()":"61b01b5d","pause(uint256)":"136439dd","pauseAll()":"595c6a67","paused()":"5c975abb","paused(uint8)":"5ac86ab7","pauserRegistry()":"886f1195","setPauserRegistry(address)":"10d67a2f","setTVLLimits(uint256,uint256)":"11c70c9d","shares(address)":"ce7c2ac2","sharesToUnderlying(uint256)":"f3e73875","sharesToUnderlyingView(uint256)":"7a8b2637","strategyManager()":"39b70e38","totalShares()":"3a98ef39","underlyingToShares(uint256)":"8c871019","underlyingToSharesView(uint256)":"e3dae51c","underlyingToken()":"2495a599","unpause(uint256)":"fabc1cbc","userUnderlying(address)":"8f6a6240","userUnderlyingView(address)":"553ca5f8","withdraw(address,address,uint256)":"d9caed12"},"id":45}