{"abi":[{"type":"constructor","inputs":[],"stateMutability":"nonpayable"},{"type":"function","name":"CLOCK_MODE","inputs":[],"outputs":[{"name":"","type":"string","internalType":"string"}],"stateMutability":"view"},{"type":"function","name":"DEFAULT_ADMIN_ROLE","inputs":[],"outputs":[{"name":"","type":"bytes32","internalType":"bytes32"}],"stateMutability":"view"},{"type":"function","name":"MINTER_ROLE","inputs":[],"outputs":[{"name":"","type":"bytes32","internalType":"bytes32"}],"stateMutability":"view"},{"type":"function","name":"addTrigger","inputs":[{"name":"serviceId","type":"string","internalType":"string"},{"name":"workflowId","type":"string","internalType":"string"},{"name":"data","type":"bytes","internalType":"bytes"}],"outputs":[],"stateMutability":"nonpayable"},{"type":"function","name":"approve","inputs":[{"name":"to","type":"address","internalType":"address"},{"name":"tokenId","type":"uint256","internalType":"uint256"}],"outputs":[],"stateMutability":"nonpayable"},{"type":"function","name":"balanceOf","inputs":[{"name":"owner","type":"address","internalType":"address"}],"outputs":[{"name":"","type":"uint256","internalType":"uint256"}],"stateMutability":"view"},{"type":"function","name":"burn","inputs":[{"name":"tokenId","type":"uint256","internalType":"uint256"}],"outputs":[],"stateMutability":"nonpayable"},{"type":"function","name":"clock","inputs":[],"outputs":[{"name":"","type":"uint48","internalType":"uint48"}],"stateMutability":"view"},{"type":"function","name":"delegate","inputs":[{"name":"delegatee","type":"address","internalType":"address"}],"outputs":[],"stateMutability":"nonpayable"},{"type":"function","name":"delegateBySig","inputs":[{"name":"delegatee","type":"address","internalType":"address"},{"name":"nonce","type":"uint256","internalType":"uint256"},{"name":"expiry","type":"uint256","internalType":"uint256"},{"name":"v","type":"uint8","internalType":"uint8"},{"name":"r","type":"bytes32","internalType":"bytes32"},{"name":"s","type":"bytes32","internalType":"bytes32"}],"outputs":[],"stateMutability":"nonpayable"},{"type":"function","name":"delegates","inputs":[{"name":"account","type":"address","internalType":"address"}],"outputs":[{"name":"","type":"address","internalType":"address"}],"stateMutability":"view"},{"type":"function","name":"eip712Domain","inputs":[],"outputs":[{"name":"fields","type":"bytes1","internalType":"bytes1"},{"name":"name","type":"string","internalType":"string"},{"name":"version","type":"string","internalType":"string"},{"name":"chainId","type":"uint256","internalType":"uint256"},{"name":"verifyingContract","type":"address","internalType":"address"},{"name":"salt","type":"bytes32","internalType":"bytes32"},{"name":"extensions","type":"uint256[]","internalType":"uint256[]"}],"stateMutability":"view"},{"type":"function","name":"getApproved","inputs":[{"name":"tokenId","type":"uint256","internalType":"uint256"}],"outputs":[{"name":"","type":"address","internalType":"address"}],"stateMutability":"view"},{"type":"function","name":"getPastTotalSupply","inputs":[{"name":"timepoint","type":"uint256","internalType":"uint256"}],"outputs":[{"name":"","type":"uint256","internalType":"uint256"}],"stateMutability":"view"},{"type":"function","name":"getPastVotes","inputs":[{"name":"account","type":"address","internalType":"address"},{"name":"timepoint","type":"uint256","internalType":"uint256"}],"outputs":[{"name":"","type":"uint256","internalType":"uint256"}],"stateMutability":"view"},{"type":"function","name":"getRoleAdmin","inputs":[{"name":"role","type":"bytes32","internalType":"bytes32"}],"outputs":[{"name":"","type":"bytes32","internalType":"bytes32"}],"stateMutability":"view"},{"type":"function","name":"getTrigger","inputs":[{"name":"triggerId","type":"uint64","internalType":"ILayerTrigger.TriggerId"}],"outputs":[{"name":"","type":"tuple","internalType":"struct ILayerTrigger.TriggerResponse","components":[{"name":"triggerId","type":"uint64","internalType":"ILayerTrigger.TriggerId"},{"name":"serviceId","type":"string","internalType":"string"},{"name":"workflowId","type":"string","internalType":"string"},{"name":"creator","type":"address","internalType":"address"},{"name":"data","type":"bytes","internalType":"bytes"}]}],"stateMutability":"view"},{"type":"function","name":"getVotes","inputs":[{"name":"account","type":"address","internalType":"address"}],"outputs":[{"name":"","type":"uint256","internalType":"uint256"}],"stateMutability":"view"},{"type":"function","name":"grantRole","inputs":[{"name":"role","type":"bytes32","internalType":"bytes32"},{"name":"account","type":"address","internalType":"address"}],"outputs":[],"stateMutability":"nonpayable"},{"type":"function","name":"hasRole","inputs":[{"name":"role","type":"bytes32","internalType":"bytes32"},{"name":"account","type":"address","internalType":"address"}],"outputs":[{"name":"","type":"bool","internalType":"bool"}],"stateMutability":"view"},{"type":"function","name":"initialize","inputs":[{"name":"defaultAdmin","type":"address","internalType":"address"},{"name":"minter","type":"address","internalType":"address"}],"outputs":[],"stateMutability":"nonpayable"},{"type":"function","name":"isApprovedForAll","inputs":[{"name":"owner","type":"address","internalType":"address"},{"name":"operator","type":"address","internalType":"address"}],"outputs":[{"name":"","type":"bool","internalType":"bool"}],"stateMutability":"view"},{"type":"function","name":"name","inputs":[],"outputs":[{"name":"","type":"string","internalType":"string"}],"stateMutability":"view"},{"type":"function","name":"nextTriggerId","inputs":[],"outputs":[{"name":"","type":"uint64","internalType":"ILayerTrigger.TriggerId"}],"stateMutability":"view"},{"type":"function","name":"nonces","inputs":[{"name":"owner","type":"address","internalType":"address"}],"outputs":[{"name":"","type":"uint256","internalType":"uint256"}],"stateMutability":"view"},{"type":"function","name":"ownerOf","inputs":[{"name":"tokenId","type":"uint256","internalType":"uint256"}],"outputs":[{"name":"","type":"address","internalType":"address"}],"stateMutability":"view"},{"type":"function","name":"renounceRole","inputs":[{"name":"role","type":"bytes32","internalType":"bytes32"},{"name":"callerConfirmation","type":"address","internalType":"address"}],"outputs":[],"stateMutability":"nonpayable"},{"type":"function","name":"revokeRole","inputs":[{"name":"role","type":"bytes32","internalType":"bytes32"},{"name":"account","type":"address","internalType":"address"}],"outputs":[],"stateMutability":"nonpayable"},{"type":"function","name":"safeMint","inputs":[{"name":"to","type":"address","internalType":"address"},{"name":"uri","type":"string","internalType":"string"}],"outputs":[],"stateMutability":"nonpayable"},{"type":"function","name":"safeTransferFrom","inputs":[{"name":"from","type":"address","internalType":"address"},{"name":"to","type":"address","internalType":"address"},{"name":"tokenId","type":"uint256","internalType":"uint256"}],"outputs":[],"stateMutability":"nonpayable"},{"type":"function","name":"safeTransferFrom","inputs":[{"name":"from","type":"address","internalType":"address"},{"name":"to","type":"address","internalType":"address"},{"name":"tokenId","type":"uint256","internalType":"uint256"},{"name":"data","type":"bytes","internalType":"bytes"}],"outputs":[],"stateMutability":"nonpayable"},{"type":"function","name":"setApprovalForAll","inputs":[{"name":"operator","type":"address","internalType":"address"},{"name":"approved","type":"bool","internalType":"bool"}],"outputs":[],"stateMutability":"nonpayable"},{"type":"function","name":"supportsInterface","inputs":[{"name":"interfaceId","type":"bytes4","internalType":"bytes4"}],"outputs":[{"name":"","type":"bool","internalType":"bool"}],"stateMutability":"view"},{"type":"function","name":"symbol","inputs":[],"outputs":[{"name":"","type":"string","internalType":"string"}],"stateMutability":"view"},{"type":"function","name":"tokenByIndex","inputs":[{"name":"index","type":"uint256","internalType":"uint256"}],"outputs":[{"name":"","type":"uint256","internalType":"uint256"}],"stateMutability":"view"},{"type":"function","name":"tokenOfOwnerByIndex","inputs":[{"name":"owner","type":"address","internalType":"address"},{"name":"index","type":"uint256","internalType":"uint256"}],"outputs":[{"name":"","type":"uint256","internalType":"uint256"}],"stateMutability":"view"},{"type":"function","name":"tokenURI","inputs":[{"name":"tokenId","type":"uint256","internalType":"uint256"}],"outputs":[{"name":"","type":"string","internalType":"string"}],"stateMutability":"view"},{"type":"function","name":"totalSupply","inputs":[],"outputs":[{"name":"","type":"uint256","internalType":"uint256"}],"stateMutability":"view"},{"type":"function","name":"transferFrom","inputs":[{"name":"from","type":"address","internalType":"address"},{"name":"to","type":"address","internalType":"address"},{"name":"tokenId","type":"uint256","internalType":"uint256"}],"outputs":[],"stateMutability":"nonpayable"},{"type":"function","name":"triggerIdsByCreator","inputs":[{"name":"","type":"address","internalType":"address"},{"name":"","type":"uint256","internalType":"uint256"}],"outputs":[{"name":"","type":"uint64","internalType":"ILayerTrigger.TriggerId"}],"stateMutability":"view"},{"type":"function","name":"triggersById","inputs":[{"name":"","type":"uint64","internalType":"ILayerTrigger.TriggerId"}],"outputs":[{"name":"serviceId","type":"string","internalType":"string"},{"name":"workflowId","type":"string","internalType":"string"},{"name":"creator","type":"address","internalType":"address"},{"name":"data","type":"bytes","internalType":"bytes"}],"stateMutability":"view"},{"type":"event","name":"Approval","inputs":[{"name":"owner","type":"address","indexed":true,"internalType":"address"},{"name":"approved","type":"address","indexed":true,"internalType":"address"},{"name":"tokenId","type":"uint256","indexed":true,"internalType":"uint256"}],"anonymous":false},{"type":"event","name":"ApprovalForAll","inputs":[{"name":"owner","type":"address","indexed":true,"internalType":"address"},{"name":"operator","type":"address","indexed":true,"internalType":"address"},{"name":"approved","type":"bool","indexed":false,"internalType":"bool"}],"anonymous":false},{"type":"event","name":"BatchMetadataUpdate","inputs":[{"name":"_fromTokenId","type":"uint256","indexed":false,"internalType":"uint256"},{"name":"_toTokenId","type":"uint256","indexed":false,"internalType":"uint256"}],"anonymous":false},{"type":"event","name":"DelegateChanged","inputs":[{"name":"delegator","type":"address","indexed":true,"internalType":"address"},{"name":"fromDelegate","type":"address","indexed":true,"internalType":"address"},{"name":"toDelegate","type":"address","indexed":true,"internalType":"address"}],"anonymous":false},{"type":"event","name":"DelegateVotesChanged","inputs":[{"name":"delegate","type":"address","indexed":true,"internalType":"address"},{"name":"previousVotes","type":"uint256","indexed":false,"internalType":"uint256"},{"name":"newVotes","type":"uint256","indexed":false,"internalType":"uint256"}],"anonymous":false},{"type":"event","name":"EIP712DomainChanged","inputs":[],"anonymous":false},{"type":"event","name":"Initialized","inputs":[{"name":"version","type":"uint64","indexed":false,"internalType":"uint64"}],"anonymous":false},{"type":"event","name":"MetadataUpdate","inputs":[{"name":"_tokenId","type":"uint256","indexed":false,"internalType":"uint256"}],"anonymous":false},{"type":"event","name":"NewTrigger","inputs":[{"name":"serviceId","type":"string","indexed":false,"internalType":"string"},{"name":"workflowId","type":"string","indexed":false,"internalType":"string"},{"name":"triggerId","type":"uint64","indexed":true,"internalType":"ILayerTrigger.TriggerId"}],"anonymous":false},{"type":"event","name":"RoleAdminChanged","inputs":[{"name":"role","type":"bytes32","indexed":true,"internalType":"bytes32"},{"name":"previousAdminRole","type":"bytes32","indexed":true,"internalType":"bytes32"},{"name":"newAdminRole","type":"bytes32","indexed":true,"internalType":"bytes32"}],"anonymous":false},{"type":"event","name":"RoleGranted","inputs":[{"name":"role","type":"bytes32","indexed":true,"internalType":"bytes32"},{"name":"account","type":"address","indexed":true,"internalType":"address"},{"name":"sender","type":"address","indexed":true,"internalType":"address"}],"anonymous":false},{"type":"event","name":"RoleRevoked","inputs":[{"name":"role","type":"bytes32","indexed":true,"internalType":"bytes32"},{"name":"account","type":"address","indexed":true,"internalType":"address"},{"name":"sender","type":"address","indexed":true,"internalType":"address"}],"anonymous":false},{"type":"event","name":"Transfer","inputs":[{"name":"from","type":"address","indexed":true,"internalType":"address"},{"name":"to","type":"address","indexed":true,"internalType":"address"},{"name":"tokenId","type":"uint256","indexed":true,"internalType":"uint256"}],"anonymous":false},{"type":"error","name":"AccessControlBadConfirmation","inputs":[]},{"type":"error","name":"AccessControlUnauthorizedAccount","inputs":[{"name":"account","type":"address","internalType":"address"},{"name":"neededRole","type":"bytes32","internalType":"bytes32"}]},{"type":"error","name":"CheckpointUnorderedInsertion","inputs":[]},{"type":"error","name":"ECDSAInvalidSignature","inputs":[]},{"type":"error","name":"ECDSAInvalidSignatureLength","inputs":[{"name":"length","type":"uint256","internalType":"uint256"}]},{"type":"error","name":"ECDSAInvalidSignatureS","inputs":[{"name":"s","type":"bytes32","internalType":"bytes32"}]},{"type":"error","name":"ERC5805FutureLookup","inputs":[{"name":"timepoint","type":"uint256","internalType":"uint256"},{"name":"clock","type":"uint48","internalType":"uint48"}]},{"type":"error","name":"ERC6372InconsistentClock","inputs":[]},{"type":"error","name":"ERC721EnumerableForbiddenBatchMint","inputs":[]},{"type":"error","name":"ERC721IncorrectOwner","inputs":[{"name":"sender","type":"address","internalType":"address"},{"name":"tokenId","type":"uint256","internalType":"uint256"},{"name":"owner","type":"address","internalType":"address"}]},{"type":"error","name":"ERC721InsufficientApproval","inputs":[{"name":"operator","type":"address","internalType":"address"},{"name":"tokenId","type":"uint256","internalType":"uint256"}]},{"type":"error","name":"ERC721InvalidApprover","inputs":[{"name":"approver","type":"address","internalType":"address"}]},{"type":"error","name":"ERC721InvalidOperator","inputs":[{"name":"operator","type":"address","internalType":"address"}]},{"type":"error","name":"ERC721InvalidOwner","inputs":[{"name":"owner","type":"address","internalType":"address"}]},{"type":"error","name":"ERC721InvalidReceiver","inputs":[{"name":"receiver","type":"address","internalType":"address"}]},{"type":"error","name":"ERC721InvalidSender","inputs":[{"name":"sender","type":"address","internalType":"address"}]},{"type":"error","name":"ERC721NonexistentToken","inputs":[{"name":"tokenId","type":"uint256","internalType":"uint256"}]},{"type":"error","name":"ERC721OutOfBoundsIndex","inputs":[{"name":"owner","type":"address","internalType":"address"},{"name":"index","type":"uint256","internalType":"uint256"}]},{"type":"error","name":"InvalidAccountNonce","inputs":[{"name":"account","type":"address","internalType":"address"},{"name":"currentNonce","type":"uint256","internalType":"uint256"}]},{"type":"error","name":"InvalidInitialization","inputs":[]},{"type":"error","name":"NotInitializing","inputs":[]},{"type":"error","name":"SafeCastOverflowedUintDowncast","inputs":[{"name":"bits","type":"uint8","internalType":"uint8"},{"name":"value","type":"uint256","internalType":"uint256"}]},{"type":"error","name":"VotesExpiredSignature","inputs":[{"name":"expiry","type":"uint256","internalType":"uint256"}]}],"bytecode":{"object":"0x6080806040523460d2577ff0c57e16840df040f15088dc2f81fe391c3923bec73e23a9662efc9c229c6a005460ff8160401c1660c1576002600160401b03196001600160401b03821601605c575b60405161411190816100d88239f35b6001600160401b0319166001600160401b039081177ff0c57e16840df040f15088dc2f81fe391c3923bec73e23a9662efc9c229c6a005581527fc7f505b2f371ae2175ee4913f4499e1f2633a7b5936321eed1cdaeb6115181d290602090a13880604d565b63f92ee8a960e01b60005260046000fd5b600080fdfe6080604052600436101561001257600080fd5b60003560e01c806301ffc9a7146102a757806306fdde03146102a2578063081812fc1461029d578063095ea7b31461029857806318160ddd1461029357806323b872dd1461028e578063248a9ca3146102895780632f2ff15d146102845780632f745c591461027f57806330628cc81461027a57806336568abe146102755780633a46b1a81461027057806342227fa41461026b57806342842e0e1461026657806342966c6814610261578063485cc9551461025c5780634bf5d7e9146102575780634f6ccce714610252578063587cde1e1461024d5780635c19a95c146102485780636352211e1461024357806370a082311461023e5780637ecebe001461023957806384b0196e146102345780638e539e8c1461022f578063913b1fbf1461022a57806391d148541461022557806391ddadf41461022057806395d89b411461021b5780639ab24eb014610216578063a217fddf14610211578063a22cb4651461020c578063b88d4fde14610207578063c3cda52014610202578063c87b56dd146101fd578063ce289612146101f8578063d204c45e146101f3578063d5391393146101ee578063d547741f146101e9578063e328ed77146101e45763e985e9c5146101df57600080fd5b611be5565b611b18565b611a70565b611a35565b611969565b6118b0565b611783565b611641565b6115ed565b611559565b61153d565b611501565b61143f565b611413565b6113b3565b611342565b6110ff565b611017565b610f39565b610f16565b610ef8565b610ed6565b610e75565b610e15565b610d83565b610c0a565b610bed565b610bb7565b610b8e565b610a72565b610a2c565b6108bb565b61073d565b610707565b6106e1565b6106ca565b610665565b61055b565b6104d2565b6103df565b6102c3565b6001600160e01b03198116036102be57565b600080fd5b346102be5760203660031901126102be576103116004356102e3816102ac565b63ffffffff60e01b16637965db0b60e01b8114908115610315575b5060405190151581529081906020820190565b0390f35b632483248360e11b81149150811561032f575b50386102fe565b63780e9d6360e01b811491508115610349575b5038610328565b6380ac58cd60e01b81149150811561037b575b811561036a575b5038610342565b6301ffc9a760e01b14905038610363565b635b5e139f60e01b8114915061035c565b919082518082526020808301940160005b8281106103bb575050600081602094950152601f8019910116010190565b818101518682015260200161039d565b9060206103dc92818152019061038c565b90565b346102be5760003660031901126102be576040516000600080516020613f7c8339815191525461040e816117d8565b80845290600181169081156104ae5750600114610442575b610311836104368185038261080b565b604051918291826103cb565b600080516020613f7c83398151915260009081527f37c58c799b6609234b945e882912ee9ad34948a1dfaa20a97485e1a7752bbf81939250905b80821061049457509091508101602001610436610426565b91926001816020925483858801015201910190929161047c565b60ff191660208086019190915291151560051b840190910191506104369050610426565b346102be5760203660031901126102be57602061051d6004356104f481612569565b50600090815260008051602061407c83398151915260205260409020546001600160a01b031690565b6040516001600160a01b039091168152f35b600435906001600160a01b03821682036102be57565b602435906001600160a01b03821682036102be57565b346102be5760403660031901126102be5761057461052f565b6024359061058182612569565b33151580610652575b80610623575b61060e5761060c926105ed9181906001600160a01b0385811691167f8c5be1e5ebec7d5bd14f71427d1e84f3dd0314c0f7b2291e5b200ac8c7c3b925600080a460005260008051602061407c833981519152602052604060002090565b80546001600160a01b0319166001600160a01b03909216919091179055565b005b63a9fbf51f60e01b6000523360045260246000fd5b5060ff61064a3361063384611292565b9060018060a01b0316600052602052604060002090565b541615610590565b506001600160a01b03811633141561058a565b346102be5760003660031901126102be57602060008051602061401c83398151915254604051908152f35b60609060031901126102be576004356001600160a01b03811681036102be57906024356001600160a01b03811681036102be579060443590565b346102be5761060c6106db36610690565b91611c16565b346102be5760203660031901126102be5760206106ff600435611d4b565b604051908152f35b346102be5760403660031901126102be5761060c600435610726610545565b9061073861073382611d4b565b61260c565b6127df565b346102be5760403660031901126102be5761075661052f565b6024359061076381612537565b8210156107b6576001600160a01b031660009081527f645e039705490088daad89bae25049a34f4a9072d398537b1ab2425f24cbed00602090815260408083209383529281529082902054915191825290f35b63295f44f760e21b60005260018060a01b031660045260245260446000fd5b634e487b7160e01b600052604160045260246000fd5b60a081019081106001600160401b0382111761080657604052565b6107d5565b90601f801991011681019081106001600160401b0382111761080657604052565b6040519061083b60808361080b565b565b6040519061083b60a08361080b565b6040519061083b60408361080b565b6001600160401b03811161080657601f01601f191660200190565b81601f820112156102be576020813591016108908261085b565b9261089e604051948561080b565b828452828201116102be5781600092602092838601378301015290565b346102be5760603660031901126102be576004356001600160401b0381116102be576108eb903690600401610876565b6024356001600160401b0381116102be5761090a903690600401610876565b6044356001600160401b0381116102be57610929903690600401610876565b9060016001600160401b036003541601916001600160401b038311610a2757610a226001600160401b03926109a46109887f8a81be05064e2aef2ff874e33696c0ee4c4177c775d7fd263bdb2bd666ffffd9966001600160401b031690565b6001600160401b03166001600160401b03196003541617600355565b6109fa6109b96003546001600160401b031690565b936109c261082c565b888152602081018490523360408201529060608201526109f5856001600160401b03166000526001602052604060002090565b612177565b336000908152600260205260409020610a14908490612292565b6040519384931695836122cd565b0390a2005b611d6c565b346102be5760403660031901126102be57600435610a48610545565b336001600160a01b03821603610a615761060c9161288d565b63334bd91960e11b60005260046000fd5b346102be5760403660031901126102be57610a8b61052f565b6024359065ffffffffffff610a9f43612932565b1680831015610b765750610ab5610abb91611259565b91612932565b90600090805482938160058111610b1a575b509061031194610add9284613563565b80610aff5750505b6040516001600160d01b0390911681529081906020820190565b610b0890612963565b9082526020909120015460301c610ae5565b94610b2486613405565b8603958611610a275761031195610add9385875265ffffffffffff826020892001541665ffffffffffff851610600014610b645750915b91925094610acd565b929150610b7090612972565b90610b5b565b82637669fc0f60e11b60005260045260245260446000fd5b346102be5760003660031901126102be576003546040516001600160401b039091168152602090f35b346102be5761060c610bc836610690565b9060405192610bd860208561080b565b60008452610be7838383611c16565b33612eb1565b346102be5760203660031901126102be5761060c336004356131cd565b346102be5760403660031901126102be57610c2361052f565b610c2b610545565b60008051602061409c8339815191525491906001600160401b03610c5e60ff604086901c1615946001600160401b031690565b1680159081610d7b575b6001149081610d71575b159081610d68575b50610d5757610cbf9183610cb660016001600160401b031960008051602061409c83398151915254161760008051602061409c83398151915255565b610d205761234c565b610cc557005b610cf160ff60401b1960008051602061409c833981519152541660008051602061409c83398151915255565b604051600181527fc7f505b2f371ae2175ee4913f4499e1f2633a7b5936321eed1cdaeb6115181d290602090a1005b610d52600160401b60ff60401b1960008051602061409c83398151915254161760008051602061409c83398151915255565b61234c565b63f92ee8a960e01b60005260046000fd5b90501538610c7a565b303b159150610c72565b849150610c68565b346102be5760003660031901126102be57610d9d43612932565b65ffffffffffff80610dae43612932565b16911603610e04576103116040805190610dc8818361080b565b601d82527f6d6f64653d626c6f636b6e756d6265722666726f6d3d64656661756c7400000060208301525191829160208352602083019061038c565b6301bfc1c560e61b60005260046000fd5b346102be5760203660031901126102be5760043560008051602061401c83398151915254811015610e5c57610e4990612502565b905460405160039290921b1c8152602090f35b63295f44f760e21b600052600060045260245260446000fd5b346102be5760203660031901126102be576001600160a01b03610e9661052f565b166000527fe8b26c30fad74198956032a3533d903385d56dd795af560196f9c78d4af40d00602052602060018060a01b0360406000205416604051908152f35b346102be5760203660031901126102be5761060c610ef261052f565b33612b02565b346102be5760203660031901126102be57602061051d600435612569565b346102be5760203660031901126102be5760206106ff610f3461052f565b612537565b346102be5760203660031901126102be576001600160a01b03610f5a61052f565b166000527f5ab42ced628888259c08ac98db1eb0cf702fc1501344311d8b100cd1bfe4bb006020526020604060002054604051908152f35b929391610fb4610fc292600f60f81b865260e0602087015260e086019061038c565b90848203604086015261038c565b92606083015260018060a01b03166080820152600060a082015260c08183039101526020808351928381520192019060005b8181106110015750505090565b8251845260209384019390920191600101610ff4565b346102be5760003660031901126102be577fa16a46d94261c7517cc8ff89f61c0ce93598e3c849801011dee649a6a557d1005415806110d6575b156110995761105e612b96565b611066612c65565b9061031160206040519061107a818361080b565b60008252601f1981019036908301376040519384933091469186610f92565b60405162461bcd60e51b81526020600482015260156024820152741152540dcc4c8e88155b9a5b9a5d1a585b1a5e9959605a1b6044820152606490fd5b507fa16a46d94261c7517cc8ff89f61c0ce93598e3c849801011dee649a6a557d1015415611051565b346102be5760203660031901126102be5760043565ffffffffffff61112343612932565b1690818110156112425761113690612932565b6000600080516020613ffc83398151915254819281600581116111d8575b50906103119361117292600080516020613ffc833981519152613563565b8061119257506040516001600160d01b0390911681529081906020820190565b61119b90612963565b600080516020613ffc8339815191529091527f88c46c62109817164d0ae1873830d4299a82e5daf552a3d8e989b27638fcf748015460301c610ae5565b936111e285613405565b8503948511610a27576103119461117293600080516020613ffc833981519152865265ffffffffffff826020882001541665ffffffffffff8516106000146112305750915b91925093611154565b92915061123c90612972565b90611227565b637669fc0f60e11b60005260045260245260446000fd5b6001600160a01b031660009081527fe8b26c30fad74198956032a3533d903385d56dd795af560196f9c78d4af40d016020526040902090565b6001600160a01b031660009081527f80bb2b638cc20bc4d0a60d66940f3ab4a00c1d7b313497ca82fb0b4ab00793056020526040902090565b6001600160a01b031660009081527f80bb2b638cc20bc4d0a60d66940f3ab4a00c1d7b313497ca82fb0b4ab00793036020526040902090565b634e487b7160e01b600052603260045260246000fd5b919091805483101561133d57600052601860206000208360021c019260031b1690565b611304565b346102be5760403660031901126102be5761135b61052f565b6001600160a01b03166000908152600260205260409020805460243591908210156102be576001600160401b03916113929161131a565b90549060031b1c1660405180916001600160401b0360208301911682520390f35b346102be5760403660031901126102be57602060ff6114076004356113d6610545565b9060005260008051602061403c833981519152845260406000209060018060a01b0316600052602052604060002090565b54166040519015158152f35b346102be5760003660031901126102be57602061142f43612932565b65ffffffffffff60405191168152f35b346102be5760003660031901126102be5760405160006000805160206140bc8339815191525461146e816117d8565b80845290600181169081156104ae575060011461149557610311836104368185038261080b565b6000805160206140bc83398151915260009081527ff4bad0a69248f59680a4f2b3000328cec71a413447c96781cfe5996daa8c456e939250905b8082106114e757509091508101602001610436610426565b9192600181602092548385880101520191019092916114cf565b346102be5760203660031901126102be5760206001600160d01b0361153461152f61152a61052f565b611259565b612d14565b16604051908152f35b346102be5760003660031901126102be57602060405160008152f35b346102be5760403660031901126102be5761157261052f565b6024358015158091036102be576001600160a01b0382169182156115d85761159d9061063333611292565b60ff1981541660ff83161790556040519081527f17307eab39ab6107e8899845ad3d59bd9653f200f220920489ca2b5937696c3160203392a3005b82630b61174360e31b60005260045260246000fd5b346102be5760803660031901126102be5761160661052f565b61160e610545565b90604435606435926001600160401b0384116102be5761163561060c943690600401610876565b92610be7838383611c16565b346102be5760c03660031901126102be5761165a61052f565b6044359060243560643560ff811681036102be5760843560a4359185421161176e57916117629161176993604261060c9860405160208101917fe48329057bfd03d55e49b547132e39cffd9c1820ad7b9d4c5307691425d15adf835260018060a01b038b1660408301528960608301526080820152608081526116de60a08261080b565b5190206116e9613cbe565b6116f1613d28565b6040519060208201927f8b73c3c69bb8fe3d512ecc4cf759cc79239f7b179b0ffacaa9a75d522b39400f8452604083015260608201524660808201523060a082015260a0815261174260c08261080b565b519020906040519161190160f01b83526002830152602282015220612f4d565b9182612f65565b612b02565b85632341d78760e11b60005260045260246000fd5b346102be5760203660031901126102be576103116117a2600435612fc7565b60405191829160208352602083019061038c565b60209060031901126102be576004356001600160401b03811681036102be5790565b90600182811c92168015611808575b60208310146117f257565b634e487b7160e01b600052602260045260246000fd5b91607f16916117e7565b60009291815491611822836117d8565b8083529260018116908115611878575060011461183e57505050565b60009081526020812093945091925b83831061185e575060209250010190565b60018160209294939454838587010152019101919061184d565b915050602093945060ff929192191683830152151560051b010190565b9061083b6118a99260405193848092611812565b038361080b565b346102be576001600160401b036118c6366117b6565b1660005260016020526119486040600020610311604051916118f3836118ec8184611812565b038461080b565b60036119566040516119138161190c8160018801611812565b038261080b565b61193460018060a01b03600286015416946118ec6040518096819301611812565b60405196879660808852608088019061038c565b90868203602088015261038c565b916040850152838203606085015261038c565b346102be5760403660031901126102be5761198261052f565b6024356001600160401b0381116102be576119a1903690600401610876565b6119a961259a565b6000546000198114610a275760018101600055604051926119cb60208561080b565b600084526001600160a01b03811615611a1f576001600160a01b036119f083836132dd565b16611a095761060c9382611a049233612db9565b613023565b6339e3563760e11b600052600060045260246000fd5b633250574960e11b600052600060045260246000fd5b346102be5760003660031901126102be5760206040517f9f2df0fed2c77648de5860a4cc508cd0818c85b8b8a1ab4ceeef8d981c8956a68152f35b346102be5760403660031901126102be5761060c600435611a8f610545565b90611a9c61073382611d4b565b61288d565b906103dc91602081526001600160401b0382511660208201526080611aee611ad8602085015160a0604086015260c085019061038c565b6040850151848203601f1901606086015261038c565b60608401516001600160a01b031682840152920151601f198284030160a09092019190915261038c565b346102be57610311611b29366117b6565b60606080604051611b39816107eb565b600081528260208201528260408201526000838201520152611bd46003611b73836001600160401b03166000526001602052604060002090565b6002810154611bce906001600160a01b0316611b9f611b9061083d565b6001600160401b039097168752565b611ba883611895565b6020870152611bb960018401611895565b60408701526001600160a01b03166060860152565b01611895565b608082015260405191829182611aa1565b346102be5760403660031901126102be57602060ff611407611c0561052f565b610633611c10610545565b91611292565b6001600160a01b03821692918315611a1f57611cc7611c3484613174565b9133611d3b575b6001600160a01b0383169586158015611d1c575b611c58836112cb565b60018154019055611c84836105ed8960005260008051602061405c833981519152602052604060002090565b8682897fddf252ad1be2c89b69c2b068fc378daa952ba7f163c4a11628f55a4df523b3ef600080a415611d0657611cba86613aea565b8603611cf7575b82613832565b506001600160a01b0316808303611cdd57505050565b6364283d7b60e01b60005260045260245260445260646000fd5b611d018582613b5d565b611cc1565b868114611cba57611d178685613a16565b611cba565b611d258761319c565b611d2e856112cb565b8054600019019055611c4f565b611d46853385613d6d565b611c3b565b60005260008051602061403c83398151915260205260016040600020015490565b634e487b7160e01b600052601160045260246000fd5b818110611d8d575050565b60008155600101611d82565b90601f8211611da6575050565b61083b91600080516020613f7c8339815191526000526020600020906020601f840160051c83019310611de1575b601f0160051c0190611d82565b9091508190611dd4565b90601f8211611df8575050565b61083b91600080516020613f9c8339815191526000526020600020906020601f840160051c83019310611de157601f0160051c0190611d82565b9190601f8111611e4157505050565b61083b926000526020600020906020601f840160051c83019310611de157601f0160051c0190611d82565b9081516001600160401b03811161080657611ead81611e996000805160206140bc833981519152546117d8565b6000805160206140bc833981519152611e32565b602092601f8211600114611efc57611edf92938291600092611ef1575b50508160011b916000199060031b1c19161790565b6000805160206140bc83398151915255565b015190503880611eca565b6000805160206140bc833981519152600052601f198216937ff4bad0a69248f59680a4f2b3000328cec71a413447c96781cfe5996daa8c456e9160005b868110611f7d5750836001959610611f64575b505050811b016000805160206140bc83398151915255565b015160001960f88460031b161c19169055388080611f4c565b91926020600181928685015181550194019201611f39565b9081516001600160401b03811161080657611fd681611fc2600080516020613fdc833981519152546117d8565b600080516020613fdc833981519152611e32565b602092601f82116001146120195761200792938291600092611ef15750508160011b916000199060031b1c19161790565b600080516020613fdc83398151915255565b600080516020613fdc833981519152600052601f198216937f5f9ce34815f8e11431c7bb75a8e6886a91478f7ffc1dbb0a98dc240fddd76b759160005b86811061209a5750836001959610612081575b505050811b01600080516020613fdc83398151915255565b015160001960f88460031b161c19169055388080612069565b91926020600181928685015181550194019201612056565b91909182516001600160401b038111610806576120d9816120d384546117d8565b84611e32565b6020601f821160011461210e57819061210a939495600092611ef15750508160011b916000199060031b1c19161790565b9055565b601f1982169061212384600052602060002090565b9160005b81811061215f57509583600195969710612146575b505050811b019055565b015160001960f88460031b161c1916905538808061213c565b9192602060018192868b015181550194019201612127565b91909182519283516001600160401b038111610806576121a18161219b85546117d8565b85611e32565b6020601f821160011461221d57916121da8260609360039561083b9899600092611ef15750508160011b916000199060031b1c19161790565b84555b6121ee6020820151600186016120b2565b60408101516002850180546001600160a01b0319166001600160a01b03909216919091179055015191016120b2565b601f1982169561223285600052602060002090565b9660005b81811061227a57509261083b9697600395936001938360609710612262575b505050811b0184556121dd565b015160001983881b60f8161c19169055388080612255565b83830151895560019098019760209384019301612236565b8054600160401b811015610806576122af9160018201815561131a565b6001600160401b0380839493549260031b9316831b921b1916179055565b90916122e46103dc9360408452604084019061038c565b91602081840391015261038c565b6040519061230160408361080b565b601d82527f436f6c6c65637469766520537570657220496e74656c6c6967656e63650000006020830152565b6040519061233c60408361080b565b60018252603160f81b6020830152565b6123546122f2565b6040519061236360408361080b565b600382526243534960e81b602083015261237b6135ca565b6123836135ca565b8051906001600160401b038211610806576123b5826123b0600080516020613f7c833981519152546117d8565b611d99565b602090601f831160011461245657926123f2836124539796946124079461244d97600092611ef15750508160011b916000199060031b1c19161790565b600080516020613f7c83398151915255611e6c565b61240f6135ca565b6124176135ca565b61241f6135ca565b6124276135ca565b6124406124326122f2565b61243a61232d565b90612980565b6124486135ca565b612656565b50612708565b50565b600080516020613f7c833981519152600052601f19831691907f37c58c799b6609234b945e882912ee9ad34948a1dfaa20a97485e1a7752bbf819260005b8181106124ea5750936124079361244d9693600193836124539b9a98106124d1575b505050811b01600080516020613f7c83398151915255611e6c565b015160001960f88460031b161c191690553880806124b6565b92936020600181928786015181550195019301612494565b60008051602061401c8339815191525481101561133d5760008051602061401c83398151915260005260206000200190600090565b6001600160a01b038116156125535761254f906112cb565b5490565b6322718ad960e21b600052600060045260246000fd5b61257281613174565b906001600160a01b03821615612586575090565b637e27328960e01b60005260045260246000fd5b3360009081527f549fe2656c81d2947b3b913f0a53b9ea86c71e049f3a1b8aa23c09a8a05cb8d4602052604090205460ff16156125d357565b63e2517d3f60e01b600052336004527f9f2df0fed2c77648de5860a4cc508cd0818c85b8b8a1ab4ceeef8d981c8956a660245260446000fd5b600081815260008051602061403c8339815191526020908152604080832033845290915290205460ff161561263e5750565b63e2517d3f60e01b6000523360045260245260446000fd5b6001600160a01b03811660009081527fb7db2dd08fcb62d0c9e08c51941cae53c267786a0b75803fb7960902fc8ef97d602052604090205460ff16612702576001600160a01b031660008181527fb7db2dd08fcb62d0c9e08c51941cae53c267786a0b75803fb7960902fc8ef97d60205260408120805460ff191660011790553391907f2f8788117e7eff1d82e926ec794901d17c78024a50270940304540a733656f0d8180a4600190565b50600090565b6001600160a01b03811660009081527f549fe2656c81d2947b3b913f0a53b9ea86c71e049f3a1b8aa23c09a8a05cb8d4602052604090205460ff16612702576001600160a01b03811660009081527f549fe2656c81d2947b3b913f0a53b9ea86c71e049f3a1b8aa23c09a8a05cb8d460205260409020805460ff1916600117905533906001600160a01b03167f9f2df0fed2c77648de5860a4cc508cd0818c85b8b8a1ab4ceeef8d981c8956a67f2f8788117e7eff1d82e926ec794901d17c78024a50270940304540a733656f0d600080a4600190565b600081815260008051602061403c833981519152602090815260408083206001600160a01b038616845290915290205460ff1661288657600081815260008051602061403c833981519152602090815260408083206001600160a01b03861684529091529020805460ff1916600117905533916001600160a01b0316907f2f8788117e7eff1d82e926ec794901d17c78024a50270940304540a733656f0d600080a4600190565b5050600090565b600081815260008051602061403c833981519152602090815260408083206001600160a01b038616845290915290205460ff161561288657600081815260008051602061403c833981519152602090815260408083206001600160a01b03861684529091529020805460ff1916905533916001600160a01b0316907ff6391f5c32d9c69d2a47ea670b442974b53935d1edc7fd64eb21e047a839171b600080a4600190565b65ffffffffffff811161294a5765ffffffffffff1690565b6306dfcc6560e41b600052603060045260245260446000fd5b600019810191908211610a2757565b9060018201809211610a2757565b6129886135ca565b6129906135ca565b8051906001600160401b038211610806576129c2826129bd600080516020613f9c833981519152546117d8565b611deb565b602090601f8311600114612a5e5791806129f792612a0c9594600092611ef15750508160011b916000199060031b1c19161790565b600080516020613f9c83398151915255611f95565b612a3560007fa16a46d94261c7517cc8ff89f61c0ce93598e3c849801011dee649a6a557d10055565b61083b60007fa16a46d94261c7517cc8ff89f61c0ce93598e3c849801011dee649a6a557d10155565b600080516020613f9c833981519152600052601f19831691907f42ad5d3e1f2e6e70edcf6d991b8a3023d3fca8047a131592f9edb9fd9b89d57d9260005b818110612aea5750916001939185612a0c97969410612ad1575b505050811b01600080516020613f9c83398151915255611f95565b015160001960f88460031b161c19169055388080612ab6565b92936020600181928786015181550195019301612a9c565b6001600160a01b0381811660008181527fe8b26c30fad74198956032a3533d903385d56dd795af560196f9c78d4af40d006020526040902080546001600160a01b031981168487161790915561083b94921692612b90916001600160a01b0384169085907f3134e8a2e6d97e929a7e54011ea5485d7d196dd5f0ba4d4ef95803e8e3fc257f600080a4612537565b916135f8565b604051600080516020613f9c83398151915254816000612bb5836117d8565b8083529260018116908115612c465750600114612bd9575b6103dc9250038261080b565b50600080516020613f9c833981519152600090815290917f42ad5d3e1f2e6e70edcf6d991b8a3023d3fca8047a131592f9edb9fd9b89d57d5b818310612c2a5750509060206103dc92820101612bcd565b6020919350806001915483858801015201910190918392612c12565b602092506103dc94915060ff191682840152151560051b820101612bcd565b604051600080516020613fdc83398151915254816000612c84836117d8565b8083529260018116908115612c465750600114612ca7576103dc9250038261080b565b50600080516020613fdc833981519152600090815290917f5f9ce34815f8e11431c7bb75a8e6886a91478f7ffc1dbb0a98dc240fddd76b755b818310612cf85750509060206103dc92820101612bcd565b6020919350806001915483858801015201910190918392612ce0565b80549081612d23575050600090565b81600019810111610a275760005260001990602060002001015460301c90565b908160209103126102be57516103dc816102ac565b6001600160a01b0391821681529116602082015260408101919091526080606082018190526103dc9291019061038c565b3d15612db4573d90612d9a8261085b565b91612da8604051938461080b565b82523d6000602084013e565b606090565b9092833b612dc8575b50505050565b604051630a85bd0160e11b81529260209284928392612ded9260009060048601612d58565b038160006001600160a01b0387165af160009181612e80575b50612e425750612e14612d89565b8051919082612e3b57633250574960e11b6000526001600160a01b03821660045260246000fd5b9050602001fd5b6001600160e01b03191663757a42ff60e11b01612e63575038808080612dc2565b633250574960e11b6000526001600160a01b031660045260246000fd5b612ea391925060203d602011612eaa575b612e9b818361080b565b810190612d43565b9038612e06565b503d612e91565b939193843b612ec2575b5050505050565b612ee36020936040519586948594630a85bd0160e11b865260048601612d58565b038160006001600160a01b0387165af160009181612f2c575b50612f0a5750612e14612d89565b6001600160e01b03191663757a42ff60e11b01612e6357503880808080612ebb565b612f4691925060203d602011612eaa57612e9b818361080b565b9038612efc565b916103dc9391612f5c936136fb565b909291926137b0565b6001600160a01b031660008181527f5ab42ced628888259c08ac98db1eb0cf702fc1501344311d8b100cd1bfe4bb006020526040902080546001810190915591829003612fb0575050565b6301d4b62360e61b60005260045260245260446000fd5b612fd081612569565b506000527f0542a41881ee128a365a727b282c86fa859579490b9bb45aab8503648c8e790060205261190c61300f604060002060405192838092611812565b600060405161301f60208261080b565b5290565b919091806000527f0542a41881ee128a365a727b282c86fa859579490b9bb45aab8503648c8e7900602052604060002083516001600160401b03811161080657613071816120d384546117d8565b6020601f82116001146130e057816130db9493926130c8927ff8e1a15aba9398e019f0b49df1a4fde98ee17ae345cb5f6b5e2c27f5033e8ce79798600092611ef15750508160011b916000199060031b1c19161790565b90555b6040519081529081906020820190565b0390a1565b601f198216956130f584600052602060002090565b9660005b81811061315c57509660019284926130db9796957ff8e1a15aba9398e019f0b49df1a4fde98ee17ae345cb5f6b5e2c27f5033e8ce7999a10613143575b505050811b0190556130cb565b015160001960f88460031b161c19169055388080613136565b838301518955600190980197602093840193016130f9565b600090815260008051602061405c83398151915260205260409020546001600160a01b031690565b6131bd9060005260008051602061407c833981519152602052604060002090565b80546001600160a01b0319169055565b61326e906131da81613174565b92816001600160a01b0382166132cc575b50506001600160a01b0383168015801591839060009084613288575b6132288360005260008051602061405c833981519152602052604060002090565b80546001600160a01b03191690557fddf252ad1be2c89b69c2b068fc378daa952ba7f163c4a11628f55a4df523b3ef8280a415613279575061326981613aea565b613bd3565b6103dc600082613832565b15613bd3576132698184613a16565b6132a98360005260008051602061407c833981519152602052604060002090565b80546001600160a01b03191690556132c0886112cb565b82198154019055613207565b6132d69185613d6d565b38816131eb565b6103dc906132ea83613174565b926001600160a01b03841680159081156133c6575b6001600160a01b0384169182159081156133b1575b613339866105ed8760005260008051602061405c833981519152602052604060002090565b8484847fddf252ad1be2c89b69c2b068fc378daa952ba7f163c4a11628f55a4df523b3ef600080a41561339b5761336f84613aea565b1561337f575050611cc190613bd3565b0361338b575b50611cc1565b6133959082613b5d565b38613385565b81831461336f576133ac8488613a16565b61336f565b6133ba866112cb565b60018154019055613314565b6133cf8361319c565b6133d8866112cb565b80546000190190556132ff565b81156133ef570490565b634e487b7160e01b600052601260045260246000fd5b60018111156103dc57806001600160801b821015613526575b6134cc6134c26134b86134ae6134a461349a6134896134d39760048a600160401b6134d89c1015613519575b64010000000081101561350c575b620100008110156134ff575b6101008110156134f2575b60108110156134e5575b10156134dd575b60030260011c90565b613493818b6133e5565b0160011c90565b613493818a6133e5565b61349381896133e5565b61349381886133e5565b61349381876133e5565b61349381866133e5565b80936133e5565b821190565b900390565b60011b613480565b60041c9160021b91613479565b60081c9160041b9161346f565b60101c9160081b91613464565b60201c9160101b91613458565b60401c9160201b9161344a565b50506134d86134d36134cc6134c26134b86134ae6134a461349a61348961354d8a60801c90565b9850600160401b975061341e9650505050505050565b91905b8382106135735750505090565b9091928083169080841860011c8201809211610a27578460005265ffffffffffff82602060002001541665ffffffffffff8416106000146135b85750925b9190613566565b9392506135c490612972565b916135b1565b60ff60008051602061409c8339815191525460401c16156135e757565b631afcd79f60e31b60005260046000fd5b6001600160a01b038083169392919081169081851415806136f2575b61361f575050505050565b81613694575b505082613634575b8080612ebb565b7fdec2bacdd2f05b59de34da9b523dff8be42e5e38e818c82fdb0bae774387a7249161366b61366561367193611259565b91613928565b90613993565b604080516001600160d01b039384168152919092166020820152a238808061362d565b6136d06136c17fdec2bacdd2f05b59de34da9b523dff8be42e5e38e818c82fdb0bae774387a72492611259565b6136ca86613928565b9061395b565b604080516001600160d01b039384168152919092166020820152a23880613625565b50831515613614565b91907f7fffffffffffffffffffffffffffffff5d576e7357a4501ddfe92f46681b20a08411613784579160209360809260ff60009560405194855216868401526040830152606082015282805260015afa15613778576000516001600160a01b0381161561376c5790600090600090565b50600090600190600090565b6040513d6000823e3d90fd5b50505060009160039190565b6004111561379a57565b634e487b7160e01b600052602160045260246000fd5b6137b981613790565b806137c2575050565b6137cb81613790565b600181036137e45763f645eedf60e01b60005260046000fd5b6137ed81613790565b6002810361380a575063fce698f760e01b60005260045260246000fd5b80613816600392613790565b1461381e5750565b6335e2f38360e21b60005260045260246000fd5b6001600160a01b03169081156138ba575b61083b916001916001600160a01b03169081156138a2575b60009081527fe8b26c30fad74198956032a3533d903385d56dd795af560196f9c78d4af40d0060205260408082205492825290205460a083901b83900390811691166135f8565b6138b36138ae84613928565b6139c7565b505061385b565b6138c46001613928565b916138ce43612932565b926138e6600080516020613ffc833981519152612d14565b6001600160d01b039182169082160192908311610a275761083b9360019361391c91600080516020613ffc833981519152613e80565b90505091509150613843565b6001600160d01b038111613942576001600160d01b031690565b6306dfcc6560e41b60005260d060045260245260446000fd5b9061396543612932565b9061396f83612d14565b6001600160d01b039182169082160391908211610a275761398f92613e80565b9091565b9061399d43612932565b906139a783612d14565b6001600160d01b039182169082160191908211610a275761398f92613e80565b6139d043612932565b906139e8600080516020613ffc833981519152612d14565b6001600160d01b0391821690821603908111610a275761398f91600080516020613ffc833981519152613e80565b906000613a9a613a2584612537565b92808352600080516020613f5c83398151915260205260408320549460018060a01b031683527f645e039705490088daad89bae25049a34f4a9072d398537b1ab2425f24cbed006020526040832094848103613aaa575b50600052600080516020613f5c833981519152602052604060002090565b5560005260205260006040812055565b84845285602052613ae3604085205482865287602052806040872055600052600080516020613f5c833981519152602052604060002090565b5538613a7c565b60008051602061401c833981519152549080600052600080516020613fbc83398151915260205281604060002055600160401b82101561080657613b4482600161083b940160008051602061401c83398151915255612502565b90919082549060031b91821b91600019901b1916179055565b90613b6782612537565b600019810192908311610a275760018060a01b03166000527f645e039705490088daad89bae25049a34f4a9072d398537b1ab2425f24cbed0060205260406000208260005260205280604060002055600052600080516020613f5c833981519152602052604060002055565b60008051602061401c833981519152546000198101908111610a275781600052600080516020613fbc833981519152602052613c1460406000205491612502565b90549060031b1c613c2881613b4484612502565b600052600080516020613fbc833981519152602052604060002055600052600080516020613fbc8339815191526020526000604081205560008051602061401c833981519152548015613ca85760001901613c96613c8582612502565b8154906000199060031b1b19169055565b60008051602061401c83398151915255565b634e487b7160e01b600052603160045260246000fd5b613cc6612b96565b8051908115613cd6576020012090565b50507fa16a46d94261c7517cc8ff89f61c0ce93598e3c849801011dee649a6a557d100548015613d035790565b507fc5d2460186f7233c927e7db2dcc703c0e500b653ca82273b7bfad8045d85a47090565b613d30612c65565b8051908115613d40576020012090565b50507fa16a46d94261c7517cc8ff89f61c0ce93598e3c849801011dee649a6a557d101548015613d035790565b6001600160a01b038216918215159081613dc7575b5015613d8d57505050565b6001600160a01b0316613db057637e27328960e01b600052600482905260246000fd5b63177e802f60e01b60005260045260245260446000fd5b6001600160a01b038316841491508115613e17575b508015613dea575b38613d82565b50600083815260008051602061407c83398151915260205260409020546001600160a01b03168214613de4565b60ff9150613e289061063384611292565b541638613ddc565b908154600160401b81101561080657600181018355600092805482101561133d5783526020928390208251929093015160301b65ffffffffffff191665ffffffffffff9290921691909117910155565b80549293928015613f3057613e97613ea491612963565b8260005260206000200190565b8054603081901c9365ffffffffffff91821692918116808411613f1f57879303613eeb5750613ee792509065ffffffffffff82549181199060301b169116179055565b9190565b915050613ee791613f0b613efd61084c565b65ffffffffffff9093168352565b6001600160d01b0386166020830152613e30565b632520601d60e01b60005260046000fd5b5090613f5591613f41613efd61084c565b6001600160d01b0385166020830152613e30565b6000919056fe645e039705490088daad89bae25049a34f4a9072d398537b1ab2425f24cbed0180bb2b638cc20bc4d0a60d66940f3ab4a00c1d7b313497ca82fb0b4ab0079300a16a46d94261c7517cc8ff89f61c0ce93598e3c849801011dee649a6a557d102645e039705490088daad89bae25049a34f4a9072d398537b1ab2425f24cbed03a16a46d94261c7517cc8ff89f61c0ce93598e3c849801011dee649a6a557d103e8b26c30fad74198956032a3533d903385d56dd795af560196f9c78d4af40d02645e039705490088daad89bae25049a34f4a9072d398537b1ab2425f24cbed0202dd7bc7dec4dceedda775e58dd541e08a116c6c53815c0bd028192f7b62680080bb2b638cc20bc4d0a60d66940f3ab4a00c1d7b313497ca82fb0b4ab007930280bb2b638cc20bc4d0a60d66940f3ab4a00c1d7b313497ca82fb0b4ab0079304f0c57e16840df040f15088dc2f81fe391c3923bec73e23a9662efc9c229c6a0080bb2b638cc20bc4d0a60d66940f3ab4a00c1d7b313497ca82fb0b4ab0079301a264697066735822122034537e79626af05c63e6d8b2872aa3c31107b238534d211238adc60eab0a885664736f6c634300081a0033","linkReferences":{}},"methodIdentifiers":{"CLOCK_MODE()":"4bf5d7e9","DEFAULT_ADMIN_ROLE()":"a217fddf","MINTER_ROLE()":"d5391393","addTrigger(string,string,bytes)":"30628cc8","approve(address,uint256)":"095ea7b3","balanceOf(address)":"70a08231","burn(uint256)":"42966c68","clock()":"91ddadf4","delegate(address)":"5c19a95c","delegateBySig(address,uint256,uint256,uint8,bytes32,bytes32)":"c3cda520","delegates(address)":"587cde1e","eip712Domain()":"84b0196e","getApproved(uint256)":"081812fc","getPastTotalSupply(uint256)":"8e539e8c","getPastVotes(address,uint256)":"3a46b1a8","getRoleAdmin(bytes32)":"248a9ca3","getTrigger(uint64)":"e328ed77","getVotes(address)":"9ab24eb0","grantRole(bytes32,address)":"2f2ff15d","hasRole(bytes32,address)":"91d14854","initialize(address,address)":"485cc955","isApprovedForAll(address,address)":"e985e9c5","name()":"06fdde03","nextTriggerId()":"42227fa4","nonces(address)":"7ecebe00","ownerOf(uint256)":"6352211e","renounceRole(bytes32,address)":"36568abe","revokeRole(bytes32,address)":"d547741f","safeMint(address,string)":"d204c45e","safeTransferFrom(address,address,uint256)":"42842e0e","safeTransferFrom(address,address,uint256,bytes)":"b88d4fde","setApprovalForAll(address,bool)":"a22cb465","supportsInterface(bytes4)":"01ffc9a7","symbol()":"95d89b41","tokenByIndex(uint256)":"4f6ccce7","tokenOfOwnerByIndex(address,uint256)":"2f745c59","tokenURI(uint256)":"c87b56dd","totalSupply()":"18160ddd","transferFrom(address,address,uint256)":"23b872dd","triggerIdsByCreator(address,uint256)":"913b1fbf","triggersById(uint64)":"ce289612"},"id":0}