{"abi":[{"type":"function","name":"addTrigger","inputs":[{"name":"serviceId","type":"string","internalType":"string"},{"name":"workflowId","type":"string","internalType":"string"},{"name":"data","type":"bytes","internalType":"bytes"}],"outputs":[],"stateMutability":"nonpayable"},{"type":"function","name":"getTrigger","inputs":[{"name":"triggerId","type":"uint64","internalType":"ILayerTrigger.TriggerId"}],"outputs":[{"name":"","type":"tuple","internalType":"struct ILayerTrigger.TriggerResponse","components":[{"name":"triggerId","type":"uint64","internalType":"ILayerTrigger.TriggerId"},{"name":"serviceId","type":"string","internalType":"string"},{"name":"workflowId","type":"string","internalType":"string"},{"name":"creator","type":"address","internalType":"address"},{"name":"data","type":"bytes","internalType":"bytes"}]}],"stateMutability":"view"},{"type":"function","name":"nextTriggerId","inputs":[],"outputs":[{"name":"","type":"uint64","internalType":"ILayerTrigger.TriggerId"}],"stateMutability":"view"},{"type":"function","name":"triggerIdsByCreator","inputs":[{"name":"","type":"address","internalType":"address"},{"name":"","type":"uint256","internalType":"uint256"}],"outputs":[{"name":"","type":"uint64","internalType":"ILayerTrigger.TriggerId"}],"stateMutability":"view"},{"type":"function","name":"triggersById","inputs":[{"name":"","type":"uint64","internalType":"ILayerTrigger.TriggerId"}],"outputs":[{"name":"serviceId","type":"string","internalType":"string"},{"name":"workflowId","type":"string","internalType":"string"},{"name":"creator","type":"address","internalType":"address"},{"name":"data","type":"bytes","internalType":"bytes"}],"stateMutability":"view"},{"type":"event","name":"NewTrigger","inputs":[{"name":"serviceId","type":"string","indexed":false,"internalType":"string"},{"name":"workflowId","type":"string","indexed":false,"internalType":"string"},{"name":"triggerId","type":"uint64","indexed":true,"internalType":"ILayerTrigger.TriggerId"}],"anonymous":false}],"bytecode":{"object":"0x6080806040523460155761092a908161001a8239f35b5f80fdfe60806040526004361015610011575f80fd5b5f3560e01c806330628cc81461029d57806342227fa414610277578063913b1fbf14610214578063ce289612146101745763e328ed7714610050575f80fd5b34610170576020366003190112610170576004356001600160401b038116809103610170576001600160401b03906060608060405161008e816106d5565b5f81528260208201528260408201525f838201520152805f525f60205261016c60405f2060018060a01b0360028201541690604051936100cd856106d5565b845261014a6100db826107e1565b916020860192835261013761010c60036100f7600185016107e1565b9360408a0194855260608a01978852016107e1565b936080880194855260405198899860208a52511660208901525160a0604089015260c0880190610881565b9051868203601f19016060880152610881565b91516001600160a01b0316608085015251838203601f190160a0850152610881565b0390f35b5f80fd5b34610170576020366003190112610170576004356001600160401b038116809103610170575f525f6020526101f360405f2061016c6101b2826107e1565b916101bf600182016107e1565b60028201546001600160a01b031691610201906101de906003016107e1565b91604051968796608088526080880190610881565b908682036020880152610881565b9160408501528382036060850152610881565b34610170576040366003190112610170576004356001600160a01b0381169081900361017057602435905f52600160205260405f20908154811015610170576102676001600160401b0391602093610774565b90549060031b1c16604051908152f35b34610170575f3660031901126101705760206001600160401b0360025416604051908152f35b34610170576060366003190112610170576004356001600160401b038111610170576102cd903690600401610756565b6024356001600160401b038111610170576102ec903690600401610756565b6044356001600160401b03811161017057366023820112156101705761031c903690602481600401359101610711565b916002549260016001600160401b038516016001600160401b0381116106c1576001600160401b031680946001600160401b03191617600255604051608081018181106001600160401b0382111761055f5760405282815260208101848152604082019033825260608301938452865f525f60205260405f2092518051906001600160401b03821161055f576103bc826103b687546107a9565b876108a5565b602090601f831160011461065e576103eb92915f9183610653575b50508160011b915f199060031b1c19161790565b83555b51805160018401916001600160401b03821161055f576104188261041285546107a9565b856108a5565b602090601f83116001146105ec57918061044c926003979695945f926105e15750508160011b915f199060031b1c19161790565b90555b600282019060018060a01b039051166bffffffffffffffffffffffff60a01b8254161790550190518051906001600160401b03821161055f576104968261041285546107a9565b602090601f831160011461057e576104c492915f91836105735750508160011b915f199060031b1c19161790565b90555b335f52600160205260405f209081546801000000000000000081101561055f577f8a81be05064e2aef2ff874e33696c0ee4c4177c775d7fd263bdb2bd666ffffd99361051f8261054c95600161055a95018155610774565b81549060031b906001600160401b0389831b921b1916179055604051938493604085526040850190610881565b908382036020850152610881565b0390a2005b634e487b7160e01b5f52604160045260245ffd5b0151905087806103d7565b90601f19831691845f52815f20925f5b8181106105c957509084600195949392106105b1575b505050811b0190556104c7565b01515f1960f88460031b161c191690558680806105a4565b9293602060018192878601518155019501930161058e565b015190508b806103d7565b90601f19831691845f52815f20925f5b81811061063b57509160019391856003999897969410610624575b505050811b01905561044f565b01515f1983891b60f8161c191690558a8080610617565b929360206001819287860151815501950193016105fc565b015190508a806103d7565b90601f19831691865f52815f20925f5b8181106106a95750908460019594939210610691575b505050811b0183556103ee565b01515f1960f88460031b161c19169055898080610684565b9293602060018192878601518155019501930161066e565b634e487b7160e01b5f52601160045260245ffd5b60a081019081106001600160401b0382111761055f57604052565b90601f801991011681019081106001600160401b0382111761055f57604052565b9291926001600160401b03821161055f576040519161073a601f8201601f1916602001846106f0565b829481845281830111610170578281602093845f960137010152565b9080601f830112156101705781602061077193359101610711565b90565b9190918054831015610795575f52601860205f208360021c019260031b1690565b634e487b7160e01b5f52603260045260245ffd5b90600182811c921680156107d7575b60208310146107c357565b634e487b7160e01b5f52602260045260245ffd5b91607f16916107b8565b9060405191825f8254926107f4846107a9565b808452936001811690811561085f575060011461081b575b50610819925003836106f0565b565b90505f9291925260205f20905f915b818310610843575050906020610819928201015f61080c565b602091935080600191548385890101520191019091849261082a565b90506020925061081994915060ff191682840152151560051b8201015f61080c565b805180835260209291819084018484015e5f828201840152601f01601f1916010190565b601f82116108b257505050565b5f5260205f20906020601f840160051c830193106108ea575b601f0160051c01905b8181106108df575050565b5f81556001016108d4565b90915081906108cb56fea2646970667358221220328f9895191d7380fe024b74a5ca46456ade5e094225e514c525ffd722e15e6d64736f6c634300081a0033","linkReferences":{}},"methodIdentifiers":{"addTrigger(string,string,bytes)":"30628cc8","getTrigger(uint64)":"e328ed77","nextTriggerId()":"42227fa4","triggerIdsByCreator(address,uint256)":"913b1fbf","triggersById(uint64)":"ce289612"},"id":1}