{"abi":[{"type":"constructor","inputs":[],"stateMutability":"nonpayable"},{"type":"function","name":"CLOCK_MODE","inputs":[],"outputs":[{"name":"","type":"string","internalType":"string"}],"stateMutability":"view"},{"type":"function","name":"DEFAULT_ADMIN_ROLE","inputs":[],"outputs":[{"name":"","type":"bytes32","internalType":"bytes32"}],"stateMutability":"view"},{"type":"function","name":"MINTER_ROLE","inputs":[],"outputs":[{"name":"","type":"bytes32","internalType":"bytes32"}],"stateMutability":"view"},{"type":"function","name":"addTrigger","inputs":[{"name":"serviceId","type":"string","internalType":"string"},{"name":"workflowId","type":"string","internalType":"string"},{"name":"data","type":"bytes","internalType":"bytes"}],"outputs":[],"stateMutability":"nonpayable"},{"type":"function","name":"approve","inputs":[{"name":"to","type":"address","internalType":"address"},{"name":"tokenId","type":"uint256","internalType":"uint256"}],"outputs":[],"stateMutability":"nonpayable"},{"type":"function","name":"balanceOf","inputs":[{"name":"owner","type":"address","internalType":"address"}],"outputs":[{"name":"","type":"uint256","internalType":"uint256"}],"stateMutability":"view"},{"type":"function","name":"burn","inputs":[{"name":"tokenId","type":"uint256","internalType":"uint256"}],"outputs":[],"stateMutability":"nonpayable"},{"type":"function","name":"clock","inputs":[],"outputs":[{"name":"","type":"uint48","internalType":"uint48"}],"stateMutability":"view"},{"type":"function","name":"delegate","inputs":[{"name":"delegatee","type":"address","internalType":"address"}],"outputs":[],"stateMutability":"nonpayable"},{"type":"function","name":"delegateBySig","inputs":[{"name":"delegatee","type":"address","internalType":"address"},{"name":"nonce","type":"uint256","internalType":"uint256"},{"name":"expiry","type":"uint256","internalType":"uint256"},{"name":"v","type":"uint8","internalType":"uint8"},{"name":"r","type":"bytes32","internalType":"bytes32"},{"name":"s","type":"bytes32","internalType":"bytes32"}],"outputs":[],"stateMutability":"nonpayable"},{"type":"function","name":"delegates","inputs":[{"name":"account","type":"address","internalType":"address"}],"outputs":[{"name":"","type":"address","internalType":"address"}],"stateMutability":"view"},{"type":"function","name":"eip712Domain","inputs":[],"outputs":[{"name":"fields","type":"bytes1","internalType":"bytes1"},{"name":"name","type":"string","internalType":"string"},{"name":"version","type":"string","internalType":"string"},{"name":"chainId","type":"uint256","internalType":"uint256"},{"name":"verifyingContract","type":"address","internalType":"address"},{"name":"salt","type":"bytes32","internalType":"bytes32"},{"name":"extensions","type":"uint256[]","internalType":"uint256[]"}],"stateMutability":"view"},{"type":"function","name":"getApproved","inputs":[{"name":"tokenId","type":"uint256","internalType":"uint256"}],"outputs":[{"name":"","type":"address","internalType":"address"}],"stateMutability":"view"},{"type":"function","name":"getPastTotalSupply","inputs":[{"name":"timepoint","type":"uint256","internalType":"uint256"}],"outputs":[{"name":"","type":"uint256","internalType":"uint256"}],"stateMutability":"view"},{"type":"function","name":"getPastVotes","inputs":[{"name":"account","type":"address","internalType":"address"},{"name":"timepoint","type":"uint256","internalType":"uint256"}],"outputs":[{"name":"","type":"uint256","internalType":"uint256"}],"stateMutability":"view"},{"type":"function","name":"getRoleAdmin","inputs":[{"name":"role","type":"bytes32","internalType":"bytes32"}],"outputs":[{"name":"","type":"bytes32","internalType":"bytes32"}],"stateMutability":"view"},{"type":"function","name":"getTrigger","inputs":[{"name":"triggerId","type":"uint64","internalType":"ILayerTrigger.TriggerId"}],"outputs":[{"name":"","type":"tuple","internalType":"struct ILayerTrigger.TriggerResponse","components":[{"name":"triggerId","type":"uint64","internalType":"ILayerTrigger.TriggerId"},{"name":"serviceId","type":"string","internalType":"string"},{"name":"workflowId","type":"string","internalType":"string"},{"name":"creator","type":"address","internalType":"address"},{"name":"data","type":"bytes","internalType":"bytes"}]}],"stateMutability":"view"},{"type":"function","name":"getVotes","inputs":[{"name":"account","type":"address","internalType":"address"}],"outputs":[{"name":"","type":"uint256","internalType":"uint256"}],"stateMutability":"view"},{"type":"function","name":"grantRole","inputs":[{"name":"role","type":"bytes32","internalType":"bytes32"},{"name":"account","type":"address","internalType":"address"}],"outputs":[],"stateMutability":"nonpayable"},{"type":"function","name":"hasRole","inputs":[{"name":"role","type":"bytes32","internalType":"bytes32"},{"name":"account","type":"address","internalType":"address"}],"outputs":[{"name":"","type":"bool","internalType":"bool"}],"stateMutability":"view"},{"type":"function","name":"initialize","inputs":[{"name":"defaultAdmin","type":"address","internalType":"address"},{"name":"minter","type":"address","internalType":"address"}],"outputs":[],"stateMutability":"nonpayable"},{"type":"function","name":"isApprovedForAll","inputs":[{"name":"owner","type":"address","internalType":"address"},{"name":"operator","type":"address","internalType":"address"}],"outputs":[{"name":"","type":"bool","internalType":"bool"}],"stateMutability":"view"},{"type":"function","name":"name","inputs":[],"outputs":[{"name":"","type":"string","internalType":"string"}],"stateMutability":"view"},{"type":"function","name":"nextTriggerId","inputs":[],"outputs":[{"name":"","type":"uint64","internalType":"ILayerTrigger.TriggerId"}],"stateMutability":"view"},{"type":"function","name":"nonces","inputs":[{"name":"owner","type":"address","internalType":"address"}],"outputs":[{"name":"","type":"uint256","internalType":"uint256"}],"stateMutability":"view"},{"type":"function","name":"ownerOf","inputs":[{"name":"tokenId","type":"uint256","internalType":"uint256"}],"outputs":[{"name":"","type":"address","internalType":"address"}],"stateMutability":"view"},{"type":"function","name":"renounceRole","inputs":[{"name":"role","type":"bytes32","internalType":"bytes32"},{"name":"callerConfirmation","type":"address","internalType":"address"}],"outputs":[],"stateMutability":"nonpayable"},{"type":"function","name":"revokeRole","inputs":[{"name":"role","type":"bytes32","internalType":"bytes32"},{"name":"account","type":"address","internalType":"address"}],"outputs":[],"stateMutability":"nonpayable"},{"type":"function","name":"safeMint","inputs":[{"name":"to","type":"address","internalType":"address"},{"name":"uri","type":"string","internalType":"string"}],"outputs":[],"stateMutability":"nonpayable"},{"type":"function","name":"safeTransferFrom","inputs":[{"name":"from","type":"address","internalType":"address"},{"name":"to","type":"address","internalType":"address"},{"name":"tokenId","type":"uint256","internalType":"uint256"}],"outputs":[],"stateMutability":"nonpayable"},{"type":"function","name":"safeTransferFrom","inputs":[{"name":"from","type":"address","internalType":"address"},{"name":"to","type":"address","internalType":"address"},{"name":"tokenId","type":"uint256","internalType":"uint256"},{"name":"data","type":"bytes","internalType":"bytes"}],"outputs":[],"stateMutability":"nonpayable"},{"type":"function","name":"setApprovalForAll","inputs":[{"name":"operator","type":"address","internalType":"address"},{"name":"approved","type":"bool","internalType":"bool"}],"outputs":[],"stateMutability":"nonpayable"},{"type":"function","name":"supportsInterface","inputs":[{"name":"interfaceId","type":"bytes4","internalType":"bytes4"}],"outputs":[{"name":"","type":"bool","internalType":"bool"}],"stateMutability":"view"},{"type":"function","name":"symbol","inputs":[],"outputs":[{"name":"","type":"string","internalType":"string"}],"stateMutability":"view"},{"type":"function","name":"tokenByIndex","inputs":[{"name":"index","type":"uint256","internalType":"uint256"}],"outputs":[{"name":"","type":"uint256","internalType":"uint256"}],"stateMutability":"view"},{"type":"function","name":"tokenOfOwnerByIndex","inputs":[{"name":"owner","type":"address","internalType":"address"},{"name":"index","type":"uint256","internalType":"uint256"}],"outputs":[{"name":"","type":"uint256","internalType":"uint256"}],"stateMutability":"view"},{"type":"function","name":"tokenURI","inputs":[{"name":"tokenId","type":"uint256","internalType":"uint256"}],"outputs":[{"name":"","type":"string","internalType":"string"}],"stateMutability":"view"},{"type":"function","name":"totalSupply","inputs":[],"outputs":[{"name":"","type":"uint256","internalType":"uint256"}],"stateMutability":"view"},{"type":"function","name":"transferFrom","inputs":[{"name":"from","type":"address","internalType":"address"},{"name":"to","type":"address","internalType":"address"},{"name":"tokenId","type":"uint256","internalType":"uint256"}],"outputs":[],"stateMutability":"nonpayable"},{"type":"function","name":"triggerIdsByCreator","inputs":[{"name":"","type":"address","internalType":"address"},{"name":"","type":"uint256","internalType":"uint256"}],"outputs":[{"name":"","type":"uint64","internalType":"ILayerTrigger.TriggerId"}],"stateMutability":"view"},{"type":"function","name":"triggersById","inputs":[{"name":"","type":"uint64","internalType":"ILayerTrigger.TriggerId"}],"outputs":[{"name":"serviceId","type":"string","internalType":"string"},{"name":"workflowId","type":"string","internalType":"string"},{"name":"creator","type":"address","internalType":"address"},{"name":"data","type":"bytes","internalType":"bytes"}],"stateMutability":"view"},{"type":"event","name":"Approval","inputs":[{"name":"owner","type":"address","indexed":true,"internalType":"address"},{"name":"approved","type":"address","indexed":true,"internalType":"address"},{"name":"tokenId","type":"uint256","indexed":true,"internalType":"uint256"}],"anonymous":false},{"type":"event","name":"ApprovalForAll","inputs":[{"name":"owner","type":"address","indexed":true,"internalType":"address"},{"name":"operator","type":"address","indexed":true,"internalType":"address"},{"name":"approved","type":"bool","indexed":false,"internalType":"bool"}],"anonymous":false},{"type":"event","name":"BatchMetadataUpdate","inputs":[{"name":"_fromTokenId","type":"uint256","indexed":false,"internalType":"uint256"},{"name":"_toTokenId","type":"uint256","indexed":false,"internalType":"uint256"}],"anonymous":false},{"type":"event","name":"DelegateChanged","inputs":[{"name":"delegator","type":"address","indexed":true,"internalType":"address"},{"name":"fromDelegate","type":"address","indexed":true,"internalType":"address"},{"name":"toDelegate","type":"address","indexed":true,"internalType":"address"}],"anonymous":false},{"type":"event","name":"DelegateVotesChanged","inputs":[{"name":"delegate","type":"address","indexed":true,"internalType":"address"},{"name":"previousVotes","type":"uint256","indexed":false,"internalType":"uint256"},{"name":"newVotes","type":"uint256","indexed":false,"internalType":"uint256"}],"anonymous":false},{"type":"event","name":"EIP712DomainChanged","inputs":[],"anonymous":false},{"type":"event","name":"Initialized","inputs":[{"name":"version","type":"uint64","indexed":false,"internalType":"uint64"}],"anonymous":false},{"type":"event","name":"MetadataUpdate","inputs":[{"name":"_tokenId","type":"uint256","indexed":false,"internalType":"uint256"}],"anonymous":false},{"type":"event","name":"NewTrigger","inputs":[{"name":"serviceId","type":"string","indexed":false,"internalType":"string"},{"name":"workflowId","type":"string","indexed":false,"internalType":"string"},{"name":"triggerId","type":"uint64","indexed":true,"internalType":"ILayerTrigger.TriggerId"}],"anonymous":false},{"type":"event","name":"RoleAdminChanged","inputs":[{"name":"role","type":"bytes32","indexed":true,"internalType":"bytes32"},{"name":"previousAdminRole","type":"bytes32","indexed":true,"internalType":"bytes32"},{"name":"newAdminRole","type":"bytes32","indexed":true,"internalType":"bytes32"}],"anonymous":false},{"type":"event","name":"RoleGranted","inputs":[{"name":"role","type":"bytes32","indexed":true,"internalType":"bytes32"},{"name":"account","type":"address","indexed":true,"internalType":"address"},{"name":"sender","type":"address","indexed":true,"internalType":"address"}],"anonymous":false},{"type":"event","name":"RoleRevoked","inputs":[{"name":"role","type":"bytes32","indexed":true,"internalType":"bytes32"},{"name":"account","type":"address","indexed":true,"internalType":"address"},{"name":"sender","type":"address","indexed":true,"internalType":"address"}],"anonymous":false},{"type":"event","name":"Transfer","inputs":[{"name":"from","type":"address","indexed":true,"internalType":"address"},{"name":"to","type":"address","indexed":true,"internalType":"address"},{"name":"tokenId","type":"uint256","indexed":true,"internalType":"uint256"}],"anonymous":false},{"type":"error","name":"AccessControlBadConfirmation","inputs":[]},{"type":"error","name":"AccessControlUnauthorizedAccount","inputs":[{"name":"account","type":"address","internalType":"address"},{"name":"neededRole","type":"bytes32","internalType":"bytes32"}]},{"type":"error","name":"CheckpointUnorderedInsertion","inputs":[]},{"type":"error","name":"ECDSAInvalidSignature","inputs":[]},{"type":"error","name":"ECDSAInvalidSignatureLength","inputs":[{"name":"length","type":"uint256","internalType":"uint256"}]},{"type":"error","name":"ECDSAInvalidSignatureS","inputs":[{"name":"s","type":"bytes32","internalType":"bytes32"}]},{"type":"error","name":"ERC5805FutureLookup","inputs":[{"name":"timepoint","type":"uint256","internalType":"uint256"},{"name":"clock","type":"uint48","internalType":"uint48"}]},{"type":"error","name":"ERC6372InconsistentClock","inputs":[]},{"type":"error","name":"ERC721EnumerableForbiddenBatchMint","inputs":[]},{"type":"error","name":"ERC721IncorrectOwner","inputs":[{"name":"sender","type":"address","internalType":"address"},{"name":"tokenId","type":"uint256","internalType":"uint256"},{"name":"owner","type":"address","internalType":"address"}]},{"type":"error","name":"ERC721InsufficientApproval","inputs":[{"name":"operator","type":"address","internalType":"address"},{"name":"tokenId","type":"uint256","internalType":"uint256"}]},{"type":"error","name":"ERC721InvalidApprover","inputs":[{"name":"approver","type":"address","internalType":"address"}]},{"type":"error","name":"ERC721InvalidOperator","inputs":[{"name":"operator","type":"address","internalType":"address"}]},{"type":"error","name":"ERC721InvalidOwner","inputs":[{"name":"owner","type":"address","internalType":"address"}]},{"type":"error","name":"ERC721InvalidReceiver","inputs":[{"name":"receiver","type":"address","internalType":"address"}]},{"type":"error","name":"ERC721InvalidSender","inputs":[{"name":"sender","type":"address","internalType":"address"}]},{"type":"error","name":"ERC721NonexistentToken","inputs":[{"name":"tokenId","type":"uint256","internalType":"uint256"}]},{"type":"error","name":"ERC721OutOfBoundsIndex","inputs":[{"name":"owner","type":"address","internalType":"address"},{"name":"index","type":"uint256","internalType":"uint256"}]},{"type":"error","name":"InvalidAccountNonce","inputs":[{"name":"account","type":"address","internalType":"address"},{"name":"currentNonce","type":"uint256","internalType":"uint256"}]},{"type":"error","name":"InvalidInitialization","inputs":[]},{"type":"error","name":"NotInitializing","inputs":[]},{"type":"error","name":"SafeCastOverflowedUintDowncast","inputs":[{"name":"bits","type":"uint8","internalType":"uint8"},{"name":"value","type":"uint256","internalType":"uint256"}]},{"type":"error","name":"VotesExpiredSignature","inputs":[{"name":"expiry","type":"uint256","internalType":"uint256"}]}],"bytecode":{"object":"0x6080806040523460d2577ff0c57e16840df040f15088dc2f81fe391c3923bec73e23a9662efc9c229c6a005460ff8160401c1660c1576002600160401b03196001600160401b03821601605c575b60405161437a90816100d88239f35b6001600160401b0319166001600160401b039081177ff0c57e16840df040f15088dc2f81fe391c3923bec73e23a9662efc9c229c6a005581527fc7f505b2f371ae2175ee4913f4499e1f2633a7b5936321eed1cdaeb6115181d290602090a13880604d565b63f92ee8a960e01b60005260046000fd5b600080fdfe6080604052600436101561001257600080fd5b60003560e01c806301ffc9a7146102a757806306fdde03146102a2578063081812fc1461029d578063095ea7b31461029857806318160ddd1461029357806323b872dd1461028e578063248a9ca3146102895780632f2ff15d146102845780632f745c591461027f57806330628cc81461027a57806336568abe146102755780633a46b1a81461027057806342227fa41461026b57806342842e0e1461026657806342966c6814610261578063485cc9551461025c5780634bf5d7e9146102575780634f6ccce714610252578063587cde1e1461024d5780635c19a95c146102485780636352211e1461024357806370a082311461023e5780637ecebe001461023957806384b0196e146102345780638e539e8c1461022f578063913b1fbf1461022a57806391d148541461022557806391ddadf41461022057806395d89b411461021b5780639ab24eb014610216578063a217fddf14610211578063a22cb4651461020c578063b88d4fde14610207578063c3cda52014610202578063c87b56dd146101fd578063ce289612146101f8578063d204c45e146101f3578063d5391393146101ee578063d547741f146101e9578063e328ed77146101e45763e985e9c5146101df57600080fd5b611bee565b611b21565b611a79565b611a3e565b611972565b6118b9565b61178c565b61164a565b6115f6565b611562565b611546565b61150a565b611448565b61141c565b6113bc565b61134b565b611108565b611020565b610f42565b610f1f565b610f01565b610edf565b610e7e565b610e1e565b610d8c565b610c13565b610bf6565b610bc0565b610b97565b610a7b565b610a35565b6108c4565b610746565b610710565b6106ea565b6106d3565b61066e565b610564565b6104db565b6103e8565b6102c3565b6001600160e01b03198116036102be57565b600080fd5b346102be5760203660031901126102be576103116004356102e3816102ac565b63ffffffff60e01b16637965db0b60e01b8114908115610315575b5060405190151581529081906020820190565b0390f35b632483248360e11b81149150811561032f575b50386102fe565b63780e9d6360e01b811491508115610349575b5038610328565b6380ac58cd60e01b81149150811561037b575b811561036a575b5038610342565b6301ffc9a760e01b14905038610363565b635b5e139f60e01b8114915061035c565b60005b83811061039f5750506000910152565b818101518382015260200161038f565b906020916103c88151809281855285808601910161038c565b601f01601f1916010190565b9060206103e59281815201906103af565b90565b346102be5760003660031901126102be5760405160006000805160206141e583398151915254610417816117e1565b80845290600181169081156104b7575060011461044b575b6103118361043f81850382610814565b604051918291826103d4565b6000805160206141e583398151915260009081527f37c58c799b6609234b945e882912ee9ad34948a1dfaa20a97485e1a7752bbf81939250905b80821061049d5750909150810160200161043f61042f565b919260018160209254838588010152019101909291610485565b60ff191660208086019190915291151560051b8401909101915061043f905061042f565b346102be5760203660031901126102be5760206105266004356104fd81612572565b5060009081526000805160206142e583398151915260205260409020546001600160a01b031690565b6040516001600160a01b039091168152f35b600435906001600160a01b03821682036102be57565b602435906001600160a01b03821682036102be57565b346102be5760403660031901126102be5761057d610538565b6024359061058a82612572565b3315158061065b575b8061062c575b61061757610615926105f69181906001600160a01b0385811691167f8c5be1e5ebec7d5bd14f71427d1e84f3dd0314c0f7b2291e5b200ac8c7c3b925600080a46000526000805160206142e5833981519152602052604060002090565b80546001600160a01b0319166001600160a01b03909216919091179055565b005b63a9fbf51f60e01b6000523360045260246000fd5b5060ff6106533361063c8461129b565b9060018060a01b0316600052602052604060002090565b541615610599565b506001600160a01b038116331415610593565b346102be5760003660031901126102be57602060008051602061428583398151915254604051908152f35b60609060031901126102be576004356001600160a01b03811681036102be57906024356001600160a01b03811681036102be579060443590565b346102be576106156106e436610699565b91611c1f565b346102be5760203660031901126102be576020610708600435611d54565b604051908152f35b346102be5760403660031901126102be5761061560043561072f61054e565b9061074161073c82611d54565b612615565b6127e8565b346102be5760403660031901126102be5761075f610538565b6024359061076c81612540565b8210156107bf576001600160a01b031660009081527f645e039705490088daad89bae25049a34f4a9072d398537b1ab2425f24cbed00602090815260408083209383529281529082902054915191825290f35b63295f44f760e21b60005260018060a01b031660045260245260446000fd5b634e487b7160e01b600052604160045260246000fd5b60a081019081106001600160401b0382111761080f57604052565b6107de565b90601f801991011681019081106001600160401b0382111761080f57604052565b60405190610844608083610814565b565b6040519061084460a083610814565b60405190610844604083610814565b6001600160401b03811161080f57601f01601f191660200190565b81601f820112156102be5760208135910161089982610864565b926108a76040519485610814565b828452828201116102be5781600092602092838601378301015290565b346102be5760603660031901126102be576004356001600160401b0381116102be576108f490369060040161087f565b6024356001600160401b0381116102be5761091390369060040161087f565b6044356001600160401b0381116102be5761093290369060040161087f565b9060016001600160401b036003541601916001600160401b038311610a3057610a2b6001600160401b03926109ad6109917f8a81be05064e2aef2ff874e33696c0ee4c4177c775d7fd263bdb2bd666ffffd9966001600160401b031690565b6001600160401b03166001600160401b03196003541617600355565b610a036109c26003546001600160401b031690565b936109cb610835565b888152602081018490523360408201529060608201526109fe856001600160401b03166000526001602052604060002090565b612180565b336000908152600260205260409020610a1d90849061229b565b6040519384931695836122d6565b0390a2005b611d75565b346102be5760403660031901126102be57600435610a5161054e565b336001600160a01b03821603610a6a5761061591612896565b63334bd91960e11b60005260046000fd5b346102be5760403660031901126102be57610a94610538565b6024359065ffffffffffff610aa84361293b565b1680831015610b7f5750610abe610ac491611262565b9161293b565b90600090805482938160058111610b23575b509061031194610ae6928461375f565b80610b085750505b6040516001600160d01b0390911681529081906020820190565b610b119061296c565b9082526020909120015460301c610aee565b94610b2d86613601565b8603958611610a305761031195610ae69385875265ffffffffffff826020892001541665ffffffffffff851610600014610b6d5750915b91925094610ad6565b929150610b799061297b565b90610b64565b82637669fc0f60e11b60005260045260245260446000fd5b346102be5760003660031901126102be576003546040516001600160401b039091168152602090f35b346102be57610615610bd136610699565b9060405192610be1602085610814565b60008452610bf0838383611c1f565b33612eba565b346102be5760203660031901126102be57610615336004356133c9565b346102be5760403660031901126102be57610c2c610538565b610c3461054e565b6000805160206143058339815191525491906001600160401b03610c6760ff604086901c1615946001600160401b031690565b1680159081610d84575b6001149081610d7a575b159081610d71575b50610d6057610cc89183610cbf60016001600160401b031960008051602061430583398151915254161760008051602061430583398151915255565b610d2957612355565b610cce57005b610cfa60ff60401b19600080516020614305833981519152541660008051602061430583398151915255565b604051600181527fc7f505b2f371ae2175ee4913f4499e1f2633a7b5936321eed1cdaeb6115181d290602090a1005b610d5b600160401b60ff60401b1960008051602061430583398151915254161760008051602061430583398151915255565b612355565b63f92ee8a960e01b60005260046000fd5b90501538610c83565b303b159150610c7b565b849150610c71565b346102be5760003660031901126102be57610da64361293b565b65ffffffffffff80610db74361293b565b16911603610e0d576103116040805190610dd18183610814565b601d82527f6d6f64653d626c6f636b6e756d6265722666726f6d3d64656661756c740000006020830152519182916020835260208301906103af565b6301bfc1c560e61b60005260046000fd5b346102be5760203660031901126102be5760043560008051602061428583398151915254811015610e6557610e529061250b565b905460405160039290921b1c8152602090f35b63295f44f760e21b600052600060045260245260446000fd5b346102be5760203660031901126102be576001600160a01b03610e9f610538565b166000527fe8b26c30fad74198956032a3533d903385d56dd795af560196f9c78d4af40d00602052602060018060a01b0360406000205416604051908152f35b346102be5760203660031901126102be57610615610efb610538565b33612b0b565b346102be5760203660031901126102be576020610526600435612572565b346102be5760203660031901126102be576020610708610f3d610538565b612540565b346102be5760203660031901126102be576001600160a01b03610f63610538565b166000527f5ab42ced628888259c08ac98db1eb0cf702fc1501344311d8b100cd1bfe4bb006020526020604060002054604051908152f35b929391610fbd610fcb92600f60f81b865260e0602087015260e08601906103af565b9084820360408601526103af565b92606083015260018060a01b03166080820152600060a082015260c08183039101526020808351928381520192019060005b81811061100a5750505090565b8251845260209384019390920191600101610ffd565b346102be5760003660031901126102be577fa16a46d94261c7517cc8ff89f61c0ce93598e3c849801011dee649a6a557d1005415806110df575b156110a257611067612b9f565b61106f612c6e565b906103116020604051906110838183610814565b60008252601f1981019036908301376040519384933091469186610f9b565b60405162461bcd60e51b81526020600482015260156024820152741152540dcc4c8e88155b9a5b9a5d1a585b1a5e9959605a1b6044820152606490fd5b507fa16a46d94261c7517cc8ff89f61c0ce93598e3c849801011dee649a6a557d101541561105a565b346102be5760203660031901126102be5760043565ffffffffffff61112c4361293b565b16908181101561124b5761113f9061293b565b600060008051602061426583398151915254819281600581116111e1575b50906103119361117b9260008051602061426583398151915261375f565b8061119b57506040516001600160d01b0390911681529081906020820190565b6111a49061296c565b6000805160206142658339815191529091527f88c46c62109817164d0ae1873830d4299a82e5daf552a3d8e989b27638fcf748015460301c610aee565b936111eb85613601565b8503948511610a30576103119461117b93600080516020614265833981519152865265ffffffffffff826020882001541665ffffffffffff8516106000146112395750915b9192509361115d565b9291506112459061297b565b90611230565b637669fc0f60e11b60005260045260245260446000fd5b6001600160a01b031660009081527fe8b26c30fad74198956032a3533d903385d56dd795af560196f9c78d4af40d016020526040902090565b6001600160a01b031660009081527f80bb2b638cc20bc4d0a60d66940f3ab4a00c1d7b313497ca82fb0b4ab00793056020526040902090565b6001600160a01b031660009081527f80bb2b638cc20bc4d0a60d66940f3ab4a00c1d7b313497ca82fb0b4ab00793036020526040902090565b634e487b7160e01b600052603260045260246000fd5b919091805483101561134657600052601860206000208360021c019260031b1690565b61130d565b346102be5760403660031901126102be57611364610538565b6001600160a01b03166000908152600260205260409020805460243591908210156102be576001600160401b039161139b91611323565b90549060031b1c1660405180916001600160401b0360208301911682520390f35b346102be5760403660031901126102be57602060ff6114106004356113df61054e565b906000526000805160206142a5833981519152845260406000209060018060a01b0316600052602052604060002090565b54166040519015158152f35b346102be5760003660031901126102be5760206114384361293b565b65ffffffffffff60405191168152f35b346102be5760003660031901126102be57604051600060008051602061432583398151915254611477816117e1565b80845290600181169081156104b7575060011461149e576103118361043f81850382610814565b60008051602061432583398151915260009081527ff4bad0a69248f59680a4f2b3000328cec71a413447c96781cfe5996daa8c456e939250905b8082106114f05750909150810160200161043f61042f565b9192600181602092548385880101520191019092916114d8565b346102be5760203660031901126102be5760206001600160d01b0361153d611538611533610538565b611262565b612d1d565b16604051908152f35b346102be5760003660031901126102be57602060405160008152f35b346102be5760403660031901126102be5761157b610538565b6024358015158091036102be576001600160a01b0382169182156115e1576115a69061063c3361129b565b60ff1981541660ff83161790556040519081527f17307eab39ab6107e8899845ad3d59bd9653f200f220920489ca2b5937696c3160203392a3005b82630b61174360e31b60005260045260246000fd5b346102be5760803660031901126102be5761160f610538565b61161761054e565b90604435606435926001600160401b0384116102be5761163e61061594369060040161087f565b92610bf0838383611c1f565b346102be5760c03660031901126102be57611663610538565b6044359060243560643560ff811681036102be5760843560a43591854211611777579161176b916117729360426106159860405160208101917fe48329057bfd03d55e49b547132e39cffd9c1820ad7b9d4c5307691425d15adf835260018060a01b038b1660408301528960608301526080820152608081526116e760a082610814565b5190206116f2613f27565b6116fa613f91565b6040519060208201927f8b73c3c69bb8fe3d512ecc4cf759cc79239f7b179b0ffacaa9a75d522b39400f8452604083015260608201524660808201523060a082015260a0815261174b60c082610814565b519020906040519161190160f01b83526002830152602282015220612f56565b9182612f6e565b612b0b565b85632341d78760e11b60005260045260246000fd5b346102be5760203660031901126102be576103116117ab600435613015565b6040519182916020835260208301906103af565b60209060031901126102be576004356001600160401b03811681036102be5790565b90600182811c92168015611811575b60208310146117fb57565b634e487b7160e01b600052602260045260246000fd5b91607f16916117f0565b6000929181549161182b836117e1565b8083529260018116908115611881575060011461184757505050565b60009081526020812093945091925b838310611867575060209250010190565b600181602092949394548385870101520191019190611856565b915050602093945060ff929192191683830152151560051b010190565b906108446118b2926040519384809261181b565b0383610814565b346102be576001600160401b036118cf366117bf565b1660005260016020526119516040600020610311604051916118fc836118f5818461181b565b0384610814565b600361195f60405161191c81611915816001880161181b565b0382610814565b61193d60018060a01b03600286015416946118f5604051809681930161181b565b6040519687966080885260808801906103af565b9086820360208801526103af565b91604085015283820360608501526103af565b346102be5760403660031901126102be5761198b610538565b6024356001600160401b0381116102be576119aa90369060040161087f565b6119b26125a3565b6000546000198114610a305760018101600055604051926119d4602085610814565b600084526001600160a01b03811615611a28576001600160a01b036119f983836134d9565b16611a12576106159382611a0d9233612dc2565b61321f565b6339e3563760e11b600052600060045260246000fd5b633250574960e11b600052600060045260246000fd5b346102be5760003660031901126102be5760206040517f9f2df0fed2c77648de5860a4cc508cd0818c85b8b8a1ab4ceeef8d981c8956a68152f35b346102be5760403660031901126102be57610615600435611a9861054e565b90611aa561073c82611d54565b612896565b906103e591602081526001600160401b0382511660208201526080611af7611ae1602085015160a0604086015260c08501906103af565b6040850151848203601f190160608601526103af565b60608401516001600160a01b031682840152920151601f198284030160a0909201919091526103af565b346102be57610311611b32366117bf565b60606080604051611b42816107f4565b600081528260208201528260408201526000838201520152611bdd6003611b7c836001600160401b03166000526001602052604060002090565b6002810154611bd7906001600160a01b0316611ba8611b99610846565b6001600160401b039097168752565b611bb18361189e565b6020870152611bc26001840161189e565b60408701526001600160a01b03166060860152565b0161189e565b608082015260405191829182611aaa565b346102be5760403660031901126102be57602060ff611410611c0e610538565b61063c611c1961054e565b9161129b565b6001600160a01b03821692918315611a2857611cd0611c3d84613370565b9133611d44575b6001600160a01b0383169586158015611d25575b611c61836112d4565b60018154019055611c8d836105f6896000526000805160206142c5833981519152602052604060002090565b8682897fddf252ad1be2c89b69c2b068fc378daa952ba7f163c4a11628f55a4df523b3ef600080a415611d0f57611cc386613d53565b8603611d00575b82613a69565b506001600160a01b0316808303611ce657505050565b6364283d7b60e01b60005260045260245260445260646000fd5b611d0a8582613dc6565b611cca565b868114611cc357611d208685613c7f565b611cc3565b611d2e87613398565b611d37856112d4565b8054600019019055611c58565b611d4f853385613fd6565b611c44565b6000526000805160206142a583398151915260205260016040600020015490565b634e487b7160e01b600052601160045260246000fd5b818110611d96575050565b60008155600101611d8b565b90601f8211611daf575050565b610844916000805160206141e58339815191526000526020600020906020601f840160051c83019310611dea575b601f0160051c0190611d8b565b9091508190611ddd565b90601f8211611e01575050565b610844916000805160206142058339815191526000526020600020906020601f840160051c83019310611dea57601f0160051c0190611d8b565b9190601f8111611e4a57505050565b610844926000526020600020906020601f840160051c83019310611dea57601f0160051c0190611d8b565b9081516001600160401b03811161080f57611eb681611ea2600080516020614325833981519152546117e1565b600080516020614325833981519152611e3b565b602092601f8211600114611f0557611ee892938291600092611efa575b50508160011b916000199060031b1c19161790565b60008051602061432583398151915255565b015190503880611ed3565b600080516020614325833981519152600052601f198216937ff4bad0a69248f59680a4f2b3000328cec71a413447c96781cfe5996daa8c456e9160005b868110611f865750836001959610611f6d575b505050811b0160008051602061432583398151915255565b015160001960f88460031b161c19169055388080611f55565b91926020600181928685015181550194019201611f42565b9081516001600160401b03811161080f57611fdf81611fcb600080516020614245833981519152546117e1565b600080516020614245833981519152611e3b565b602092601f82116001146120225761201092938291600092611efa5750508160011b916000199060031b1c19161790565b60008051602061424583398151915255565b600080516020614245833981519152600052601f198216937f5f9ce34815f8e11431c7bb75a8e6886a91478f7ffc1dbb0a98dc240fddd76b759160005b8681106120a3575083600195961061208a575b505050811b0160008051602061424583398151915255565b015160001960f88460031b161c19169055388080612072565b9192602060018192868501518155019401920161205f565b91909182516001600160401b03811161080f576120e2816120dc84546117e1565b84611e3b565b6020601f8211600114612117578190612113939495600092611efa5750508160011b916000199060031b1c19161790565b9055565b601f1982169061212c84600052602060002090565b9160005b8181106121685750958360019596971061214f575b505050811b019055565b015160001960f88460031b161c19169055388080612145565b9192602060018192868b015181550194019201612130565b91909182519283516001600160401b03811161080f576121aa816121a485546117e1565b85611e3b565b6020601f821160011461222657916121e3826060936003956108449899600092611efa5750508160011b916000199060031b1c19161790565b84555b6121f76020820151600186016120bb565b60408101516002850180546001600160a01b0319166001600160a01b03909216919091179055015191016120bb565b601f1982169561223b85600052602060002090565b9660005b818110612283575092610844969760039593600193836060971061226b575b505050811b0184556121e6565b015160001983881b60f8161c1916905538808061225e565b8383015189556001909801976020938401930161223f565b8054600160401b81101561080f576122b891600182018155611323565b6001600160401b0380839493549260031b9316831b921b1916179055565b90916122ed6103e5936040845260408401906103af565b9160208184039101526103af565b6040519061230a604083610814565b601d82527f436f6c6c65637469766520537570657220496e74656c6c6967656e63650000006020830152565b60405190612345604083610814565b60018252603160f81b6020830152565b61235d6122fb565b6040519061236c604083610814565b600382526243534960e81b60208301526123846137c6565b61238c6137c6565b8051906001600160401b03821161080f576123be826123b96000805160206141e5833981519152546117e1565b611da2565b602090601f831160011461245f57926123fb8361245c9796946124109461245697600092611efa5750508160011b916000199060031b1c19161790565b6000805160206141e583398151915255611e75565b6124186137c6565b6124206137c6565b6124286137c6565b6124306137c6565b61244961243b6122fb565b612443612336565b90612989565b6124516137c6565b61265f565b50612711565b50565b6000805160206141e5833981519152600052601f19831691907f37c58c799b6609234b945e882912ee9ad34948a1dfaa20a97485e1a7752bbf819260005b8181106124f35750936124109361245696936001938361245c9b9a98106124da575b505050811b016000805160206141e583398151915255611e75565b015160001960f88460031b161c191690553880806124bf565b9293602060018192878601518155019501930161249d565b600080516020614285833981519152548110156113465760008051602061428583398151915260005260206000200190600090565b6001600160a01b0381161561255c57612558906112d4565b5490565b6322718ad960e21b600052600060045260246000fd5b61257b81613370565b906001600160a01b0382161561258f575090565b637e27328960e01b60005260045260246000fd5b3360009081527f549fe2656c81d2947b3b913f0a53b9ea86c71e049f3a1b8aa23c09a8a05cb8d4602052604090205460ff16156125dc57565b63e2517d3f60e01b600052336004527f9f2df0fed2c77648de5860a4cc508cd0818c85b8b8a1ab4ceeef8d981c8956a660245260446000fd5b60008181526000805160206142a58339815191526020908152604080832033845290915290205460ff16156126475750565b63e2517d3f60e01b6000523360045260245260446000fd5b6001600160a01b03811660009081527fb7db2dd08fcb62d0c9e08c51941cae53c267786a0b75803fb7960902fc8ef97d602052604090205460ff1661270b576001600160a01b031660008181527fb7db2dd08fcb62d0c9e08c51941cae53c267786a0b75803fb7960902fc8ef97d60205260408120805460ff191660011790553391907f2f8788117e7eff1d82e926ec794901d17c78024a50270940304540a733656f0d8180a4600190565b50600090565b6001600160a01b03811660009081527f549fe2656c81d2947b3b913f0a53b9ea86c71e049f3a1b8aa23c09a8a05cb8d4602052604090205460ff1661270b576001600160a01b03811660009081527f549fe2656c81d2947b3b913f0a53b9ea86c71e049f3a1b8aa23c09a8a05cb8d460205260409020805460ff1916600117905533906001600160a01b03167f9f2df0fed2c77648de5860a4cc508cd0818c85b8b8a1ab4ceeef8d981c8956a67f2f8788117e7eff1d82e926ec794901d17c78024a50270940304540a733656f0d600080a4600190565b60008181526000805160206142a5833981519152602090815260408083206001600160a01b038616845290915290205460ff1661288f5760008181526000805160206142a5833981519152602090815260408083206001600160a01b03861684529091529020805460ff1916600117905533916001600160a01b0316907f2f8788117e7eff1d82e926ec794901d17c78024a50270940304540a733656f0d600080a4600190565b5050600090565b60008181526000805160206142a5833981519152602090815260408083206001600160a01b038616845290915290205460ff161561288f5760008181526000805160206142a5833981519152602090815260408083206001600160a01b03861684529091529020805460ff1916905533916001600160a01b0316907ff6391f5c32d9c69d2a47ea670b442974b53935d1edc7fd64eb21e047a839171b600080a4600190565b65ffffffffffff81116129535765ffffffffffff1690565b6306dfcc6560e41b600052603060045260245260446000fd5b600019810191908211610a3057565b9060018201809211610a3057565b6129916137c6565b6129996137c6565b8051906001600160401b03821161080f576129cb826129c6600080516020614205833981519152546117e1565b611df4565b602090601f8311600114612a67579180612a0092612a159594600092611efa5750508160011b916000199060031b1c19161790565b60008051602061420583398151915255611f9e565b612a3e60007fa16a46d94261c7517cc8ff89f61c0ce93598e3c849801011dee649a6a557d10055565b61084460007fa16a46d94261c7517cc8ff89f61c0ce93598e3c849801011dee649a6a557d10155565b600080516020614205833981519152600052601f19831691907f42ad5d3e1f2e6e70edcf6d991b8a3023d3fca8047a131592f9edb9fd9b89d57d9260005b818110612af35750916001939185612a1597969410612ada575b505050811b0160008051602061420583398151915255611f9e565b015160001960f88460031b161c19169055388080612abf565b92936020600181928786015181550195019301612aa5565b6001600160a01b0381811660008181527fe8b26c30fad74198956032a3533d903385d56dd795af560196f9c78d4af40d006020526040902080546001600160a01b031981168487161790915561084494921692612b99916001600160a01b0384169085907f3134e8a2e6d97e929a7e54011ea5485d7d196dd5f0ba4d4ef95803e8e3fc257f600080a4612540565b916137f4565b60405160008051602061420583398151915254816000612bbe836117e1565b8083529260018116908115612c4f5750600114612be2575b6103e592500382610814565b50600080516020614205833981519152600090815290917f42ad5d3e1f2e6e70edcf6d991b8a3023d3fca8047a131592f9edb9fd9b89d57d5b818310612c335750509060206103e592820101612bd6565b6020919350806001915483858801015201910190918392612c1b565b602092506103e594915060ff191682840152151560051b820101612bd6565b60405160008051602061424583398151915254816000612c8d836117e1565b8083529260018116908115612c4f5750600114612cb0576103e592500382610814565b50600080516020614245833981519152600090815290917f5f9ce34815f8e11431c7bb75a8e6886a91478f7ffc1dbb0a98dc240fddd76b755b818310612d015750509060206103e592820101612bd6565b6020919350806001915483858801015201910190918392612ce9565b80549081612d2c575050600090565b81600019810111610a305760005260001990602060002001015460301c90565b908160209103126102be57516103e5816102ac565b6001600160a01b0391821681529116602082015260408101919091526080606082018190526103e5929101906103af565b3d15612dbd573d90612da382610864565b91612db16040519384610814565b82523d6000602084013e565b606090565b9092833b612dd1575b50505050565b604051630a85bd0160e11b81529260209284928392612df69260009060048601612d61565b038160006001600160a01b0387165af160009181612e89575b50612e4b5750612e1d612d92565b8051919082612e4457633250574960e11b6000526001600160a01b03821660045260246000fd5b9050602001fd5b6001600160e01b03191663757a42ff60e11b01612e6c575038808080612dcb565b633250574960e11b6000526001600160a01b031660045260246000fd5b612eac91925060203d602011612eb3575b612ea48183610814565b810190612d4c565b9038612e0f565b503d612e9a565b939193843b612ecb575b5050505050565b612eec6020936040519586948594630a85bd0160e11b865260048601612d61565b038160006001600160a01b0387165af160009181612f35575b50612f135750612e1d612d92565b6001600160e01b03191663757a42ff60e11b01612e6c57503880808080612ec4565b612f4f91925060203d602011612eb357612ea48183610814565b9038612f05565b916103e59391612f65936138f7565b909291926139ac565b6001600160a01b031660008181527f5ab42ced628888259c08ac98db1eb0cf702fc1501344311d8b100cd1bfe4bb006020526040902080546001810190915591829003612fb9575050565b6301d4b62360e61b60005260045260245260446000fd5b6108449092919260206040519482612ff1879451809285808801910161038c565b83016130058251809385808501910161038c565b010103601f198101845283610814565b61301e81612572565b50806000527f0542a41881ee128a365a727b282c86fa859579490b9bb45aab8503648c8e790060205261191561305e60406000206040519283809261181b565b613066613a2e565b80511561321957815161320f57505061307e81612572565b50613087613a2e565b8051909190600090156131f85750808160009272184f03e93ff9f4daa797ed6e38ed64bf6a1f0160401b8110156131d2575b50806d04ee2d6d415b85acef8100000000600a9210156131b6575b662386f26fc100008110156131a1575b6305f5e10081101561318f575b61271081101561317f575b6064811015613170575b1015613165575b61314a602161311e60018501613c4d565b938401015b60001901916f181899199a1a9b1b9c1cb0b131b232b360811b600a82061a8353600a900490565b90811561315a5761314a90613123565b50506103e591612fd0565b60019091019061310d565b60029060649004930192613106565b60049061271090049301926130fc565b6008906305f5e10090049301926130f1565b601090662386f26fc1000090049301926130e4565b6020906d04ee2d6d415b85acef810000000090049301926130d4565b6040935072184f03e93ff9f4daa797ed6e38ed64bf6a1f0160401b90049050600a6130b9565b9150506040519061320a602083610814565b815290565b6103e59250612fd0565b50905090565b919091806000527f0542a41881ee128a365a727b282c86fa859579490b9bb45aab8503648c8e7900602052604060002083516001600160401b03811161080f5761326d816120dc84546117e1565b6020601f82116001146132dc57816132d79493926132c4927ff8e1a15aba9398e019f0b49df1a4fde98ee17ae345cb5f6b5e2c27f5033e8ce79798600092611efa5750508160011b916000199060031b1c19161790565b90555b6040519081529081906020820190565b0390a1565b601f198216956132f184600052602060002090565b9660005b81811061335857509660019284926132d79796957ff8e1a15aba9398e019f0b49df1a4fde98ee17ae345cb5f6b5e2c27f5033e8ce7999a1061333f575b505050811b0190556132c7565b015160001960f88460031b161c19169055388080613332565b838301518955600190980197602093840193016132f5565b60009081526000805160206142c583398151915260205260409020546001600160a01b031690565b6133b9906000526000805160206142e5833981519152602052604060002090565b80546001600160a01b0319169055565b61346a906133d681613370565b92816001600160a01b0382166134c8575b50506001600160a01b0383168015801591839060009084613484575b613424836000526000805160206142c5833981519152602052604060002090565b80546001600160a01b03191690557fddf252ad1be2c89b69c2b068fc378daa952ba7f163c4a11628f55a4df523b3ef8280a415613475575061346581613d53565b613e3c565b6103e5600082613a69565b15613e3c576134658184613c7f565b6134a5836000526000805160206142e5833981519152602052604060002090565b80546001600160a01b03191690556134bc886112d4565b82198154019055613403565b6134d29185613fd6565b38816133e7565b6103e5906134e683613370565b926001600160a01b03841680159081156135c2575b6001600160a01b0384169182159081156135ad575b613535866105f6876000526000805160206142c5833981519152602052604060002090565b8484847fddf252ad1be2c89b69c2b068fc378daa952ba7f163c4a11628f55a4df523b3ef600080a4156135975761356b84613d53565b1561357b575050611cca90613e3c565b03613587575b50611cca565b6135919082613dc6565b38613581565b81831461356b576135a88488613c7f565b61356b565b6135b6866112d4565b60018154019055613510565b6135cb83613398565b6135d4866112d4565b80546000190190556134fb565b81156135eb570490565b634e487b7160e01b600052601260045260246000fd5b60018111156103e557806001600160801b821015613722575b6136c86136be6136b46136aa6136a06136966136856136cf9760048a600160401b6136d49c1015613715575b640100000000811015613708575b620100008110156136fb575b6101008110156136ee575b60108110156136e1575b10156136d9575b60030260011c90565b61368f818b6135e1565b0160011c90565b61368f818a6135e1565b61368f81896135e1565b61368f81886135e1565b61368f81876135e1565b61368f81866135e1565b80936135e1565b821190565b900390565b60011b61367c565b60041c9160021b91613675565b60081c9160041b9161366b565b60101c9160081b91613660565b60201c9160101b91613654565b60401c9160201b91613646565b50506136d46136cf6136c86136be6136b46136aa6136a06136966136856137498a60801c90565b9850600160401b975061361a9650505050505050565b91905b83821061376f5750505090565b9091928083169080841860011c8201809211610a30578460005265ffffffffffff82602060002001541665ffffffffffff8416106000146137b45750925b9190613762565b9392506137c09061297b565b916137ad565b60ff6000805160206143058339815191525460401c16156137e357565b631afcd79f60e31b60005260046000fd5b6001600160a01b038083169392919081169081851415806138ee575b61381b575050505050565b81613890575b505082613830575b8080612ec4565b7fdec2bacdd2f05b59de34da9b523dff8be42e5e38e818c82fdb0bae774387a7249161386761386161386d93611262565b91613b5f565b90613bca565b604080516001600160d01b039384168152919092166020820152a2388080613829565b6138cc6138bd7fdec2bacdd2f05b59de34da9b523dff8be42e5e38e818c82fdb0bae774387a72492611262565b6138c686613b5f565b90613b92565b604080516001600160d01b039384168152919092166020820152a23880613821565b50831515613810565b91907f7fffffffffffffffffffffffffffffff5d576e7357a4501ddfe92f46681b20a08411613980579160209360809260ff60009560405194855216868401526040830152606082015282805260015afa15613974576000516001600160a01b038116156139685790600090600090565b50600090600190600090565b6040513d6000823e3d90fd5b50505060009160039190565b6004111561399657565b634e487b7160e01b600052602160045260246000fd5b6139b58161398c565b806139be575050565b6139c78161398c565b600181036139e05763f645eedf60e01b60005260046000fd5b6139e98161398c565b60028103613a06575063fce698f760e01b60005260045260246000fd5b80613a1260039261398c565b14613a1a5750565b6335e2f38360e21b60005260045260246000fd5b60405190613a3d604083610814565b601c82527f68747470733a2f2f6578616d706c652e636f6d2f70726f6a6563742f000000006020830152565b6001600160a01b0316908115613af1575b610844916001916001600160a01b0316908115613ad9575b60009081527fe8b26c30fad74198956032a3533d903385d56dd795af560196f9c78d4af40d0060205260408082205492825290205460a083901b83900390811691166137f4565b613aea613ae584613b5f565b613bfe565b5050613a92565b613afb6001613b5f565b91613b054361293b565b92613b1d600080516020614265833981519152612d1d565b6001600160d01b039182169082160192908311610a305761084493600193613b53916000805160206142658339815191526140e9565b90505091509150613a7a565b6001600160d01b038111613b79576001600160d01b031690565b6306dfcc6560e41b60005260d060045260245260446000fd5b90613b9c4361293b565b90613ba683612d1d565b6001600160d01b039182169082160391908211610a3057613bc6926140e9565b9091565b90613bd44361293b565b90613bde83612d1d565b6001600160d01b039182169082160191908211610a3057613bc6926140e9565b613c074361293b565b90613c1f600080516020614265833981519152612d1d565b6001600160d01b0391821690821603908111610a3057613bc6916000805160206142658339815191526140e9565b90613c5782610864565b613c646040519182610814565b8281528092613c75601f1991610864565b0190602036910137565b906000613d03613c8e84612540565b928083526000805160206141c583398151915260205260408320549460018060a01b031683527f645e039705490088daad89bae25049a34f4a9072d398537b1ab2425f24cbed006020526040832094848103613d13575b506000526000805160206141c5833981519152602052604060002090565b5560005260205260006040812055565b84845285602052613d4c6040852054828652876020528060408720556000526000805160206141c5833981519152602052604060002090565b5538613ce5565b60008051602061428583398151915254908060005260008051602061422583398151915260205281604060002055600160401b82101561080f57613dad82600161084494016000805160206142858339815191525561250b565b90919082549060031b91821b91600019901b1916179055565b90613dd082612540565b600019810192908311610a305760018060a01b03166000527f645e039705490088daad89bae25049a34f4a9072d398537b1ab2425f24cbed00602052604060002082600052602052806040600020556000526000805160206141c5833981519152602052604060002055565b600080516020614285833981519152546000198101908111610a305781600052600080516020614225833981519152602052613e7d6040600020549161250b565b90549060031b1c613e9181613dad8461250b565b60005260008051602061422583398151915260205260406000205560005260008051602061422583398151915260205260006040812055600080516020614285833981519152548015613f115760001901613eff613eee8261250b565b8154906000199060031b1b19169055565b60008051602061428583398151915255565b634e487b7160e01b600052603160045260246000fd5b613f2f612b9f565b8051908115613f3f576020012090565b50507fa16a46d94261c7517cc8ff89f61c0ce93598e3c849801011dee649a6a557d100548015613f6c5790565b507fc5d2460186f7233c927e7db2dcc703c0e500b653ca82273b7bfad8045d85a47090565b613f99612c6e565b8051908115613fa9576020012090565b50507fa16a46d94261c7517cc8ff89f61c0ce93598e3c849801011dee649a6a557d101548015613f6c5790565b6001600160a01b038216918215159081614030575b5015613ff657505050565b6001600160a01b031661401957637e27328960e01b600052600482905260246000fd5b63177e802f60e01b60005260045260245260446000fd5b6001600160a01b038316841491508115614080575b508015614053575b38613feb565b5060008381526000805160206142e583398151915260205260409020546001600160a01b0316821461404d565b60ff91506140919061063c8461129b565b541638614045565b908154600160401b81101561080f5760018101835560009280548210156113465783526020928390208251929093015160301b65ffffffffffff191665ffffffffffff9290921691909117910155565b805492939280156141995761410061410d9161296c565b8260005260206000200190565b8054603081901c9365ffffffffffff9182169291811680841161418857879303614154575061415092509065ffffffffffff82549181199060301b169116179055565b9190565b91505061415091614174614166610855565b65ffffffffffff9093168352565b6001600160d01b0386166020830152614099565b632520601d60e01b60005260046000fd5b50906141be916141aa614166610855565b6001600160d01b0385166020830152614099565b6000919056fe645e039705490088daad89bae25049a34f4a9072d398537b1ab2425f24cbed0180bb2b638cc20bc4d0a60d66940f3ab4a00c1d7b313497ca82fb0b4ab0079300a16a46d94261c7517cc8ff89f61c0ce93598e3c849801011dee649a6a557d102645e039705490088daad89bae25049a34f4a9072d398537b1ab2425f24cbed03a16a46d94261c7517cc8ff89f61c0ce93598e3c849801011dee649a6a557d103e8b26c30fad74198956032a3533d903385d56dd795af560196f9c78d4af40d02645e039705490088daad89bae25049a34f4a9072d398537b1ab2425f24cbed0202dd7bc7dec4dceedda775e58dd541e08a116c6c53815c0bd028192f7b62680080bb2b638cc20bc4d0a60d66940f3ab4a00c1d7b313497ca82fb0b4ab007930280bb2b638cc20bc4d0a60d66940f3ab4a00c1d7b313497ca82fb0b4ab0079304f0c57e16840df040f15088dc2f81fe391c3923bec73e23a9662efc9c229c6a0080bb2b638cc20bc4d0a60d66940f3ab4a00c1d7b313497ca82fb0b4ab0079301a2646970667358221220417272e5008c10f0c9991278977921c74fb88e6bbdf65ae70ed15f9b1b727ced64736f6c634300081a0033","linkReferences":{}},"methodIdentifiers":{"CLOCK_MODE()":"4bf5d7e9","DEFAULT_ADMIN_ROLE()":"a217fddf","MINTER_ROLE()":"d5391393","addTrigger(string,string,bytes)":"30628cc8","approve(address,uint256)":"095ea7b3","balanceOf(address)":"70a08231","burn(uint256)":"42966c68","clock()":"91ddadf4","delegate(address)":"5c19a95c","delegateBySig(address,uint256,uint256,uint8,bytes32,bytes32)":"c3cda520","delegates(address)":"587cde1e","eip712Domain()":"84b0196e","getApproved(uint256)":"081812fc","getPastTotalSupply(uint256)":"8e539e8c","getPastVotes(address,uint256)":"3a46b1a8","getRoleAdmin(bytes32)":"248a9ca3","getTrigger(uint64)":"e328ed77","getVotes(address)":"9ab24eb0","grantRole(bytes32,address)":"2f2ff15d","hasRole(bytes32,address)":"91d14854","initialize(address,address)":"485cc955","isApprovedForAll(address,address)":"e985e9c5","name()":"06fdde03","nextTriggerId()":"42227fa4","nonces(address)":"7ecebe00","ownerOf(uint256)":"6352211e","renounceRole(bytes32,address)":"36568abe","revokeRole(bytes32,address)":"d547741f","safeMint(address,string)":"d204c45e","safeTransferFrom(address,address,uint256)":"42842e0e","safeTransferFrom(address,address,uint256,bytes)":"b88d4fde","setApprovalForAll(address,bool)":"a22cb465","supportsInterface(bytes4)":"01ffc9a7","symbol()":"95d89b41","tokenByIndex(uint256)":"4f6ccce7","tokenOfOwnerByIndex(address,uint256)":"2f745c59","tokenURI(uint256)":"c87b56dd","totalSupply()":"18160ddd","transferFrom(address,address,uint256)":"23b872dd","triggerIdsByCreator(address,uint256)":"913b1fbf","triggersById(uint64)":"ce289612"},"id":1}