{"abi":[{"type":"function","name":"addTrigger","inputs":[{"name":"serviceId","type":"string","internalType":"string"},{"name":"data","type":"bytes","internalType":"bytes"}],"outputs":[],"stateMutability":"nonpayable"},{"type":"function","name":"allServiceIds","inputs":[{"name":"","type":"uint256","internalType":"uint256"}],"outputs":[{"name":"","type":"string","internalType":"string"}],"stateMutability":"view"},{"type":"function","name":"getTrigger","inputs":[{"name":"triggerId","type":"uint64","internalType":"ILayerTrigger.TriggerId"}],"outputs":[{"name":"","type":"tuple","internalType":"struct ILayerTrigger.TriggerResponse","components":[{"name":"triggerId","type":"uint64","internalType":"ILayerTrigger.TriggerId"},{"name":"serviceId","type":"string","internalType":"string"},{"name":"creator","type":"address","internalType":"address"},{"name":"data","type":"bytes","internalType":"bytes"}]}],"stateMutability":"view"},{"type":"function","name":"getTriggersByServiceId","inputs":[{"name":"serviceId","type":"string","internalType":"string"},{"name":"cursor","type":"uint256","internalType":"uint256"},{"name":"limit","type":"uint256","internalType":"uint256"}],"outputs":[{"name":"triggers","type":"tuple[]","internalType":"struct ILayerTrigger.TriggerResponse[]","components":[{"name":"triggerId","type":"uint64","internalType":"ILayerTrigger.TriggerId"},{"name":"serviceId","type":"string","internalType":"string"},{"name":"creator","type":"address","internalType":"address"},{"name":"data","type":"bytes","internalType":"bytes"}]},{"name":"nextCursor","type":"uint256","internalType":"uint256"}],"stateMutability":"view"},{"type":"function","name":"nextTriggerId","inputs":[],"outputs":[{"name":"","type":"uint64","internalType":"ILayerTrigger.TriggerId"}],"stateMutability":"view"},{"type":"function","name":"serviceIdExists","inputs":[{"name":"","type":"string","internalType":"string"}],"outputs":[{"name":"","type":"bool","internalType":"bool"}],"stateMutability":"view"},{"type":"function","name":"triggerIdsByCreator","inputs":[{"name":"","type":"address","internalType":"address"},{"name":"","type":"uint256","internalType":"uint256"}],"outputs":[{"name":"","type":"uint64","internalType":"ILayerTrigger.TriggerId"}],"stateMutability":"view"},{"type":"function","name":"triggerIdsByServiceId","inputs":[{"name":"","type":"string","internalType":"string"},{"name":"","type":"uint256","internalType":"uint256"}],"outputs":[{"name":"","type":"uint64","internalType":"ILayerTrigger.TriggerId"}],"stateMutability":"view"},{"type":"function","name":"triggersById","inputs":[{"name":"","type":"uint64","internalType":"ILayerTrigger.TriggerId"}],"outputs":[{"name":"serviceId","type":"string","internalType":"string"},{"name":"creator","type":"address","internalType":"address"},{"name":"data","type":"bytes","internalType":"bytes"}],"stateMutability":"view"},{"type":"event","name":"NewTrigger","inputs":[{"name":"serviceId","type":"string","indexed":true,"internalType":"string"},{"name":"triggerId","type":"uint64","indexed":true,"internalType":"ILayerTrigger.TriggerId"}],"anonymous":false}],"bytecode":{"object":"0x60808060405234601557610c6a908161001a8239f35b5f80fdfe6080806040526004361015610012575f80fd5b5f3560e01c90816342227fa41461067e57508063650489ae1461061257806372eeef611461056b5780637777d88114610511578063913b1fbf146104ae578063bd2abf5d14610459578063cc0048861461016a578063ce289612146100cb5763e328ed771461007f575f80fd5b346100c75760203660031901126100c7576004356001600160401b03811681036100c7576100af6100c391610bc2565b604051918291602083526020830190610799565b0390f35b5f80fd5b346100c75760203660031901126100c7576004356001600160401b0381168091036100c7575f525f60205261015760405f206100c360405191610119836101128184610838565b03846106bc565b600261014360018060a01b036001840154169261013c6040518094819301610838565b03826106bc565b604051948594606086526060860190610775565b9160208501528382036040850152610775565b346100c75760403660031901126100c7576004356001600160401b0381116100c75761019a903690600401610722565b6024356001600160401b0381116100c757366023820112156100c7576101ca9036906024816004013591016106dd565b906005549060016001600160401b038316016001600160401b038111610445576001600160401b031680926001600160401b0319161760055560405160608101908082106001600160401b038311176103c5576002916040528281526020810133815260408201958652845f525f60205261024a60405f20925183610aca565b600182019060018060a01b039051166bffffffffffffffffffffffff60a01b8254161790550192519283516001600160401b0381116103c557610297816102918454610800565b84610a7b565b602094601f82116001146103e4576102c99293949582915f926103d9575b50508160011b915f199060031b1c19161790565b90555b604051906102f183825193602081818601968088835e81016001815203019020610b87565b60ff60405160208184518087835e8101600481520301902054161561035f575b335f5260026020526103268360405f20610b87565b604051918291518091835e81015f81520390207fdb74b560efaff81f1262dff792fa9d5cc9ebd54e7572a64ba863f167a20160e55f80a3005b600354600160401b8110156103c55780600161037e92016003556107e8565b6103b2578161038c91610aca565b60405160208183518086835e81016004815203019020600160ff19825416179055610311565b634e487b7160e01b5f525f60045260245ffd5b634e487b7160e01b5f52604160045260245ffd5b0151905086806102b5565b601f19821695835f52805f20915f5b88811061042d57508360019596979810610415575b505050811b0190556102cc565b01515f1960f88460031b161c19169055858080610408565b919260206001819286850151815501940192016103f3565b634e487b7160e01b5f52601160045260245ffd5b346100c75760203660031901126100c7576004356003548110156100c757610480906107e8565b6103b25761013c61049a6100c39260405192838092610838565b604051918291602083526020830190610775565b346100c75760403660031901126100c7576004356001600160a01b038116908190036100c757602435905f52600260205260405f209081548110156100c7576105016001600160401b0391602093610740565b90549060031b1c16604051908152f35b346100c75760203660031901126100c7576004356001600160401b0381116100c75760ff60208061054781943690600401610722565b604051928184925191829101835e8101600481520301902054166040519015158152f35b346100c75760603660031901126100c7576004356001600160401b0381116100c75761059e6105ab913690600401610722565b6044359060243590610922565b9060405190604082016040835281518091526060830190602060608260051b8601019301915f905b8282106105e7578580868960208301520390f35b90919293602080610604600193605f198a82030186528851610799565b9601920192019092916105d3565b346100c75760403660031901126100c7576004356001600160401b0381116100c757610642903690600401610722565b604051815160243592602091839181908401835e810160018152030190209081548110156100c7576105016001600160401b0391602093610740565b346100c7575f3660031901126100c7576020906001600160401b03600554168152f35b608081019081106001600160401b038211176103c557604052565b90601f801991011681019081106001600160401b038211176103c557604052565b9291926001600160401b0382116103c55760405191610706601f8201601f1916602001846106bc565b8294818452818301116100c7578281602093845f960137010152565b9080601f830112156100c75781602061073d933591016106dd565b90565b9190918054831015610761575f52601860205f208360021c019260031b1690565b634e487b7160e01b5f52603260045260245ffd5b805180835260209291819084018484015e5f828201840152601f01601f1916010190565b61073d916001600160401b03825116815260606107c56020840151608060208501526080840190610775565b9260018060a01b0360408201511660408401520151906060818403910152610775565b6003548110156107615760035f5260205f2001905f90565b90600182811c9216801561082e575b602083101461081a57565b634e487b7160e01b5f52602260045260245ffd5b91607f169161080f565b5f929181549161084783610800565b808352926001811690811561089c575060011461086357505050565b5f9081526020812093945091925b838310610882575060209250010190565b600181602092949394548385870101520191019190610871565b915050602093945060ff929192191683830152151560051b010190565b6001600160401b0381116103c55760051b60200190565b604051906108dd826106a1565b606080835f81528160208201525f60408201520152565b9190820391821161044557565b9190820180921161044557565b80518210156107615760209160051b010190565b92919060405193805194602081818401978089835e810160018152030190205480831015610a3d5783158015610a2b575b610a17575b50610962836108b9565b9461097060405196876106bc565b838652601f1961097f856108b9565b015f5b818110610a005750505f5b8481106109a1575050509061073d91610901565b6001906109e46001600160401b036109d76040516020818951808a835e8101888152030190206109d1858a610901565b90610740565b90549060031b1c16610bc2565b6109ee828a61090e565b526109f9818961090e565b500161098d565b602090610a0b6108d0565b82828b01015201610982565b610a2491935082906108f4565b915f610958565b50610a3683826108f4565b8411610953565b509093505050604051610a516020826106bc565b5f81525f805b818110610a645750509190565b602090610a6f6108d0565b82828601015201610a57565b601f8211610a8857505050565b5f5260205f20906020601f840160051c83019310610ac0575b601f0160051c01905b818110610ab5575050565b5f8155600101610aaa565b9091508190610aa1565b91909182516001600160401b0381116103c557610aeb816102918454610800565b6020601f8211600114610b29578190610b1a9394955f92610b1e5750508160011b915f199060031b1c19161790565b9055565b015190505f806102b5565b601f19821690835f52805f20915f5b818110610b6f57509583600195969710610b57575b505050811b019055565b01515f1960f88460031b161c191690555f8080610b4d565b9192602060018192868b015181550194019201610b38565b8054600160401b8110156103c557610ba491600182018155610740565b6001600160401b0380839493549260031b9316831b921b1916179055565b6001600160401b0390610bd36108d0565b5016805f525f6020526002610c2c60405f2060018060a01b0360018201541660405194610bff866106a1565b8552604051610c128161013c8186610838565b6020860152604085015261013c6040518094819301610838565b60608201529056fea2646970667358221220de6255d6a783a5129b3d5a314768302bfda8f39e140cf4365e78bfce9ca8826064736f6c634300081a0033","linkReferences":{}},"methodIdentifiers":{"addTrigger(string,bytes)":"cc004886","allServiceIds(uint256)":"bd2abf5d","getTrigger(uint64)":"e328ed77","getTriggersByServiceId(string,uint256,uint256)":"72eeef61","nextTriggerId()":"42227fa4","serviceIdExists(string)":"7777d881","triggerIdsByCreator(address,uint256)":"913b1fbf","triggerIdsByServiceId(string,uint256)":"650489ae","triggersById(uint64)":"ce289612"},"id":1}