{"abi":[{"type":"function","name":"addTrigger","inputs":[{"name":"data","type":"bytes","internalType":"bytes"}],"outputs":[],"stateMutability":"nonpayable"},{"type":"function","name":"getTrigger","inputs":[{"name":"triggerId","type":"uint64","internalType":"ILayerTrigger.TriggerId"}],"outputs":[{"name":"","type":"tuple","internalType":"struct ILayerTrigger.TriggerResponse","components":[{"name":"triggerId","type":"uint64","internalType":"ILayerTrigger.TriggerId"},{"name":"creator","type":"address","internalType":"address"},{"name":"data","type":"bytes","internalType":"bytes"}]}],"stateMutability":"view"},{"type":"function","name":"nextTriggerId","inputs":[],"outputs":[{"name":"","type":"uint64","internalType":"ILayerTrigger.TriggerId"}],"stateMutability":"view"},{"type":"function","name":"triggerIdsByCreator","inputs":[{"name":"","type":"address","internalType":"address"},{"name":"","type":"uint256","internalType":"uint256"}],"outputs":[{"name":"","type":"uint64","internalType":"ILayerTrigger.TriggerId"}],"stateMutability":"view"},{"type":"function","name":"triggersById","inputs":[{"name":"","type":"uint64","internalType":"ILayerTrigger.TriggerId"}],"outputs":[{"name":"creator","type":"address","internalType":"address"},{"name":"data","type":"bytes","internalType":"bytes"}],"stateMutability":"view"},{"type":"event","name":"NewTriggerId","inputs":[{"name":"","type":"uint64","indexed":false,"internalType":"ILayerTrigger.TriggerId"}],"anonymous":false},{"type":"event","name":"WavsTrigger","inputs":[{"name":"","type":"bytes","indexed":false,"internalType":"bytes"}],"anonymous":false}],"bytecode":{"object":"0x60808060405234601557610686908161001a8239f35b5f80fdfe6080806040526004361015610012575f80fd5b5f3560e01c90816342227fa4146104c057508063913b1fbf1461045d578063ce289612146103fc578063e31e0788146101155763e328ed7714610053575f80fd5b34610111576020366003190112610111576004356001600160401b038116809103610111576001600160401b039060606040805161009081610550565b5f81525f60208201520152805f525f60205261010d60405f206100d46001808060a01b0383541692604051956100c587610550565b8652602086019384520161058c565b9060408401918252604051948594602086525116602085015260018060a01b03905116604084015251606080840152608083019061062c565b0390f35b5f80fd5b34610111576020366003190112610111576004356001600160401b03811161011157366023820112156101115780600401356001600160401b038111610323576040519161016d601f8301601f19166020018461056b565b818352366024838301011161011157815f9260246020930183860137830101526002549060016001600160401b038316016001600160401b0381116103e8576001600160401b031680926001600160401b0319161760025560405191604083018381106001600160401b038211176103235760405233835260016020840193838552825f525f60205260405f2090828060a01b039051166bffffffffffffffffffffffff60a01b8254161781550192519283516001600160401b038111610323576102388254610518565b601f81116103a3575b50602094601f8211600114610342579481929394955f92610337575b50508160011b915f199060031b1c19161790555b335f52600160205260405f20918254926801000000000000000084101561032357602061031e936102ea867f6604d0c8fe0a7ed9e81b6eb770345f4852802c8224778107f1576e38a3fa7caf9460017fe46a62dcd7087459c355d61665c6cdd340fa8071b3d5c7d1af525f71d684cf6e990181556104e3565b81549060031b906001600160401b0384831b921b1916179055604051908152a160405191829160208352602083019061062c565b0390a1005b634e487b7160e01b5f52604160045260245ffd5b01519050858061025d565b601f19821695835f52805f20915f5b88811061038b57508360019596979810610373575b505050811b019055610271565b01515f1960f88460031b161c19169055858080610366565b91926020600181928685015181550194019201610351565b825f5260205f20601f830160051c810191602084106103de575b601f0160051c01905b8181106103d35750610241565b5f81556001016103c6565b90915081906103bd565b634e487b7160e01b5f52601160045260245ffd5b34610111576020366003190112610111576004356001600160401b038116809103610111575f525f60205260405f206104406001808060a01b03835416920161058c565b9061010d604051928392835260406020840152604083019061062c565b34610111576040366003190112610111576004356001600160a01b0381169081900361011157602435905f52600160205260405f20908154811015610111576104b06001600160401b03916020936104e3565b90549060031b1c16604051908152f35b34610111575f366003190112610111576020906001600160401b03600254168152f35b9190918054831015610504575f52601860205f208360021c019260031b1690565b634e487b7160e01b5f52603260045260245ffd5b90600182811c92168015610546575b602083101461053257565b634e487b7160e01b5f52602260045260245ffd5b91607f1691610527565b606081019081106001600160401b0382111761032357604052565b90601f801991011681019081106001600160401b0382111761032357604052565b9060405191825f82549261059f84610518565b808452936001811690811561060a57506001146105c6575b506105c49250038361056b565b565b90505f9291925260205f20905f915b8183106105ee5750509060206105c4928201015f6105b7565b60209193508060019154838589010152019101909184926105d5565b9050602092506105c494915060ff191682840152151560051b8201015f6105b7565b805180835260209291819084018484015e5f828201840152601f01601f191601019056fea2646970667358221220ef09df8e8030d68347ba7b90f242c116242261e3e3a3397626df422cd93a3ae564736f6c634300081a0033","linkReferences":{}},"methodIdentifiers":{"addTrigger(bytes)":"e31e0788","getTrigger(uint64)":"e328ed77","nextTriggerId()":"42227fa4","triggerIdsByCreator(address,uint256)":"913b1fbf","triggersById(uint64)":"ce289612"},"id":1}