{"abi":[{"type":"function","name":"nextRequestId","inputs":[],"outputs":[{"name":"","type":"uint256","internalType":"uint256"}],"stateMutability":"view"},{"type":"event","name":"NewRequest","inputs":[{"name":"serviceId","type":"string","indexed":true,"internalType":"string"},{"name":"requestId","type":"uint256","indexed":true,"internalType":"uint256"}],"anonymous":false}],"bytecode":{"object":"0x608080604052346013576074908160188239f35b5f80fdfe60808060405260043610156011575f80fd5b5f3560e01c636a84a985146023575f80fd5b34603a575f366003190112603a576020905f548152f35b5f80fdfea264697066735822122066d9e8f76d1095d7d96418dc029f18d0ffa7d5ef62cdcf5fdd5041f6f1b7144064736f6c634300081a0033","linkReferences":{}},"methodIdentifiers":{"nextRequestId()":"6a84a985"},"id":3}