{"abi":[{"type":"constructor","inputs":[{"name":"","type":"address","internalType":"contract IStrategyManager"},{"name":"","type":"address","internalType":"contract IDelegationManager"}],"stateMutability":"nonpayable"},{"type":"function","name":"canSlash","inputs":[{"name":"","type":"address","internalType":"address"},{"name":"","type":"address","internalType":"address"}],"outputs":[{"name":"","type":"bool","internalType":"bool"}],"stateMutability":"view"},{"type":"function","name":"canWithdraw","inputs":[{"name":"","type":"address","internalType":"address"},{"name":"","type":"uint32","internalType":"uint32"},{"name":"","type":"uint256","internalType":"uint256"}],"outputs":[{"name":"","type":"bool","internalType":"bool"}],"stateMutability":"nonpayable"},{"type":"function","name":"contractCanSlashOperatorUntilBlock","inputs":[{"name":"","type":"address","internalType":"address"},{"name":"","type":"address","internalType":"address"}],"outputs":[{"name":"","type":"uint32","internalType":"uint32"}],"stateMutability":"view"},{"type":"function","name":"delegation","inputs":[],"outputs":[{"name":"","type":"address","internalType":"contract IDelegationManager"}],"stateMutability":"view"},{"type":"function","name":"freezeOperator","inputs":[{"name":"","type":"address","internalType":"address"}],"outputs":[],"stateMutability":"nonpayable"},{"type":"function","name":"getCorrectValueForInsertAfter","inputs":[{"name":"","type":"address","internalType":"address"},{"name":"","type":"uint32","internalType":"uint32"}],"outputs":[{"name":"","type":"uint256","internalType":"uint256"}],"stateMutability":"view"},{"type":"function","name":"getMiddlewareTimesIndexServeUntilBlock","inputs":[{"name":"","type":"address","internalType":"address"},{"name":"","type":"uint32","internalType":"uint32"}],"outputs":[{"name":"","type":"uint32","internalType":"uint32"}],"stateMutability":"view"},{"type":"function","name":"getMiddlewareTimesIndexStalestUpdateBlock","inputs":[{"name":"","type":"address","internalType":"address"},{"name":"","type":"uint32","internalType":"uint32"}],"outputs":[{"name":"","type":"uint32","internalType":"uint32"}],"stateMutability":"view"},{"type":"function","name":"initialize","inputs":[{"name":"","type":"address","internalType":"address"},{"name":"","type":"address","internalType":"contract IPauserRegistry"},{"name":"","type":"uint256","internalType":"uint256"}],"outputs":[],"stateMutability":"nonpayable"},{"type":"function","name":"isFrozen","inputs":[{"name":"","type":"address","internalType":"address"}],"outputs":[{"name":"","type":"bool","internalType":"bool"}],"stateMutability":"view"},{"type":"function","name":"latestUpdateBlock","inputs":[{"name":"","type":"address","internalType":"address"},{"name":"","type":"address","internalType":"address"}],"outputs":[{"name":"","type":"uint32","internalType":"uint32"}],"stateMutability":"view"},{"type":"function","name":"middlewareTimesLength","inputs":[{"name":"","type":"address","internalType":"address"}],"outputs":[{"name":"","type":"uint256","internalType":"uint256"}],"stateMutability":"view"},{"type":"function","name":"operatorToMiddlewareTimes","inputs":[{"name":"","type":"address","internalType":"address"},{"name":"","type":"uint256","internalType":"uint256"}],"outputs":[{"name":"","type":"tuple","internalType":"struct ISlasher.MiddlewareTimes","components":[{"name":"stalestUpdateBlock","type":"uint32","internalType":"uint32"},{"name":"latestServeUntilBlock","type":"uint32","internalType":"uint32"}]}],"stateMutability":"view"},{"type":"function","name":"operatorWhitelistedContractsLinkedListEntry","inputs":[{"name":"","type":"address","internalType":"address"},{"name":"","type":"address","internalType":"address"}],"outputs":[{"name":"","type":"bool","internalType":"bool"},{"name":"","type":"uint256","internalType":"uint256"},{"name":"","type":"uint256","internalType":"uint256"}],"stateMutability":"view"},{"type":"function","name":"operatorWhitelistedContractsLinkedListSize","inputs":[{"name":"","type":"address","internalType":"address"}],"outputs":[{"name":"","type":"uint256","internalType":"uint256"}],"stateMutability":"view"},{"type":"function","name":"optIntoSlashing","inputs":[{"name":"","type":"address","internalType":"address"}],"outputs":[],"stateMutability":"nonpayable"},{"type":"function","name":"owner","inputs":[],"outputs":[{"name":"","type":"address","internalType":"address"}],"stateMutability":"view"},{"type":"function","name":"pause","inputs":[{"name":"newPausedStatus","type":"uint256","internalType":"uint256"}],"outputs":[],"stateMutability":"nonpayable"},{"type":"function","name":"pauseAll","inputs":[],"outputs":[],"stateMutability":"nonpayable"},{"type":"function","name":"paused","inputs":[{"name":"index","type":"uint8","internalType":"uint8"}],"outputs":[{"name":"","type":"bool","internalType":"bool"}],"stateMutability":"view"},{"type":"function","name":"paused","inputs":[],"outputs":[{"name":"","type":"uint256","internalType":"uint256"}],"stateMutability":"view"},{"type":"function","name":"pauserRegistry","inputs":[],"outputs":[{"name":"","type":"address","internalType":"contract IPauserRegistry"}],"stateMutability":"view"},{"type":"function","name":"recordFirstStakeUpdate","inputs":[{"name":"","type":"address","internalType":"address"},{"name":"","type":"uint32","internalType":"uint32"}],"outputs":[],"stateMutability":"nonpayable"},{"type":"function","name":"recordLastStakeUpdateAndRevokeSlashingAbility","inputs":[{"name":"","type":"address","internalType":"address"},{"name":"","type":"uint32","internalType":"uint32"}],"outputs":[],"stateMutability":"nonpayable"},{"type":"function","name":"recordStakeUpdate","inputs":[{"name":"","type":"address","internalType":"address"},{"name":"","type":"uint32","internalType":"uint32"},{"name":"","type":"uint32","internalType":"uint32"},{"name":"","type":"uint256","internalType":"uint256"}],"outputs":[],"stateMutability":"nonpayable"},{"type":"function","name":"renounceOwnership","inputs":[],"outputs":[],"stateMutability":"nonpayable"},{"type":"function","name":"resetFrozenStatus","inputs":[{"name":"","type":"address[]","internalType":"address[]"}],"outputs":[],"stateMutability":"nonpayable"},{"type":"function","name":"setPauserRegistry","inputs":[{"name":"newPauserRegistry","type":"address","internalType":"contract IPauserRegistry"}],"outputs":[],"stateMutability":"nonpayable"},{"type":"function","name":"strategyManager","inputs":[],"outputs":[{"name":"","type":"address","internalType":"contract IStrategyManager"}],"stateMutability":"view"},{"type":"function","name":"transferOwnership","inputs":[{"name":"newOwner","type":"address","internalType":"address"}],"outputs":[],"stateMutability":"nonpayable"},{"type":"function","name":"unpause","inputs":[{"name":"newPausedStatus","type":"uint256","internalType":"uint256"}],"outputs":[],"stateMutability":"nonpayable"},{"type":"function","name":"whitelistedContractDetails","inputs":[{"name":"","type":"address","internalType":"address"},{"name":"","type":"address","internalType":"address"}],"outputs":[{"name":"","type":"tuple","internalType":"struct ISlasher.MiddlewareDetails","components":[{"name":"registrationMayBeginAtBlock","type":"uint32","internalType":"uint32"},{"name":"contractCanSlashOperatorUntilBlock","type":"uint32","internalType":"uint32"},{"name":"latestUpdateBlock","type":"uint32","internalType":"uint32"}]}],"stateMutability":"view"},{"type":"event","name":"FrozenStatusReset","inputs":[{"name":"previouslySlashedAddress","type":"address","indexed":true,"internalType":"address"}],"anonymous":false},{"type":"event","name":"Initialized","inputs":[{"name":"version","type":"uint8","indexed":false,"internalType":"uint8"}],"anonymous":false},{"type":"event","name":"MiddlewareTimesAdded","inputs":[{"name":"operator","type":"address","indexed":false,"internalType":"address"},{"name":"index","type":"uint256","indexed":false,"internalType":"uint256"},{"name":"stalestUpdateBlock","type":"uint32","indexed":false,"internalType":"uint32"},{"name":"latestServeUntilBlock","type":"uint32","indexed":false,"internalType":"uint32"}],"anonymous":false},{"type":"event","name":"OperatorFrozen","inputs":[{"name":"slashedOperator","type":"address","indexed":true,"internalType":"address"},{"name":"slashingContract","type":"address","indexed":true,"internalType":"address"}],"anonymous":false},{"type":"event","name":"OptedIntoSlashing","inputs":[{"name":"operator","type":"address","indexed":true,"internalType":"address"},{"name":"contractAddress","type":"address","indexed":true,"internalType":"address"}],"anonymous":false},{"type":"event","name":"OwnershipTransferred","inputs":[{"name":"previousOwner","type":"address","indexed":true,"internalType":"address"},{"name":"newOwner","type":"address","indexed":true,"internalType":"address"}],"anonymous":false},{"type":"event","name":"Paused","inputs":[{"name":"account","type":"address","indexed":true,"internalType":"address"},{"name":"newPausedStatus","type":"uint256","indexed":false,"internalType":"uint256"}],"anonymous":false},{"type":"event","name":"PauserRegistrySet","inputs":[{"name":"pauserRegistry","type":"address","indexed":false,"internalType":"contract IPauserRegistry"},{"name":"newPauserRegistry","type":"address","indexed":false,"internalType":"contract IPauserRegistry"}],"anonymous":false},{"type":"event","name":"SlashingAbilityRevoked","inputs":[{"name":"operator","type":"address","indexed":true,"internalType":"address"},{"name":"contractAddress","type":"address","indexed":true,"internalType":"address"},{"name":"contractCanSlashOperatorUntilBlock","type":"uint32","indexed":false,"internalType":"uint32"}],"anonymous":false},{"type":"event","name":"Unpaused","inputs":[{"name":"account","type":"address","indexed":true,"internalType":"address"},{"name":"newPausedStatus","type":"uint256","indexed":false,"internalType":"uint256"}],"anonymous":false}],"bytecode":{"object":"0x608034606b57601f610cab38819003918201601f19168301916001600160401b03831184841017606f578084926040948552833981010312606b5780516001600160a01b03811603606b57602001516001600160a01b03811603606b57604051610c2790816100848239f35b5f80fd5b634e487b7160e01b5f52604160045260245ffdfe6080806040526004361015610012575f80fd5b5f3560e01c9081630ffabbce1461078f57816310d67a2f146108ad57508063136439dd14610794578063175d32051461078f5780631794bb3c1461076d5780631874e5ae1461059c578063282670fc1461071657806338c8ee64146102be57806339b70e38146103ae578063595c6a67146106605780635ac86ab71461062d5780635c975abb146106105780636f0c2f74146103c8578063715018a6146105b5578063723e59c71461059c5780637259a45c1461059c5780637cf72bba146105485780638105e04314610526578063855fcc4a146104ed578063886f1195146104c55780638da5cb5b1461049d578063a49db7321461038a578063c747075b14610470578063d7b7fa13146103ea578063d98128c0146103c8578063da16e29b146103c8578063df5cf723146103ae578063e58398361461038a578063e921d4fa1461038a578063f2fde38b146102c3578063f73b7519146102be5763fabc1cbc1461017c575f80fd5b346102ba5760203660031901126102ba5760655460405163755b36bd60e11b81526004803592602091839182906001600160a01b03165afa80156102af576101d6915f91610280575b506001600160a01b03163314610ac5565b60665419811981160361021557806066556040519081527f3582d1828e26bf56bd801502bc021ac0bc8afb57c826e4986b45593c8fad389c60203392a2005b60405162461bcd60e51b815260206004820152603860248201527f5061757361626c652e756e70617573653a20696e76616c696420617474656d7060448201527f7420746f2070617573652066756e6374696f6e616c69747900000000000000006064820152608490fd5b6102a2915060203d6020116102a8575b61029a8183610a84565b810190610aa6565b5f6101c5565b503d610290565b6040513d5f823e3d90fd5b5f80fd5b610a6b565b346102ba5760203660031901126102ba576102dc6109f7565b6102e4610b99565b6001600160a01b0316801561033657603380546001600160a01b0319811683179091556001600160a01b03167f8be0079c531659141344cd1fd0a4f28419497f9722a3daafe3b4186f6b6457e05f80a3005b60405162461bcd60e51b815260206004820152602660248201527f4f776e61626c653a206e6577206f776e657220697320746865207a65726f206160448201526564647265737360d01b6064820152608490fd5b346102ba5760203660031901126102ba576103a36109f7565b5060206040515f8152f35b346102ba575f3660031901126102ba5760206040515f8152f35b346102ba5760403660031901126102ba576103e16109f7565b506103a3610a0d565b346102ba5760403660031901126102ba576104036109f7565b5061040c610a0d565b50604051606081019080821067ffffffffffffffff83111761045c576060916040525f815263ffffffff604060208301925f8452015f815281604051935f85525116602084015251166040820152f35b634e487b7160e01b5f52604160045260245ffd5b346102ba5760803660031901126102ba576104896109f7565b50610492610a23565b5061049b610a36565b005b346102ba575f3660031901126102ba576033546040516001600160a01b039091168152602090f35b346102ba575f3660031901126102ba576065546040516001600160a01b039091168152602090f35b346102ba5760403660031901126102ba576105066109f7565b5061050f610a0d565b5060606040515f81525f60208201525f6040820152f35b346102ba5760603660031901126102ba5761053f6109f7565b506103a3610a23565b346102ba5760203660031901126102ba5760043567ffffffffffffffff81116102ba57366023820112156102ba5780600401359067ffffffffffffffff82116102ba57602490369260051b0101116102ba57005b346102ba5760403660031901126102ba5761053f6109f7565b346102ba575f3660031901126102ba576105cd610b99565b603380546001600160a01b031981169091555f906001600160a01b03167f8be0079c531659141344cd1fd0a4f28419497f9722a3daafe3b4186f6b6457e08280a3005b346102ba575f3660031901126102ba576020606654604051908152f35b346102ba5760203660031901126102ba5760043560ff81168091036102ba5760016020911b806066541614604051908152f35b346102ba575f3660031901126102ba5760655460405163237dfb4760e11b815233600482015290602090829060249082906001600160a01b03165afa80156102af576106b3915f916106e7575b50610b3c565b5f196066556040515f1981527fab40a374bc51de372200a8bc981af8c9ecdc08dfdaef0bb6e09f88f3c616ef3d60203392a2005b610709915060203d60201161070f575b6107018183610a84565b810190610b24565b826106ad565b503d6106f7565b346102ba5760403660031901126102ba5761072f6109f7565b506040516040810181811067ffffffffffffffff82111761045c5760409160209183525f8152015f815263ffffffff8251915f835251166020820152f35b346102ba5760603660031901126102ba576107866109f7565b5061049b610a0d565b610a49565b346102ba5760203660031901126102ba576004356024602060018060a01b03606554166040519283809263237dfb4760e11b82523360048301525afa80156102af576107e6915f9161088e5750610b3c565b6066548181160361082357806066556040519081527fab40a374bc51de372200a8bc981af8c9ecdc08dfdaef0bb6e09f88f3c616ef3d60203392a2005b60405162461bcd60e51b815260206004820152603860248201527f5061757361626c652e70617573653a20696e76616c696420617474656d70742060448201527f746f20756e70617573652066756e6374696f6e616c69747900000000000000006064820152608490fd5b6108a7915060203d60201161070f576107018183610a84565b836106ad565b346102ba5760203660031901126102ba576108c66109f7565b60655463755b36bd60e11b83526001600160a01b03811692909190602081600481875afa80156102af5761090b915f916109d857506001600160a01b03163314610ac5565b6001600160a01b031691821561095b5760407f6e9fcd539896fca60e8b0f01dd580233e48a6b0f7df013b89ba7f565869acdb6918151908152846020820152a16001600160a01b03191617606555005b60405162461bcd60e51b815260206004820152604960248201527f5061757361626c652e5f73657450617573657252656769737472793a206e657760448201527f50617573657252656769737472792063616e6e6f7420626520746865207a65726064820152686f206164647265737360b81b608482015260a490fd5b6109f1915060203d6020116102a85761029a8183610a84565b856101c5565b600435906001600160a01b03821682036102ba57565b602435906001600160a01b03821682036102ba57565b6024359063ffffffff821682036102ba57565b6044359063ffffffff821682036102ba57565b346102ba5760403660031901126102ba57610a626109f7565b5061049b610a23565b346102ba5760203660031901126102ba5761049b6109f7565b90601f8019910116810190811067ffffffffffffffff82111761045c57604052565b908160209103126102ba57516001600160a01b03811681036102ba5790565b15610acc57565b60405162461bcd60e51b815260206004820152602a60248201527f6d73672e73656e646572206973206e6f74207065726d697373696f6e6564206160448201526939903ab73830bab9b2b960b11b6064820152608490fd5b908160209103126102ba575180151581036102ba5790565b15610b4357565b60405162461bcd60e51b815260206004820152602860248201527f6d73672e73656e646572206973206e6f74207065726d697373696f6e6564206160448201526739903830bab9b2b960c11b6064820152608490fd5b6033546001600160a01b03163303610bad57565b606460405162461bcd60e51b815260206004820152602060248201527f4f776e61626c653a2063616c6c6572206973206e6f7420746865206f776e65726044820152fdfea2646970667358221220853a23f1965825b17aba0895ff77a912d44661d9efc5ae6b648a4a37aa251faf64736f6c634300081c0033","linkReferences":{}},"methodIdentifiers":{"canSlash(address,address)":"d98128c0","canWithdraw(address,uint32,uint256)":"8105e043","contractCanSlashOperatorUntilBlock(address,address)":"6f0c2f74","delegation()":"df5cf723","freezeOperator(address)":"38c8ee64","getCorrectValueForInsertAfter(address,uint32)":"723e59c7","getMiddlewareTimesIndexServeUntilBlock(address,uint32)":"7259a45c","getMiddlewareTimesIndexStalestUpdateBlock(address,uint32)":"1874e5ae","initialize(address,address,uint256)":"1794bb3c","isFrozen(address)":"e5839836","latestUpdateBlock(address,address)":"da16e29b","middlewareTimesLength(address)":"a49db732","operatorToMiddlewareTimes(address,uint256)":"282670fc","operatorWhitelistedContractsLinkedListEntry(address,address)":"855fcc4a","operatorWhitelistedContractsLinkedListSize(address)":"e921d4fa","optIntoSlashing(address)":"f73b7519","owner()":"8da5cb5b","pause(uint256)":"136439dd","pauseAll()":"595c6a67","paused()":"5c975abb","paused(uint8)":"5ac86ab7","pauserRegistry()":"886f1195","recordFirstStakeUpdate(address,uint32)":"175d3205","recordLastStakeUpdateAndRevokeSlashingAbility(address,uint32)":"0ffabbce","recordStakeUpdate(address,uint32,uint32,uint256)":"c747075b","renounceOwnership()":"715018a6","resetFrozenStatus(address[])":"7cf72bba","setPauserRegistry(address)":"10d67a2f","strategyManager()":"39b70e38","transferOwnership(address)":"f2fde38b","unpause(uint256)":"fabc1cbc","whitelistedContractDetails(address,address)":"d7b7fa13"},"id":16}