{"abi":[{"type":"function","name":"getAllocationManager","inputs":[],"outputs":[{"name":"","type":"address","internalType":"address"}],"stateMutability":"pure"},{"type":"function","name":"getDelegationManager","inputs":[],"outputs":[{"name":"","type":"address","internalType":"address"}],"stateMutability":"pure"},{"type":"function","name":"getLatestOperatorForSigningKey","inputs":[{"name":"signingKeyAddress","type":"address","internalType":"address"}],"outputs":[{"name":"","type":"address","internalType":"address"}],"stateMutability":"pure"},{"type":"function","name":"getOperatorWeight","inputs":[{"name":"operator","type":"address","internalType":"address"}],"outputs":[{"name":"","type":"uint256","internalType":"uint256"}],"stateMutability":"view"},{"type":"function","name":"getServiceURI","inputs":[],"outputs":[{"name":"","type":"string","internalType":"string"}],"stateMutability":"view"},{"type":"function","name":"getStakeRegistry","inputs":[],"outputs":[{"name":"","type":"address","internalType":"address"}],"stateMutability":"pure"},{"type":"function","name":"setOperatorWeight","inputs":[{"name":"operator","type":"address","internalType":"address"},{"name":"weight","type":"uint256","internalType":"uint256"}],"outputs":[],"stateMutability":"nonpayable"},{"type":"function","name":"setServiceURI","inputs":[{"name":"serviceURI","type":"string","internalType":"string"}],"outputs":[],"stateMutability":"nonpayable"},{"type":"function","name":"validate","inputs":[{"name":"","type":"tuple","internalType":"struct IWavsServiceHandler.Envelope","components":[{"name":"eventId","type":"bytes20","internalType":"bytes20"},{"name":"ordering","type":"bytes12","internalType":"bytes12"},{"name":"payload","type":"bytes","internalType":"bytes"}]},{"name":"","type":"tuple","internalType":"struct IWavsServiceHandler.SignatureData","components":[{"name":"signers","type":"address[]","internalType":"address[]"},{"name":"signatures","type":"bytes[]","internalType":"bytes[]"},{"name":"referenceBlock","type":"uint32","internalType":"uint32"}]}],"outputs":[],"stateMutability":"pure"},{"type":"event","name":"QuorumThresholdUpdated","inputs":[{"name":"numerator","type":"uint256","indexed":true,"internalType":"uint256"},{"name":"denominator","type":"uint256","indexed":true,"internalType":"uint256"}],"anonymous":false},{"type":"event","name":"ServiceURIUpdated","inputs":[{"name":"serviceURI","type":"string","indexed":false,"internalType":"string"}],"anonymous":false},{"type":"error","name":"InsufficientQuorum","inputs":[{"name":"signerWeight","type":"uint256","internalType":"uint256"},{"name":"thresholdWeight","type":"uint256","internalType":"uint256"},{"name":"totalWeight","type":"uint256","internalType":"uint256"}]},{"type":"error","name":"InsufficientQuorumZero","inputs":[]},{"type":"error","name":"InvalidQuorumParameters","inputs":[]},{"type":"error","name":"InvalidSignature","inputs":[]},{"type":"error","name":"InvalidSignatureBlock","inputs":[]},{"type":"error","name":"InvalidSignatureLength","inputs":[]},{"type":"error","name":"InvalidSignatureOrder","inputs":[]}],"bytecode":{"object":"0x608060405234601c57600e6020565b610ab261002b8239610ab290f35b6026565b60405190565b5f80fdfe60806040526004361015610013575b61050d565b61001d5f356100ac565b80630e6b1110146100a75780635f11301b146100a257806398ec1ac91461009d578063a28efd6b14610098578063ac7cbfd914610093578063b24e5a3a1461008e578063bef4c83914610089578063cc922c6a146100845763cd71589e0361000e576104e0565b610424565b610384565b61034f565b61031a565b6102e5565b61027f565b61020b565b610156565b60e01c90565b60405190565b5f80fd5b5f80fd5b5f80fd5b60018060a01b031690565b6100d8906100c4565b90565b6100e4816100cf565b036100eb57565b5f80fd5b905035906100fc826100db565b565b90565b61010a816100fe565b0361011157565b5f80fd5b9050359061012282610101565b565b919060408382031261014c5780610140610149925f86016100ef565b93602001610115565b90565b6100bc565b5f0190565b346101855761016f610169366004610124565b906105b8565b6101776100b2565b8061018181610151565b0390f35b6100b8565b5f80fd5b5f80fd5b5f80fd5b909182601f830112156101d05781359167ffffffffffffffff83116101cb5760200192600183028401116101c657565b610192565b61018e565b61018a565b90602082820312610206575f82013567ffffffffffffffff8111610201576101fd9201610196565b9091565b6100c0565b6100bc565b3461023a5761022461021e3660046101d5565b9061085f565b61022c6100b2565b8061023681610151565b0390f35b6100b8565b9060208282031261025857610255915f016100ef565b90565b6100bc565b610266906100fe565b9052565b919061027d905f6020850194019061025d565b565b346102af576102ab61029a61029536600461023f565b6108d0565b6102a26100b2565b9182918261026a565b0390f35b6100b8565b5f9103126102be57565b6100bc565b6102cc906100cf565b9052565b91906102e3905f602085019401906102c3565b565b34610315576102f53660046102b4565b61031161030061091e565b6103086100b2565b918291826102d0565b0390f35b6100b8565b3461034a5761034661033561033036600461023f565b610933565b61033d6100b2565b918291826102d0565b0390f35b6100b8565b3461037f5761035f3660046102b4565b61037b61036a61093f565b6103726100b2565b918291826102d0565b0390f35b6100b8565b346103b4576103943660046102b4565b6103b061039f610954565b6103a76100b2565b918291826102d0565b0390f35b6100b8565b5190565b60209181520190565b90825f9392825e0152565b601f801991011690565b6103fa610403602093610408936103f1816103b9565b938480936103bd565b958691016103c6565b6103d1565b0190565b6104219160208201915f8184039101526103db565b90565b34610454576104343660046102b4565b61045061043f610a67565b6104476100b2565b9182918261040c565b0390f35b6100b8565b5f80fd5b9081606091031261046b5790565b610459565b9081606091031261047e5790565b610459565b9190916040818403126104db575f81013567ffffffffffffffff81116104d657836104af91830161045d565b92602082013567ffffffffffffffff81116104d1576104ce9201610470565b90565b6100c0565b6100c0565b6100bc565b34610508576104f0366004610483565b50506104fa6100b2565b8061050481610151565b0390f35b6100b8565b5f80fd5b90565b61052861052361052d926100c4565b610511565b6100c4565b90565b61053990610514565b90565b61054590610530565b90565b906105529061053c565b5f5260205260405f2090565b5f1b90565b9061056f5f199161055e565b9181191691161790565b61058d610588610592926100fe565b610511565b6100fe565b90565b90565b906105ad6105a86105b492610579565b610595565b8254610563565b9055565b6105c76105cc92916001610548565b610598565b565b5090565b634e487b7160e01b5f52604160045260245ffd5b634e487b7160e01b5f52602260045260245ffd5b906001600283049216801561061a575b602083101461061557565b6105e6565b91607f169161060a565b5f5260205f2090565b601f602091010490565b1b90565b919060086106569102916106505f1984610637565b92610637565b9181191691161790565b919061067661067161067e93610579565b610595565b90835461063b565b9055565b5f90565b61069891610692610682565b91610660565b565b5b8181106106a6575050565b806106b35f600193610686565b0161069b565b9190601f81116106c9575b505050565b6106d56106fa93610624565b9060206106e18461062d565b83019310610702575b6106f39061062d565b019061069a565b5f80806106c4565b91506106f3819290506106ea565b1c90565b90610724905f1990600802610710565b191690565b8161073391610714565b906002021790565b9161074690826105ce565b9067ffffffffffffffff82116108055761076a8261076485546105fa565b856106b9565b5f90601f831160011461079d5791809161078c935f92610791575b5050610729565b90555b565b90915001355f80610785565b601f198316916107ac85610624565b925f5b8181106107ed575091600293918560019694106107d3575b5050500201905561078f565b6107e3910135601f841690610714565b90555f80806107c7565b919360206001819287870135815501950192016107af565b6105d2565b90610815929161073b565b565b90825f939282370152565b919061083c8161083581610841956103bd565b8095610817565b6103d1565b0190565b909161085c9260208301925f818503910152610822565b90565b61086b8183905f61080a565b907fd2f056df94c31bdb3b4e16080f2ac6dbd4233c6001058d94afc3ad1242dff488916108a26108996100b2565b92839283610845565b0390a1565b5f1c90565b90565b6108bb6108c0916108a7565b6108ac565b90565b6108cd90546108af565b90565b6108e76108ec916108df610682565b506001610548565b6108c3565b90565b5f90565b90565b61090a61090561090f926108f3565b610511565b6100c4565b90565b61091b906108f6565b90565b6109266108ef565b506109305f610912565b90565b61093b6108ef565b5090565b6109476108ef565b506109515f610912565b90565b61095c6108ef565b506109665f610912565b90565b606090565b60209181520190565b905f929180549061099161098a836105fa565b809461096e565b916001811690815f146109e857506001146109ac575b505050565b6109b99192939450610624565b915f925b8184106109d057505001905f80806109a7565b600181602092959395548486015201910192906109bd565b92949550505060ff19168252151560200201905f80806109a7565b90610a0d91610977565b90565b90610a1a906103d1565b810190811067ffffffffffffffff821117610a3457604052565b6105d2565b90610a59610a5292610a496100b2565b93848092610a03565b0383610a10565b565b610a6490610a39565b90565b610a6f610969565b50610a795f610a5b565b9056fea264697066735822122013bf6f9d1ea58075cced68d555552ca3d2d4854226f473e626c577cd8b2c2e4f64736f6c634300081c0033","linkReferences":{}},"methodIdentifiers":{"getAllocationManager()":"a28efd6b","getDelegationManager()":"b24e5a3a","getLatestOperatorForSigningKey(address)":"ac7cbfd9","getOperatorWeight(address)":"98ec1ac9","getServiceURI()":"cc922c6a","getStakeRegistry()":"bef4c839","setOperatorWeight(address,uint256)":"0e6b1110","setServiceURI(string)":"5f11301b","validate((bytes20,bytes12,bytes),(address[],bytes[],uint32))":"cd71589e"},"id":6}