{"abi":[{"type":"constructor","inputs":[{"name":"serviceManager","type":"address","internalType":"contract IWavsServiceManager"}],"stateMutability":"nonpayable"},{"type":"function","name":"getServiceManager","inputs":[],"outputs":[{"name":"","type":"address","internalType":"address"}],"stateMutability":"view"},{"type":"function","name":"handleSignedEnvelope","inputs":[{"name":"envelope","type":"tuple","internalType":"struct IWavsServiceHandler.Envelope","components":[{"name":"eventId","type":"bytes20","internalType":"bytes20"},{"name":"ordering","type":"bytes12","internalType":"bytes12"},{"name":"payload","type":"bytes","internalType":"bytes"}]},{"name":"signatureData","type":"tuple","internalType":"struct IWavsServiceHandler.SignatureData","components":[{"name":"signers","type":"address[]","internalType":"address[]"},{"name":"signatures","type":"bytes[]","internalType":"bytes[]"},{"name":"referenceBlock","type":"uint32","internalType":"uint32"}]}],"outputs":[],"stateMutability":"nonpayable"},{"type":"event","name":"EnvelopeHandled","inputs":[{"name":"payload","type":"bytes","indexed":false,"internalType":"bytes"},{"name":"signers","type":"address[]","indexed":false,"internalType":"address[]"}],"anonymous":false}],"bytecode":{"object":"0x60a06040523461003f57610019610014610110565b610131565b610021610044565b61092c61013782396080518181816101de01526107fa015261092c90f35b61004a565b60405190565b5f80fd5b601f801991011690565b634e487b7160e01b5f52604160045260245ffd5b906100769061004e565b810190811060018060401b0382111761008e57604052565b610058565b906100a661009f610044565b928361006c565b565b5f80fd5b60018060a01b031690565b6100c0906100ac565b90565b6100cc906100b7565b90565b6100d8816100c3565b036100df57565b5f80fd5b905051906100f0826100cf565b565b9060208282031261010b57610108915f016100e3565b90565b6100a8565b61012e610a638038038061012381610093565b9283398101906100f2565b90565b60805256fe60806040526004361015610013575b610191565b61001d5f3561003c565b80634dda0b43146100375763f969ff330361000e5761015d565b610098565b60e01c90565b60405190565b5f80fd5b5f80fd5b5f91031261005a57565b61004c565b60018060a01b031690565b6100739061005f565b90565b61007f9061006a565b9052565b9190610096905f60208501940190610076565b565b346100c8576100a8366004610050565b6100c46100b36101d0565b6100bb610042565b91829182610083565b0390f35b610048565b5f80fd5b5f80fd5b908160609103126100e35790565b6100d1565b908160609103126100f65790565b6100d1565b919091604081840312610153575f81013567ffffffffffffffff811161014e57836101279183016100d5565b92602082013567ffffffffffffffff81116101495761014692016100e8565b90565b6100cd565b6100cd565b61004c565b5f0190565b3461018c576101766101703660046100fb565b906107f4565b61017e610042565b8061018881610158565b0390f35b610048565b5f80fd5b5f90565b90565b6101b06101ab6101b59261005f565b610199565b61005f565b90565b6101c19061019c565b90565b6101cd906101b8565b90565b6101d8610195565b506102027f00000000000000000000000000000000000000000000000000000000000000006101c4565b90565b5f80fd5b601f801991011690565b634e487b7160e01b5f52604160045260245ffd5b9061023190610209565b810190811067ffffffffffffffff82111761024b57604052565b610213565b60e01b90565b5f91031261026057565b61004c565b6bffffffffffffffffffffffff191690565b61028081610265565b0361028757565b5f80fd5b9050359061029882610277565b565b506102a990602081019061028b565b90565b6102b590610265565b9052565b6bffffffffffffffffffffffff60a01b1690565b6102d6816102b9565b036102dd57565b5f80fd5b905035906102ee826102cd565b565b506102ff9060208101906102e1565b90565b61030b906102b9565b9052565b5f80fd5b5f80fd5b5f80fd5b903560016020038236030381121561035c57016020813591019167ffffffffffffffff821161035757600182023603831361035257565b610313565b61030f565b610317565b60209181520190565b90825f939282370152565b919061038f816103888161039495610361565b809561036a565b610209565b0190565b6103ee916103e060608201926103bc6103b35f83018361029a565b5f8501906102ac565b6103d66103cc60208301836102f0565b6020850190610302565b604081019061031b565b916040818503910152610375565b90565b903560016020038236030381121561043257016020813591019167ffffffffffffffff821161042d57602082023603831361042857565b610313565b61030f565b610317565b60209181520190565b90565b61044c9061006a565b9052565b9061045d81602093610443565b0190565b61046a8161006a565b0361047157565b5f80fd5b9050359061048282610461565b565b50610493906020810190610475565b90565b60200190565b916104aa826104b092610437565b92610440565b90815f905b8282106104c3575050505090565b909192936104e56104df6001926104da8886610484565b610450565b95610496565b9201909291926104b5565b903560016020038236030381121561053157016020813591019167ffffffffffffffff821161052c57602082023603831361052757565b610313565b61030f565b610317565b60209181520190565b90565b9061054d9291610375565b90565b60200190565b918161056191610536565b90816105726020830284019461053f565b92835f925b8484106105875750505050505090565b90919293949560206105b36105ad83856001950388526105a78b8861031b565b90610542565b98610550565b940194019294939190610577565b63ffffffff1690565b6105d3816105c1565b036105da57565b5f80fd5b905035906105eb826105ca565b565b506105fc9060208101906105de565b90565b610608906105c1565b9052565b9061066690604061065e6106546106396060850161062c5f8901896103f1565b908783035f89015261049c565b61064660208801886104f0565b908683036020880152610556565b94828101906105ed565b9101906105ff565b90565b90916106836106919360408401908482035f860152610398565b91602081840391015261060c565b90565b61069c610042565b3d5f823e3d90fd5b5f80fd5b5f80fd5b5f80fd5b9035906001602003813603038212156106f2570180359067ffffffffffffffff82116106ed576020019160018202360383136106e857565b6106ac565b6106a8565b6106a4565b903590600160200381360303821215610739570180359067ffffffffffffffff82116107345760200191602082023603831361072f57565b6106ac565b6106a8565b6106a4565b60209181520190565b91906107618161075a816107669561073e565b809561036a565b610209565b0190565b60209181520190565b91610781826107879261076a565b92610440565b90815f905b82821061079a575050505090565b909192936107bc6107b66001926107b18886610484565b610450565b95610496565b92019092919261078c565b92906107e3906107f1959360408601918683035f880152610747565b926020818503910152610773565b90565b9061081e7f00000000000000000000000000000000000000000000000000000000000000006101c4565b9063cd71589e838293803b156108f15761084a5f9361085561083e610042565b97889586948594610250565b845260048401610669565b03915afa80156108ec576108bb936108879361087b926108c0575b5060408101906106b0565b9290915f8101906106f7565b7fd957d5f503921c3bc6f566bcdeca0611fd9a5778734335dbc93f5ce560dfa97094916108b2610042565b948594856107c7565b0390a1565b6108df905f3d81116108e5575b6108d78183610227565b810190610256565b5f610870565b503d6108cd565b610694565b61020556fea2646970667358221220dadf0b09c1d932093cdd898decd549a5c2dc52572ec83d606add4fcfe4bb201564736f6c634300081c0033","linkReferences":{}},"methodIdentifiers":{"getServiceManager()":"4dda0b43","handleSignedEnvelope((bytes20,bytes12,bytes),(address[],bytes[],uint32))":"f969ff33"},"id":6}