{"abi":[{"type":"constructor","inputs":[{"name":"_pausers","type":"address[]","internalType":"address[]"},{"name":"_unpauser","type":"address","internalType":"address"}],"stateMutability":"nonpayable"},{"type":"function","name":"isPauser","inputs":[{"name":"","type":"address","internalType":"address"}],"outputs":[{"name":"","type":"bool","internalType":"bool"}],"stateMutability":"view"},{"type":"function","name":"setIsPauser","inputs":[{"name":"newPauser","type":"address","internalType":"address"},{"name":"canPause","type":"bool","internalType":"bool"}],"outputs":[],"stateMutability":"nonpayable"},{"type":"function","name":"setUnpauser","inputs":[{"name":"newUnpauser","type":"address","internalType":"address"}],"outputs":[],"stateMutability":"nonpayable"},{"type":"function","name":"unpauser","inputs":[],"outputs":[{"name":"","type":"address","internalType":"address"}],"stateMutability":"view"},{"type":"event","name":"PauserStatusChanged","inputs":[{"name":"pauser","type":"address","indexed":false,"internalType":"address"},{"name":"canPause","type":"bool","indexed":false,"internalType":"bool"}],"anonymous":false},{"type":"event","name":"UnpauserChanged","inputs":[{"name":"previousUnpauser","type":"address","indexed":false,"internalType":"address"},{"name":"newUnpauser","type":"address","indexed":false,"internalType":"address"}],"anonymous":false}],"bytecode":{"object":"0x608060405234610242576105ba803803806100198161025a565b9283398101906040818303126102425780516001600160401b0381116102425781019180601f84011215610242578251926001600160401b038411610246578360051b9060208061006b81850161025a565b80978152019282010192831161024257602001905b82821061022a57846100946020860161027f565b905f5b815181101561016257600581901b8201602001516001600160a01b0316908115610107577f65d3a1fd4c13f05cba164f80d03ce90fb4b5e21946bfc3ab7dbd434c2d0b91526040836001945f525f602052815f208560ff198254161790558151908152846020820152a101610097565b60405162461bcd60e51b815260206004820152602d60248201527f50617573657252656769737472792e5f7365745061757365723a207a65726f2060448201526c1859191c995cdcc81a5b9c1d5d609a1b6064820152608490fd5b6001600160a01b03831680156101cd57600154604080516001600160a01b0383168152602081018490527f06b4167a2528887a1e97a366eefe8549bfbf1ea3e6ac81cb2564a934d20e88929190a16001600160a01b0319161760015560405161032690816102948239f35b60405162461bcd60e51b815260206004820152602f60248201527f50617573657252656769737472792e5f736574556e7061757365723a207a657260448201526e1bc81859191c995cdcc81a5b9c1d5d608a1b6064820152608490fd5b602080916102378461027f565b815201910190610080565b5f80fd5b634e487b7160e01b5f52604160045260245ffd5b6040519190601f01601f191682016001600160401b0381118382101761024657604052565b51906001600160a01b03821682036102425756fe6080806040526004361015610012575f80fd5b5f3560e01c90816346fbf68e14610243575080638568520614610153578063ce548428146100745763eab66d7a14610048575f80fd5b34610070575f366003190112610070576001546040516001600160a01b039091168152602090f35b5f80fd5b346100705760203660031901126100705761008d61027b565b6001546001600160a01b038116916100a6338414610291565b6001600160a01b03169182156100f65760407f06b4167a2528887a1e97a366eefe8549bfbf1ea3e6ac81cb2564a934d20e8892918151908152846020820152a16001600160a01b03191617600155005b60405162461bcd60e51b815260206004820152602f60248201527f50617573657252656769737472792e5f736574556e7061757365723a207a657260448201526e1bc81859191c995cdcc81a5b9c1d5d608a1b6064820152608490fd5b346100705760403660031901126100705761016c61027b565b602435908115158092036100705761018f60018060a01b03600154163314610291565b6001600160a01b03169081156101e857816040917f65d3a1fd4c13f05cba164f80d03ce90fb4b5e21946bfc3ab7dbd434c2d0b9152935f525f602052825f2060ff1981541660ff831617905582519182526020820152a1005b60405162461bcd60e51b815260206004820152602d60248201527f50617573657252656769737472792e5f7365745061757365723a207a65726f2060448201526c1859191c995cdcc81a5b9c1d5d609a1b6064820152608490fd5b34610070576020366003190112610070576020906001600160a01b0361026761027b565b165f525f825260ff60405f20541615158152f35b600435906001600160a01b038216820361007057565b1561029857565b60405162461bcd60e51b815260206004820152602a60248201527f6d73672e73656e646572206973206e6f74207065726d697373696f6e6564206160448201526939903ab73830bab9b2b960b11b6064820152608490fdfea2646970667358221220bc9c371a0592b0d1b315f47be93c8b3f69f0dbce1d3316255466a01dd9c46e5e64736f6c634300081c0033","linkReferences":{}},"methodIdentifiers":{"isPauser(address)":"46fbf68e","setIsPauser(address,bool)":"85685206","setUnpauser(address)":"ce548428","unpauser()":"eab66d7a"},"id":38}