{"abi":[{"type":"constructor","inputs":[{"name":"_serviceManager","type":"address","internalType":"contract IServiceManager"},{"name":"_stakeRegistry","type":"address","internalType":"contract IStakeRegistry"},{"name":"_blsApkRegistry","type":"address","internalType":"contract IBLSApkRegistry"},{"name":"_indexRegistry","type":"address","internalType":"contract IIndexRegistry"},{"name":"_socketRegistry","type":"address","internalType":"contract ISocketRegistry"}],"stateMutability":"nonpayable"},{"type":"function","name":"OPERATOR_CHURN_APPROVAL_TYPEHASH","inputs":[],"outputs":[{"name":"","type":"bytes32","internalType":"bytes32"}],"stateMutability":"view"},{"type":"function","name":"PUBKEY_REGISTRATION_TYPEHASH","inputs":[],"outputs":[{"name":"","type":"bytes32","internalType":"bytes32"}],"stateMutability":"view"},{"type":"function","name":"blsApkRegistry","inputs":[],"outputs":[{"name":"","type":"address","internalType":"contract IBLSApkRegistry"}],"stateMutability":"view"},{"type":"function","name":"calculateOperatorChurnApprovalDigestHash","inputs":[{"name":"registeringOperator","type":"address","internalType":"address"},{"name":"registeringOperatorId","type":"bytes32","internalType":"bytes32"},{"name":"operatorKickParams","type":"tuple[]","internalType":"struct IRegistryCoordinator.OperatorKickParam[]","components":[{"name":"quorumNumber","type":"uint8","internalType":"uint8"},{"name":"operator","type":"address","internalType":"address"}]},{"name":"salt","type":"bytes32","internalType":"bytes32"},{"name":"expiry","type":"uint256","internalType":"uint256"}],"outputs":[{"name":"","type":"bytes32","internalType":"bytes32"}],"stateMutability":"view"},{"type":"function","name":"churnApprover","inputs":[],"outputs":[{"name":"","type":"address","internalType":"address"}],"stateMutability":"view"},{"type":"function","name":"createQuorum","inputs":[{"name":"operatorSetParams","type":"tuple","internalType":"struct IRegistryCoordinator.OperatorSetParam","components":[{"name":"maxOperatorCount","type":"uint32","internalType":"uint32"},{"name":"kickBIPsOfOperatorStake","type":"uint16","internalType":"uint16"},{"name":"kickBIPsOfTotalStake","type":"uint16","internalType":"uint16"}]},{"name":"minimumStake","type":"uint96","internalType":"uint96"},{"name":"strategyParams","type":"tuple[]","internalType":"struct IStakeRegistry.StrategyParams[]","components":[{"name":"strategy","type":"address","internalType":"contract IStrategy"},{"name":"multiplier","type":"uint96","internalType":"uint96"}]}],"outputs":[],"stateMutability":"nonpayable"},{"type":"function","name":"deregisterOperator","inputs":[{"name":"quorumNumbers","type":"bytes","internalType":"bytes"}],"outputs":[],"stateMutability":"nonpayable"},{"type":"function","name":"ejectOperator","inputs":[{"name":"operator","type":"address","internalType":"address"},{"name":"quorumNumbers","type":"bytes","internalType":"bytes"}],"outputs":[],"stateMutability":"nonpayable"},{"type":"function","name":"ejectionCooldown","inputs":[],"outputs":[{"name":"","type":"uint256","internalType":"uint256"}],"stateMutability":"view"},{"type":"function","name":"ejector","inputs":[],"outputs":[{"name":"","type":"address","internalType":"address"}],"stateMutability":"view"},{"type":"function","name":"getCurrentQuorumBitmap","inputs":[{"name":"operatorId","type":"bytes32","internalType":"bytes32"}],"outputs":[{"name":"","type":"uint192","internalType":"uint192"}],"stateMutability":"view"},{"type":"function","name":"getOperator","inputs":[{"name":"operator","type":"address","internalType":"address"}],"outputs":[{"name":"","type":"tuple","internalType":"struct IRegistryCoordinator.OperatorInfo","components":[{"name":"operatorId","type":"bytes32","internalType":"bytes32"},{"name":"status","type":"uint8","internalType":"enum IRegistryCoordinator.OperatorStatus"}]}],"stateMutability":"view"},{"type":"function","name":"getOperatorFromId","inputs":[{"name":"operatorId","type":"bytes32","internalType":"bytes32"}],"outputs":[{"name":"","type":"address","internalType":"address"}],"stateMutability":"view"},{"type":"function","name":"getOperatorId","inputs":[{"name":"operator","type":"address","internalType":"address"}],"outputs":[{"name":"","type":"bytes32","internalType":"bytes32"}],"stateMutability":"view"},{"type":"function","name":"getOperatorSetParams","inputs":[{"name":"quorumNumber","type":"uint8","internalType":"uint8"}],"outputs":[{"name":"","type":"tuple","internalType":"struct IRegistryCoordinator.OperatorSetParam","components":[{"name":"maxOperatorCount","type":"uint32","internalType":"uint32"},{"name":"kickBIPsOfOperatorStake","type":"uint16","internalType":"uint16"},{"name":"kickBIPsOfTotalStake","type":"uint16","internalType":"uint16"}]}],"stateMutability":"view"},{"type":"function","name":"getOperatorStatus","inputs":[{"name":"operator","type":"address","internalType":"address"}],"outputs":[{"name":"","type":"uint8","internalType":"enum IRegistryCoordinator.OperatorStatus"}],"stateMutability":"view"},{"type":"function","name":"getQuorumBitmapAtBlockNumberByIndex","inputs":[{"name":"operatorId","type":"bytes32","internalType":"bytes32"},{"name":"blockNumber","type":"uint32","internalType":"uint32"},{"name":"index","type":"uint256","internalType":"uint256"}],"outputs":[{"name":"","type":"uint192","internalType":"uint192"}],"stateMutability":"view"},{"type":"function","name":"getQuorumBitmapHistoryLength","inputs":[{"name":"operatorId","type":"bytes32","internalType":"bytes32"}],"outputs":[{"name":"","type":"uint256","internalType":"uint256"}],"stateMutability":"view"},{"type":"function","name":"getQuorumBitmapIndicesAtBlockNumber","inputs":[{"name":"blockNumber","type":"uint32","internalType":"uint32"},{"name":"operatorIds","type":"bytes32[]","internalType":"bytes32[]"}],"outputs":[{"name":"","type":"uint32[]","internalType":"uint32[]"}],"stateMutability":"view"},{"type":"function","name":"getQuorumBitmapUpdateByIndex","inputs":[{"name":"operatorId","type":"bytes32","internalType":"bytes32"},{"name":"index","type":"uint256","internalType":"uint256"}],"outputs":[{"name":"","type":"tuple","internalType":"struct IRegistryCoordinator.QuorumBitmapUpdate","components":[{"name":"updateBlockNumber","type":"uint32","internalType":"uint32"},{"name":"nextUpdateBlockNumber","type":"uint32","internalType":"uint32"},{"name":"quorumBitmap","type":"uint192","internalType":"uint192"}]}],"stateMutability":"view"},{"type":"function","name":"indexRegistry","inputs":[],"outputs":[{"name":"","type":"address","internalType":"contract IIndexRegistry"}],"stateMutability":"view"},{"type":"function","name":"initialize","inputs":[{"name":"_initialOwner","type":"address","internalType":"address"},{"name":"_churnApprover","type":"address","internalType":"address"},{"name":"_ejector","type":"address","internalType":"address"},{"name":"_pauserRegistry","type":"address","internalType":"contract IPauserRegistry"},{"name":"_initialPausedStatus","type":"uint256","internalType":"uint256"},{"name":"_operatorSetParams","type":"tuple[]","internalType":"struct IRegistryCoordinator.OperatorSetParam[]","components":[{"name":"maxOperatorCount","type":"uint32","internalType":"uint32"},{"name":"kickBIPsOfOperatorStake","type":"uint16","internalType":"uint16"},{"name":"kickBIPsOfTotalStake","type":"uint16","internalType":"uint16"}]},{"name":"_minimumStakes","type":"uint96[]","internalType":"uint96[]"},{"name":"_strategyParams","type":"tuple[][]","internalType":"struct IStakeRegistry.StrategyParams[][]","components":[{"name":"strategy","type":"address","internalType":"contract IStrategy"},{"name":"multiplier","type":"uint96","internalType":"uint96"}]}],"outputs":[],"stateMutability":"nonpayable"},{"type":"function","name":"isChurnApproverSaltUsed","inputs":[{"name":"","type":"bytes32","internalType":"bytes32"}],"outputs":[{"name":"","type":"bool","internalType":"bool"}],"stateMutability":"view"},{"type":"function","name":"lastEjectionTimestamp","inputs":[{"name":"","type":"address","internalType":"address"}],"outputs":[{"name":"","type":"uint256","internalType":"uint256"}],"stateMutability":"view"},{"type":"function","name":"numRegistries","inputs":[],"outputs":[{"name":"","type":"uint256","internalType":"uint256"}],"stateMutability":"view"},{"type":"function","name":"owner","inputs":[],"outputs":[{"name":"","type":"address","internalType":"address"}],"stateMutability":"view"},{"type":"function","name":"pause","inputs":[{"name":"newPausedStatus","type":"uint256","internalType":"uint256"}],"outputs":[],"stateMutability":"nonpayable"},{"type":"function","name":"pauseAll","inputs":[],"outputs":[],"stateMutability":"nonpayable"},{"type":"function","name":"paused","inputs":[{"name":"index","type":"uint8","internalType":"uint8"}],"outputs":[{"name":"","type":"bool","internalType":"bool"}],"stateMutability":"view"},{"type":"function","name":"paused","inputs":[],"outputs":[{"name":"","type":"uint256","internalType":"uint256"}],"stateMutability":"view"},{"type":"function","name":"pauserRegistry","inputs":[],"outputs":[{"name":"","type":"address","internalType":"contract IPauserRegistry"}],"stateMutability":"view"},{"type":"function","name":"pubkeyRegistrationMessageHash","inputs":[{"name":"operator","type":"address","internalType":"address"}],"outputs":[{"name":"","type":"tuple","internalType":"struct BN254.G1Point","components":[{"name":"X","type":"uint256","internalType":"uint256"},{"name":"Y","type":"uint256","internalType":"uint256"}]}],"stateMutability":"view"},{"type":"function","name":"quorumCount","inputs":[],"outputs":[{"name":"","type":"uint8","internalType":"uint8"}],"stateMutability":"view"},{"type":"function","name":"quorumUpdateBlockNumber","inputs":[{"name":"","type":"uint8","internalType":"uint8"}],"outputs":[{"name":"","type":"uint256","internalType":"uint256"}],"stateMutability":"view"},{"type":"function","name":"registerOperator","inputs":[{"name":"quorumNumbers","type":"bytes","internalType":"bytes"},{"name":"socket","type":"string","internalType":"string"},{"name":"params","type":"tuple","internalType":"struct IBLSApkRegistry.PubkeyRegistrationParams","components":[{"name":"pubkeyRegistrationSignature","type":"tuple","internalType":"struct BN254.G1Point","components":[{"name":"X","type":"uint256","internalType":"uint256"},{"name":"Y","type":"uint256","internalType":"uint256"}]},{"name":"pubkeyG1","type":"tuple","internalType":"struct BN254.G1Point","components":[{"name":"X","type":"uint256","internalType":"uint256"},{"name":"Y","type":"uint256","internalType":"uint256"}]},{"name":"pubkeyG2","type":"tuple","internalType":"struct BN254.G2Point","components":[{"name":"X","type":"uint256[2]","internalType":"uint256[2]"},{"name":"Y","type":"uint256[2]","internalType":"uint256[2]"}]}]},{"name":"operatorSignature","type":"tuple","internalType":"struct ISignatureUtils.SignatureWithSaltAndExpiry","components":[{"name":"signature","type":"bytes","internalType":"bytes"},{"name":"salt","type":"bytes32","internalType":"bytes32"},{"name":"expiry","type":"uint256","internalType":"uint256"}]}],"outputs":[],"stateMutability":"nonpayable"},{"type":"function","name":"registerOperatorWithChurn","inputs":[{"name":"quorumNumbers","type":"bytes","internalType":"bytes"},{"name":"socket","type":"string","internalType":"string"},{"name":"params","type":"tuple","internalType":"struct IBLSApkRegistry.PubkeyRegistrationParams","components":[{"name":"pubkeyRegistrationSignature","type":"tuple","internalType":"struct BN254.G1Point","components":[{"name":"X","type":"uint256","internalType":"uint256"},{"name":"Y","type":"uint256","internalType":"uint256"}]},{"name":"pubkeyG1","type":"tuple","internalType":"struct BN254.G1Point","components":[{"name":"X","type":"uint256","internalType":"uint256"},{"name":"Y","type":"uint256","internalType":"uint256"}]},{"name":"pubkeyG2","type":"tuple","internalType":"struct BN254.G2Point","components":[{"name":"X","type":"uint256[2]","internalType":"uint256[2]"},{"name":"Y","type":"uint256[2]","internalType":"uint256[2]"}]}]},{"name":"operatorKickParams","type":"tuple[]","internalType":"struct IRegistryCoordinator.OperatorKickParam[]","components":[{"name":"quorumNumber","type":"uint8","internalType":"uint8"},{"name":"operator","type":"address","internalType":"address"}]},{"name":"churnApproverSignature","type":"tuple","internalType":"struct ISignatureUtils.SignatureWithSaltAndExpiry","components":[{"name":"signature","type":"bytes","internalType":"bytes"},{"name":"salt","type":"bytes32","internalType":"bytes32"},{"name":"expiry","type":"uint256","internalType":"uint256"}]},{"name":"operatorSignature","type":"tuple","internalType":"struct ISignatureUtils.SignatureWithSaltAndExpiry","components":[{"name":"signature","type":"bytes","internalType":"bytes"},{"name":"salt","type":"bytes32","internalType":"bytes32"},{"name":"expiry","type":"uint256","internalType":"uint256"}]}],"outputs":[],"stateMutability":"nonpayable"},{"type":"function","name":"registries","inputs":[{"name":"","type":"uint256","internalType":"uint256"}],"outputs":[{"name":"","type":"address","internalType":"address"}],"stateMutability":"view"},{"type":"function","name":"renounceOwnership","inputs":[],"outputs":[],"stateMutability":"nonpayable"},{"type":"function","name":"serviceManager","inputs":[],"outputs":[{"name":"","type":"address","internalType":"contract IServiceManager"}],"stateMutability":"view"},{"type":"function","name":"setChurnApprover","inputs":[{"name":"_churnApprover","type":"address","internalType":"address"}],"outputs":[],"stateMutability":"nonpayable"},{"type":"function","name":"setEjectionCooldown","inputs":[{"name":"_ejectionCooldown","type":"uint256","internalType":"uint256"}],"outputs":[],"stateMutability":"nonpayable"},{"type":"function","name":"setEjector","inputs":[{"name":"_ejector","type":"address","internalType":"address"}],"outputs":[],"stateMutability":"nonpayable"},{"type":"function","name":"setOperatorSetParams","inputs":[{"name":"quorumNumber","type":"uint8","internalType":"uint8"},{"name":"operatorSetParams","type":"tuple","internalType":"struct IRegistryCoordinator.OperatorSetParam","components":[{"name":"maxOperatorCount","type":"uint32","internalType":"uint32"},{"name":"kickBIPsOfOperatorStake","type":"uint16","internalType":"uint16"},{"name":"kickBIPsOfTotalStake","type":"uint16","internalType":"uint16"}]}],"outputs":[],"stateMutability":"nonpayable"},{"type":"function","name":"setPauserRegistry","inputs":[{"name":"newPauserRegistry","type":"address","internalType":"contract IPauserRegistry"}],"outputs":[],"stateMutability":"nonpayable"},{"type":"function","name":"socketRegistry","inputs":[],"outputs":[{"name":"","type":"address","internalType":"contract ISocketRegistry"}],"stateMutability":"view"},{"type":"function","name":"stakeRegistry","inputs":[],"outputs":[{"name":"","type":"address","internalType":"contract IStakeRegistry"}],"stateMutability":"view"},{"type":"function","name":"transferOwnership","inputs":[{"name":"newOwner","type":"address","internalType":"address"}],"outputs":[],"stateMutability":"nonpayable"},{"type":"function","name":"unpause","inputs":[{"name":"newPausedStatus","type":"uint256","internalType":"uint256"}],"outputs":[],"stateMutability":"nonpayable"},{"type":"function","name":"updateOperators","inputs":[{"name":"operators","type":"address[]","internalType":"address[]"}],"outputs":[],"stateMutability":"nonpayable"},{"type":"function","name":"updateOperatorsForQuorum","inputs":[{"name":"operatorsPerQuorum","type":"address[][]","internalType":"address[][]"},{"name":"quorumNumbers","type":"bytes","internalType":"bytes"}],"outputs":[],"stateMutability":"nonpayable"},{"type":"function","name":"updateSocket","inputs":[{"name":"socket","type":"string","internalType":"string"}],"outputs":[],"stateMutability":"nonpayable"},{"type":"event","name":"ChurnApproverUpdated","inputs":[{"name":"prevChurnApprover","type":"address","indexed":false,"internalType":"address"},{"name":"newChurnApprover","type":"address","indexed":false,"internalType":"address"}],"anonymous":false},{"type":"event","name":"EjectorUpdated","inputs":[{"name":"prevEjector","type":"address","indexed":false,"internalType":"address"},{"name":"newEjector","type":"address","indexed":false,"internalType":"address"}],"anonymous":false},{"type":"event","name":"Initialized","inputs":[{"name":"version","type":"uint8","indexed":false,"internalType":"uint8"}],"anonymous":false},{"type":"event","name":"OperatorDeregistered","inputs":[{"name":"operator","type":"address","indexed":true,"internalType":"address"},{"name":"operatorId","type":"bytes32","indexed":true,"internalType":"bytes32"}],"anonymous":false},{"type":"event","name":"OperatorRegistered","inputs":[{"name":"operator","type":"address","indexed":true,"internalType":"address"},{"name":"operatorId","type":"bytes32","indexed":true,"internalType":"bytes32"}],"anonymous":false},{"type":"event","name":"OperatorSetParamsUpdated","inputs":[{"name":"quorumNumber","type":"uint8","indexed":true,"internalType":"uint8"},{"name":"operatorSetParams","type":"tuple","indexed":false,"internalType":"struct IRegistryCoordinator.OperatorSetParam","components":[{"name":"maxOperatorCount","type":"uint32","internalType":"uint32"},{"name":"kickBIPsOfOperatorStake","type":"uint16","internalType":"uint16"},{"name":"kickBIPsOfTotalStake","type":"uint16","internalType":"uint16"}]}],"anonymous":false},{"type":"event","name":"OperatorSocketUpdate","inputs":[{"name":"operatorId","type":"bytes32","indexed":true,"internalType":"bytes32"},{"name":"socket","type":"string","indexed":false,"internalType":"string"}],"anonymous":false},{"type":"event","name":"OwnershipTransferred","inputs":[{"name":"previousOwner","type":"address","indexed":true,"internalType":"address"},{"name":"newOwner","type":"address","indexed":true,"internalType":"address"}],"anonymous":false},{"type":"event","name":"Paused","inputs":[{"name":"account","type":"address","indexed":true,"internalType":"address"},{"name":"newPausedStatus","type":"uint256","indexed":false,"internalType":"uint256"}],"anonymous":false},{"type":"event","name":"PauserRegistrySet","inputs":[{"name":"pauserRegistry","type":"address","indexed":false,"internalType":"contract IPauserRegistry"},{"name":"newPauserRegistry","type":"address","indexed":false,"internalType":"contract IPauserRegistry"}],"anonymous":false},{"type":"event","name":"QuorumBlockNumberUpdated","inputs":[{"name":"quorumNumber","type":"uint8","indexed":true,"internalType":"uint8"},{"name":"blocknumber","type":"uint256","indexed":false,"internalType":"uint256"}],"anonymous":false},{"type":"event","name":"Unpaused","inputs":[{"name":"account","type":"address","indexed":true,"internalType":"address"},{"name":"newPausedStatus","type":"uint256","indexed":false,"internalType":"uint256"}],"anonymous":false}],"bytecode":{"object":"0x6101e06040523480156200001257600080fd5b50604051620062ef380380620062ef833981016040819052620000359162000240565b604080518082018252601681527f4156535265676973747279436f6f7264696e61746f7200000000000000000000602080830191825283518085018552600681526576302e302e3160d01b908201529151902060e08190527f6bda7e3f385e48841048390444cced5cc795af87758af67622e5f4f0882c4a996101008190524660a081815285517f8b73c3c69bb8fe3d512ecc4cf759cc79239f7b179b0ffacaa9a75d522b39400f818701819052818801959095526060810193909352608080840192909252308382018190528651808503909201825260c09384019096528051940193909320909252919052610120526001600160a01b038086166101405280851661018052808416610160528083166101a05281166101c0526200015a62000165565b5050505050620002c0565b600054610100900460ff1615620001d25760405162461bcd60e51b815260206004820152602760248201527f496e697469616c697a61626c653a20636f6e747261637420697320696e697469604482015266616c697a696e6760c81b606482015260840160405180910390fd5b60005460ff908116101562000225576000805460ff191660ff9081179091556040519081527f7f26b83ff96e1f2b6a682f133852f6798a09c465da95921460cefb38474024989060200160405180910390a15b565b6001600160a01b03811681146200023d57600080fd5b50565b600080600080600060a086880312156200025957600080fd5b8551620002668162000227565b6020870151909550620002798162000227565b60408701519094506200028c8162000227565b60608701519093506200029f8162000227565b6080870151909250620002b28162000227565b809150509295509295909350565b60805160a05160c05160e05161010051610120516101405161016051610180516101a0516101c051615f15620003da6000396000818161085b015261250a0152600081816106c60152818161117c0152818161201101528181612ea6015281816136d60152613ca401526000818161060b01528181611f9c0152818161244401528181612e260152818161362d0152818161388c0152613c230152600081816105d101528181610f2301528181611fda01528181612da801528181612f8e01528181613004015281816135ad0152613d2001526000818161051501528181612cfe01526134eb01526000613f2701526000613f7601526000613f5101526000613eaa01526000613ed401526000613efe0152615f156000f3fe608060405234801561001057600080fd5b50600436106102f05760003560e01c80635df459461161019d578063a50857bf116100e9578063d75b4c88116100a2578063ea32afae1161007c578063ea32afae14610856578063f2fde38b1461087d578063fabc1cbc14610890578063fd39105a146108a357600080fd5b8063d75b4c881461078d578063dd8283f3146107a0578063e65797ad146107b357600080fd5b8063a50857bf1461070f578063a96f783e14610722578063c391425e1461072b578063ca0de8821461074b578063ca4f2d9714610772578063d72d8dd61461078557600080fd5b8063871ef049116101565780639aa1653d116101305780639aa1653d1461068f5780639b5d177b146106ae5780639e9923c2146106c15780639feab859146106e857600080fd5b8063871ef0491461065b578063886f11951461066e5780638da5cb5b1461068757600080fd5b80635df45946146105cc5780636347c900146105f357806368304835146106065780636e3b17db1461062d578063715018a61461064057806384ca52131461064857600080fd5b8063249a0c421161025c5780633c2a7f4c11610215578063595c6a67116101ef578063595c6a671461058a5780635ac86ab7146105925780635b0b829f146105b15780635c975abb146105c457600080fd5b80633c2a7f4c146105375780635140a548146105575780635865c60c1461056a57600080fd5b8063249a0c42146104a457806328f61b31146104c4578063296bb064146104d757806329d1e0c3146104ea5780632cdd1e86146104fd5780633998fdd31461051057600080fd5b806310d67a2f116102ae57806310d67a2f146103b9578063125e0584146103cc57806313542a4e146103ec578063136439dd146104155780631478851f146104285780631eb812da1461045b57600080fd5b8062cf2ab5146102f557806303fd34921461030a57806304ec63511461033d578063054310e6146103685780630cf4b767146103935780630d3f2134146103a6575b600080fd5b610308610303366004614a27565b6108df565b005b61032a610318366004614a68565b60009081526098602052604090205490565b6040519081526020015b60405180910390f35b61035061034b366004614a93565b6109f5565b6040516001600160c01b039091168152602001610334565b609d5461037b906001600160a01b031681565b6040516001600160a01b039091168152602001610334565b6103086103a1366004614bb2565b610bce565b6103086103b4366004614a68565b610c78565b6103086103c7366004614c27565b610c85565b61032a6103da366004614c27565b609f6020526000908152604090205481565b61032a6103fa366004614c27565b6001600160a01b031660009081526099602052604090205490565b610308610423366004614a68565b610d35565b61044b610436366004614a68565b609a6020526000908152604090205460ff1681565b6040519015158152602001610334565b61046e610469366004614c44565b610e79565b60408051825163ffffffff908116825260208085015190911690820152918101516001600160c01b031690820152606001610334565b61032a6104b2366004614c77565b609b6020526000908152604090205481565b609e5461037b906001600160a01b031681565b61037b6104e5366004614a68565b610f0a565b6103086104f8366004614c27565b610f96565b61030861050b366004614c27565b610fa7565b61037b7f000000000000000000000000000000000000000000000000000000000000000081565b61054a610545366004614c27565b610fb8565b6040516103349190614c92565b610308610565366004614cea565b611037565b61057d610578366004614c27565b611510565b6040516103349190614d8d565b610308611584565b61044b6105a0366004614c77565b6001805460ff9092161b9081161490565b6103086105bf366004614e12565b611650565b60015461032a565b61037b7f000000000000000000000000000000000000000000000000000000000000000081565b61037b610601366004614a68565b611671565b61037b7f000000000000000000000000000000000000000000000000000000000000000081565b61030861063b366004614e46565b61169b565b6103086117b1565b61032a610656366004614efd565b6117c5565b610350610669366004614a68565b61180f565b60005461037b906201000090046001600160a01b031681565b61037b61181a565b60965461069c9060ff1681565b60405160ff9091168152602001610334565b6103086106bc366004615096565b611833565b61037b7f000000000000000000000000000000000000000000000000000000000000000081565b61032a7f2bd82124057f0913bc3b772ce7b83e8057c1ad1f3510fc83778be20f10ec5de681565b61030861071d36600461518f565b611b5d565b61032a60a05481565b61073e610739366004615237565b611cd3565b60405161033491906152dc565b61032a7f4d404e3276e7ac2163d8ee476afa6a41d1f68fb71f2d8b6546b24e55ce01b72a81565b610308610780366004615326565b611d8c565b609c5461032a565b61030861079b36600461540c565b611df3565b6103086107ae3660046155bf565b611e06565b6108226107c1366004614c77565b60408051606080820183526000808352602080840182905292840181905260ff9490941684526097825292829020825193840183525463ffffffff8116845261ffff600160201b8204811692850192909252600160301b9004169082015290565b60408051825163ffffffff16815260208084015161ffff908116918301919091529282015190921690820152606001610334565b61037b7f000000000000000000000000000000000000000000000000000000000000000081565b61030861088b366004614c27565b6120ff565b61030861089e366004614a68565b612175565b6108d26108b1366004614c27565b6001600160a01b031660009081526099602052604090206001015460ff1690565b6040516103349190615693565b600154600290600490811614156109115760405162461bcd60e51b8152600401610908906156a1565b60405180910390fd5b60005b828110156109ef576000848483818110610930576109306156d8565b90506020020160208101906109459190614c27565b6001600160a01b03811660009081526099602090815260408083208151808301909252805482526001810154949550929390929183019060ff16600281111561099057610990614d55565b60028111156109a1576109a1614d55565b905250805190915060006109b4826122d1565b905060006109ca826001600160c01b031661233a565b90506109d7858583612406565b505050505080806109e790615704565b915050610914565b50505050565b6000838152609860205260408120805482919084908110610a1857610a186156d8565b600091825260209182902060408051606081018252929091015463ffffffff808216808552600160201b8304821695850195909552600160401b9091046001600160c01b03169183019190915290925085161015610b045760405162461bcd60e51b815260206004820152605a60248201527f526567436f6f72642e67657451756f72756d4269746d61704174426c6f636b4e60448201527f756d6265724279496e6465783a2071756f72756d4269746d617055706461746560648201527f2069732066726f6d20616674657220626c6f636b4e756d626572000000000000608482015260a401610908565b602081015163ffffffff161580610b2a5750806020015163ffffffff168463ffffffff16105b610bc25760405162461bcd60e51b815260206004820152605b60248201527f526567436f6f72642e67657451756f72756d4269746d61704174426c6f636b4e60448201527f756d6265724279496e6465783a2071756f72756d4269746d617055706461746560648201527f2069732066726f6d206265666f726520626c6f636b4e756d6265720000000000608482015260a401610908565b60400151949350505050565b60013360009081526099602052604090206001015460ff166002811115610bf757610bf7614d55565b14610c5b5760405162461bcd60e51b815260206004820152602e60248201527f526567436f6f72642e757064617465536f636b65743a206f70657261746f722060448201526d1b9bdd081c9959da5cdd195c995960921b6064820152608401610908565b33600090815260996020526040902054610c7590826124f3565b50565b610c806125af565b60a055565b600060029054906101000a90046001600160a01b03166001600160a01b031663eab66d7a6040518163ffffffff1660e01b8152600401602060405180830381865afa158015610cd8573d6000803e3d6000fd5b505050506040513d601f19601f82011682018060405250810190610cfc919061571f565b6001600160a01b0316336001600160a01b031614610d2c5760405162461bcd60e51b81526004016109089061573c565b610c758161260e565b60005460405163237dfb4760e11b8152336004820152620100009091046001600160a01b0316906346fbf68e90602401602060405180830381865afa158015610d82573d6000803e3d6000fd5b505050506040513d601f19601f82011682018060405250810190610da69190615786565b610dc25760405162461bcd60e51b8152600401610908906157a8565b60015481811614610e3b5760405162461bcd60e51b815260206004820152603860248201527f5061757361626c652e70617573653a20696e76616c696420617474656d70742060448201527f746f20756e70617573652066756e6374696f6e616c69747900000000000000006064820152608401610908565b600181905560405181815233907fab40a374bc51de372200a8bc981af8c9ecdc08dfdaef0bb6e09f88f3c616ef3d906020015b60405180910390a250565b60408051606081018252600080825260208201819052918101919091526000838152609860205260409020805483908110610eb657610eb66156d8565b600091825260209182902060408051606081018252919092015463ffffffff8082168352600160201b820416938201939093526001600160c01b03600160401b909304929092169082015290505b92915050565b6040516308f6629d60e31b8152600481018290526000907f00000000000000000000000000000000000000000000000000000000000000006001600160a01b0316906347b314e890602401602060405180830381865afa158015610f72573d6000803e3d6000fd5b505050506040513d601f19601f82011682018060405250810190610f04919061571f565b610f9e6125af565b610c7581612713565b610faf6125af565b610c758161277c565b6040805180820190915260008082526020820152610f046110327f2bd82124057f0913bc3b772ce7b83e8057c1ad1f3510fc83778be20f10ec5de6846040516020016110179291909182526001600160a01b0316602082015260400190565b604051602081830303815290604052805190602001206127e5565b612833565b600154600290600490811614156110605760405162461bcd60e51b8152600401610908906156a1565b60006110a884848080601f0160208091040260200160405190810160405280939291908181526020018383808284376000920191909152505060965460ff1691506128c39050565b905084831461110d5760405162461bcd60e51b81526020600482015260386024820152600080516020615ec083398151915260448201527f6d3a20696e707574206c656e677468206d69736d6174636800000000000000006064820152608401610908565b60005b8381101561150757600085858381811061112c5761112c6156d8565b919091013560f81c9150369050600089898581811061114d5761114d6156d8565b905060200281019061115f91906157f0565b6040516379a0849160e11b815260ff8616600482015291935091507f00000000000000000000000000000000000000000000000000000000000000006001600160a01b03169063f341092290602401602060405180830381865afa1580156111cb573d6000803e3d6000fd5b505050506040513d601f19601f820116820180604052508101906111ef9190615839565b63ffffffff16811461127d5760405162461bcd60e51b815260206004820152605a6024820152600080516020615ec083398151915260448201527f6d3a206e756d626572206f662075706461746564206f70657261746f7273206460648201527f6f6573206e6f74206d617463682071756f72756d20746f74616c000000000000608482015260a401610908565b6000805b828110156114a657600084848381811061129d5761129d6156d8565b90506020020160208101906112b29190614c27565b6001600160a01b03811660009081526099602090815260408083208151808301909252805482526001810154949550929390929183019060ff1660028111156112fd576112fd614d55565b600281111561130e5761130e614d55565b90525080519091506000611321826122d1565b905060016001600160c01b03821660ff8b161c8116146113975760405162461bcd60e51b81526020600482015260396024820152600080516020615ec083398151915260448201527f6d3a206f70657261746f72206e6f7420696e2071756f72756d000000000000006064820152608401610908565b856001600160a01b0316846001600160a01b0316116114325760405162461bcd60e51b815260206004820152605c6024820152600080516020615ec083398151915260448201527f6d3a206f70657261746f7273206172726179206d75737420626520736f72746560648201527f6420696e20617363656e64696e672061646472657373206f7264657200000000608482015260a401610908565b5061149083838f8f8d908e60016114499190615856565b926114569392919061586e565b8080601f01602080910402602001604051908101604052809392919081815260200183838082843760009201919091525061240692505050565b5090925061149f905081615704565b9050611281565b5060ff84166000818152609b6020908152604091829020439081905591519182527f46077d55330763f16269fd75e5761663f4192d2791747c0189b16ad31db07db4910160405180910390a2505050508061150090615704565b9050611110565b50505050505050565b60408051808201909152600080825260208201526001600160a01b0382166000908152609960209081526040918290208251808401909352805483526001810154909183019060ff16600281111561156a5761156a614d55565b600281111561157b5761157b614d55565b90525092915050565b60005460405163237dfb4760e11b8152336004820152620100009091046001600160a01b0316906346fbf68e90602401602060405180830381865afa1580156115d1573d6000803e3d6000fd5b505050506040513d601f19601f820116820180604052508101906115f59190615786565b6116115760405162461bcd60e51b8152600401610908906157a8565b600019600181905560405190815233907fab40a374bc51de372200a8bc981af8c9ecdc08dfdaef0bb6e09f88f3c616ef3d9060200160405180910390a2565b6116586125af565b8161166281612954565b61166c83836129c1565b505050565b609c818154811061168157600080fd5b6000918252602090912001546001600160a01b0316905081565b6116a3612a67565b6001600160a01b0383166000908152609f602090815260408083204290556099825280832080548251601f87018590048502810185019093528583529093909290916117109187908790819084018382808284376000920191909152505060965460ff1691506128c39050565b9050600061171d836122d1565b905060018085015460ff16600281111561173957611739614d55565b14801561174e57506001600160c01b03821615155b801561176c575061176c6001600160c01b0383811690831681161490565b15611507576115078787878080601f016020809104026020016040519081016040528093929190818152602001838380828437600092019190915250612ad992505050565b6117b96125af565b6117c36000612f1a565b565b60006118057f4d404e3276e7ac2163d8ee476afa6a41d1f68fb71f2d8b6546b24e55ce01b72a878787878760405160200161101796959493929190615898565b9695505050505050565b6000610f04826122d1565b600061182e6064546001600160a01b031690565b905090565b60018054600091908116141561185b5760405162461bcd60e51b8152600401610908906156a1565b8389146118d05760405162461bcd60e51b815260206004820152603960248201527f526567436f6f72642e72656769737465724f70657261746f725769746843687560448201527f726e3a20696e707574206c656e677468206d69736d61746368000000000000006064820152608401610908565b60006118dc3388612f6c565b905061193c33828888808060200260200160405190810160405280939291908181526020016000905b82821015611931576119226040830286013681900381019061591d565b81526020019060010190611905565b50505050508761309d565b600061198333838e8e8e8e8080601f0160208091040260200160405190810160405280939291908181526020018383808284376000920191909152508c9250613214915050565b905060005b8b811015611b4e576000609760008f8f858181106119a8576119a86156d8565b919091013560f81c82525060208082019290925260409081016000208151606081018352905463ffffffff811680835261ffff600160201b8304811695840195909552600160301b90910490931691810191909152845180519193509084908110611a1557611a156156d8565b602002602001015163ffffffff161115611b3b57611ab68e8e84818110611a3e57611a3e6156d8565b9050013560f81c60f81b60f81c84604001518481518110611a6157611a616156d8565b60200260200101513386602001518681518110611a8057611a806156d8565b60200260200101518d8d88818110611a9a57611a9a6156d8565b905060400201803603810190611ab0919061591d565b86613764565b611b3b898984818110611acb57611acb6156d8565b9050604002016020016020810190611ae39190614c27565b8f8f8590866001611af49190615856565b92611b019392919061586e565b8080601f016020809104026020016040519081016040528093929190818152602001838380828437600092019190915250612ad992505050565b5080611b4681615704565b915050611988565b50505050505050505050505050565b600180546000919081161415611b855760405162461bcd60e51b8152600401610908906156a1565b6000611b913385612f6c565b90506000611bda33838b8b8b8b8080601f0160208091040260200160405190810160405280939291908181526020018383808284376000920191909152508c9250613214915050565b51905060005b88811015611cc75760008a8a83818110611bfc57611bfc6156d8565b919091013560f81c600081815260976020526040902054855191935063ffffffff169150849084908110611c3257611c326156d8565b602002602001015163ffffffff161115611cb45760405162461bcd60e51b815260206004820152603960248201527f526567436f6f72642e72656769737465724f70657261746f723a206f7065726160448201527f746f7220636f756e742065786365656473206d6178696d756d000000000000006064820152608401610908565b5080611cbf81615704565b915050611be0565b50505050505050505050565b6060600082516001600160401b03811115611cf057611cf0614acb565b604051908082528060200260200182016040528015611d19578160200160208202803683370190505b50905060005b8351811015611d8457611d4b85858381518110611d3e57611d3e6156d8565b6020026020010151613a4f565b828281518110611d5d57611d5d6156d8565b63ffffffff9092166020928302919091019091015280611d7c81615704565b915050611d1f565b509392505050565b6001805460029081161415611db35760405162461bcd60e51b8152600401610908906156a1565b61166c3384848080601f016020809104026020016040519081016040528093929190818152602001838380828437600092019190915250612ad992505050565b611dfb6125af565b61166c838383613b76565b600054610100900460ff1615808015611e265750600054600160ff909116105b80611e405750303b158015611e40575060005460ff166001145b611ea35760405162461bcd60e51b815260206004820152602e60248201527f496e697469616c697a61626c653a20636f6e747261637420697320616c72656160448201526d191e481a5b9a5d1a585b1a5e995960921b6064820152608401610908565b6000805460ff191660011790558015611ec6576000805461ff0019166101001790555b82518451148015611ed8575081518351145b611f375760405162461bcd60e51b815260206004820152602a60248201527f526567436f6f72642e696e697469616c697a653a20696e707574206c656e67746044820152690d040dad2e6dac2e8c6d60b31b6064820152608401610908565b611f4089612f1a565b611f4a8686613d82565b611f5388612713565b611f5c8761277c565b609c80546001818101835560008381527faf85b9071dfafeac1409d3f1d19bafc9bc7c37974cde8df0ee6168f0086e539c92830180546001600160a01b037f000000000000000000000000000000000000000000000000000000000000000081166001600160a01b03199283161790925585548085018755850180547f0000000000000000000000000000000000000000000000000000000000000000841690831617905585549384019095559190920180547f000000000000000000000000000000000000000000000000000000000000000090921691909316179091555b84518110156120ad5761209b85828151811061205a5761205a6156d8565b6020026020010151858381518110612074576120746156d8565b602002602001015185848151811061208e5761208e6156d8565b6020026020010151613b76565b806120a581615704565b91505061203c565b5080156120f4576000805461ff0019169055604051600181527f7f26b83ff96e1f2b6a682f133852f6798a09c465da95921460cefb38474024989060200160405180910390a15b505050505050505050565b6121076125af565b6001600160a01b03811661216c5760405162461bcd60e51b815260206004820152602660248201527f4f776e61626c653a206e6577206f776e657220697320746865207a65726f206160448201526564647265737360d01b6064820152608401610908565b610c7581612f1a565b600060029054906101000a90046001600160a01b03166001600160a01b031663eab66d7a6040518163ffffffff1660e01b8152600401602060405180830381865afa1580156121c8573d6000803e3d6000fd5b505050506040513d601f19601f820116820180604052508101906121ec919061571f565b6001600160a01b0316336001600160a01b03161461221c5760405162461bcd60e51b81526004016109089061573c565b60015419811960015419161461229a5760405162461bcd60e51b815260206004820152603860248201527f5061757361626c652e756e70617573653a20696e76616c696420617474656d7060448201527f7420746f2070617573652066756e6374696f6e616c69747900000000000000006064820152608401610908565b600181905560405181815233907f3582d1828e26bf56bd801502bc021ac0bc8afb57c826e4986b45593c8fad389c90602001610e6e565b600081815260986020526040812054806122ee5750600092915050565b6000838152609860205260409020612307600183615939565b81548110612317576123176156d8565b600091825260209091200154600160401b90046001600160c01b03169392505050565b606060008061234884613e72565b61ffff166001600160401b0381111561236357612363614acb565b6040519080825280601f01601f19166020018201604052801561238d576020820181803683370190505b5090506000805b8251821080156123a5575061010081105b156123fc576001811b9350858416156123ec578060f81b8383815181106123ce576123ce6156d8565b60200101906001600160f81b031916908160001a9053508160010191505b6123f581615704565b9050612394565b5090949350505050565b60018260200151600281111561241e5761241e614d55565b1461242857505050565b81516040516333567f7f60e11b81526000906001600160a01b037f000000000000000000000000000000000000000000000000000000000000000016906366acfefe9061247d9088908690889060040161599d565b6020604051808303816000875af115801561249c573d6000803e3d6000fd5b505050506040513d601f19601f820116820180604052508101906124c091906159cd565b90506001600160c01b038116156124ec576124ec856124e7836001600160c01b031661233a565b612ad9565b5050505050565b6040516378219b3f60e11b81526001600160a01b037f0000000000000000000000000000000000000000000000000000000000000000169063f043367e9061254190859085906004016159f6565b600060405180830381600087803b15801561255b57600080fd5b505af115801561256f573d6000803e3d6000fd5b50505050817fec2963ab21c1e50e1e582aa542af2e4bf7bf38e6e1403c27b42e1c5d6e621eaa826040516125a39190615a0f565b60405180910390a25050565b336125b861181a565b6001600160a01b0316146117c35760405162461bcd60e51b815260206004820181905260248201527f4f776e61626c653a2063616c6c6572206973206e6f7420746865206f776e65726044820152606401610908565b6001600160a01b03811661269c5760405162461bcd60e51b815260206004820152604960248201527f5061757361626c652e5f73657450617573657252656769737472793a206e657760448201527f50617573657252656769737472792063616e6e6f7420626520746865207a65726064820152686f206164647265737360b81b608482015260a401610908565b600054604080516001600160a01b03620100009093048316815291831660208301527f6e9fcd539896fca60e8b0f01dd580233e48a6b0f7df013b89ba7f565869acdb6910160405180910390a1600080546001600160a01b03909216620100000262010000600160b01b0319909216919091179055565b609d54604080516001600160a01b03928316815291831660208301527f315457d8a8fe60f04af17c16e2f5a5e1db612b31648e58030360759ef8f3528c910160405180910390a1609d80546001600160a01b0319166001600160a01b0392909216919091179055565b609e54604080516001600160a01b03928316815291831660208301527f8f30ab09f43a6c157d7fce7e0a13c003042c1c95e8a72e7a146a21c0caa24dc9910160405180910390a1609e80546001600160a01b0319166001600160a01b0392909216919091179055565b6000610f046127f2613e9d565b8360405161190160f01b6020820152602281018390526042810182905260009060620160405160208183030381529060405280519060200120905092915050565b604080518082019091526000808252602082015260008080612863600080516020615ea083398151915286615a38565b90505b61286f81613fc4565b9093509150600080516020615ea08339815191528283098314156128a9576040805180820190915290815260208101919091529392505050565b600080516020615ea0833981519152600182089050612866565b6000806128cf84614046565b9050808360ff166001901b1161294d5760405162461bcd60e51b815260206004820152603f60248201527f4269746d61705574696c732e6f72646572656442797465734172726179546f4260448201527f69746d61703a206269746d61702065786365656473206d61782076616c7565006064820152608401610908565b9392505050565b60965460ff90811690821610610c755760405162461bcd60e51b815260206004820152602c60248201527f526567436f6f72642e71756f72756d4578697374733a2071756f72756d20646f60448201526b195cc81b9bdd08195e1a5cdd60a21b6064820152608401610908565b60ff8216600081815260976020908152604091829020845181548684018051888701805163ffffffff90951665ffffffffffff199094168417600160201b61ffff938416021767ffff0000000000001916600160301b95831695909502949094179094558551918252518316938101939093525116918101919091527f3ee6fe8d54610244c3e9d3c066ae4aee997884aa28f10616ae821925401318ac906060016125a3565b609e546001600160a01b031633146117c35760405162461bcd60e51b815260206004820152602f60248201527f526567436f6f72642e6f6e6c79456a6563746f723a2063616c6c65722069732060448201526e3737ba103a34329032b532b1ba37b960891b6064820152608401610908565b6001600160a01b0382166000908152609960205260409020805460018083015460ff166002811115612b0d57612b0d614d55565b14612b805760405162461bcd60e51b815260206004820152603860248201527f526567436f6f72642e5f646572656769737465724f70657261746f723a206f7060448201527f657261746f72206973206e6f74207265676973746572656400000000000000006064820152608401610908565b609654600090612b9490859060ff166128c3565b90506000612ba1836122d1565b90506001600160c01b038216612c125760405162461bcd60e51b815260206004820152603060248201527f526567436f6f72642e5f646572656769737465724f70657261746f723a20626960448201526f0746d61702063616e6e6f7420626520360841b6064820152608401610908565b612c296001600160c01b0383811690831681161490565b612ca95760405162461bcd60e51b8152602060048201526044602482018190527f526567436f6f72642e5f646572656769737465724f70657261746f723a206f70908201527f657261746f72206973206e6f74207265676973746572656420666f722071756f60648201526372756d7360e01b608482015260a401610908565b6001600160c01b0382811619821616612cc284826141d3565b6001600160c01b038116612d915760018501805460ff191660021790556040516351b27a6d60e11b81526001600160a01b0388811660048301527f0000000000000000000000000000000000000000000000000000000000000000169063a364f4da90602401600060405180830381600087803b158015612d4257600080fd5b505af1158015612d56573d6000803e3d6000fd5b50506040518692506001600160a01b038a1691507f396fdcb180cb0fea26928113fb0fd1c3549863f9cd563e6a184f1d578116c8e490600090a35b60405163f4e24fe560e01b81526001600160a01b037f0000000000000000000000000000000000000000000000000000000000000000169063f4e24fe590612ddf908a908a90600401615a4c565b600060405180830381600087803b158015612df957600080fd5b505af1158015612e0d573d6000803e3d6000fd5b505060405163bd29b8cd60e01b81526001600160a01b037f000000000000000000000000000000000000000000000000000000000000000016925063bd29b8cd9150612e5f9087908a906004016159f6565b600060405180830381600087803b158015612e7957600080fd5b505af1158015612e8d573d6000803e3d6000fd5b505060405163bd29b8cd60e01b81526001600160a01b037f000000000000000000000000000000000000000000000000000000000000000016925063bd29b8cd9150612edf9087908a906004016159f6565b600060405180830381600087803b158015612ef957600080fd5b505af1158015612f0d573d6000803e3d6000fd5b5050505050505050505050565b606480546001600160a01b038381166001600160a01b0319831681179093556040519116919082907f8be0079c531659141344cd1fd0a4f28419497f9722a3daafe3b4186f6b6457e090600090a35050565b6040516309aa152760e11b81526001600160a01b0383811660048301526000917f0000000000000000000000000000000000000000000000000000000000000000909116906313542a4e90602401602060405180830381865afa158015612fd7573d6000803e3d6000fd5b505050506040513d601f19601f82011682018060405250810190612ffb9190615a70565b905080610f04577f00000000000000000000000000000000000000000000000000000000000000006001600160a01b031663bf79ce58848461303c87610fb8565b6040518463ffffffff1660e01b815260040161305a93929190615a89565b6020604051808303816000875af1158015613079573d6000803e3d6000fd5b505050506040513d601f19601f8201168201806040525081019061294d9190615a70565b6020808201516000908152609a909152604090205460ff16156131385760405162461bcd60e51b815260206004820152604760248201527f526567436f6f72642e5f766572696679436875726e417070726f76657253696760448201527f6e61747572653a20636875726e417070726f7665722073616c7420616c726561606482015266191e481d5cd95960ca1b608482015260a401610908565b42816040015110156131c25760405162461bcd60e51b815260206004820152604760248201527f526567436f6f72642e5f766572696679436875726e417070726f76657253696760448201527f6e61747572653a20636875726e417070726f766572207369676e617475726520606482015266195e1c1a5c995960ca1b608482015260a401610908565b602080820180516000908152609a909252604091829020805460ff19166001179055609d549051918301516109ef926001600160a01b039092169161320d91889188918891906117c5565b8351614393565b61323860405180606001604052806060815260200160608152602001606081525090565b600061328086868080601f0160208091040260200160405190810160405280939291908181526020018383808284376000920191909152505060965460ff1691506128c39050565b9050600061328d886122d1565b90506001600160c01b0382166132fc5760405162461bcd60e51b815260206004820152602e60248201527f526567436f6f72642e5f72656769737465724f70657261746f723a206269746d60448201526d061702063616e6e6f7420626520360941b6064820152608401610908565b8082166001600160c01b03161561338c5760405162461bcd60e51b815260206004820152604860248201527f526567436f6f72642e5f72656769737465724f70657261746f723a206f70657260448201527f61746f7220616c7265616479207265676973746572656420666f7220736f6d656064820152672071756f72756d7360c01b608482015260a401610908565b60a0546001600160a01b038a166000908152609f60205260409020546001600160c01b03838116908516179142916133c49190615856565b106134375760405162461bcd60e51b815260206004820152603a60248201527f526567436f6f72642e5f72656769737465724f70657261746f723a206f70657260448201527f61746f722063616e6e6f742072657265676973746572207965740000000000006064820152608401610908565b61344189826141d3565b60016001600160a01b038b1660009081526099602052604090206001015460ff16600281111561347357613473614d55565b14613596576040805180820182528a8152600160208083018281526001600160a01b038f166000908152609990925293902082518155925183820180549394939192909160ff1916908360028111156134ce576134ce614d55565b021790555050604051639926ee7d60e01b81526001600160a01b037f0000000000000000000000000000000000000000000000000000000000000000169150639926ee7d90613523908d908990600401615b08565b600060405180830381600087803b15801561353d57600080fd5b505af1158015613551573d6000803e3d6000fd5b5050505061355f89876124f3565b60405189906001600160a01b038c16907fe8e68cef1c3a761ed7be7e8463a375f27f7bc335e51824223cacce636ec5c3fe90600090a35b604051631fd93ca960e11b81526001600160a01b037f00000000000000000000000000000000000000000000000000000000000000001690633fb27952906135e6908d908c908c90600401615b7c565b600060405180830381600087803b15801561360057600080fd5b505af1158015613614573d6000803e3d6000fd5b5050604051632550477760e01b81526001600160a01b037f00000000000000000000000000000000000000000000000000000000000000001692506325504777915061366a908d908d908d908d90600401615ba1565b6000604051808303816000875af1158015613689573d6000803e3d6000fd5b505050506040513d6000823e601f3d908101601f191682016040526136b19190810190615c2d565b60408087019190915260208601919091525162bff04d60e01b81526001600160a01b037f0000000000000000000000000000000000000000000000000000000000000000169062bff04d9061370e908c908c908c90600401615c90565b6000604051808303816000875af115801561372d573d6000803e3d6000fd5b505050506040513d6000823e601f3d908101601f191682016040526137559190810190615caa565b84525050509695505050505050565b6020808301516001600160a01b0380821660008181526099909452604090932054919290871614156137eb5760405162461bcd60e51b815260206004820152602a60248201527f526567436f6f72642e5f76616c6964617465436875726e3a2063616e6e6f742060448201526931b43ab9371039b2b63360b11b6064820152608401610908565b8760ff16846000015160ff161461386a5760405162461bcd60e51b815260206004820152603c60248201527f526567436f6f72642e5f76616c6964617465436875726e3a2071756f72756d4e60448201527f756d626572206e6f74207468652073616d65206173207369676e6564000000006064820152608401610908565b604051635401ed2760e01b81526004810182905260ff891660248201526000907f00000000000000000000000000000000000000000000000000000000000000006001600160a01b031690635401ed2790604401602060405180830381865afa1580156138db573d6000803e3d6000fd5b505050506040513d601f19601f820116820180604052508101906138ff9190615d43565b905061390b818561454d565b6001600160601b0316866001600160601b0316116139a55760405162461bcd60e51b815260206004820152604b60248201527f526567436f6f72642e5f76616c6964617465436875726e3a20696e636f6d696e60448201527f67206f70657261746f722068617320696e73756666696369656e74207374616b60648201526a32903337b91031b43ab93760a91b608482015260a401610908565b6139af8885614571565b6001600160601b0316816001600160601b0316106120f45760405162461bcd60e51b815260206004820152605160248201527f526567436f6f72642e5f76616c6964617465436875726e3a2063616e6e6f742060448201527f6b69636b206f70657261746f722077697468206d6f7265207468616e206b69636064820152706b424950734f66546f74616c5374616b6560781b608482015260a401610908565b600081815260986020526040812054815b81811015613ae1576001613a748284615939565b613a7e9190615939565b92508463ffffffff16609860008681526020019081526020016000208463ffffffff1681548110613ab157613ab16156d8565b60009182526020909120015463ffffffff1611613acf575050610f04565b80613ad981615704565b915050613a60565b5060405162461bcd60e51b815260206004820152605e60248201527f526567436f6f72642e67657451756f72756d4269746d6170496e64657841744260448201527f6c6f636b4e756d6265723a206e6f206269746d61702075706461746520666f7560648201527f6e6420666f72206f70657261746f7220617420626c6f636b4e756d6265720000608482015260a401610908565b60965460ff1660c08110613bdf5760405162461bcd60e51b815260206004820152602a60248201527f526567436f6f72642e63726561746551756f72756d3a206d61782071756f72756044820152691b5cc81c995858da195960b21b6064820152608401610908565b613bea816001615d60565b6096805460ff191660ff9290921691909117905580613c0981866129c1565b60405160016296b58960e01b031981526001600160a01b037f0000000000000000000000000000000000000000000000000000000000000000169063ff694a7790613c5c90849088908890600401615d85565b600060405180830381600087803b158015613c7657600080fd5b505af1158015613c8a573d6000803e3d6000fd5b505060405163136ca0f960e11b815260ff841660048201527f00000000000000000000000000000000000000000000000000000000000000006001600160a01b031692506326d941f29150602401600060405180830381600087803b158015613cf257600080fd5b505af1158015613d06573d6000803e3d6000fd5b505060405163136ca0f960e11b815260ff841660048201527f00000000000000000000000000000000000000000000000000000000000000006001600160a01b031692506326d941f29150602401600060405180830381600087803b158015613d6e57600080fd5b505af11580156120f4573d6000803e3d6000fd5b6000546201000090046001600160a01b0316158015613da957506001600160a01b03821615155b613e2b5760405162461bcd60e51b815260206004820152604760248201527f5061757361626c652e5f696e697469616c697a655061757365723a205f696e6960448201527f7469616c697a6550617573657228292063616e206f6e6c792062652063616c6c6064820152666564206f6e636560c81b608482015260a401610908565b600181905560405181815233907fab40a374bc51de372200a8bc981af8c9ecdc08dfdaef0bb6e09f88f3c616ef3d9060200160405180910390a2613e6e8261260e565b5050565b6000805b8215610f0457613e87600184615939565b9092169180613e9581615dfe565b915050613e76565b6000306001600160a01b037f000000000000000000000000000000000000000000000000000000000000000016148015613ef657507f000000000000000000000000000000000000000000000000000000000000000046145b15613f2057507f000000000000000000000000000000000000000000000000000000000000000090565b50604080517f00000000000000000000000000000000000000000000000000000000000000006020808301919091527f0000000000000000000000000000000000000000000000000000000000000000828401527f000000000000000000000000000000000000000000000000000000000000000060608301524660808301523060a0808401919091528351808403909101815260c0909201909252805191012090565b60008080600080516020615ea08339815191526003600080516020615ea083398151915286600080516020615ea083398151915288890909089050600061403a827f0c19139cb84c680a6e14116da060561765e05aa45a1c72a34f082305b61f3f52600080516020615ea083398151915261458b565b91959194509092505050565b6000610100825111156140cf5760405162461bcd60e51b8152602060048201526044602482018190527f4269746d61705574696c732e6f72646572656442797465734172726179546f42908201527f69746d61703a206f7264657265644279746573417272617920697320746f6f206064820152636c6f6e6760e01b608482015260a401610908565b81516140dd57506000919050565b600080836000815181106140f3576140f36156d8565b0160200151600160f89190911c81901b92505b84518110156141ca57848181518110614121576141216156d8565b0160200151600160f89190911c1b91508282116141b65760405162461bcd60e51b815260206004820152604760248201527f4269746d61705574696c732e6f72646572656442797465734172726179546f4260448201527f69746d61703a206f72646572656442797465734172726179206973206e6f74206064820152661bdc99195c995960ca1b608482015260a401610908565b918117916141c381615704565b9050614106565b50909392505050565b60008281526098602052604090205480614278576000838152609860209081526040808320815160608101835263ffffffff43811682528185018681526001600160c01b03808a16958401958652845460018101865594885295909620915191909201805495519351909416600160401b026001600160401b03938316600160201b0267ffffffffffffffff1990961691909216179390931716919091179055505050565b6000838152609860205260408120614291600184615939565b815481106142a1576142a16156d8565b600091825260209091200180549091504363ffffffff908116911614156142e55780546001600160401b0316600160401b6001600160c01b038516021781556109ef565b805463ffffffff438116600160201b81810267ffffffff0000000019909416939093178455600087815260986020908152604080832081516060810183529485528483018481526001600160c01b03808c1693870193845282546001810184559286529390942094519401805493519151909216600160401b026001600160401b0391861690960267ffffffffffffffff199093169390941692909217179190911691909117905550505050565b6001600160a01b0383163b156144ad57604051630b135d3f60e11b808252906001600160a01b03851690631626ba7e906143d390869086906004016159f6565b602060405180830381865afa1580156143f0573d6000803e3d6000fd5b505050506040513d601f19601f820116820180604052508101906144149190615e20565b6001600160e01b0319161461166c5760405162461bcd60e51b815260206004820152605360248201527f454950313237315369676e61747572655574696c732e636865636b5369676e6160448201527f747572655f454950313237313a2045524331323731207369676e6174757265206064820152721d995c9a599a58d85d1a5bdb8819985a5b1959606a1b608482015260a401610908565b826001600160a01b03166144c1838361463a565b6001600160a01b03161461166c5760405162461bcd60e51b815260206004820152604760248201527f454950313237315369676e61747572655574696c732e636865636b5369676e6160448201527f747572655f454950313237313a207369676e6174757265206e6f742066726f6d6064820152661039b4b3b732b960c91b608482015260a401610908565b6020810151600090612710906145679061ffff1685615e4a565b61294d9190615e79565b6040810151600090612710906145679061ffff1685615e4a565b6000806145966149a7565b61459e6149c5565b602080825281810181905260408201819052606082018890526080820187905260a082018690528260c08360056107d05a03fa92508280156145df576145e1565bfe5b508261462f5760405162461bcd60e51b815260206004820152601a60248201527f424e3235342e6578704d6f643a2063616c6c206661696c7572650000000000006044820152606401610908565b505195945050505050565b60008060006146498585614656565b91509150611d84816146c6565b60008082516041141561468d5760208301516040840151606085015160001a61468187828585614881565b945094505050506146bf565b8251604014156146b757602083015160408401516146ac86838361496e565b9350935050506146bf565b506000905060025b9250929050565b60008160048111156146da576146da614d55565b14156146e35750565b60018160048111156146f7576146f7614d55565b14156147455760405162461bcd60e51b815260206004820152601860248201527f45434453413a20696e76616c6964207369676e617475726500000000000000006044820152606401610908565b600281600481111561475957614759614d55565b14156147a75760405162461bcd60e51b815260206004820152601f60248201527f45434453413a20696e76616c6964207369676e6174757265206c656e677468006044820152606401610908565b60038160048111156147bb576147bb614d55565b14156148145760405162461bcd60e51b815260206004820152602260248201527f45434453413a20696e76616c6964207369676e6174757265202773272076616c604482015261756560f01b6064820152608401610908565b600481600481111561482857614828614d55565b1415610c755760405162461bcd60e51b815260206004820152602260248201527f45434453413a20696e76616c6964207369676e6174757265202776272076616c604482015261756560f01b6064820152608401610908565b6000807f7fffffffffffffffffffffffffffffff5d576e7357a4501ddfe92f46681b20a08311156148b85750600090506003614965565b8460ff16601b141580156148d057508460ff16601c14155b156148e15750600090506004614965565b6040805160008082526020820180845289905260ff881692820192909252606081018690526080810185905260019060a0016020604051602081039080840390855afa158015614935573d6000803e3d6000fd5b5050604051601f1901519150506001600160a01b03811661495e57600060019250925050614965565b9150600090505b94509492505050565b6000806001600160ff1b0383168161498b60ff86901c601b615856565b905061499987828885614881565b935093505050935093915050565b60405180602001604052806001906020820280368337509192915050565b6040518060c001604052806006906020820280368337509192915050565b60008083601f8401126149f557600080fd5b5081356001600160401b03811115614a0c57600080fd5b6020830191508360208260051b85010111156146bf57600080fd5b60008060208385031215614a3a57600080fd5b82356001600160401b03811115614a5057600080fd5b614a5c858286016149e3565b90969095509350505050565b600060208284031215614a7a57600080fd5b5035919050565b63ffffffff81168114610c7557600080fd5b600080600060608486031215614aa857600080fd5b833592506020840135614aba81614a81565b929592945050506040919091013590565b634e487b7160e01b600052604160045260246000fd5b604051606081016001600160401b0381118282101715614b0357614b03614acb565b60405290565b604080519081016001600160401b0381118282101715614b0357614b03614acb565b604051601f8201601f191681016001600160401b0381118282101715614b5357614b53614acb565b604052919050565b60006001600160401b03831115614b7457614b74614acb565b614b87601f8401601f1916602001614b2b565b9050828152838383011115614b9b57600080fd5b828260208301376000602084830101529392505050565b600060208284031215614bc457600080fd5b81356001600160401b03811115614bda57600080fd5b8201601f81018413614beb57600080fd5b614bfa84823560208401614b5b565b949350505050565b6001600160a01b0381168114610c7557600080fd5b8035614c2281614c02565b919050565b600060208284031215614c3957600080fd5b813561294d81614c02565b60008060408385031215614c5757600080fd5b50508035926020909101359150565b803560ff81168114614c2257600080fd5b600060208284031215614c8957600080fd5b61294d82614c66565b815181526020808301519082015260408101610f04565b60008083601f840112614cbb57600080fd5b5081356001600160401b03811115614cd257600080fd5b6020830191508360208285010111156146bf57600080fd5b60008060008060408587031215614d0057600080fd5b84356001600160401b0380821115614d1757600080fd5b614d23888389016149e3565b90965094506020870135915080821115614d3c57600080fd5b50614d4987828801614ca9565b95989497509550505050565b634e487b7160e01b600052602160045260246000fd5b60038110614d8957634e487b7160e01b600052602160045260246000fd5b9052565b815181526020808301516040830191614da890840182614d6b565b5092915050565b803561ffff81168114614c2257600080fd5b600060608284031215614dd357600080fd5b614ddb614ae1565b90508135614de881614a81565b8152614df660208301614daf565b6020820152614e0760408301614daf565b604082015292915050565b60008060808385031215614e2557600080fd5b614e2e83614c66565b9150614e3d8460208501614dc1565b90509250929050565b600080600060408486031215614e5b57600080fd5b8335614e6681614c02565b925060208401356001600160401b03811115614e8157600080fd5b614e8d86828701614ca9565b9497909650939450505050565b60006001600160401b03821115614eb357614eb3614acb565b5060051b60200190565b600060408284031215614ecf57600080fd5b614ed7614b09565b9050614ee282614c66565b81526020820135614ef281614c02565b602082015292915050565b600080600080600060a08688031215614f1557600080fd5b8535614f2081614c02565b945060208681013594506040808801356001600160401b03811115614f4457600080fd5b8801601f81018a13614f5557600080fd5b8035614f68614f6382614e9a565b614b2b565b81815260069190911b8201840190848101908c831115614f8757600080fd5b928501925b82841015614fad57614f9e8d85614ebd565b82529284019290850190614f8c565b999c989b5098996060810135995060800135979650505050505050565b60006101008284031215614fdd57600080fd5b50919050565b60008083601f840112614ff557600080fd5b5081356001600160401b0381111561500c57600080fd5b6020830191508360208260061b85010111156146bf57600080fd5b60006060828403121561503957600080fd5b615041614ae1565b905081356001600160401b0381111561505957600080fd5b8201601f8101841361506a57600080fd5b61507984823560208401614b5b565b825250602082013560208201526040820135604082015292915050565b60008060008060008060008060006101a08a8c0312156150b557600080fd5b89356001600160401b03808211156150cc57600080fd5b6150d88d838e01614ca9565b909b50995060208c01359150808211156150f157600080fd5b6150fd8d838e01614ca9565b90995097508791506151128d60408e01614fca565b96506101408c013591508082111561512957600080fd5b6151358d838e01614fe3565b90965094506101608c013591508082111561514f57600080fd5b61515b8d838e01615027565b93506101808c013591508082111561517257600080fd5b5061517f8c828d01615027565b9150509295985092959850929598565b60008060008060008061016087890312156151a957600080fd5b86356001600160401b03808211156151c057600080fd5b6151cc8a838b01614ca9565b909850965060208901359150808211156151e557600080fd5b6151f18a838b01614ca9565b90965094508491506152068a60408b01614fca565b935061014089013591508082111561521d57600080fd5b5061522a89828a01615027565b9150509295509295509295565b6000806040838503121561524a57600080fd5b823561525581614a81565b91506020838101356001600160401b0381111561527157600080fd5b8401601f8101861361528257600080fd5b8035615290614f6382614e9a565b81815260059190911b820183019083810190888311156152af57600080fd5b928401925b828410156152cd578335825292840192908401906152b4565b80955050505050509250929050565b6020808252825182820181905260009190848201906040850190845b8181101561531a57835163ffffffff16835292840192918401916001016152f8565b50909695505050505050565b6000806020838503121561533957600080fd5b82356001600160401b0381111561534f57600080fd5b614a5c85828601614ca9565b6001600160601b0381168114610c7557600080fd5b600082601f83011261538157600080fd5b81356020615391614f6383614e9a565b82815260069290921b840181019181810190868411156153b057600080fd5b8286015b8481101561540157604081890312156153cd5760008081fd5b6153d5614b09565b81356153e081614c02565b8152818501356153ef8161535b565b818601528352918301916040016153b4565b509695505050505050565b600080600060a0848603121561542157600080fd5b61542b8585614dc1565b9250606084013561543b8161535b565b915060808401356001600160401b0381111561545657600080fd5b61546286828701615370565b9150509250925092565b600082601f83011261547d57600080fd5b8135602061548d614f6383614e9a565b828152606092830285018201928282019190878511156154ac57600080fd5b8387015b858110156154cf576154c28982614dc1565b84529284019281016154b0565b5090979650505050505050565b600082601f8301126154ed57600080fd5b813560206154fd614f6383614e9a565b82815260059290921b8401810191818101908684111561551c57600080fd5b8286015b848110156154015780356155338161535b565b8352918301918301615520565b600082601f83011261555157600080fd5b81356020615561614f6383614e9a565b82815260059290921b8401810191818101908684111561558057600080fd5b8286015b848110156154015780356001600160401b038111156155a35760008081fd5b6155b18986838b0101615370565b845250918301918301615584565b600080600080600080600080610100898b0312156155dc57600080fd5b6155e589614c17565b97506155f360208a01614c17565b965061560160408a01614c17565b955061560f60608a01614c17565b94506080890135935060a08901356001600160401b038082111561563257600080fd5b61563e8c838d0161546c565b945060c08b013591508082111561565457600080fd5b6156608c838d016154dc565b935060e08b013591508082111561567657600080fd5b506156838b828c01615540565b9150509295985092959890939650565b60208101610f048284614d6b565b60208082526019908201527f5061757361626c653a20696e6465782069732070617573656400000000000000604082015260600190565b634e487b7160e01b600052603260045260246000fd5b634e487b7160e01b600052601160045260246000fd5b6000600019821415615718576157186156ee565b5060010190565b60006020828403121561573157600080fd5b815161294d81614c02565b6020808252602a908201527f6d73672e73656e646572206973206e6f74207065726d697373696f6e6564206160408201526939903ab73830bab9b2b960b11b606082015260800190565b60006020828403121561579857600080fd5b8151801515811461294d57600080fd5b60208082526028908201527f6d73672e73656e646572206973206e6f74207065726d697373696f6e6564206160408201526739903830bab9b2b960c11b606082015260800190565b6000808335601e1984360301811261580757600080fd5b8301803591506001600160401b0382111561582157600080fd5b6020019150600581901b36038213156146bf57600080fd5b60006020828403121561584b57600080fd5b815161294d81614a81565b60008219821115615869576158696156ee565b500190565b6000808585111561587e57600080fd5b8386111561588b57600080fd5b5050820193919092039150565b600060c08201888352602060018060a01b03808a16828601526040898187015260c0606087015283895180865260e088019150848b01955060005b818110156158fd578651805160ff16845286015185168684015295850195918301916001016158d3565b505060808701989098525050505060a09091019190915250949350505050565b60006040828403121561592f57600080fd5b61294d8383614ebd565b60008282101561594b5761594b6156ee565b500390565b6000815180845260005b818110156159765760208185018101518683018201520161595a565b81811115615988576000602083870101525b50601f01601f19169290920160200192915050565b60018060a01b03841681528260208201526060604082015260006159c46060830184615950565b95945050505050565b6000602082840312156159df57600080fd5b81516001600160c01b038116811461294d57600080fd5b828152604060208201526000614bfa6040830184615950565b60208152600061294d6020830184615950565b634e487b7160e01b600052601260045260246000fd5b600082615a4757615a47615a22565b500690565b6001600160a01b0383168152604060208201819052600090614bfa90830184615950565b600060208284031215615a8257600080fd5b5051919050565b6001600160a01b03841681526101608101615ab1602083018580358252602090810135910152565b615acb606083016040860180358252602090810135910152565b60406080850160a084013760e0820160008152604060c0860182375060006101208301908152835190526020909201516101409091015292915050565b60018060a01b0383168152604060208201526000825160606040840152615b3260a0840182615950565b90506020840151606084015260408401516080840152809150509392505050565b81835281816020850137506000828201602090810191909152601f909101601f19169091010190565b6001600160a01b03841681526040602082018190526000906159c49083018486615b53565b60018060a01b0385168152836020820152606060408201526000611805606083018486615b53565b600082601f830112615bda57600080fd5b81516020615bea614f6383614e9a565b82815260059290921b84018101918181019086841115615c0957600080fd5b8286015b84811015615401578051615c208161535b565b8352918301918301615c0d565b60008060408385031215615c4057600080fd5b82516001600160401b0380821115615c5757600080fd5b615c6386838701615bc9565b93506020850151915080821115615c7957600080fd5b50615c8685828601615bc9565b9150509250929050565b8381526040602082015260006159c4604083018486615b53565b60006020808385031215615cbd57600080fd5b82516001600160401b03811115615cd357600080fd5b8301601f81018513615ce457600080fd5b8051615cf2614f6382614e9a565b81815260059190911b82018301908381019087831115615d1157600080fd5b928401925b82841015615d38578351615d2981614a81565b82529284019290840190615d16565b979650505050505050565b600060208284031215615d5557600080fd5b815161294d8161535b565b600060ff821660ff84168060ff03821115615d7d57615d7d6156ee565b019392505050565b60006060820160ff8616835260206001600160601b03808716828601526040606081870152838751808652608088019150848901955060005b81811015615dee57865180516001600160a01b031684528601518516868401529585019591830191600101615dbe565b50909a9950505050505050505050565b600061ffff80831681811415615e1657615e166156ee565b6001019392505050565b600060208284031215615e3257600080fd5b81516001600160e01b03198116811461294d57600080fd5b60006001600160601b0380831681851681830481118215151615615e7057615e706156ee565b02949350505050565b60006001600160601b0380841680615e9357615e93615a22565b9216919091049291505056fe30644e72e131a029b85045b68181585d97816a916871ca8d3c208c16d87cfd47526567436f6f72642e7570646174654f70657261746f7273466f7251756f7275a2646970667358221220033c9092a37cbd844a6a2a31cfc6771442615e50eb0976168b7eae292a754c7964736f6c634300080c0033","linkReferences":{}},"methodIdentifiers":{"OPERATOR_CHURN_APPROVAL_TYPEHASH()":"ca0de882","PUBKEY_REGISTRATION_TYPEHASH()":"9feab859","blsApkRegistry()":"5df45946","calculateOperatorChurnApprovalDigestHash(address,bytes32,(uint8,address)[],bytes32,uint256)":"84ca5213","churnApprover()":"054310e6","createQuorum((uint32,uint16,uint16),uint96,(address,uint96)[])":"d75b4c88","deregisterOperator(bytes)":"ca4f2d97","ejectOperator(address,bytes)":"6e3b17db","ejectionCooldown()":"a96f783e","ejector()":"28f61b31","getCurrentQuorumBitmap(bytes32)":"871ef049","getOperator(address)":"5865c60c","getOperatorFromId(bytes32)":"296bb064","getOperatorId(address)":"13542a4e","getOperatorSetParams(uint8)":"e65797ad","getOperatorStatus(address)":"fd39105a","getQuorumBitmapAtBlockNumberByIndex(bytes32,uint32,uint256)":"04ec6351","getQuorumBitmapHistoryLength(bytes32)":"03fd3492","getQuorumBitmapIndicesAtBlockNumber(uint32,bytes32[])":"c391425e","getQuorumBitmapUpdateByIndex(bytes32,uint256)":"1eb812da","indexRegistry()":"9e9923c2","initialize(address,address,address,address,uint256,(uint32,uint16,uint16)[],uint96[],(address,uint96)[][])":"dd8283f3","isChurnApproverSaltUsed(bytes32)":"1478851f","lastEjectionTimestamp(address)":"125e0584","numRegistries()":"d72d8dd6","owner()":"8da5cb5b","pause(uint256)":"136439dd","pauseAll()":"595c6a67","paused()":"5c975abb","paused(uint8)":"5ac86ab7","pauserRegistry()":"886f1195","pubkeyRegistrationMessageHash(address)":"3c2a7f4c","quorumCount()":"9aa1653d","quorumUpdateBlockNumber(uint8)":"249a0c42","registerOperator(bytes,string,((uint256,uint256),(uint256,uint256),(uint256[2],uint256[2])),(bytes,bytes32,uint256))":"a50857bf","registerOperatorWithChurn(bytes,string,((uint256,uint256),(uint256,uint256),(uint256[2],uint256[2])),(uint8,address)[],(bytes,bytes32,uint256),(bytes,bytes32,uint256))":"9b5d177b","registries(uint256)":"6347c900","renounceOwnership()":"715018a6","serviceManager()":"3998fdd3","setChurnApprover(address)":"29d1e0c3","setEjectionCooldown(uint256)":"0d3f2134","setEjector(address)":"2cdd1e86","setOperatorSetParams(uint8,(uint32,uint16,uint16))":"5b0b829f","setPauserRegistry(address)":"10d67a2f","socketRegistry()":"ea32afae","stakeRegistry()":"68304835","transferOwnership(address)":"f2fde38b","unpause(uint256)":"fabc1cbc","updateOperators(address[])":"00cf2ab5","updateOperatorsForQuorum(address[][],bytes)":"5140a548","updateSocket(string)":"0cf4b767"},"id":107}