{"abi":[{"type":"constructor","inputs":[{"name":"_registryCoordinator","type":"address","internalType":"contract IRegistryCoordinator"},{"name":"_stakeRegistry","type":"address","internalType":"contract IStakeRegistry"}],"stateMutability":"nonpayable"},{"type":"function","name":"amountEjectableForQuorum","inputs":[{"name":"_quorumNumber","type":"uint8","internalType":"uint8"}],"outputs":[{"name":"","type":"uint256","internalType":"uint256"}],"stateMutability":"view"},{"type":"function","name":"ejectOperators","inputs":[{"name":"_operatorIds","type":"bytes32[][]","internalType":"bytes32[][]"}],"outputs":[],"stateMutability":"nonpayable"},{"type":"function","name":"initialize","inputs":[{"name":"_owner","type":"address","internalType":"address"},{"name":"_ejectors","type":"address[]","internalType":"address[]"},{"name":"_quorumEjectionParams","type":"tuple[]","internalType":"struct IEjectionManager.QuorumEjectionParams[]","components":[{"name":"rateLimitWindow","type":"uint32","internalType":"uint32"},{"name":"ejectableStakePercent","type":"uint16","internalType":"uint16"}]}],"outputs":[],"stateMutability":"nonpayable"},{"type":"function","name":"isEjector","inputs":[{"name":"","type":"address","internalType":"address"}],"outputs":[{"name":"","type":"bool","internalType":"bool"}],"stateMutability":"view"},{"type":"function","name":"owner","inputs":[],"outputs":[{"name":"","type":"address","internalType":"address"}],"stateMutability":"view"},{"type":"function","name":"quorumEjectionParams","inputs":[{"name":"","type":"uint8","internalType":"uint8"}],"outputs":[{"name":"rateLimitWindow","type":"uint32","internalType":"uint32"},{"name":"ejectableStakePercent","type":"uint16","internalType":"uint16"}],"stateMutability":"view"},{"type":"function","name":"registryCoordinator","inputs":[],"outputs":[{"name":"","type":"address","internalType":"contract IRegistryCoordinator"}],"stateMutability":"view"},{"type":"function","name":"renounceOwnership","inputs":[],"outputs":[],"stateMutability":"nonpayable"},{"type":"function","name":"setEjector","inputs":[{"name":"_ejector","type":"address","internalType":"address"},{"name":"_status","type":"bool","internalType":"bool"}],"outputs":[],"stateMutability":"nonpayable"},{"type":"function","name":"setQuorumEjectionParams","inputs":[{"name":"_quorumNumber","type":"uint8","internalType":"uint8"},{"name":"_quorumEjectionParams","type":"tuple","internalType":"struct IEjectionManager.QuorumEjectionParams","components":[{"name":"rateLimitWindow","type":"uint32","internalType":"uint32"},{"name":"ejectableStakePercent","type":"uint16","internalType":"uint16"}]}],"outputs":[],"stateMutability":"nonpayable"},{"type":"function","name":"stakeEjectedForQuorum","inputs":[{"name":"","type":"uint8","internalType":"uint8"},{"name":"","type":"uint256","internalType":"uint256"}],"outputs":[{"name":"timestamp","type":"uint256","internalType":"uint256"},{"name":"stakeEjected","type":"uint256","internalType":"uint256"}],"stateMutability":"view"},{"type":"function","name":"stakeRegistry","inputs":[],"outputs":[{"name":"","type":"address","internalType":"contract IStakeRegistry"}],"stateMutability":"view"},{"type":"function","name":"transferOwnership","inputs":[{"name":"newOwner","type":"address","internalType":"address"}],"outputs":[],"stateMutability":"nonpayable"},{"type":"event","name":"EjectorUpdated","inputs":[{"name":"ejector","type":"address","indexed":false,"internalType":"address"},{"name":"status","type":"bool","indexed":false,"internalType":"bool"}],"anonymous":false},{"type":"event","name":"Initialized","inputs":[{"name":"version","type":"uint8","indexed":false,"internalType":"uint8"}],"anonymous":false},{"type":"event","name":"OperatorEjected","inputs":[{"name":"operatorId","type":"bytes32","indexed":false,"internalType":"bytes32"},{"name":"quorumNumber","type":"uint8","indexed":false,"internalType":"uint8"}],"anonymous":false},{"type":"event","name":"OwnershipTransferred","inputs":[{"name":"previousOwner","type":"address","indexed":true,"internalType":"address"},{"name":"newOwner","type":"address","indexed":true,"internalType":"address"}],"anonymous":false},{"type":"event","name":"QuorumEjection","inputs":[{"name":"ejectedOperators","type":"uint32","indexed":false,"internalType":"uint32"},{"name":"ratelimitHit","type":"bool","indexed":false,"internalType":"bool"}],"anonymous":false},{"type":"event","name":"QuorumEjectionParamsSet","inputs":[{"name":"quorumNumber","type":"uint8","indexed":false,"internalType":"uint8"},{"name":"rateLimitWindow","type":"uint32","indexed":false,"internalType":"uint32"},{"name":"ejectableStakePercent","type":"uint16","indexed":false,"internalType":"uint16"}],"anonymous":false}],"bytecode":{"object":"0x60c06040523480156200001157600080fd5b506040516200177538038062001775833981016040819052620000349162000134565b6001600160a01b03808316608052811660a0526200005162000059565b505062000173565b600054610100900460ff1615620000c65760405162461bcd60e51b815260206004820152602760248201527f496e697469616c697a61626c653a20636f6e747261637420697320696e697469604482015266616c697a696e6760c81b606482015260840160405180910390fd5b60005460ff908116101562000119576000805460ff191660ff9081179091556040519081527f7f26b83ff96e1f2b6a682f133852f6798a09c465da95921460cefb38474024989060200160405180910390a15b565b6001600160a01b03811681146200013157600080fd5b50565b600080604083850312156200014857600080fd5b825162000155816200011b565b602084015190925062000168816200011b565b809150509250929050565b60805160a0516115b2620001c360003960008181610180015281816103610152610bc90152600081816101f2015281816104a9015281816104d8015281816106ab01526106da01526115b26000f3fe608060405234801561001057600080fd5b50600436106100ce5760003560e01c80636d14a9871161008c5780638b88a024116100665780638b88a0241461022f5780638da5cb5b14610242578063b13f450414610253578063f2fde38b1461027457600080fd5b80636d14a987146101ed578063715018a61461021457806377d175861461021c57600080fd5b8062482569146100d35780630a0593d11461012b57806310ea4f8a146101405780633a0b0ddd14610153578063683048351461017b5780636c08a879146101ba575b600080fd5b6101076100e1366004610fa0565b60676020526000908152604090205463ffffffff811690640100000000900461ffff1682565b6040805163ffffffff909316835261ffff9091166020830152015b60405180910390f35b61013e61013936600461102d565b610287565b005b61013e61014e36600461114e565b610968565b61016661016136600461118c565b61097a565b60408051928352602083019190915201610122565b6101a27f000000000000000000000000000000000000000000000000000000000000000081565b6040516001600160a01b039091168152602001610122565b6101dd6101c83660046111b6565b60656020526000908152604090205460ff1681565b6040519015158152602001610122565b6101a27f000000000000000000000000000000000000000000000000000000000000000081565b61013e6109b6565b61013e61022a366004611246565b6109ca565b61013e61023d3660046112e9565b6109dc565b6033546001600160a01b03166101a2565b610266610261366004610fa0565b610b82565b604051908152602001610122565b61013e6102823660046111b6565b610d84565b3360009081526065602052604090205460ff16806102af57506033546001600160a01b031633145b6103115760405162461bcd60e51b815260206004820152602860248201527f456a6563746f723a204f6e6c79206f776e6572206f7220656a6563746f722063604482015267185b88195a9958dd60c21b60648201526084015b60405180910390fd5b60005b81518110156109645780600061032982610b82565b90506000808083156108a15760005b87878151811061034a5761034a6113bf565b6020026020010151518160ff16101561089f5760007f00000000000000000000000000000000000000000000000000000000000000006001600160a01b0316635401ed278a8a815181106103a0576103a06113bf565b60200260200101518460ff16815181106103bc576103bc6113bf565b6020026020010151896040518363ffffffff1660e01b81526004016103ee92919091825260ff16602082015260400190565b602060405180830381865afa15801561040b573d6000803e3d6000fd5b505050506040513d601f19601f8201168201806040525081019061042f91906113d5565b336000908152606560205260409020546001600160601b0391909116915060ff168015610473575060ff871660009081526067602052604090205463ffffffff1615155b80156104875750856104858287611414565b115b15610692576001925061049a8186611414565b94506104a58461142c565b93507f00000000000000000000000000000000000000000000000000000000000000006001600160a01b0316636e3b17db7f00000000000000000000000000000000000000000000000000000000000000006001600160a01b031663296bb0648c8c81518110610517576105176113bf565b60200260200101518660ff1681518110610533576105336113bf565b60200260200101516040518263ffffffff1660e01b815260040161055991815260200190565b602060405180830381865afa158015610576573d6000803e3d6000fd5b505050506040513d601f19601f8201168201806040525081019061059a9190611450565b6040516001600160f81b031960f88c901b1660208201526021016040516020818303038152906040526040518363ffffffff1660e01b81526004016105e092919061146d565b600060405180830381600087803b1580156105fa57600080fd5b505af115801561060e573d6000803e3d6000fd5b505050507f97ddb711c61a9d2d7effcba3e042a33862297f898d555655cca39ec4451f53b4898981518110610645576106456113bf565b60200260200101518360ff1681518110610661576106616113bf565b60200260200101518860405161068492919091825260ff16602082015260400190565b60405180910390a15061089f565b61069c8186611414565b94506106a78461142c565b93507f00000000000000000000000000000000000000000000000000000000000000006001600160a01b0316636e3b17db7f00000000000000000000000000000000000000000000000000000000000000006001600160a01b031663296bb0648c8c81518110610719576107196113bf565b60200260200101518660ff1681518110610735576107356113bf565b60200260200101516040518263ffffffff1660e01b815260040161075b91815260200190565b602060405180830381865afa158015610778573d6000803e3d6000fd5b505050506040513d601f19601f8201168201806040525081019061079c9190611450565b6040516001600160f81b031960f88c901b1660208201526021016040516020818303038152906040526040518363ffffffff1660e01b81526004016107e292919061146d565b600060405180830381600087803b1580156107fc57600080fd5b505af1158015610810573d6000803e3d6000fd5b505050507f97ddb711c61a9d2d7effcba3e042a33862297f898d555655cca39ec4451f53b4898981518110610847576108476113bf565b60200260200101518360ff1681518110610863576108636113bf565b60200260200101518860405161088692919091825260ff16602082015260400190565b60405180910390a150610898816114d2565b9050610338565b505b3360009081526065602052604090205460ff1680156108c05750600083115b1561090e5760ff851660009081526066602090815260408083208151808301909252428252818301878152815460018181018455928652939094209151600290930290910191825591519101555b6040805163ffffffff8416815282151560208201527f19dd87ae49ed14a795f8c2d5e8055bf2a4a9d01641a00a2f8f0a5a7bf7f70249910160405180910390a150505050508061095d906114f2565b9050610314565b5050565b610970610dfd565b6109648282610e57565b6066602052816000526040600020818154811061099657600080fd5b600091825260209091206002909102018054600190910154909250905082565b6109be610dfd565b6109c86000610ebb565b565b6109d2610dfd565b6109648282610f0d565b600054610100900460ff16158080156109fc5750600054600160ff909116105b80610a165750303b158015610a16575060005460ff166001145b610a795760405162461bcd60e51b815260206004820152602e60248201527f496e697469616c697a61626c653a20636f6e747261637420697320616c72656160448201526d191e481a5b9a5d1a585b1a5e995960921b6064820152608401610308565b6000805460ff191660011790558015610a9c576000805461ff0019166101001790555b610aa584610ebb565b60005b83518160ff161015610aed57610adb848260ff1681518110610acc57610acc6113bf565b60200260200101516001610e57565b80610ae5816114d2565b915050610aa8565b5060005b82518160ff161015610b3557610b2381848360ff1681518110610b1657610b166113bf565b6020026020010151610f0d565b80610b2d816114d2565b915050610af1565b508015610b7c576000805461ff0019169055604051600181527f7f26b83ff96e1f2b6a682f133852f6798a09c465da95921460cefb38474024989060200160405180910390a15b50505050565b60ff81166000908152606760205260408120548190610ba79063ffffffff164261150d565b60405163d5eccc0560e01b815260ff85166004820152909150600090612710907f00000000000000000000000000000000000000000000000000000000000000006001600160a01b03169063d5eccc0590602401602060405180830381865afa158015610c18573d6000803e3d6000fd5b505050506040513d601f19601f82011682018060405250810190610c3c91906113d5565b60ff8616600090815260676020526040902054610c6e916001600160601b031690640100000000900461ffff16611524565b610c789190611543565b60ff8516600090815260666020526040812054919250908190610c9f575090949350505050565b60ff8616600090815260666020526040902054610cbe9060019061150d565b90505b60ff86166000908152606660205260409020805485919083908110610ce857610ce86113bf565b9060005260206000209060020201600001541115610d5d5760ff86166000908152606660205260409020805482908110610d2457610d246113bf565b90600052602060002090600202016001015482610d419190611414565b915080610d4d57610d5d565b610d5681611565565b9050610cc1565b828210610d705750600095945050505050565b610d7a828461150d565b9695505050505050565b610d8c610dfd565b6001600160a01b038116610df15760405162461bcd60e51b815260206004820152602660248201527f4f776e61626c653a206e6577206f776e657220697320746865207a65726f206160448201526564647265737360d01b6064820152608401610308565b610dfa81610ebb565b50565b6033546001600160a01b031633146109c85760405162461bcd60e51b815260206004820181905260248201527f4f776e61626c653a2063616c6c6572206973206e6f7420746865206f776e65726044820152606401610308565b6001600160a01b038216600081815260656020908152604091829020805460ff19168515159081179091558251938452908301527f7676686b6d22e112412bd874d70177e011ab06602c26063f19f0386c9a3cee4291015b60405180910390a15050565b603380546001600160a01b038381166001600160a01b0319831681179093556040519116919082907f8be0079c531659141344cd1fd0a4f28419497f9722a3daafe3b4186f6b6457e090600090a35050565b60ff8216600081815260676020908152604091829020845181548684015163ffffffff90921665ffffffffffff19909116811764010000000061ffff90931692830217909255835194855291840152908201527fe69c2827a1e2fdd32265ebb4eeea5ee564f0551cf5dfed4150f8e116a67209eb90606001610eaf565b803560ff81168114610f9b57600080fd5b919050565b600060208284031215610fb257600080fd5b610fbb82610f8a565b9392505050565b634e487b7160e01b600052604160045260246000fd5b604051601f8201601f1916810167ffffffffffffffff8111828210171561100157611001610fc2565b604052919050565b600067ffffffffffffffff82111561102357611023610fc2565b5060051b60200190565b6000602080838503121561104057600080fd5b823567ffffffffffffffff8082111561105857600080fd5b818501915085601f83011261106c57600080fd5b813561107f61107a82611009565b610fd8565b818152600591821b840185019185820191908984111561109e57600080fd5b8686015b8481101561112a578035868111156110ba5760008081fd5b8701603f81018c136110cc5760008081fd5b8881013560406110de61107a83611009565b82815291851b83018101918b8101908f8411156110fb5760008081fd5b938201935b838510156111195784358252938c0193908c0190611100565b8852505050938801935087016110a2565b50909998505050505050505050565b6001600160a01b0381168114610dfa57600080fd5b6000806040838503121561116157600080fd5b823561116c81611139565b91506020830135801515811461118157600080fd5b809150509250929050565b6000806040838503121561119f57600080fd5b6111a883610f8a565b946020939093013593505050565b6000602082840312156111c857600080fd5b8135610fbb81611139565b6000604082840312156111e557600080fd5b6040516040810181811067ffffffffffffffff8211171561120857611208610fc2565b604052905080823563ffffffff8116811461122257600080fd5b8152602083013561ffff8116811461123957600080fd5b6020919091015292915050565b6000806060838503121561125957600080fd5b61126283610f8a565b915061127184602085016111d3565b90509250929050565b600082601f83011261128b57600080fd5b8135602061129b61107a83611009565b82815260069290921b840181019181810190868411156112ba57600080fd5b8286015b848110156112de576112d088826111d3565b8352918301916040016112be565b509695505050505050565b6000806000606084860312156112fe57600080fd5b833561130981611139565b925060208481013567ffffffffffffffff8082111561132757600080fd5b818701915087601f83011261133b57600080fd5b813561134961107a82611009565b81815260059190911b8301840190848101908a83111561136857600080fd5b938501935b8285101561138f57843561138081611139565b8252938501939085019061136d565b9650505060408701359250808311156113a757600080fd5b50506113b58682870161127a565b9150509250925092565b634e487b7160e01b600052603260045260246000fd5b6000602082840312156113e757600080fd5b81516001600160601b0381168114610fbb57600080fd5b634e487b7160e01b600052601160045260246000fd5b60008219821115611427576114276113fe565b500190565b600063ffffffff80831681811415611446576114466113fe565b6001019392505050565b60006020828403121561146257600080fd5b8151610fbb81611139565b60018060a01b038316815260006020604081840152835180604085015260005b818110156114a95785810183015185820160600152820161148d565b818111156114bb576000606083870101525b50601f01601f191692909201606001949350505050565b600060ff821660ff8114156114e9576114e96113fe565b60010192915050565b6000600019821415611506576115066113fe565b5060010190565b60008282101561151f5761151f6113fe565b500390565b600081600019048311821515161561153e5761153e6113fe565b500290565b60008261156057634e487b7160e01b600052601260045260246000fd5b500490565b600081611574576115746113fe565b50600019019056fea26469706673582212202072d56af7d3aad8d44d802ab5c00b81171bd4c52fb3904122cbafd48f784f5c64736f6c634300080c0033","linkReferences":{}},"methodIdentifiers":{"amountEjectableForQuorum(uint8)":"b13f4504","ejectOperators(bytes32[][])":"0a0593d1","initialize(address,address[],(uint32,uint16)[])":"8b88a024","isEjector(address)":"6c08a879","owner()":"8da5cb5b","quorumEjectionParams(uint8)":"00482569","registryCoordinator()":"6d14a987","renounceOwnership()":"715018a6","setEjector(address,bool)":"10ea4f8a","setQuorumEjectionParams(uint8,(uint32,uint16))":"77d17586","stakeEjectedForQuorum(uint8,uint256)":"3a0b0ddd","stakeRegistry()":"68304835","transferOwnership(address)":"f2fde38b"},"id":103}