{"abi":[{"type":"constructor","inputs":[{"name":"_delegationManager","type":"address","internalType":"contract IDelegationManager"},{"name":"_strategyManager","type":"address","internalType":"contract IStrategyManager"},{"name":"_CALCULATION_INTERVAL_SECONDS","type":"uint32","internalType":"uint32"},{"name":"_MAX_REWARDS_DURATION","type":"uint32","internalType":"uint32"},{"name":"_MAX_RETROACTIVE_LENGTH","type":"uint32","internalType":"uint32"},{"name":"_MAX_FUTURE_LENGTH","type":"uint32","internalType":"uint32"},{"name":"__GENESIS_REWARDS_TIMESTAMP","type":"uint32","internalType":"uint32"}],"stateMutability":"nonpayable"},{"type":"function","name":"CALCULATION_INTERVAL_SECONDS","inputs":[],"outputs":[{"name":"","type":"uint32","internalType":"uint32"}],"stateMutability":"view"},{"type":"function","name":"GENESIS_REWARDS_TIMESTAMP","inputs":[],"outputs":[{"name":"","type":"uint32","internalType":"uint32"}],"stateMutability":"view"},{"type":"function","name":"MAX_FUTURE_LENGTH","inputs":[],"outputs":[{"name":"","type":"uint32","internalType":"uint32"}],"stateMutability":"view"},{"type":"function","name":"MAX_RETROACTIVE_LENGTH","inputs":[],"outputs":[{"name":"","type":"uint32","internalType":"uint32"}],"stateMutability":"view"},{"type":"function","name":"MAX_REWARDS_DURATION","inputs":[],"outputs":[{"name":"","type":"uint32","internalType":"uint32"}],"stateMutability":"view"},{"type":"function","name":"activationDelay","inputs":[],"outputs":[{"name":"","type":"uint32","internalType":"uint32"}],"stateMutability":"view"},{"type":"function","name":"beaconChainETHStrategy","inputs":[],"outputs":[{"name":"","type":"address","internalType":"contract IStrategy"}],"stateMutability":"view"},{"type":"function","name":"calculateEarnerLeafHash","inputs":[{"name":"leaf","type":"tuple","internalType":"struct IRewardsCoordinator.EarnerTreeMerkleLeaf","components":[{"name":"earner","type":"address","internalType":"address"},{"name":"earnerTokenRoot","type":"bytes32","internalType":"bytes32"}]}],"outputs":[{"name":"","type":"bytes32","internalType":"bytes32"}],"stateMutability":"pure"},{"type":"function","name":"calculateTokenLeafHash","inputs":[{"name":"leaf","type":"tuple","internalType":"struct IRewardsCoordinator.TokenTreeMerkleLeaf","components":[{"name":"token","type":"address","internalType":"contract IERC20"},{"name":"cumulativeEarnings","type":"uint256","internalType":"uint256"}]}],"outputs":[{"name":"","type":"bytes32","internalType":"bytes32"}],"stateMutability":"pure"},{"type":"function","name":"checkClaim","inputs":[{"name":"claim","type":"tuple","internalType":"struct IRewardsCoordinator.RewardsMerkleClaim","components":[{"name":"rootIndex","type":"uint32","internalType":"uint32"},{"name":"earnerIndex","type":"uint32","internalType":"uint32"},{"name":"earnerTreeProof","type":"bytes","internalType":"bytes"},{"name":"earnerLeaf","type":"tuple","internalType":"struct IRewardsCoordinator.EarnerTreeMerkleLeaf","components":[{"name":"earner","type":"address","internalType":"address"},{"name":"earnerTokenRoot","type":"bytes32","internalType":"bytes32"}]},{"name":"tokenIndices","type":"uint32[]","internalType":"uint32[]"},{"name":"tokenTreeProofs","type":"bytes[]","internalType":"bytes[]"},{"name":"tokenLeaves","type":"tuple[]","internalType":"struct IRewardsCoordinator.TokenTreeMerkleLeaf[]","components":[{"name":"token","type":"address","internalType":"contract IERC20"},{"name":"cumulativeEarnings","type":"uint256","internalType":"uint256"}]}]}],"outputs":[{"name":"","type":"bool","internalType":"bool"}],"stateMutability":"view"},{"type":"function","name":"claimerFor","inputs":[{"name":"","type":"address","internalType":"address"}],"outputs":[{"name":"","type":"address","internalType":"address"}],"stateMutability":"view"},{"type":"function","name":"createAVSRewardsSubmission","inputs":[{"name":"rewardsSubmissions","type":"tuple[]","internalType":"struct IRewardsCoordinator.RewardsSubmission[]","components":[{"name":"strategiesAndMultipliers","type":"tuple[]","internalType":"struct IRewardsCoordinator.StrategyAndMultiplier[]","components":[{"name":"strategy","type":"address","internalType":"contract IStrategy"},{"name":"multiplier","type":"uint96","internalType":"uint96"}]},{"name":"token","type":"address","internalType":"contract IERC20"},{"name":"amount","type":"uint256","internalType":"uint256"},{"name":"startTimestamp","type":"uint32","internalType":"uint32"},{"name":"duration","type":"uint32","internalType":"uint32"}]}],"outputs":[],"stateMutability":"nonpayable"},{"type":"function","name":"createOperatorDirectedAVSRewardsSubmission","inputs":[{"name":"avs","type":"address","internalType":"address"},{"name":"operatorDirectedRewardsSubmissions","type":"tuple[]","internalType":"struct IRewardsCoordinator.OperatorDirectedRewardsSubmission[]","components":[{"name":"strategiesAndMultipliers","type":"tuple[]","internalType":"struct IRewardsCoordinator.StrategyAndMultiplier[]","components":[{"name":"strategy","type":"address","internalType":"contract IStrategy"},{"name":"multiplier","type":"uint96","internalType":"uint96"}]},{"name":"token","type":"address","internalType":"contract IERC20"},{"name":"operatorRewards","type":"tuple[]","internalType":"struct IRewardsCoordinator.OperatorReward[]","components":[{"name":"operator","type":"address","internalType":"address"},{"name":"amount","type":"uint256","internalType":"uint256"}]},{"name":"startTimestamp","type":"uint32","internalType":"uint32"},{"name":"duration","type":"uint32","internalType":"uint32"},{"name":"description","type":"string","internalType":"string"}]}],"outputs":[],"stateMutability":"nonpayable"},{"type":"function","name":"createRewardsForAllEarners","inputs":[{"name":"rewardsSubmissions","type":"tuple[]","internalType":"struct IRewardsCoordinator.RewardsSubmission[]","components":[{"name":"strategiesAndMultipliers","type":"tuple[]","internalType":"struct IRewardsCoordinator.StrategyAndMultiplier[]","components":[{"name":"strategy","type":"address","internalType":"contract IStrategy"},{"name":"multiplier","type":"uint96","internalType":"uint96"}]},{"name":"token","type":"address","internalType":"contract IERC20"},{"name":"amount","type":"uint256","internalType":"uint256"},{"name":"startTimestamp","type":"uint32","internalType":"uint32"},{"name":"duration","type":"uint32","internalType":"uint32"}]}],"outputs":[],"stateMutability":"nonpayable"},{"type":"function","name":"createRewardsForAllSubmission","inputs":[{"name":"rewardsSubmissions","type":"tuple[]","internalType":"struct IRewardsCoordinator.RewardsSubmission[]","components":[{"name":"strategiesAndMultipliers","type":"tuple[]","internalType":"struct IRewardsCoordinator.StrategyAndMultiplier[]","components":[{"name":"strategy","type":"address","internalType":"contract IStrategy"},{"name":"multiplier","type":"uint96","internalType":"uint96"}]},{"name":"token","type":"address","internalType":"contract IERC20"},{"name":"amount","type":"uint256","internalType":"uint256"},{"name":"startTimestamp","type":"uint32","internalType":"uint32"},{"name":"duration","type":"uint32","internalType":"uint32"}]}],"outputs":[],"stateMutability":"nonpayable"},{"type":"function","name":"cumulativeClaimed","inputs":[{"name":"","type":"address","internalType":"address"},{"name":"","type":"address","internalType":"contract IERC20"}],"outputs":[{"name":"","type":"uint256","internalType":"uint256"}],"stateMutability":"view"},{"type":"function","name":"currRewardsCalculationEndTimestamp","inputs":[],"outputs":[{"name":"","type":"uint32","internalType":"uint32"}],"stateMutability":"view"},{"type":"function","name":"defaultOperatorSplitBips","inputs":[],"outputs":[{"name":"","type":"uint16","internalType":"uint16"}],"stateMutability":"view"},{"type":"function","name":"delegationManager","inputs":[],"outputs":[{"name":"","type":"address","internalType":"contract IDelegationManager"}],"stateMutability":"view"},{"type":"function","name":"disableRoot","inputs":[{"name":"rootIndex","type":"uint32","internalType":"uint32"}],"outputs":[],"stateMutability":"nonpayable"},{"type":"function","name":"domainSeparator","inputs":[],"outputs":[{"name":"","type":"bytes32","internalType":"bytes32"}],"stateMutability":"view"},{"type":"function","name":"getCurrentClaimableDistributionRoot","inputs":[],"outputs":[{"name":"","type":"tuple","internalType":"struct IRewardsCoordinator.DistributionRoot","components":[{"name":"root","type":"bytes32","internalType":"bytes32"},{"name":"rewardsCalculationEndTimestamp","type":"uint32","internalType":"uint32"},{"name":"activatedAt","type":"uint32","internalType":"uint32"},{"name":"disabled","type":"bool","internalType":"bool"}]}],"stateMutability":"view"},{"type":"function","name":"getCurrentDistributionRoot","inputs":[],"outputs":[{"name":"","type":"tuple","internalType":"struct IRewardsCoordinator.DistributionRoot","components":[{"name":"root","type":"bytes32","internalType":"bytes32"},{"name":"rewardsCalculationEndTimestamp","type":"uint32","internalType":"uint32"},{"name":"activatedAt","type":"uint32","internalType":"uint32"},{"name":"disabled","type":"bool","internalType":"bool"}]}],"stateMutability":"view"},{"type":"function","name":"getDistributionRootAtIndex","inputs":[{"name":"index","type":"uint256","internalType":"uint256"}],"outputs":[{"name":"","type":"tuple","internalType":"struct IRewardsCoordinator.DistributionRoot","components":[{"name":"root","type":"bytes32","internalType":"bytes32"},{"name":"rewardsCalculationEndTimestamp","type":"uint32","internalType":"uint32"},{"name":"activatedAt","type":"uint32","internalType":"uint32"},{"name":"disabled","type":"bool","internalType":"bool"}]}],"stateMutability":"view"},{"type":"function","name":"getDistributionRootsLength","inputs":[],"outputs":[{"name":"","type":"uint256","internalType":"uint256"}],"stateMutability":"view"},{"type":"function","name":"getOperatorAVSSplit","inputs":[{"name":"operator","type":"address","internalType":"address"},{"name":"avs","type":"address","internalType":"address"}],"outputs":[{"name":"","type":"uint16","internalType":"uint16"}],"stateMutability":"view"},{"type":"function","name":"getOperatorPISplit","inputs":[{"name":"operator","type":"address","internalType":"address"}],"outputs":[{"name":"","type":"uint16","internalType":"uint16"}],"stateMutability":"view"},{"type":"function","name":"getRootIndexFromHash","inputs":[{"name":"rootHash","type":"bytes32","internalType":"bytes32"}],"outputs":[{"name":"","type":"uint32","internalType":"uint32"}],"stateMutability":"view"},{"type":"function","name":"initialize","inputs":[{"name":"initialOwner","type":"address","internalType":"address"},{"name":"_pauserRegistry","type":"address","internalType":"contract IPauserRegistry"},{"name":"initialPausedStatus","type":"uint256","internalType":"uint256"},{"name":"_rewardsUpdater","type":"address","internalType":"address"},{"name":"_activationDelay","type":"uint32","internalType":"uint32"},{"name":"_defaultSplitBips","type":"uint16","internalType":"uint16"}],"outputs":[],"stateMutability":"nonpayable"},{"type":"function","name":"isAVSRewardsSubmissionHash","inputs":[{"name":"","type":"address","internalType":"address"},{"name":"","type":"bytes32","internalType":"bytes32"}],"outputs":[{"name":"","type":"bool","internalType":"bool"}],"stateMutability":"view"},{"type":"function","name":"isOperatorDirectedAVSRewardsSubmissionHash","inputs":[{"name":"","type":"address","internalType":"address"},{"name":"","type":"bytes32","internalType":"bytes32"}],"outputs":[{"name":"","type":"bool","internalType":"bool"}],"stateMutability":"view"},{"type":"function","name":"isRewardsForAllSubmitter","inputs":[{"name":"","type":"address","internalType":"address"}],"outputs":[{"name":"","type":"bool","internalType":"bool"}],"stateMutability":"view"},{"type":"function","name":"isRewardsSubmissionForAllEarnersHash","inputs":[{"name":"","type":"address","internalType":"address"},{"name":"","type":"bytes32","internalType":"bytes32"}],"outputs":[{"name":"","type":"bool","internalType":"bool"}],"stateMutability":"view"},{"type":"function","name":"isRewardsSubmissionForAllHash","inputs":[{"name":"","type":"address","internalType":"address"},{"name":"","type":"bytes32","internalType":"bytes32"}],"outputs":[{"name":"","type":"bool","internalType":"bool"}],"stateMutability":"view"},{"type":"function","name":"owner","inputs":[],"outputs":[{"name":"","type":"address","internalType":"address"}],"stateMutability":"view"},{"type":"function","name":"pause","inputs":[{"name":"newPausedStatus","type":"uint256","internalType":"uint256"}],"outputs":[],"stateMutability":"nonpayable"},{"type":"function","name":"pauseAll","inputs":[],"outputs":[],"stateMutability":"nonpayable"},{"type":"function","name":"paused","inputs":[{"name":"index","type":"uint8","internalType":"uint8"}],"outputs":[{"name":"","type":"bool","internalType":"bool"}],"stateMutability":"view"},{"type":"function","name":"paused","inputs":[],"outputs":[{"name":"","type":"uint256","internalType":"uint256"}],"stateMutability":"view"},{"type":"function","name":"pauserRegistry","inputs":[],"outputs":[{"name":"","type":"address","internalType":"contract IPauserRegistry"}],"stateMutability":"view"},{"type":"function","name":"processClaim","inputs":[{"name":"claim","type":"tuple","internalType":"struct IRewardsCoordinator.RewardsMerkleClaim","components":[{"name":"rootIndex","type":"uint32","internalType":"uint32"},{"name":"earnerIndex","type":"uint32","internalType":"uint32"},{"name":"earnerTreeProof","type":"bytes","internalType":"bytes"},{"name":"earnerLeaf","type":"tuple","internalType":"struct IRewardsCoordinator.EarnerTreeMerkleLeaf","components":[{"name":"earner","type":"address","internalType":"address"},{"name":"earnerTokenRoot","type":"bytes32","internalType":"bytes32"}]},{"name":"tokenIndices","type":"uint32[]","internalType":"uint32[]"},{"name":"tokenTreeProofs","type":"bytes[]","internalType":"bytes[]"},{"name":"tokenLeaves","type":"tuple[]","internalType":"struct IRewardsCoordinator.TokenTreeMerkleLeaf[]","components":[{"name":"token","type":"address","internalType":"contract IERC20"},{"name":"cumulativeEarnings","type":"uint256","internalType":"uint256"}]}]},{"name":"recipient","type":"address","internalType":"address"}],"outputs":[],"stateMutability":"nonpayable"},{"type":"function","name":"processClaims","inputs":[{"name":"claims","type":"tuple[]","internalType":"struct IRewardsCoordinator.RewardsMerkleClaim[]","components":[{"name":"rootIndex","type":"uint32","internalType":"uint32"},{"name":"earnerIndex","type":"uint32","internalType":"uint32"},{"name":"earnerTreeProof","type":"bytes","internalType":"bytes"},{"name":"earnerLeaf","type":"tuple","internalType":"struct IRewardsCoordinator.EarnerTreeMerkleLeaf","components":[{"name":"earner","type":"address","internalType":"address"},{"name":"earnerTokenRoot","type":"bytes32","internalType":"bytes32"}]},{"name":"tokenIndices","type":"uint32[]","internalType":"uint32[]"},{"name":"tokenTreeProofs","type":"bytes[]","internalType":"bytes[]"},{"name":"tokenLeaves","type":"tuple[]","internalType":"struct IRewardsCoordinator.TokenTreeMerkleLeaf[]","components":[{"name":"token","type":"address","internalType":"contract IERC20"},{"name":"cumulativeEarnings","type":"uint256","internalType":"uint256"}]}]},{"name":"recipient","type":"address","internalType":"address"}],"outputs":[],"stateMutability":"nonpayable"},{"type":"function","name":"renounceOwnership","inputs":[],"outputs":[],"stateMutability":"nonpayable"},{"type":"function","name":"rewardsUpdater","inputs":[],"outputs":[{"name":"","type":"address","internalType":"address"}],"stateMutability":"view"},{"type":"function","name":"setActivationDelay","inputs":[{"name":"_activationDelay","type":"uint32","internalType":"uint32"}],"outputs":[],"stateMutability":"nonpayable"},{"type":"function","name":"setClaimerFor","inputs":[{"name":"claimer","type":"address","internalType":"address"}],"outputs":[],"stateMutability":"nonpayable"},{"type":"function","name":"setDefaultOperatorSplit","inputs":[{"name":"split","type":"uint16","internalType":"uint16"}],"outputs":[],"stateMutability":"nonpayable"},{"type":"function","name":"setOperatorAVSSplit","inputs":[{"name":"operator","type":"address","internalType":"address"},{"name":"avs","type":"address","internalType":"address"},{"name":"split","type":"uint16","internalType":"uint16"}],"outputs":[],"stateMutability":"nonpayable"},{"type":"function","name":"setOperatorPISplit","inputs":[{"name":"operator","type":"address","internalType":"address"},{"name":"split","type":"uint16","internalType":"uint16"}],"outputs":[],"stateMutability":"nonpayable"},{"type":"function","name":"setPauserRegistry","inputs":[{"name":"newPauserRegistry","type":"address","internalType":"contract IPauserRegistry"}],"outputs":[],"stateMutability":"nonpayable"},{"type":"function","name":"setRewardsForAllSubmitter","inputs":[{"name":"_submitter","type":"address","internalType":"address"},{"name":"_newValue","type":"bool","internalType":"bool"}],"outputs":[],"stateMutability":"nonpayable"},{"type":"function","name":"setRewardsUpdater","inputs":[{"name":"_rewardsUpdater","type":"address","internalType":"address"}],"outputs":[],"stateMutability":"nonpayable"},{"type":"function","name":"strategyManager","inputs":[],"outputs":[{"name":"","type":"address","internalType":"contract IStrategyManager"}],"stateMutability":"view"},{"type":"function","name":"submissionNonce","inputs":[{"name":"","type":"address","internalType":"address"}],"outputs":[{"name":"","type":"uint256","internalType":"uint256"}],"stateMutability":"view"},{"type":"function","name":"submitRoot","inputs":[{"name":"root","type":"bytes32","internalType":"bytes32"},{"name":"rewardsCalculationEndTimestamp","type":"uint32","internalType":"uint32"}],"outputs":[],"stateMutability":"nonpayable"},{"type":"function","name":"transferOwnership","inputs":[{"name":"newOwner","type":"address","internalType":"address"}],"outputs":[],"stateMutability":"nonpayable"},{"type":"function","name":"unpause","inputs":[{"name":"newPausedStatus","type":"uint256","internalType":"uint256"}],"outputs":[],"stateMutability":"nonpayable"},{"type":"event","name":"AVSRewardsSubmissionCreated","inputs":[{"name":"avs","type":"address","indexed":true,"internalType":"address"},{"name":"submissionNonce","type":"uint256","indexed":true,"internalType":"uint256"},{"name":"rewardsSubmissionHash","type":"bytes32","indexed":true,"internalType":"bytes32"},{"name":"rewardsSubmission","type":"tuple","indexed":false,"internalType":"struct IRewardsCoordinator.RewardsSubmission","components":[{"name":"strategiesAndMultipliers","type":"tuple[]","internalType":"struct IRewardsCoordinator.StrategyAndMultiplier[]","components":[{"name":"strategy","type":"address","internalType":"contract IStrategy"},{"name":"multiplier","type":"uint96","internalType":"uint96"}]},{"name":"token","type":"address","internalType":"contract IERC20"},{"name":"amount","type":"uint256","internalType":"uint256"},{"name":"startTimestamp","type":"uint32","internalType":"uint32"},{"name":"duration","type":"uint32","internalType":"uint32"}]}],"anonymous":false},{"type":"event","name":"ActivationDelaySet","inputs":[{"name":"oldActivationDelay","type":"uint32","indexed":false,"internalType":"uint32"},{"name":"newActivationDelay","type":"uint32","indexed":false,"internalType":"uint32"}],"anonymous":false},{"type":"event","name":"ClaimerForSet","inputs":[{"name":"earner","type":"address","indexed":true,"internalType":"address"},{"name":"oldClaimer","type":"address","indexed":true,"internalType":"address"},{"name":"claimer","type":"address","indexed":true,"internalType":"address"}],"anonymous":false},{"type":"event","name":"DefaultOperatorSplitBipsSet","inputs":[{"name":"oldDefaultOperatorSplitBips","type":"uint16","indexed":false,"internalType":"uint16"},{"name":"newDefaultOperatorSplitBips","type":"uint16","indexed":false,"internalType":"uint16"}],"anonymous":false},{"type":"event","name":"DistributionRootDisabled","inputs":[{"name":"rootIndex","type":"uint32","indexed":true,"internalType":"uint32"}],"anonymous":false},{"type":"event","name":"DistributionRootSubmitted","inputs":[{"name":"rootIndex","type":"uint32","indexed":true,"internalType":"uint32"},{"name":"root","type":"bytes32","indexed":true,"internalType":"bytes32"},{"name":"rewardsCalculationEndTimestamp","type":"uint32","indexed":true,"internalType":"uint32"},{"name":"activatedAt","type":"uint32","indexed":false,"internalType":"uint32"}],"anonymous":false},{"type":"event","name":"Initialized","inputs":[{"name":"version","type":"uint8","indexed":false,"internalType":"uint8"}],"anonymous":false},{"type":"event","name":"OperatorAVSSplitBipsSet","inputs":[{"name":"caller","type":"address","indexed":true,"internalType":"address"},{"name":"operator","type":"address","indexed":true,"internalType":"address"},{"name":"avs","type":"address","indexed":true,"internalType":"address"},{"name":"activatedAt","type":"uint32","indexed":false,"internalType":"uint32"},{"name":"oldOperatorAVSSplitBips","type":"uint16","indexed":false,"internalType":"uint16"},{"name":"newOperatorAVSSplitBips","type":"uint16","indexed":false,"internalType":"uint16"}],"anonymous":false},{"type":"event","name":"OperatorDirectedAVSRewardsSubmissionCreated","inputs":[{"name":"caller","type":"address","indexed":true,"internalType":"address"},{"name":"avs","type":"address","indexed":true,"internalType":"address"},{"name":"operatorDirectedRewardsSubmissionHash","type":"bytes32","indexed":true,"internalType":"bytes32"},{"name":"submissionNonce","type":"uint256","indexed":false,"internalType":"uint256"},{"name":"operatorDirectedRewardsSubmission","type":"tuple","indexed":false,"internalType":"struct IRewardsCoordinator.OperatorDirectedRewardsSubmission","components":[{"name":"strategiesAndMultipliers","type":"tuple[]","internalType":"struct IRewardsCoordinator.StrategyAndMultiplier[]","components":[{"name":"strategy","type":"address","internalType":"contract IStrategy"},{"name":"multiplier","type":"uint96","internalType":"uint96"}]},{"name":"token","type":"address","internalType":"contract IERC20"},{"name":"operatorRewards","type":"tuple[]","internalType":"struct IRewardsCoordinator.OperatorReward[]","components":[{"name":"operator","type":"address","internalType":"address"},{"name":"amount","type":"uint256","internalType":"uint256"}]},{"name":"startTimestamp","type":"uint32","internalType":"uint32"},{"name":"duration","type":"uint32","internalType":"uint32"},{"name":"description","type":"string","internalType":"string"}]}],"anonymous":false},{"type":"event","name":"OperatorPISplitBipsSet","inputs":[{"name":"caller","type":"address","indexed":true,"internalType":"address"},{"name":"operator","type":"address","indexed":true,"internalType":"address"},{"name":"activatedAt","type":"uint32","indexed":false,"internalType":"uint32"},{"name":"oldOperatorPISplitBips","type":"uint16","indexed":false,"internalType":"uint16"},{"name":"newOperatorPISplitBips","type":"uint16","indexed":false,"internalType":"uint16"}],"anonymous":false},{"type":"event","name":"OwnershipTransferred","inputs":[{"name":"previousOwner","type":"address","indexed":true,"internalType":"address"},{"name":"newOwner","type":"address","indexed":true,"internalType":"address"}],"anonymous":false},{"type":"event","name":"Paused","inputs":[{"name":"account","type":"address","indexed":true,"internalType":"address"},{"name":"newPausedStatus","type":"uint256","indexed":false,"internalType":"uint256"}],"anonymous":false},{"type":"event","name":"PauserRegistrySet","inputs":[{"name":"pauserRegistry","type":"address","indexed":false,"internalType":"contract IPauserRegistry"},{"name":"newPauserRegistry","type":"address","indexed":false,"internalType":"contract IPauserRegistry"}],"anonymous":false},{"type":"event","name":"RewardsClaimed","inputs":[{"name":"root","type":"bytes32","indexed":false,"internalType":"bytes32"},{"name":"earner","type":"address","indexed":true,"internalType":"address"},{"name":"claimer","type":"address","indexed":true,"internalType":"address"},{"name":"recipient","type":"address","indexed":true,"internalType":"address"},{"name":"token","type":"address","indexed":false,"internalType":"contract IERC20"},{"name":"claimedAmount","type":"uint256","indexed":false,"internalType":"uint256"}],"anonymous":false},{"type":"event","name":"RewardsForAllSubmitterSet","inputs":[{"name":"rewardsForAllSubmitter","type":"address","indexed":true,"internalType":"address"},{"name":"oldValue","type":"bool","indexed":true,"internalType":"bool"},{"name":"newValue","type":"bool","indexed":true,"internalType":"bool"}],"anonymous":false},{"type":"event","name":"RewardsSubmissionForAllCreated","inputs":[{"name":"submitter","type":"address","indexed":true,"internalType":"address"},{"name":"submissionNonce","type":"uint256","indexed":true,"internalType":"uint256"},{"name":"rewardsSubmissionHash","type":"bytes32","indexed":true,"internalType":"bytes32"},{"name":"rewardsSubmission","type":"tuple","indexed":false,"internalType":"struct IRewardsCoordinator.RewardsSubmission","components":[{"name":"strategiesAndMultipliers","type":"tuple[]","internalType":"struct IRewardsCoordinator.StrategyAndMultiplier[]","components":[{"name":"strategy","type":"address","internalType":"contract IStrategy"},{"name":"multiplier","type":"uint96","internalType":"uint96"}]},{"name":"token","type":"address","internalType":"contract IERC20"},{"name":"amount","type":"uint256","internalType":"uint256"},{"name":"startTimestamp","type":"uint32","internalType":"uint32"},{"name":"duration","type":"uint32","internalType":"uint32"}]}],"anonymous":false},{"type":"event","name":"RewardsSubmissionForAllEarnersCreated","inputs":[{"name":"tokenHopper","type":"address","indexed":true,"internalType":"address"},{"name":"submissionNonce","type":"uint256","indexed":true,"internalType":"uint256"},{"name":"rewardsSubmissionHash","type":"bytes32","indexed":true,"internalType":"bytes32"},{"name":"rewardsSubmission","type":"tuple","indexed":false,"internalType":"struct IRewardsCoordinator.RewardsSubmission","components":[{"name":"strategiesAndMultipliers","type":"tuple[]","internalType":"struct IRewardsCoordinator.StrategyAndMultiplier[]","components":[{"name":"strategy","type":"address","internalType":"contract IStrategy"},{"name":"multiplier","type":"uint96","internalType":"uint96"}]},{"name":"token","type":"address","internalType":"contract IERC20"},{"name":"amount","type":"uint256","internalType":"uint256"},{"name":"startTimestamp","type":"uint32","internalType":"uint32"},{"name":"duration","type":"uint32","internalType":"uint32"}]}],"anonymous":false},{"type":"event","name":"RewardsUpdaterSet","inputs":[{"name":"oldRewardsUpdater","type":"address","indexed":true,"internalType":"address"},{"name":"newRewardsUpdater","type":"address","indexed":true,"internalType":"address"}],"anonymous":false},{"type":"event","name":"Unpaused","inputs":[{"name":"account","type":"address","indexed":true,"internalType":"address"},{"name":"newPausedStatus","type":"uint256","indexed":false,"internalType":"uint256"}],"anonymous":false}],"bytecode":{"object":"0x6101803461035157601f614e5038819003918201601f19168301916001600160401b038311848410176103555780849260e094604052833981010312610351578051906001600160a01b03821682036103515760208101516001600160a01b03811681036103515761007360408301610369565b61007f60608401610369565b9061008c60808501610369565b926100a560c061009e60a08801610369565b9601610369565b9563ffffffff8316801561033d5763ffffffff81818a1606166102ac576201518063ffffffff91061661021b57610120526101405260805260a05260c05260e052610100525f5460ff8160081c166101c65760ff8082161061018c575b4661016052604051614ad5908161037b82396080518181816112db0152614324015260a05181818161160501526142e9015260c0518181816109a80152614368015260e051818181610419015261317e0152610100518181816105f801526144ad01526101205181611a260152610140518181816109e101526143a601526101605181612d430152f35b60ff90811916175f557f7f26b83ff96e1f2b6a682f133852f6798a09c465da95921460cefb3847402498602060405160ff8152a15f610102565b60405162461bcd60e51b815260206004820152602760248201527f496e697469616c697a61626c653a20636f6e747261637420697320696e697469604482015266616c697a696e6760c81b6064820152608490fd5b60405162461bcd60e51b815260206004820152605760248201527f52657761726473436f6f7264696e61746f723a2043414c43554c4154494f4e5f60448201527f494e54455256414c5f5345434f4e4453206d7573742062652061206d756c746960648201527f706c65206f6620534e415053484f545f434144454e4345000000000000000000608482015260a490fd5b60405162461bcd60e51b815260206004820152606060248201527f52657761726473436f6f7264696e61746f723a2047454e455349535f5245574160448201527f5244535f54494d455354414d50206d7573742062652061206d756c7469706c6560648201527f206f662043414c43554c4154494f4e5f494e54455256414c5f5345434f4e4453608482015260a490fd5b634e487b7160e01b5f52601260045260245ffd5b5f80fd5b634e487b7160e01b5f52604160045260245ffd5b519063ffffffff821682036103515756fe60806040526004361015610011575f80fd5b5f3560e01c806218572c146103a357806304a0c5021461039e5780630e9a53cf146103995780630eb383451461039457806310d67a2f1461038f578063131433b41461038a578063136439dd14610385578063149bc872146103805780632b9f64a41461037b57806336af41fa1461037657806337838ed01461037157806339b70e381461036c5780633a8c0786146103675780633ccc861d146103625780633efe1db61461035d5780634596021c146103585780634b943960146103535780634d18cc351461034e57806358baaa3e14610349578063595c6a67146103445780635ac86ab71461033f5780635c975abb1461033a5780635e9d83481461033557806363f6a798146103305780636d21117e1461032b578063715018a6146103265780637b8f8b0514610321578063863cb9a91461031c578063865c695314610317578063886f1195146103125780638da5cb5b1461030d5780639104c319146103085780639be3d4e4146103035780639cb9a5fa146102fe5780639d45c281146102f9578063a0169ddd146102f4578063a50a1d9c146102ef578063aebd8bae146102ea578063b3dbb0e0146102e5578063bb7e451f146102e0578063bf21a8aa146102db578063c46db606146102d6578063d4540a55146102d1578063dcbb03b3146102cc578063de02e503146102c7578063e063f81f146102c2578063e810ce21146102bd578063ea4d3c9b146102b8578063ed71e6a2146102b3578063f2fde38b146102ae578063f698da25146102a9578063f8cd8448146102a4578063f96abf2e1461029f578063fabc1cbc1461029a578063fbf1e2c114610295578063fce36c7d146102905763ff9f6cce1461028b575f80fd5b611ede565b611de6565b611dbe565b611cb0565b611b72565b611b4e565b611b34565b611aa3565b611a55565b611a11565b6119e5565b611978565b61194d565b61179b565b611677565b611629565b6115e9565b6115ae565b611423565b6113d5565b6113a5565b6112ff565b6112bf565b611153565b611118565b6110ea565b6110c2565b61109a565b61103b565b61100e565b610ff1565b610f96565b610f48565b610f24565b610ec4565b610ea7565b610e74565b610dee565b610dc1565b610d9b565b610d1b565b610c82565b610ad1565b610a45565b610a10565b6109cc565b61098c565b610834565b610793565b610767565b61061c565b6105dc565b610538565b6104a5565b61043d565b6103fd565b6103bd565b6001600160a01b038116036103b957565b5f80fd5b346103b95760203660031901126103b9576004356103da816103a8565b60018060a01b03165f5260d1602052602060ff60405f2054166040519015158152f35b346103b9575f3660031901126103b957602060405163ffffffff7f0000000000000000000000000000000000000000000000000000000000000000168152f35b346103b9575f3660031901126103b95761049761045861215b565b6040519182918291909160608060808301948051845263ffffffff602082015116602085015263ffffffff604082015116604085015201511515910152565b0390f35b801515036103b957565b346103b95760403660031901126103b9576004356104c2816103a8565b602435906104cf8261049b565b6104d7612e91565b60018060a01b0316805f5260d160205260ff60405f205416151582151590827f4de6293e668df1398422e1def12118052c1539a03cbfedc145895d48d7685f1c5f80a45f5260d160205260405f209060ff8019835416911515161790555f80f35b346103b95760203660031901126103b95760048035610556816103a8565b60655460405163755b36bd60e11b81529260209184919082906001600160a01b03165afa9182156105d7576105a6926105a1915f916105a8575b506001600160a01b0316331461220c565b612ee9565b005b6105ca915060203d6020116105d0575b6105c2818361203d565b8101906121e9565b5f610590565b503d6105b8565b612201565b346103b9575f3660031901126103b957602060405163ffffffff7f0000000000000000000000000000000000000000000000000000000000000000168152f35b346103b95760203660031901126103b95760043560655460405163237dfb4760e11b815233600482015290602090829060249082906001600160a01b03165afa80156105d757610673915f91610727575b50612280565b606654818116036106bc57806066557fab40a374bc51de372200a8bc981af8c9ecdc08dfdaef0bb6e09f88f3c616ef3d604051806106b73394829190602083019252565b0390a2005b60405162461bcd60e51b815260206004820152603860248201527f5061757361626c652e70617573653a20696e76616c696420617474656d70742060448201527f746f20756e70617573652066756e6374696f6e616c69747900000000000000006064820152608490fd5b610749915060203d60201161074f575b610741818361203d565b81019061226b565b5f61066d565b503d610737565b60409060031901126103b957600490565b346103b95760403660031901126103b957602061078b61078636610756565b6122e7565b604051908152f35b346103b95760203660031901126103b9576004356107b0816103a8565b60018060a01b03165f5260cc602052602060018060a01b0360405f205416604051908152f35b9181601f840112156103b9578235916001600160401b0383116103b9576020808501948460051b0101116103b957565b60206003198201126103b957600435906001600160401b0382116103b957610830916004016107d6565b9091565b346103b95761084236610806565b9061085a610854600280606654161490565b15612330565b335f5260d160205261087260ff60405f20541661237c565b61088160026097541415612408565b60026097555f5b828110610899576105a66001609755565b806109866108aa6001938686612454565b335f90815260ce602052604090205460405160208101906108df816108d18686338761257e565b03601f19810183528261203d565b519020906108ec8361310c565b335f90815260d06020526040902061091f906109129084905b905f5260205260405f2090565b805460ff19166001179055565b610928816125a2565b335f90815260ce60205260409020556040517f51088b8c89628df3a8174002c2a034d0152fce6af8415d651b2a4734bf27048233918061096887826125cb565b0390a46040610979602083016122dd565b9101359030903390613222565b01610888565b346103b9575f3660031901126103b957602060405163ffffffff7f0000000000000000000000000000000000000000000000000000000000000000168152f35b346103b9575f3660031901126103b9576040517f00000000000000000000000000000000000000000000000000000000000000006001600160a01b03168152602090f35b346103b9575f3660031901126103b957602063ffffffff60cb5460a01c16604051908152f35b90816101009103126103b95790565b346103b95760403660031901126103b9576004356001600160401b0381116103b957610a78610aaf913690600401610a36565b60243590610a85826103a8565b610a96610854600480606654161490565b610aa560026097541415612408565b60026097556133b2565b6001609755005b63ffffffff8116036103b957565b3590610acf82610ab6565b565b346103b95760403660031901126103b957602435600435610af182610ab6565b610b02610854600880606654161490565b60cb5491610b1a336001600160a01b038516146125dc565b63ffffffff81169263ffffffff8160c01c16841115610c035763ffffffff7fecd866c3c158fa00bf34d803d5f6023000b57080bcb48af004c2b4b46b3afd0891610b65428710612645565b610be9610b92610b8a610b7d60ca5463ffffffff1690565b9360a01c63ffffffff1690565b8442166126d5565b94610bc4610b9e61205e565b88815263ffffffff8316602082015263ffffffff881660408201525f60608201526126ef565b60cb805463ffffffff60c01b191660c09290921b63ffffffff60c01b16919091179055565b60405163ffffffff9094168452169180602081015b0390a4005b60405162461bcd60e51b815260206004820152604b60248201527f52657761726473436f6f7264696e61746f722e7375626d6974526f6f743a206e60448201527f657720726f6f74206d75737420626520666f72206e657765722063616c63756c60648201526a185d1959081c195c9a5bd960aa1b608482015260a490fd5b346103b95760403660031901126103b9576004356001600160401b0381116103b957610cb29036906004016107d6565b60243591610cbf836103a8565b610cd0610854600480606654161490565b610cdf60026097541415612408565b60026097553681900360fe1901925f5b83811015610aaf578060051b83013590858212156103b957610d158360019386016133b2565b01610cef565b346103b95760203660031901126103b957600435610d38816103a8565b60018060a01b03165f5260d5602052610497610d8660405f2063ffffffff60405191610d6383612002565b5461ffff8116835261ffff8160101c16602084015260201c16604082015261356d565b60405161ffff90911681529081906020820190565b346103b9575f3660031901126103b957602063ffffffff60cb5460c01c16604051908152f35b346103b95760203660031901126103b9576105a6600435610de181610ab6565b610de9612e91565b6135a4565b346103b9575f3660031901126103b95760655460405163237dfb4760e11b815233600482015290602090829060249082906001600160a01b03165afa80156105d757610e40915f916107275750612280565b5f196066556040515f1981527fab40a374bc51de372200a8bc981af8c9ecdc08dfdaef0bb6e09f88f3c616ef3d60203392a2005b346103b95760203660031901126103b95760043560ff81168091036103b95760016020911b806066541614604051908152f35b346103b9575f3660031901126103b9576020606654604051908152f35b346103b95760203660031901126103b9576004356001600160401b0381116103b957610ef7610f19913690600401610a36565b610f13610f0d8235610f0881610ab6565b6120e0565b5061211a565b906137f0565b602060405160018152f35b346103b9575f3660031901126103b957602061ffff60cb5460e01c16604051908152f35b346103b95760403660031901126103b957600435610f65816103a8565b6024359060018060a01b03165f5260cf60205260405f20905f52602052602060ff60405f2054166040519015158152f35b346103b9575f3660031901126103b957610fae612e91565b603380546001600160a01b031981169091555f906001600160a01b03167f8be0079c531659141344cd1fd0a4f28419497f9722a3daafe3b4186f6b6457e08280a3005b346103b9575f3660031901126103b957602060ca54604051908152f35b346103b95760203660031901126103b9576105a660043561102e816103a8565b611036612e91565b613966565b346103b95760403660031901126103b957602061109160043561105d816103a8565b6024359061106a826103a8565b60018060a01b03165f5260cd835260405f209060018060a01b03165f5260205260405f2090565b54604051908152f35b346103b9575f3660031901126103b9576065546040516001600160a01b039091168152602090f35b346103b9575f3660031901126103b9576033546040516001600160a01b039091168152602090f35b346103b9575f3660031901126103b957602060405173beac0eeeeeeeeeeeeeeeeeeeeeeeeeeeeeebeac08152f35b346103b9575f3660031901126103b95761113061206d565b5060ca545f19810190811161114e57610458610f0d610497926120e0565b612091565b346103b95760403660031901126103b957600435611170816103a8565b6024356001600160401b0381116103b95761118f9036906004016107d6565b91906111a2610854602080606654161490565b6111b160026097541415612408565b60026097556001600160a01b038216916111cc3384146127df565b5f5b8481106111df576105a66001609755565b806112b96111f0600193888761286e565b6001600160a01b0385165f90815260ce6020526040902054906040516020810190611221816108d185878c876129d4565b5190208861122e83613c40565b93611250610912846109058c60018060a01b03165f5260d360205260405f2090565b611259816125a2565b6001600160a01b038a165f90815260ce60205260409020557ffc8888bffd711da60bc5092b33f677d81896fe80ecc677b84cfab8184462b6e0604051806112a2873395836129f8565b0390a430906112b460203392016122dd565b613222565b016111ce565b346103b9575f3660031901126103b957602060405163ffffffff7f0000000000000000000000000000000000000000000000000000000000000000168152f35b346103b95760203660031901126103b95760043561131c816103a8565b335f81815260cc6020526040812080546001600160a01b039485166001600160a01b03198216811790925590931691907fbab947934d42e0ad206f25c9cab18b5bb6ae144acfb00f40b4e3aa59590ca3129080a4005b6024359061ffff821682036103b957565b60a4359061ffff821682036103b957565b6044359061ffff821682036103b957565b346103b95760203660031901126103b95760043561ffff811681036103b9576105a6906113d0612e91565b613d56565b346103b95760403660031901126103b9576004356113f2816103a8565b6024359060018060a01b03165f5260d260205260405f20905f52602052602060ff60405f2054166040519015158152f35b346103b95760403660031901126103b957600435611440816103a8565b611448611372565b9061145a610854608080606654161490565b6001600160a01b038116913383900361153957806114a161271061ffff7fd1e028bd664486a46ad26040e999cd2d22e1e9a094ee6afe19fcf64678f16f7494161115612a0f565b60cb546114be9060a01c63ffffffff165b63ffffffff42166126d5565b92611511848361150c6114f16114ec6114e78760018060a01b03165f5260d560205260405f2090565b6127a1565b61356d565b6001600160a01b039095165f90815260d56020526040902090565b613db1565b6040805163ffffffff95909516855261ffff91821660208601529116908301523391606090a3005b60405162461bcd60e51b815260206004820152604160248201527f52657761726473436f6f7264696e61746f722e7365744f70657261746f72504960448201527f53706c69743a2063616c6c6572206973206e6f7420746865206f70657261746f6064820152603960f91b608482015260a490fd5b346103b95760203660031901126103b9576004356115cb816103a8565b60018060a01b03165f5260ce602052602060405f2054604051908152f35b346103b9575f3660031901126103b957602060405163ffffffff7f0000000000000000000000000000000000000000000000000000000000000000168152f35b346103b95760403660031901126103b957600435611646816103a8565b6024359060018060a01b03165f5260d060205260405f20905f52602052602060ff60405f2054166040519015158152f35b346103b95760c03660031901126103b957600435611694816103a8565b6117136024356116a3816103a8565b6044356064356116b2816103a8565b608435916116bf83610ab6565b6116c7611383565b935f54966116f96116e36116df8a60ff9060081c1690565b1590565b8099819a61178d575b811561176d575b50612a8c565b8761170a600160ff195f5416175f55565b61175657612aef565b61171957005b61172761ff00195f54165f55565b604051600181527f7f26b83ff96e1f2b6a682f133852f6798a09c465da95921460cefb384740249890602090a1005b61176861010061ff00195f5416175f55565b612aef565b303b1591508161177f575b505f6116f3565b60ff1660011490505f611778565b600160ff82161091506116ec565b346103b95760603660031901126103b9576004356117b8816103a8565b6024356117c4816103a8565b6117cc611394565b6117dd610854604080606654161490565b6001600160a01b03831691338390036118d757817f48e198b6ae357e529204ee53a8e514c470ff77d9cc8e4f7207f8b5d490ae69349161182861271061ffff61186d96161115612bf8565b61189d868361150c8461186d6118826114ec6114e7846118546114b260cb5463ffffffff9060a01c1690565b9d8e9960018060a01b03165f5260d460205260405f2090565b9060018060a01b03165f5260205260405f2090565b6001600160a01b03909c165f90815260d46020526040902090565b6040805163ffffffff95909516855261ffff968716602086015291909516908301526001600160a01b039093169233918060608101610bfe565b60405162461bcd60e51b815260206004820152604260248201527f52657761726473436f6f7264696e61746f722e7365744f70657261746f72415660448201527f5353706c69743a2063616c6c6572206973206e6f7420746865206f706572617460648201526137b960f11b608482015260a490fd5b346103b95760203660031901126103b957610497610458610f0d60043561197261206d565b506120e0565b346103b95760403660031901126103b957610497610d866119d360043561199e816103a8565b602435906119ab826103a8565b60018060a01b03165f5260d460205260405f209060018060a01b03165f5260205260405f2090565b63ffffffff60405191610d6383612002565b346103b95760203660031901126103b9576020611a03600435612c8e565b63ffffffff60405191168152f35b346103b9575f3660031901126103b9576040517f00000000000000000000000000000000000000000000000000000000000000006001600160a01b03168152602090f35b346103b95760403660031901126103b957600435611a72816103a8565b6024359060018060a01b03165f5260d360205260405f20905f52602052602060ff60405f2054166040519015158152f35b346103b95760203660031901126103b957600435611ac0816103a8565b611ac8612e91565b6001600160a01b03811615611ae0576105a69061391e565b60405162461bcd60e51b815260206004820152602660248201527f4f776e61626c653a206e6577206f776e657220697320746865207a65726f206160448201526564647265737360d01b6064820152608490fd5b346103b9575f3660031901126103b957602061078b612d40565b346103b95760403660031901126103b957602061078b611b6d36610756565b612d75565b346103b95760203660031901126103b957600435611b8f81610ab6565b611ba0610854600880606654161490565b611bb560018060a01b0360cb541633146125dc565b60ca549063ffffffff811691821015611c51576001611bd6611c2b926120e0565b5001611c18611c11611c088354611bfc611bf76116df8360ff9060401c1690565b612dbc565b60201c63ffffffff1690565b63ffffffff1690565b4210612e26565b805460ff60401b1916600160401b179055565b7fd850e6e5dfa497b72661fa73df2923464eaed9dc2ff1d3cb82bccbfeabe5c41e5f80a2005b60405162461bcd60e51b815260206004820152603160248201527f52657761726473436f6f7264696e61746f722e64697361626c65526f6f743a206044820152700d2dcecc2d8d2c840e4dedee892dcc8caf607b1b6064820152608490fd5b346103b95760203660031901126103b95760655460405163755b36bd60e11b81526004803592602091839182906001600160a01b03165afa80156105d757611d09915f916105a857506001600160a01b0316331461220c565b606654198119811603611d5357611d1f81606655565b60405190815233907f3582d1828e26bf56bd801502bc021ac0bc8afb57c826e4986b45593c8fad389c9080602081016106b7565b60405162461bcd60e51b815260206004820152603860248201527f5061757361626c652e756e70617573653a20696e76616c696420617474656d7060448201527f7420746f2070617573652066756e6374696f6e616c69747900000000000000006064820152608490fd5b346103b9575f3660031901126103b95760cb546040516001600160a01b039091168152602090f35b346103b957611df436610806565b90611e06610854600180606654161490565b611e1560026097541415612408565b60026097555f5b828110611e2d576105a66001609755565b80611ed8611e3e6001938686612454565b335f90815260ce60205260409020546040516020810190611e65816108d18686338761257e565b51902090611e728361310c565b335f90815260cf60205260409020611e8f90610912908490610905565b611e98816125a2565b335f90815260ce60205260409020556040517f450a367a380c4e339e5ae7340c8464ef27af7781ad9945cfe8abd828f89e628133918061096887826125cb565b01611e1c565b346103b957611eec36610806565b90611efe610854601080606654161490565b335f5260d1602052611f1660ff60405f20541661237c565b611f2560026097541415612408565b60026097555f5b828110611f3d576105a66001609755565b80611fe8611f4e6001938686612454565b335f90815260ce60205260409020546040516020810190611f75816108d18686338761257e565b51902090611f828361310c565b335f90815260d260205260409020611f9f90610912908490610905565b611fa8816125a2565b335f90815260ce60205260409020556040517f5251b6fdefcb5d81144e735f69ea4c695fd43b0289ca53dc075033f5fc80068b33918061096887826125cb565b01611f2c565b634e487b7160e01b5f52604160045260245ffd5b606081019081106001600160401b0382111761201d57604052565b611fee565b608081019081106001600160401b0382111761201d57604052565b90601f801991011681019081106001600160401b0382111761201d57604052565b60405190610acf60808361203d565b6040519061207a82612022565b5f6060838281528260208201528260408201520152565b634e487b7160e01b5f52601160045260245ffd5b801561114e575f190190565b5f1981019190821161114e57565b9190820391821161114e57565b634e487b7160e01b5f52603260045260245ffd5b60ca548110156120fc5760ca5f5260205f209060011b01905f90565b6120cc565b80548210156120fc575f5260205f209060011b01905f90565b9060405161212781612022565b606060ff6001839580548552015463ffffffff8116602085015263ffffffff8160201c16604085015260401c161515910152565b61216361206d565b5060ca54805b61218e575061217661205e565b5f81525f60208201525f60408201525f606082015290565b61219d610f0d610f08836120b1565b906121ae6116df6060840151151590565b806121cc575b6121c8576121c291506120a5565b80612169565b5090565b506121e1611c08604084015163ffffffff1690565b4210156121b4565b908160209103126103b957516121fe816103a8565b90565b6040513d5f823e3d90fd5b1561221357565b60405162461bcd60e51b815260206004820152602a60248201527f6d73672e73656e646572206973206e6f74207065726d697373696f6e6564206160448201526939903ab73830bab9b2b960b11b6064820152608490fd5b908160209103126103b957516121fe8161049b565b1561228757565b60405162461bcd60e51b815260206004820152602860248201527f6d73672e73656e646572206973206e6f74207065726d697373696f6e6564206160448201526739903830bab9b2b960c11b6064820152608490fd5b356121fe816103a8565b60208135916122f5836103a8565b01356040519060208201925f84526001600160601b03199060601b16602183015260358201526035815261232a60558261203d565b51902090565b1561233757565b60405162461bcd60e51b815260206004820152601960248201527f5061757361626c653a20696e64657820697320706175736564000000000000006044820152606490fd5b1561238357565b60405162461bcd60e51b815260206004820152605160248201527f52657761726473436f6f7264696e61746f723a2063616c6c6572206973206e6f60448201527f7420612076616c69642063726561746552657761726473466f72416c6c53756260648201527036b4b9b9b4b7b71039bab136b4ba3a32b960791b608482015260a490fd5b1561240f57565b60405162461bcd60e51b815260206004820152601f60248201527f5265656e7472616e637947756172643a207265656e7472616e742063616c6c006044820152606490fd5b91908110156120fc5760051b81013590609e19813603018212156103b9570190565b9035601e19823603018112156103b95701602081359101916001600160401b0382116103b9578160061b360383136103b957565b916020908281520191905f905b8082106124c45750505090565b90919283356124d2816103a8565b6001600160a01b0316815260208401356001600160601b03811691908290036103b9576040816001936020839401520194019201906124b7565b90608063ffffffff816125306125228680612476565b60a0875260a08701916124aa565b94602081013561253f816103a8565b6001600160a01b031660208601526040818101359086015282606082013561256681610ab6565b166060860152013561257781610ab6565b1691015290565b6121fe939260609260018060a01b031682526020820152816040820152019061250c565b906001820180921161114e57565b906020820180921161114e57565b9190820180921161114e57565b9060206121fe92818152019061250c565b156125e357565b60405162461bcd60e51b815260206004820152603460248201527f52657761726473436f6f7264696e61746f723a2063616c6c6572206973206e6f6044820152733a103a3432903932bbb0b93239aab83230ba32b960611b6064820152608490fd5b1561264c57565b60405162461bcd60e51b815260206004820152605560248201527f52657761726473436f6f7264696e61746f722e7375626d6974526f6f743a207260448201527f65776172647343616c63756c6174696f6e456e6454696d657374616d702063616064820152746e6e6f7420626520696e207468652066757475726560581b608482015260a490fd5b9063ffffffff8091169116019063ffffffff821161114e57565b60ca54600160401b81101561201d57806001612710920160ca5560ca612101565b91909161278e5760606001610acf9383518155019163ffffffff60208201511663ffffffff1984541617835561276d63ffffffff604083015116849067ffffffff0000000082549160201b169067ffffffff000000001916179055565b0151815460ff60401b191690151560401b68ff000000000000000016179055565b634e487b7160e01b5f525f60045260245ffd5b906040516127ae81612002565b604063ffffffff82945461ffff8116845261ffff8160101c16602085015260201c16910152565b356121fe81610ab6565b156127e657565b60405162461bcd60e51b815260206004820152605460248201527f52657761726473436f6f7264696e61746f722e6372656174654f70657261746f60448201527f724469726563746564415653526577617264735375626d697373696f6e3a2063606482015273616c6c6572206973206e6f74207468652041565360601b608482015260a490fd5b91908110156120fc5760051b8101359060be19813603018212156103b9570190565b9035601e19823603018112156103b95701602081359101916001600160401b0382116103b95781360383136103b957565b908060209392818452848401375f828201840152601f01601f1916010190565b91906128fe6128f08480612476565b60c0845260c08401916124aa565b90602084013561290d816103a8565b6001600160a01b031660208281019190915261292c6040860186612476565b838503604085015280855293909101925f5b8181106129a0575050506129928461296c61295f60606121fe979801610ac4565b63ffffffff166060850152565b61298861297b60808301610ac4565b63ffffffff166080850152565b60a0810190612890565b9160a08185039101526128c1565b90919360408060019287356129b4816103a8565b848060a01b0316815260208801356020820152019501910191909161293e565b6121fe939260609260018060a01b03168252602082015281604082015201906128e1565b6040906121fe9392815281602082015201906128e1565b15612a1657565b60405162461bcd60e51b815260206004820152604260248201527f52657761726473436f6f7264696e61746f722e7365744f70657261746f72504960448201527f53706c69743a2073706c6974206d757374206265203c3d203130303030206269606482015261707360f01b608482015260a490fd5b15612a9357565b60405162461bcd60e51b815260206004820152602e60248201527f496e697469616c697a61626c653a20636f6e747261637420697320616c72656160448201526d191e481a5b9a5d1a585b1a5e995960921b6064820152608490fd5b929493919094612afd613e57565b60c9556065546001600160a01b03161580612be6575b15612b6b576110366113d094612b66610acf9885612b33610de997606655565b60405190815233907fab40a374bc51de372200a8bc981af8c9ecdc08dfdaef0bb6e09f88f3c616ef3d90602090a2612ee9565b61391e565b60405162461bcd60e51b815260206004820152604760248201527f5061757361626c652e5f696e697469616c697a655061757365723a205f696e6960448201527f7469616c697a6550617573657228292063616e206f6e6c792062652063616c6c6064820152666564206f6e636560c81b608482015260a490fd5b506001600160a01b0386161515612b13565b15612bff57565b60405162461bcd60e51b815260206004820152604360248201527f52657761726473436f6f7264696e61746f722e7365744f70657261746f72415660448201527f5353706c69743a2073706c6974206d757374206265203c3d203130303030206260648201526269707360e81b608482015260a490fd5b63ffffffff5f199116019063ffffffff821161114e57565b63ffffffff60ca54165b63ffffffff8116612d0e5760405162461bcd60e51b815260206004820152603760248201527f52657761726473436f6f7264696e61746f722e676574526f6f74496e6465784660448201527f726f6d486173683a20726f6f74206e6f7420666f756e640000000000000000006064820152608490fd5b81612d1b610f0883612c76565b505414612d365763ffffffff16801561114e575f1901612c98565b6121fe9150612c76565b467f000000000000000000000000000000000000000000000000000000000000000003612d6d5760c95490565b6121fe613e57565b6020813591612d83836103a8565b0135604051906020820192600160f81b84526001600160601b03199060601b16602183015260358201526035815261232a60558261203d565b15612dc357565b60405162461bcd60e51b815260206004820152603560248201527f52657761726473436f6f7264696e61746f722e64697361626c65526f6f743a206044820152741c9bdbdd08185b1c9958591e48191a5cd8589b1959605a1b6064820152608490fd5b15612e2d57565b60405162461bcd60e51b815260206004820152603660248201527f52657761726473436f6f7264696e61746f722e64697361626c65526f6f743a206044820152751c9bdbdd08185b1c9958591e481858dd1a5d985d195960521b6064820152608490fd5b6033546001600160a01b03163303612ea557565b606460405162461bcd60e51b815260206004820152602060248201527f4f776e61626c653a2063616c6c6572206973206e6f7420746865206f776e65726044820152fd5b6001600160a01b03811615612f5a57606554604080516001600160a01b0392831681529183166020830152610acf92917f6e9fcd539896fca60e8b0f01dd580233e48a6b0f7df013b89ba7f565869acdb69190a160018060a01b03166001600160601b0360a01b6065541617606555565b60405162461bcd60e51b815260206004820152604960248201527f5061757361626c652e5f73657450617573657252656769737472793a206e657760448201527f50617573657252656769737472792063616e6e6f7420626520746865207a65726064820152686f206164647265737360b81b608482015260a490fd5b903590601e19813603018212156103b957018035906001600160401b0382116103b957602001918160061b360383136103b957565b1561301357565b60405162461bcd60e51b815260206004820152603f60248201527f52657761726473436f6f7264696e61746f722e5f76616c69646174655265776160448201527f7264735375626d697373696f6e3a20616d6f756e7420746f6f206c61726765006064820152608490fd5b1561308557565b60405162461bcd60e51b815260206004820152605360248201527f52657761726473436f6f7264696e61746f722e5f76616c69646174655265776160448201527f7264735375626d697373696f6e3a20737461727454696d657374616d7020746f6064820152726f2066617220696e207468652066757475726560681b608482015260a490fd5b60406131439161311c8180612fd7565b9390606083019485359061312f82610ab6565b60808501359261313e84610ab6565b6142c4565b013580156131ad57610acf9161316e6f4b3b4ca85a86c47a098a223fffffffff61317393111561300c565b6127d5565b63ffffffff6131a4817f000000000000000000000000000000000000000000000000000000000000000016426125be565b9116111561307e565b60405162461bcd60e51b815260206004820152604160248201527f52657761726473436f6f7264696e61746f722e5f76616c69646174655265776160448201527f7264735375626d697373696f6e3a20616d6f756e742063616e6e6f74206265206064820152600360fc1b608482015260a490fd5b6040516323b872dd60e01b60208201526001600160a01b039283166024820152929091166044830152606480830193909352918152610acf9161326660848361203d565b614534565b1561327257565b60405162461bcd60e51b815260206004820152603c60248201527f52657761726473436f6f7264696e61746f722e70726f63657373436c61696d3a60448201527f2063616c6c6572206973206e6f742076616c696420636c61696d6572000000006064820152608490fd5b903590601e19813603018212156103b957018035906001600160401b0382116103b957602001918160051b360383136103b957565b91908110156120fc5760061b0190565b1561332957565b60405162461bcd60e51b815260206004820152605560248201527f52657761726473436f6f7264696e61746f722e70726f63657373436c61696d3a60448201527f2063756d756c61746976654561726e696e6773206d75737420626520677420746064820152741a185b8818dd5b5d5b185d1a5d9950db185a5b5959605a1b608482015260a490fd5b906133c2610f0d610f08846127d5565b906133cd82846137f0565b6133d9606084016122dd565b936134046133f78660018060a01b03165f5260cc60205260405f2090565b546001600160a01b031690565b6001600160a01b03811615613566575b90936001600160a01b039091169161342d33841461326b565b6001600160a01b038616915f5b61344760a08301836132dd565b905081101561355c578061346a60019261346460e0860186612fd7565b90613312565b86867f9543dbd55580842586a951f0386e24d68a5df99ae29e3b216588b45fd684ce318c6134c86134ab8260018060a01b03165f5260cd60205260405f2090565b6134b4876122dd565b60018060a01b03165f5260205260405f2090565b5461350d6135046134e96020890135936134e3818611613322565b846120bf565b6001600160a01b039094165f90815260cd6020526040902090565b6134b4886122dd565b55613521818a61351c886122dd565b614606565b61352c8c51956122dd565b604080519687526001600160a01b0391909116602087015285015260a086901b869003881693606090a40161343a565b5050505050509050565b5084613414565b604081015163ffffffff16908161358d57505061ffff60cb5460e01c1690565b61ffff91421061359f57602001511690565b511690565b60cb54907faf557c6c02c208794817a705609cfa935f827312a1adfdd26494b6b95dd2b4b36040805163ffffffff8560a01c16815263ffffffff84166020820152a163ffffffff60a01b1990911660a09190911b63ffffffff60a01b161760cb55565b1561360e57565b60405162461bcd60e51b815260206004820152603060248201525f516020614a205f395f51905f5260448201526f1c9bdbdd081a5cc8191a5cd8589b195960821b6064820152608490fd5b1561366057565b60405162461bcd60e51b815260206004820152603660248201525f516020614a205f395f51905f526044820152751c9bdbdd081b9bdd081858dd1a5d985d1959081e595d60521b6064820152608490fd5b156136b857565b60405162461bcd60e51b815260206004820152604c60248201525f516020614a205f395f51905f5260448201527f746f6b656e496e646963657320616e6420746f6b656e50726f6f6673206c656e60648201526b0cee8d040dad2e6dac2e8c6d60a31b608482015260a490fd5b1561372c57565b60405162461bcd60e51b815260206004820152604a60248201525f516020614a205f395f51905f5260448201527f746f6b656e5472656550726f6f667320616e64206c6561766573206c656e67746064820152690d040dad2e6dac2e8c6d60b31b608482015260a490fd5b903590601e19813603018212156103b957018035906001600160401b0382116103b9576020019181360383136103b957565b91908110156120fc5760051b0190565b908210156120fc576108309160051b810190613797565b91909161380b6138066116df6060860151151590565b613607565b61382a613822611c08604086015163ffffffff1690565b421015613659565b60a081019061383982826132dd565b905061385660c083019161384d83856132dd565b919050146136b1565b6138a661386382846132dd565b96905061388160e08501976138788987612fd7565b91905014613725565b5161388e602085016127d5565b61389b6040860186613797565b916060870193614677565b6080820135925f5b6138b882856132dd565b9050811015613915578061390f856134648a613908856138ff816138f98c8f61316e60019d8f6138ed906138f394508d6132dd565b906137c9565b986132dd565b906137d9565b9490938c612fd7565b928a6147a7565b016138ae565b50505050509050565b603380546001600160a01b039283166001600160a01b0319821681179092559091167f8be0079c531659141344cd1fd0a4f28419497f9722a3daafe3b4186f6b6457e05f80a3565b60cb546001600160a01b0391821691829082167f237b82f438d75fc568ebab484b75b01d9287b9e98b490b7c23221623b6705dbb5f80a36001600160a01b0319161760cb55565b156139b457565b60405162461bcd60e51b815260206004820152605460248201525f516020614a605f395f51905f5260448201527f61746f724469726563746564526577617264735375626d697373696f6e3a206e6064820152731bc81bdc195c985d1bdc9cc81c995dd85c99195960621b608482015260a490fd5b15613a3057565b60405162461bcd60e51b815260206004820152605b60248201525f516020614a605f395f51905f5260448201525f516020614a405f395f51905f5260648201527f70657261746f722063616e6e6f74206265203020616464726573730000000000608482015260a490fd5b15613aa257565b60405162461bcd60e51b815260206004820152607860248201525f516020614a605f395f51905f5260448201525f516020614a405f395f51905f5260648201527f70657261746f7273206d75737420626520696e20617363656e64696e67206f7260848201527f64657220746f2068616e646c65206475706c696361746573000000000000000060a482015260c490fd5b15613b3a57565b60405162461bcd60e51b815260206004820152606160248201525f516020614a605f395f51905f5260448201525f516020614a405f395f51905f5260648201527f70657261746f722072657761726420616d6f756e742063616e6e6f74206265206084820152600360fc1b60a482015260c490fd5b15613bb657565b60405162461bcd60e51b815260206004820152607660248201525f516020614a605f395f51905f5260448201525f516020614a405f395f51905f5260648201527f70657261746f722d64697265637465642072657761726473207375626d697373608482015275696f6e206973206e6f7420726574726f61637469766560501b60a482015260c490fd5b90613c4b8280612fd7565b9092613c726060820194613c5e866127d5565b6080840194613c6c866127d5565b926142c4565b6040810190613c8d613c848383612fd7565b905015156139ad565b5f938493845b613c9d8585612fd7565b9050871015613d2157613d19600191613cfa613cbd8a6134648a8a612fd7565b98613ce0613cd9613ccd8c6122dd565b6001600160a01b031690565b1515613a29565b613cec613ccd8b6122dd565b90858060a01b031610613a9b565b6020613d05896122dd565b98013590613d14821515613b33565b6125be565b960195613c93565b95509150946121fe9350613d489250613d3c613d42916127d5565b916127d5565b906126d5565b63ffffffff42911610613baf565b60cb54907fe6cd4edfdcc1f6d130ab35f73d72378f3a642944fb4ee5bd84b7807a81ea1c4e6040805161ffff8560e01c16815261ffff84166020820152a161ffff60e01b1990911660e09190911b61ffff60e01b161760cb55565b610acf9291815463ffffffff8160201c1680421015613dff575b5050815467ffffffffffff0000191660109190911b63ffff0000161760209290921b67ffffffff0000000016919091179055565b613e23575060cb54825461ffff191660e09190911c61ffff161782555b5f80613dcb565b825461ffff191660109190911c61ffff16178255613e1c565b6001600160401b03811161201d57601f01601f191660200190565b600a6020604051613e6960408261203d565b828152016922b4b3b2b72630bcb2b960b11b81522060405160208101917f8cad95687ba82c2ce50e74f7b754645e5117c3a5bec8151c0726d5857980a866835260408201524660608201523060808201526080815261232a60a08261203d565b15613ed057565b60405162461bcd60e51b815260206004820152604660248201525f516020614a805f395f51905f5260448201527f6f6e526577617264735375626d697373696f6e3a206e6f207374726174656769606482015265195cc81cd95d60d21b608482015260a490fd5b15613f3e57565b60405162461bcd60e51b815260206004820152605a60248201525f516020614a805f395f51905f5260448201527f6f6e526577617264735375626d697373696f6e3a206475726174696f6e20657860648201527f6365656473204d41585f524557415244535f4455524154494f4e000000000000608482015260a490fd5b9063ffffffff16908115613fd45763ffffffff160690565b634e487b7160e01b5f52601260045260245ffd5b15613fef57565b60405162461bcd60e51b815260206004820152607060248201525f516020614a805f395f51905f5260448201527f6f6e526577617264735375626d697373696f6e3a206475726174696f6e206d7560648201527f73742062652061206d756c7469706c65206f662043414c43554c4154494f4e5f60848201526f494e54455256414c5f5345434f4e445360801b60a482015260c490fd5b1561408d57565b60405162461bcd60e51b815260206004820152607660248201525f516020614a805f395f51905f5260448201527f6f6e526577617264735375626d697373696f6e3a20737461727454696d65737460648201527f616d70206d7573742062652061206d756c7469706c65206f662043414c43554c6084820152754154494f4e5f494e54455256414c5f5345434f4e445360501b60a482015260c490fd5b1561413157565b60405162461bcd60e51b815260206004820152605760248201525f516020614a805f395f51905f5260448201527f6f6e526577617264735375626d697373696f6e3a20737461727454696d65737460648201527f616d7020746f6f2066617220696e207468652070617374000000000000000000608482015260a490fd5b156141b657565b60405162461bcd60e51b815260206004820152605060248201525f516020614a805f395f51905f5260448201527f6f6e526577617264735375626d697373696f6e3a20696e76616c69642073747260648201526f185d1959de4818dbdb9cda59195c995960821b608482015260a490fd5b1561422e57565b60405162461bcd60e51b815260206004820152606f60248201525f516020614a805f395f51905f5260448201527f6f6e526577617264735375626d697373696f6e3a20737472617465676965732060648201527f6d75737420626520696e20617363656e64696e67206f7264657220746f20686160848201526e6e646c65206475706c69636174657360881b60a482015260c490fd5b929161435d614357611c086143a494956142df871515613ec9565b61431763ffffffff7f00000000000000000000000000000000000000000000000000000000000000001663ffffffff83161115613f37565b61435163ffffffff61434a7f00000000000000000000000000000000000000000000000000000000000000008094613fbc565b1615613fe8565b84613fbc565b15614086565b63ffffffff61438e817f000000000000000000000000000000000000000000000000000000000000000016426120bf565b91168091111590816144a4575b5092919261412a565b7f00000000000000000000000000000000000000000000000000000000000000006001600160a01b0316915f90815b8183106143e1575050505050565b6143f46143ef848487613312565b6122dd565b60405163198f077960e21b81526001600160a01b03821660048201529091906020816024818a5afa9283156105d757600193614458925f91614486575b508015614460575b614442906141af565b838060a01b03168092848060a01b031610614227565b9201916143d3565b5060a084901b849003811673beac0eeeeeeeeeeeeeeeeeeeeeeeeeeeeeebeac014614439565b61449e915060203d811161074f57610741818361203d565b5f614431565b905063ffffffff7f00000000000000000000000000000000000000000000000000000000000000001611155f61439b565b156144dc57565b60405162461bcd60e51b815260206004820152602a60248201527f5361666545524332303a204552433230206f7065726174696f6e20646964206e6044820152691bdd081cdd58d8d9595960b21b6064820152608490fd5b60018060a01b0316906040519061454c60408361203d565b602082527f5361666545524332303a206c6f772d6c6576656c2063616c6c206661696c65646020830152823b156145c1575f8161459c948260208195519301915af1614596614995565b906149c4565b8051806145a7575050565b816020806145bc93610acf950101910161226b565b6144d5565b60405162461bcd60e51b815260206004820152601d60248201527f416464726573733a2063616c6c20746f206e6f6e2d636f6e74726163740000006044820152606490fd5b60405163a9059cbb60e01b60208201526001600160a01b039092166024830152604480830193909352918152610acf9161326660648361203d565b92919261464d82613e3c565b9161465b604051938461203d565b8294818452818301116103b9578281602093845f960137010152565b9063ffffffff9094939294169260018360051c1b841015614730576146af946146a26146aa926122e7565b933691614641565b6148af565b156146b657565b60405162461bcd60e51b815260206004820152604660248201527f52657761726473436f6f7264696e61746f722e5f7665726966794561726e657260448201527f436c61696d50726f6f663a20696e76616c6964206561726e657220636c61696d60648201526510383937b7b360d11b608482015260a490fd5b60405162461bcd60e51b815260206004820152604360248201527f52657761726473436f6f7264696e61746f722e5f7665726966794561726e657260448201527f436c61696d50726f6f663a20696e76616c6964206561726e65724c656166496e6064820152620c8caf60eb1b608482015260a490fd5b9063ffffffff9094939294169260018360051c1b841015614844576147d2946146a26146aa92612d75565b156147d957565b60405162461bcd60e51b815260206004820152603f60248201527f52657761726473436f6f7264696e61746f722e5f766572696679546f6b656e4360448201527f6c61696d3a20696e76616c696420746f6b656e20636c61696d2070726f6f66006064820152608490fd5b60405162461bcd60e51b815260206004820152603c60248201527f52657761726473436f6f7264696e61746f722e5f766572696679546f6b656e4360448201527f6c61696d3a20696e76616c696420746f6b656e4c656166496e646578000000006064820152608490fd5b93909291601f8551166149165791906020925b8551841161490d57600183166148f3575f52828501516020526148ec60405f209260011c936125b0565b92916148c2565b838601515f526020526148ec60405f209260011c936125b0565b92509350501490565b60405162461bcd60e51b815260206004820152604b60248201527f4d65726b6c652e70726f63657373496e636c7573696f6e50726f6f664b65636360448201527f616b3a2070726f6f66206c656e6774682073686f756c642062652061206d756c60648201526a3a34b836329037b310199960a91b608482015260a490fd5b3d156149bf573d906149a682613e3c565b916149b4604051938461203d565b82523d5f602084013e565b606090565b909190156149d0575090565b8151156149e05750805190602001fd5b604460209160405192839162461bcd60e51b83528160048401528051918291826024860152018484015e5f828201840152601f01601f19168101030190fdfe52657761726473436f6f7264696e61746f722e5f636865636b436c61696d3a2061746f724469726563746564526577617264735375626d697373696f6e3a206f52657761726473436f6f7264696e61746f722e5f76616c69646174654f70657252657761726473436f6f7264696e61746f722e5f76616c6964617465436f6d6da2646970667358221220db2c126227badc733b07d8f20ad462176d5c1247773f713e95bd4d972d53abd664736f6c634300081c0033","linkReferences":{}},"methodIdentifiers":{"CALCULATION_INTERVAL_SECONDS()":"9d45c281","GENESIS_REWARDS_TIMESTAMP()":"131433b4","MAX_FUTURE_LENGTH()":"04a0c502","MAX_RETROACTIVE_LENGTH()":"37838ed0","MAX_REWARDS_DURATION()":"bf21a8aa","activationDelay()":"3a8c0786","beaconChainETHStrategy()":"9104c319","calculateEarnerLeafHash((address,bytes32))":"149bc872","calculateTokenLeafHash((address,uint256))":"f8cd8448","checkClaim((uint32,uint32,bytes,(address,bytes32),uint32[],bytes[],(address,uint256)[]))":"5e9d8348","claimerFor(address)":"2b9f64a4","createAVSRewardsSubmission(((address,uint96)[],address,uint256,uint32,uint32)[])":"fce36c7d","createOperatorDirectedAVSRewardsSubmission(address,((address,uint96)[],address,(address,uint256)[],uint32,uint32,string)[])":"9cb9a5fa","createRewardsForAllEarners(((address,uint96)[],address,uint256,uint32,uint32)[])":"ff9f6cce","createRewardsForAllSubmission(((address,uint96)[],address,uint256,uint32,uint32)[])":"36af41fa","cumulativeClaimed(address,address)":"865c6953","currRewardsCalculationEndTimestamp()":"4d18cc35","defaultOperatorSplitBips()":"63f6a798","delegationManager()":"ea4d3c9b","disableRoot(uint32)":"f96abf2e","domainSeparator()":"f698da25","getCurrentClaimableDistributionRoot()":"0e9a53cf","getCurrentDistributionRoot()":"9be3d4e4","getDistributionRootAtIndex(uint256)":"de02e503","getDistributionRootsLength()":"7b8f8b05","getOperatorAVSSplit(address,address)":"e063f81f","getOperatorPISplit(address)":"4b943960","getRootIndexFromHash(bytes32)":"e810ce21","initialize(address,address,uint256,address,uint32,uint16)":"d4540a55","isAVSRewardsSubmissionHash(address,bytes32)":"6d21117e","isOperatorDirectedAVSRewardsSubmissionHash(address,bytes32)":"ed71e6a2","isRewardsForAllSubmitter(address)":"0018572c","isRewardsSubmissionForAllEarnersHash(address,bytes32)":"aebd8bae","isRewardsSubmissionForAllHash(address,bytes32)":"c46db606","owner()":"8da5cb5b","pause(uint256)":"136439dd","pauseAll()":"595c6a67","paused()":"5c975abb","paused(uint8)":"5ac86ab7","pauserRegistry()":"886f1195","processClaim((uint32,uint32,bytes,(address,bytes32),uint32[],bytes[],(address,uint256)[]),address)":"3ccc861d","processClaims((uint32,uint32,bytes,(address,bytes32),uint32[],bytes[],(address,uint256)[])[],address)":"4596021c","renounceOwnership()":"715018a6","rewardsUpdater()":"fbf1e2c1","setActivationDelay(uint32)":"58baaa3e","setClaimerFor(address)":"a0169ddd","setDefaultOperatorSplit(uint16)":"a50a1d9c","setOperatorAVSSplit(address,address,uint16)":"dcbb03b3","setOperatorPISplit(address,uint16)":"b3dbb0e0","setPauserRegistry(address)":"10d67a2f","setRewardsForAllSubmitter(address,bool)":"0eb38345","setRewardsUpdater(address)":"863cb9a9","strategyManager()":"39b70e38","submissionNonce(address)":"bb7e451f","submitRoot(bytes32,uint32)":"3efe1db6","transferOwnership(address)":"f2fde38b","unpause(uint256)":"fabc1cbc"},"id":14}