{"abi":[{"type":"function","name":"getLastCheckpointThresholdWeight","inputs":[],"outputs":[{"name":"","type":"uint256","internalType":"uint256"}],"stateMutability":"pure"},{"type":"function","name":"getLastCheckpointTotalWeight","inputs":[],"outputs":[{"name":"","type":"uint256","internalType":"uint256"}],"stateMutability":"pure"},{"type":"function","name":"getOperatorWeight","inputs":[{"name":"","type":"address","internalType":"address"}],"outputs":[{"name":"","type":"uint256","internalType":"uint256"}],"stateMutability":"pure"},{"type":"function","name":"getServiceURI","inputs":[],"outputs":[{"name":"","type":"string","internalType":"string"}],"stateMutability":"view"},{"type":"function","name":"setServiceURI","inputs":[{"name":"_serviceURI","type":"string","internalType":"string"}],"outputs":[],"stateMutability":"nonpayable"},{"type":"function","name":"validate","inputs":[{"name":"envelope","type":"tuple","internalType":"struct IWavsServiceHandler.Envelope","components":[{"name":"eventId","type":"bytes20","internalType":"bytes20"},{"name":"ordering","type":"bytes12","internalType":"bytes12"},{"name":"payload","type":"bytes","internalType":"bytes"}]},{"name":"signatureData","type":"tuple","internalType":"struct IWavsServiceHandler.SignatureData","components":[{"name":"operators","type":"address[]","internalType":"address[]"},{"name":"signatures","type":"bytes[]","internalType":"bytes[]"},{"name":"referenceBlock","type":"uint32","internalType":"uint32"}]}],"outputs":[],"stateMutability":"view"},{"type":"event","name":"ServiceURIUpdated","inputs":[{"name":"serviceURI","type":"string","indexed":false,"internalType":"string"}],"anonymous":false},{"type":"error","name":"InvalidSignature","inputs":[]}],"bytecode":{"object":"0x608060405234601c57600e6020565b6108b561002b82396108b590f35b6026565b60405190565b5f80fdfe60806040526004361015610013575b6103cd565b61001d5f3561007c565b8063314f3a49146100775780635f11301b1461007257806398ec1ac91461006d578063b933fa7414610068578063cc922c6a146100635763cd71589e0361000e576103a0565b6102e4565b610244565b61020f565b610183565b6100c4565b60e01c90565b60405190565b5f80fd5b5f80fd5b5f91031261009a57565b61008c565b90565b6100ab9061009f565b9052565b91906100c2905f602085019401906100a2565b565b346100f4576100d4366004610090565b6100f06100df6103f7565b6100e7610082565b918291826100af565b0390f35b610088565b5f80fd5b5f80fd5b5f80fd5b5f80fd5b909182601f830112156101435781359167ffffffffffffffff831161013e57602001926001830284011161013957565b610105565b610101565b6100fd565b90602082820312610179575f82013567ffffffffffffffff8111610174576101709201610109565b9091565b6100f9565b61008c565b5f0190565b346101b25761019c610196366004610148565b906106b9565b6101a4610082565b806101ae8161017e565b0390f35b610088565b60018060a01b031690565b6101cb906101b7565b90565b6101d7816101c2565b036101de57565b5f80fd5b905035906101ef826101ce565b565b9060208282031261020a57610207915f016101e2565b90565b61008c565b3461023f5761023b61022a6102253660046101f1565b610720565b610232610082565b918291826100af565b0390f35b610088565b3461027457610254366004610090565b61027061025f610756565b610267610082565b918291826100af565b0390f35b610088565b5190565b60209181520190565b90825f9392825e0152565b601f801991011690565b6102ba6102c36020936102c8936102b181610279565b9384809361027d565b95869101610286565b610291565b0190565b6102e19160208201915f81840391015261029b565b90565b34610314576102f4366004610090565b6103106102ff61086a565b610307610082565b918291826102cc565b0390f35b610088565b5f80fd5b9081606091031261032b5790565b610319565b9081606091031261033e5790565b610319565b91909160408184031261039b575f81013567ffffffffffffffff8111610396578361036f91830161031d565b92602082013567ffffffffffffffff81116103915761038e9201610330565b90565b6100f9565b6100f9565b61008c565b346103c8576103b0366004610343565b50506103ba610082565b806103c48161017e565b0390f35b610088565b5f80fd5b5f90565b90565b90565b6103ef6103ea6103f4926103d5565b6103d8565b61009f565b90565b6103ff6103d1565b5061040a60056103db565b90565b5090565b634e487b7160e01b5f52604160045260245ffd5b634e487b7160e01b5f52602260045260245ffd5b9060016002830492168015610459575b602083101461045457565b610425565b91607f1691610449565b5f5260205f2090565b601f602091010490565b1b90565b9190600861049591029161048f5f1984610476565b92610476565b9181191691161790565b6104b36104ae6104b89261009f565b6103d8565b61009f565b90565b90565b91906104d46104cf6104dc9361049f565b6104bb565b90835461047a565b9055565b6104f2916104ec6103d1565b916104be565b565b5b818110610500575050565b8061050d5f6001936104e0565b016104f5565b9190601f8111610523575b505050565b61052f61055493610463565b90602061053b8461046c565b8301931061055c575b61054d9061046c565b01906104f4565b5f808061051e565b915061054d81929050610544565b1c90565b9061057e905f199060080261056a565b191690565b8161058d9161056e565b906002021790565b916105a0908261040d565b9067ffffffffffffffff821161065f576105c4826105be8554610439565b85610513565b5f90601f83116001146105f7579180916105e6935f926105eb575b5050610583565b90555b565b90915001355f806105df565b601f1983169161060685610463565b925f5b8181106106475750916002939185600196941061062d575b505050020190556105e9565b61063d910135601f84169061056e565b90555f8080610621565b91936020600181928787013581550195019201610609565b610411565b9061066f9291610595565b565b90825f939282370152565b91906106968161068f8161069b9561027d565b8095610671565b610291565b0190565b90916106b69260208301925f81850391015261067c565b90565b6106c58183905f610664565b907fd2f056df94c31bdb3b4e16080f2ac6dbd4233c6001058d94afc3ad1242dff488916106fc6106f3610082565b9283928361069f565b0390a1565b90565b61071861071361071d92610701565b6103d8565b61009f565b90565b506107296103d1565b506107346001610704565b90565b90565b61074e61074961075392610737565b6103d8565b61009f565b90565b61075e6103d1565b50610769600361073a565b90565b606090565b60209181520190565b905f929180549061079461078d83610439565b8094610771565b916001811690815f146107eb57506001146107af575b505050565b6107bc9192939450610463565b915f925b8184106107d357505001905f80806107aa565b600181602092959395548486015201910192906107c0565b92949550505060ff19168252151560200201905f80806107aa565b906108109161077a565b90565b9061081d90610291565b810190811067ffffffffffffffff82111761083757604052565b610411565b9061085c6108559261084c610082565b93848092610806565b0383610813565b565b6108679061083c565b90565b61087261076c565b5061087c5f61085e565b9056fea26469706673582212202a97fe03ad1ef2a04d479f926bf0a5ed2f8bf9a4b6af43a4f93cd76891cad17d64736f6c634300081c0033","linkReferences":{}},"methodIdentifiers":{"getLastCheckpointThresholdWeight()":"b933fa74","getLastCheckpointTotalWeight()":"314f3a49","getOperatorWeight(address)":"98ec1ac9","getServiceURI()":"cc922c6a","setServiceURI(string)":"5f11301b","validate((bytes20,bytes12,bytes),(address[],bytes[],uint32))":"cd71589e"},"id":4}