{"abi":[{"type":"constructor","inputs":[{"name":"_avsDirectory","type":"address","internalType":"address"},{"name":"_stakeRegistry","type":"address","internalType":"address"},{"name":"_rewardsCoordinator","type":"address","internalType":"address"},{"name":"_delegationManager","type":"address","internalType":"address"}],"stateMutability":"nonpayable"},{"type":"function","name":"allTaskHashes","inputs":[{"name":"","type":"uint32","internalType":"uint32"}],"outputs":[{"name":"","type":"bytes32","internalType":"bytes32"}],"stateMutability":"view"},{"type":"function","name":"allTaskResponses","inputs":[{"name":"","type":"address","internalType":"address"},{"name":"","type":"uint32","internalType":"uint32"}],"outputs":[{"name":"","type":"bytes","internalType":"bytes"}],"stateMutability":"view"},{"type":"function","name":"avsDirectory","inputs":[],"outputs":[{"name":"","type":"address","internalType":"address"}],"stateMutability":"view"},{"type":"function","name":"createAVSRewardsSubmission","inputs":[{"name":"rewardsSubmissions","type":"tuple[]","internalType":"struct IRewardsCoordinator.RewardsSubmission[]","components":[{"name":"strategiesAndMultipliers","type":"tuple[]","internalType":"struct IRewardsCoordinator.StrategyAndMultiplier[]","components":[{"name":"strategy","type":"address","internalType":"contract IStrategy"},{"name":"multiplier","type":"uint96","internalType":"uint96"}]},{"name":"token","type":"address","internalType":"contract IERC20"},{"name":"amount","type":"uint256","internalType":"uint256"},{"name":"startTimestamp","type":"uint32","internalType":"uint32"},{"name":"duration","type":"uint32","internalType":"uint32"}]}],"outputs":[],"stateMutability":"nonpayable"},{"type":"function","name":"createNewTask","inputs":[{"name":"name","type":"string","internalType":"string"}],"outputs":[{"name":"","type":"tuple","internalType":"struct IHelloWorldServiceManager.Task","components":[{"name":"name","type":"string","internalType":"string"},{"name":"taskCreatedBlock","type":"uint32","internalType":"uint32"}]}],"stateMutability":"nonpayable"},{"type":"function","name":"createOperatorDirectedAVSRewardsSubmission","inputs":[{"name":"operatorDirectedRewardsSubmissions","type":"tuple[]","internalType":"struct IRewardsCoordinator.OperatorDirectedRewardsSubmission[]","components":[{"name":"strategiesAndMultipliers","type":"tuple[]","internalType":"struct IRewardsCoordinator.StrategyAndMultiplier[]","components":[{"name":"strategy","type":"address","internalType":"contract IStrategy"},{"name":"multiplier","type":"uint96","internalType":"uint96"}]},{"name":"token","type":"address","internalType":"contract IERC20"},{"name":"operatorRewards","type":"tuple[]","internalType":"struct IRewardsCoordinator.OperatorReward[]","components":[{"name":"operator","type":"address","internalType":"address"},{"name":"amount","type":"uint256","internalType":"uint256"}]},{"name":"startTimestamp","type":"uint32","internalType":"uint32"},{"name":"duration","type":"uint32","internalType":"uint32"},{"name":"description","type":"string","internalType":"string"}]}],"outputs":[],"stateMutability":"nonpayable"},{"type":"function","name":"deregisterOperatorFromAVS","inputs":[{"name":"operator","type":"address","internalType":"address"}],"outputs":[],"stateMutability":"nonpayable"},{"type":"function","name":"getOperatorRestakedStrategies","inputs":[{"name":"_operator","type":"address","internalType":"address"}],"outputs":[{"name":"","type":"address[]","internalType":"address[]"}],"stateMutability":"view"},{"type":"function","name":"getRestakeableStrategies","inputs":[],"outputs":[{"name":"","type":"address[]","internalType":"address[]"}],"stateMutability":"view"},{"type":"function","name":"latestTaskNum","inputs":[],"outputs":[{"name":"","type":"uint32","internalType":"uint32"}],"stateMutability":"view"},{"type":"function","name":"owner","inputs":[],"outputs":[{"name":"","type":"address","internalType":"address"}],"stateMutability":"view"},{"type":"function","name":"registerOperatorToAVS","inputs":[{"name":"operator","type":"address","internalType":"address"},{"name":"operatorSignature","type":"tuple","internalType":"struct ISignatureUtils.SignatureWithSaltAndExpiry","components":[{"name":"signature","type":"bytes","internalType":"bytes"},{"name":"salt","type":"bytes32","internalType":"bytes32"},{"name":"expiry","type":"uint256","internalType":"uint256"}]}],"outputs":[],"stateMutability":"nonpayable"},{"type":"function","name":"renounceOwnership","inputs":[],"outputs":[],"stateMutability":"nonpayable"},{"type":"function","name":"respondToTask","inputs":[{"name":"task","type":"tuple","internalType":"struct IHelloWorldServiceManager.Task","components":[{"name":"name","type":"string","internalType":"string"},{"name":"taskCreatedBlock","type":"uint32","internalType":"uint32"}]},{"name":"referenceTaskIndex","type":"uint32","internalType":"uint32"},{"name":"signature","type":"bytes","internalType":"bytes"}],"outputs":[],"stateMutability":"nonpayable"},{"type":"function","name":"respondToTasks","inputs":[{"name":"tasks","type":"tuple[]","internalType":"struct IHelloWorldServiceManager.Task[]","components":[{"name":"name","type":"string","internalType":"string"},{"name":"taskCreatedBlock","type":"uint32","internalType":"uint32"}]},{"name":"referenceTaskIndexes","type":"uint32[]","internalType":"uint32[]"},{"name":"signatures","type":"bytes[]","internalType":"bytes[]"}],"outputs":[],"stateMutability":"nonpayable"},{"type":"function","name":"rewardsInitiator","inputs":[],"outputs":[{"name":"","type":"address","internalType":"address"}],"stateMutability":"view"},{"type":"function","name":"setClaimerFor","inputs":[{"name":"claimer","type":"address","internalType":"address"}],"outputs":[],"stateMutability":"nonpayable"},{"type":"function","name":"setRewardsInitiator","inputs":[{"name":"newRewardsInitiator","type":"address","internalType":"address"}],"outputs":[],"stateMutability":"nonpayable"},{"type":"function","name":"stakeRegistry","inputs":[],"outputs":[{"name":"","type":"address","internalType":"address"}],"stateMutability":"view"},{"type":"function","name":"transferOwnership","inputs":[{"name":"newOwner","type":"address","internalType":"address"}],"outputs":[],"stateMutability":"nonpayable"},{"type":"function","name":"updateAVSMetadataURI","inputs":[{"name":"_metadataURI","type":"string","internalType":"string"}],"outputs":[],"stateMutability":"nonpayable"},{"type":"event","name":"Initialized","inputs":[{"name":"version","type":"uint8","indexed":false,"internalType":"uint8"}],"anonymous":false},{"type":"event","name":"NewTaskCreated","inputs":[{"name":"taskIndex","type":"uint32","indexed":true,"internalType":"uint32"},{"name":"task","type":"tuple","indexed":false,"internalType":"struct IHelloWorldServiceManager.Task","components":[{"name":"name","type":"string","internalType":"string"},{"name":"taskCreatedBlock","type":"uint32","internalType":"uint32"}]}],"anonymous":false},{"type":"event","name":"OwnershipTransferred","inputs":[{"name":"previousOwner","type":"address","indexed":true,"internalType":"address"},{"name":"newOwner","type":"address","indexed":true,"internalType":"address"}],"anonymous":false},{"type":"event","name":"RewardsInitiatorUpdated","inputs":[{"name":"prevRewardsInitiator","type":"address","indexed":false,"internalType":"address"},{"name":"newRewardsInitiator","type":"address","indexed":false,"internalType":"address"}],"anonymous":false},{"type":"event","name":"TaskResponded","inputs":[{"name":"taskIndex","type":"uint32","indexed":true,"internalType":"uint32"},{"name":"task","type":"tuple","indexed":false,"internalType":"struct IHelloWorldServiceManager.Task","components":[{"name":"name","type":"string","internalType":"string"},{"name":"taskCreatedBlock","type":"uint32","internalType":"uint32"}]},{"name":"operator","type":"address","indexed":false,"internalType":"address"}],"anonymous":false}],"bytecode":{"object":"0x6101003461019a57601f61235538819003918201601f19168301916001600160401b0383118484101761019e5780849260809460405283398101031261019a57610048816101b2565b90610055602082016101b2565b61006d6060610066604085016101b2565b93016101b2565b9260a05260805260c05260e0525f5460ff8160081c166101455760ff8082161061010b575b60405161218e90816101c7823960805181818161058a015281816109c901528181610f6201528181611234015281816114790152611781015260a051818181610937015281816109f901528181610f8b01526111f0015260c05181818161014201528181610a9f0152610e5b015260e051816118470152f35b60ff90811916175f557f7f26b83ff96e1f2b6a682f133852f6798a09c465da95921460cefb3847402498602060405160ff8152a15f610092565b60405162461bcd60e51b815260206004820152602760248201527f496e697469616c697a61626c653a20636f6e747261637420697320696e697469604482015266616c697a696e6760c81b6064820152608490fd5b5f80fd5b634e487b7160e01b5f52604160045260245ffd5b51906001600160a01b038216820361019a5756fe6080806040526004361015610012575f80fd5b5f905f3560e01c9081632d89f6fc14611a225750806333cfb7b7146117545780633415a49c146112e25780633bc28c8c14611263578063683048351461121f5780636b3aa72e146111db578063715018a61461118057806385edf874146110935780638b00ce7c146110705780638da5cb5b146110485780639926ee7d14610ec3578063a0169ddd14610e36578063a20b99bf14610a61578063a364f4da146109a8578063a98fb3551461091d578063b931b9141461073a578063c20bab7f1461063b578063e481af9d14610565578063f2fde38b1461049c578063fc299dee146104735763fce36c7d14610105575f80fd5b346101e25760203660031901126101e2576004356001600160401b03811161046f57610135903690600401611c10565b610140929192611f75565b7f0000000000000000000000000000000000000000000000000000000000000000825b82811061028d57506001600160a01b031690813b15610289576040519363fce36c7d60e01b8552816024860160206004880152526044850160448360051b87010192828690609e19813603015b8383106101f05788808b8181808c0381838f5af180156101e5576101d15750f35b816101db91611b02565b6101e25780f35b80fd5b6040513d84823e3d90fd5b9091929394956043198a82030186528635828112156102855760206001928582930190608063ffffffff6102738261023961022b878061209e565b60a0885260a08801916120d2565b95898060a01b0361024b898301611a91565b1688870152604081013560408701528361026760608301611a6a565b16606087015201611a6a565b169101529801960194930191906101b0565b8980fd5b8280fd5b8360206102ee6001600160a01b036102b0836102aa878a8d612136565b01612072565b1660406102be86898c612136565b6040516323b872dd60e01b8152336004820152306024820152910135604482015293849283919082906064820190565b03925af1801561040c57610453575b506001600160a01b0361031660206102aa84878a612136565b604051636eb1769f60e11b81523060048201526001600160a01b03851660248201529160209183916044918391165afa90811561040c57859187918391610417575b506020916103c391610390906040610389888b6001600160a01b036103828a6102aa85858c612136565b1696612136565b0135612065565b60405163095ea7b360e01b81526001600160a01b0388166004820152602481019190915293849283919082906044820190565b03925af1801561040c5790600192916103de575b5001610163565b6103fe9060203d8111610405575b6103f68183611b02565b810190612086565b505f6103d7565b503d6103ec565b6040513d87823e3d90fd5b925050506020813d821161044b575b8161043360209383611b02565b810103126104475751849086906020610358565b5f80fd5b3d9150610426565b61046a9060203d8111610405576103f68183611b02565b6102fd565b5080fd5b50346101e257806003193601126101e2576065546040516001600160a01b039091168152602090f35b50346101e25760203660031901126101e2576104b6611a7b565b6104be611f1d565b6001600160a01b0316801561051157603380546001600160a01b0319811683179091556001600160a01b03167f8be0079c531659141344cd1fd0a4f28419497f9722a3daafe3b4186f6b6457e08380a380f35b60405162461bcd60e51b815260206004820152602660248201527f4f776e61626c653a206e6577206f776e657220697320746865207a65726f206160448201526564647265737360d01b6064820152608490fd5b50346101e257806003193601126101e2576040516302e0740360e31b815281816004817f00000000000000000000000000000000000000000000000000000000000000006001600160a01b03165afa9081156101e5578291610619575b506105ce815151611eeb565b915b8151805182101561060757600191906001600160a01b03906105f3908390611db3565b5151166106008286611db3565b52016105d0565b604051806106158682611aa5565b0390f35b61063591503d8084833e61062d8183611b02565b810190611ddb565b5f6105c2565b50346101e25760403660031901126101e257610655611a7b565b61065d611a57565b9060018060a01b03168252609960205263ffffffff6040832091165f5260205260405f2090604051918181549161069383611c57565b808652926001811690811561071057506001146106cf575b610615856106bb81870382611b02565b604051918291602083526020830190611bc1565b815260208120939250905b8082106106f6575090915081016020016106bb826106156106ab565b9192600181602092548385880101520191019092916106da565b869550610615969350602092506106bb94915060ff191682840152151560051b82010192936106ab565b50346101e25760603660031901126101e2576004356001600160401b03811161046f5761076b903690600401611c10565b906024356001600160401b0381116108c05761078b903690600401611c10565b919092604435926001600160401b0384116109195736602385011215610919578360040135936107ba85611c40565b946107c86040519687611b02565b80865260051b8101602401602086013682116109155760248398959801905b8282106108dc575050505036839003603e190191865b868110156108d8578060051b80860135908582121561028557848310156108c45790899184013563ffffffff81168091036102895761083c848a611db3565b5190303b156108c057604051630d05692760e21b8152606060048201529284928492839261088c92906108759060648601908f01611ce0565b916024850152600319848303016044850152611bc1565b038183305af180156101e5576108a7575b50506001016107fd565b816108b191611b02565b6108bc57875f61089d565b8780fd5b8380fd5b634e487b7160e01b8a52603260045260248afd5b8780f35b81989598356001600160401b03811161091157602091610903839260243691890101611b68565b8152019101909794976107e7565b8a80fd5b8880fd5b8580fd5b50346101e2578061092d36611b86565b610935611f1d565b7f00000000000000000000000000000000000000000000000000000000000000006001600160a01b0316803b156109a45760405163a98fb35560e01b8152602060048201529183918391829084908290610993906024830190611bc1565b03925af180156101e5576101d15750f35b5050fd5b50346101e25760203660031901126101e257806109c3611a7b565b6109f7337f00000000000000000000000000000000000000000000000000000000000000006001600160a01b031614611d2e565b7f00000000000000000000000000000000000000000000000000000000000000006001600160a01b031690813b156109a4576040516351b27a6d60e11b81526001600160a01b0390911660048201529082908290602490829084905af180156101e5576101d15750f35b50346101e25760203660031901126101e2576004356001600160401b03811161046f57610a92903690600401611c10565b610a9d929192611f75565b7f0000000000000000000000000000000000000000000000000000000000000000825b828110610c4e5750919283926001600160a01b031690813b15610c4957935060405191634e5cd2fd60e11b835280604484013060048601526040602486015252606483019060648160051b850101958092869160be19813603015b848410610b3c578880898181808f0381838e5af180156101e5576101d15750f35b878a0360631901835285358181121561028557820199610b6d610b5f8c8061209e565b60c0845260c08401916120d2565b9a6001600160a01b03610b8260208301611a91565b1660208301526020610b97604083018361209e565b848f036040860152808f529d9091019c8c5b818110610c18575050506020610c088c9d600194610bfa8563ffffffff610bd36060889901611a6a565b16606084015263ffffffff610bea60808301611a6a565b16608084015260a0810190611c8f565b9160a0818503910152611cc0565b9801940194019392959950610b1b565b90919d60408f60019260208392858060a01b03610c3482611a91565b16835201356020820152019f01929101610ba9565b505050fd5b909291829483955b610c6e610c6485858561200e565b6040810190612030565b9050871015610cbe57610c85610c6485858561200e565b881015610caa576001916020610ca2928a60061b01013590612065565b960195610c56565b634e487b7160e01b86526032600452602486fd5b909550929390929091906001600160a01b03610ce060206102aa85888b61200e565b6040516323b872dd60e01b81523360048201523060248201526044810184905291602091839160649183918b91165af18015610e0f57610e1a575b506001600160a01b03610d3460206102aa85888b61200e565b604051636eb1769f60e11b81523060048201526001600160a01b03861660248201529160209183916044918391165afa908115610e0f57908692918391610dd8575b50602091610390610d9f928a610d98866102aa8a8d60018060a01b039561200e565b1692612065565b03925af1801561040c579060019291610dba575b5001610ac0565b610dd19060203d8111610405576103f68183611b02565b505f610db3565b9250506020823d8211610e07575b81610df360209383611b02565b810103126104475790518591906020610d76565b3d9150610de6565b6040513d88823e3d90fd5b610e319060203d8111610405576103f68183611b02565b610d1b565b50346101e25760203660031901126101e25780610e51611a7b565b610e59611f1d565b7f00000000000000000000000000000000000000000000000000000000000000006001600160a01b031690813b156109a45760405163a0169ddd60e01b81526001600160a01b0390911660048201529082908290602490829084905af180156101e5576101d15750f35b503461044757604036600319011261044757610edd611a7b565b602435906001600160401b03821161044757606060031983360301126104475760405190606082018281106001600160401b038211176110345760405282600401356001600160401b03811161044757610f3d9060043691860101611b68565b82526020820191602484013583526044604082019401358452610f8960018060a01b037f0000000000000000000000000000000000000000000000000000000000000000163314611d2e565b7f00000000000000000000000000000000000000000000000000000000000000006001600160a01b031690813b15610447575f610ffc93819560405197889687958694639926ee7d60e01b865260018060a01b0316600486015260406024860152516060604486015260a4850190611bc1565b9151606484015251608483015203925af180156110295761101b575080f35b61102791505f90611b02565b005b6040513d5f823e3d90fd5b634e487b7160e01b5f52604160045260245ffd5b34610447575f366003190112610447576033546040516001600160a01b039091168152602090f35b34610447575f36600319011261044757602063ffffffff60975416604051908152f35b34610447576110a136611b86565b6110a9611d15565b506110b2611d15565b90815263ffffffff4316602082015260405160208101906110e5816110d78585611be5565b03601f198101835282611b02565b51902063ffffffff609754165f52609860205260405f205560975490600163ffffffff8316807f58180a6a0403a63c2b5ce4b85d129d46a80d37851b2216bd0a98b59e7309b8476040518061113a8782611be5565b0390a2019163ffffffff831161116c5763ffffffff61061593169063ffffffff19161760975560405191829182611be5565b634e487b7160e01b5f52601160045260245ffd5b34610447575f36600319011261044757611198611f1d565b603380546001600160a01b031981169091555f906001600160a01b03167f8be0079c531659141344cd1fd0a4f28419497f9722a3daafe3b4186f6b6457e08280a3005b34610447575f366003190112610447576040517f00000000000000000000000000000000000000000000000000000000000000006001600160a01b03168152602090f35b34610447575f366003190112610447576040517f00000000000000000000000000000000000000000000000000000000000000006001600160a01b03168152602090f35b346104475760203660031901126104475761127c611a7b565b611284611f1d565b606554604080516001600160a01b038084168252841660208201529192917fe11cddf1816a43318ca175bbc52cd0185436e9cbead7c83acc54a73e461717e39190a16001600160a01b03166001600160a01b03199190911617606555005b34610447576060366003190112610447576004356001600160401b038111610447573681900360048201604060031983011261044757611320611a57565b916044356001600160401b03811161044757611340903690600401611b68565b9363ffffffff604051602081019060208252611363816110d76040820189611ce0565b519020941693845f52609860205260405f2054036116e957335f52609960205260405f20845f5260205261139a60405f2054611c57565b611691578235916022190182121561044757016004810135906001600160401b0382116104475760240190803603821361044757611405602760405183819460208301966602432b6363796160cd1b88528484013781015f838201520301601f198101835282611b02565b51902060405160208101917f19457468657265756d205369676e6564204d6573736167653a0a3332000000008352603c820152603c8152611447605c82611b02565b51902060405190630b135d3f60e11b8252600482015260406024820152602081806114756044820188611bc1565b03817f00000000000000000000000000000000000000000000000000000000000000006001600160a01b03165afa908115611029575f9161164e575b506001600160e01b031916630b135d3f60e11b0361044757335f52609960205260405f20825f5260205260405f2083516001600160401b038111611034576114f98254611c57565b601f8111611609575b506020601f821160011461158057908061156a9493927f8eb2d2fcccf5801e10ff58cd73e8781ba923122963789378771f03c1148b023e96975f92611575575b50508160011b915f199060031b1c19161790555b604051918291604083526040830190611ce0565b3360208301520390a2005b015190508780611542565b601f19821695835f52815f20965f5b8181106115f1575096600192849261156a9796957f8eb2d2fcccf5801e10ff58cd73e8781ba923122963789378771f03c1148b023e999a106115d9575b505050811b019055611556565b01515f1960f88460031b161c191690558780806115cc565b8383015189556001909801976020938401930161158f565b825f5260205f20601f830160051c81019160208410611644575b601f0160051c01905b8181106116395750611502565b5f815560010161162c565b9091508190611623565b90506020813d602011611689575b8161166960209383611b02565b8101031261044757516001600160e01b03198116810361044757846114b1565b3d915061165c565b60405162461bcd60e51b815260206004820152602a60248201527f4f70657261746f722068617320616c726561647920726573706f6e64656420746044820152696f20746865207461736b60b01b6064820152608490fd5b60405162461bcd60e51b815260206004820152603d60248201527f737570706c696564207461736b20646f6573206e6f74206d617463682074686560448201527f206f6e65207265636f7264656420696e2074686520636f6e74726163740000006064820152608490fd5b346104475760203660031901126104475761176d611a7b565b6040516302e0740360e31b81525f816004817f00000000000000000000000000000000000000000000000000000000000000006001600160a01b03165afa908115611029575f91611a08575b5090815151906117c882611c40565b906117d66040519283611b02565b8282526117e283611c40565b602083019490601f19013686375f5b8481106119da57505060408051639004134760e01b81526001600160a01b0390921660048301526024820152815160448201819052909384916064830191905f5b8181106119b857505f939283900391508290507f00000000000000000000000000000000000000000000000000000000000000006001600160a01b03165afa928315611029575f93611926575b505f5f5b8381106118fa575061189490611eeb565b925f905f5b8481106118ae57604051806106158882611aa5565b6118b88183611db3565b516118c6575b600101611899565b916001906118f2906001600160a01b036118e08688611db3565b51166118ec828a611db3565b52611edd565b9290506118be565b6119048186611db3565b51611912575b600101611883565b9061191e600191611edd565b91905061190a565b9092503d805f833e6119388183611b02565b810190602081830312610447578051906001600160401b03821161044757019080601f8301121561044757815161196e81611c40565b9261197c6040519485611b02565b81845260208085019260051b82010192831161044757602001905b8282106119a857505050918361187f565b8151815260209182019101611997565b82516001600160a01b0316845287945060209384019390920191600101611832565b600190818060a09895981b036119f1828551611db3565b5151166119fe8287611db3565b52019491946117f1565b611a1c91503d805f833e61062d8183611b02565b826117b9565b34610447576020366003190112610447576004359063ffffffff8216809203610447576020915f526098825260405f20548152f35b6024359063ffffffff8216820361044757565b359063ffffffff8216820361044757565b600435906001600160a01b038216820361044757565b35906001600160a01b038216820361044757565b60206040818301928281528451809452019201905f5b818110611ac85750505090565b82516001600160a01b0316845260209384019390920191600101611abb565b604081019081106001600160401b0382111761103457604052565b90601f801991011681019081106001600160401b0382111761103457604052565b9291926001600160401b0382116110345760405191611b4c601f8201601f191660200184611b02565b829481845281830111610447578281602093845f960137010152565b9080601f8301121561044757816020611b8393359101611b23565b90565b602060031982011261044757600435906001600160401b038211610447578060238301121561044757816024611b8393600401359101611b23565b805180835260209291819084018484015e5f828201840152601f01601f1916010190565b60208152604063ffffffff6020611c06855184838701526060860190611bc1565b9401511691015290565b9181601f84011215610447578235916001600160401b038311610447576020808501948460051b01011161044757565b6001600160401b0381116110345760051b60200190565b90600182811c92168015611c85575b6020831014611c7157565b634e487b7160e01b5f52602260045260245ffd5b91607f1691611c66565b9035601e19823603018112156104475701602081359101916001600160401b03821161044757813603831361044757565b908060209392818452848401375f828201840152601f01601f1916010190565b90602063ffffffff611d0e82611d07611cf98780611c8f565b604088526040880191611cc0565b9501611a6a565b1691015290565b60405190611d2282611ae7565b5f602083606081520152565b15611d3557565b60405162461bcd60e51b815260206004820152604a60248201527f4543445341536572766963654d616e61676572426173652e6f6e6c795374616b60448201527f6552656769737472793a2063616c6c6572206973206e6f7420746865207374616064820152696b65526567697374727960b01b608482015260a490fd5b8051821015611dc75760209160051b010190565b634e487b7160e01b5f52603260045260245ffd5b602081830312610447578051906001600160401b0382116104475701906020828203126104475760405191602083018381106001600160401b03821117611034576040528051906001600160401b038211610447570181601f8201121561044757805190611e4882611c40565b92611e566040519485611b02565b82845260208085019360061b8301019181831161044757602001925b828410611e825750505050815290565b6040848303126104475760405190611e9982611ae7565b84516001600160a01b03811681036104475782526020850151906bffffffffffffffffffffffff821682036104475782602092836040950152815201930192611e72565b5f19811461116c5760010190565b90611ef582611c40565b611f026040519182611b02565b8281528092611f13601f1991611c40565b0190602036910137565b6033546001600160a01b03163303611f3157565b606460405162461bcd60e51b815260206004820152602060248201527f4f776e61626c653a2063616c6c6572206973206e6f7420746865206f776e65726044820152fd5b6065546001600160a01b03163303611f8957565b60405162461bcd60e51b815260206004820152605160248201527f4543445341536572766963654d616e61676572426173652e6f6e6c795265776160448201527f726473496e69746961746f723a2063616c6c6572206973206e6f7420746865206064820152703932bbb0b932399034b734ba34b0ba37b960791b608482015260a490fd5b9190811015611dc75760051b8101359060be1981360301821215610447570190565b903590601e198136030182121561044757018035906001600160401b03821161044757602001918160061b3603831361044757565b9190820180921161116c57565b356001600160a01b03811681036104475790565b90816020910312610447575180151581036104475790565b9035601e19823603018112156104475701602081359101916001600160401b038211610447578160061b3603831361044757565b916020908281520191905f905b8082106120ec5750505090565b909192833560018060a01b0381168091036104475781526020840135906bffffffffffffffffffffffff8216809203610447576040816001936020839401520194019201906120df565b9190811015611dc75760051b81013590609e198136030182121561044757019056fea26469706673582212207550739e7a0943b66bf113e5249c7459e4819b5dc508cccd6bc578b821d367b764736f6c634300081c0033","linkReferences":{}},"methodIdentifiers":{"allTaskHashes(uint32)":"2d89f6fc","allTaskResponses(address,uint32)":"c20bab7f","avsDirectory()":"6b3aa72e","createAVSRewardsSubmission(((address,uint96)[],address,uint256,uint32,uint32)[])":"fce36c7d","createNewTask(string)":"85edf874","createOperatorDirectedAVSRewardsSubmission(((address,uint96)[],address,(address,uint256)[],uint32,uint32,string)[])":"a20b99bf","deregisterOperatorFromAVS(address)":"a364f4da","getOperatorRestakedStrategies(address)":"33cfb7b7","getRestakeableStrategies()":"e481af9d","latestTaskNum()":"8b00ce7c","owner()":"8da5cb5b","registerOperatorToAVS(address,(bytes,bytes32,uint256))":"9926ee7d","renounceOwnership()":"715018a6","respondToTask((string,uint32),uint32,bytes)":"3415a49c","respondToTasks((string,uint32)[],uint32[],bytes[])":"b931b914","rewardsInitiator()":"fc299dee","setClaimerFor(address)":"a0169ddd","setRewardsInitiator(address)":"3bc28c8c","stakeRegistry()":"68304835","transferOwnership(address)":"f2fde38b","updateAVSMetadataURI(string)":"a98fb355"},"id":0}