{"abi":[{"type":"function","name":"blsApkRegistry","inputs":[],"outputs":[{"name":"","type":"address","internalType":"contract IBLSApkRegistry"}],"stateMutability":"view"},{"type":"function","name":"deregisterOperator","inputs":[{"name":"quorumNumbers","type":"bytes","internalType":"bytes"},{"name":"","type":"bytes","internalType":"bytes"}],"outputs":[],"stateMutability":"nonpayable"},{"type":"function","name":"ejectOperator","inputs":[{"name":"operator","type":"address","internalType":"address"},{"name":"quorumNumbers","type":"bytes","internalType":"bytes"}],"outputs":[],"stateMutability":"nonpayable"},{"type":"function","name":"getCurrentQuorumBitmap","inputs":[{"name":"operatorId","type":"bytes32","internalType":"bytes32"}],"outputs":[{"name":"","type":"uint192","internalType":"uint192"}],"stateMutability":"view"},{"type":"function","name":"getFromTaskNumberForOperator","inputs":[{"name":"operator","type":"address","internalType":"address"}],"outputs":[{"name":"","type":"uint32","internalType":"uint32"}],"stateMutability":"view"},{"type":"function","name":"getOperator","inputs":[{"name":"operator","type":"address","internalType":"address"}],"outputs":[{"name":"","type":"tuple","internalType":"struct IRegistryCoordinator.OperatorInfo","components":[{"name":"operatorId","type":"bytes32","internalType":"bytes32"},{"name":"status","type":"uint8","internalType":"enum IRegistryCoordinator.OperatorStatus"}]}],"stateMutability":"view"},{"type":"function","name":"getOperatorFromId","inputs":[{"name":"operatorId","type":"bytes32","internalType":"bytes32"}],"outputs":[{"name":"","type":"address","internalType":"address"}],"stateMutability":"view"},{"type":"function","name":"getOperatorId","inputs":[{"name":"operator","type":"address","internalType":"address"}],"outputs":[{"name":"","type":"bytes32","internalType":"bytes32"}],"stateMutability":"view"},{"type":"function","name":"getOperatorSetParams","inputs":[{"name":"quorumNumber","type":"uint8","internalType":"uint8"}],"outputs":[{"name":"","type":"tuple","internalType":"struct IRegistryCoordinator.OperatorSetParam","components":[{"name":"maxOperatorCount","type":"uint32","internalType":"uint32"},{"name":"kickBIPsOfOperatorStake","type":"uint16","internalType":"uint16"},{"name":"kickBIPsOfTotalStake","type":"uint16","internalType":"uint16"}]}],"stateMutability":"view"},{"type":"function","name":"getOperatorStatus","inputs":[{"name":"operator","type":"address","internalType":"address"}],"outputs":[{"name":"","type":"uint8","internalType":"enum IRegistryCoordinator.OperatorStatus"}],"stateMutability":"view"},{"type":"function","name":"getQuorumBitmapAtBlockNumberByIndex","inputs":[{"name":"operatorId","type":"bytes32","internalType":"bytes32"},{"name":"blockNumber","type":"uint32","internalType":"uint32"},{"name":"index","type":"uint256","internalType":"uint256"}],"outputs":[{"name":"","type":"uint192","internalType":"uint192"}],"stateMutability":"view"},{"type":"function","name":"getQuorumBitmapHistoryLength","inputs":[{"name":"operatorId","type":"bytes32","internalType":"bytes32"}],"outputs":[{"name":"","type":"uint256","internalType":"uint256"}],"stateMutability":"view"},{"type":"function","name":"getQuorumBitmapIndicesAtBlockNumber","inputs":[{"name":"blockNumber","type":"uint32","internalType":"uint32"},{"name":"operatorIds","type":"bytes32[]","internalType":"bytes32[]"}],"outputs":[{"name":"","type":"uint32[]","internalType":"uint32[]"}],"stateMutability":"view"},{"type":"function","name":"getQuorumBitmapUpdateByIndex","inputs":[{"name":"operatorId","type":"bytes32","internalType":"bytes32"},{"name":"index","type":"uint256","internalType":"uint256"}],"outputs":[{"name":"","type":"tuple","internalType":"struct IRegistryCoordinator.QuorumBitmapUpdate","components":[{"name":"updateBlockNumber","type":"uint32","internalType":"uint32"},{"name":"nextUpdateBlockNumber","type":"uint32","internalType":"uint32"},{"name":"quorumBitmap","type":"uint192","internalType":"uint192"}]}],"stateMutability":"view"},{"type":"function","name":"indexRegistry","inputs":[],"outputs":[{"name":"","type":"address","internalType":"contract IIndexRegistry"}],"stateMutability":"view"},{"type":"function","name":"numRegistries","inputs":[],"outputs":[{"name":"","type":"uint256","internalType":"uint256"}],"stateMutability":"view"},{"type":"function","name":"operatorIdToQuorumBitmap","inputs":[{"name":"pubkeyHash","type":"bytes32","internalType":"bytes32"}],"outputs":[{"name":"","type":"uint256","internalType":"uint256"}],"stateMutability":"view"},{"type":"function","name":"owner","inputs":[],"outputs":[{"name":"","type":"address","internalType":"address"}],"stateMutability":"view"},{"type":"function","name":"pubkeyRegistrationMessageHash","inputs":[{"name":"operator","type":"address","internalType":"address"}],"outputs":[{"name":"","type":"tuple","internalType":"struct BN254.G1Point","components":[{"name":"X","type":"uint256","internalType":"uint256"},{"name":"Y","type":"uint256","internalType":"uint256"}]}],"stateMutability":"view"},{"type":"function","name":"quorumCount","inputs":[],"outputs":[{"name":"","type":"uint8","internalType":"uint8"}],"stateMutability":"view"},{"type":"function","name":"quorumUpdateBlockNumber","inputs":[{"name":"quorumNumber","type":"uint8","internalType":"uint8"}],"outputs":[{"name":"","type":"uint256","internalType":"uint256"}],"stateMutability":"view"},{"type":"function","name":"registerOperator","inputs":[{"name":"quorumNumbers","type":"bytes","internalType":"bytes"},{"name":"","type":"bytes","internalType":"bytes"}],"outputs":[],"stateMutability":"nonpayable"},{"type":"function","name":"registries","inputs":[{"name":"","type":"uint256","internalType":"uint256"}],"outputs":[{"name":"","type":"address","internalType":"address"}],"stateMutability":"view"},{"type":"function","name":"stakeRegistry","inputs":[],"outputs":[{"name":"","type":"address","internalType":"contract IStakeRegistry"}],"stateMutability":"view"},{"type":"function","name":"updateSocket","inputs":[{"name":"socket","type":"string","internalType":"string"}],"outputs":[],"stateMutability":"nonpayable"},{"type":"event","name":"ChurnApproverUpdated","inputs":[{"name":"prevChurnApprover","type":"address","indexed":false,"internalType":"address"},{"name":"newChurnApprover","type":"address","indexed":false,"internalType":"address"}],"anonymous":false},{"type":"event","name":"EjectorUpdated","inputs":[{"name":"prevEjector","type":"address","indexed":false,"internalType":"address"},{"name":"newEjector","type":"address","indexed":false,"internalType":"address"}],"anonymous":false},{"type":"event","name":"OperatorDeregistered","inputs":[{"name":"operator","type":"address","indexed":true,"internalType":"address"},{"name":"operatorId","type":"bytes32","indexed":true,"internalType":"bytes32"}],"anonymous":false},{"type":"event","name":"OperatorRegistered","inputs":[{"name":"operator","type":"address","indexed":true,"internalType":"address"},{"name":"operatorId","type":"bytes32","indexed":true,"internalType":"bytes32"}],"anonymous":false},{"type":"event","name":"OperatorSetParamsUpdated","inputs":[{"name":"quorumNumber","type":"uint8","indexed":true,"internalType":"uint8"},{"name":"operatorSetParams","type":"tuple","indexed":false,"internalType":"struct IRegistryCoordinator.OperatorSetParam","components":[{"name":"maxOperatorCount","type":"uint32","internalType":"uint32"},{"name":"kickBIPsOfOperatorStake","type":"uint16","internalType":"uint16"},{"name":"kickBIPsOfTotalStake","type":"uint16","internalType":"uint16"}]}],"anonymous":false},{"type":"event","name":"OperatorSocketUpdate","inputs":[{"name":"operatorId","type":"bytes32","indexed":true,"internalType":"bytes32"},{"name":"socket","type":"string","indexed":false,"internalType":"string"}],"anonymous":false},{"type":"event","name":"QuorumBlockNumberUpdated","inputs":[{"name":"quorumNumber","type":"uint8","indexed":true,"internalType":"uint8"},{"name":"blocknumber","type":"uint256","indexed":false,"internalType":"uint256"}],"anonymous":false}],"bytecode":{"object":"0x608060405234801561001057600080fd5b50610b7a806100206000396000f3fe608060405234801561001057600080fd5b50600436106101735760003560e01c806368304835116100de5780639e9923c211610097578063d72d8dd611610071578063d72d8dd61461035e578063d80b407014610365578063e65797ad14610373578063fd39105a146103d657600080fd5b80639e9923c2146102cd578063ae124d4014610318578063c391425e1461033b57600080fd5b806368304835146102cd5780636e3b17db146102e85780637330950114610178578063871ef049146102fb5780638da5cb5b146102cd5780639aa1653d1461030957600080fd5b8063296bb06411610130578063296bb064146102465780633c2a7f4c1461026c5780635865c60c1461029a5780635df45946146102cd5780636347c9001461024657806367e098e1146102d457600080fd5b806303fd34921461017857806304ec63511461019f5780630cf4b767146101ce57806313542a4e146101e15780631eb812da146101ef578063249a0c4214610238575b600080fd5b61018c610186366004610662565b50600090565b6040519081526020015b60405180910390f35b6101b66101ad36600461068f565b60009392505050565b6040516001600160c01b039091168152602001610196565b6101df6101dc366004610763565b50565b005b61018c6101863660046107cb565b6102026101fd3660046107ed565b6103f1565b60408051825163ffffffff908116825260208085015190911690820152918101516001600160c01b031690820152606001610196565b61018c61018636600461080f565b610254610186366004610662565b6040516001600160a01b039091168152602001610196565b61027f61027a3660046107cb565b610415565b60408051825181526020928301519281019290925201610196565b6102c06102a83660046107cb565b50604080518082019091526000808252602082015290565b6040516101969190610854565b6000610254565b6101df6102e23660046108bf565b50505050565b6101df6102f636600461092b565b505050565b6101b6610186366004610662565b60405160008152602001610196565b6103266101863660046107cb565b60405163ffffffff9091168152602001610196565b61035161034936600461097e565b606092915050565b6040516101969190610a37565b600061018c565b6101df6102f6366004610a81565b6103a261038136600461080f565b50604080516060810182526000808252602082018190529181019190915290565b60408051825163ffffffff16815260208084015161ffff908116918301919091529282015190921690820152606001610196565b6103e46101863660046107cb565b6040516101969190610af4565b60408051606081018252600080825260208201819052918101919091525b92915050565b6040805180820190915260008082526020820152604080516001600160a01b038416602082015261040f910160405160208183030381529060405280519060200120610461565b919050565b604080518082019091526000808252602082015260008080610491600080516020610b2583398151915286610b02565b90505b61049d816104f1565b9093509150600080516020610b258339815191528283098314156104d7576040805180820190915290815260208101919091529392505050565b600080516020610b25833981519152600182089050610494565b60008080600080516020610b258339815191526003600080516020610b2583398151915286600080516020610b25833981519152888909090890506000610567827f0c19139cb84c680a6e14116da060561765e05aa45a1c72a34f082305b61f3f52600080516020610b25833981519152610573565b91959194509092505050565b60008061057e610626565b610586610644565b602080825281810181905260408201819052606082018890526080820187905260a082018690528260c08360056107d05a03fa92508280156105c7576105c9565bfe5b508261061b5760405162461bcd60e51b815260206004820152601a60248201527f424e3235342e6578704d6f643a2063616c6c206661696c757265000000000000604482015260640160405180910390fd5b505195945050505050565b60405180602001604052806001906020820280368337509192915050565b6040518060c001604052806006906020820280368337509192915050565b60006020828403121561067457600080fd5b5035919050565b803563ffffffff8116811461045c57600080fd5b6000806000606084860312156106a457600080fd5b833592506106b46020850161067b565b9150604084013590509250925092565b634e487b7160e01b600052604160045260246000fd5b604051601f8201601f1916810167ffffffffffffffff81118282101715610703576107036106c4565b604052919050565b600067ffffffffffffffff831115610725576107256106c4565b610738601f8401601f19166020016106da565b905082815283838301111561074c57600080fd5b828260208301376000602084830101529392505050565b60006020828403121561077557600080fd5b813567ffffffffffffffff81111561078c57600080fd5b8201601f8101841361079d57600080fd5b6107ac8482356020840161070b565b949350505050565b80356001600160a01b038116811461045c57600080fd5b6000602082840312156107dd57600080fd5b6107e6826107b4565b9392505050565b6000806040838503121561080057600080fd5b50508035926020909101359150565b60006020828403121561082157600080fd5b813560ff811681146107e657600080fd5b6003811061085057634e487b7160e01b600052602160045260246000fd5b9052565b81518152602080830151604083019161086f90840182610832565b5092915050565b60008083601f84011261088857600080fd5b50813567ffffffffffffffff8111156108a057600080fd5b6020830191508360208285010111156108b857600080fd5b9250929050565b600080600080604085870312156108d557600080fd5b843567ffffffffffffffff808211156108ed57600080fd5b6108f988838901610876565b9096509450602087013591508082111561091257600080fd5b5061091f87828801610876565b95989497509550505050565b60008060006040848603121561094057600080fd5b610949846107b4565b9250602084013567ffffffffffffffff81111561096557600080fd5b61097186828701610876565b9497909650939450505050565b6000806040838503121561099157600080fd5b61099a8361067b565b915060208084013567ffffffffffffffff808211156109b857600080fd5b818601915086601f8301126109cc57600080fd5b8135818111156109de576109de6106c4565b8060051b91506109ef8483016106da565b8181529183018401918481019089841115610a0957600080fd5b938501935b83851015610a2757843582529385019390850190610a0e565b8096505050505050509250929050565b6020808252825182820181905260009190848201906040850190845b81811015610a7557835163ffffffff1683529284019291840191600101610a53565b50909695505050505050565b600080600060408486031215610a9657600080fd5b833567ffffffffffffffff80821115610aae57600080fd5b818601915086601f830112610ac257600080fd5b610ad18783356020850161070b565b94506020860135915080821115610ae757600080fd5b5061097186828701610876565b6020810161040f8284610832565b600082610b1f57634e487b7160e01b600052601260045260246000fd5b50069056fe30644e72e131a029b85045b68181585d97816a916871ca8d3c208c16d87cfd47a2646970667358221220676994b08f5473f3dffd927284067174f66bdbe3e88f27304782e5ddfcde536864736f6c634300080c0033","linkReferences":{}},"methodIdentifiers":{"blsApkRegistry()":"5df45946","deregisterOperator(bytes,bytes)":"67e098e1","ejectOperator(address,bytes)":"6e3b17db","getCurrentQuorumBitmap(bytes32)":"871ef049","getFromTaskNumberForOperator(address)":"ae124d40","getOperator(address)":"5865c60c","getOperatorFromId(bytes32)":"296bb064","getOperatorId(address)":"13542a4e","getOperatorSetParams(uint8)":"e65797ad","getOperatorStatus(address)":"fd39105a","getQuorumBitmapAtBlockNumberByIndex(bytes32,uint32,uint256)":"04ec6351","getQuorumBitmapHistoryLength(bytes32)":"03fd3492","getQuorumBitmapIndicesAtBlockNumber(uint32,bytes32[])":"c391425e","getQuorumBitmapUpdateByIndex(bytes32,uint256)":"1eb812da","indexRegistry()":"9e9923c2","numRegistries()":"d72d8dd6","operatorIdToQuorumBitmap(bytes32)":"73309501","owner()":"8da5cb5b","pubkeyRegistrationMessageHash(address)":"3c2a7f4c","quorumCount()":"9aa1653d","quorumUpdateBlockNumber(uint8)":"249a0c42","registerOperator(bytes,bytes)":"d80b4070","registries(uint256)":"6347c900","stakeRegistry()":"68304835","updateSocket(string)":"0cf4b767"},"id":161}