{"abi":[{"type":"constructor","inputs":[{"name":"_strategyManager","type":"address","internalType":"contract IStrategyManager"}],"stateMutability":"nonpayable"},{"type":"function","name":"blacklistTokens","inputs":[{"name":"tokens","type":"address[]","internalType":"contract IERC20[]"}],"outputs":[],"stateMutability":"nonpayable"},{"type":"function","name":"deployNewStrategy","inputs":[{"name":"token","type":"address","internalType":"contract IERC20"}],"outputs":[{"name":"newStrategy","type":"address","internalType":"contract IStrategy"}],"stateMutability":"nonpayable"},{"type":"function","name":"deployedStrategies","inputs":[{"name":"","type":"address","internalType":"contract IERC20"}],"outputs":[{"name":"","type":"address","internalType":"contract IStrategy"}],"stateMutability":"view"},{"type":"function","name":"initialize","inputs":[{"name":"_initialOwner","type":"address","internalType":"address"},{"name":"_pauserRegistry","type":"address","internalType":"contract IPauserRegistry"},{"name":"_initialPausedStatus","type":"uint256","internalType":"uint256"},{"name":"_strategyBeacon","type":"address","internalType":"contract IBeacon"}],"outputs":[],"stateMutability":"nonpayable"},{"type":"function","name":"isBlacklisted","inputs":[{"name":"","type":"address","internalType":"contract IERC20"}],"outputs":[{"name":"","type":"bool","internalType":"bool"}],"stateMutability":"view"},{"type":"function","name":"owner","inputs":[],"outputs":[{"name":"","type":"address","internalType":"address"}],"stateMutability":"view"},{"type":"function","name":"pause","inputs":[{"name":"newPausedStatus","type":"uint256","internalType":"uint256"}],"outputs":[],"stateMutability":"nonpayable"},{"type":"function","name":"pauseAll","inputs":[],"outputs":[],"stateMutability":"nonpayable"},{"type":"function","name":"paused","inputs":[{"name":"index","type":"uint8","internalType":"uint8"}],"outputs":[{"name":"","type":"bool","internalType":"bool"}],"stateMutability":"view"},{"type":"function","name":"paused","inputs":[],"outputs":[{"name":"","type":"uint256","internalType":"uint256"}],"stateMutability":"view"},{"type":"function","name":"pauserRegistry","inputs":[],"outputs":[{"name":"","type":"address","internalType":"contract IPauserRegistry"}],"stateMutability":"view"},{"type":"function","name":"removeStrategiesFromWhitelist","inputs":[{"name":"strategiesToRemoveFromWhitelist","type":"address[]","internalType":"contract IStrategy[]"}],"outputs":[],"stateMutability":"nonpayable"},{"type":"function","name":"renounceOwnership","inputs":[],"outputs":[],"stateMutability":"nonpayable"},{"type":"function","name":"setPauserRegistry","inputs":[{"name":"newPauserRegistry","type":"address","internalType":"contract IPauserRegistry"}],"outputs":[],"stateMutability":"nonpayable"},{"type":"function","name":"setThirdPartyTransfersForbidden","inputs":[{"name":"strategy","type":"address","internalType":"contract IStrategy"},{"name":"value","type":"bool","internalType":"bool"}],"outputs":[],"stateMutability":"nonpayable"},{"type":"function","name":"strategyBeacon","inputs":[],"outputs":[{"name":"","type":"address","internalType":"contract IBeacon"}],"stateMutability":"view"},{"type":"function","name":"strategyManager","inputs":[],"outputs":[{"name":"","type":"address","internalType":"contract IStrategyManager"}],"stateMutability":"view"},{"type":"function","name":"transferOwnership","inputs":[{"name":"newOwner","type":"address","internalType":"address"}],"outputs":[],"stateMutability":"nonpayable"},{"type":"function","name":"unpause","inputs":[{"name":"newPausedStatus","type":"uint256","internalType":"uint256"}],"outputs":[],"stateMutability":"nonpayable"},{"type":"function","name":"whitelistStrategies","inputs":[{"name":"strategiesToWhitelist","type":"address[]","internalType":"contract IStrategy[]"},{"name":"thirdPartyTransfersForbiddenValues","type":"bool[]","internalType":"bool[]"}],"outputs":[],"stateMutability":"nonpayable"},{"type":"event","name":"Initialized","inputs":[{"name":"version","type":"uint8","indexed":false,"internalType":"uint8"}],"anonymous":false},{"type":"event","name":"OwnershipTransferred","inputs":[{"name":"previousOwner","type":"address","indexed":true,"internalType":"address"},{"name":"newOwner","type":"address","indexed":true,"internalType":"address"}],"anonymous":false},{"type":"event","name":"Paused","inputs":[{"name":"account","type":"address","indexed":true,"internalType":"address"},{"name":"newPausedStatus","type":"uint256","indexed":false,"internalType":"uint256"}],"anonymous":false},{"type":"event","name":"PauserRegistrySet","inputs":[{"name":"pauserRegistry","type":"address","indexed":false,"internalType":"contract IPauserRegistry"},{"name":"newPauserRegistry","type":"address","indexed":false,"internalType":"contract IPauserRegistry"}],"anonymous":false},{"type":"event","name":"StrategyBeaconModified","inputs":[{"name":"previousBeacon","type":"address","indexed":false,"internalType":"contract IBeacon"},{"name":"newBeacon","type":"address","indexed":false,"internalType":"contract IBeacon"}],"anonymous":false},{"type":"event","name":"StrategySetForToken","inputs":[{"name":"token","type":"address","indexed":false,"internalType":"contract IERC20"},{"name":"strategy","type":"address","indexed":false,"internalType":"contract IStrategy"}],"anonymous":false},{"type":"event","name":"TokenBlacklisted","inputs":[{"name":"token","type":"address","indexed":false,"internalType":"contract IERC20"}],"anonymous":false},{"type":"event","name":"Unpaused","inputs":[{"name":"account","type":"address","indexed":true,"internalType":"address"},{"name":"newPausedStatus","type":"uint256","indexed":false,"internalType":"uint256"}],"anonymous":false}],"bytecode":{"object":"0x60a03461013657601f611f3938819003918201601f19168301916001600160401b0383118484101761013a5780849260209460405283398101031261013657516001600160a01b03811681036101365760805260335460ff8160081c166100e15760ff808216106100a6575b604051611dea908161014f82396080518181816103e5015281816105b6015281816106240152818161081601528181610a080152610e800152f35b60ff90811916176033557f7f26b83ff96e1f2b6a682f133852f6798a09c465da95921460cefb3847402498602060405160ff8152a15f61006b565b60405162461bcd60e51b815260206004820152602760248201527f496e697469616c697a61626c653a20636f6e747261637420697320696e697469604482015266616c697a696e6760c81b6064820152608490fd5b5f80fd5b634e487b7160e01b5f52604160045260245ffdfe60806040526004361015610011575f80fd5b5f3560e01c806310d67a2f14610154578063136439dd1461014f57806323103c411461014a57806339b70e38146101455780634e5a426314610140578063581dfd651461013b578063595c6a67146101365780635ac86ab7146101315780635c975abb1461012c578063697d54b4146101275780636b9b622914610122578063715018a61461011d578063886f1195146101185780638da5cb5b14610113578063be2030941461010e578063f0062d9a14610109578063f2fde38b14610104578063fabc1cbc146100ff578063fe38b32d146100fa5763fe575a87146100f5575f80fd5b610eef565b610e67565b610d59565b610cc8565b610ca1565b610b97565b610b6f565b610b47565b610aec565b6108ca565b6107ba565b61079d565b61076a565b6106e4565b6106a0565b6105ef565b6105a1565b6103ac565b610212565b61016e565b6001600160a01b0381160361016a57565b5f80fd5b3461016a57602036600319011261016a576004803561018c81610159565b60985460405163755b36bd60e11b81529260209184919082906001600160a01b03165afa91821561020d576101dc926101d7915f916101de575b506001600160a01b03163314610f88565b611525565b005b610200915060203d602011610206575b6101f88183610f43565b810190610f65565b5f6101c6565b503d6101ee565b610f7d565b3461016a57602036600319011261016a5760043560985460405163237dfb4760e11b815233600482015290602090829060249082906001600160a01b03165afa801561020d57610269915f9161031d575b50610ffc565b609954818116036102b257806099557fab40a374bc51de372200a8bc981af8c9ecdc08dfdaef0bb6e09f88f3c616ef3d604051806102ad3394829190602083019252565b0390a2005b60405162461bcd60e51b815260206004820152603860248201527f5061757361626c652e70617573653a20696e76616c696420617474656d70742060448201527f746f20756e70617573652066756e6374696f6e616c69747900000000000000006064820152608490fd5b61033f915060203d602011610345575b6103378183610f43565b810190610fe7565b5f610263565b503d61032d565b9181601f8401121561016a5782359167ffffffffffffffff831161016a576020808501948460051b01011161016a57565b602060031982011261016a576004359067ffffffffffffffff821161016a576103a89160040161034c565b9091565b3461016a576103ba3661037d565b6103c2611612565b6103cb81611093565b915f915f5b81811061045d575050508082526103e357005b7f00000000000000000000000000000000000000000000000000000000000000006001600160a01b0316803b1561016a576040516316bb16b760e31b8152915f91839182908490829061043990600483016111f5565b03925af1801561020d5761044957005b806104575f6101dc93610f43565b80610597565b6104a56104a061049c61049561047c61047786888a6110d9565b6110ee565b6001600160a01b03165f90815260026020526040902090565b5460ff1690565b1590565b6110f8565b6104c66104b961047c6104778486886110d9565b805460ff19166001179055565b7f75519c51f39873ec0e27dd3bbc09549e4865a113f505393fb9eab5898f6418b36105126104f86104778486886110d9565b6040516001600160a01b0390911681529081906020820190565b0390a161054f6105426105296104778486886110d9565b6001600160a01b03165f90815260016020526040902090565b546001600160a01b031690565b6001600160a01b038116610567575b506001016103d0565b8461058b6105909261057c600195988a611183565b6001600160a01b039091169052565b611197565b939061055e565b5f91031261016a57565b3461016a575f36600319011261016a576040517f00000000000000000000000000000000000000000000000000000000000000006001600160a01b03168152602090f35b8015150361016a57565b3461016a575f604036600319011261016a5760043561060d81610159565b6024359061061a826105e5565b610622611612565b7f00000000000000000000000000000000000000000000000000000000000000006001600160a01b031691823b1561016a57604051634e5a426360e01b81526001600160a01b03909216600483015215156024820152905f908290604490829084905af1801561020d57610694575080f35b6101dc91505f90610f43565b3461016a57602036600319011261016a576004356106bd81610159565b6001600160a01b039081165f90815260016020908152604091829020549151919092168152f35b3461016a575f36600319011261016a5760985460405163237dfb4760e11b815233600482015290602090829060249082906001600160a01b03165afa801561020d57610736915f9161031d5750610ffc565b5f196099556040515f1981527fab40a374bc51de372200a8bc981af8c9ecdc08dfdaef0bb6e09f88f3c616ef3d60203392a2005b3461016a57602036600319011261016a5760043560ff811680910361016a5760016020911b806099541614604051908152f35b3461016a575f36600319011261016a576020609954604051908152f35b3461016a57604036600319011261016a5760043567ffffffffffffffff811161016a576107eb90369060040161034c565b9060243567ffffffffffffffff811161016a5761080c90369060040161034c565b610814611612565b7f00000000000000000000000000000000000000000000000000000000000000006001600160a01b031692833b1561016a57939190602061086f60405196879563df5b354760e01b8752604060048801526044870191611206565b8481036003190160248601528281520191905f5b8181106108a35750505091815f81819503925af1801561020d5761044957005b9193509160208060019286356108b8816105e5565b15158152019401910191859392610883565b3461016a57602036600319011261016a576004356108e781610159565b6108f5600180609954161490565b610aa75761092161091c61049c6104958460018060a01b03165f52600260205260405f2090565b611249565b6001600160a01b038181165f90815260016020526040902061094e919061094790610542565b16156112bb565b5f5460985460405163485cc95560e01b60208201526001600160a01b0384811660248301529182166044808301919091528152911661098e606483610f43565b6040519161064a908184019284841067ffffffffffffffff851117610aa25784936109bd9361176b8639611339565b03905ff0801561020d576001600160a01b0316906109dc90829061166a565b6109e4611071565b906109ed611071565b916109fb8261057c83611176565b5f610a0584611176565b527f00000000000000000000000000000000000000000000000000000000000000006001600160a01b031692833b1561016a57610a5b935f928360405180978195829463df5b354760e01b845260048401611375565b03925af191821561020d57610a8a92610a8e575b506040516001600160a01b0390911681529081906020820190565b0390f35b806104575f610a9c93610f43565b5f610a6f565b610f2f565b60405162461bcd60e51b815260206004820152601960248201527f5061757361626c653a20696e64657820697320706175736564000000000000006044820152606490fd5b3461016a575f36600319011261016a57610b04611612565b606680546001600160a01b031981169091555f906001600160a01b03167f8be0079c531659141344cd1fd0a4f28419497f9722a3daafe3b4186f6b6457e08280a3005b3461016a575f36600319011261016a576098546040516001600160a01b039091168152602090f35b3461016a575f36600319011261016a576066546040516001600160a01b039091168152602090f35b3461016a57608036600319011261016a57600435610bb481610159565b610c15602435610bc381610159565b60443560643591610bd383610159565b60335494610bf960ff600888901c161580978198610c93575b8115610c73575b506113c5565b85610c0c600160ff196033541617603355565b610c5a57611428565b610c1b57005b610c2b61ff001960335416603355565b604051600181527f7f26b83ff96e1f2b6a682f133852f6798a09c465da95921460cefb384740249890602090a1005b610c6e61010061ff00196033541617603355565b611428565b303b15915081610c85575b505f610bf3565b60ff1660011490505f610c7e565b600160ff8216109150610bec565b3461016a575f36600319011261016a575f546040516001600160a01b039091168152602090f35b3461016a57602036600319011261016a57600435610ce581610159565b610ced611612565b6001600160a01b03811615610d05576101dc906116d1565b60405162461bcd60e51b815260206004820152602660248201527f4f776e61626c653a206e6577206f776e657220697320746865207a65726f206160448201526564647265737360d01b6064820152608490fd5b3461016a57602036600319011261016a5760985460405163755b36bd60e11b81526004803592602091839182906001600160a01b03165afa801561020d57610db2915f916101de57506001600160a01b03163314610f88565b609954198119811603610dfc57610dc881609955565b60405190815233907f3582d1828e26bf56bd801502bc021ac0bc8afb57c826e4986b45593c8fad389c9080602081016102ad565b60405162461bcd60e51b815260206004820152603860248201527f5061757361626c652e756e70617573653a20696e76616c696420617474656d7060448201527f7420746f2070617573652066756e6374696f6e616c69747900000000000000006064820152608490fd5b3461016a57610e753661037d565b90610e7e611612565b7f00000000000000000000000000000000000000000000000000000000000000006001600160a01b0316803b1561016a57610edd5f929183926040519485809481936316bb16b760e31b83528399602060048501526024840191611206565b03925af1801561020d57610694575080f35b3461016a57602036600319011261016a57600435610f0c81610159565b60018060a01b03165f526002602052602060ff60405f2054166040519015158152f35b634e487b7160e01b5f52604160045260245ffd5b90601f8019910116810190811067ffffffffffffffff821117610aa257604052565b9081602091031261016a5751610f7a81610159565b90565b6040513d5f823e3d90fd5b15610f8f57565b60405162461bcd60e51b815260206004820152602a60248201527f6d73672e73656e646572206973206e6f74207065726d697373696f6e6564206160448201526939903ab73830bab9b2b960b11b6064820152608490fd5b9081602091031261016a5751610f7a816105e5565b1561100357565b60405162461bcd60e51b815260206004820152602860248201527f6d73672e73656e646572206973206e6f74207065726d697373696f6e6564206160448201526739903830bab9b2b960c11b6064820152608490fd5b67ffffffffffffffff8111610aa25760051b60200190565b604080519091906110828382610f43565b6001815291601f1901366020840137565b9061109d82611059565b6110aa6040519182610f43565b82815280926110bb601f1991611059565b0190602036910137565b634e487b7160e01b5f52603260045260245ffd5b91908110156110e95760051b0190565b6110c5565b35610f7a81610159565b156110ff57565b60405162461bcd60e51b815260206004820152604360248201527f5374726174656779466163746f72792e626c61636b6c697374546f6b656e733a60448201527f2043616e6e6f7420626c61636b6c697374206465706c6f79656420737472617460648201526265677960e81b608482015260a490fd5b8051156110e95760200190565b80518210156110e95760209160051b010190565b5f1981146111a55760010190565b634e487b7160e01b5f52601160045260245ffd5b90602080835192838152019201905f5b8181106111d65750505090565b82516001600160a01b03168452602093840193909201916001016111c9565b906020610f7a9281815201906111b9565b916020908281520191905f5b81811061121f5750505090565b909192602080600192863561123381610159565b848060a01b031681520194019101919091611212565b1561125057565b60405162461bcd60e51b815260206004820152603760248201527f5374726174656779466163746f72792e6465706c6f794e65775374726174656760448201527f793a20546f6b656e20697320626c61636b6c69737465640000000000000000006064820152608490fd5b156112c257565b60a460405162461bcd60e51b815260206004820152604460248201527f5374726174656779466163746f72792e6465706c6f794e65775374726174656760448201527f793a20537472617465677920616c72656164792065786973747320666f72207460648201526337b5b2b760e11b6084820152fd5b6001600160a01b0390911681526040602080830182905283519183018290526060938291018484015e5f828201840152601f01601f1916010190565b90611388906040835260408301906111b9565b906020818303910152602080835192838152019201905f5b8181106113ad5750505090565b825115158452602093840193909201916001016113a0565b156113cc57565b60405162461bcd60e51b815260206004820152602e60248201527f496e697469616c697a61626c653a20636f6e747261637420697320616c72656160448201526d191e481a5b9a5d1a585b1a5e995960921b6064820152608490fd5b61143590939291936116d1565b6098546001600160a01b03161580611513575b1561149857611496928161145e61149193609955565b60405190815233907fab40a374bc51de372200a8bc981af8c9ecdc08dfdaef0bb6e09f88f3c616ef3d90602090a2611525565b611719565b565b60405162461bcd60e51b815260206004820152604760248201527f5061757361626c652e5f696e697469616c697a655061757365723a205f696e6960448201527f7469616c697a6550617573657228292063616e206f6e6c792062652063616c6c6064820152666564206f6e636560c81b608482015260a490fd5b506001600160a01b0383161515611448565b6001600160a01b0381161561159557609854604080516001600160a01b03928316815291831660208301527f6e9fcd539896fca60e8b0f01dd580233e48a6b0f7df013b89ba7f565869acdb691a160018060a01b03166bffffffffffffffffffffffff60a01b6098541617609855565b60405162461bcd60e51b815260206004820152604960248201527f5061757361626c652e5f73657450617573657252656769737472793a206e657760448201527f50617573657252656769737472792063616e6e6f7420626520746865207a65726064820152686f206164647265737360b81b608482015260a490fd5b6066546001600160a01b0316330361162657565b606460405162461bcd60e51b815260206004820152602060248201527f4f776e61626c653a2063616c6c6572206973206e6f7420746865206f776e65726044820152fd5b7f6852a55230ef089d785bce7ffbf757985de34026df90a87d7b4a6e56f95d251f9160409160018060a01b031690815f526001602052825f209060018060a01b031690816bffffffffffffffffffffffff60a01b82541617905582519182526020820152a1565b606680546001600160a01b039283166001600160a01b0319821681179092559091167f8be0079c531659141344cd1fd0a4f28419497f9722a3daafe3b4186f6b6457e05f80a3565b5f54604080516001600160a01b03808416825290931660208401819052927fe21755962a7d7e100b59b9c3e4d4b54085b146313719955efb6a7a25c5c7feee9190a16001600160a01b031916175f5556fe60808060405261064a80380380916100178285610392565b83398101906040818303126102895761002f816103c9565b602082015190916001600160401b03821161028957019082601f8301121561028957815161005c816103dd565b9261006a6040519485610392565b81845260208401946020838301011161028957815f926020809301875e84010152803b1561033f57604051635c60da1b60e01b81526001600160a01b03919091169290602081600481875afa908115610295575f91610305575b503b156102a7577fa3f0ad74e5423aebfd80d3ef4346578335a9a72aeaee59ff6cb3582b35133d5080546001600160a01b0319168417905560405192807f1cf3b03a6cf19fa2baba4df148e9dcabedea7f8a5c07840e207e5c089be95d3e5f80a28251158015906102a0575b610144575b6040516101f690816104548239f35b83600481602093635c60da1b60e01b82525afa928315610295575f93610255575b5060405191610175606084610392565b602783527f416464726573733a206c6f772d6c6576656c2064656c65676174652063616c6c6020840152660819985a5b195960ca1b6040840152833b15610201576101ef935f92839251915af43d156101f9573d906101d3826103dd565b916101e16040519384610392565b82523d5f602084013e6103f8565b505f808080610135565b6060906103f8565b60405162461bcd60e51b815260206004820152602660248201527f416464726573733a2064656c65676174652063616c6c20746f206e6f6e2d636f6044820152651b9d1c9858dd60d21b6064820152608490fd5b9092506020813d60201161028d575b8161027160209383610392565b8101031261028957610282906103c9565b915f610165565b5f80fd5b3d9150610264565b6040513d5f823e3d90fd5b505f610130565b60405162461bcd60e51b815260206004820152603060248201527f455243313936373a20626561636f6e20696d706c656d656e746174696f6e206960448201526f1cc81b9bdd08184818dbdb9d1c9858dd60821b6064820152608490fd5b90506020813d602011610337575b8161032060209383610392565b8101031261028957610331906103c9565b5f6100c4565b3d9150610313565b60405162461bcd60e51b815260206004820152602560248201527f455243313936373a206e657720626561636f6e206973206e6f74206120636f6e6044820152641d1c9858dd60da1b6064820152608490fd5b601f909101601f19168101906001600160401b038211908210176103b557604052565b634e487b7160e01b5f52604160045260245ffd5b51906001600160a01b038216820361028957565b6001600160401b0381116103b557601f01601f191660200190565b90919015610404575090565b8151156104145750805190602001fd5b604460209160405192839162461bcd60e51b83528160048401528051918291826024860152018484015e5f828201840152601f01601f19168101030190fdfe6080604052366100be577fa3f0ad74e5423aebfd80d3ef4346578335a9a72aeaee59ff6cb3582b35133d5054635c60da1b60e01b608090815260209160049082906001600160a01b03165afa80156100b3575f90156101a3575060203d6020116100ac575b601f19601f820116608001906080821067ffffffffffffffff831117610098576100939160405260800161015e565b6101a3565b634e487b7160e01b5f52604160045260245ffd5b503d610064565b6040513d5f823e3d90fd5b7fa3f0ad74e5423aebfd80d3ef4346578335a9a72aeaee59ff6cb3582b35133d5054604051635c60da1b60e01b815290602090829060049082906001600160a01b03165afa9081156100b3575f91610117575b506101a3565b602091503d8211610156575b601f8201601f191681019167ffffffffffffffff8311828410176100985761015092604052810190610184565b5f610111565b3d9150610123565b602090607f190112610180576080516001600160a01b03811681036101805790565b5f80fd5b9081602091031261018057516001600160a01b03811681036101805790565b5f8091368280378136915af43d5f803e156101bc573d5ff35b3d5ffdfea264697066735822122095ca8f3f7f2c90a26449e52694d20c4380989496b8a6ee12b4177ec46cf0d13464736f6c634300081c0033a2646970667358221220f0baf0446fb1ad484da874513dd7623854db5f03c831204ebbd70c1fb4ee8f0264736f6c634300081c0033","linkReferences":{}},"methodIdentifiers":{"blacklistTokens(address[])":"23103c41","deployNewStrategy(address)":"6b9b6229","deployedStrategies(address)":"581dfd65","initialize(address,address,uint256,address)":"be203094","isBlacklisted(address)":"fe575a87","owner()":"8da5cb5b","pause(uint256)":"136439dd","pauseAll()":"595c6a67","paused()":"5c975abb","paused(uint8)":"5ac86ab7","pauserRegistry()":"886f1195","removeStrategiesFromWhitelist(address[])":"fe38b32d","renounceOwnership()":"715018a6","setPauserRegistry(address)":"10d67a2f","setThirdPartyTransfersForbidden(address,bool)":"4e5a4263","strategyBeacon()":"f0062d9a","strategyManager()":"39b70e38","transferOwnership(address)":"f2fde38b","unpause(uint256)":"fabc1cbc","whitelistStrategies(address[],bool[])":"697d54b4"},"id":46}