{"abi":[{"type":"constructor","inputs":[{"name":"serviceManager","type":"address","internalType":"contract IWavsServiceManager"}],"stateMutability":"nonpayable"},{"type":"function","name":"getData","inputs":[{"name":"triggerId","type":"uint64","internalType":"ISimpleTrigger.TriggerId"}],"outputs":[{"name":"data","type":"bytes","internalType":"bytes"}],"stateMutability":"view"},{"type":"function","name":"getSignature","inputs":[{"name":"triggerId","type":"uint64","internalType":"ISimpleTrigger.TriggerId"}],"outputs":[{"name":"signatureData","type":"tuple","internalType":"struct IWavsServiceHandler.SignatureData","components":[{"name":"operators","type":"address[]","internalType":"address[]"},{"name":"signatures","type":"bytes[]","internalType":"bytes[]"},{"name":"referenceBlock","type":"uint32","internalType":"uint32"}]}],"stateMutability":"view"},{"type":"function","name":"handleSignedEnvelope","inputs":[{"name":"envelope","type":"tuple","internalType":"struct IWavsServiceHandler.Envelope","components":[{"name":"payload","type":"bytes","internalType":"bytes"},{"name":"eventId","type":"uint256","internalType":"uint256"}]},{"name":"signatureData","type":"tuple","internalType":"struct IWavsServiceHandler.SignatureData","components":[{"name":"operators","type":"address[]","internalType":"address[]"},{"name":"signatures","type":"bytes[]","internalType":"bytes[]"},{"name":"referenceBlock","type":"uint32","internalType":"uint32"}]}],"outputs":[],"stateMutability":"nonpayable"},{"type":"function","name":"isValidTriggerId","inputs":[{"name":"triggerId","type":"uint64","internalType":"ISimpleTrigger.TriggerId"}],"outputs":[{"name":"","type":"bool","internalType":"bool"}],"stateMutability":"view"}],"bytecode":{"object":"0x608034606f57601f610c7338819003918201601f19168301916001600160401b03831184841017607357808492602094604052833981010312606f57516001600160a01b03811690819003606f575f80546001600160a01b031916919091179055604051610beb90816100888239f35b5f80fd5b634e487b7160e01b5f52604160045260245ffdfe6080806040526004361015610012575f80fd5b5f905f3560e01c908163489584421461073057508063a127f188146106e0578063aa32d9f4146106a35763b71f46bf1461004a575f80fd5b3461063d57604036600319011261063d57600435906001600160401b03821161063d5781600401916040600319823603011261063d57602435906001600160401b03821161063d5781600401936060600319843603011261063d575f546001600160a01b031691823b1561063d57604051906336159aff60e21b82526040600483015260246100ed6100dc8580610a70565b604060448701526084860191610aa1565b910135606483015281810360031901602483015260608101906101108880610ac1565b606083529283905260808201925f905b808210610679575050506024860195610139878a610ac1565b8385036020850152808552602085019460208260051b82010195835f925b84841061064157505050505050604401359463ffffffff861680960361063d5783805f948860408396015203915afa80156106325761061b575b508061019c91610af5565b81019290602081850312610617578035906001600160401b0382116106135701946040868503126106175760405195604087018781106001600160401b038211176105a35760405280356001600160401b038116810361060f5787526020810135906001600160401b03821161060f570184601f82011215610613578035906001600160401b0382116105a35760405195610241601f8401601f191660200188610977565b8287526020838301011161060f5781879260208093018389013786010152602086019384526001600160401b038651168552600360205260408520916102878280610b27565b906001600160401b0382116105fb57600160401b82116105fb5784548286558083106105e0575b50908488526020882091885b8281106105b757505050506102d3906001840192610b27565b91600160401b83116105a3578054838255808410610529575b508652602086208691805b84841061042e5750505050506002019063ffffffff1982541617905551916001600160401b03815116825260026020526040822083516001600160401b03811161041a5761034f816103498454610998565b84610b72565b6020601f82116001146103b05790806103879286976001600160401b0397926103a5575b50508160011b915f199060031b1c19161790565b90555b51168152600160205260408120600160ff1982541617905580f35b015190505f80610373565b82855280852095601f198316865b8181106104025750916001600160401b039697918460019594106103ea575b505050811b01905561038a565b01515f1960f88460031b161c191690555f80806103dd565b838301518955600190980197602093840193016103be565b634e487b7160e01b84526041600452602484fd5b6104388183610af5565b906001600160401b0382116105155761045b826104558754610998565b87610b72565b8a908b601f84116001146104ab57836001959294602094879661049194926104a05750508160011b915f199060031b1c19161790565b86555b019301930192916102f7565b013590505f80610373565b50858c5260208c2091601f1984168d5b8181106104fd57509360209360019693879693838895106104e4575b505050811b018655610494565b01355f19600384901b60f8161c191690555f80806104d7565b919360206001819287870135815501950192016104bb565b634e487b7160e01b8b52604160045260248bfd5b818852836020892091820191015b81811061054457506102ec565b808961055260019354610998565b80610560575b505001610537565b601f811184146105775750508981555b895f610558565b83601f60208486610592965220920160051c82019101610b5c565b808a52896020812081835555610570565b634e487b7160e01b87526041600452602487fd5b8135916001600160a01b03831683036105dc57906020600192019281860155016102ba565b8a80fd5b858952602089206105f5918101908401610b5c565b5f6102ae565b634e487b7160e01b88526041600452602488fd5b8680fd5b8580fd5b8480fd5b6106289194505f90610977565b5f9261019c610191565b6040513d5f823e3d90fd5b5f80fd5b909192939497602080610669600193601f198682030188526106638d88610a70565b90610aa1565b9a01940194019294939190610157565b90919384359060018060a01b03821680920361063d57602081600193829352019501920190610120565b3461063d57602036600319011261063d576001600160401b036106c4610922565b165f526001602052602060ff60405f2054166040519015158152f35b3461063d57602036600319011261063d576001600160401b03610701610922565b165f52600260205261072c61071860405f206109d0565b604051918291602083526020830190610938565b0390f35b3461063d57602036600319011261063d576001600160401b03905f6040610755610922565b9261075f8161095c565b60608152606060208201520152165f52600360205260405f20604051906107858261095c565b6040518081602084549283815201845f5260205f20925f5b8181106109005750506107b292500382610977565b8252600181019081546001600160401b0381116108ec57604051926107dd60208360051b0185610977565b81845260208401905f5260205f205f915b8383106108cf57868663ffffffff600288602085019384520154169160408101928352604051916020835260808301915191606060208501528251809152602060a085019301905f5b8181106108b0575050505190601f19838203016040840152815180825260208201916020808360051b8301019401925f915b83831061088357875163ffffffff16606088015286860387f35b90919293946020806108a1600193601f198682030187528951610938565b97019301930191939290610869565b82516001600160a01b0316855260209485019490920191600101610837565b6001602081926108de856109d0565b8152019201920191906107ee565b634e487b7160e01b5f52604160045260245ffd5b84546001600160a01b031683526001948501948694506020909301920161079d565b600435906001600160401b038216820361063d57565b805180835260209291819084018484015e5f828201840152601f01601f1916010190565b606081019081106001600160401b038211176108ec57604052565b90601f801991011681019081106001600160401b038211176108ec57604052565b90600182811c921680156109c6575b60208310146109b257565b634e487b7160e01b5f52602260045260245ffd5b91607f16916109a7565b9060405191825f8254926109e384610998565b8084529360018116908115610a4e5750600114610a0a575b50610a0892500383610977565b565b90505f9291925260205f20905f915b818310610a32575050906020610a08928201015f6109fb565b6020919350806001915483858901015201910190918492610a19565b905060209250610a0894915060ff191682840152151560051b8201015f6109fb565b9035601e198236030181121561063d5701602081359101916001600160401b03821161063d57813603831361063d57565b908060209392818452848401375f828201840152601f01601f1916010190565b9035601e198236030181121561063d5701602081359101916001600160401b03821161063d578160051b3603831361063d57565b903590601e198136030182121561063d57018035906001600160401b03821161063d5760200191813603831361063d57565b903590601e198136030182121561063d57018035906001600160401b03821161063d57602001918160051b3603831361063d57565b818110610b67575050565b5f8155600101610b5c565b9190601f8111610b8157505050565b610a08925f5260205f20906020601f840160051c83019310610bab575b601f0160051c0190610b5c565b9091508190610b9e56fea26469706673582212201a9870ae236852e2b2007fcdbd5b9f07c73df66e29e6adf4888cf4cce79f246a64736f6c634300081a0033","linkReferences":{}},"methodIdentifiers":{"getData(uint64)":"a127f188","getSignature(uint64)":"48958442","handleSignedEnvelope((bytes,uint256),(address[],bytes[],uint32))":"b71f46bf","isValidTriggerId(uint64)":"aa32d9f4"},"id":3}