{"abi":[{"type":"constructor","inputs":[{"name":"serviceManager","type":"address","internalType":"contract IWavsServiceManager"}],"stateMutability":"nonpayable"},{"type":"function","name":"getDataWithId","inputs":[{"name":"triggerId","type":"uint64","internalType":"ISimpleTrigger.TriggerId"}],"outputs":[{"name":"dataWithId","type":"tuple","internalType":"struct ISimpleSubmit.DataWithId","components":[{"name":"triggerId","type":"uint64","internalType":"ISimpleTrigger.TriggerId"},{"name":"data","type":"bytes","internalType":"bytes"}]}],"stateMutability":"view"},{"type":"function","name":"getSignedData","inputs":[{"name":"triggerId","type":"uint64","internalType":"ISimpleTrigger.TriggerId"}],"outputs":[{"name":"signedData","type":"tuple","internalType":"struct ISimpleSubmit.SignedData","components":[{"name":"data","type":"bytes","internalType":"bytes"},{"name":"signatureData","type":"tuple","internalType":"struct IWavsServiceHandler.SignatureData","components":[{"name":"operators","type":"address[]","internalType":"address[]"},{"name":"signatures","type":"bytes[]","internalType":"bytes[]"},{"name":"referenceBlock","type":"uint32","internalType":"uint32"}]},{"name":"envelope","type":"tuple","internalType":"struct IWavsServiceHandler.Envelope","components":[{"name":"eventId","type":"bytes20","internalType":"bytes20"},{"name":"ordering","type":"bytes12","internalType":"bytes12"},{"name":"payload","type":"bytes","internalType":"bytes"}]}]}],"stateMutability":"view"},{"type":"function","name":"handleSignedEnvelope","inputs":[{"name":"envelope","type":"tuple","internalType":"struct IWavsServiceHandler.Envelope","components":[{"name":"eventId","type":"bytes20","internalType":"bytes20"},{"name":"ordering","type":"bytes12","internalType":"bytes12"},{"name":"payload","type":"bytes","internalType":"bytes"}]},{"name":"signatureData","type":"tuple","internalType":"struct IWavsServiceHandler.SignatureData","components":[{"name":"operators","type":"address[]","internalType":"address[]"},{"name":"signatures","type":"bytes[]","internalType":"bytes[]"},{"name":"referenceBlock","type":"uint32","internalType":"uint32"}]}],"outputs":[],"stateMutability":"nonpayable"},{"type":"function","name":"isValidTriggerId","inputs":[{"name":"triggerId","type":"uint64","internalType":"ISimpleTrigger.TriggerId"}],"outputs":[{"name":"","type":"bool","internalType":"bool"}],"stateMutability":"view"}],"bytecode":{"object":"0x608034606f57601f6111f638819003918201601f19168301916001600160401b03831184841017607357808492602094604052833981010312606f57516001600160a01b03811690819003606f575f80546001600160a01b03191691909117905560405161116e90816100888239f35b5f80fd5b634e487b7160e01b5f52604160045260245ffdfe6080806040526004361015610012575f80fd5b5f905f3560e01c90816378ecfb4714610bb257508063aa32d9f414610b75578063c053045e146109b25763f969ff331461004a575f80fd5b346109ae5760403660031901126109ae57600435906001600160401b0382116109ae5736829003916004810160606003198501126109ae576024356001600160401b0381116109ae578060040190606060031982360301126109ae575f546001600160a01b031695863b156109ae57604051946366b8ac4f60e11b8652604060048701526001600160601b03196100e086610ff4565b16604487015260248101906001600160a01b03196100fd8361100e565b166064880152604481016101256101148289611023565b606060848c015260a48b0191611054565b97600319818a03016024820152606089019a6101418880611074565b809d60608d525260808b01909c5f5b818110610984575050602488019c508261016a8e8b611074565b8d60208186949603910152808252602082019160208260051b82010192855f925b84841061094a57505050505081925060448a019c6101a88e6110bc565b63ffffffff16906040015203815a935f94fa801561093f5761092a575b503592602219018312156109265782019560048701938435976001600160401b0389116109065760248101988036038a13610922578101600481019990602090839003126109225735906001600160401b0382116109225790600491010160406020601f19838c0301011261090657604051986102418a610ec9565b60208201356001600160401b03811681036108fe578a526040820135906001600160401b0382116108fe5761027d9260209182019201016110cd565b998a60208a01526040519a6102918c610e9a565b8b52604051966102a088610e9a565b356001600160401b03811161092257820136602382011215610922576004810135906102cb82610fdd565b916102d96040519384610ee4565b808352602060048185019260051b84010101913683116108fa57602401905b82821061090a57505050875235906001600160401b0382116109065701366023820112156109025760048101359061032f82610fdd565b9161033d6040519384610ee4565b80835260051b8101602401602083013682116108fe5760248301905b8282106108c95750505050916103806103a8926001600160401b03959460208901526110bc565b604087015260208a019586526103a16040519761039c89610e9a565b610ff4565b875261100e565b6020860152116108c5576103bd9036906110cd565b6040830152604085019182526001600160401b03835116845260026020526040842094518051906001600160401b0382116108b1576103fc8754610f05565b601f8111610881575b50602090601f831160011461081f57610435929187918361057c575b50508160011b915f199060031b1c19161790565b85555b51805180519060018701906001600160401b0383116107d457600160401b83116107d4576020908254848455808510610805575b500190865260208620865b8381106107e8575050505060028501602082015190815191600160401b83116107d457815483835580841061075a575b506020019086526020862086915b838310610640575050505060409160059163ffffffff84600389019201511663ffffffff198254161790555194855160601c6001600160601b0360a01b602088015116176004820155019301519283516001600160401b03811161062c5761051d8254610f05565b601f81116105f1575b506020601f821160011461058757908061055e9286976001600160401b03979261057c5750508160011b915f199060031b1c19161790565b90555b51168152600160205260408120600160ff1982541617905580f35b015190505f80610421565b82855280852095601f198316865b8181106105d95750916001600160401b039697918460019594106105c1575b505050811b019055610561565b01515f1960f88460031b161c191690555f80806105b4565b83830151895560019098019760209384019301610595565b61061c9083865260208620601f840160051c81019160208510610622575b601f0160051c0190611122565b5f610526565b909150819061060f565b634e487b7160e01b84526041600452602484fd5b80518051906001600160401b0382116107465761065d8454610f05565b601f8111610716575b506020908a601f84116001146106ad57836001959294602094879661069e949261057c5750508160011b915f199060031b1c19161790565b85555b019201920191906104b5565b50848b52818b209190601f1984168c5b8181106106fe57509360209360019693879693838895106106e6575b505050811b0185556106a1565b01515f1960f88460031b161c191690555f80806106d9565b929360206001819287860151815501950193016106bd565b61074090858c5260208c20601f850160051c8101916020861061062257601f0160051c0190611122565b5f610666565b634e487b7160e01b8a52604160045260248afd5b828852836020892091820191015b81811061077557506104a7565b808961078360019354610f05565b80610791575b505001610768565b601f811184146107a85750508981555b895f610789565b83601f602084866107c3965220920160051c82019101611122565b808a528960208120818355556107a1565b634e487b7160e01b87526041600452602487fd5b82516001600160a01b031681830155602090920191600101610477565b838952828920610819918101908601611122565b5f61046c565b8787528187209190601f198416885b8181106108695750908460019594939210610851575b505050811b018555610438565b01515f1960f88460031b161c191690555f8080610844565b9293602060018192878601518155019501930161082e565b6108ab9088885260208820601f850160051c8101916020861061062257601f0160051c0190611122565b5f610405565b634e487b7160e01b86526041600452602486fd5b8480fd5b81356001600160401b0381116108fa576020916108ef839283600436928a0101016110cd565b815201910190610359565b8d80fd5b8b80fd5b8880fd5b8980fd5b60208091610917846110a8565b8152019101906102f8565b8a80fd5b8780fd5b6109379199505f90610ee4565b5f975f6101c5565b6040513d5f823e3d90fd5b919395509193602080610972600193601f1986820301885261096c8b88611023565b90611054565b9801940194019188959396949161018b565b909160208f600192829161099d858060a01b03916110a8565b168152019f0191019d91909d610150565b5f80fd5b346109ae5760203660031901126109ae576001600160401b036109d3610e60565b606060206040516109e381610ec9565b5f8152015216805f52600260205260405f209060405191610a0383610e9a565b610a0c81610f3d565b835260405160018201610a1e82610e9a565b604051808260208294549384815201905f5260205f20925f5b818110610b53575050610a4c92500382610ee4565b8152600282018054610a5d81610fdd565b91610a6b6040519384610ee4565b81835260208301905f5260205f205f915b838310610b36576001600160401b0388610b328b8a8a8a602082015263ffffffff60038301541660408201526020830152610aef600560405192610abf84610e9a565b6004810154606081901b6bffffffffffffffffffffffff191685526001600160a01b031916602085015201610f3d565b604082015260408201525160405192610b0784610ec9565b8352602083019081526040519384936020855251166020840152516040808401526060830190610e76565b0390f35b600160208192610b4585610f3d565b815201920192019190610a7c565b84546001600160a01b0316835260019485019486945060209093019201610a37565b346109ae5760203660031901126109ae576001600160401b03610b96610e60565b165f526001602052602060ff60405f2054166040519015158152f35b346109ae5760203660031901126109ae576001600160401b0390610bd4610e60565b90610bde81610e9a565b60608152604051610bee81610e9a565b60608152606060208201525f604082015260208201526040805191610c1283610e9a565b5f83525f60208401526060828401520152165f52600260205260405f20604051610c3b81610e9a565b610c4482610f3d565b81526040519160018101610c5784610e9a565b604051808260208294549384815201905f5260205f20925f5b818110610e3e575050610c8592500382610ee4565b8352600281018054610c9681610fdd565b91610ca46040519384610ee4565b81835260208301905f5260205f205f915b838310610e215750505050602084015263ffffffff600382015416604084015260208201928352610cee600560405192610abf84610e9a565b604082015260408201908152610d17604051926020845251606060208501526080840190610e76565b9251828403601f1901604084015280516060808652815190860181905260808601959291602001905f5b818110610e02575050506020810151948281036020840152855180825260208201916020808360051b8301019801925f915b838310610dd557508780610b328b606060408c8c8263ffffffff818f01511691015251601f1986850301838701526001600160601b031981511684526001600160601b0360a01b60208201511660208501520151918160408201520190610e76565b9091929398602080610df3600193601f198682030187528d51610e76565b9b019301930191939290610d73565b82516001600160a01b0316885260209788019790920191600101610d41565b600160208192610e3085610f3d565b815201920192019190610cb5565b84546001600160a01b0316835260019485019486945060209093019201610c70565b600435906001600160401b03821682036109ae57565b805180835260209291819084018484015e5f828201840152601f01601f1916010190565b606081019081106001600160401b03821117610eb557604052565b634e487b7160e01b5f52604160045260245ffd5b604081019081106001600160401b03821117610eb557604052565b90601f801991011681019081106001600160401b03821117610eb557604052565b90600182811c92168015610f33575b6020831014610f1f57565b634e487b7160e01b5f52602260045260245ffd5b91607f1691610f14565b9060405191825f825492610f5084610f05565b8084529360018116908115610fbb5750600114610f77575b50610f7592500383610ee4565b565b90505f9291925260205f20905f915b818310610f9f575050906020610f75928201015f610f68565b6020919350806001915483858901015201910190918492610f86565b905060209250610f7594915060ff191682840152151560051b8201015f610f68565b6001600160401b038111610eb55760051b60200190565b35906bffffffffffffffffffffffff19821682036109ae57565b35906001600160a01b0319821682036109ae57565b9035601e19823603018112156109ae5701602081359101916001600160401b0382116109ae5781360383136109ae57565b908060209392818452848401375f828201840152601f01601f1916010190565b9035601e19823603018112156109ae5701602081359101916001600160401b0382116109ae578160051b360383136109ae57565b35906001600160a01b03821682036109ae57565b359063ffffffff821682036109ae57565b81601f820112156109ae578035906001600160401b038211610eb55760405192611101601f8401601f191660200185610ee4565b828452602083830101116109ae57815f926020809301838601378301015290565b81811061112d575050565b5f815560010161112256fea264697066735822122098e654831ade2205bd8e301307e9972ca92d34a3c7c60e79836c19b005d5009764736f6c634300081a0033","linkReferences":{}},"methodIdentifiers":{"getDataWithId(uint64)":"c053045e","getSignedData(uint64)":"78ecfb47","handleSignedEnvelope((bytes20,bytes12,bytes),(address[],bytes[],uint32))":"f969ff33","isValidTriggerId(uint64)":"aa32d9f4"},"id":3}