{"abi":[{"type":"constructor","inputs":[{"name":"serviceManager","type":"address","internalType":"contract IWavsServiceManager"}],"stateMutability":"nonpayable"},{"type":"function","name":"getSignedData","inputs":[{"name":"triggerId","type":"uint64","internalType":"ISimpleTrigger.TriggerId"}],"outputs":[{"name":"signedData","type":"tuple","internalType":"struct ISimpleSubmit.SignedData","components":[{"name":"data","type":"bytes","internalType":"bytes"},{"name":"signatureData","type":"tuple","internalType":"struct IWavsServiceHandler.SignatureData","components":[{"name":"operators","type":"address[]","internalType":"address[]"},{"name":"signatures","type":"bytes[]","internalType":"bytes[]"},{"name":"referenceBlock","type":"uint32","internalType":"uint32"}]},{"name":"envelope","type":"tuple","internalType":"struct IWavsServiceHandler.Envelope","components":[{"name":"eventId","type":"bytes20","internalType":"bytes20"},{"name":"ordering","type":"bytes12","internalType":"bytes12"},{"name":"payload","type":"bytes","internalType":"bytes"}]}]}],"stateMutability":"view"},{"type":"function","name":"handleSignedEnvelope","inputs":[{"name":"envelope","type":"tuple","internalType":"struct IWavsServiceHandler.Envelope","components":[{"name":"eventId","type":"bytes20","internalType":"bytes20"},{"name":"ordering","type":"bytes12","internalType":"bytes12"},{"name":"payload","type":"bytes","internalType":"bytes"}]},{"name":"signatureData","type":"tuple","internalType":"struct IWavsServiceHandler.SignatureData","components":[{"name":"operators","type":"address[]","internalType":"address[]"},{"name":"signatures","type":"bytes[]","internalType":"bytes[]"},{"name":"referenceBlock","type":"uint32","internalType":"uint32"}]}],"outputs":[],"stateMutability":"nonpayable"},{"type":"function","name":"isValidTriggerId","inputs":[{"name":"triggerId","type":"uint64","internalType":"ISimpleTrigger.TriggerId"}],"outputs":[{"name":"","type":"bool","internalType":"bool"}],"stateMutability":"view"}],"bytecode":{"object":"0x608034606f57601f61106538819003918201601f19168301916001600160401b03831184841017607357808492602094604052833981010312606f57516001600160a01b03811690819003606f575f80546001600160a01b031916919091179055604051610fdd90816100888239f35b5f80fd5b634e487b7160e01b5f52604160045260245ffdfe6080806040526004361015610012575f80fd5b5f905f3560e01c90816378ecfb4714610a0857508063aa32d9f4146109cb5763f969ff331461003f575f80fd5b346109c75760403660031901126109c757600435906001600160401b0382116109c75736829003916004810160606003198501126109c7576024356001600160401b0381116109c7578060040190606060031982360301126109c7575f546001600160a01b031695863b156109c757604051946366b8ac4f60e11b8652604060048701526001600160601b03196100d586610e63565b16604487015260248101906001600160a01b03196100f283610e7d565b1660648801526044810161011a6101098289610e92565b606060848c015260a48b0191610ec3565b97600319818a03016024820152606089019a6101368880610ee3565b809d60608d525260808b01909c5f5b81811061099d575050602488019c508261015f8e8b610ee3565b8d60208186949603910152808252602082019160208260051b82010192855f925b84841061096357505050505081925060448a019c61019d8e610f2b565b63ffffffff16906040015203815a935f94fa801561095857610943575b5035926022190183121561093f5782019560048701938435976001600160401b03891161090b5760248101988036038a13610927578101600481019990602090839003126109275735906001600160401b0382116109275790600491010160406020601f19838c0301011261090b576040519860408a018a81106001600160401b0382111761092b5760405260208201356001600160401b0381168103610903578a526040820135906001600160401b03821161090357610282926020918201920101610f3c565b998a60208a01526040519a6102968c610d24565b8b52604051966102a588610d24565b356001600160401b03811161092757820136602382011215610927576004810135906102d082610e4c565b916102de6040519384610d53565b808352602060048185019260051b84010101913683116108ff57602401905b82821061090f57505050875235906001600160401b03821161090b5701366023820112156109075760048101359061033482610e4c565b916103426040519384610d53565b80835260051b8101602401602083013682116109035760248301905b8282106108ce5750505050916103856103ad926001600160401b0395946020890152610f2b565b604087015260208a019586526103a6604051976103a189610d24565b610e63565b8752610e7d565b6020860152116108ca576103c2903690610f3c565b6040830152604085019182526001600160401b03835116845260026020526040842094518051906001600160401b0382116108b6576104018754610d74565b601f8111610886575b50602090601f83116001146108245761043a9291879183610581575b50508160011b915f199060031b1c19161790565b85555b51805180519060018701906001600160401b0383116107d957600160401b83116107d957602090825484845580851061080a575b500190865260208620865b8381106107ed575050505060028501602082015190815191600160401b83116107d957815483835580841061075f575b506020019086526020862086915b838310610645575050505060409160059163ffffffff84600389019201511663ffffffff198254161790555194855160601c6001600160601b0360a01b602088015116176004820155019301519283516001600160401b038111610631576105228254610d74565b601f81116105f6575b506020601f821160011461058c5790806105639286976001600160401b0397926105815750508160011b915f199060031b1c19161790565b90555b51168152600160205260408120600160ff1982541617905580f35b015190505f80610426565b82855280852095601f198316865b8181106105de5750916001600160401b039697918460019594106105c6575b505050811b019055610566565b01515f1960f88460031b161c191690555f80806105b9565b8383015189556001909801976020938401930161059a565b6106219083865260208620601f840160051c81019160208510610627575b601f0160051c0190610f91565b5f61052b565b9091508190610614565b634e487b7160e01b84526041600452602484fd5b80518051906001600160401b03821161074b576106628454610d74565b601f811161071b575b506020908a601f84116001146106b25783600195929460209487966106a394926105815750508160011b915f199060031b1c19161790565b85555b019201920191906104ba565b50848b52818b209190601f1984168c5b81811061070357509360209360019693879693838895106106eb575b505050811b0185556106a6565b01515f1960f88460031b161c191690555f80806106de565b929360206001819287860151815501950193016106c2565b61074590858c5260208c20601f850160051c8101916020861061062757601f0160051c0190610f91565b5f61066b565b634e487b7160e01b8a52604160045260248afd5b828852836020892091820191015b81811061077a57506104ac565b808961078860019354610d74565b80610796575b50500161076d565b601f811184146107ad5750508981555b895f61078e565b83601f602084866107c8965220920160051c82019101610f91565b808a528960208120818355556107a6565b634e487b7160e01b87526041600452602487fd5b82516001600160a01b03168183015560209092019160010161047c565b83895282892061081e918101908601610f91565b5f610471565b8787528187209190601f198416885b81811061086e5750908460019594939210610856575b505050811b01855561043d565b01515f1960f88460031b161c191690555f8080610849565b92936020600181928786015181550195019301610833565b6108b09088885260208820601f850160051c8101916020861061062757601f0160051c0190610f91565b5f61040a565b634e487b7160e01b86526041600452602486fd5b8480fd5b81356001600160401b0381116108ff576020916108f4839283600436928a010101610f3c565b81520191019061035e565b8d80fd5b8b80fd5b8880fd5b8980fd5b6020809161091c84610f17565b8152019101906102fd565b8a80fd5b634e487b7160e01b8c52604160045260248cfd5b8780fd5b6109509199505f90610d53565b5f975f6101ba565b6040513d5f823e3d90fd5b91939550919360208061098b600193601f198682030188526109858b88610e92565b90610ec3565b98019401940191889593969491610180565b909160208f60019282916109b6858060a01b0391610f17565b168152019f0191019d91909d610145565b5f80fd5b346109c75760203660031901126109c7576001600160401b036109ec610cea565b165f526001602052602060ff60405f2054166040519015158152f35b346109c75760203660031901126109c7576001600160401b0390610a2a610cea565b90610a3481610d24565b60608152604051610a4481610d24565b60608152606060208201525f604082015260208201526040805191610a6883610d24565b5f83525f60208401526060828401520152165f52600260205260405f20604051610a9181610d24565b610a9a82610dac565b81526040519160018101610aad84610d24565b604051808260208294549384815201905f5260205f20925f5b818110610cc8575050610adb92500382610d53565b8352600281018054610aec81610e4c565b91610afa6040519384610d53565b81835260208301905f5260205f205f915b838310610cab5750505050602084015263ffffffff600382015416604084015260208201928352610b74600560405192610b4484610d24565b6004810154606081901b6bffffffffffffffffffffffff191685526001600160a01b031916602085015201610dac565b604082015260408201908152610b9d604051926020845251606060208501526080840190610d00565b9251828403601f1901604084015280516060808652815190860181905260808601959291602001905f5b818110610c8c575050506020810151948281036020840152855180825260208201916020808360051b8301019801925f915b838310610c5f57508780610c5b8b606060408c8c8263ffffffff818f01511691015251601f1986850301838701526001600160601b031981511684526001600160601b0360a01b60208201511660208501520151918160408201520190610d00565b0390f35b9091929398602080610c7d600193601f198682030187528d51610d00565b9b019301930191939290610bf9565b82516001600160a01b0316885260209788019790920191600101610bc7565b600160208192610cba85610dac565b815201920192019190610b0b565b84546001600160a01b0316835260019485019486945060209093019201610ac6565b600435906001600160401b03821682036109c757565b805180835260209291819084018484015e5f828201840152601f01601f1916010190565b606081019081106001600160401b03821117610d3f57604052565b634e487b7160e01b5f52604160045260245ffd5b90601f801991011681019081106001600160401b03821117610d3f57604052565b90600182811c92168015610da2575b6020831014610d8e57565b634e487b7160e01b5f52602260045260245ffd5b91607f1691610d83565b9060405191825f825492610dbf84610d74565b8084529360018116908115610e2a5750600114610de6575b50610de492500383610d53565b565b90505f9291925260205f20905f915b818310610e0e575050906020610de4928201015f610dd7565b6020919350806001915483858901015201910190918492610df5565b905060209250610de494915060ff191682840152151560051b8201015f610dd7565b6001600160401b038111610d3f5760051b60200190565b35906bffffffffffffffffffffffff19821682036109c757565b35906001600160a01b0319821682036109c757565b9035601e19823603018112156109c75701602081359101916001600160401b0382116109c75781360383136109c757565b908060209392818452848401375f828201840152601f01601f1916010190565b9035601e19823603018112156109c75701602081359101916001600160401b0382116109c7578160051b360383136109c757565b35906001600160a01b03821682036109c757565b359063ffffffff821682036109c757565b81601f820112156109c7578035906001600160401b038211610d3f5760405192610f70601f8401601f191660200185610d53565b828452602083830101116109c757815f926020809301838601378301015290565b818110610f9c575050565b5f8155600101610f9156fea26469706673582212203df4081cdd597fc43cb627b4e87ef047a09942d2d740cf0596c425436712dba964736f6c634300081a0033","linkReferences":{}},"methodIdentifiers":{"getSignedData(uint64)":"78ecfb47","handleSignedEnvelope((bytes20,bytes12,bytes),(address[],bytes[],uint32))":"f969ff33","isValidTriggerId(uint64)":"aa32d9f4"},"id":3}