{"abi":[{"type":"constructor","inputs":[{"name":"serviceManager","type":"address","internalType":"contract IWavsServiceManager"}],"stateMutability":"nonpayable"},{"type":"function","name":"getDataWithId","inputs":[{"name":"triggerId","type":"uint64","internalType":"ISimpleTrigger.TriggerId"}],"outputs":[{"name":"dataWithId","type":"tuple","internalType":"struct ISimpleSubmit.DataWithId","components":[{"name":"triggerId","type":"uint64","internalType":"ISimpleTrigger.TriggerId"},{"name":"data","type":"bytes","internalType":"bytes"}]}],"stateMutability":"view"},{"type":"function","name":"getServiceManager","inputs":[],"outputs":[{"name":"","type":"address","internalType":"address"}],"stateMutability":"view"},{"type":"function","name":"getSignedData","inputs":[{"name":"triggerId","type":"uint64","internalType":"ISimpleTrigger.TriggerId"}],"outputs":[{"name":"signedData","type":"tuple","internalType":"struct ISimpleSubmit.SignedData","components":[{"name":"data","type":"bytes","internalType":"bytes"},{"name":"signatureData","type":"tuple","internalType":"struct IWavsServiceHandler.SignatureData","components":[{"name":"signers","type":"address[]","internalType":"address[]"},{"name":"signatures","type":"bytes[]","internalType":"bytes[]"},{"name":"referenceBlock","type":"uint32","internalType":"uint32"}]},{"name":"envelope","type":"tuple","internalType":"struct IWavsServiceHandler.Envelope","components":[{"name":"eventId","type":"bytes20","internalType":"bytes20"},{"name":"ordering","type":"bytes12","internalType":"bytes12"},{"name":"payload","type":"bytes","internalType":"bytes"}]}]}],"stateMutability":"view"},{"type":"function","name":"handleSignedEnvelope","inputs":[{"name":"envelope","type":"tuple","internalType":"struct IWavsServiceHandler.Envelope","components":[{"name":"eventId","type":"bytes20","internalType":"bytes20"},{"name":"ordering","type":"bytes12","internalType":"bytes12"},{"name":"payload","type":"bytes","internalType":"bytes"}]},{"name":"signatureData","type":"tuple","internalType":"struct IWavsServiceHandler.SignatureData","components":[{"name":"signers","type":"address[]","internalType":"address[]"},{"name":"signatures","type":"bytes[]","internalType":"bytes[]"},{"name":"referenceBlock","type":"uint32","internalType":"uint32"}]}],"outputs":[],"stateMutability":"nonpayable"},{"type":"function","name":"isValidTriggerId","inputs":[{"name":"triggerId","type":"uint64","internalType":"ISimpleTrigger.TriggerId"}],"outputs":[{"name":"","type":"bool","internalType":"bool"}],"stateMutability":"view"}],"bytecode":{"object":"0x60806040523461002f57610019610014610100565b61019b565b610021610034565b611e8e6101a88239611e8e90f35b61003a565b60405190565b5f80fd5b601f801991011690565b634e487b7160e01b5f52604160045260245ffd5b906100669061003e565b810190811060018060401b0382111761007e57604052565b610048565b9061009661008f610034565b928361005c565b565b5f80fd5b60018060a01b031690565b6100b09061009c565b90565b6100bc906100a7565b90565b6100c8816100b3565b036100cf57565b5f80fd5b905051906100e0826100bf565b565b906020828203126100fb576100f8915f016100d3565b90565b610098565b61011e6120368038038061011381610083565b9283398101906100e2565b90565b5f1b90565b9061013760018060a01b0391610121565b9181191691161790565b90565b61015861015361015d9261009c565b610141565b61009c565b90565b61016990610144565b90565b61017590610160565b90565b90565b9061019061018b6101979261016c565b610178565b8254610126565b9055565b6101a5905f61017b565b56fe60806040526004361015610013575b6105e4565b61001d5f3561006c565b80634dda0b431461006757806378ecfb4714610062578063aa32d9f41461005d578063c053045e146100585763f969ff330361000e576105b0565b6104ef565b610448565b6103ec565b6100c8565b60e01c90565b60405190565b5f80fd5b5f80fd5b5f91031261008a57565b61007c565b60018060a01b031690565b6100a39061008f565b90565b6100af9061009a565b9052565b91906100c6905f602085019401906100a6565b565b346100f8576100d8366004610080565b6100f46100e3610651565b6100eb610072565b918291826100b3565b0390f35b610078565b5f80fd5b67ffffffffffffffff1690565b61011781610101565b0361011e57565b5f80fd5b9050359061012f8261010e565b565b9060208282031261014a57610147915f01610122565b90565b61007c565b5190565b60209181520190565b90825f9392825e0152565b601f801991011690565b61019061019960209361019e936101878161014f565b93848093610153565b9586910161015c565b610167565b0190565b5190565b60209181520190565b60200190565b6101be9061009a565b9052565b906101cf816020936101b5565b0190565b60200190565b906101f66101f06101e9846101a2565b80936101a6565b926101af565b905f5b8181106102065750505090565b90919261021f61021960019286516101c2565b946101d3565b91019190916101f9565b5190565b60209181520190565b60200190565b9061024691610171565b90565b60200190565b9061026361025c83610229565b809261022d565b908161027460208302840194610236565b925f915b83831061028757505050505090565b909192939460206102a96102a38385600195038752895161023c565b97610249565b9301930191939290610278565b63ffffffff1690565b6102c8906102b6565b9052565b9061030b906040806103006102ee606085015f8801518682035f8801526101d9565b6020870151858203602087015261024f565b9401519101906102bf565b90565b6bffffffffffffffffffffffff191690565b6103299061030e565b9052565b6bffffffffffffffffffffffff60a01b1690565b61034a9061032d565b9052565b61038b91604060608201926103695f8201515f850190610320565b61037b60208201516020850190610341565b0151906040818403910152610171565b90565b6103d19160406103c06103ae606084015f8601518582035f870152610171565b602085015184820360208601526102cc565b92015190604081840391015261034e565b90565b6103e99160208201915f81840391015261038e565b90565b3461041c57610418610407610402366004610131565b610bfe565b61040f610072565b918291826103d4565b0390f35b610078565b151590565b61042f90610421565b9052565b9190610446905f60208501940190610426565b565b346104785761047461046361045e366004610131565b610c5e565b61046b610072565b91829182610433565b0390f35b610078565b90565b61049461048f61049992610101565b61047d565b610101565b90565b6104a590610480565b9052565b6104d491602060408201926104c45f8201515f85019061049c565b0151906020818403910152610171565b90565b6104ec9160208201915f8184039101526104a9565b90565b3461051f5761051b61050a610505366004610131565b610cda565b610512610072565b918291826104d7565b0390f35b610078565b5f80fd5b908160609103126105365790565b610524565b908160609103126105495790565b610524565b9190916040818403126105a6575f81013567ffffffffffffffff81116105a1578361057a918301610528565b92602082013567ffffffffffffffff811161059c57610599920161053b565b90565b6100fd565b6100fd565b61007c565b5f0190565b346105df576105c96105c336600461054e565b90611d2a565b6105d1610072565b806105db816105ab565b0390f35b610078565b5f80fd5b5f90565b5f1c90565b60018060a01b031690565b61060861060d916105ec565b6105f1565b90565b61061a90546105fc565b90565b61063161062c6106369261008f565b61047d565b61008f565b90565b6106429061061d565b90565b61064e90610639565b90565b6106596105e8565b5061066b6106665f610610565b610645565b90565b634e487b7160e01b5f52604160045260245ffd5b9061068c90610167565b810190811067ffffffffffffffff8211176106a657604052565b61066e565b906106be6106b7610072565b9283610682565b565b6106ca60606106ab565b90565b606090565b6106dc60606106ab565b90565b606090565b606090565b5f90565b6106f56106d2565b9060208080846107036106df565b81520161070e6106e4565b8152016107196106e9565b81525050565b6107276106ed565b90565b61073460606106ab565b90565b5f90565b5f90565b61074761072a565b906020808084610755610737565b81520161076061073b565b81520161076b6106cd565b81525050565b61077961073f565b90565b6107846106c0565b9060208080846107926106cd565b81520161079d61071f565b8152016107a8610771565b81525050565b6107b661077c565b90565b906107c390610480565b5f5260205260405f2090565b634e487b7160e01b5f52602260045260245ffd5b9060016002830492168015610803575b60208310146107fe57565b6107cf565b91607f16916107f3565b5f5260205f2090565b905f9291805490610830610829836107e3565b8094610153565b916001811690815f14610887575060011461084b575b505050565b610858919293945061080d565b915f925b81841061086f57505001905f8080610846565b6001816020929593955484860152019101929061085c565b92949550505060ff19168252151560200201905f8080610846565b906108ac91610816565b90565b906108cf6108c8926108bf610072565b938480926108a2565b0383610682565b565b52565b5490565b5f5260205f2090565b60018060a01b031690565b6108f86108fd916105ec565b6108e1565b90565b61090a90546108ec565b90565b60010190565b9061093061092a610923846108d4565b80936101a6565b926108d8565b905f5b8181106109405750505090565b90919261096061095a60019261095587610900565b6101c2565b9461090d565b9101919091610933565b9061097491610913565b90565b9061099761099092610987610072565b9384809261096a565b0383610682565b565b52565b5490565b67ffffffffffffffff81116109b85760208091020190565b61066e565b906109cf6109ca836109a0565b6106ab565b918252565b5f5260205f2090565b6109e6906108af565b90565b906109f38261099c565b6109fc816109bd565b92610a0a60208501916109d4565b5f915b838310610a1a5750505050565b600160208192610a29856109dd565b815201920192019190610a0d565b52565b63ffffffff1690565b610a4f610a54916105ec565b610a3a565b90565b610a619054610a43565b90565b90610a6e906102b6565b9052565b90610ac1610ab86002610a836106d2565b94610a9a610a925f8301610977565b5f8801610999565b610ab2610aa9600183016109e9565b60208801610a37565b01610a57565b60408401610a64565b565b52565b60601b90565b610ad590610ac6565b90565b610ae4610ae9916105ec565b610acc565b90565b610af69054610ad8565b90565b90610b039061030e565b9052565b60a01c90565b60a01b90565b610b1c90610b0d565b90565b610b2b610b3091610b07565b610b13565b90565b610b3d9054610b1f565b90565b90610b4a9061032d565b9052565b90610b9c610b936001610b5f61072a565b94610b76610b6e5f8301610aec565b5f8801610af9565b610b8d610b845f8301610b33565b60208801610b40565b016108af565b604084016108d1565b565b52565b90610bf0610be76004610bb26106c0565b94610bc9610bc15f83016108af565b5f88016108d1565b610be1610bd860018301610a72565b60208801610ac3565b01610b4e565b60408401610b9e565b565b610bfb90610ba1565b90565b610c15610c1a91610c0d6107ae565b5060026107b9565b610bf2565b90565b5f90565b90610c2b90610480565b5f5260205260405f2090565b60ff1690565b610c49610c4e916105ec565b610c37565b90565b610c5b9054610c3d565b90565b610c75610c7a91610c6d610c1d565b506001610c21565b610c51565b90565b610c8760406106ab565b90565b5f90565b610c96610c7d565b9060208083610ca3610c8a565b815201610cae6106cd565b81525050565b610cbc610c8e565b90565b610cc960406106ab565b90565b90610cd690610101565b9052565b610ce2610cb4565b50610d1a5f610cfb610cf6600285906107b9565b610bf2565b0151610d11610d08610cbf565b935f8501610ccc565b602083016108d1565b90565b5f80fd5b60e01b90565b5f910312610d3157565b61007c565b610d3f8161030e565b03610d4657565b5f80fd5b90503590610d5782610d36565b565b50610d68906020810190610d4a565b90565b610d748161032d565b03610d7b57565b5f80fd5b90503590610d8c82610d6b565b565b50610d9d906020810190610d7f565b90565b5f80fd5b5f80fd5b5f80fd5b9035600160200382360303811215610ded57016020813591019167ffffffffffffffff8211610de8576001820236038313610de357565b610da4565b610da0565b610da8565b90825f939282370152565b9190610e1781610e1081610e1c95610153565b8095610df2565b610167565b0190565b610e7691610e686060820192610e44610e3b5f830183610d59565b5f850190610320565b610e5e610e546020830183610d8e565b6020850190610341565b6040810190610dac565b916040818503910152610dfd565b90565b9035600160200382360303811215610eba57016020813591019167ffffffffffffffff8211610eb5576020820236038313610eb057565b610da4565b610da0565b610da8565b90565b610ecb8161009a565b03610ed257565b5f80fd5b90503590610ee382610ec2565b565b50610ef4906020810190610ed6565b90565b60200190565b91610f0b82610f11926101a6565b92610ebf565b90815f905b828210610f24575050505090565b90919293610f46610f40600192610f3b8886610ee5565b6101c2565b95610ef7565b920190929192610f16565b9035600160200382360303811215610f9257016020813591019167ffffffffffffffff8211610f8d576020820236038313610f8857565b610da4565b610da0565b610da8565b90565b90610fa59291610dfd565b90565b60200190565b9181610fb99161022d565b9081610fca60208302840194610f97565b92835f925b848410610fdf5750505050505090565b909192939495602061100b6110058385600195038852610fff8b88610dac565b90610f9a565b98610fa8565b940194019294939190610fcf565b611022816102b6565b0361102957565b5f80fd5b9050359061103a82611019565b565b5061104b90602081019061102d565b90565b906110a89060406110a061109661107b6060850161106e5f890189610e79565b908783035f890152610efd565b6110886020880188610f51565b908683036020880152610fae565b948281019061103c565b9101906102bf565b90565b90916110c56110d39360408401908482035f860152610e20565b91602081840391015261104e565b90565b6110de610072565b3d5f823e3d90fd5b5f80fd5b5f80fd5b5f80fd5b903590600160200381360303821215611134570180359067ffffffffffffffff821161112f5760200191600182023603831361112a57565b6110ee565b6110ea565b6110e6565b5f80fd5b5f80fd5b5f80fd5b5f80fd5b67ffffffffffffffff811161116757611163602091610167565b0190565b61066e565b9092919261118161117c82611149565b6106ab565b9381855260208501908284011161119d5761119b92610df2565b565b611145565b9080601f830112156111c0578160206111bd9335910161116c565b90565b611141565b919091604081840312611217576111dc60406106ab565b926111e9815f8401610122565b5f850152602082013567ffffffffffffffff81116112125761120b92016111a2565b6020830152565b61113d565b611139565b9060208282031261124c575f82013567ffffffffffffffff81116112475761124492016111c5565b90565b6100fd565b61007c565b61125b60606106ab565b90565b67ffffffffffffffff81116112765760208091020190565b61066e565b5f80fd5b9092919261129461128f8261125e565b6106ab565b93818552602080860192028301928184116112d157915b8383106112b85750505050565b602080916112c68486610ed6565b8152019201916112ab565b61127b565b9080601f830112156112f4578160206112f19335910161127f565b90565b611141565b92919061130d611308826109a0565b6106ab565b93818552602080860192028101918383116113645781905b838210611333575050505050565b813567ffffffffffffffff811161135f5760209161135487849387016111a2565b815201910190611325565b611141565b61127b565b9080601f8301121561138757816020611384933591016112f9565b90565b611141565b919091606081840312611409576113a360606106ab565b925f82013567ffffffffffffffff811161140457816113c39184016112d6565b5f85015260208201359167ffffffffffffffff83116113ff576113eb826113f8948301611369565b602086015260400161102d565b6040830152565b61113d565b61113d565b611139565b61141990369061138c565b90565b9190916060818403126114805761143360606106ab565b92611440815f8401610d4a565b5f8501526114518160208401610d7f565b6020850152604082013567ffffffffffffffff811161147b5761147492016111a2565b6040830152565b61113d565b611139565b61149090369061141c565b90565b61149d9051610101565b90565b634e487b7160e01b5f525f60045260245ffd5b5190565b601f602091010490565b1b90565b919060086114e09102916114da5f19846114c1565b926114c1565b9181191691161790565b90565b6115016114fc611506926114ea565b61047d565b6114ea565b90565b90565b919061152261151d61152a936114ed565b611509565b9083546114c5565b9055565b5f90565b6115449161153e61152e565b9161150c565b565b5b818110611552575050565b8061155f5f600193611532565b01611547565b9190601f8111611575575b505050565b6115816115a69361080d565b90602061158d846114b7565b830193106115ae575b61159f906114b7565b0190611546565b5f8080611570565b915061159f81929050611596565b1c90565b906115d0905f19906008026115bc565b191690565b816115df916115c0565b906002021790565b906115f18161014f565b9067ffffffffffffffff82116116b1576116158261160f85546107e3565b85611565565b602090601f831160011461164957918091611638935f9261163d575b50506115d5565b90555b565b90915001515f80611631565b601f198316916116588561080d565b925f5b8181106116995750916002939185600196941061167f575b5050500201905561163b565b61168f910151601f8416906115c0565b90555f8080611673565b9193602060018192878701518155019501920161165b565b61066e565b906116c0916115e7565b565b5190565b5190565b600190818003010490565b5b8181106116e1575050565b806116ee5f600193611532565b016116d6565b90611707905f19906020036008026115bc565b8154169055565b909182811061171d575b505050565b61173b61173561172f611746956116ca565b926116ca565b926108d8565b9182019101906116d5565b5f8080611718565b90680100000000000000008111611777578161176c611775936108d4565b9082815561170e565b565b61066e565b611786905161009a565b90565b90565b611795826101a2565b9167ffffffffffffffff83116117f8576117c36117bd6001926117b8868661174e565b6101af565b926108d8565b9204915f5b8381106117d55750505050565b60019060206117eb6117e68661177c565b611789565b94019381840155016117c8565b61066e565b906118079161178c565b565b5190565b600190818003010490565b905f9161182f6118278261080d565b9283546115d5565b905555565b919290602082105f1461188d57601f841160011461185d576118579293506115d5565b90555b5b565b509061188361188893600161187a6118748561080d565b926114b7565b82019101611546565b611818565b61185a565b506118c4829361189e60019461080d565b6118bd6118aa856114b7565b820192601f8616806118cf575b506114b7565b0190611546565b60020217905561185b565b6118db908886036116f4565b5f6118b7565b929091680100000000000000008211611941576020115f1461193257602081105f1461191657611910916115d5565b90555b5b565b60019160ff19166119268461080d565b55600202019055611913565b60019150600202019055611914565b61066e565b908154611952816107e3565b9081831161197b575b818310611969575b50505050565b61197293611834565b5f808080611963565b611987838383876118e1565b61195b565b5f61199691611946565b565b905f036119aa576119a89061198c565b565b6114a0565b5b8181106119bb575050565b806119c85f600193611998565b016119b0565b90918281106119dd575b505050565b6119fb6119f56119ef611a069561180d565b9261180d565b926109d4565b9182019101906119af565b5f80806119d8565b90680100000000000000008111611a375781611a2c611a359361099c565b908281556119ce565b565b61066e565b611a61611a5b611a4b84610229565b93611a568585611a0e565b610236565b916109d4565b5f915b838310611a715750505050565b6001602082611a89611a8384956114b3565b866116b6565b01920192019190611a64565b90611a9f91611a3c565b565b611aab90516102b6565b90565b5f1b90565b90611ac263ffffffff91611aae565b9181191691161790565b611ae0611adb611ae5926102b6565b61047d565b6102b6565b90565b90565b90611b00611afb611b0792611acc565b611ae8565b8254611ab3565b9055565b90611b4f60406002611b5594611b2e5f8201611b285f88016116c6565b906117fd565b611b4760018201611b4160208801611809565b90611a95565b019201611aa1565b90611aeb565b565b90611b6191611b0b565b565b5190565b611b71905161030e565b90565b90611b8560018060a01b0391611aae565b9181191691161790565b611b989061030e565b90565b60601c90565b611baa90611b9b565b90565b90611bc2611bbd611bc992611b8f565b611ba1565b8254611b74565b9055565b611bd7905161032d565b90565b90611bf46bffffffffffffffffffffffff60a01b91610b0d565b9181191691161790565b611c079061032d565b90565b611c1390610b07565b90565b90611c2b611c26611c3292611bfe565b611c0a565b8254611bda565b9055565b90611c7960406001611c7f94611c595f8201611c535f8801611b67565b90611bad565b611c715f8201611c6b60208801611bcd565b90611c16565b0192016114b3565b906116b6565b565b90611c8b91611c36565b565b90611cd160406004611cd794611cb05f8201611caa5f88016114b3565b906116b6565b611cc960018201611cc3602088016116c2565b90611b57565b019201611b63565b90611c81565b565b90611ce391611c8d565b565b90611cf160ff91611aae565b9181191691161790565b611d0490610421565b90565b90565b90611d1f611d1a611d2692611cfb565b611d07565b8254611ce5565b9055565b611d3b611d365f610610565b610645565b9163cd71589e828294803b15611e5357611d675f93611d72611d5b610072565b98899586948594610d21565b8452600484016110ab565b03915afa908115611e4e57611e2093611e0292611e22575b50611de7611dde611daa611da28660408101906110f2565b81019061121c565b94611dd9611dd0602088015195611dcb611dc2611251565b975f89016108d1565b61140e565b60208601610ac3565b611485565b60408301610b9e565b611dfd6002611df75f8601611493565b906107b9565b611cd9565b611e1b600191611e155f60019201611493565b90610c21565b611d0a565b565b611e41905f3d8111611e47575b611e398183610682565b810190610d27565b5f611d8a565b503d611e2f565b6110d6565b610d1d56fea264697066735822122006c0c4b716f39fbed042d701ba371a7a6328c8785f2b28f6ced48a4fd1a659ae64736f6c634300081b0033","linkReferences":{}},"methodIdentifiers":{"getDataWithId(uint64)":"c053045e","getServiceManager()":"4dda0b43","getSignedData(uint64)":"78ecfb47","handleSignedEnvelope((bytes20,bytes12,bytes),(address[],bytes[],uint32))":"f969ff33","isValidTriggerId(uint64)":"aa32d9f4"},"id":5}