{"abi":[{"type":"constructor","inputs":[{"name":"_avsDirectory","type":"address","internalType":"address"},{"name":"_stakeRegistry","type":"address","internalType":"address"},{"name":"_rewardsCoordinator","type":"address","internalType":"address"},{"name":"_delegationManager","type":"address","internalType":"address"}],"stateMutability":"nonpayable"},{"type":"function","name":"addPayload","inputs":[{"name":"signedPayload","type":"tuple","internalType":"struct ILayerServiceManager.SignedPayload","components":[{"name":"data","type":"bytes","internalType":"bytes"},{"name":"signature","type":"bytes","internalType":"bytes"}]}],"outputs":[],"stateMutability":"nonpayable"},{"type":"function","name":"addPayloadMulti","inputs":[{"name":"signedPayloads","type":"tuple[]","internalType":"struct ILayerServiceManager.SignedPayload[]","components":[{"name":"data","type":"bytes","internalType":"bytes"},{"name":"signature","type":"bytes","internalType":"bytes"}]}],"outputs":[],"stateMutability":"nonpayable"},{"type":"function","name":"avsDirectory","inputs":[],"outputs":[{"name":"","type":"address","internalType":"address"}],"stateMutability":"view"},{"type":"function","name":"createAVSRewardsSubmission","inputs":[{"name":"rewardsSubmissions","type":"tuple[]","internalType":"struct IRewardsCoordinator.RewardsSubmission[]","components":[{"name":"strategiesAndMultipliers","type":"tuple[]","internalType":"struct IRewardsCoordinator.StrategyAndMultiplier[]","components":[{"name":"strategy","type":"address","internalType":"contract IStrategy"},{"name":"multiplier","type":"uint96","internalType":"uint96"}]},{"name":"token","type":"address","internalType":"contract IERC20"},{"name":"amount","type":"uint256","internalType":"uint256"},{"name":"startTimestamp","type":"uint32","internalType":"uint32"},{"name":"duration","type":"uint32","internalType":"uint32"}]}],"outputs":[],"stateMutability":"nonpayable"},{"type":"function","name":"createOperatorDirectedAVSRewardsSubmission","inputs":[{"name":"operatorDirectedRewardsSubmissions","type":"tuple[]","internalType":"struct IRewardsCoordinator.OperatorDirectedRewardsSubmission[]","components":[{"name":"strategiesAndMultipliers","type":"tuple[]","internalType":"struct IRewardsCoordinator.StrategyAndMultiplier[]","components":[{"name":"strategy","type":"address","internalType":"contract IStrategy"},{"name":"multiplier","type":"uint96","internalType":"uint96"}]},{"name":"token","type":"address","internalType":"contract IERC20"},{"name":"operatorRewards","type":"tuple[]","internalType":"struct IRewardsCoordinator.OperatorReward[]","components":[{"name":"operator","type":"address","internalType":"address"},{"name":"amount","type":"uint256","internalType":"uint256"}]},{"name":"startTimestamp","type":"uint32","internalType":"uint32"},{"name":"duration","type":"uint32","internalType":"uint32"},{"name":"description","type":"string","internalType":"string"}]}],"outputs":[],"stateMutability":"nonpayable"},{"type":"function","name":"deregisterOperatorFromAVS","inputs":[{"name":"operator","type":"address","internalType":"address"}],"outputs":[],"stateMutability":"nonpayable"},{"type":"function","name":"getOperatorRestakedStrategies","inputs":[{"name":"_operator","type":"address","internalType":"address"}],"outputs":[{"name":"","type":"address[]","internalType":"address[]"}],"stateMutability":"view"},{"type":"function","name":"getRestakeableStrategies","inputs":[],"outputs":[{"name":"","type":"address[]","internalType":"address[]"}],"stateMutability":"view"},{"type":"function","name":"getSignedPayloadForTriggerId","inputs":[{"name":"triggerId","type":"uint64","internalType":"ISimpleTrigger.TriggerId"}],"outputs":[{"name":"signedPayload","type":"tuple","internalType":"struct ILayerServiceManager.SignedPayload","components":[{"name":"data","type":"bytes","internalType":"bytes"},{"name":"signature","type":"bytes","internalType":"bytes"}]}],"stateMutability":"view"},{"type":"function","name":"isValidTriggerId","inputs":[{"name":"triggerId","type":"uint64","internalType":"ISimpleTrigger.TriggerId"}],"outputs":[{"name":"","type":"bool","internalType":"bool"}],"stateMutability":"view"},{"type":"function","name":"owner","inputs":[],"outputs":[{"name":"","type":"address","internalType":"address"}],"stateMutability":"view"},{"type":"function","name":"registerOperatorToAVS","inputs":[{"name":"operator","type":"address","internalType":"address"},{"name":"operatorSignature","type":"tuple","internalType":"struct ISignatureUtils.SignatureWithSaltAndExpiry","components":[{"name":"signature","type":"bytes","internalType":"bytes"},{"name":"salt","type":"bytes32","internalType":"bytes32"},{"name":"expiry","type":"uint256","internalType":"uint256"}]}],"outputs":[],"stateMutability":"nonpayable"},{"type":"function","name":"renounceOwnership","inputs":[],"outputs":[],"stateMutability":"nonpayable"},{"type":"function","name":"rewardsInitiator","inputs":[],"outputs":[{"name":"","type":"address","internalType":"address"}],"stateMutability":"view"},{"type":"function","name":"setClaimerFor","inputs":[{"name":"claimer","type":"address","internalType":"address"}],"outputs":[],"stateMutability":"nonpayable"},{"type":"function","name":"setRewardsInitiator","inputs":[{"name":"newRewardsInitiator","type":"address","internalType":"address"}],"outputs":[],"stateMutability":"nonpayable"},{"type":"function","name":"stakeRegistry","inputs":[],"outputs":[{"name":"","type":"address","internalType":"address"}],"stateMutability":"view"},{"type":"function","name":"transferOwnership","inputs":[{"name":"newOwner","type":"address","internalType":"address"}],"outputs":[],"stateMutability":"nonpayable"},{"type":"function","name":"updateAVSMetadataURI","inputs":[{"name":"_metadataURI","type":"string","internalType":"string"}],"outputs":[],"stateMutability":"nonpayable"},{"type":"function","name":"validatePayload","inputs":[{"name":"signedPayload","type":"tuple","internalType":"struct ILayerServiceManager.SignedPayload","components":[{"name":"data","type":"bytes","internalType":"bytes"},{"name":"signature","type":"bytes","internalType":"bytes"}]}],"outputs":[{"name":"","type":"bool","internalType":"bool"}],"stateMutability":"view"},{"type":"function","name":"validatePayloadMulti","inputs":[{"name":"signedPayloads","type":"tuple[]","internalType":"struct ILayerServiceManager.SignedPayload[]","components":[{"name":"data","type":"bytes","internalType":"bytes"},{"name":"signature","type":"bytes","internalType":"bytes"}]}],"outputs":[{"name":"","type":"bool","internalType":"bool"}],"stateMutability":"view"},{"type":"event","name":"Initialized","inputs":[{"name":"version","type":"uint8","indexed":false,"internalType":"uint8"}],"anonymous":false},{"type":"event","name":"OwnershipTransferred","inputs":[{"name":"previousOwner","type":"address","indexed":true,"internalType":"address"},{"name":"newOwner","type":"address","indexed":true,"internalType":"address"}],"anonymous":false},{"type":"event","name":"RewardsInitiatorUpdated","inputs":[{"name":"prevRewardsInitiator","type":"address","indexed":false,"internalType":"address"},{"name":"newRewardsInitiator","type":"address","indexed":false,"internalType":"address"}],"anonymous":false},{"type":"error","name":"InvalidSignature","inputs":[]}],"bytecode":{"object":"0x6101003461019a57601f61202438819003918201601f19168301916001600160401b0383118484101761019e5780849260809460405283398101031261019a57610048816101b2565b90610055602082016101b2565b61006d6060610066604085016101b2565b93016101b2565b9260a05260805260c05260e0525f5460ff8160081c166101455760ff8082161061010b575b604051611e5d90816101c782396080518181816105860152818161079c01528181610d5d01528181610f0b015281816111070152611684015260a0518181816106c1015281816107cc01528181610d860152610ec7015260c05181818161013e015281816108720152610c2e015260e051816111cd0152f35b60ff90811916175f557f7f26b83ff96e1f2b6a682f133852f6798a09c465da95921460cefb3847402498602060405160ff8152a15f610092565b60405162461bcd60e51b815260206004820152602760248201527f496e697469616c697a61626c653a20636f6e747261637420697320696e697469604482015266616c697a696e6760c81b6064820152608490fd5b5f80fd5b634e487b7160e01b5f52604160045260245ffd5b51906001600160a01b038216820361019a5756fe60806040526004361015610011575f80fd5b5f803560e01c8063216a3e9a146113a857806333cfb7b7146110da5780633bc28c8c1461105b5780634e3bf38814610fba57806363710c0514610f3a5780636830483514610ef65780636b3aa72e14610eb2578063715018a614610e575780638da5cb5b14610e2f5780639926ee7d14610cce5780639aa9fda514610c96578063a0169ddd14610c09578063a20b99bf14610834578063a364f4da1461077b578063a71f8da014610735578063a98fb35514610674578063aa32d9f414610637578063e481af9d14610561578063f2fde38b14610498578063fc299dee1461046f5763fce36c7d14610101575f80fd5b346101de5760203660031901126101de576004356001600160401b03811161046b57610131903690600401611499565b61013c929192611c4b565b7f0000000000000000000000000000000000000000000000000000000000000000825b82811061028957506001600160a01b031690813b15610285576040519363fce36c7d60e01b8552816024860160206004880152526044850160448360051b87010192828690609e19813603015b8383106101ec5788808b8181808c0381838f5af180156101e1576101cd5750f35b816101d791611513565b6101de5780f35b80fd5b6040513d84823e3d90fd5b9091929394956043198a82030186528635828112156102815760206001928582930190608063ffffffff61026f826102356102278780611d5c565b60a0885260a0880191611d90565b95898060a01b03610247898301611409565b1688870152604081013560408701528361026360608301611df4565b16606087015201611df4565b169101529801960194930191906101ac565b8980fd5b8280fd5b8360206102ea6001600160a01b036102ac836102a6878a8d611e05565b01611d48565b1660406102ba86898c611e05565b6040516323b872dd60e01b8152336004820152306024820152910135604482015293849283919082906064820190565b03925af180156104085761044f575b506001600160a01b0361031260206102a684878a611e05565b604051636eb1769f60e11b81523060048201526001600160a01b03851660248201529160209183916044918391165afa90811561040857859187918391610413575b506020916103bf9161038c906040610385888b6001600160a01b0361037e8a6102a685858c611e05565b1696611e05565b0135611d3b565b60405163095ea7b360e01b81526001600160a01b0388166004820152602481019190915293849283919082906044820190565b03925af180156104085790600192916103da575b500161015f565b6103fa9060203d8111610401575b6103f28183611513565b8101906118c8565b505f6103d3565b503d6103e8565b6040513d87823e3d90fd5b925050506020813d8211610447575b8161042f60209383611513565b810103126104435751849086906020610354565b5f80fd5b3d9150610422565b6104669060203d8111610401576103f28183611513565b6102f9565b5080fd5b50346101de57806003193601126101de576065546040516001600160a01b039091168152602090f35b50346101de5760203660031901126101de576104b26113f3565b6104ba611b48565b6001600160a01b0316801561050d57603380546001600160a01b0319811683179091556001600160a01b03167f8be0079c531659141344cd1fd0a4f28419497f9722a3daafe3b4186f6b6457e08380a380f35b60405162461bcd60e51b815260206004820152602660248201527f4f776e61626c653a206e6577206f776e657220697320746865207a65726f206160448201526564647265737360d01b6064820152608490fd5b50346101de57806003193601126101de576040516302e0740360e31b815281816004817f00000000000000000000000000000000000000000000000000000000000000006001600160a01b03165afa9081156101e1578291610615575b506105ca815151611b16565b915b8151805182101561060357600191906001600160a01b03906105ef908390611af4565b5151166105fc8286611af4565b52016105cc565b60405180610611868261141d565b0390f35b61063191503d8084833e6106298183611513565b8101906119f2565b5f6105be565b50346101de5760203660031901126101de5760ff60406020926001600160401b0361066061145f565b168152609784522054166040519015158152f35b50346101de5760203660031901126101de57806004356001600160401b0381116107325736602382011215610732576106b7903690602481600401359101611534565b6106bf611b48565b7f00000000000000000000000000000000000000000000000000000000000000006001600160a01b0316803b1561072e5760405163a98fb35560e01b815260206004820152918391839182908490829061071d906024830190611475565b03925af180156101e1576101cd5750f35b5050fd5b50fd5b50346101de5760203660031901126101de57600435906001600160401b0382116101de57602061077161076b3660048601611499565b90611911565b6040519015158152f35b50346101de5760203660031901126101de57806107966113f3565b6107ca337f00000000000000000000000000000000000000000000000000000000000000006001600160a01b031614611843565b7f00000000000000000000000000000000000000000000000000000000000000006001600160a01b031690813b1561072e576040516351b27a6d60e11b81526001600160a01b0390911660048201529082908290602490829084905af180156101e1576101cd5750f35b50346101de5760203660031901126101de576004356001600160401b03811161046b57610865903690600401611499565b610870929192611c4b565b7f0000000000000000000000000000000000000000000000000000000000000000825b828110610a215750919283926001600160a01b031690813b15610a1c57935060405191634e5cd2fd60e11b835280604484013060048601526040602486015252606483019060648160051b850101958092869160be19813603015b84841061090f578880898181808f0381838e5af180156101e1576101cd5750f35b878a03606319018352853581811215610281578201996109406109328c80611d5c565b60c0845260c0840191611d90565b9a6001600160a01b0361095560208301611409565b166020830152602061096a6040830183611d5c565b848f036040860152808f529d9091019c8c5b8181106109eb5750505060206109db8c9d6001946109cd8563ffffffff6109a66060889901611df4565b16606084015263ffffffff6109bd60808301611df4565b16608084015260a08101906118e0565b9160a08185039101526115c9565b98019401940193929599506108ee565b90919d60408f60019260208392858060a01b03610a0782611409565b16835201356020820152019f0192910161097c565b505050fd5b909291829483955b610a41610a37858585611ce4565b6040810190611d06565b9050871015610a9157610a58610a37858585611ce4565b881015610a7d576001916020610a75928a60061b01013590611d3b565b960195610a29565b634e487b7160e01b86526032600452602486fd5b909550929390929091906001600160a01b03610ab360206102a685888b611ce4565b6040516323b872dd60e01b81523360048201523060248201526044810184905291602091839160649183918b91165af18015610be257610bed575b506001600160a01b03610b0760206102a685888b611ce4565b604051636eb1769f60e11b81523060048201526001600160a01b03861660248201529160209183916044918391165afa908115610be257908692918391610bab575b5060209161038c610b72928a610b6b866102a68a8d60018060a01b0395611ce4565b1692611d3b565b03925af18015610408579060019291610b8d575b5001610893565b610ba49060203d8111610401576103f28183611513565b505f610b86565b9250506020823d8211610bda575b81610bc660209383611513565b810103126104435790518591906020610b49565b3d9150610bb9565b6040513d88823e3d90fd5b610c049060203d8111610401576103f28183611513565b610aee565b50346101de5760203660031901126101de5780610c246113f3565b610c2c611b48565b7f00000000000000000000000000000000000000000000000000000000000000006001600160a01b031690813b1561072e5760405163a0169ddd60e01b81526001600160a01b0390911660048201529082908290602490829084905af180156101e1576101cd5750f35b50346101de57610ca5366113c0565b610cae816115e9565b15610cbf57610cbc90611ba0565b80f35b638baa579f60e01b8252600482fd5b503461044357604036600319011261044357610ce86113f3565b602435906001600160401b03821161044357606060031983360301126104435760405190610d15826114f8565b82600401356001600160401b03811161044357610d389060043691860101611579565b82526020820191602484013583526044604082019401358452610d8460018060a01b037f0000000000000000000000000000000000000000000000000000000000000000163314611843565b7f00000000000000000000000000000000000000000000000000000000000000006001600160a01b031690813b15610443575f610df793819560405197889687958694639926ee7d60e01b865260018060a01b0316600486015260406024860152516060604486015260a4850190611475565b9151606484015251608483015203925af18015610e2457610e16575080f35b610e2291505f90611513565b005b6040513d5f823e3d90fd5b34610443575f366003190112610443576033546040516001600160a01b039091168152602090f35b34610443575f36600319011261044357610e6f611b48565b603380546001600160a01b031981169091555f906001600160a01b03167f8be0079c531659141344cd1fd0a4f28419497f9722a3daafe3b4186f6b6457e08280a3005b34610443575f366003190112610443576040517f00000000000000000000000000000000000000000000000000000000000000006001600160a01b03168152602090f35b34610443575f366003190112610443576040517f00000000000000000000000000000000000000000000000000000000000000006001600160a01b03168152602090f35b34610443576020366003190112610443576004356001600160401b03811161044357610f6a903690600401611499565b610f748183611911565b15610fab575f5b63ffffffff81169082821015610e2257610fa1610f9c610fa693858761180d565b611ba0565b6117e2565b610f7b565b638baa579f60e01b5f5260045ffd5b34610443576020366003190112610443576001600160401b03610fdb61145f565b60606020604051610feb816114c9565b8281520152165f52609860205261104860405f20610611611025600160405193611014856114c9565b61101d81611716565b855201611716565b602083019081526040519384936020855251604060208601526060850190611475565b9051838203601f19016040850152611475565b34610443576020366003190112610443576110746113f3565b61107c611b48565b606554604080516001600160a01b038084168252841660208201529192917fe11cddf1816a43318ca175bbc52cd0185436e9cbead7c83acc54a73e461717e39190a16001600160a01b03166001600160a01b03199190911617606555005b34610443576020366003190112610443576110f36113f3565b6040516302e0740360e31b81525f816004817f00000000000000000000000000000000000000000000000000000000000000006001600160a01b03165afa908115610e24575f9161138e575b50908151519061114e826119db565b9061115c6040519283611513565b828252611168836119db565b602083019490601f19013686375f5b84811061136057505060408051639004134760e01b81526001600160a01b0390921660048301526024820152815160448201819052909384916064830191905f5b81811061133e57505f939283900391508290507f00000000000000000000000000000000000000000000000000000000000000006001600160a01b03165afa928315610e24575f936112ac575b505f805b838110611280575061121a90611b16565b925f905f5b8481106112345760405180610611888261141d565b61123e8183611af4565b5161124c575b60010161121f565b91600190611278906001600160a01b036112668688611af4565b5116611272828a611af4565b52611b08565b929050611244565b61128a8186611af4565b51611298575b600101611209565b906112a4600191611b08565b919050611290565b9092503d805f833e6112be8183611513565b810190602081830312610443578051906001600160401b03821161044357019080601f830112156104435781516112f4816119db565b926113026040519485611513565b81845260208085019260051b82010192831161044357602001905b82821061132e575050509183611205565b815181526020918201910161131d565b82516001600160a01b03168452879450602093840193909201916001016111b8565b600190818060a09895981b03611377828551611af4565b5151166113848287611af4565b5201949194611177565b6113a291503d805f833e6106298183611513565b8261113f565b346104435760206107716113bb366113c0565b6115e9565b602060031982011261044357600435906001600160401b0382116104435760409082900360031901126104435760040190565b600435906001600160a01b038216820361044357565b35906001600160a01b038216820361044357565b60206040818301928281528451809452019201905f5b8181106114405750505090565b82516001600160a01b0316845260209384019390920191600101611433565b600435906001600160401b038216820361044357565b805180835260209291819084018484015e5f828201840152601f01601f1916010190565b9181601f84011215610443578235916001600160401b038311610443576020808501948460051b01011161044357565b604081019081106001600160401b038211176114e457604052565b634e487b7160e01b5f52604160045260245ffd5b606081019081106001600160401b038211176114e457604052565b90601f801991011681019081106001600160401b038211176114e457604052565b9291926001600160401b0382116114e4576040519161155d601f8201601f191660200184611513565b829481845281830111610443578281602093845f960137010152565b9080601f830112156104435781602061159493359101611534565b90565b903590601e198136030182121561044357018035906001600160401b0382116104435760200191813603831361044357565b908060209392818452848401375f828201840152601f01601f1916010190565b60206116536116026115fb8480611597565b3691611534565b828151910120604051838101917f19457468657265756d205369676e6564204d6573736167653a0a3332000000008352603c820152603c8152611646605c82611513565b5190209282810190611597565b90926116806040519485938493630b135d3f60e11b855260048501526040602485015260448401916115c9565b03817f00000000000000000000000000000000000000000000000000000000000000006001600160a01b03165afa908115610e24575f916116d3575b506001600160e01b031916630b135d3f60e11b1490565b90506020813d60201161170e575b816116ee60209383611513565b8101031261044357516001600160e01b031981168103610443575f6116bc565b3d91506116e1565b90604051915f8154908160011c92600183169283156117d8575b6020851084146117c45784875286939081156117a2575060011461175e575b5061175c92500383611513565b565b90505f9291925260205f20905f915b81831061178657505090602061175c928201015f61174f565b602091935080600191548385890101520191019091849261176d565b90506020925061175c94915060ff191682840152151560051b8201015f61174f565b634e487b7160e01b5f52602260045260245ffd5b93607f1693611730565b63ffffffff1663ffffffff81146117f95760010190565b634e487b7160e01b5f52601160045260245ffd5b919081101561182f5760051b81013590603e1981360301821215610443570190565b634e487b7160e01b5f52603260045260245ffd5b1561184a57565b60405162461bcd60e51b815260206004820152604a60248201527f4543445341536572766963654d616e61676572426173652e6f6e6c795374616b60448201527f6552656769737472793a2063616c6c6572206973206e6f7420746865207374616064820152696b65526567697374727960b01b608482015260a490fd5b90816020910312610443575180151581036104435790565b9035601e19823603018112156104435701602081359101916001600160401b03821161044357813603831361044357565b5f5b63ffffffff8116838110156119d257602061193261198692868661180d565b604051809381926310b51f4d60e11b835284600484015261197461196a61195983806118e0565b6040602488015260648701916115c9565b91868101906118e0565b848303602319016044860152906115c9565b0381305afa908115610e24575f916119b4575b50156119ad576119a8906117e2565b611913565b5050505f90565b6119cc915060203d8111610401576103f28183611513565b5f611999565b50505050600190565b6001600160401b0381116114e45760051b60200190565b602081830312610443578051906001600160401b0382116104435701906020828203126104435760405191602083018381106001600160401b038211176114e4576040528051906001600160401b038211610443570181601f8201121561044357805190611a5f826119db565b92611a6d6040519485611513565b82845260208085019360061b8301019181831161044357602001925b828410611a995750505050815290565b6040848303126104435760405190611ab0826114c9565b84516001600160a01b03811681036104435782526020850151906bffffffffffffffffffffffff821682036104435782602092836040950152815201930192611a89565b805182101561182f5760209160051b010190565b5f1981146117f95760010190565b90611b20826119db565b611b2d6040519182611513565b8281528092611b3e601f19916119db565b0190602036910137565b6033546001600160a01b03163303611b5c57565b606460405162461bcd60e51b815260206004820152602060248201527f4f776e61626c653a2063616c6c6572206973206e6f7420746865206f776e65726044820152fd5b611baa9080611597565b810190602081830312610443578035906001600160401b03821161044357016060818303126104435760405190611be0826114f8565b80356001600160401b0381168103610443578252611c0060208201611409565b60208301526040810135926001600160401b038411610443576001600160401b0393611c2c9201611579565b604082015251165f52609760205260405f20600160ff19825416179055565b6065546001600160a01b03163303611c5f57565b60405162461bcd60e51b815260206004820152605160248201527f4543445341536572766963654d616e61676572426173652e6f6e6c795265776160448201527f726473496e69746961746f723a2063616c6c6572206973206e6f7420746865206064820152703932bbb0b932399034b734ba34b0ba37b960791b608482015260a490fd5b919081101561182f5760051b8101359060be1981360301821215610443570190565b903590601e198136030182121561044357018035906001600160401b03821161044357602001918160061b3603831361044357565b919082018092116117f957565b356001600160a01b03811681036104435790565b9035601e19823603018112156104435701602081359101916001600160401b038211610443578160061b3603831361044357565b916020908281520191905f905b808210611daa5750505090565b909192833560018060a01b0381168091036104435781526020840135906bffffffffffffffffffffffff821680920361044357604081600193602083940152019401920190611d9d565b359063ffffffff8216820361044357565b919081101561182f5760051b81013590609e198136030182121561044357019056fea26469706673582212201e99f4de189a25cf0fcdc42dde12f4f2ffa410e08d59d6e8b9d2d9d84042a3b064736f6c634300081a0033","linkReferences":{}},"methodIdentifiers":{"addPayload((bytes,bytes))":"9aa9fda5","addPayloadMulti((bytes,bytes)[])":"63710c05","avsDirectory()":"6b3aa72e","createAVSRewardsSubmission(((address,uint96)[],address,uint256,uint32,uint32)[])":"fce36c7d","createOperatorDirectedAVSRewardsSubmission(((address,uint96)[],address,(address,uint256)[],uint32,uint32,string)[])":"a20b99bf","deregisterOperatorFromAVS(address)":"a364f4da","getOperatorRestakedStrategies(address)":"33cfb7b7","getRestakeableStrategies()":"e481af9d","getSignedPayloadForTriggerId(uint64)":"4e3bf388","isValidTriggerId(uint64)":"aa32d9f4","owner()":"8da5cb5b","registerOperatorToAVS(address,(bytes,bytes32,uint256))":"9926ee7d","renounceOwnership()":"715018a6","rewardsInitiator()":"fc299dee","setClaimerFor(address)":"a0169ddd","setRewardsInitiator(address)":"3bc28c8c","stakeRegistry()":"68304835","transferOwnership(address)":"f2fde38b","updateAVSMetadataURI(string)":"a98fb355","validatePayload((bytes,bytes))":"216a3e9a","validatePayloadMulti((bytes,bytes)[])":"a71f8da0"},"id":0}