{"abi":[{"type":"constructor","inputs":[{"name":"serviceManager","type":"address","internalType":"contract IWavsServiceManager"}],"stateMutability":"nonpayable"},{"type":"function","name":"getData","inputs":[{"name":"triggerId","type":"uint64","internalType":"ISimpleTrigger.TriggerId"}],"outputs":[{"name":"data","type":"bytes","internalType":"bytes"}],"stateMutability":"view"},{"type":"function","name":"getEnvelope","inputs":[{"name":"triggerId","type":"uint64","internalType":"ISimpleTrigger.TriggerId"}],"outputs":[{"name":"envelope","type":"tuple","internalType":"struct IWavsServiceHandler.Envelope","components":[{"name":"eventId","type":"bytes20","internalType":"bytes20"},{"name":"ordering","type":"bytes12","internalType":"bytes12"},{"name":"payload","type":"bytes","internalType":"bytes"}]}],"stateMutability":"view"},{"type":"function","name":"getSignature","inputs":[{"name":"triggerId","type":"uint64","internalType":"ISimpleTrigger.TriggerId"}],"outputs":[{"name":"signatureData","type":"tuple","internalType":"struct IWavsServiceHandler.SignatureData","components":[{"name":"operators","type":"address[]","internalType":"address[]"},{"name":"signatures","type":"bytes[]","internalType":"bytes[]"},{"name":"referenceBlock","type":"uint32","internalType":"uint32"}]}],"stateMutability":"view"},{"type":"function","name":"handleSignedEnvelope","inputs":[{"name":"envelope","type":"tuple","internalType":"struct IWavsServiceHandler.Envelope","components":[{"name":"eventId","type":"bytes20","internalType":"bytes20"},{"name":"ordering","type":"bytes12","internalType":"bytes12"},{"name":"payload","type":"bytes","internalType":"bytes"}]},{"name":"signatureData","type":"tuple","internalType":"struct IWavsServiceHandler.SignatureData","components":[{"name":"operators","type":"address[]","internalType":"address[]"},{"name":"signatures","type":"bytes[]","internalType":"bytes[]"},{"name":"referenceBlock","type":"uint32","internalType":"uint32"}]}],"outputs":[],"stateMutability":"nonpayable"},{"type":"function","name":"isValidTriggerId","inputs":[{"name":"triggerId","type":"uint64","internalType":"ISimpleTrigger.TriggerId"}],"outputs":[{"name":"","type":"bool","internalType":"bool"}],"stateMutability":"view"}],"bytecode":{"object":"0x608034606f57601f610e8b38819003918201601f19168301916001600160401b03831184841017607357808492602094604052833981010312606f57516001600160a01b03811690819003606f575f80546001600160a01b031916919091179055604051610e0390816100888239f35b5f80fd5b634e487b7160e01b5f52604160045260245ffdfe6080806040526004361015610012575f80fd5b5f905f3560e01c9081634636149d14610a6d57508063489584421461087b578063a127f1881461082b578063aa32d9f4146107ee5763f969ff3314610055575f80fd5b3461078857604036600319011261078857600435906001600160401b03821161078857816004019160606003198236030112610788576024356001600160401b03811161078857806004019160606003198336030112610788575f546001600160a01b031690813b1561078857604051926366b8ac4f60e11b8452604060048501528635926001600160601b031984168085036107885760448601526024830135926001600160601b0360a01b8416809403610788576044908460648801520194610134610123878b610c88565b6060608485015260a4840191610cb9565b818103600319016024830152606081019061014f8980610cd9565b606083529283905260808201925f905b8082106107c4575050506024850194610178868b610cd9565b8385036020850152808552602085019460208260051b82010195835f925b84841061078c57505050505050604401359363ffffffff85168095036107885783805f948760408396015203915afa801561077d57610768575b506101db8589610d0d565b81019290602081850312610764578035906001600160401b0382116107605701966040888503126107645760405197604089018981106001600160401b038211176106ef5760405280356001600160401b038116810361075c5789526020810135906001600160401b03821161075c570184601f82011215610760578035906001600160401b0382116106ef5760405195610280601f8401601f191660200188610b8f565b8287526020838301011161075c57818b9260208093018389013786010152602088019384526001600160401b038851168952600360205260408920916102c68280610d3f565b906001600160401b03821161074857600160401b8211610748578b85548387558381811061072c575b50505090848c5260208c20918c5b8281106107035750505050610316906001840192610d3f565b91600160401b83116106ef578054838255808410610670575b508a5260208a208a91805b8484106105815750505050506002019063ffffffff19825416179055516001600160401b038551168652600260205260408620908051906001600160401b03821161056d576103938261038d8554610bb0565b85610d8a565b602090601f83116001146105025782600195936103f3989795936103cc938c926104f7575b50508160011b915f199060031b1c19161790565b90555b6001600160401b0386511687526004602052604087209160601c1781550194610d0d565b6001600160401b0381959295116104e357610418816104128454610bb0565b84610d8a565b83601f821160011461047757908061044e9286976001600160401b03979261046c5750508160011b915f199060031b1c19161790565b90555b51168152600160205260408120600160ff1982541617905580f35b013590505f806103b8565b8285526020852090601f198316865b8181106104cb5750968392916001946001600160401b039899106104b2575b505050811b019055610451565b01355f19600384901b60f8161c191690555f80806104a5565b9192602060018192868c013581550194019201610486565b634e487b7160e01b84526041600452602484fd5b015190505f806103b8565b8389528189209190601f1984168a5b8181106105555750926001969491928793836103f39b9a98961061053d575b505050811b0190556103cf565b01515f1960f88460031b161c191690555f8080610530565b92936020600181928786015181550195019301610511565b634e487b7160e01b88526041600452602488fd5b61058b8183610d0d565b906001600160401b03821161065c578e906105b0836105aa8854610bb0565b88610d8a565b81601f84116001146105f35783600195929460209487966105e4949261046c5750508160011b915f199060031b1c19161790565b86555b0193019301929161033a565b91601f19841687845260208420935b818110610644575093602093600196938796938388951061062b575b505050811b0186556105e7565b01355f19600384901b60f8161c191690555f808061061e565b91936020600181928787013581550195019201610602565b634e487b7160e01b8f52604160045260248ffd5b818c528b846020822092830192015b82811061068d57505061032f565b8060019261069b8254610bb0565b806106ac575b505050018c9061067f565b601f811185146106c5575050508d81555b808e5f6106a1565b828252602082206106e091601f0160051c8101908601610d74565b528d60208120818355556106bd565b634e487b7160e01b8b52604160045260248bfd5b8135916001600160a01b038316830361072857906020600192019281860155016102fd565b8e80fd5b602083896107409552209182019101610d74565b8b5f836102ef565b634e487b7160e01b8c52604160045260248cfd5b8a80fd5b8980fd5b8880fd5b6107759197505f90610b8f565b5f955f6101d0565b6040513d5f823e3d90fd5b5f80fd5b9091929394976020806107b4600193601f198682030188526107ae8d88610c88565b90610cb9565b9a01940194019294939190610196565b90919384359060018060a01b0382168092036107885760208160019382935201950192019061015f565b34610788576020366003190112610788576001600160401b0361080f610b3a565b165f526001602052602060ff60405f2054166040519015158152f35b34610788576020366003190112610788576001600160401b0361084c610b3a565b165f52600260205261087761086360405f20610be8565b604051918291602083526020830190610b50565b0390f35b34610788576020366003190112610788576001600160401b0361089c610b3a565b5f604080516108aa81610b74565b60608152606060208201520152165f52600360205260405f20604051906108d082610b74565b6040518081602084549283815201845f5260205f20925f5b818110610a4b5750506108fd92500382610b8f565b8252600181019081546001600160401b038111610a37576040519261092860208360051b0185610b8f565b81845260208401905f5260205f205f915b838310610a1a57868663ffffffff600288602085019384520154169160408101928352604051916020835260808301915191606060208501528251809152602060a085019301905f5b8181106109fb575050505190601f19838203016040840152815180825260208201916020808360051b8301019401925f915b8383106109ce57875163ffffffff16606088015286860387f35b90919293946020806109ec600193601f198682030187528951610b50565b970193019301919392906109b4565b82516001600160a01b0316855260209485019490920191600101610982565b600160208192610a2985610be8565b815201920192019190610939565b634e487b7160e01b5f52604160045260245ffd5b84546001600160a01b03168352600194850194869450602090930192016108e8565b34610788576020366003190112610788576001600160401b039060606040610a93610b3a565b92610a9d81610b74565b5f81525f60208201520152165f52600460205260405f20604051610ac081610b74565b610877610af460018454946001600160601b03198660601b16855260208501956001600160601b0360a01b16865201610be8565b60408301908152604051938493602085526001600160601b031990511660208501526001600160601b0360a01b9051166040840152516060808401526080830190610b50565b600435906001600160401b038216820361078857565b805180835260209291819084018484015e5f828201840152601f01601f1916010190565b606081019081106001600160401b03821117610a3757604052565b90601f801991011681019081106001600160401b03821117610a3757604052565b90600182811c92168015610bde575b6020831014610bca57565b634e487b7160e01b5f52602260045260245ffd5b91607f1691610bbf565b9060405191825f825492610bfb84610bb0565b8084529360018116908115610c665750600114610c22575b50610c2092500383610b8f565b565b90505f9291925260205f20905f915b818310610c4a575050906020610c20928201015f610c13565b6020919350806001915483858901015201910190918492610c31565b905060209250610c2094915060ff191682840152151560051b8201015f610c13565b9035601e19823603018112156107885701602081359101916001600160401b03821161078857813603831361078857565b908060209392818452848401375f828201840152601f01601f1916010190565b9035601e19823603018112156107885701602081359101916001600160401b038211610788578160051b3603831361078857565b903590601e198136030182121561078857018035906001600160401b0382116107885760200191813603831361078857565b903590601e198136030182121561078857018035906001600160401b03821161078857602001918160051b3603831361078857565b818110610d7f575050565b5f8155600101610d74565b9190601f8111610d9957505050565b610c20925f5260205f20906020601f840160051c83019310610dc3575b601f0160051c0190610d74565b9091508190610db656fea26469706673582212208e9ba891975a4f9d3ba9d76a92c2df1ccd9612dd98d8d5031009dc94ffa4d1a964736f6c634300081c0033","linkReferences":{}},"methodIdentifiers":{"getData(uint64)":"a127f188","getEnvelope(uint64)":"4636149d","getSignature(uint64)":"48958442","handleSignedEnvelope((bytes20,bytes12,bytes),(address[],bytes[],uint32))":"f969ff33","isValidTriggerId(uint64)":"aa32d9f4"},"id":3}