{"abi":[{"type":"constructor","inputs":[],"stateMutability":"nonpayable"},{"type":"function","name":"getData","inputs":[{"name":"triggerId","type":"uint64","internalType":"ISimpleTrigger.TriggerId"}],"outputs":[{"name":"data","type":"bytes","internalType":"bytes"}],"stateMutability":"view"},{"type":"function","name":"getServiceManager","inputs":[],"outputs":[{"name":"","type":"address","internalType":"address"}],"stateMutability":"view"},{"type":"function","name":"getSignature","inputs":[{"name":"triggerId","type":"uint64","internalType":"ISimpleTrigger.TriggerId"}],"outputs":[{"name":"signature","type":"bytes","internalType":"bytes"}],"stateMutability":"view"},{"type":"function","name":"handleSignedData","inputs":[{"name":"data","type":"bytes","internalType":"bytes"},{"name":"signature","type":"bytes","internalType":"bytes"}],"outputs":[],"stateMutability":"nonpayable"},{"type":"function","name":"isValidTriggerId","inputs":[{"name":"triggerId","type":"uint64","internalType":"ISimpleTrigger.TriggerId"}],"outputs":[{"name":"","type":"bool","internalType":"bool"}],"stateMutability":"view"},{"type":"function","name":"setServiceManager","inputs":[{"name":"newServiceManager","type":"address","internalType":"address"}],"outputs":[],"stateMutability":"nonpayable"}],"bytecode":{"object":"0x608060405234602257600e60a3565b60146026565b610dd86100ae8239610dd890f35b602c565b60405190565b5f80fd5b5f1b90565b90604460018060a01b03916030565b9181191691161790565b60018060a01b031690565b90565b606b6067606f92604e565b6059565b604e565b90565b607990605c565b90565b6083906072565b90565b90565b9060996095609f92607c565b6086565b82546035565b9055565b60ab335f6089565b56fe60806040526004361015610013575b6103ea565b61001d5f3561007c565b806348958442146100775780634dda0b43146100725780639b41bf231461006d578063a127f18814610068578063aa32d9f4146100635763ed0226480361000e576103b3565b6102d4565b610278565b610245565b6101ca565b61014d565b60e01c90565b60405190565b5f80fd5b5f80fd5b5f80fd5b67ffffffffffffffff1690565b6100aa81610094565b036100b157565b5f80fd5b905035906100c2826100a1565b565b906020828203126100dd576100da915f016100b5565b90565b61008c565b5190565b60209181520190565b90825f9392825e0152565b601f801991011690565b61012361012c6020936101319361011a816100e2565b938480936100e6565b958691016100ef565b6100fa565b0190565b61014a9160208201915f818403910152610104565b90565b3461017d576101796101686101633660046100c4565b61057c565b610170610082565b91829182610135565b0390f35b610088565b5f91031261018c57565b61008c565b60018060a01b031690565b6101a590610191565b90565b6101b19061019c565b9052565b91906101c8905f602085019401906101a8565b565b346101fa576101da366004610182565b6101f66101e56105d0565b6101ed610082565b918291826101b5565b0390f35b610088565b6102088161019c565b0361020f57565b5f80fd5b90503590610220826101ff565b565b9060208282031261023b57610238915f01610213565b90565b61008c565b5f0190565b346102735761025d610258366004610222565b61074a565b610265610082565b8061026f81610240565b0390f35b610088565b346102a8576102a461029361028e3660046100c4565b610755565b61029b610082565b91829182610135565b0390f35b610088565b151590565b6102bb906102ad565b9052565b91906102d2905f602085019401906102b2565b565b34610304576103006102ef6102ea3660046100c4565b6107b5565b6102f7610082565b918291826102bf565b0390f35b610088565b5f80fd5b5f80fd5b5f80fd5b909182601f8301121561034f5781359167ffffffffffffffff831161034a57602001926001830284011161034557565b610311565b61030d565b610309565b90916040828403126103ae575f82013567ffffffffffffffff81116103a9578361037f918401610315565b929093602082013567ffffffffffffffff81116103a4576103a09201610315565b9091565b610090565b610090565b61008c565b346103e5576103cf6103c6366004610354565b92919091610d94565b6103d7610082565b806103e181610240565b0390f35b610088565b5f80fd5b606090565b90565b61040a61040561040f92610094565b6103f3565b610094565b90565b9061041c906103f6565b5f5260205260405f2090565b634e487b7160e01b5f52602260045260245ffd5b906001600283049216801561045c575b602083101461045757565b610428565b91607f169161044c565b60209181520190565b5f5260205f2090565b905f929180549061049261048b8361043c565b8094610466565b916001811690815f146104e957506001146104ad575b505050565b6104ba919293945061046f565b915f925b8184106104d157505001905f80806104a8565b600181602092959395548486015201910192906104be565b92949550505060ff19168252151560200201905f80806104a8565b9061050e91610478565b90565b634e487b7160e01b5f52604160045260245ffd5b9061052f906100fa565b810190811067ffffffffffffffff82111761054957604052565b610511565b9061056e6105679261055e610082565b93848092610504565b0383610525565b565b6105799061054e565b90565b6105936105989161058b6103ee565b506004610412565b610570565b90565b5f90565b5f1c90565b60018060a01b031690565b6105bb6105c09161059f565b6105a4565b90565b6105cd90546105af565b90565b6105d861059b565b506105e360016105c3565b90565b60209181520190565b60207f6374696f6e2e0000000000000000000000000000000000000000000000000000917f4f6e6c7920746865206f776e65722063616e2063616c6c20746869732066756e5f8201520152565b61064960266040926105e6565b610652816105ef565b0190565b61066b9060208101905f81830391015261063c565b90565b1561067557565b61067d610082565b62461bcd60e51b81528061069360048201610656565b0390fd5b6106c4906106bf336106b96106b36106ae5f6105c3565b61019c565b9161019c565b1461066e565b61073d565b565b5f1b90565b906106dc60018060a01b03916106c6565b9181191691161790565b6106fa6106f56106ff92610191565b6103f3565b610191565b90565b61070b906106e6565b90565b61071790610702565b90565b90565b9061073261072d6107399261070e565b61071a565b82546106cb565b9055565b61074890600161071d565b565b61075390610697565b565b61076c610771916107646103ee565b506003610412565b610570565b90565b5f90565b90610782906103f6565b5f5260205260405f2090565b60ff1690565b6107a06107a59161059f565b61078e565b90565b6107b29054610794565b90565b6107cc6107d1916107c4610774565b506002610778565b6107a8565b90565b60207f6c20746869732066756e6374696f6e2e00000000000000000000000000000000917f4f6e6c79207468652073657276696365206d616e616765722063616e2063616c5f8201520152565b61082e60306040926105e6565b610837816107d4565b0190565b6108509060208101905f818303910152610821565b90565b1561085a57565b610862610082565b62461bcd60e51b8152806108786004820161083b565b0390fd5b906108ad9392916108a8336108a261089c61089760016105c3565b61019c565b9161019c565b14610853565b610d20565b565b5f80fd5b906108c66108bf610082565b9283610525565b565b5f80fd5b5f80fd5b67ffffffffffffffff81116108ee576108ea6020916100fa565b0190565b610511565b90825f939282370152565b9092919261091361090e826108d0565b6108b3565b9381855260208501908284011161092f5761092d926108f3565b565b6108cc565b9080601f830112156109525781602061094f933591016108fe565b90565b610309565b9190916040818403126109a95761096e60406108b3565b9261097b815f84016100b5565b5f850152602082013567ffffffffffffffff81116109a45761099d9201610934565b6020830152565b6108c8565b6108af565b906020828203126109de575f82013567ffffffffffffffff81116109d9576109d69201610957565b90565b610090565b61008c565b6109ed9051610094565b90565b5090565b601f602091010490565b1b90565b91906008610a1d910291610a175f19846109fe565b926109fe565b9181191691161790565b90565b610a3e610a39610a4392610a27565b6103f3565b610a27565b90565b90565b9190610a5f610a5a610a6793610a2a565b610a46565b908354610a02565b9055565b5f90565b610a8191610a7b610a6b565b91610a49565b565b5b818110610a8f575050565b80610a9c5f600193610a6f565b01610a84565b9190601f8111610ab2575b505050565b610abe610ae39361046f565b906020610aca846109f4565b83019310610aeb575b610adc906109f4565b0190610a83565b5f8080610aad565b9150610adc81929050610ad3565b1c90565b90610b0d905f1990600802610af9565b191690565b81610b1c91610afd565b906002021790565b91610b2f90826109f0565b9067ffffffffffffffff8211610bee57610b5382610b4d855461043c565b85610aa2565b5f90601f8311600114610b8657918091610b75935f92610b7a575b5050610b12565b90555b565b90915001355f80610b6e565b601f19831691610b958561046f565b925f5b818110610bd657509160029391856001969410610bbc575b50505002019055610b78565b610bcc910135601f841690610afd565b90555f8080610bb0565b91936020600181928787013581550195019201610b98565b610511565b90610bfe9291610b24565b565b90610c0a816100e2565b9067ffffffffffffffff8211610cca57610c2e82610c28855461043c565b85610aa2565b602090601f8311600114610c6257918091610c51935f92610c56575b5050610b12565b90555b565b90915001515f80610c4a565b601f19831691610c718561046f565b925f5b818110610cb257509160029391856001969410610c98575b50505002019055610c54565b610ca8910151601f841690610afd565b90555f8080610c8c565b91936020600181928787015181550195019201610c74565b610511565b90610cd991610c00565b565b90610ce760ff916106c6565b9181191691161790565b610cfa906102ad565b90565b90565b90610d15610d10610d1c92610cf1565b610cfd565b8254610cdb565b9055565b92610d35610d5192610d9295908101906109ae565b92610d4c6004610d465f87016109e3565b90610412565b610bf3565b610d746020820151610d6f6003610d695f86016109e3565b90610412565b610ccf565b610d8d600191610d875f600292016109e3565b90610778565b610d00565b565b90610da093929161087c565b56fea2646970667358221220496684e93932648291794b0cf0c00430d3da34ff010f83035504617c2cafff6c64736f6c634300081a0033","linkReferences":{}},"methodIdentifiers":{"getData(uint64)":"a127f188","getServiceManager()":"4dda0b43","getSignature(uint64)":"48958442","handleSignedData(bytes,bytes)":"ed022648","isValidTriggerId(uint64)":"aa32d9f4","setServiceManager(address)":"9b41bf23"},"id":0}