{"abi":[{"type":"constructor","inputs":[{"name":"serviceManager","type":"address","internalType":"contract IWavsServiceManager"}],"stateMutability":"nonpayable"},{"type":"function","name":"getData","inputs":[{"name":"triggerId","type":"uint64","internalType":"ISimpleTrigger.TriggerId"}],"outputs":[{"name":"data","type":"bytes","internalType":"bytes"}],"stateMutability":"view"},{"type":"function","name":"getSignature","inputs":[{"name":"triggerId","type":"uint64","internalType":"ISimpleTrigger.TriggerId"}],"outputs":[{"name":"signatureData","type":"tuple","internalType":"struct IWavsServiceHandler.SignatureData","components":[{"name":"operators","type":"address[]","internalType":"address[]"},{"name":"signatures","type":"bytes[]","internalType":"bytes[]"},{"name":"referenceBlock","type":"uint32","internalType":"uint32"}]}],"stateMutability":"view"},{"type":"function","name":"handleSignedEnvelope","inputs":[{"name":"envelope","type":"tuple","internalType":"struct IWavsServiceHandler.Envelope","components":[{"name":"eventId","type":"bytes20","internalType":"bytes20"},{"name":"ordering","type":"bytes12","internalType":"bytes12"},{"name":"payload","type":"bytes","internalType":"bytes"}]},{"name":"signatureData","type":"tuple","internalType":"struct IWavsServiceHandler.SignatureData","components":[{"name":"operators","type":"address[]","internalType":"address[]"},{"name":"signatures","type":"bytes[]","internalType":"bytes[]"},{"name":"referenceBlock","type":"uint32","internalType":"uint32"}]}],"outputs":[],"stateMutability":"nonpayable"},{"type":"function","name":"isValidTriggerId","inputs":[{"name":"triggerId","type":"uint64","internalType":"ISimpleTrigger.TriggerId"}],"outputs":[{"name":"","type":"bool","internalType":"bool"}],"stateMutability":"view"}],"bytecode":{"object":"0x608034606f57601f610cb238819003918201601f19168301916001600160401b03831184841017607357808492602094604052833981010312606f57516001600160a01b03811690819003606f575f80546001600160a01b031916919091179055604051610c2a90816100888239f35b5f80fd5b634e487b7160e01b5f52604160045260245ffdfe6080806040526004361015610012575f80fd5b5f905f3560e01c908163489584421461076f57508063a127f1881461071f578063aa32d9f4146106e25763f969ff331461004a575f80fd5b3461067c57604036600319011261067c57600435906001600160401b03821161067c57816004016060600319843603011261067c57602435906001600160401b03821161067c5781600401936060600319843603011261067c575f546001600160a01b031691823b1561067c57604051916366b8ac4f60e11b83526040600484015281356bffffffffffffffffffffffff19811680910361067c5760448401526024810135906bffffffffffffffffffffffff60a01b821680920361067c57604491606485015201916101316101208484610aaf565b6060608485015260a4840191610ae0565b818103600319016024830152606081019061014c8980610b00565b606083529283905260808201925f905b8082106106b8575050506024870196610175888b610b00565b8385036020850152808552602085019460208260051b82010195835f925b84841061068057505050505050604401359563ffffffff871680970361067c5783805f948960408396015203915afa801561067157610657575b50906101d891610b34565b81019290602081850312610653578035906001600160401b03821161064f5701946040868503126106535760405195604087018781106001600160401b038211176105df5760405280356001600160401b038116810361064b5787526020810135906001600160401b03821161064b570184601f8201121561064f578035906001600160401b0382116105df576040519561027d601f8401601f1916602001886109b6565b8287526020838301011161064b5781879260208093018389013786010152602086019384526001600160401b038651168552600360205260408520916102c38280610b66565b906001600160401b03821161063757600160401b821161063757845482865580831061061c575b50908488526020882091885b8281106105f3575050505061030f906001840192610b66565b91600160401b83116105df578054838255808410610565575b508652602086208691805b84841061046a5750505050506002019063ffffffff1982541617905551916001600160401b03815116825260026020526040822083516001600160401b0381116104565761038b8161038584546109d7565b84610bb1565b6020601f82116001146103ec5790806103c39286976001600160401b0397926103e1575b50508160011b915f199060031b1c19161790565b90555b51168152600160205260408120600160ff1982541617905580f35b015190505f806103af565b82855280852095601f198316865b81811061043e5750916001600160401b03969791846001959410610426575b505050811b0190556103c6565b01515f1960f88460031b161c191690555f8080610419565b838301518955600190980197602093840193016103fa565b634e487b7160e01b84526041600452602484fd5b6104748183610b34565b906001600160401b038211610551576104978261049187546109d7565b87610bb1565b8a908b601f84116001146104e75783600195929460209487966104cd94926104dc5750508160011b915f199060031b1c19161790565b86555b01930193019291610333565b013590505f806103af565b50858c5260208c2091601f1984168d5b8181106105395750936020936001969387969383889510610520575b505050811b0186556104d0565b01355f19600384901b60f8161c191690555f8080610513565b919360206001819287870135815501950192016104f7565b634e487b7160e01b8b52604160045260248bfd5b818852836020892091820191015b8181106105805750610328565b808961058e600193546109d7565b8061059c575b505001610573565b601f811184146105b35750508981555b895f610594565b83601f602084866105ce965220920160051c82019101610b9b565b808a528960208120818355556105ac565b634e487b7160e01b87526041600452602487fd5b8135916001600160a01b038316830361061857906020600192019281860155016102f6565b8a80fd5b85895260208920610631918101908401610b9b565b5f6102ea565b634e487b7160e01b88526041600452602488fd5b8680fd5b8580fd5b8480fd5b6101d8929195505f610668916109b6565b5f9490916101cd565b6040513d5f823e3d90fd5b5f80fd5b9091929394976020806106a8600193601f198682030188526106a28d88610aaf565b90610ae0565b9a01940194019294939190610193565b90919384359060018060a01b03821680920361067c5760208160019382935201950192019061015c565b3461067c57602036600319011261067c576001600160401b03610703610961565b165f526001602052602060ff60405f2054166040519015158152f35b3461067c57602036600319011261067c576001600160401b03610740610961565b165f52600260205261076b61075760405f20610a0f565b604051918291602083526020830190610977565b0390f35b3461067c57602036600319011261067c576001600160401b03905f6040610794610961565b9261079e8161099b565b60608152606060208201520152165f52600360205260405f20604051906107c48261099b565b6040518081602084549283815201845f5260205f20925f5b81811061093f5750506107f1925003826109b6565b8252600181019081546001600160401b03811161092b576040519261081c60208360051b01856109b6565b81845260208401905f5260205f205f915b83831061090e57868663ffffffff600288602085019384520154169160408101928352604051916020835260808301915191606060208501528251809152602060a085019301905f5b8181106108ef575050505190601f19838203016040840152815180825260208201916020808360051b8301019401925f915b8383106108c257875163ffffffff16606088015286860387f35b90919293946020806108e0600193601f198682030187528951610977565b970193019301919392906108a8565b82516001600160a01b0316855260209485019490920191600101610876565b60016020819261091d85610a0f565b81520192019201919061082d565b634e487b7160e01b5f52604160045260245ffd5b84546001600160a01b03168352600194850194869450602090930192016107dc565b600435906001600160401b038216820361067c57565b805180835260209291819084018484015e5f828201840152601f01601f1916010190565b606081019081106001600160401b0382111761092b57604052565b90601f801991011681019081106001600160401b0382111761092b57604052565b90600182811c92168015610a05575b60208310146109f157565b634e487b7160e01b5f52602260045260245ffd5b91607f16916109e6565b9060405191825f825492610a22846109d7565b8084529360018116908115610a8d5750600114610a49575b50610a47925003836109b6565b565b90505f9291925260205f20905f915b818310610a71575050906020610a47928201015f610a3a565b6020919350806001915483858901015201910190918492610a58565b905060209250610a4794915060ff191682840152151560051b8201015f610a3a565b9035601e198236030181121561067c5701602081359101916001600160401b03821161067c57813603831361067c57565b908060209392818452848401375f828201840152601f01601f1916010190565b9035601e198236030181121561067c5701602081359101916001600160401b03821161067c578160051b3603831361067c57565b903590601e198136030182121561067c57018035906001600160401b03821161067c5760200191813603831361067c57565b903590601e198136030182121561067c57018035906001600160401b03821161067c57602001918160051b3603831361067c57565b818110610ba6575050565b5f8155600101610b9b565b9190601f8111610bc057505050565b610a47925f5260205f20906020601f840160051c83019310610bea575b601f0160051c0190610b9b565b9091508190610bdd56fea26469706673582212207544df7a9efab7cd243f86f6bd8c3806e6a88ce7c7d824fd39896072a9c5977164736f6c634300081a0033","linkReferences":{}},"methodIdentifiers":{"getData(uint64)":"a127f188","getSignature(uint64)":"48958442","handleSignedEnvelope((bytes20,bytes12,bytes),(address[],bytes[],uint32))":"f969ff33","isValidTriggerId(uint64)":"aa32d9f4"},"id":3}