{"abi":[{"type":"function","name":"getData","inputs":[{"name":"triggerId","type":"uint64","internalType":"ISimpleTrigger.TriggerId"}],"outputs":[{"name":"data","type":"bytes","internalType":"bytes"}],"stateMutability":"view"},{"type":"function","name":"getSignature","inputs":[{"name":"triggerId","type":"uint64","internalType":"ISimpleTrigger.TriggerId"}],"outputs":[{"name":"signature","type":"bytes","internalType":"bytes"}],"stateMutability":"view"},{"type":"function","name":"handleAddPayload","inputs":[{"name":"data","type":"bytes","internalType":"bytes"},{"name":"signature","type":"bytes","internalType":"bytes"}],"outputs":[],"stateMutability":"nonpayable"},{"type":"function","name":"isValidTriggerId","inputs":[{"name":"triggerId","type":"uint64","internalType":"ISimpleTrigger.TriggerId"}],"outputs":[{"name":"","type":"bool","internalType":"bool"}],"stateMutability":"view"}],"bytecode":{"object":"0x608060405234601c57600e6020565b610a2b61002b8239610a2b90f35b6026565b60405190565b5f80fdfe60806040526004361015610013575b6102d8565b61001d5f3561005b565b806273e1d7146100565780634895844214610051578063a127f1881461004c5763aa32d9f40361000e576102a3565b610247565b610212565b610122565b60e01c90565b60405190565b5f80fd5b5f80fd5b5f80fd5b5f80fd5b5f80fd5b5f80fd5b909182601f830112156100b95781359167ffffffffffffffff83116100b45760200192600183028401116100af57565b61007b565b610077565b610073565b9091604082840312610118575f82013567ffffffffffffffff811161011357836100e991840161007f565b929093602082013567ffffffffffffffff811161010e5761010a920161007f565b9091565b61006f565b61006f565b61006b565b5f0190565b346101545761013e6101353660046100be565b92919091610821565b610146610061565b806101508161011d565b0390f35b610067565b67ffffffffffffffff1690565b61016f81610159565b0361017657565b5f80fd5b9050359061018782610166565b565b906020828203126101a25761019f915f0161017a565b90565b61006b565b5190565b60209181520190565b90825f9392825e0152565b601f801991011690565b6101e86101f16020936101f6936101df816101a7565b938480936101ab565b958691016101b4565b6101bf565b0190565b61020f9160208201915f8184039101526101c9565b90565b346102425761023e61022d610228366004610189565b610969565b610235610061565b918291826101fa565b0390f35b610067565b346102775761027361026261025d366004610189565b610988565b61026a610061565b918291826101fa565b0390f35b610067565b151590565b61028a9061027c565b9052565b91906102a1905f60208501940190610281565b565b346102d3576102cf6102be6102b9366004610189565b6109d7565b6102c6610061565b9182918261028e565b0390f35b610067565b5f80fd5b5f80fd5b634e487b7160e01b5f52604160045260245ffd5b906102fe906101bf565b810190811067ffffffffffffffff82111761031857604052565b6102e0565b90610330610329610061565b92836102f4565b565b5f80fd5b5f80fd5b67ffffffffffffffff8111610358576103546020916101bf565b0190565b6102e0565b90825f939282370152565b9092919261037d6103788261033a565b61031d565b93818552602085019082840111610399576103979261035d565b565b610336565b9080601f830112156103bc578160206103b993359101610368565b90565b610073565b919091604081840312610413576103d8604061031d565b926103e5815f840161017a565b5f850152602082013567ffffffffffffffff811161040e57610407920161039e565b6020830152565b610332565b6102dc565b90602082820312610448575f82013567ffffffffffffffff81116104435761044092016103c1565b90565b61006f565b61006b565b6104579051610159565b90565b90565b61047161046c61047692610159565b61045a565b610159565b90565b906104839061045d565b5f5260205260405f2090565b5090565b634e487b7160e01b5f52602260045260245ffd5b90600160028304921680156104c7575b60208310146104c257565b610493565b91607f16916104b7565b5f5260205f2090565b601f602091010490565b1b90565b919060086105039102916104fd5f19846104e4565b926104e4565b9181191691161790565b90565b61052461051f6105299261050d565b61045a565b61050d565b90565b90565b919061054561054061054d93610510565b61052c565b9083546104e8565b9055565b5f90565b61056791610561610551565b9161052f565b565b5b818110610575575050565b806105825f600193610555565b0161056a565b9190601f8111610598575b505050565b6105a46105c9936104d1565b9060206105b0846104da565b830193106105d1575b6105c2906104da565b0190610569565b5f8080610593565b91506105c2819290506105b9565b1c90565b906105f3905f19906008026105df565b191690565b81610602916105e3565b906002021790565b91610615908261048f565b9067ffffffffffffffff82116106d4576106398261063385546104a7565b85610588565b5f90601f831160011461066c5791809161065b935f92610660575b50506105f8565b90555b565b90915001355f80610654565b601f1983169161067b856104d1565b925f5b8181106106bc575091600293918560019694106106a2575b5050500201905561065e565b6106b2910135601f8416906105e3565b90555f8080610696565b9193602060018192878701358155019501920161067e565b6102e0565b906106e4929161060a565b565b906106f0816101a7565b9067ffffffffffffffff82116107b0576107148261070e85546104a7565b85610588565b602090601f831160011461074857918091610737935f9261073c575b50506105f8565b90555b565b90915001515f80610730565b601f19831691610757856104d1565b925f5b8181106107985750916002939185600196941061077e575b5050500201905561073a565b61078e910151601f8416906105e3565b90555f8080610772565b9193602060018192878701518155019501920161075a565b6102e0565b906107bf916106e6565b565b906107cb9061045d565b5f5260205260405f2090565b5f1b90565b906107e860ff916107d7565b9181191691161790565b6107fb9061027c565b90565b90565b9061081661081161081d926107f2565b6107fe565b82546107dc565b9055565b92610836610852926108929590810190610418565b9261084d60026108475f870161044d565b90610479565b6106d9565b6108756020820151610870600161086a5f860161044d565b90610479565b6107b5565b61088d6001916108875f80920161044d565b906107c1565b610801565b565b606090565b60209181520190565b905f92918054906108bc6108b5836104a7565b8094610899565b916001811690815f1461091357506001146108d7575b505050565b6108e491929394506104d1565b915f925b8184106108fb57505001905f80806108d2565b600181602092959395548486015201910192906108e8565b92949550505060ff19168252151560200201905f80806108d2565b90610938916108a2565b90565b9061095b6109549261094b610061565b9384809261092e565b03836102f4565b565b6109669061093b565b90565b61098061098591610978610894565b506002610479565b61095d565b90565b61099f6109a491610997610894565b506001610479565b61095d565b90565b5f90565b5f1c90565b60ff1690565b6109c26109c7916109ab565b6109b0565b90565b6109d490546109b6565b90565b6109ed6109f2916109e66109a7565b505f6107c1565b6109ca565b9056fea264697066735822122030153b022108c5c1a78c5d5f1cc787aeb87b8d3227124fed0cdd297b72b77ce464736f6c634300081a0033","linkReferences":{}},"methodIdentifiers":{"getData(uint64)":"a127f188","getSignature(uint64)":"48958442","handleAddPayload(bytes,bytes)":"0073e1d7","isValidTriggerId(uint64)":"aa32d9f4"},"id":0}