{"abi":[{"type":"constructor","inputs":[{"name":"serviceManager","type":"address","internalType":"contract IWavsServiceManager"}],"stateMutability":"nonpayable"},{"type":"function","name":"getDataWithId","inputs":[{"name":"triggerId","type":"uint64","internalType":"ISimpleTrigger.TriggerId"}],"outputs":[{"name":"dataWithId","type":"tuple","internalType":"struct ISimpleSubmit.DataWithId","components":[{"name":"triggerId","type":"uint64","internalType":"ISimpleTrigger.TriggerId"},{"name":"data","type":"bytes","internalType":"bytes"}]}],"stateMutability":"view"},{"type":"function","name":"getServiceManager","inputs":[],"outputs":[{"name":"","type":"address","internalType":"address"}],"stateMutability":"view"},{"type":"function","name":"getSignedData","inputs":[{"name":"triggerId","type":"uint64","internalType":"ISimpleTrigger.TriggerId"}],"outputs":[{"name":"signedData","type":"tuple","internalType":"struct ISimpleSubmit.SignedData","components":[{"name":"data","type":"bytes","internalType":"bytes"},{"name":"signatureData","type":"tuple","internalType":"struct IWavsServiceHandler.SignatureData","components":[{"name":"signers","type":"address[]","internalType":"address[]"},{"name":"signatures","type":"bytes[]","internalType":"bytes[]"},{"name":"referenceBlock","type":"uint32","internalType":"uint32"}]},{"name":"envelope","type":"tuple","internalType":"struct IWavsServiceHandler.Envelope","components":[{"name":"eventId","type":"bytes20","internalType":"bytes20"},{"name":"ordering","type":"bytes12","internalType":"bytes12"},{"name":"payload","type":"bytes","internalType":"bytes"}]}]}],"stateMutability":"view"},{"type":"function","name":"handleSignedEnvelope","inputs":[{"name":"envelope","type":"tuple","internalType":"struct IWavsServiceHandler.Envelope","components":[{"name":"eventId","type":"bytes20","internalType":"bytes20"},{"name":"ordering","type":"bytes12","internalType":"bytes12"},{"name":"payload","type":"bytes","internalType":"bytes"}]},{"name":"signatureData","type":"tuple","internalType":"struct IWavsServiceHandler.SignatureData","components":[{"name":"signers","type":"address[]","internalType":"address[]"},{"name":"signatures","type":"bytes[]","internalType":"bytes[]"},{"name":"referenceBlock","type":"uint32","internalType":"uint32"}]}],"outputs":[],"stateMutability":"nonpayable"},{"type":"function","name":"isValidTriggerId","inputs":[{"name":"triggerId","type":"uint64","internalType":"ISimpleTrigger.TriggerId"}],"outputs":[{"name":"","type":"bool","internalType":"bool"}],"stateMutability":"view"},{"type":"function","name":"signedDatas","inputs":[{"name":"","type":"uint64","internalType":"ISimpleTrigger.TriggerId"}],"outputs":[{"name":"data","type":"bytes","internalType":"bytes"},{"name":"signatureData","type":"tuple","internalType":"struct IWavsServiceHandler.SignatureData","components":[{"name":"signers","type":"address[]","internalType":"address[]"},{"name":"signatures","type":"bytes[]","internalType":"bytes[]"},{"name":"referenceBlock","type":"uint32","internalType":"uint32"}]},{"name":"envelope","type":"tuple","internalType":"struct IWavsServiceHandler.Envelope","components":[{"name":"eventId","type":"bytes20","internalType":"bytes20"},{"name":"ordering","type":"bytes12","internalType":"bytes12"},{"name":"payload","type":"bytes","internalType":"bytes"}]}],"stateMutability":"view"},{"type":"function","name":"validTriggers","inputs":[{"name":"","type":"uint64","internalType":"ISimpleTrigger.TriggerId"}],"outputs":[{"name":"","type":"bool","internalType":"bool"}],"stateMutability":"view"}],"bytecode":{"object":"0x60a06040523461003f57610019610014610110565b610131565b610021610044565b6120866101378239608051818181610c970152611f10015261208690f35b61004a565b60405190565b5f80fd5b601f801991011690565b634e487b7160e01b5f52604160045260245ffd5b906100769061004e565b810190811060018060401b0382111761008e57604052565b610058565b906100a661009f610044565b928361006c565b565b5f80fd5b60018060a01b031690565b6100c0906100ac565b90565b6100cc906100b7565b90565b6100d8816100c3565b036100df57565b5f80fd5b905051906100f0826100cf565b565b9060208282031261010b57610108915f016100e3565b90565b6100a8565b61012e6121bd8038038061012381610093565b9283398101906100f2565b90565b60805256fe60806040526004361015610013575b610c4d565b61001d5f3561008c565b806326faf60c146100875780633d821004146100825780634dda0b431461007d57806378ecfb4714610078578063aa32d9f414610073578063c053045e1461006e5763f969ff330361000e57610c19565b610b58565b610ad0565b610a9b565b610986565b61091d565b610196565b60e01c90565b60405190565b5f80fd5b5f80fd5b5f80fd5b67ffffffffffffffff1690565b6100ba816100a4565b036100c157565b5f80fd5b905035906100d2826100b1565b565b906020828203126100ed576100ea915f016100c5565b90565b61009c565b90565b61010961010461010e926100a4565b6100f2565b6100a4565b90565b9061011b906100f5565b5f5260205260405f2090565b1c90565b60ff1690565b6101419060086101469302610127565b61012b565b90565b906101549154610131565b90565b61016c906101675f915f92610111565b610149565b90565b151590565b61017d9061016f565b9052565b9190610194905f60208501940190610174565b565b346101c6576101c26101b16101ac3660046100d4565b610157565b6101b9610092565b91829182610181565b0390f35b610098565b906101d5906100f5565b5f5260205260405f2090565b634e487b7160e01b5f52602260045260245ffd5b9060016002830492168015610215575b602083101461021057565b6101e1565b91607f1691610205565b60209181520190565b5f5260205f2090565b905f929180549061024b610244836101f5565b809461021f565b916001811690815f146102a25750600114610266575b505050565b6102739192939450610228565b915f925b81841061028a57505001905f8080610261565b60018160209295939554848601520191019290610277565b92949550505060ff19168252151560200201905f8080610261565b906102c791610231565b90565b601f801991011690565b634e487b7160e01b5f52604160045260245ffd5b906102f2906102ca565b810190811067ffffffffffffffff82111761030c57604052565b6102d4565b9061033161032a92610321610092565b938480926102bd565b03836102e8565b565b5490565b60209181520190565b5f5260205f2090565b60018060a01b031690565b61035d90610349565b90565b61036990610354565b9052565b9061037a81602093610360565b0190565b5f1c90565b60018060a01b031690565b61039a61039f9161037e565b610383565b90565b6103ac905461038e565b90565b60010190565b906103d26103cc6103c584610333565b8093610337565b92610340565b905f5b8181106103e25750505090565b9091926104026103fc6001926103f7876103a2565b61036d565b946103af565b91019190916103d5565b90610416916103b5565b90565b9061043961043292610429610092565b9384809261040c565b03836102e8565b565b52565b5490565b9061045561044e610092565b92836102e8565b565b67ffffffffffffffff811161046f5760208091020190565b6102d4565b9061048661048183610457565b610442565b918252565b5f5260205f2090565b61049d90610311565b90565b906104aa8261043e565b6104b381610474565b926104c1602085019161048b565b5f915b8383106104d15750505050565b6001602081926104e085610494565b8152019201920191906104c4565b52565b63ffffffff1690565b61050661050b9161037e565b6104f1565b90565b61051890546104fa565b90565b63ffffffff1690565b9061052e9061051b565b9052565b61053c6060610442565b90565b9061058e6105856002610550610532565b9461056761055f5f8301610419565b5f880161043b565b61057f610576600183016104a0565b602088016104ee565b0161050e565b60408401610524565b565b60601b90565b61059f90610590565b90565b6105ae6105b39161037e565b610596565b90565b6105c090546105a2565b90565b6bffffffffffffffffffffffff191690565b906105df906105c3565b9052565b60a01c90565b60a01b90565b6105f8906105e9565b90565b61060761060c916105e3565b6105ef565b90565b61061990546105fb565b90565b6bffffffffffffffffffffffff60a01b1690565b9061063a9061061c565b9052565b52565b61064b6060610442565b90565b9061069c610693600161065f610641565b9461067661066e5f83016105b6565b5f88016105d5565b61068d6106845f830161060f565b60208801610630565b01610311565b6040840161063e565b565b6106a99060016101cb565b6106b45f8201610311565b916106cd60046106c66001850161053f565b930161064e565b90565b5190565b60209181520190565b90825f9392825e0152565b610707610710602093610715936106fe816106d0565b938480936106d4565b958691016106dd565b6102ca565b0190565b5190565b60200190565b60200190565b9061074661074061073984610719565b8093610337565b9261071d565b905f5b8181106107565750505090565b90919261076f610769600192865161036d565b94610723565b9101919091610749565b5190565b60209181520190565b60200190565b6107ab6107b46020936107b9936107a2816106d0565b9384809361021f565b958691016106dd565b6102ca565b0190565b906107c79161078c565b90565b60200190565b906107e46107dd83610779565b809261077d565b90816107f560208302840194610786565b925f915b83831061080857505050505090565b9091929394602061082a610824838560019503875289516107bd565b976107ca565b93019301919392906107f9565b6108409061051b565b9052565b9061088390604080610878610866606085015f8801518682035f880152610729565b602087015185820360208701526107d0565b940151910190610837565b90565b61088f906105c3565b9052565b61089c9061061c565b9052565b6108dd91604060608201926108bb5f8201515f850190610886565b6108cd60208201516020850190610893565b015190604081840391015261078c565b90565b9161090c906108fe61091a959360608601908682035f8801526106e8565b908482036020860152610844565b9160408184039101526108a0565b90565b346109505761094c6109386109333660046100d4565b61069e565b610943939193610092565b938493846108e0565b0390f35b610098565b5f91031261095f57565b61009c565b61096d90610354565b9052565b9190610984905f60208501940190610964565b565b346109b657610996366004610955565b6109b26109a1610c89565b6109a9610092565b91829182610971565b0390f35b610098565b906109fa906040806109ef6109dd606085015f8801518682035f880152610729565b602087015185820360208701526107d0565b940151910190610837565b90565b610a3a9160406060820192610a185f8201515f850190610886565b610a2a60208201516020850190610893565b015190604081840391015261078c565b90565b610a80916040610a6f610a5d606084015f8601518582035f87015261078c565b602085015184820360208601526109bb565b9201519060408184039101526109fd565b90565b610a989160208201915f818403910152610a3d565b90565b34610acb57610ac7610ab6610ab13660046100d4565b610e00565b610abe610092565b91829182610a83565b0390f35b610098565b34610b0057610afc610aeb610ae63660046100d4565b610e44565b610af3610092565b91829182610181565b0390f35b610098565b610b0e906100f5565b9052565b610b3d9160206040820192610b2d5f8201515f850190610b05565b015190602081840391015261078c565b90565b610b559160208201915f818403910152610b12565b90565b34610b8857610b84610b73610b6e3660046100d4565b610ebf565b610b7b610092565b91829182610b40565b0390f35b610098565b5f80fd5b90816060910312610b9f5790565b610b8d565b90816060910312610bb25790565b610b8d565b919091604081840312610c0f575f81013567ffffffffffffffff8111610c0a5783610be3918301610b91565b92602082013567ffffffffffffffff8111610c0557610c029201610ba4565b90565b6100a0565b6100a0565b61009c565b5f0190565b34610c4857610c32610c2c366004610bb7565b90611f0b565b610c3a610092565b80610c4481610c14565b0390f35b610098565b5f80fd5b5f90565b610c69610c64610c6e92610349565b6100f2565b610349565b90565b610c7a90610c55565b90565b610c8690610c71565b90565b610c91610c51565b50610cbb7f0000000000000000000000000000000000000000000000000000000000000000610c7d565b90565b610cc86060610442565b90565b606090565b606090565b606090565b5f90565b610ce6610532565b906020808084610cf4610cd0565b815201610cff610cd5565b815201610d0a610cda565b81525050565b610d18610cde565b90565b5f90565b5f90565b610d2b610641565b906020808084610d39610d1b565b815201610d44610d1f565b815201610d4f610ccb565b81525050565b610d5d610d23565b90565b610d68610cbe565b906020808084610d76610ccb565b815201610d81610d10565b815201610d8c610d55565b81525050565b610d9a610d60565b90565b52565b52565b90610df2610de96004610db4610cbe565b94610dcb610dc35f8301610311565b5f880161063e565b610de3610dda6001830161053f565b60208801610d9d565b0161064e565b60408401610da0565b565b610dfd90610da3565b90565b610e17610e1c91610e0f610d92565b5060016101cb565b610df4565b90565b5f90565b610e2f610e349161037e565b61012b565b90565b610e419054610e23565b90565b610e5a610e5f91610e53610e1f565b505f610111565b610e37565b90565b610e6c6040610442565b90565b5f90565b610e7b610e62565b9060208083610e88610e6f565b815201610e93610ccb565b81525050565b610ea1610e73565b90565b610eae6040610442565b90565b90610ebb906100a4565b9052565b610ec7610e99565b50610eff5f610ee0610edb600185906101cb565b610df4565b0151610ef6610eed610ea4565b935f8501610eb1565b6020830161063e565b90565b5f80fd5b60e01b90565b5f910312610f1657565b61009c565b610f24816105c3565b03610f2b57565b5f80fd5b90503590610f3c82610f1b565b565b50610f4d906020810190610f2f565b90565b610f598161061c565b03610f6057565b5f80fd5b90503590610f7182610f50565b565b50610f82906020810190610f64565b90565b5f80fd5b5f80fd5b5f80fd5b9035600160200382360303811215610fd257016020813591019167ffffffffffffffff8211610fcd576001820236038313610fc857565b610f89565b610f85565b610f8d565b90825f939282370152565b9190610ffc81610ff5816110019561021f565b8095610fd7565b6102ca565b0190565b61105b9161104d60608201926110296110205f830183610f3e565b5f850190610886565b6110436110396020830183610f73565b6020850190610893565b6040810190610f91565b916040818503910152610fe2565b90565b903560016020038236030381121561109f57016020813591019167ffffffffffffffff821161109a57602082023603831361109557565b610f89565b610f85565b610f8d565b90565b6110b081610354565b036110b757565b5f80fd5b905035906110c8826110a7565b565b506110d99060208101906110bb565b90565b60200190565b916110f0826110f692610337565b926110a4565b90815f905b828210611109575050505090565b9091929361112b61112560019261112088866110ca565b61036d565b956110dc565b9201909291926110fb565b903560016020038236030381121561117757016020813591019167ffffffffffffffff821161117257602082023603831361116d57565b610f89565b610f85565b610f8d565b90565b9061118a9291610fe2565b90565b60200190565b918161119e9161077d565b90816111af6020830284019461117c565b92835f925b8484106111c45750505050505090565b90919293949560206111f06111ea83856001950388526111e48b88610f91565b9061117f565b9861118d565b9401940192949391906111b4565b6112078161051b565b0361120e57565b5f80fd5b9050359061121f826111fe565b565b50611230906020810190611212565b90565b9061128d90604061128561127b611260606085016112535f89018961105e565b908783035f8901526110e2565b61126d6020880188611136565b908683036020880152611193565b9482810190611221565b910190610837565b90565b90916112aa6112b89360408401908482035f860152611005565b916020818403910152611233565b90565b6112c3610092565b3d5f823e3d90fd5b5f80fd5b5f80fd5b5f80fd5b903590600160200381360303821215611319570180359067ffffffffffffffff82116113145760200191600182023603831361130f57565b6112d3565b6112cf565b6112cb565b5f80fd5b5f80fd5b5f80fd5b5f80fd5b67ffffffffffffffff811161134c576113486020916102ca565b0190565b6102d4565b909291926113666113618261132e565b610442565b938185526020850190828401116113825761138092610fd7565b565b61132a565b9080601f830112156113a5578160206113a293359101611351565b90565b611326565b9190916040818403126113fc576113c16040610442565b926113ce815f84016100c5565b5f850152602082013567ffffffffffffffff81116113f7576113f09201611387565b6020830152565b611322565b61131e565b90602082820312611431575f82013567ffffffffffffffff811161142c5761142992016113aa565b90565b6100a0565b61009c565b6114406060610442565b90565b67ffffffffffffffff811161145b5760208091020190565b6102d4565b5f80fd5b9092919261147961147482611443565b610442565b93818552602080860192028301928184116114b657915b83831061149d5750505050565b602080916114ab84866110bb565b815201920191611490565b611460565b9080601f830112156114d9578160206114d693359101611464565b90565b611326565b9291906114f26114ed82610457565b610442565b93818552602080860192028101918383116115495781905b838210611518575050505050565b813567ffffffffffffffff8111611544576020916115398784938701611387565b81520191019061150a565b611326565b611460565b9080601f8301121561156c57816020611569933591016114de565b90565b611326565b9190916060818403126115ee576115886060610442565b925f82013567ffffffffffffffff81116115e957816115a89184016114bb565b5f85015260208201359167ffffffffffffffff83116115e4576115d0826115dd94830161154e565b6020860152604001611212565b6040830152565b611322565b611322565b61131e565b6115fe903690611571565b90565b919091606081840312611665576116186060610442565b92611625815f8401610f2f565b5f8501526116368160208401610f64565b6020850152604082013567ffffffffffffffff8111611660576116599201611387565b6040830152565b611322565b61131e565b611675903690611601565b90565b61168290516100a4565b90565b634e487b7160e01b5f525f60045260245ffd5b5190565b601f602091010490565b1b90565b919060086116c59102916116bf5f19846116a6565b926116a6565b9181191691161790565b90565b6116e66116e16116eb926116cf565b6100f2565b6116cf565b90565b90565b919061170761170261170f936116d2565b6116ee565b9083546116aa565b9055565b5f90565b61172991611723611713565b916116f1565b565b5b818110611737575050565b806117445f600193611717565b0161172c565b9190601f811161175a575b505050565b61176661178b93610228565b9060206117728461169c565b83019310611793575b6117849061169c565b019061172b565b5f8080611755565b91506117848192905061177b565b906117b1905f1990600802610127565b191690565b816117c0916117a1565b906002021790565b906117d2816106d0565b9067ffffffffffffffff8211611892576117f6826117f085546101f5565b8561174a565b602090601f831160011461182a57918091611819935f9261181e575b50506117b6565b90555b565b90915001515f80611812565b601f1983169161183985610228565b925f5b81811061187a57509160029391856001969410611860575b5050500201905561181c565b611870910151601f8416906117a1565b90555f8080611854565b9193602060018192878701518155019501920161183c565b6102d4565b906118a1916117c8565b565b5190565b5190565b600190818003010490565b5b8181106118c2575050565b806118cf5f600193611717565b016118b7565b906118e8905f1990602003600802610127565b8154169055565b90918281106118fe575b505050565b61191c611916611910611927956118ab565b926118ab565b92610340565b9182019101906118b6565b5f80806118f9565b90680100000000000000008111611958578161194d61195693610333565b908281556118ef565b565b6102d4565b6119679051610354565b90565b90565b61197682610719565b9167ffffffffffffffff83116119d9576119a461199e600192611999868661192f565b61071d565b92610340565b9204915f5b8381106119b65750505050565b60019060206119cc6119c78661195d565b61196a565b94019381840155016119a9565b6102d4565b906119e89161196d565b565b5190565b600190818003010490565b905f91611a10611a0882610228565b9283546117b6565b905555565b919290602082105f14611a6e57601f8411600114611a3e57611a389293506117b6565b90555b5b565b5090611a64611a69936001611a5b611a5585610228565b9261169c565b8201910161172b565b6119f9565b611a3b565b50611aa58293611a7f600194610228565b611a9e611a8b8561169c565b820192601f861680611ab0575b5061169c565b019061172b565b600202179055611a3c565b611abc908886036118d5565b5f611a98565b929091680100000000000000008211611b22576020115f14611b1357602081105f14611af757611af1916117b6565b90555b5b565b60019160ff1916611b0784610228565b55600202019055611af4565b60019150600202019055611af5565b6102d4565b908154611b33816101f5565b90818311611b5c575b818310611b4a575b50505050565b611b5393611a15565b5f808080611b44565b611b6883838387611ac2565b611b3c565b5f611b7791611b27565b565b905f03611b8b57611b8990611b6d565b565b611685565b5b818110611b9c575050565b80611ba95f600193611b79565b01611b91565b9091828110611bbe575b505050565b611bdc611bd6611bd0611be7956119ee565b926119ee565b9261048b565b918201910190611b90565b5f8080611bb9565b90680100000000000000008111611c185781611c0d611c169361043e565b90828155611baf565b565b6102d4565b611c42611c3c611c2c84610779565b93611c378585611bef565b610786565b9161048b565b5f915b838310611c525750505050565b6001602082611c6a611c648495611698565b86611897565b01920192019190611c45565b90611c8091611c1d565b565b611c8c905161051b565b90565b5f1b90565b90611ca363ffffffff91611c8f565b9181191691161790565b611cc1611cbc611cc69261051b565b6100f2565b61051b565b90565b90565b90611ce1611cdc611ce892611cad565b611cc9565b8254611c94565b9055565b90611d3060406002611d3694611d0f5f8201611d095f88016118a7565b906119de565b611d2860018201611d22602088016119ea565b90611c76565b019201611c82565b90611ccc565b565b90611d4291611cec565b565b5190565b611d5290516105c3565b90565b90611d6660018060a01b0391611c8f565b9181191691161790565b611d79906105c3565b90565b60601c90565b611d8b90611d7c565b90565b90611da3611d9e611daa92611d70565b611d82565b8254611d55565b9055565b611db8905161061c565b90565b90611dd56bffffffffffffffffffffffff60a01b916105e9565b9181191691161790565b611de89061061c565b90565b611df4906105e3565b90565b90611e0c611e07611e1392611ddf565b611deb565b8254611dbb565b9055565b90611e5a60406001611e6094611e3a5f8201611e345f8801611d48565b90611d8e565b611e525f8201611e4c60208801611dae565b90611df7565b019201611698565b90611897565b565b90611e6c91611e17565b565b90611eb260406004611eb894611e915f8201611e8b5f8801611698565b90611897565b611eaa60018201611ea4602088016118a3565b90611d38565b019201611d44565b90611e62565b565b90611ec491611e6e565b565b90611ed260ff91611c8f565b9181191691161790565b611ee59061016f565b90565b90565b90611f00611efb611f0792611edc565b611ee8565b8254611ec6565b9055565b611f347f0000000000000000000000000000000000000000000000000000000000000000610c7d565b9163cd71589e828294803b1561204b57611f605f93611f6b611f54610092565b98899586948594610f06565b845260048401611290565b03915afa9081156120465761201893611ffb9261201a575b50611fe0611fd7611fa3611f9b8660408101906112d7565b810190611401565b94611fd2611fc9602088015195611fc4611fbb611436565b975f890161063e565b6115f3565b60208601610d9d565b61166a565b60408301610da0565b611ff66001611ff05f8601611678565b906101cb565b611eba565b61201360019161200d5f809201611678565b90610111565b611eeb565b565b612039905f3d811161203f575b61203181836102e8565b810190610f0c565b5f611f83565b503d612027565b6112bb565b610f0256fea264697066735822122071133c36b1d07e97a5b92baef8e03707cea8e7d60707441fae3f8165263b103c64736f6c634300081b0033","linkReferences":{}},"methodIdentifiers":{"getDataWithId(uint64)":"c053045e","getServiceManager()":"4dda0b43","getSignedData(uint64)":"78ecfb47","handleSignedEnvelope((bytes20,bytes12,bytes),(address[],bytes[],uint32))":"f969ff33","isValidTriggerId(uint64)":"aa32d9f4","signedDatas(uint64)":"3d821004","validTriggers(uint64)":"26faf60c"},"id":8}