{"abi":[{"type":"constructor","inputs":[{"name":"serviceManager","type":"address","internalType":"contract IWavsServiceManager"}],"stateMutability":"nonpayable"},{"type":"function","name":"getData","inputs":[{"name":"triggerId","type":"uint64","internalType":"ISimpleTrigger.TriggerId"}],"outputs":[{"name":"data","type":"bytes","internalType":"bytes"}],"stateMutability":"view"},{"type":"function","name":"getSignature","inputs":[{"name":"triggerId","type":"uint64","internalType":"ISimpleTrigger.TriggerId"}],"outputs":[{"name":"signature","type":"bytes","internalType":"bytes"}],"stateMutability":"view"},{"type":"function","name":"handleSignedData","inputs":[{"name":"data","type":"bytes","internalType":"bytes"},{"name":"signature","type":"bytes","internalType":"bytes"}],"outputs":[],"stateMutability":"nonpayable"},{"type":"function","name":"isValidTriggerId","inputs":[{"name":"triggerId","type":"uint64","internalType":"ISimpleTrigger.TriggerId"}],"outputs":[{"name":"","type":"bool","internalType":"bool"}],"stateMutability":"view"}],"bytecode":{"object":"0x608034606f57601f6107d438819003918201601f19168301916001600160401b03831184841017607357808492602094604052833981010312606f57516001600160a01b03811690819003606f575f80546001600160a01b03191691909117905560405161074c90816100888239f35b5f80fd5b634e487b7160e01b5f52604160045260245ffdfe6080806040526004361015610012575f80fd5b5f905f3560e01c908163489584421461052b57508063a127f1881461044d578063aa32d9f4146104105763ed0226481461004a575f80fd5b3461040c57604036600319011261040c576004356001600160401b03811161040c5761007a90369060040161060d565b91906024356001600160401b03811161040c5761009b90369060040161060d565b5f549094906001600160a01b0316803b1561040c575f6040518092632a3e7f3b60e01b82526040600483015281806100ed6100da60448301898c6106a7565b8281036003190160248401528c8a6106a7565b03915afa8015610401576103ec575b508201916020818403126103e8578035906001600160401b0382116103e45701936040858403126103e85760405194604086018681106001600160401b038211176103d05760405280356001600160401b03811681036103cc5786526020810135906001600160401b0382116103cc570183601f820112156103e4578035906001600160401b0382116103d057604051946101a1601f8401601f191660200187610672565b828652602083830101116103cc5781869260208093018388013785010152602085019283526001600160401b038551168452600360205260408420916001600160401b0382116103b8576101ff826101f9855461063a565b856106c7565b8490601f83116001146103555761022d929186918361034a575b50508160011b915f199060031b1c19161790565b90555b51916001600160401b03815116825260026020526040822083516001600160401b0381116103365761026c81610266845461063a565b846106c7565b6020601f82116001146102cc5790806102a39286976001600160401b0397926102c15750508160011b915f199060031b1c19161790565b90555b51168152600160205260408120600160ff1982541617905580f35b015190505f80610219565b82855280852095601f198316865b81811061031e5750916001600160401b03969791846001959410610306575b505050811b0190556102a6565b01515f1960f88460031b161c191690555f80806102f9565b838301518955600190980197602093840193016102da565b634e487b7160e01b84526041600452602484fd5b013590505f80610219565b8386526020862091601f198416875b8181106103a05750908460019594939210610387575b505050811b019055610230565b01355f19600384901b60f8161c191690555f808061037a565b91936020600181928787013581550195019201610364565b634e487b7160e01b85526041600452602485fd5b8580fd5b634e487b7160e01b86526041600452602486fd5b8480fd5b8380fd5b6103f99194505f90610672565b5f925f6100fc565b6040513d5f823e3d90fd5b5f80fd5b3461040c57602036600319011261040c576001600160401b036104316105cd565b165f526001602052602060ff60405f2054166040519015158152f35b3461040c57602036600319011261040c576001600160401b0361046e6105cd565b165f52600260205260405f20604051905f9080549061048c8261063a565b808552916001811690811561050457506001146104c4575b6104c0846104b481860382610672565b604051918291826105e3565b0390f35b5f90815260208120939250905b8082106104ea575090915081016020016104b4826104a4565b9192600181602092548385880101520191019092916104d1565b60ff191660208087019190915292151560051b850190920192506104b491508390506104a4565b3461040c57602036600319011261040c576001600160401b0361054c6105cd565b165f52600360205260405f205f908054906105668261063a565b8085529160018116908115610504575060011461058d576104c0846104b481860382610672565b5f90815260208120939250905b8082106105b3575090915081016020016104b4826104a4565b91926001816020925483858801015201910190929161059a565b600435906001600160401b038216820361040c57565b602060409281835280519182918282860152018484015e5f828201840152601f01601f1916010190565b9181601f8401121561040c578235916001600160401b03831161040c576020838186019501011161040c57565b90600182811c92168015610668575b602083101461065457565b634e487b7160e01b5f52602260045260245ffd5b91607f1691610649565b90601f801991011681019081106001600160401b0382111761069357604052565b634e487b7160e01b5f52604160045260245ffd5b908060209392818452848401375f828201840152601f01601f1916010190565b601f82116106d457505050565b5f5260205f20906020601f840160051c8301931061070c575b601f0160051c01905b818110610701575050565b5f81556001016106f6565b90915081906106ed56fea264697066735822122012f9e1caf3779d1d2648fdcdb869c8101a111c99b5c21ec062cc6da0bd18310f64736f6c634300081c0033","linkReferences":{}},"methodIdentifiers":{"getData(uint64)":"a127f188","getSignature(uint64)":"48958442","handleSignedData(bytes,bytes)":"ed022648","isValidTriggerId(uint64)":"aa32d9f4"},"id":2}