{"abi":[{"type":"constructor","inputs":[{"name":"serviceManager","type":"address","internalType":"contract IWavsServiceManager"}],"stateMutability":"nonpayable"},{"type":"function","name":"getDataWithId","inputs":[{"name":"triggerId","type":"uint64","internalType":"ISimpleTrigger.TriggerId"}],"outputs":[{"name":"dataWithId","type":"tuple","internalType":"struct ISimpleSubmit.DataWithId","components":[{"name":"triggerId","type":"uint64","internalType":"ISimpleTrigger.TriggerId"},{"name":"data","type":"bytes","internalType":"bytes"}]}],"stateMutability":"view"},{"type":"function","name":"getSignedData","inputs":[{"name":"triggerId","type":"uint64","internalType":"ISimpleTrigger.TriggerId"}],"outputs":[{"name":"signedData","type":"tuple","internalType":"struct ISimpleSubmit.SignedData","components":[{"name":"data","type":"bytes","internalType":"bytes"},{"name":"signatureData","type":"tuple","internalType":"struct IWavsServiceHandler.SignatureData","components":[{"name":"signers","type":"address[]","internalType":"address[]"},{"name":"signatures","type":"bytes[]","internalType":"bytes[]"},{"name":"referenceBlock","type":"uint32","internalType":"uint32"}]},{"name":"envelope","type":"tuple","internalType":"struct IWavsServiceHandler.Envelope","components":[{"name":"eventId","type":"bytes20","internalType":"bytes20"},{"name":"ordering","type":"bytes12","internalType":"bytes12"},{"name":"payload","type":"bytes","internalType":"bytes"}]}]}],"stateMutability":"view"},{"type":"function","name":"handleSignedEnvelope","inputs":[{"name":"envelope","type":"tuple","internalType":"struct IWavsServiceHandler.Envelope","components":[{"name":"eventId","type":"bytes20","internalType":"bytes20"},{"name":"ordering","type":"bytes12","internalType":"bytes12"},{"name":"payload","type":"bytes","internalType":"bytes"}]},{"name":"signatureData","type":"tuple","internalType":"struct IWavsServiceHandler.SignatureData","components":[{"name":"signers","type":"address[]","internalType":"address[]"},{"name":"signatures","type":"bytes[]","internalType":"bytes[]"},{"name":"referenceBlock","type":"uint32","internalType":"uint32"}]}],"outputs":[],"stateMutability":"nonpayable"},{"type":"function","name":"isValidTriggerId","inputs":[{"name":"triggerId","type":"uint64","internalType":"ISimpleTrigger.TriggerId"}],"outputs":[{"name":"","type":"bool","internalType":"bool"}],"stateMutability":"view"}],"bytecode":{"object":"0x60806040523461002f57610019610014610100565b61019b565b610021610034565b611df76101a88239611df790f35b61003a565b60405190565b5f80fd5b601f801991011690565b634e487b7160e01b5f52604160045260245ffd5b906100669061003e565b810190811060018060401b0382111761007e57604052565b610048565b9061009661008f610034565b928361005c565b565b5f80fd5b60018060a01b031690565b6100b09061009c565b90565b6100bc906100a7565b90565b6100c8816100b3565b036100cf57565b5f80fd5b905051906100e0826100bf565b565b906020828203126100fb576100f8915f016100d3565b90565b610098565b61011e611f9f8038038061011381610083565b9283398101906100e2565b90565b5f1b90565b9061013760018060a01b0391610121565b9181191691161790565b90565b61015861015361015d9261009c565b610141565b61009c565b90565b61016990610144565b90565b61017590610160565b90565b90565b9061019061018b6101979261016c565b610178565b8254610126565b9055565b6101a5905f61017b565b56fe60806040526004361015610013575b61056e565b61001d5f3561005c565b806378ecfb4714610057578063aa32d9f414610052578063c053045e1461004d5763f969ff330361000e5761053a565b610479565b6103d2565b610376565b60e01c90565b60405190565b5f80fd5b5f80fd5b5f80fd5b67ffffffffffffffff1690565b61008a81610074565b0361009157565b5f80fd5b905035906100a282610081565b565b906020828203126100bd576100ba915f01610095565b90565b61006c565b5190565b60209181520190565b90825f9392825e0152565b601f801991011690565b61010361010c602093610111936100fa816100c2565b938480936100c6565b958691016100cf565b6100da565b0190565b5190565b60209181520190565b60200190565b60018060a01b031690565b61013c90610128565b90565b61014890610133565b9052565b906101598160209361013f565b0190565b60200190565b9061018061017a61017384610115565b8093610119565b92610122565b905f5b8181106101905750505090565b9091926101a96101a3600192865161014c565b9461015d565b9101919091610183565b5190565b60209181520190565b60200190565b906101d0916100e4565b90565b60200190565b906101ed6101e6836101b3565b80926101b7565b90816101fe602083028401946101c0565b925f915b83831061021157505050505090565b9091929394602061023361022d838560019503875289516101c6565b976101d3565b9301930191939290610202565b63ffffffff1690565b61025290610240565b9052565b906102959060408061028a610278606085015f8801518682035f880152610163565b602087015185820360208701526101d9565b940151910190610249565b90565b6bffffffffffffffffffffffff191690565b6102b390610298565b9052565b6bffffffffffffffffffffffff60a01b1690565b6102d4906102b7565b9052565b61031591604060608201926102f35f8201515f8501906102aa565b610305602082015160208501906102cb565b01519060408184039101526100e4565b90565b61035b91604061034a610338606084015f8601518582035f8701526100e4565b60208501518482036020860152610256565b9201519060408184039101526102d8565b90565b6103739160208201915f818403910152610318565b90565b346103a6576103a261039161038c3660046100a4565b610b07565b610399610062565b9182918261035e565b0390f35b610068565b151590565b6103b9906103ab565b9052565b91906103d0905f602085019401906103b0565b565b34610402576103fe6103ed6103e83660046100a4565b610b67565b6103f5610062565b918291826103bd565b0390f35b610068565b90565b61041e61041961042392610074565b610407565b610074565b90565b61042f9061040a565b9052565b61045e916020604082019261044e5f8201515f850190610426565b01519060208184039101526100e4565b90565b6104769160208201915f818403910152610433565b90565b346104a9576104a561049461048f3660046100a4565b610be3565b61049c610062565b91829182610461565b0390f35b610068565b5f80fd5b908160609103126104c05790565b6104ae565b908160609103126104d35790565b6104ae565b919091604081840312610530575f81013567ffffffffffffffff811161052b57836105049183016104b2565b92602082013567ffffffffffffffff81116105265761052392016104c5565b90565b610070565b610070565b61006c565b5f0190565b346105695761055361054d3660046104d8565b90611c93565b61055b610062565b8061056581610535565b0390f35b610068565b5f80fd5b634e487b7160e01b5f52604160045260245ffd5b90610590906100da565b810190811067ffffffffffffffff8211176105aa57604052565b610572565b906105c26105bb610062565b9283610586565b565b6105ce60606105af565b90565b606090565b6105e060606105af565b90565b606090565b606090565b5f90565b6105f96105d6565b9060208080846106076105e3565b8152016106126105e8565b81520161061d6105ed565b81525050565b61062b6105f1565b90565b61063860606105af565b90565b5f90565b5f90565b61064b61062e565b90602080808461065961063b565b81520161066461063f565b81520161066f6105d1565b81525050565b61067d610643565b90565b6106886105c4565b9060208080846106966105d1565b8152016106a1610623565b8152016106ac610675565b81525050565b6106ba610680565b90565b906106c79061040a565b5f5260205260405f2090565b634e487b7160e01b5f52602260045260245ffd5b9060016002830492168015610707575b602083101461070257565b6106d3565b91607f16916106f7565b5f5260205f2090565b905f929180549061073461072d836106e7565b80946100c6565b916001811690815f1461078b575060011461074f575b505050565b61075c9192939450610711565b915f925b81841061077357505001905f808061074a565b60018160209295939554848601520191019290610760565b92949550505060ff19168252151560200201905f808061074a565b906107b09161071a565b90565b906107d36107cc926107c3610062565b938480926107a6565b0383610586565b565b52565b5490565b5f5260205f2090565b5f1c90565b60018060a01b031690565b610801610806916107e5565b6107ea565b90565b61081390546107f5565b90565b60010190565b9061083961083361082c846107d8565b8093610119565b926107dc565b905f5b8181106108495750505090565b90919261086961086360019261085e87610809565b61014c565b94610816565b910191909161083c565b9061087d9161081c565b90565b906108a061089992610890610062565b93848092610873565b0383610586565b565b52565b5490565b67ffffffffffffffff81116108c15760208091020190565b610572565b906108d86108d3836108a9565b6105af565b918252565b5f5260205f2090565b6108ef906107b3565b90565b906108fc826108a5565b610905816108c6565b9261091360208501916108dd565b5f915b8383106109235750505050565b600160208192610932856108e6565b815201920192019190610916565b52565b63ffffffff1690565b61095861095d916107e5565b610943565b90565b61096a905461094c565b90565b9061097790610240565b9052565b906109ca6109c1600261098c6105d6565b946109a361099b5f8301610880565b5f88016108a2565b6109bb6109b2600183016108f2565b60208801610940565b01610960565b6040840161096d565b565b52565b60601b90565b6109de906109cf565b90565b6109ed6109f2916107e5565b6109d5565b90565b6109ff90546109e1565b90565b90610a0c90610298565b9052565b60a01c90565b60a01b90565b610a2590610a16565b90565b610a34610a3991610a10565b610a1c565b90565b610a469054610a28565b90565b90610a53906102b7565b9052565b90610aa5610a9c6001610a6861062e565b94610a7f610a775f83016109f5565b5f8801610a02565b610a96610a8d5f8301610a3c565b60208801610a49565b016107b3565b604084016107d5565b565b52565b90610af9610af06004610abb6105c4565b94610ad2610aca5f83016107b3565b5f88016107d5565b610aea610ae16001830161097b565b602088016109cc565b01610a57565b60408401610aa7565b565b610b0490610aaa565b90565b610b1e610b2391610b166106b2565b5060026106bd565b610afb565b90565b5f90565b90610b349061040a565b5f5260205260405f2090565b60ff1690565b610b52610b57916107e5565b610b40565b90565b610b649054610b46565b90565b610b7e610b8391610b76610b26565b506001610b2a565b610b5a565b90565b610b9060406105af565b90565b5f90565b610b9f610b86565b9060208083610bac610b93565b815201610bb76105d1565b81525050565b610bc5610b97565b90565b610bd260406105af565b90565b90610bdf90610074565b9052565b610beb610bbd565b50610c235f610c04610bff600285906106bd565b610afb565b0151610c1a610c11610bc8565b935f8501610bd5565b602083016107d5565b90565b60018060a01b031690565b610c3d610c42916107e5565b610c26565b90565b610c4f9054610c31565b90565b610c66610c61610c6b92610128565b610407565b610128565b90565b610c7790610c52565b90565b610c8390610c6e565b90565b5f80fd5b60e01b90565b5f910312610c9a57565b61006c565b610ca881610298565b03610caf57565b5f80fd5b90503590610cc082610c9f565b565b50610cd1906020810190610cb3565b90565b610cdd816102b7565b03610ce457565b5f80fd5b90503590610cf582610cd4565b565b50610d06906020810190610ce8565b90565b5f80fd5b5f80fd5b5f80fd5b9035600160200382360303811215610d5657016020813591019167ffffffffffffffff8211610d51576001820236038313610d4c57565b610d0d565b610d09565b610d11565b90825f939282370152565b9190610d8081610d7981610d85956100c6565b8095610d5b565b6100da565b0190565b610ddf91610dd16060820192610dad610da45f830183610cc2565b5f8501906102aa565b610dc7610dbd6020830183610cf7565b60208501906102cb565b6040810190610d15565b916040818503910152610d66565b90565b9035600160200382360303811215610e2357016020813591019167ffffffffffffffff8211610e1e576020820236038313610e1957565b610d0d565b610d09565b610d11565b90565b610e3481610133565b03610e3b57565b5f80fd5b90503590610e4c82610e2b565b565b50610e5d906020810190610e3f565b90565b60200190565b91610e7482610e7a92610119565b92610e28565b90815f905b828210610e8d575050505090565b90919293610eaf610ea9600192610ea48886610e4e565b61014c565b95610e60565b920190929192610e7f565b9035600160200382360303811215610efb57016020813591019167ffffffffffffffff8211610ef6576020820236038313610ef157565b610d0d565b610d09565b610d11565b90565b90610f0e9291610d66565b90565b60200190565b9181610f22916101b7565b9081610f3360208302840194610f00565b92835f925b848410610f485750505050505090565b9091929394956020610f74610f6e8385600195038852610f688b88610d15565b90610f03565b98610f11565b940194019294939190610f38565b610f8b81610240565b03610f9257565b5f80fd5b90503590610fa382610f82565b565b50610fb4906020810190610f96565b90565b90611011906040611009610fff610fe460608501610fd75f890189610de2565b908783035f890152610e66565b610ff16020880188610eba565b908683036020880152610f17565b9482810190610fa5565b910190610249565b90565b909161102e61103c9360408401908482035f860152610d89565b916020818403910152610fb7565b90565b611047610062565b3d5f823e3d90fd5b5f80fd5b5f80fd5b5f80fd5b90359060016020038136030382121561109d570180359067ffffffffffffffff82116110985760200191600182023603831361109357565b611057565b611053565b61104f565b5f80fd5b5f80fd5b5f80fd5b5f80fd5b67ffffffffffffffff81116110d0576110cc6020916100da565b0190565b610572565b909291926110ea6110e5826110b2565b6105af565b938185526020850190828401116111065761110492610d5b565b565b6110ae565b9080601f8301121561112957816020611126933591016110d5565b90565b6110aa565b9190916040818403126111805761114560406105af565b92611152815f8401610095565b5f850152602082013567ffffffffffffffff811161117b57611174920161110b565b6020830152565b6110a6565b6110a2565b906020828203126111b5575f82013567ffffffffffffffff81116111b0576111ad920161112e565b90565b610070565b61006c565b6111c460606105af565b90565b67ffffffffffffffff81116111df5760208091020190565b610572565b5f80fd5b909291926111fd6111f8826111c7565b6105af565b938185526020808601920283019281841161123a57915b8383106112215750505050565b6020809161122f8486610e3f565b815201920191611214565b6111e4565b9080601f8301121561125d5781602061125a933591016111e8565b90565b6110aa565b929190611276611271826108a9565b6105af565b93818552602080860192028101918383116112cd5781905b83821061129c575050505050565b813567ffffffffffffffff81116112c8576020916112bd878493870161110b565b81520191019061128e565b6110aa565b6111e4565b9080601f830112156112f0578160206112ed93359101611262565b90565b6110aa565b9190916060818403126113725761130c60606105af565b925f82013567ffffffffffffffff811161136d578161132c91840161123f565b5f85015260208201359167ffffffffffffffff831161136857611354826113619483016112d2565b6020860152604001610f96565b6040830152565b6110a6565b6110a6565b6110a2565b6113829036906112f5565b90565b9190916060818403126113e95761139c60606105af565b926113a9815f8401610cb3565b5f8501526113ba8160208401610ce8565b6020850152604082013567ffffffffffffffff81116113e4576113dd920161110b565b6040830152565b6110a6565b6110a2565b6113f9903690611385565b90565b6114069051610074565b90565b634e487b7160e01b5f525f60045260245ffd5b5190565b601f602091010490565b1b90565b919060086114499102916114435f198461142a565b9261142a565b9181191691161790565b90565b61146a61146561146f92611453565b610407565b611453565b90565b90565b919061148b61148661149393611456565b611472565b90835461142e565b9055565b5f90565b6114ad916114a7611497565b91611475565b565b5b8181106114bb575050565b806114c85f60019361149b565b016114b0565b9190601f81116114de575b505050565b6114ea61150f93610711565b9060206114f684611420565b83019310611517575b61150890611420565b01906114af565b5f80806114d9565b9150611508819290506114ff565b1c90565b90611539905f1990600802611525565b191690565b8161154891611529565b906002021790565b9061155a816100c2565b9067ffffffffffffffff821161161a5761157e8261157885546106e7565b856114ce565b602090601f83116001146115b2579180916115a1935f926115a6575b505061153e565b90555b565b90915001515f8061159a565b601f198316916115c185610711565b925f5b818110611602575091600293918560019694106115e8575b505050020190556115a4565b6115f8910151601f841690611529565b90555f80806115dc565b919360206001819287870151815501950192016115c4565b610572565b9061162991611550565b565b5190565b5190565b600190818003010490565b5b81811061164a575050565b806116575f60019361149b565b0161163f565b90611670905f1990602003600802611525565b8154169055565b9091828110611686575b505050565b6116a461169e6116986116af95611633565b92611633565b926107dc565b91820191019061163e565b5f8080611681565b906801000000000000000081116116e057816116d56116de936107d8565b90828155611677565b565b610572565b6116ef9051610133565b90565b90565b6116fe82610115565b9167ffffffffffffffff83116117615761172c61172660019261172186866116b7565b610122565b926107dc565b9204915f5b83811061173e5750505050565b600190602061175461174f866116e5565b6116f2565b9401938184015501611731565b610572565b90611770916116f5565b565b5190565b600190818003010490565b905f9161179861179082610711565b92835461153e565b905555565b919290602082105f146117f657601f84116001146117c6576117c092935061153e565b90555b5b565b50906117ec6117f19360016117e36117dd85610711565b92611420565b820191016114af565b611781565b6117c3565b5061182d8293611807600194610711565b61182661181385611420565b820192601f861680611838575b50611420565b01906114af565b6002021790556117c4565b6118449088860361165d565b5f611820565b9290916801000000000000000082116118aa576020115f1461189b57602081105f1461187f576118799161153e565b90555b5b565b60019160ff191661188f84610711565b5560020201905561187c565b6001915060020201905561187d565b610572565b9081546118bb816106e7565b908183116118e4575b8183106118d2575b50505050565b6118db9361179d565b5f8080806118cc565b6118f08383838761184a565b6118c4565b5f6118ff916118af565b565b905f0361191357611911906118f5565b565b611409565b5b818110611924575050565b806119315f600193611901565b01611919565b9091828110611946575b505050565b61196461195e61195861196f95611776565b92611776565b926108dd565b918201910190611918565b5f8080611941565b906801000000000000000081116119a0578161199561199e936108a5565b90828155611937565b565b610572565b6119ca6119c46119b4846101b3565b936119bf8585611977565b6101c0565b916108dd565b5f915b8383106119da5750505050565b60016020826119f26119ec849561141c565b8661161f565b019201920191906119cd565b90611a08916119a5565b565b611a149051610240565b90565b5f1b90565b90611a2b63ffffffff91611a17565b9181191691161790565b611a49611a44611a4e92610240565b610407565b610240565b90565b90565b90611a69611a64611a7092611a35565b611a51565b8254611a1c565b9055565b90611ab860406002611abe94611a975f8201611a915f880161162f565b90611766565b611ab060018201611aaa60208801611772565b906119fe565b019201611a0a565b90611a54565b565b90611aca91611a74565b565b5190565b611ada9051610298565b90565b90611aee60018060a01b0391611a17565b9181191691161790565b611b0190610298565b90565b60601c90565b611b1390611b04565b90565b90611b2b611b26611b3292611af8565b611b0a565b8254611add565b9055565b611b4090516102b7565b90565b90611b5d6bffffffffffffffffffffffff60a01b91610a16565b9181191691161790565b611b70906102b7565b90565b611b7c90610a10565b90565b90611b94611b8f611b9b92611b67565b611b73565b8254611b43565b9055565b90611be260406001611be894611bc25f8201611bbc5f8801611ad0565b90611b16565b611bda5f8201611bd460208801611b36565b90611b7f565b01920161141c565b9061161f565b565b90611bf491611b9f565b565b90611c3a60406004611c4094611c195f8201611c135f880161141c565b9061161f565b611c3260018201611c2c6020880161162b565b90611ac0565b019201611acc565b90611bea565b565b90611c4c91611bf6565b565b90611c5a60ff91611a17565b9181191691161790565b611c6d906103ab565b90565b90565b90611c88611c83611c8f92611c64565b611c70565b8254611c4e565b9055565b611ca4611c9f5f610c45565b610c7a565b9163cd71589e828294803b15611dbc57611cd05f93611cdb611cc4610062565b98899586948594610c8a565b845260048401611014565b03915afa908115611db757611d8993611d6b92611d8b575b50611d50611d47611d13611d0b86604081019061105b565b810190611185565b94611d42611d39602088015195611d34611d2b6111ba565b975f89016107d5565b611377565b602086016109cc565b6113ee565b60408301610aa7565b611d666002611d605f86016113fc565b906106bd565b611c42565b611d84600191611d7e5f600192016113fc565b90610b2a565b611c73565b565b611daa905f3d8111611db0575b611da28183610586565b810190610c90565b5f611cf3565b503d611d98565b61103f565b610c8656fea2646970667358221220b258fde771619976618474c5d9c5fcaa533818189d18fa3fbbc7b6c9bb71ce9364736f6c634300081b0033","linkReferences":{}},"methodIdentifiers":{"getDataWithId(uint64)":"c053045e","getSignedData(uint64)":"78ecfb47","handleSignedEnvelope((bytes20,bytes12,bytes),(address[],bytes[],uint32))":"f969ff33","isValidTriggerId(uint64)":"aa32d9f4"},"id":5}