{"abi":[{"type":"constructor","inputs":[{"name":"_avsDirectory","type":"address","internalType":"address"},{"name":"_stakeRegistry","type":"address","internalType":"address"},{"name":"_rewardsCoordinator","type":"address","internalType":"address"},{"name":"_delegationManager","type":"address","internalType":"address"}],"stateMutability":"nonpayable"},{"type":"function","name":"addPayload","inputs":[{"name":"signedPayload","type":"tuple","internalType":"struct ILayerServiceManager.SignedPayload","components":[{"name":"data","type":"bytes","internalType":"bytes"},{"name":"signature","type":"bytes","internalType":"bytes"}]}],"outputs":[],"stateMutability":"nonpayable"},{"type":"function","name":"addPayloadMulti","inputs":[{"name":"signedPayloads","type":"tuple[]","internalType":"struct ILayerServiceManager.SignedPayload[]","components":[{"name":"data","type":"bytes","internalType":"bytes"},{"name":"signature","type":"bytes","internalType":"bytes"}]}],"outputs":[],"stateMutability":"nonpayable"},{"type":"function","name":"avsDirectory","inputs":[],"outputs":[{"name":"","type":"address","internalType":"address"}],"stateMutability":"view"},{"type":"function","name":"createAVSRewardsSubmission","inputs":[{"name":"rewardsSubmissions","type":"tuple[]","internalType":"struct IRewardsCoordinator.RewardsSubmission[]","components":[{"name":"strategiesAndMultipliers","type":"tuple[]","internalType":"struct IRewardsCoordinator.StrategyAndMultiplier[]","components":[{"name":"strategy","type":"address","internalType":"contract IStrategy"},{"name":"multiplier","type":"uint96","internalType":"uint96"}]},{"name":"token","type":"address","internalType":"contract IERC20"},{"name":"amount","type":"uint256","internalType":"uint256"},{"name":"startTimestamp","type":"uint32","internalType":"uint32"},{"name":"duration","type":"uint32","internalType":"uint32"}]}],"outputs":[],"stateMutability":"nonpayable"},{"type":"function","name":"createOperatorDirectedAVSRewardsSubmission","inputs":[{"name":"operatorDirectedRewardsSubmissions","type":"tuple[]","internalType":"struct IRewardsCoordinator.OperatorDirectedRewardsSubmission[]","components":[{"name":"strategiesAndMultipliers","type":"tuple[]","internalType":"struct IRewardsCoordinator.StrategyAndMultiplier[]","components":[{"name":"strategy","type":"address","internalType":"contract IStrategy"},{"name":"multiplier","type":"uint96","internalType":"uint96"}]},{"name":"token","type":"address","internalType":"contract IERC20"},{"name":"operatorRewards","type":"tuple[]","internalType":"struct IRewardsCoordinator.OperatorReward[]","components":[{"name":"operator","type":"address","internalType":"address"},{"name":"amount","type":"uint256","internalType":"uint256"}]},{"name":"startTimestamp","type":"uint32","internalType":"uint32"},{"name":"duration","type":"uint32","internalType":"uint32"},{"name":"description","type":"string","internalType":"string"}]}],"outputs":[],"stateMutability":"nonpayable"},{"type":"function","name":"deregisterOperatorFromAVS","inputs":[{"name":"operator","type":"address","internalType":"address"}],"outputs":[],"stateMutability":"nonpayable"},{"type":"function","name":"getData","inputs":[{"name":"triggerId","type":"uint64","internalType":"ISimpleTrigger.TriggerId"}],"outputs":[{"name":"data","type":"bytes","internalType":"bytes"}],"stateMutability":"view"},{"type":"function","name":"getOperatorRestakedStrategies","inputs":[{"name":"_operator","type":"address","internalType":"address"}],"outputs":[{"name":"","type":"address[]","internalType":"address[]"}],"stateMutability":"view"},{"type":"function","name":"getRestakeableStrategies","inputs":[],"outputs":[{"name":"","type":"address[]","internalType":"address[]"}],"stateMutability":"view"},{"type":"function","name":"getSignature","inputs":[{"name":"triggerId","type":"uint64","internalType":"ISimpleTrigger.TriggerId"}],"outputs":[{"name":"signature","type":"bytes","internalType":"bytes"}],"stateMutability":"view"},{"type":"function","name":"isValidTriggerId","inputs":[{"name":"triggerId","type":"uint64","internalType":"ISimpleTrigger.TriggerId"}],"outputs":[{"name":"","type":"bool","internalType":"bool"}],"stateMutability":"view"},{"type":"function","name":"owner","inputs":[],"outputs":[{"name":"","type":"address","internalType":"address"}],"stateMutability":"view"},{"type":"function","name":"registerOperatorToAVS","inputs":[{"name":"operator","type":"address","internalType":"address"},{"name":"operatorSignature","type":"tuple","internalType":"struct ISignatureUtils.SignatureWithSaltAndExpiry","components":[{"name":"signature","type":"bytes","internalType":"bytes"},{"name":"salt","type":"bytes32","internalType":"bytes32"},{"name":"expiry","type":"uint256","internalType":"uint256"}]}],"outputs":[],"stateMutability":"nonpayable"},{"type":"function","name":"renounceOwnership","inputs":[],"outputs":[],"stateMutability":"nonpayable"},{"type":"function","name":"rewardsInitiator","inputs":[],"outputs":[{"name":"","type":"address","internalType":"address"}],"stateMutability":"view"},{"type":"function","name":"setClaimerFor","inputs":[{"name":"claimer","type":"address","internalType":"address"}],"outputs":[],"stateMutability":"nonpayable"},{"type":"function","name":"setRewardsInitiator","inputs":[{"name":"newRewardsInitiator","type":"address","internalType":"address"}],"outputs":[],"stateMutability":"nonpayable"},{"type":"function","name":"stakeRegistry","inputs":[],"outputs":[{"name":"","type":"address","internalType":"address"}],"stateMutability":"view"},{"type":"function","name":"transferOwnership","inputs":[{"name":"newOwner","type":"address","internalType":"address"}],"outputs":[],"stateMutability":"nonpayable"},{"type":"function","name":"updateAVSMetadataURI","inputs":[{"name":"_metadataURI","type":"string","internalType":"string"}],"outputs":[],"stateMutability":"nonpayable"},{"type":"function","name":"validatePayload","inputs":[{"name":"signedPayload","type":"tuple","internalType":"struct ILayerServiceManager.SignedPayload","components":[{"name":"data","type":"bytes","internalType":"bytes"},{"name":"signature","type":"bytes","internalType":"bytes"}]}],"outputs":[{"name":"","type":"bool","internalType":"bool"}],"stateMutability":"view"},{"type":"function","name":"validatePayloadMulti","inputs":[{"name":"signedPayloads","type":"tuple[]","internalType":"struct ILayerServiceManager.SignedPayload[]","components":[{"name":"data","type":"bytes","internalType":"bytes"},{"name":"signature","type":"bytes","internalType":"bytes"}]}],"outputs":[{"name":"","type":"bool","internalType":"bool"}],"stateMutability":"view"},{"type":"event","name":"Initialized","inputs":[{"name":"version","type":"uint8","indexed":false,"internalType":"uint8"}],"anonymous":false},{"type":"event","name":"OwnershipTransferred","inputs":[{"name":"previousOwner","type":"address","indexed":true,"internalType":"address"},{"name":"newOwner","type":"address","indexed":true,"internalType":"address"}],"anonymous":false},{"type":"event","name":"RewardsInitiatorUpdated","inputs":[{"name":"prevRewardsInitiator","type":"address","indexed":false,"internalType":"address"},{"name":"newRewardsInitiator","type":"address","indexed":false,"internalType":"address"}],"anonymous":false},{"type":"error","name":"InvalidSignature","inputs":[]}],"bytecode":{"object":"0x6101003461019a57601f6122b238819003918201601f19168301916001600160401b0383118484101761019e5780849260809460405283398101031261019a57610048816101b2565b90610055602082016101b2565b61006d6060610066604085016101b2565b93016101b2565b9260a05260805260c05260e0525f5460ff8160081c166101455760ff8082161061010b575b6040516120eb90816101c78239608051818181610591015281816107a701528181610e5f015281816110210152818161124a0152611798015260a0518181816106cc015281816107d701528181610e880152610fdd015260c0518181816101490152818161087d0152610d20015260e051816113100152f35b60ff90811916175f557f7f26b83ff96e1f2b6a682f133852f6798a09c465da95921460cefb3847402498602060405160ff8152a15f610092565b60405162461bcd60e51b815260206004820152602760248201527f496e697469616c697a61626c653a20636f6e747261637420697320696e697469604482015266616c697a696e6760c81b6064820152608490fd5b5f80fd5b634e487b7160e01b5f52604160045260245ffd5b51906001600160a01b038216820361019a5756fe60806040526004361015610011575f80fd5b5f803560e01c8063216a3e9a146114eb57806333cfb7b71461121d5780633bc28c8c1461119e57806348958442146110d057806363710c0514611050578063683048351461100c5780636b3aa72e14610fc8578063715018a614610f6d5780638da5cb5b14610f455780639926ee7d14610dc05780639aa9fda514610d88578063a0169ddd14610cfb578063a127f18814610c14578063a20b99bf1461083f578063a364f4da14610786578063a71f8da014610740578063a98fb3551461067f578063aa32d9f414610642578063e481af9d1461056c578063f2fde38b146104a3578063fc299dee1461047a5763fce36c7d1461010c575f80fd5b346101e95760203660031901126101e9576004356001600160401b0381116104765761013c9036906004016115dc565b610147929192611ed9565b7f0000000000000000000000000000000000000000000000000000000000000000825b82811061029457506001600160a01b031690813b15610290576040519363fce36c7d60e01b8552816024860160206004880152526044850160448360051b87010192828690609e19813603015b8383106101f75788808b8181808c0381838f5af180156101ec576101d85750f35b816101e291611627565b6101e95780f35b80fd5b6040513d84823e3d90fd5b9091929394956043198a820301865286358281121561028c5760206001928582930190608063ffffffff61027a826102406102328780611fea565b60a0885260a088019161201e565b95898060a01b0361025289830161154c565b1688870152604081013560408701528361026e60608301612082565b16606087015201612082565b169101529801960194930191906101b7565b8980fd5b8280fd5b8360206102f56001600160a01b036102b7836102b1878a8d612093565b01611fd6565b1660406102c586898c612093565b6040516323b872dd60e01b8152336004820152306024820152910135604482015293849283919082906064820190565b03925af180156104135761045a575b506001600160a01b0361031d60206102b184878a612093565b604051636eb1769f60e11b81523060048201526001600160a01b03851660248201529160209183916044918391165afa9081156104135785918791839161041e575b506020916103ca91610397906040610390888b6001600160a01b036103898a6102b185858c612093565b1696612093565b0135611fc9565b60405163095ea7b360e01b81526001600160a01b0388166004820152602481019190915293849283919082906044820190565b03925af180156104135790600192916103e5575b500161016a565b6104059060203d811161040c575b6103fd8183611627565b810190611948565b505f6103de565b503d6103f3565b6040513d87823e3d90fd5b925050506020813d8211610452575b8161043a60209383611627565b8101031261044e575184908690602061035f565b5f80fd5b3d915061042d565b6104719060203d811161040c576103fd8183611627565b610304565b5080fd5b50346101e957806003193601126101e9576065546040516001600160a01b039091168152602090f35b50346101e95760203660031901126101e9576104bd611536565b6104c5611bc8565b6001600160a01b0316801561051857603380546001600160a01b0319811683179091556001600160a01b03167f8be0079c531659141344cd1fd0a4f28419497f9722a3daafe3b4186f6b6457e08380a380f35b60405162461bcd60e51b815260206004820152602660248201527f4f776e61626c653a206e6577206f776e657220697320746865207a65726f206160448201526564647265737360d01b6064820152608490fd5b50346101e957806003193601126101e9576040516302e0740360e31b815281816004817f00000000000000000000000000000000000000000000000000000000000000006001600160a01b03165afa9081156101ec578291610620575b506105d5815151611b96565b915b8151805182101561060e57600191906001600160a01b03906105fa908390611b74565b5151166106078286611b74565b52016105d7565b6040518061061c8682611560565b0390f35b61063c91503d8084833e6106348183611627565b810190611a72565b5f6105c9565b50346101e95760203660031901126101e95760ff60406020926001600160401b0361066b6115a2565b168152609784522054166040519015158152f35b50346101e95760203660031901126101e957806004356001600160401b03811161073d573660238201121561073d576106c2903690602481600401359101611648565b6106ca611bc8565b7f00000000000000000000000000000000000000000000000000000000000000006001600160a01b0316803b156107395760405163a98fb35560e01b81526020600482015291839183918290849082906107289060248301906115b8565b03925af180156101ec576101d85750f35b5050fd5b50fd5b50346101e95760203660031901126101e957600435906001600160401b0382116101e957602061077c61077636600486016115dc565b90611991565b6040519015158152f35b50346101e95760203660031901126101e957806107a1611536565b6107d5337f00000000000000000000000000000000000000000000000000000000000000006001600160a01b0316146118c3565b7f00000000000000000000000000000000000000000000000000000000000000006001600160a01b031690813b15610739576040516351b27a6d60e11b81526001600160a01b0390911660048201529082908290602490829084905af180156101ec576101d85750f35b50346101e95760203660031901126101e9576004356001600160401b038111610476576108709036906004016115dc565b61087b929192611ed9565b7f0000000000000000000000000000000000000000000000000000000000000000825b828110610a2c5750919283926001600160a01b031690813b15610a2757935060405191634e5cd2fd60e11b835280604484013060048601526040602486015252606483019060648160051b850101958092869160be19813603015b84841061091a578880898181808f0381838e5af180156101ec576101d85750f35b878a0360631901835285358181121561028c5782019961094b61093d8c80611fea565b60c0845260c084019161201e565b9a6001600160a01b036109606020830161154c565b16602083015260206109756040830183611fea565b848f036040860152808f529d9091019c8c5b8181106109f65750505060206109e68c9d6001946109d88563ffffffff6109b16060889901612082565b16606084015263ffffffff6109c860808301612082565b16608084015260a0810190611960565b9160a08185039101526116dd565b98019401940193929599506108f9565b90919d60408f60019260208392858060a01b03610a128261154c565b16835201356020820152019f01929101610987565b505050fd5b909291829483955b610a4c610a42858585611f72565b6040810190611f94565b9050871015610a9c57610a63610a42858585611f72565b881015610a88576001916020610a80928a60061b01013590611fc9565b960195610a34565b634e487b7160e01b86526032600452602486fd5b909550929390929091906001600160a01b03610abe60206102b185888b611f72565b6040516323b872dd60e01b81523360048201523060248201526044810184905291602091839160649183918b91165af18015610bed57610bf8575b506001600160a01b03610b1260206102b185888b611f72565b604051636eb1769f60e11b81523060048201526001600160a01b03861660248201529160209183916044918391165afa908115610bed57908692918391610bb6575b50602091610397610b7d928a610b76866102b18a8d60018060a01b0395611f72565b1692611fc9565b03925af18015610413579060019291610b98575b500161089e565b610baf9060203d811161040c576103fd8183611627565b505f610b91565b9250506020823d8211610be5575b81610bd160209383611627565b8101031261044e5790518591906020610b54565b3d9150610bc4565b6040513d88823e3d90fd5b610c0f9060203d811161040c576103fd8183611627565b610af9565b50346101e95760203660031901126101e9576001600160401b03610c366115a2565b168152609860205260408120906040519181815491610c548361182a565b8086529260018116908115610cd15750600114610c90575b61061c85610c7c81870382611627565b6040519182916020835260208301906115b8565b815260208120939250905b808210610cb757509091508101602001610c7c8261061c610c6c565b919260018160209254838588010152019101909291610c9b565b86955061061c96935060209250610c7c94915060ff191682840152151560051b8201019293610c6c565b50346101e95760203660031901126101e95780610d16611536565b610d1e611bc8565b7f00000000000000000000000000000000000000000000000000000000000000006001600160a01b031690813b156107395760405163a0169ddd60e01b81526001600160a01b0390911660048201529082908290602490829084905af180156101ec576101d85750f35b50346101e957610d9736611503565b610da0816116fd565b15610db157610dae90611c6f565b80f35b638baa579f60e01b8252600482fd5b503461044e57604036600319011261044e57610dda611536565b602435906001600160401b03821161044e576060600319833603011261044e5760405190606082018281106001600160401b03821117610f315760405282600401356001600160401b03811161044e57610e3a906004369186010161168d565b82526020820191602484013583526044604082019401358452610e8660018060a01b037f00000000000000000000000000000000000000000000000000000000000000001633146118c3565b7f00000000000000000000000000000000000000000000000000000000000000006001600160a01b031690813b1561044e575f610ef993819560405197889687958694639926ee7d60e01b865260018060a01b0316600486015260406024860152516060604486015260a48501906115b8565b9151606484015251608483015203925af18015610f2657610f18575080f35b610f2491505f90611627565b005b6040513d5f823e3d90fd5b634e487b7160e01b5f52604160045260245ffd5b3461044e575f36600319011261044e576033546040516001600160a01b039091168152602090f35b3461044e575f36600319011261044e57610f85611bc8565b603380546001600160a01b031981169091555f906001600160a01b03167f8be0079c531659141344cd1fd0a4f28419497f9722a3daafe3b4186f6b6457e08280a3005b3461044e575f36600319011261044e576040517f00000000000000000000000000000000000000000000000000000000000000006001600160a01b03168152602090f35b3461044e575f36600319011261044e576040517f00000000000000000000000000000000000000000000000000000000000000006001600160a01b03168152602090f35b3461044e57602036600319011261044e576004356001600160401b03811161044e576110809036906004016115dc565b61108a8183611991565b156110c1575f5b63ffffffff81169082821015610f24576110b76110b26110bc93858761188d565b611c6f565b611862565b611091565b638baa579f60e01b5f5260045ffd5b3461044e57602036600319011261044e576001600160401b036110f16115a2565b165f52609960205260405f20604051905f9080549061110f8261182a565b80855291600181169081156111775750600114611137575b61061c84610c7c81860382611627565b5f90815260208120939250905b80821061115d57509091508101602001610c7c82611127565b919260018160209254838588010152019101909291611144565b60ff191660208087019190915292151560051b85019092019250610c7c9150839050611127565b3461044e57602036600319011261044e576111b7611536565b6111bf611bc8565b606554604080516001600160a01b038084168252841660208201529192917fe11cddf1816a43318ca175bbc52cd0185436e9cbead7c83acc54a73e461717e39190a16001600160a01b03166001600160a01b03199190911617606555005b3461044e57602036600319011261044e57611236611536565b6040516302e0740360e31b81525f816004817f00000000000000000000000000000000000000000000000000000000000000006001600160a01b03165afa908115610f26575f916114d1575b50908151519061129182611a5b565b9061129f6040519283611627565b8282526112ab83611a5b565b602083019490601f19013686375f5b8481106114a357505060408051639004134760e01b81526001600160a01b0390921660048301526024820152815160448201819052909384916064830191905f5b81811061148157505f939283900391508290507f00000000000000000000000000000000000000000000000000000000000000006001600160a01b03165afa928315610f26575f936113ef575b505f805b8381106113c3575061135d90611b96565b925f905f5b848110611377576040518061061c8882611560565b6113818183611b74565b5161138f575b600101611362565b916001906113bb906001600160a01b036113a98688611b74565b51166113b5828a611b74565b52611b88565b929050611387565b6113cd8186611b74565b516113db575b60010161134c565b906113e7600191611b88565b9190506113d3565b9092503d805f833e6114018183611627565b81019060208183031261044e578051906001600160401b03821161044e57019080601f8301121561044e57815161143781611a5b565b926114456040519485611627565b81845260208085019260051b82010192831161044e57602001905b828210611471575050509183611348565b8151815260209182019101611460565b82516001600160a01b03168452879450602093840193909201916001016112fb565b600190818060a09895981b036114ba828551611b74565b5151166114c78287611b74565b52019491946112ba565b6114e591503d805f833e6106348183611627565b82611282565b3461044e57602061077c6114fe36611503565b6116fd565b602060031982011261044e57600435906001600160401b03821161044e57604090829003600319011261044e5760040190565b600435906001600160a01b038216820361044e57565b35906001600160a01b038216820361044e57565b60206040818301928281528451809452019201905f5b8181106115835750505090565b82516001600160a01b0316845260209384019390920191600101611576565b600435906001600160401b038216820361044e57565b805180835260209291819084018484015e5f828201840152601f01601f1916010190565b9181601f8401121561044e578235916001600160401b03831161044e576020808501948460051b01011161044e57565b604081019081106001600160401b03821117610f3157604052565b90601f801991011681019081106001600160401b03821117610f3157604052565b9291926001600160401b038211610f315760405191611671601f8201601f191660200184611627565b82948184528183011161044e578281602093845f960137010152565b9080601f8301121561044e578160206116a893359101611648565b90565b903590601e198136030182121561044e57018035906001600160401b03821161044e5760200191813603831361044e57565b908060209392818452848401375f828201840152601f01601f1916010190565b602061176761171661170f84806116ab565b3691611648565b828151910120604051838101917f19457468657265756d205369676e6564204d6573736167653a0a3332000000008352603c820152603c815261175a605c82611627565b51902092828101906116ab565b90926117946040519485938493630b135d3f60e11b855260048501526040602485015260448401916116dd565b03817f00000000000000000000000000000000000000000000000000000000000000006001600160a01b03165afa908115610f26575f916117e7575b506001600160e01b031916630b135d3f60e11b1490565b90506020813d602011611822575b8161180260209383611627565b8101031261044e57516001600160e01b03198116810361044e575f6117d0565b3d91506117f5565b90600182811c92168015611858575b602083101461184457565b634e487b7160e01b5f52602260045260245ffd5b91607f1691611839565b63ffffffff1663ffffffff81146118795760010190565b634e487b7160e01b5f52601160045260245ffd5b91908110156118af5760051b81013590603e198136030182121561044e570190565b634e487b7160e01b5f52603260045260245ffd5b156118ca57565b60405162461bcd60e51b815260206004820152604a60248201527f4543445341536572766963654d616e61676572426173652e6f6e6c795374616b60448201527f6552656769737472793a2063616c6c6572206973206e6f7420746865207374616064820152696b65526567697374727960b01b608482015260a490fd5b9081602091031261044e5751801515810361044e5790565b9035601e198236030181121561044e5701602081359101916001600160401b03821161044e57813603831361044e57565b5f5b63ffffffff811683811015611a525760206119b2611a0692868661188d565b604051809381926310b51f4d60e11b83528460048401526119f46119ea6119d98380611960565b6040602488015260648701916116dd565b9186810190611960565b848303602319016044860152906116dd565b0381305afa908115610f26575f91611a34575b5015611a2d57611a2890611862565b611993565b5050505f90565b611a4c915060203d811161040c576103fd8183611627565b5f611a19565b50505050600190565b6001600160401b038111610f315760051b60200190565b60208183031261044e578051906001600160401b03821161044e57019060208282031261044e5760405191602083018381106001600160401b03821117610f31576040528051906001600160401b03821161044e570181601f8201121561044e57805190611adf82611a5b565b92611aed6040519485611627565b82845260208085019360061b8301019181831161044e57602001925b828410611b195750505050815290565b60408483031261044e5760405190611b308261160c565b84516001600160a01b038116810361044e5782526020850151906bffffffffffffffffffffffff8216820361044e5782602092836040950152815201930192611b09565b80518210156118af5760209160051b010190565b5f1981146118795760010190565b90611ba082611a5b565b611bad6040519182611627565b8281528092611bbe601f1991611a5b565b0190602036910137565b6033546001600160a01b03163303611bdc57565b606460405162461bcd60e51b815260206004820152602060248201527f4f776e61626c653a2063616c6c6572206973206e6f7420746865206f776e65726044820152fd5b601f8211611c2d57505050565b5f5260205f20906020601f840160051c83019310611c65575b601f0160051c01905b818110611c5a575050565b5f8155600101611c4f565b9091508190611c46565b90611c7a82806116ab565b8101929060208185031261044e578035906001600160401b03821161044e57019260408482031261044e5760405193611cb28561160c565b80356001600160401b038116810361044e5785526020810135916001600160401b03831161044e57611cfa92611ce8920161168d565b916020850192835260208101906116ab565b6001600160401b038551165f52609960205260405f20916001600160401b038211610f3157611d3382611d2d855461182a565b85611c20565b5f90601f8311600114611e7557611d6192915f9183611e6a575b50508160011b915f199060031b1c19161790565b90555b51916001600160401b038151165f52609860205260405f2083516001600160401b038111610f3157611da081611d9a845461182a565b84611c20565b6020601f8211600114611dff579080611dd7926001600160401b0396975f92611df45750508160011b915f199060031b1c19161790565b90555b51165f52609760205260405f20600160ff19825416179055565b015190505f80611d4d565b601f19821695835f52815f20965f5b818110611e525750916001600160401b03969791846001959410611e3a575b505050811b019055611dda565b01515f1960f88460031b161c191690555f8080611e2d565b83830151895560019098019760209384019301611e0e565b013590505f80611d4d565b601f19831691845f5260205f20925f5b818110611ec15750908460019594939210611ea8575b505050811b019055611d64565b01355f19600384901b60f8161c191690555f8080611e9b565b91936020600181928787013581550195019201611e85565b6065546001600160a01b03163303611eed57565b60405162461bcd60e51b815260206004820152605160248201527f4543445341536572766963654d616e61676572426173652e6f6e6c795265776160448201527f726473496e69746961746f723a2063616c6c6572206973206e6f7420746865206064820152703932bbb0b932399034b734ba34b0ba37b960791b608482015260a490fd5b91908110156118af5760051b8101359060be198136030182121561044e570190565b903590601e198136030182121561044e57018035906001600160401b03821161044e57602001918160061b3603831361044e57565b9190820180921161187957565b356001600160a01b038116810361044e5790565b9035601e198236030181121561044e5701602081359101916001600160401b03821161044e578160061b3603831361044e57565b916020908281520191905f905b8082106120385750505090565b909192833560018060a01b03811680910361044e5781526020840135906bffffffffffffffffffffffff821680920361044e5760408160019360208394015201940192019061202b565b359063ffffffff8216820361044e57565b91908110156118af5760051b81013590609e198136030182121561044e57019056fea26469706673582212208e25648883f158b0ccb35c6adbff5a78010179f10de072c8beadc2a143e7ca2564736f6c634300081a0033","linkReferences":{}},"methodIdentifiers":{"addPayload((bytes,bytes))":"9aa9fda5","addPayloadMulti((bytes,bytes)[])":"63710c05","avsDirectory()":"6b3aa72e","createAVSRewardsSubmission(((address,uint96)[],address,uint256,uint32,uint32)[])":"fce36c7d","createOperatorDirectedAVSRewardsSubmission(((address,uint96)[],address,(address,uint256)[],uint32,uint32,string)[])":"a20b99bf","deregisterOperatorFromAVS(address)":"a364f4da","getData(uint64)":"a127f188","getOperatorRestakedStrategies(address)":"33cfb7b7","getRestakeableStrategies()":"e481af9d","getSignature(uint64)":"48958442","isValidTriggerId(uint64)":"aa32d9f4","owner()":"8da5cb5b","registerOperatorToAVS(address,(bytes,bytes32,uint256))":"9926ee7d","renounceOwnership()":"715018a6","rewardsInitiator()":"fc299dee","setClaimerFor(address)":"a0169ddd","setRewardsInitiator(address)":"3bc28c8c","stakeRegistry()":"68304835","transferOwnership(address)":"f2fde38b","updateAVSMetadataURI(string)":"a98fb355","validatePayload((bytes,bytes))":"216a3e9a","validatePayloadMulti((bytes,bytes)[])":"a71f8da0"},"id":0}