{"abi":[{"type":"constructor","inputs":[],"stateMutability":"nonpayable"},{"type":"function","name":"getData","inputs":[{"name":"triggerId","type":"uint64","internalType":"ISimpleTrigger.TriggerId"}],"outputs":[{"name":"data","type":"bytes","internalType":"bytes"}],"stateMutability":"view"},{"type":"function","name":"getServiceManager","inputs":[],"outputs":[{"name":"","type":"address","internalType":"address"}],"stateMutability":"view"},{"type":"function","name":"getSignature","inputs":[{"name":"triggerId","type":"uint64","internalType":"ISimpleTrigger.TriggerId"}],"outputs":[{"name":"signature","type":"bytes","internalType":"bytes"}],"stateMutability":"view"},{"type":"function","name":"handleAddPayload","inputs":[{"name":"data","type":"bytes","internalType":"bytes"},{"name":"signature","type":"bytes","internalType":"bytes"}],"outputs":[],"stateMutability":"nonpayable"},{"type":"function","name":"isValidTriggerId","inputs":[{"name":"triggerId","type":"uint64","internalType":"ISimpleTrigger.TriggerId"}],"outputs":[{"name":"","type":"bool","internalType":"bool"}],"stateMutability":"view"},{"type":"function","name":"setServiceManager","inputs":[{"name":"newServiceManager","type":"address","internalType":"address"}],"outputs":[],"stateMutability":"nonpayable"}],"bytecode":{"object":"0x608060405234602257600e60a3565b60146026565b610dd76100ae8239610dd790f35b602c565b60405190565b5f80fd5b5f1b90565b90604460018060a01b03916030565b9181191691161790565b60018060a01b031690565b90565b606b6067606f92604e565b6059565b604e565b90565b607990605c565b90565b6083906072565b90565b90565b9060996095609f92607c565b6086565b82546035565b9055565b60ab335f6089565b56fe60806040526004361015610013575b6103e9565b61001d5f3561007b565b806273e1d71461007657806348958442146100715780634dda0b431461006c5780639b41bf2314610067578063a127f188146100625763aa32d9f40361000e576103b4565b610358565b610325565b6102af565b610232565b610142565b60e01c90565b60405190565b5f80fd5b5f80fd5b5f80fd5b5f80fd5b5f80fd5b5f80fd5b909182601f830112156100d95781359167ffffffffffffffff83116100d45760200192600183028401116100cf57565b61009b565b610097565b610093565b9091604082840312610138575f82013567ffffffffffffffff8111610133578361010991840161009f565b929093602082013567ffffffffffffffff811161012e5761012a920161009f565b9091565b61008f565b61008f565b61008b565b5f0190565b346101745761015e6101553660046100de565b92919091610abb565b610166610081565b806101708161013d565b0390f35b610087565b67ffffffffffffffff1690565b61018f81610179565b0361019657565b5f80fd5b905035906101a782610186565b565b906020828203126101c2576101bf915f0161019a565b90565b61008b565b5190565b60209181520190565b90825f9392825e0152565b601f801991011690565b610208610211602093610216936101ff816101c7565b938480936101cb565b958691016101d4565b6101df565b0190565b61022f9160208201915f8184039101526101e9565b90565b346102625761025e61024d6102483660046101a9565b610b9e565b610255610081565b9182918261021a565b0390f35b610087565b5f91031261027157565b61008b565b60018060a01b031690565b61028a90610276565b90565b61029690610281565b9052565b91906102ad905f6020850194019061028d565b565b346102df576102bf366004610267565b6102db6102ca610bc1565b6102d2610081565b9182918261029a565b0390f35b610087565b6102ed81610281565b036102f457565b5f80fd5b90503590610305826102e4565b565b906020828203126103205761031d915f016102f8565b90565b61008b565b346103535761033d610338366004610307565b610d2d565b610345610081565b8061034f8161013d565b0390f35b610087565b346103885761038461037361036e3660046101a9565b610d38565b61037b610081565b9182918261021a565b0390f35b610087565b151590565b61039b9061038d565b9052565b91906103b2905f60208501940190610392565b565b346103e4576103e06103cf6103ca3660046101a9565b610d82565b6103d7610081565b9182918261039f565b0390f35b610087565b5f80fd5b5f1c90565b60018060a01b031690565b61040961040e916103ed565b6103f2565b90565b61041b90546103fd565b90565b60209181520190565b60207f6c20746869732066756e6374696f6e2e00000000000000000000000000000000917f4f6e6c79207468652073657276696365206d616e616765722063616e2063616c5f8201520152565b610481603060409261041e565b61048a81610427565b0190565b6104a39060208101905f818303910152610474565b90565b156104ad57565b6104b5610081565b62461bcd60e51b8152806104cb6004820161048e565b0390fd5b906105009392916104fb336104f56104ef6104ea6001610411565b610281565b91610281565b146104a6565b610a47565b565b5f80fd5b634e487b7160e01b5f52604160045260245ffd5b90610524906101df565b810190811067ffffffffffffffff82111761053e57604052565b610506565b9061055661054f610081565b928361051a565b565b5f80fd5b5f80fd5b67ffffffffffffffff811161057e5761057a6020916101df565b0190565b610506565b90825f939282370152565b909291926105a361059e82610560565b610543565b938185526020850190828401116105bf576105bd92610583565b565b61055c565b9080601f830112156105e2578160206105df9335910161058e565b90565b610093565b919091604081840312610639576105fe6040610543565b9261060b815f840161019a565b5f850152602082013567ffffffffffffffff81116106345761062d92016105c4565b6020830152565b610558565b610502565b9060208282031261066e575f82013567ffffffffffffffff81116106695761066692016105e7565b90565b61008f565b61008b565b61067d9051610179565b90565b90565b61069761069261069c92610179565b610680565b610179565b90565b906106a990610683565b5f5260205260405f2090565b5090565b634e487b7160e01b5f52602260045260245ffd5b90600160028304921680156106ed575b60208310146106e857565b6106b9565b91607f16916106dd565b5f5260205f2090565b601f602091010490565b1b90565b919060086107299102916107235f198461070a565b9261070a565b9181191691161790565b90565b61074a61074561074f92610733565b610680565b610733565b90565b90565b919061076b61076661077393610736565b610752565b90835461070e565b9055565b5f90565b61078d91610787610777565b91610755565b565b5b81811061079b575050565b806107a85f60019361077b565b01610790565b9190601f81116107be575b505050565b6107ca6107ef936106f7565b9060206107d684610700565b830193106107f7575b6107e890610700565b019061078f565b5f80806107b9565b91506107e8819290506107df565b1c90565b90610819905f1990600802610805565b191690565b8161082891610809565b906002021790565b9161083b90826106b5565b9067ffffffffffffffff82116108fa5761085f8261085985546106cd565b856107ae565b5f90601f831160011461089257918091610881935f92610886575b505061081e565b90555b565b90915001355f8061087a565b601f198316916108a1856106f7565b925f5b8181106108e2575091600293918560019694106108c8575b50505002019055610884565b6108d8910135601f841690610809565b90555f80806108bc565b919360206001819287870135815501950192016108a4565b610506565b9061090a9291610830565b565b90610916816101c7565b9067ffffffffffffffff82116109d65761093a8261093485546106cd565b856107ae565b602090601f831160011461096e5791809161095d935f92610962575b505061081e565b90555b565b90915001515f80610956565b601f1983169161097d856106f7565b925f5b8181106109be575091600293918560019694106109a4575b50505002019055610960565b6109b4910151601f841690610809565b90555f8080610998565b91936020600181928787015181550195019201610980565b610506565b906109e59161090c565b565b906109f190610683565b5f5260205260405f2090565b5f1b90565b90610a0e60ff916109fd565b9181191691161790565b610a219061038d565b90565b90565b90610a3c610a37610a4392610a18565b610a24565b8254610a02565b9055565b92610a5c610a7892610ab9959081019061063e565b92610a736004610a6d5f8701610673565b9061069f565b6108ff565b610a9b6020820151610a966003610a905f8601610673565b9061069f565b6109db565b610ab4600191610aae5f60029201610673565b906109e7565b610a27565b565b90610ac79392916104cf565b565b606090565b60209181520190565b905f9291805490610af1610aea836106cd565b8094610ace565b916001811690815f14610b485750600114610b0c575b505050565b610b1991929394506106f7565b915f925b818410610b3057505001905f8080610b07565b60018160209295939554848601520191019290610b1d565b92949550505060ff19168252151560200201905f8080610b07565b90610b6d91610ad7565b90565b90610b90610b8992610b80610081565b93848092610b63565b038361051a565b565b610b9b90610b70565b90565b610bb5610bba91610bad610ac9565b50600461069f565b610b92565b90565b5f90565b610bc9610bbd565b50610bd46001610411565b90565b60207f6374696f6e2e0000000000000000000000000000000000000000000000000000917f4f6e6c7920746865206f776e65722063616e2063616c6c20746869732066756e5f8201520152565b610c31602660409261041e565b610c3a81610bd7565b0190565b610c539060208101905f818303910152610c24565b90565b15610c5d57565b610c65610081565b62461bcd60e51b815280610c7b60048201610c3e565b0390fd5b610cac90610ca733610ca1610c9b610c965f610411565b610281565b91610281565b14610c56565b610d20565b565b90610cbf60018060a01b03916109fd565b9181191691161790565b610cdd610cd8610ce292610276565b610680565b610276565b90565b610cee90610cc9565b90565b610cfa90610ce5565b90565b90565b90610d15610d10610d1c92610cf1565b610cfd565b8254610cae565b9055565b610d2b906001610d00565b565b610d3690610c7f565b565b610d4f610d5491610d47610ac9565b50600361069f565b610b92565b90565b5f90565b60ff1690565b610d6d610d72916103ed565b610d5b565b90565b610d7f9054610d61565b90565b610d99610d9e91610d91610d57565b5060026109e7565b610d75565b9056fea264697066735822122056a2058597c5991d15acc77d4288377c9eb4176ce3f332a4f42d05f7430eda7f64736f6c634300081a0033","linkReferences":{}},"methodIdentifiers":{"getData(uint64)":"a127f188","getServiceManager()":"4dda0b43","getSignature(uint64)":"48958442","handleAddPayload(bytes,bytes)":"0073e1d7","isValidTriggerId(uint64)":"aa32d9f4","setServiceManager(address)":"9b41bf23"},"id":0}