{"abi":[{"type":"constructor","inputs":[],"stateMutability":"nonpayable"},{"type":"function","name":"allowance","inputs":[{"name":"owner","type":"address","internalType":"address"},{"name":"spender","type":"address","internalType":"address"}],"outputs":[{"name":"","type":"uint256","internalType":"uint256"}],"stateMutability":"view"},{"type":"function","name":"approve","inputs":[{"name":"","type":"address","internalType":"address"},{"name":"","type":"uint256","internalType":"uint256"}],"outputs":[{"name":"","type":"bool","internalType":"bool"}],"stateMutability":"nonpayable"},{"type":"function","name":"balanceOf","inputs":[{"name":"account","type":"address","internalType":"address"}],"outputs":[{"name":"","type":"uint256","internalType":"uint256"}],"stateMutability":"view"},{"type":"function","name":"decimals","inputs":[],"outputs":[{"name":"","type":"uint8","internalType":"uint8"}],"stateMutability":"pure"},{"type":"function","name":"mint","inputs":[{"name":"","type":"address","internalType":"address"},{"name":"amount","type":"uint256","internalType":"uint256"}],"outputs":[],"stateMutability":"nonpayable"},{"type":"function","name":"totalSupply","inputs":[],"outputs":[{"name":"","type":"uint256","internalType":"uint256"}],"stateMutability":"view"},{"type":"function","name":"transfer","inputs":[{"name":"to","type":"address","internalType":"address"},{"name":"amount","type":"uint256","internalType":"uint256"}],"outputs":[{"name":"","type":"bool","internalType":"bool"}],"stateMutability":"nonpayable"},{"type":"function","name":"transferFrom","inputs":[{"name":"from","type":"address","internalType":"address"},{"name":"to","type":"address","internalType":"address"},{"name":"amount","type":"uint256","internalType":"uint256"}],"outputs":[{"name":"","type":"bool","internalType":"bool"}],"stateMutability":"nonpayable"},{"type":"event","name":"Approval","inputs":[{"name":"owner","type":"address","indexed":true,"internalType":"address"},{"name":"spender","type":"address","indexed":true,"internalType":"address"},{"name":"value","type":"uint256","indexed":false,"internalType":"uint256"}],"anonymous":false},{"type":"event","name":"Transfer","inputs":[{"name":"from","type":"address","indexed":true,"internalType":"address"},{"name":"to","type":"address","indexed":true,"internalType":"address"},{"name":"value","type":"uint256","indexed":false,"internalType":"uint256"}],"anonymous":false}],"bytecode":{"object":"0x608060405234610027576100116100ca565b61001961002c565b610a3e6103718239610a3e90f35b610032565b60405190565b5f80fd5b5f1b90565b906100475f1991610036565b9181191691161790565b60018060581b031690565b90565b90565b61007661007161007b92610051565b61005f565b61005c565b90565b90565b9061009661009161009d92610062565b61007e565b825461003b565b9055565b5f1c90565b90565b6100b56100ba916100a1565b6100a6565b90565b6100c790546100a9565b90565b6100db60018060581b036003610081565b6100ef336100e960036100bd565b906102ad565b565b90565b60018060a01b031690565b61011361010e610118926100f1565b61005f565b6100f4565b90565b610124906100ff565b90565b610130906100f4565b90565b60209181520190565b5f7f45524332303a206d696e7420746f20746865207a65726f206164647265737300910152565b610170601f602092610133565b6101798161013c565b0190565b6101929060208101905f818303910152610163565b90565b1561019c57565b6101a461002c565b62461bcd60e51b8152806101ba6004820161017d565b0390fd5b634e487b7160e01b5f52601160045260245ffd5b6101e16101e79193929361005c565b9261005c565b82018092116101f257565b6101be565b61020b6102066102109261005c565b61005f565b61005c565b90565b9061022861022361022f926101f7565b61007e565b825461003b565b9055565b61024761024261024c926100f4565b61005f565b6100f4565b90565b61025890610233565b90565b6102649061024f565b90565b906102719061025b565b5f5260205260405f2090565b90610288910161005c565b90565b6102949061005c565b9052565b91906102ab905f6020850194019061028b565b565b906102d3826102cc6102c66102c15f61011b565b610127565b91610127565b1415610195565b6102f06102e9826102e460026100bd565b6101d2565b6002610213565b610317816103116103025f8690610267565b9161030c836100bd565b61027d565b90610213565b6103205f61011b565b91909161036b6103596103537fddf252ad1be2c89b69c2b068fc378daa952ba7f163c4a11628f55a4df523b3ef9361025b565b9361025b565b9361036261002c565b91829182610298565b0390a356fe60806040526004361015610013575b6103f2565b61001d5f3561009c565b8063095ea7b31461009757806318160ddd1461009257806323b872dd1461008d578063313ce5671461008857806340c10f191461008357806370a082311461007e578063a9059cbb146100795763dd62ed3e0361000e576103bc565b610359565b610324565b6102d2565b610298565b61023a565b6101cb565b610164565b60e01c90565b60405190565b5f80fd5b5f80fd5b60018060a01b031690565b6100c4906100b0565b90565b6100d0816100bb565b036100d757565b5f80fd5b905035906100e8826100c7565b565b90565b6100f6816100ea565b036100fd57565b5f80fd5b9050359061010e826100ed565b565b9190604083820312610138578061012c610135925f86016100db565b93602001610101565b90565b6100ac565b151590565b61014b9061013d565b9052565b9190610162905f60208501940190610142565b565b346101955761019161018061017a366004610110565b906103fa565b6101886100a2565b9182918261014f565b0390f35b6100a8565b5f9103126101a457565b6100ac565b6101b2906100ea565b9052565b91906101c9905f602085019401906101a9565b565b346101fb576101db36600461019a565b6101f76101e6610437565b6101ee6100a2565b918291826101b6565b0390f35b6100a8565b90916060828403126102355761023261021b845f85016100db565b9361022981602086016100db565b93604001610101565b90565b6100ac565b3461026b57610267610256610250366004610200565b9161044d565b61025e6100a2565b9182918261014f565b0390f35b6100a8565b60ff1690565b61027f90610270565b9052565b9190610296905f60208501940190610276565b565b346102c8576102a836600461019a565b6102c46102b361048e565b6102bb6100a2565b91829182610283565b0390f35b6100a8565b5f0190565b34610301576102eb6102e5366004610110565b906104a4565b6102f36100a2565b806102fd816102cd565b0390f35b6100a8565b9060208282031261031f5761031c915f016100db565b90565b6100ac565b346103545761035061033f61033a366004610306565b610502565b6103476100a2565b918291826101b6565b0390f35b6100a8565b3461038a5761038661037561036f366004610110565b90610520565b61037d6100a2565b9182918261014f565b0390f35b6100a8565b91906040838203126103b757806103ab6103b4925f86016100db565b936020016100db565b90565b6100ac565b346103ed576103e96103d86103d236600461038f565b90610558565b6103e06100a2565b918291826101b6565b0390f35b6100a8565b5f80fd5b5f90565b50506104046103f6565b50600190565b5f90565b5f1c90565b90565b6104226104279161040e565b610413565b90565b6104349054610416565b90565b61043f61040a565b5061044a600261042a565b90565b916104639261045a6103f6565b5091909161077a565b600190565b5f90565b90565b90565b61048661048161048b9261046c565b61046f565b610270565b90565b610496610468565b506104a16012610472565b90565b506104b6906104b161087d565b610945565b565b6104cc6104c76104d1926100b0565b61046f565b6100b0565b90565b6104dd906104b8565b90565b6104e9906104d4565b90565b906104f6906104e0565b5f5260205260405f2090565b61051861051d9161051161040a565b505f6104ec565b61042a565b90565b61053d9161052c6103f6565b5061053561087d565b91909161077a565b600190565b9061054c906104e0565b5f5260205260405f2090565b61057d916105736105789261056b61040a565b506001610542565b6104ec565b61042a565b90565b90565b61059761059261059c92610580565b61046f565b6100b0565b90565b6105a890610583565b90565b60209181520190565b60207f6472657373000000000000000000000000000000000000000000000000000000917f45524332303a207472616e736665722066726f6d20746865207a65726f2061645f8201520152565b61060e60256040926105ab565b610617816105b4565b0190565b6106309060208101905f818303910152610601565b90565b1561063a57565b6106426100a2565b62461bcd60e51b8152806106586004820161061b565b0390fd5b60207f6573730000000000000000000000000000000000000000000000000000000000917f45524332303a207472616e7366657220746f20746865207a65726f20616464725f8201520152565b6106b660236040926105ab565b6106bf8161065c565b0190565b6106d89060208101905f8183039101526106a9565b90565b156106e257565b6106ea6100a2565b62461bcd60e51b815280610700600482016106c3565b0390fd5b9061070f91036100ea565b90565b5f1b90565b906107235f1991610712565b9181191691161790565b61074161073c610746926100ea565b61046f565b6100ea565b90565b90565b9061076161075c6107689261072d565b610749565b8254610717565b9055565b9061077791016100ea565b90565b9190916107a28161079b6107956107905f61059f565b6100bb565b916100bb565b1415610633565b6107c7836107c06107ba6107b55f61059f565b6100bb565b916100bb565b14156106db565b6107d2818390610945565b6108026107f26107eb6107e65f85906104ec565b61042a565b8490610704565b6107fd5f84906104ec565b61074c565b610829826108236108145f87906104ec565b9161081e8361042a565b61076c565b9061074c565b91909161087461086261085c7fddf252ad1be2c89b69c2b068fc378daa952ba7f163c4a11628f55a4df523b3ef936104e0565b936104e0565b9361086b6100a2565b918291826101b6565b0390a3565b5f90565b610885610879565b503390565b5f7f45524332303a206d696e7420746f20746865207a65726f206164647265737300910152565b6108be601f6020926105ab565b6108c78161088a565b0190565b6108e09060208101905f8183039101526108b1565b90565b156108ea57565b6108f26100a2565b62461bcd60e51b815280610908600482016108cb565b0390fd5b634e487b7160e01b5f52601160045260245ffd5b61092f610935919392936100ea565b926100ea565b820180921161094057565b61090c565b9061096b8261096461095e6109595f61059f565b6100bb565b916100bb565b14156108e3565b6109886109818261097c600261042a565b610920565b600261074c565b6109af816109a961099a5f86906104ec565b916109a48361042a565b61076c565b9061074c565b6109b85f61059f565b919091610a036109f16109eb7fddf252ad1be2c89b69c2b068fc378daa952ba7f163c4a11628f55a4df523b3ef936104e0565b936104e0565b936109fa6100a2565b918291826101b6565b0390a356fea2646970667358221220b29e1ef8081e9050cdec89749a1affd304e73d5eb677f7452fbcc90b409bcc9564736f6c634300081a0033","linkReferences":{}},"methodIdentifiers":{"allowance(address,address)":"dd62ed3e","approve(address,uint256)":"095ea7b3","balanceOf(address)":"70a08231","decimals()":"313ce567","mint(address,uint256)":"40c10f19","totalSupply()":"18160ddd","transfer(address,uint256)":"a9059cbb","transferFrom(address,address,uint256)":"23b872dd"},"id":1}