{"abi":[{"type":"function","name":"DELEGATION_APPROVAL_TYPEHASH","inputs":[],"outputs":[{"name":"","type":"bytes32","internalType":"bytes32"}],"stateMutability":"view"},{"type":"function","name":"DOMAIN_TYPEHASH","inputs":[],"outputs":[{"name":"","type":"bytes32","internalType":"bytes32"}],"stateMutability":"view"},{"type":"function","name":"OPERATOR_AVS_REGISTRATION_TYPEHASH","inputs":[],"outputs":[{"name":"","type":"bytes32","internalType":"bytes32"}],"stateMutability":"view"},{"type":"function","name":"STAKER_DELEGATION_TYPEHASH","inputs":[],"outputs":[{"name":"","type":"bytes32","internalType":"bytes32"}],"stateMutability":"view"},{"type":"function","name":"addShares","inputs":[{"name":"strategyManager","type":"address","internalType":"contract IStrategyManager"},{"name":"staker","type":"address","internalType":"address"},{"name":"token","type":"address","internalType":"contract IERC20"},{"name":"strategy","type":"address","internalType":"contract IStrategy"},{"name":"shares","type":"uint256","internalType":"uint256"}],"outputs":[],"stateMutability":"nonpayable"},{"type":"function","name":"beaconChainETHStrategy","inputs":[],"outputs":[{"name":"","type":"address","internalType":"contract IStrategy"}],"stateMutability":"view"},{"type":"function","name":"calculateApproverDigestHash","inputs":[{"name":"","type":"address","internalType":"address"},{"name":"","type":"address","internalType":"address"},{"name":"","type":"uint256","internalType":"uint256"}],"outputs":[{"name":"approverDigestHash","type":"bytes32","internalType":"bytes32"}],"stateMutability":"pure"},{"type":"function","name":"calculateCurrentStakerDelegationDigestHash","inputs":[{"name":"","type":"address","internalType":"address"},{"name":"","type":"address","internalType":"address"},{"name":"","type":"uint256","internalType":"uint256"}],"outputs":[{"name":"","type":"bytes32","internalType":"bytes32"}],"stateMutability":"view"},{"type":"function","name":"calculateDelegationApprovalDigestHash","inputs":[{"name":"","type":"address","internalType":"address"},{"name":"","type":"address","internalType":"address"},{"name":"","type":"address","internalType":"address"},{"name":"","type":"bytes32","internalType":"bytes32"},{"name":"","type":"uint256","internalType":"uint256"}],"outputs":[{"name":"","type":"bytes32","internalType":"bytes32"}],"stateMutability":"view"},{"type":"function","name":"calculateOperatorAVSRegistrationDigestHash","inputs":[{"name":"","type":"address","internalType":"address"},{"name":"","type":"address","internalType":"address"},{"name":"","type":"bytes32","internalType":"bytes32"},{"name":"","type":"uint256","internalType":"uint256"}],"outputs":[{"name":"digestHash","type":"bytes32","internalType":"bytes32"}],"stateMutability":"pure"},{"type":"function","name":"calculateStakerDelegationDigestHash","inputs":[{"name":"","type":"address","internalType":"address"},{"name":"","type":"uint256","internalType":"uint256"},{"name":"","type":"address","internalType":"address"},{"name":"","type":"uint256","internalType":"uint256"}],"outputs":[{"name":"","type":"bytes32","internalType":"bytes32"}],"stateMutability":"view"},{"type":"function","name":"calculateStakerDigestHash","inputs":[{"name":"","type":"address","internalType":"address"},{"name":"","type":"address","internalType":"address"},{"name":"","type":"uint256","internalType":"uint256"}],"outputs":[{"name":"stakerDigestHash","type":"bytes32","internalType":"bytes32"}],"stateMutability":"pure"},{"type":"function","name":"calculateWithdrawalRoot","inputs":[{"name":"withdrawal","type":"tuple","internalType":"struct IDelegationManager.Withdrawal","components":[{"name":"staker","type":"address","internalType":"address"},{"name":"delegatedTo","type":"address","internalType":"address"},{"name":"withdrawer","type":"address","internalType":"address"},{"name":"nonce","type":"uint256","internalType":"uint256"},{"name":"startBlock","type":"uint32","internalType":"uint32"},{"name":"strategies","type":"address[]","internalType":"contract IStrategy[]"},{"name":"shares","type":"uint256[]","internalType":"uint256[]"}]}],"outputs":[{"name":"","type":"bytes32","internalType":"bytes32"}],"stateMutability":"pure"},{"type":"function","name":"completeQueuedWithdrawal","inputs":[{"name":"withdrawal","type":"tuple","internalType":"struct IDelegationManager.Withdrawal","components":[{"name":"staker","type":"address","internalType":"address"},{"name":"delegatedTo","type":"address","internalType":"address"},{"name":"withdrawer","type":"address","internalType":"address"},{"name":"nonce","type":"uint256","internalType":"uint256"},{"name":"startBlock","type":"uint32","internalType":"uint32"},{"name":"strategies","type":"address[]","internalType":"contract IStrategy[]"},{"name":"shares","type":"uint256[]","internalType":"uint256[]"}]},{"name":"tokens","type":"address[]","internalType":"contract IERC20[]"},{"name":"middlewareTimesIndex","type":"uint256","internalType":"uint256"},{"name":"receiveAsTokens","type":"bool","internalType":"bool"}],"outputs":[],"stateMutability":"nonpayable"},{"type":"function","name":"completeQueuedWithdrawals","inputs":[{"name":"withdrawals","type":"tuple[]","internalType":"struct IDelegationManager.Withdrawal[]","components":[{"name":"staker","type":"address","internalType":"address"},{"name":"delegatedTo","type":"address","internalType":"address"},{"name":"withdrawer","type":"address","internalType":"address"},{"name":"nonce","type":"uint256","internalType":"uint256"},{"name":"startBlock","type":"uint32","internalType":"uint32"},{"name":"strategies","type":"address[]","internalType":"contract IStrategy[]"},{"name":"shares","type":"uint256[]","internalType":"uint256[]"}]},{"name":"tokens","type":"address[][]","internalType":"contract IERC20[][]"},{"name":"middlewareTimesIndexes","type":"uint256[]","internalType":"uint256[]"},{"name":"receiveAsTokens","type":"bool[]","internalType":"bool[]"}],"outputs":[],"stateMutability":"nonpayable"},{"type":"function","name":"cumulativeWithdrawalsQueued","inputs":[{"name":"staker","type":"address","internalType":"address"}],"outputs":[{"name":"","type":"uint256","internalType":"uint256"}],"stateMutability":"view"},{"type":"function","name":"decreaseDelegatedShares","inputs":[{"name":"","type":"address","internalType":"address"},{"name":"","type":"address","internalType":"contract IStrategy"},{"name":"","type":"uint256","internalType":"uint256"}],"outputs":[],"stateMutability":"pure"},{"type":"function","name":"delegateTo","inputs":[{"name":"operator","type":"address","internalType":"address"},{"name":"","type":"tuple","internalType":"struct ISignatureUtils.SignatureWithExpiry","components":[{"name":"signature","type":"bytes","internalType":"bytes"},{"name":"expiry","type":"uint256","internalType":"uint256"}]},{"name":"","type":"bytes32","internalType":"bytes32"}],"outputs":[],"stateMutability":"nonpayable"},{"type":"function","name":"delegateToBySignature","inputs":[{"name":"","type":"address","internalType":"address"},{"name":"","type":"address","internalType":"address"},{"name":"","type":"tuple","internalType":"struct ISignatureUtils.SignatureWithExpiry","components":[{"name":"signature","type":"bytes","internalType":"bytes"},{"name":"expiry","type":"uint256","internalType":"uint256"}]},{"name":"","type":"tuple","internalType":"struct ISignatureUtils.SignatureWithExpiry","components":[{"name":"signature","type":"bytes","internalType":"bytes"},{"name":"expiry","type":"uint256","internalType":"uint256"}]},{"name":"","type":"bytes32","internalType":"bytes32"}],"outputs":[],"stateMutability":"pure"},{"type":"function","name":"delegatedTo","inputs":[{"name":"","type":"address","internalType":"address"}],"outputs":[{"name":"","type":"address","internalType":"address"}],"stateMutability":"view"},{"type":"function","name":"delegationApprover","inputs":[{"name":"operator","type":"address","internalType":"address"}],"outputs":[{"name":"","type":"address","internalType":"address"}],"stateMutability":"pure"},{"type":"function","name":"delegationApproverSaltIsSpent","inputs":[{"name":"","type":"address","internalType":"address"},{"name":"","type":"bytes32","internalType":"bytes32"}],"outputs":[{"name":"","type":"bool","internalType":"bool"}],"stateMutability":"pure"},{"type":"function","name":"deregisterOperatorFromAVS","inputs":[{"name":"operator","type":"address","internalType":"address"}],"outputs":[],"stateMutability":"nonpayable"},{"type":"function","name":"domainSeparator","inputs":[],"outputs":[{"name":"","type":"bytes32","internalType":"bytes32"}],"stateMutability":"view"},{"type":"function","name":"getDelegatableShares","inputs":[{"name":"staker","type":"address","internalType":"address"}],"outputs":[{"name":"","type":"address[]","internalType":"contract IStrategy[]"},{"name":"","type":"uint256[]","internalType":"uint256[]"}],"stateMutability":"view"},{"type":"function","name":"getOperatorShares","inputs":[{"name":"operator","type":"address","internalType":"address"},{"name":"strategies","type":"address[]","internalType":"contract IStrategy[]"}],"outputs":[{"name":"","type":"uint256[]","internalType":"uint256[]"}],"stateMutability":"view"},{"type":"function","name":"getWithdrawalDelay","inputs":[{"name":"","type":"address[]","internalType":"contract IStrategy[]"}],"outputs":[{"name":"","type":"uint256","internalType":"uint256"}],"stateMutability":"pure"},{"type":"function","name":"increaseDelegatedShares","inputs":[{"name":"","type":"address","internalType":"address"},{"name":"","type":"address","internalType":"contract IStrategy"},{"name":"","type":"uint256","internalType":"uint256"}],"outputs":[],"stateMutability":"pure"},{"type":"function","name":"isDelegated","inputs":[{"name":"staker","type":"address","internalType":"address"}],"outputs":[{"name":"","type":"bool","internalType":"bool"}],"stateMutability":"view"},{"type":"function","name":"isNotDelegated","inputs":[{"name":"","type":"address","internalType":"address"}],"outputs":[{"name":"","type":"bool","internalType":"bool"}],"stateMutability":"pure"},{"type":"function","name":"isOperator","inputs":[{"name":"","type":"address","internalType":"address"}],"outputs":[{"name":"","type":"bool","internalType":"bool"}],"stateMutability":"view"},{"type":"function","name":"minWithdrawalDelayBlocks","inputs":[],"outputs":[{"name":"","type":"uint256","internalType":"uint256"}],"stateMutability":"pure"},{"type":"function","name":"modifyOperatorDetails","inputs":[{"name":"","type":"tuple","internalType":"struct IDelegationManager.OperatorDetails","components":[{"name":"__deprecated_earningsReceiver","type":"address","internalType":"address"},{"name":"delegationApprover","type":"address","internalType":"address"},{"name":"stakerOptOutWindowBlocks","type":"uint32","internalType":"uint32"}]}],"outputs":[],"stateMutability":"pure"},{"type":"function","name":"operatorDetails","inputs":[{"name":"operator","type":"address","internalType":"address"}],"outputs":[{"name":"","type":"tuple","internalType":"struct IDelegationManager.OperatorDetails","components":[{"name":"__deprecated_earningsReceiver","type":"address","internalType":"address"},{"name":"delegationApprover","type":"address","internalType":"address"},{"name":"stakerOptOutWindowBlocks","type":"uint32","internalType":"uint32"}]}],"stateMutability":"pure"},{"type":"function","name":"operatorSaltIsSpent","inputs":[{"name":"avs","type":"address","internalType":"address"},{"name":"salt","type":"bytes32","internalType":"bytes32"}],"outputs":[{"name":"","type":"bool","internalType":"bool"}],"stateMutability":"view"},{"type":"function","name":"operatorShares","inputs":[{"name":"","type":"address","internalType":"address"},{"name":"","type":"address","internalType":"contract IStrategy"}],"outputs":[{"name":"","type":"uint256","internalType":"uint256"}],"stateMutability":"view"},{"type":"function","name":"queueWithdrawals","inputs":[{"name":"queuedWithdrawalParams","type":"tuple[]","internalType":"struct IDelegationManager.QueuedWithdrawalParams[]","components":[{"name":"strategies","type":"address[]","internalType":"contract IStrategy[]"},{"name":"shares","type":"uint256[]","internalType":"uint256[]"},{"name":"withdrawer","type":"address","internalType":"address"}]}],"outputs":[{"name":"","type":"bytes32[]","internalType":"bytes32[]"}],"stateMutability":"nonpayable"},{"type":"function","name":"registerAsOperator","inputs":[{"name":"","type":"tuple","internalType":"struct IDelegationManager.OperatorDetails","components":[{"name":"__deprecated_earningsReceiver","type":"address","internalType":"address"},{"name":"delegationApprover","type":"address","internalType":"address"},{"name":"stakerOptOutWindowBlocks","type":"uint32","internalType":"uint32"}]},{"name":"","type":"string","internalType":"string"}],"outputs":[],"stateMutability":"pure"},{"type":"function","name":"registerOperatorToAVS","inputs":[{"name":"operator","type":"address","internalType":"address"},{"name":"operatorSignature","type":"tuple","internalType":"struct ISignatureUtils.SignatureWithSaltAndExpiry","components":[{"name":"signature","type":"bytes","internalType":"bytes"},{"name":"salt","type":"bytes32","internalType":"bytes32"},{"name":"expiry","type":"uint256","internalType":"uint256"}]}],"outputs":[],"stateMutability":"nonpayable"},{"type":"function","name":"removeShares","inputs":[{"name":"strategyManager","type":"address","internalType":"contract IStrategyManager"},{"name":"staker","type":"address","internalType":"address"},{"name":"strategy","type":"address","internalType":"contract IStrategy"},{"name":"shares","type":"uint256","internalType":"uint256"}],"outputs":[],"stateMutability":"nonpayable"},{"type":"function","name":"setIsOperator","inputs":[{"name":"operator","type":"address","internalType":"address"},{"name":"_isOperatorReturnValue","type":"bool","internalType":"bool"}],"outputs":[],"stateMutability":"nonpayable"},{"type":"function","name":"setMinWithdrawalDelayBlocks","inputs":[{"name":"newMinWithdrawalDelayBlocks","type":"uint256","internalType":"uint256"}],"outputs":[],"stateMutability":"nonpayable"},{"type":"function","name":"setOperatorShares","inputs":[{"name":"operator","type":"address","internalType":"address"},{"name":"strategy","type":"address","internalType":"contract IStrategy"},{"name":"shares","type":"uint256","internalType":"uint256"}],"outputs":[],"stateMutability":"nonpayable"},{"type":"function","name":"setStrategyWithdrawalDelayBlocks","inputs":[{"name":"strategies","type":"address[]","internalType":"contract IStrategy[]"},{"name":"withdrawalDelayBlocks","type":"uint256[]","internalType":"uint256[]"}],"outputs":[],"stateMutability":"nonpayable"},{"type":"function","name":"stakerNonce","inputs":[{"name":"","type":"address","internalType":"address"}],"outputs":[{"name":"","type":"uint256","internalType":"uint256"}],"stateMutability":"pure"},{"type":"function","name":"stakerOptOutWindowBlocks","inputs":[{"name":"","type":"address","internalType":"address"}],"outputs":[{"name":"","type":"uint256","internalType":"uint256"}],"stateMutability":"pure"},{"type":"function","name":"strategyWithdrawalDelayBlocks","inputs":[{"name":"","type":"address","internalType":"contract IStrategy"}],"outputs":[{"name":"","type":"uint256","internalType":"uint256"}],"stateMutability":"pure"},{"type":"function","name":"undelegate","inputs":[{"name":"staker","type":"address","internalType":"address"}],"outputs":[{"name":"withdrawalRoot","type":"bytes32[]","internalType":"bytes32[]"}],"stateMutability":"nonpayable"},{"type":"function","name":"updateAVSMetadataURI","inputs":[{"name":"","type":"string","internalType":"string"}],"outputs":[],"stateMutability":"pure"},{"type":"function","name":"updateOperatorMetadataURI","inputs":[{"name":"","type":"string","internalType":"string"}],"outputs":[],"stateMutability":"pure"},{"type":"function","name":"withdrawSharesAsTokens","inputs":[{"name":"strategyManager","type":"address","internalType":"contract IStrategyManager"},{"name":"recipient","type":"address","internalType":"address"},{"name":"strategy","type":"address","internalType":"contract IStrategy"},{"name":"shares","type":"uint256","internalType":"uint256"},{"name":"token","type":"address","internalType":"contract IERC20"}],"outputs":[],"stateMutability":"nonpayable"},{"type":"event","name":"MinWithdrawalDelayBlocksSet","inputs":[{"name":"previousValue","type":"uint256","indexed":false,"internalType":"uint256"},{"name":"newValue","type":"uint256","indexed":false,"internalType":"uint256"}],"anonymous":false},{"type":"event","name":"OperatorDetailsModified","inputs":[{"name":"operator","type":"address","indexed":true,"internalType":"address"},{"name":"newOperatorDetails","type":"tuple","indexed":false,"internalType":"struct IDelegationManager.OperatorDetails","components":[{"name":"__deprecated_earningsReceiver","type":"address","internalType":"address"},{"name":"delegationApprover","type":"address","internalType":"address"},{"name":"stakerOptOutWindowBlocks","type":"uint32","internalType":"uint32"}]}],"anonymous":false},{"type":"event","name":"OperatorMetadataURIUpdated","inputs":[{"name":"operator","type":"address","indexed":true,"internalType":"address"},{"name":"metadataURI","type":"string","indexed":false,"internalType":"string"}],"anonymous":false},{"type":"event","name":"OperatorRegistered","inputs":[{"name":"operator","type":"address","indexed":true,"internalType":"address"},{"name":"operatorDetails","type":"tuple","indexed":false,"internalType":"struct IDelegationManager.OperatorDetails","components":[{"name":"__deprecated_earningsReceiver","type":"address","internalType":"address"},{"name":"delegationApprover","type":"address","internalType":"address"},{"name":"stakerOptOutWindowBlocks","type":"uint32","internalType":"uint32"}]}],"anonymous":false},{"type":"event","name":"OperatorSharesDecreased","inputs":[{"name":"operator","type":"address","indexed":true,"internalType":"address"},{"name":"staker","type":"address","indexed":false,"internalType":"address"},{"name":"strategy","type":"address","indexed":false,"internalType":"contract IStrategy"},{"name":"shares","type":"uint256","indexed":false,"internalType":"uint256"}],"anonymous":false},{"type":"event","name":"OperatorSharesIncreased","inputs":[{"name":"operator","type":"address","indexed":true,"internalType":"address"},{"name":"staker","type":"address","indexed":false,"internalType":"address"},{"name":"strategy","type":"address","indexed":false,"internalType":"contract IStrategy"},{"name":"shares","type":"uint256","indexed":false,"internalType":"uint256"}],"anonymous":false},{"type":"event","name":"StakerDelegated","inputs":[{"name":"staker","type":"address","indexed":true,"internalType":"address"},{"name":"operator","type":"address","indexed":true,"internalType":"address"}],"anonymous":false},{"type":"event","name":"StakerForceUndelegated","inputs":[{"name":"staker","type":"address","indexed":true,"internalType":"address"},{"name":"operator","type":"address","indexed":true,"internalType":"address"}],"anonymous":false},{"type":"event","name":"StakerUndelegated","inputs":[{"name":"staker","type":"address","indexed":true,"internalType":"address"},{"name":"operator","type":"address","indexed":true,"internalType":"address"}],"anonymous":false},{"type":"event","name":"StrategyWithdrawalDelayBlocksSet","inputs":[{"name":"strategy","type":"address","indexed":false,"internalType":"contract IStrategy"},{"name":"previousValue","type":"uint256","indexed":false,"internalType":"uint256"},{"name":"newValue","type":"uint256","indexed":false,"internalType":"uint256"}],"anonymous":false},{"type":"event","name":"WithdrawalCompleted","inputs":[{"name":"withdrawalRoot","type":"bytes32","indexed":false,"internalType":"bytes32"}],"anonymous":false},{"type":"event","name":"WithdrawalQueued","inputs":[{"name":"withdrawalRoot","type":"bytes32","indexed":false,"internalType":"bytes32"},{"name":"withdrawal","type":"tuple","indexed":false,"internalType":"struct IDelegationManager.Withdrawal","components":[{"name":"staker","type":"address","internalType":"address"},{"name":"delegatedTo","type":"address","internalType":"address"},{"name":"withdrawer","type":"address","internalType":"address"},{"name":"nonce","type":"uint256","internalType":"uint256"},{"name":"startBlock","type":"uint32","internalType":"uint32"},{"name":"strategies","type":"address[]","internalType":"contract IStrategy[]"},{"name":"shares","type":"uint256[]","internalType":"uint256[]"}]}],"anonymous":false}],"bytecode":{"object":"0x608060405234801561001057600080fd5b5061167f806100206000396000f3fe608060405234801561001057600080fd5b50600436106102f15760003560e01c8063778e55f31161019d578063bc56ff66116100e9578063cf80873e116100a2578063dbe35bd81161007c578063dbe35bd8146106f2578063eea9064b1461072c578063f16172b01461076b578063f698da251461032057600080fd5b8063cf80873e14610696578063d79aceab14610320578063da8be864146106ba57600080fd5b8063bc56ff66146105b4578063c448feb814610320578063c488375a1461039a578063c5e480db146105c7578063c94b51111461064f578063cbb5d4db1461065d57600080fd5b80639926ee7d11610156578063a178848411610130578063a17884841461039a578063a364f4da146105a6578063a98fb35514610580578063bb45fef2146103fb57600080fd5b80639926ee7d1461056e57806399be81c814610580578063a1060c881461058e57600080fd5b8063778e55f3146104fb5780637f548071146105265780638d90cd561461053457806390041347146105475780639104c3191461056757806396568271146103ae57600080fd5b806329c77d4f1161025c578063597b36da1161021557806365da1264116101ef57806365da12641461049c57806367f292c7146104c55780636d70f7ae146104d857806374d898d7146103ae57600080fd5b8063597b36da1461046857806360d7faed14610476578063635bbd101461048b57600080fd5b806329c77d4f1461039a57806333404396146103e3578063374823b5146103fb5780633cdeb5e0146104115780633e28391d1461043a578063433773821461032057600080fd5b80631522bf02116102ae5780631522bf0214610386578063169283651461039a5780631bbce091146103ae5780631d3696b7146103c557806320606b701461032057806328a573ae1461037857600080fd5b80630449ca39146102f657806304a4f979146103205780630b9f487a146103275780630dd8dd02146103405780630f589e5914610363578063132d496714610378575b600080fd5b61030d6103043660046109cd565b60001992915050565b6040519081526020015b60405180910390f35b600061030d565b61030d610335366004610a33565b600095945050505050565b61035661034e3660046109cd565b606092915050565b6040516103179190610a8e565b610376610371366004610b2b565b505050565b005b610376610371366004610b7e565b610376610394366004610bbf565b50505050565b61030d6103a8366004610c2a565b50600090565b61030d6103bc366004610b7e565b60009392505050565b6103d36103a8366004610c2a565b6040519015158152602001610317565b6103766103f1366004610c4e565b5050505050505050565b6103d3610409366004610d11565b600092915050565b61042261041f366004610c2a565b90565b6040516001600160a01b039091168152602001610317565b6103d3610448366004610c2a565b6001600160a01b0390811660009081526002602052604090205416151590565b61030d6103a8366004610eb1565b610376610484366004610f9f565b5050505050565b61037661049936600461102a565b50565b6104226104aa366004610c2a565b6002602052600090815260409020546001600160a01b031681565b6103766104d3366004611043565b610779565b6103d36104e6366004610c2a565b60006020819052908152604090205460ff1681565b61030d6105093660046110ab565b600160209081526000928352604080842090915290825290205481565b6103766104843660046111c1565b610376610542366004611251565b6107f3565b61055a6105553660046112a2565b610859565b604051610317919061132c565b6000610422565b61037661057c36600461133f565b5050565b61037661057c3660046113ea565b61030d61059c36600461141f565b6000949350505050565b610376610499366004610c2a565b6103766105c2366004611465565b61093d565b6106196105d5366004610c2a565b604080516060810182526000808252602082018190529181019190915250604080516060810182526001600160a01b03909216808352602083015260009082015290565b6040805182516001600160a01b039081168252602080850151909116908201529181015163ffffffff1690820152606001610317565b61030d61059c3660046114c9565b61037661066b366004611501565b6001600160a01b03919091166000908152602081905260409020805460ff1916911515919091179055565b6106ac6106a4366004610c2a565b606080915091565b604051610317929190611536565b6103566106c8366004610c2a565b6001600160a01b0316600090815260026020526040902080546001600160a01b0319169055606090565b610376610700366004610b7e565b6001600160a01b0392831660009081526001602090815260408083209490951682529290925291902055565b61037661073a366004611596565b505033600090815260026020526040902080546001600160a01b0319166001600160a01b0392909216919091179055565b6103766104993660046115ee565b60405163c608c7f360e01b81526001600160a01b038581166004830152848116602483015260448201849052828116606483015286169063c608c7f3906084015b600060405180830381600087803b1580156107d457600080fd5b505af11580156107e8573d6000803e3d6000fd5b505050505050505050565b604051638c80d4e560e01b81526001600160a01b038481166004830152838116602483015260448201839052851690638c80d4e590606401600060405180830381600087803b15801561084557600080fd5b505af11580156103f1573d6000803e3d6000fd5b6060600082516001600160401b0381111561087657610876610d3d565b60405190808252806020026020018201604052801561089f578160200160208202803683370190505b50905060005b8351811015610935576001600160a01b038516600090815260016020526040812085519091908690849081106108dd576108dd61160a565b60200260200101516001600160a01b03166001600160a01b03168152602001908152602001600020548282815181106109185761091861160a565b60209081029190910101528061092d81611620565b9150506108a5565b509392505050565b60405163c4623ea160e01b81526001600160a01b038581166004830152848116602483015283811660448301526064820183905286169063c4623ea1906084016107ba565b60008083601f84011261099457600080fd5b5081356001600160401b038111156109ab57600080fd5b6020830191508360208260051b85010111156109c657600080fd5b9250929050565b600080602083850312156109e057600080fd5b82356001600160401b038111156109f657600080fd5b610a0285828601610982565b90969095509350505050565b6001600160a01b038116811461049957600080fd5b8035610a2e81610a0e565b919050565b600080600080600060a08688031215610a4b57600080fd5b8535610a5681610a0e565b94506020860135610a6681610a0e565b93506040860135610a7681610a0e565b94979396509394606081013594506080013592915050565b6020808252825182820181905260009190848201906040850190845b81811015610ac657835183529284019291840191600101610aaa565b50909695505050505050565b600060608284031215610ae457600080fd5b50919050565b60008083601f840112610afc57600080fd5b5081356001600160401b03811115610b1357600080fd5b6020830191508360208285010111156109c657600080fd5b600080600060808486031215610b4057600080fd5b610b4a8585610ad2565b925060608401356001600160401b03811115610b6557600080fd5b610b7186828701610aea565b9497909650939450505050565b600080600060608486031215610b9357600080fd5b8335610b9e81610a0e565b92506020840135610bae81610a0e565b929592945050506040919091013590565b60008060008060408587031215610bd557600080fd5b84356001600160401b0380821115610bec57600080fd5b610bf888838901610982565b90965094506020870135915080821115610c1157600080fd5b50610c1e87828801610982565b95989497509550505050565b600060208284031215610c3c57600080fd5b8135610c4781610a0e565b9392505050565b6000806000806000806000806080898b031215610c6a57600080fd5b88356001600160401b0380821115610c8157600080fd5b610c8d8c838d01610982565b909a50985060208b0135915080821115610ca657600080fd5b610cb28c838d01610982565b909850965060408b0135915080821115610ccb57600080fd5b610cd78c838d01610982565b909650945060608b0135915080821115610cf057600080fd5b50610cfd8b828c01610982565b999c989b5096995094979396929594505050565b60008060408385031215610d2457600080fd5b8235610d2f81610a0e565b946020939093013593505050565b634e487b7160e01b600052604160045260246000fd5b60405160e081016001600160401b0381118282101715610d7557610d75610d3d565b60405290565b604051601f8201601f191681016001600160401b0381118282101715610da357610da3610d3d565b604052919050565b803563ffffffff81168114610a2e57600080fd5b60006001600160401b03821115610dd857610dd8610d3d565b5060051b60200190565b600082601f830112610df357600080fd5b81356020610e08610e0383610dbf565b610d7b565b82815260059290921b84018101918181019086841115610e2757600080fd5b8286015b84811015610e4b578035610e3e81610a0e565b8352918301918301610e2b565b509695505050505050565b600082601f830112610e6757600080fd5b81356020610e77610e0383610dbf565b82815260059290921b84018101918181019086841115610e9657600080fd5b8286015b84811015610e4b5780358352918301918301610e9a565b600060208284031215610ec357600080fd5b81356001600160401b0380821115610eda57600080fd5b9083019060e08286031215610eee57600080fd5b610ef6610d53565b610eff83610a23565b8152610f0d60208401610a23565b6020820152610f1e60408401610a23565b604082015260608301356060820152610f3960808401610dab565b608082015260a083013582811115610f5057600080fd5b610f5c87828601610de2565b60a08301525060c083013582811115610f7457600080fd5b610f8087828601610e56565b60c08301525095945050505050565b80358015158114610a2e57600080fd5b600080600080600060808688031215610fb757600080fd5b85356001600160401b0380821115610fce57600080fd5b9087019060e0828a031215610fe257600080fd5b90955060208701359080821115610ff857600080fd5b5061100588828901610982565b9095509350506040860135915061101e60608701610f8f565b90509295509295909350565b60006020828403121561103c57600080fd5b5035919050565b600080600080600060a0868803121561105b57600080fd5b853561106681610a0e565b9450602086013561107681610a0e565b9350604086013561108681610a0e565b925060608601359150608086013561109d81610a0e565b809150509295509295909350565b600080604083850312156110be57600080fd5b82356110c981610a0e565b915060208301356110d981610a0e565b809150509250929050565b600082601f8301126110f557600080fd5b81356001600160401b0381111561110e5761110e610d3d565b611121601f8201601f1916602001610d7b565b81815284602083860101111561113657600080fd5b816020850160208301376000918101602001919091529392505050565b60006040828403121561116557600080fd5b604051604081016001600160401b03828210818311171561118857611188610d3d565b8160405282935084359150808211156111a057600080fd5b506111ad858286016110e4565b825250602083013560208201525092915050565b600080600080600060a086880312156111d957600080fd5b85356111e481610a0e565b945060208601356111f481610a0e565b935060408601356001600160401b038082111561121057600080fd5b61121c89838a01611153565b9450606088013591508082111561123257600080fd5b5061123f88828901611153565b95989497509295608001359392505050565b6000806000806080858703121561126757600080fd5b843561127281610a0e565b9350602085013561128281610a0e565b9250604085013561129281610a0e565b9396929550929360600135925050565b600080604083850312156112b557600080fd5b82356112c081610a0e565b915060208301356001600160401b038111156112db57600080fd5b6112e785828601610de2565b9150509250929050565b600081518084526020808501945080840160005b8381101561132157815187529582019590820190600101611305565b509495945050505050565b602081526000610c4760208301846112f1565b6000806040838503121561135257600080fd5b823561135d81610a0e565b915060208301356001600160401b038082111561137957600080fd5b908401906060828703121561138d57600080fd5b6040516060810181811083821117156113a8576113a8610d3d565b6040528235828111156113ba57600080fd5b6113c6888286016110e4565b82525060208301356020820152604083013560408201528093505050509250929050565b600080602083850312156113fd57600080fd5b82356001600160401b0381111561141357600080fd5b610a0285828601610aea565b6000806000806080858703121561143557600080fd5b843561144081610a0e565b9350602085013561145081610a0e565b93969395505050506040820135916060013590565b600080600080600060a0868803121561147d57600080fd5b853561148881610a0e565b9450602086013561149881610a0e565b935060408601356114a881610a0e565b925060608601356114b881610a0e565b949793965091946080013592915050565b600080600080608085870312156114df57600080fd5b84356114ea81610a0e565b935060208501359250604085013561129281610a0e565b6000806040838503121561151457600080fd5b823561151f81610a0e565b915061152d60208401610f8f565b90509250929050565b604080825283519082018190526000906020906060840190828701845b828110156115785781516001600160a01b031684529284019290840190600101611553565b5050508381038285015261158c81866112f1565b9695505050505050565b6000806000606084860312156115ab57600080fd5b83356115b681610a0e565b925060208401356001600160401b038111156115d157600080fd5b6115dd86828701611153565b925050604084013590509250925092565b60006060828403121561160057600080fd5b610c478383610ad2565b634e487b7160e01b600052603260045260246000fd5b600060001982141561164257634e487b7160e01b600052601160045260246000fd5b506001019056fea2646970667358221220ccd4b1d61d92478b2c3b84bbad56306bedaa644884133a9bc09be1593d7bb2db64736f6c634300080c0033","linkReferences":{}},"methodIdentifiers":{"DELEGATION_APPROVAL_TYPEHASH()":"04a4f979","DOMAIN_TYPEHASH()":"20606b70","OPERATOR_AVS_REGISTRATION_TYPEHASH()":"d79aceab","STAKER_DELEGATION_TYPEHASH()":"43377382","addShares(address,address,address,address,uint256)":"bc56ff66","beaconChainETHStrategy()":"9104c319","calculateApproverDigestHash(address,address,uint256)":"74d898d7","calculateCurrentStakerDelegationDigestHash(address,address,uint256)":"1bbce091","calculateDelegationApprovalDigestHash(address,address,address,bytes32,uint256)":"0b9f487a","calculateOperatorAVSRegistrationDigestHash(address,address,bytes32,uint256)":"a1060c88","calculateStakerDelegationDigestHash(address,uint256,address,uint256)":"c94b5111","calculateStakerDigestHash(address,address,uint256)":"96568271","calculateWithdrawalRoot((address,address,address,uint256,uint32,address[],uint256[]))":"597b36da","completeQueuedWithdrawal((address,address,address,uint256,uint32,address[],uint256[]),address[],uint256,bool)":"60d7faed","completeQueuedWithdrawals((address,address,address,uint256,uint32,address[],uint256[])[],address[][],uint256[],bool[])":"33404396","cumulativeWithdrawalsQueued(address)":"a1788484","decreaseDelegatedShares(address,address,uint256)":"132d4967","delegateTo(address,(bytes,uint256),bytes32)":"eea9064b","delegateToBySignature(address,address,(bytes,uint256),(bytes,uint256),bytes32)":"7f548071","delegatedTo(address)":"65da1264","delegationApprover(address)":"3cdeb5e0","delegationApproverSaltIsSpent(address,bytes32)":"bb45fef2","deregisterOperatorFromAVS(address)":"a364f4da","domainSeparator()":"f698da25","getDelegatableShares(address)":"cf80873e","getOperatorShares(address,address[])":"90041347","getWithdrawalDelay(address[])":"0449ca39","increaseDelegatedShares(address,address,uint256)":"28a573ae","isDelegated(address)":"3e28391d","isNotDelegated(address)":"1d3696b7","isOperator(address)":"6d70f7ae","minWithdrawalDelayBlocks()":"c448feb8","modifyOperatorDetails((address,address,uint32))":"f16172b0","operatorDetails(address)":"c5e480db","operatorSaltIsSpent(address,bytes32)":"374823b5","operatorShares(address,address)":"778e55f3","queueWithdrawals((address[],uint256[],address)[])":"0dd8dd02","registerAsOperator((address,address,uint32),string)":"0f589e59","registerOperatorToAVS(address,(bytes,bytes32,uint256))":"9926ee7d","removeShares(address,address,address,uint256)":"8d90cd56","setIsOperator(address,bool)":"cbb5d4db","setMinWithdrawalDelayBlocks(uint256)":"635bbd10","setOperatorShares(address,address,uint256)":"dbe35bd8","setStrategyWithdrawalDelayBlocks(address[],uint256[])":"1522bf02","stakerNonce(address)":"29c77d4f","stakerOptOutWindowBlocks(address)":"16928365","strategyWithdrawalDelayBlocks(address)":"c488375a","undelegate(address)":"da8be864","updateAVSMetadataURI(string)":"a98fb355","updateOperatorMetadataURI(string)":"99be81c8","withdrawSharesAsTokens(address,address,address,uint256,address)":"67f292c7"},"id":158}