{"abi":[{"type":"constructor","inputs":[{"name":"_avsDirectory","type":"address","internalType":"address"},{"name":"_stakeRegistry","type":"address","internalType":"address"},{"name":"_rewardsCoordinator","type":"address","internalType":"address"},{"name":"_delegationManager","type":"address","internalType":"address"},{"name":"_serviceHandler","type":"address","internalType":"address"}],"stateMutability":"nonpayable"},{"type":"function","name":"avsDirectory","inputs":[],"outputs":[{"name":"","type":"address","internalType":"address"}],"stateMutability":"view"},{"type":"function","name":"createAVSRewardsSubmission","inputs":[{"name":"rewardsSubmissions","type":"tuple[]","internalType":"struct IRewardsCoordinator.RewardsSubmission[]","components":[{"name":"strategiesAndMultipliers","type":"tuple[]","internalType":"struct IRewardsCoordinator.StrategyAndMultiplier[]","components":[{"name":"strategy","type":"address","internalType":"contract IStrategy"},{"name":"multiplier","type":"uint96","internalType":"uint96"}]},{"name":"token","type":"address","internalType":"contract IERC20"},{"name":"amount","type":"uint256","internalType":"uint256"},{"name":"startTimestamp","type":"uint32","internalType":"uint32"},{"name":"duration","type":"uint32","internalType":"uint32"}]}],"outputs":[],"stateMutability":"nonpayable"},{"type":"function","name":"createOperatorDirectedAVSRewardsSubmission","inputs":[{"name":"operatorDirectedRewardsSubmissions","type":"tuple[]","internalType":"struct IRewardsCoordinator.OperatorDirectedRewardsSubmission[]","components":[{"name":"strategiesAndMultipliers","type":"tuple[]","internalType":"struct IRewardsCoordinator.StrategyAndMultiplier[]","components":[{"name":"strategy","type":"address","internalType":"contract IStrategy"},{"name":"multiplier","type":"uint96","internalType":"uint96"}]},{"name":"token","type":"address","internalType":"contract IERC20"},{"name":"operatorRewards","type":"tuple[]","internalType":"struct IRewardsCoordinator.OperatorReward[]","components":[{"name":"operator","type":"address","internalType":"address"},{"name":"amount","type":"uint256","internalType":"uint256"}]},{"name":"startTimestamp","type":"uint32","internalType":"uint32"},{"name":"duration","type":"uint32","internalType":"uint32"},{"name":"description","type":"string","internalType":"string"}]}],"outputs":[],"stateMutability":"nonpayable"},{"type":"function","name":"deregisterOperatorFromAVS","inputs":[{"name":"operator","type":"address","internalType":"address"}],"outputs":[],"stateMutability":"nonpayable"},{"type":"function","name":"getOperatorRestakedStrategies","inputs":[{"name":"_operator","type":"address","internalType":"address"}],"outputs":[{"name":"","type":"address[]","internalType":"address[]"}],"stateMutability":"view"},{"type":"function","name":"getRestakeableStrategies","inputs":[],"outputs":[{"name":"","type":"address[]","internalType":"address[]"}],"stateMutability":"view"},{"type":"function","name":"handleSignedData","inputs":[{"name":"data","type":"bytes","internalType":"bytes"},{"name":"signature","type":"bytes","internalType":"bytes"}],"outputs":[],"stateMutability":"nonpayable"},{"type":"function","name":"handleSignedDataMulti","inputs":[{"name":"datas","type":"bytes[]","internalType":"bytes[]"},{"name":"signatures","type":"bytes[]","internalType":"bytes[]"}],"outputs":[],"stateMutability":"nonpayable"},{"type":"function","name":"owner","inputs":[],"outputs":[{"name":"","type":"address","internalType":"address"}],"stateMutability":"view"},{"type":"function","name":"registerOperatorToAVS","inputs":[{"name":"operator","type":"address","internalType":"address"},{"name":"operatorSignature","type":"tuple","internalType":"struct ISignatureUtils.SignatureWithSaltAndExpiry","components":[{"name":"signature","type":"bytes","internalType":"bytes"},{"name":"salt","type":"bytes32","internalType":"bytes32"},{"name":"expiry","type":"uint256","internalType":"uint256"}]}],"outputs":[],"stateMutability":"nonpayable"},{"type":"function","name":"renounceOwnership","inputs":[],"outputs":[],"stateMutability":"nonpayable"},{"type":"function","name":"rewardsInitiator","inputs":[],"outputs":[{"name":"","type":"address","internalType":"address"}],"stateMutability":"view"},{"type":"function","name":"serviceHandler","inputs":[],"outputs":[{"name":"","type":"address","internalType":"address"}],"stateMutability":"view"},{"type":"function","name":"setClaimerFor","inputs":[{"name":"claimer","type":"address","internalType":"address"}],"outputs":[],"stateMutability":"nonpayable"},{"type":"function","name":"setRewardsInitiator","inputs":[{"name":"newRewardsInitiator","type":"address","internalType":"address"}],"outputs":[],"stateMutability":"nonpayable"},{"type":"function","name":"stakeRegistry","inputs":[],"outputs":[{"name":"","type":"address","internalType":"address"}],"stateMutability":"view"},{"type":"function","name":"transferOwnership","inputs":[{"name":"newOwner","type":"address","internalType":"address"}],"outputs":[],"stateMutability":"nonpayable"},{"type":"function","name":"updateAVSMetadataURI","inputs":[{"name":"_metadataURI","type":"string","internalType":"string"}],"outputs":[],"stateMutability":"nonpayable"},{"type":"event","name":"Initialized","inputs":[{"name":"version","type":"uint8","indexed":false,"internalType":"uint8"}],"anonymous":false},{"type":"event","name":"OwnershipTransferred","inputs":[{"name":"previousOwner","type":"address","indexed":true,"internalType":"address"},{"name":"newOwner","type":"address","indexed":true,"internalType":"address"}],"anonymous":false},{"type":"event","name":"RewardsInitiatorUpdated","inputs":[{"name":"prevRewardsInitiator","type":"address","indexed":false,"internalType":"address"},{"name":"newRewardsInitiator","type":"address","indexed":false,"internalType":"address"}],"anonymous":false},{"type":"error","name":"InvalidSignature","inputs":[]}],"bytecode":{"object":"0x610120604052346100cb5761001e6100156101c8565b939290926102a6565b6100266100d0565b6135e261052382396080518181816103aa01528181610f3101528181610fe50152818161195401528181612d790152612f6c015260a05181818161042501528181611ef301528181612bbf0152612cbc015260c051818181611fc801528181612976015281816129fb01528181612b030152818161328d0152818161331b0152613432015260e05181611a390152610100518181816104e6015261135901526135e290f35b6100d6565b60405190565b5f80fd5b601f801991011690565b634e487b7160e01b5f52604160045260245ffd5b90610102906100da565b810190811060018060401b0382111761011a57604052565b6100e4565b9061013261012b6100d0565b92836100f8565b565b5f80fd5b60018060a01b031690565b61014c90610138565b90565b61015881610143565b0361015f57565b5f80fd5b905051906101708261014f565b565b919060a0838203126101c35761018a815f8501610163565b926101988260208301610163565b926101c06101a98460408501610163565b936101b78160608601610163565b93608001610163565b90565b610134565b6101e6613b05803803806101db8161011f565b928339810190610172565b9091929394565b90565b90565b61020761020261020c926101ed565b6101f0565b610138565b90565b610218906101f3565b90565b60209181520190565b5f7f496e76616c696420736572766963652068616e646c6572206164647265737300910152565b610258601f60209261021b565b61026181610224565b0190565b61027a9060208101905f81830391015261024b565b90565b1561028457565b61028c6100d0565b62461bcd60e51b8152806102a260048201610265565b0390fd5b916102b493919091926102df565b6102d9816102d26102cc6102c75f61020f565b610143565b91610143565b141561027d565b61010052565b906102eb9392916102ed565b565b906102f99392916102fb565b565b60a05260805260c05260e05261030f610499565b565b60081c90565b60ff1690565b61032961032e91610311565b610317565b90565b61033b905461031d565b90565b151590565b60207f616c697a696e6700000000000000000000000000000000000000000000000000917f496e697469616c697a61626c653a20636f6e747261637420697320696e6974695f8201520152565b61039d602760409261021b565b6103a681610343565b0190565b6103bf9060208101905f818303910152610390565b90565b156103c957565b6103d16100d0565b62461bcd60e51b8152806103e7600482016103aa565b0390fd5b5f1c90565b60ff1690565b610402610407916103eb565b6103f0565b90565b61041490546103f6565b90565b60ff1690565b5f1b90565b9061042e60ff9161041d565b9181191691161790565b61044c61044761045192610417565b6101f0565b610417565b90565b90565b9061046c61046761047392610438565b610454565b8254610422565b9055565b61048090610417565b9052565b9190610497905f60208501940190610477565b565b6104b36104ae6104a85f610331565b1561033e565b6103c2565b6104bc5f61040a565b6104cf6104c960ff610417565b91610417565b106104d7575b565b6104e260ff5f610457565b60ff61051a7f7f26b83ff96e1f2b6a682f133852f6798a09c465da95921460cefb3847402498916105116100d0565b91829182610484565b0390a16104d556fe60806040526004361015610013575b610bad565b61001d5f3561013c565b8063082cfde61461013757806333cfb7b7146101325780633bc28c8c1461012d57806368304835146101285780636b3aa72e14610123578063715018a61461011e5780638da5cb5b1461011957806392e20e5e146101145780639926ee7d1461010f578063a0169ddd1461010a578063a20b99bf14610105578063a364f4da14610100578063a98fb355146100fb578063e481af9d146100f6578063ed022648146100f1578063f2fde38b146100ec578063fc299dee146100e75763fce36c7d0361000e57610b79565b610acf565b610a58565b610a21565b61094e565b61091b565b610837565b610803565b61075b565b610727565b610508565b6104af565b61047c565b610447565b6103ee565b610366565b610331565b610203565b60e01c90565b60405190565b5f80fd5b5f80fd5b5f80fd5b5f80fd5b5f80fd5b5f80fd5b909182601f8301121561019a5781359167ffffffffffffffff831161019557602001926020830284011161019057565b61015c565b610158565b610154565b90916040828403126101f9575f82013567ffffffffffffffff81116101f457836101ca918401610160565b929093602082013567ffffffffffffffff81116101ef576101eb9201610160565b9091565b610150565b610150565b61014c565b5f0190565b346102355761021f61021636600461019f565b92919091610cf8565b610227610142565b80610231816101fe565b0390f35b610148565b60018060a01b031690565b61024e9061023a565b90565b61025a81610245565b0361026157565b5f80fd5b9050359061027282610251565b565b9060208282031261028d5761028a915f01610265565b90565b61014c565b5190565b60209181520190565b60200190565b6102ae90610245565b9052565b906102bf816020936102a5565b0190565b60200190565b906102e66102e06102d984610292565b8093610296565b9261029f565b905f5b8181106102f65750505090565b90919261030f61030960019286516102b2565b946102c3565b91019190916102e9565b61032e9160208201915f8184039101526102c9565b90565b346103615761035d61034c610347366004610274565b610d7d565b610354610142565b91829182610319565b0390f35b610148565b346103945761037e610379366004610274565b610db0565b610386610142565b80610390816101fe565b0390f35b610148565b5f9103126103a357565b61014c565b7f000000000000000000000000000000000000000000000000000000000000000090565b6103d590610245565b9052565b91906103ec905f602085019401906103cc565b565b3461041e576103fe366004610399565b61041a6104096103a8565b610411610142565b918291826103d9565b0390f35b610148565b7f000000000000000000000000000000000000000000000000000000000000000090565b3461047757610457366004610399565b610473610462610423565b61046a610142565b918291826103d9565b0390f35b610148565b346104aa5761048c366004610399565b610494610e08565b61049c610142565b806104a6816101fe565b0390f35b610148565b346104df576104bf366004610399565b6104db6104ca610e3c565b6104d2610142565b918291826103d9565b0390f35b610148565b7f000000000000000000000000000000000000000000000000000000000000000090565b3461053857610518366004610399565b6105346105236104e4565b61052b610142565b918291826103d9565b0390f35b610148565b5f80fd5b601f801991011690565b634e487b7160e01b5f52604160045260245ffd5b9061056990610541565b810190811067ffffffffffffffff82111761058357604052565b61054b565b9061059b610594610142565b928361055f565b565b5f80fd5b5f80fd5b67ffffffffffffffff81116105c3576105bf602091610541565b0190565b61054b565b90825f939282370152565b909291926105e86105e3826105a5565b610588565b9381855260208501908284011161060457610602926105c8565b565b6105a1565b9080601f8301121561062757816020610624933591016105d3565b90565b610154565b90565b6106388161062c565b0361063f57565b5f80fd5b905035906106508261062f565b565b90565b61065e81610652565b0361066557565b5f80fd5b9050359061067682610655565b565b9190916060818403126106dd5761068f6060610588565b925f8201359167ffffffffffffffff83116106d8576106b3826106d1948301610609565b5f8601526106c48260208301610643565b6020860152604001610669565b6040830152565b61059d565b61053d565b919091604081840312610722576106fb835f8301610265565b92602082013567ffffffffffffffff811161071d5761071a9201610678565b90565b610150565b61014c565b346107565761074061073a3660046106e2565b90610f74565b610748610142565b80610752816101fe565b0390f35b610148565b346107895761077361076e366004610274565b610f9e565b61077b610142565b80610785816101fe565b0390f35b610148565b909182601f830112156107c85781359167ffffffffffffffff83116107c35760200192602083028401116107be57565b61015c565b610158565b610154565b906020828203126107fe575f82013567ffffffffffffffff81116107f9576107f5920161078e565b9091565b610150565b61014c565b346108325761081c6108163660046107cd565b90610fc9565b610824610142565b8061082e816101fe565b0390f35b610148565b346108655761084f61084a366004610274565b611027565b610857610142565b80610861816101fe565b0390f35b610148565b67ffffffffffffffff811161088857610884602091610541565b0190565b61054b565b909291926108a261089d8261086a565b610588565b938185526020850190828401116108be576108bc926105c8565b565b6105a1565b9080601f830112156108e1578160206108de9335910161088d565b90565b610154565b90602082820312610916575f82013567ffffffffffffffff81116109115761090e92016108c3565b90565b610150565b61014c565b346109495761093361092e3660046108e6565b611050565b61093b610142565b80610945816101fe565b0390f35b610148565b3461097e5761095e366004610399565b61097a61096961105b565b610971610142565b91829182610319565b0390f35b610148565b909182601f830112156109bd5781359167ffffffffffffffff83116109b85760200192600183028401116109b357565b61015c565b610158565b610154565b9091604082840312610a1c575f82013567ffffffffffffffff8111610a1757836109ed918401610983565b929093602082013567ffffffffffffffff8111610a1257610a0e9201610983565b9091565b610150565b610150565b61014c565b34610a5357610a3d610a343660046109c2565b9291909161106f565b610a45610142565b80610a4f816101fe565b0390f35b610148565b34610a8657610a70610a6b366004610274565b611182565b610a78610142565b80610a82816101fe565b0390f35b610148565b1c90565b60018060a01b031690565b610aaa906008610aaf9302610a8b565b610a8f565b90565b90610abd9154610a9a565b90565b610acc60655f90610ab2565b90565b34610aff57610adf366004610399565b610afb610aea610ac0565b610af2610142565b918291826103d9565b0390f35b610148565b909182601f83011215610b3e5781359167ffffffffffffffff8311610b39576020019260208302840111610b3457565b61015c565b610158565b610154565b90602082820312610b74575f82013567ffffffffffffffff8111610b6f57610b6b9201610b04565b9091565b610150565b61014c565b34610ba857610b92610b8c366004610b43565b906111ad565b610b9a610142565b80610ba4816101fe565b0390f35b610148565b5f80fd5b60209181520190565b5f7f496e76616c6964207369676e6174757265000000000000000000000000000000910152565b610bee6011602092610bb1565b610bf781610bba565b0190565b610c109060208101905f818303910152610be1565b90565b15610c1a57565b610c22610142565b62461bcd60e51b815280610c3860048201610bfb565b0390fd5b90565b90565b610c56610c51610c5b92610c3c565b610c3f565b610652565b90565b6001610c6a9101610652565b90565b5090565b634e487b7160e01b5f52603260045260245ffd5b5f80fd5b5f80fd5b5f80fd5b903590600160200381360303821215610cd3570180359067ffffffffffffffff8211610cce57602001916001820236038313610cc957565b610c8d565b610c89565b610c85565b90821015610cf3576020610cef9202810190610c91565b9091565b610c71565b939293610d11610d0c8284869089926111c2565b610c13565b610d1a5f610c42565b5b80610d38610d32610d2d858790610c6d565b610652565b91610652565b1015610d7057610d6b90610d66610d5184868491610cd8565b90610d5e888b8691610cd8565b92909161134f565b610c5e565b610d1b565b505050509050565b606090565b610d8f90610d89610d78565b5061193f565b90565b610da390610d9e611caf565b610da5565b565b610dae90611d4d565b565b610db990610d92565b565b610dc3611caf565b610dcb610df5565b565b610de1610ddc610de692610c3c565b610c3f565b61023a565b90565b610df290610dcd565b90565b610e06610e015f610de9565b611d9e565b565b610e10610dbb565b565b5f90565b5f1c90565b610e27610e2c91610e16565b610a8f565b90565b610e399054610e1b565b90565b610e44610e12565b50610e4f6033610e2f565b90565b60407f6b65526567697374727900000000000000000000000000000000000000000000917f4543445341536572766963654d616e61676572426173652e6f6e6c795374616b5f8201527f6552656769737472793a2063616c6c6572206973206e6f74207468652073746160208201520152565b610ed2604a606092610bb1565b610edb81610e52565b0190565b610ef49060208101905f818303910152610ec5565b90565b15610efe57565b610f06610142565b62461bcd60e51b815280610f1c60048201610edf565b0390fd5b90610f6691610f6133610f5b610f557f0000000000000000000000000000000000000000000000000000000000000000610245565b91610245565b14610ef7565b610f68565b565b90610f7291611eeb565b565b90610f7e91610f20565b565b610f9190610f8c611caf565b610f93565b565b610f9c90611fc0565b565b610fa790610f80565b565b90610fbb91610fb661213e565b610fbd565b565b90610fc79161280d565b565b90610fd391610fa9565b565b61101a906110153361100f6110097f0000000000000000000000000000000000000000000000000000000000000000610245565b91610245565b14610ef7565b61101c565b565b61102590612bb7565b565b61103090610fd5565b565b6110439061103e611caf565b611045565b565b61104e90612cb4565b565b61105990611032565b565b611063610d78565b5061106c612d64565b90565b9161109593919261108c611087828685908792612f24565b610c13565b9290919261134f565b565b6110a8906110a3611caf565b611152565b565b60207f6464726573730000000000000000000000000000000000000000000000000000917f4f776e61626c653a206e6577206f776e657220697320746865207a65726f20615f8201520152565b6111046026604092610bb1565b61110d816110aa565b0190565b6111269060208101905f8183039101526110f7565b90565b1561113057565b611138610142565b62461bcd60e51b81528061114e60048201611111565b0390fd5b6111809061117b8161117461116e6111695f610de9565b610245565b91610245565b1415611129565b611d9e565b565b61118b90611097565b565b9061119f9161119a61213e565b6111a1565b565b906111ab916131a7565b565b906111b79161118d565b565b5f90565b151590565b9091926111cd6111b9565b506111d9828490610c6d565b6111f56111ef6111ea878590610c6d565b610652565b91610652565b03611279576112035f610c42565b5b8061122161121b611216868890610c6d565b610652565b91610652565b101561126f5761125461124e61123985878591610cd8565b9061124689878791610cd8565b929091612f24565b156111bd565b6112665761126190610c5e565b611204565b50505050505f90565b5050505050600190565b505050505f90565b61129561129061129a9261023a565b610c3f565b61023a565b90565b6112a690611281565b90565b6112b29061129d565b90565b6112be90611281565b90565b6112ca906112b5565b90565b5f80fd5b60e01b90565b5f9103126112e157565b61014c565b60209181520190565b9190611309816113028161130e956112e6565b80956105c8565b610541565b0190565b929061132e9061133c959360408601918683035f8801526112ef565b9260208185039101526112ef565b90565b611347610142565b3d5f823e3d90fd5b919261138261137d7f00000000000000000000000000000000000000000000000000000000000000006112a9565b6112c1565b9063ed02264893929490823b15611400575f946113bd86926113b2946113a6610142565b998a98899788966112d1565b865260048601611312565b03925af180156113fb576113cf575b50565b6113ee905f3d81116113f4575b6113e6818361055f565b8101906112d7565b5f6113cc565b503d6113dc565b61133f565b6112cd565b61140e90611281565b90565b61141a90611405565b90565b611426906112b5565b90565b67ffffffffffffffff81116114415760208091020190565b61054b565b61144f90610245565b90565b61145b81611446565b0361146257565b5f80fd5b9050519061147382611452565b565b6bffffffffffffffffffffffff1690565b61148f81611475565b0361149657565b5f80fd5b905051906114a782611486565b565b91906040838203126114e3576114dc906114c36040610588565b936114d0825f8301611466565b5f86015260200161149a565b6020830152565b61053d565b909291926114fd6114f882611429565b610588565b93818552604060208601920283019281841161153c57915b8383106115225750505050565b602060409161153184866114a9565b815201920191611515565b61015c565b9080601f8301121561155f5781602061155c935191016114e8565b90565b610154565b9190916020818403126115a45761157b6020610588565b925f82015167ffffffffffffffff811161159f576115999201611541565b5f830152565b61059d565b61053d565b906020828203126115d9575f82015167ffffffffffffffff81116115d4576115d19201611564565b90565b610150565b61014c565b5190565b67ffffffffffffffff81116115fa5760208091020190565b61054b565b9061161161160c836115e2565b610588565b918252565b369037565b90611640611628836115ff565b9260208061163686936115e2565b9201910390611616565b565b5f90565b90611650826115de565b811015611661576020809102010190565b610c71565b6116709051611446565b90565b5190565b9061168182611673565b811015611692576020809102010190565b610c71565b906116a190611446565b9052565b6116ae90611281565b90565b6116ba906116a5565b90565b6116c6906112b5565b90565b67ffffffffffffffff81116116e15760208091020190565b61054b565b905051906116f382610655565b565b9092919261170a611705826116c9565b610588565b938185526020808601920283019281841161174757915b83831061172e5750505050565b6020809161173c84866116e6565b815201920191611721565b61015c565b9080601f8301121561176a57816020611767935191016116f5565b90565b610154565b9060208282031261179f575f82015167ffffffffffffffff811161179a57611797920161174c565b90565b610150565b61014c565b60200190565b6117b3906112b5565b90565b6117bf906117aa565b9052565b906117d0816020936117b6565b0190565b60200190565b906117f76117f16117ea84611673565b8093610296565b926117a4565b905f5b8181106118075750505090565b90919261182061181a60019286516117c3565b946117d4565b91019190916117fa565b9161184d9261184060408201935f8301906103cc565b60208184039101526117da565b90565b5190565b9061185e82611850565b81101561186f576020809102010190565b610c71565b61187e9051610652565b90565b634e487b7160e01b5f52601160045260245ffd5b61189e90610652565b5f1981146118ac5760010190565b611881565b67ffffffffffffffff81116118c95760208091020190565b61054b565b906118e06118db836118b1565b610588565b918252565b369037565b9061190f6118f7836118ce565b9260208061190586936118b1565b92019103906118e5565b565b9061191b82610292565b81101561192c576020809102010190565b610c71565b9061193b90610245565b9052565b611947610d78565b506119935f61197d6119787f0000000000000000000000000000000000000000000000000000000000000000611411565b61141d565b631703a0189061198b610142565b9384926112d1565b825281806119a3600482016101fe565b03915afa908115611c29575f91611c07575b50916119c35f8401516115de565b6119cc8161161b565b916119d5611642565b5b806119e96119e385610652565b91610652565b1015611a2b57611a2690611a21611a0f5f611a08818b01518590611646565b5101611666565b611a1c8791849092611677565b611697565b610c5e565b6119d6565b50929093505f611a62611a5d7f00000000000000000000000000000000000000000000000000000000000000006116b1565b6116bd565b63900413479290611a858594611a90611a79610142565b968795869485946112d1565b84526004840161182a565b03915afa908115611c02575f91611be0575b5092611aac611642565b91611ab5611642565b5b80611ac9611ac385610652565b91610652565b1015611b1d57611ae2611add878390611854565b611874565b611af4611aee5f610c42565b91610652565b11611b08575b611b0390610c5e565b611ab6565b92611b15611b0391611895565b939050611afa565b5091611b2b909391936118ea565b91611b34611642565b91611b3e5f610c42565b5b80611b52611b4c88610652565b91610652565b1015611bd657611b6b611b66888390611854565b611874565b611b7d611b775f610c42565b91610652565b11611b91575b611b8c90610c5e565b611b3f565b92611bce611b8c91611bc9611bb7611bb2611bad888a90611677565b611666565b6117aa565b611bc48991849092611911565b611931565b611895565b939050611b83565b5094505050905090565b611bfc91503d805f833e611bf4818361055f565b81019061176f565b5f611aa2565b61133f565b611c2391503d805f833e611c1b818361055f565b8101906115a9565b5f6119b5565b61133f565b5f7f4f776e61626c653a2063616c6c6572206973206e6f7420746865206f776e6572910152565b611c6160208092610bb1565b611c6a81611c2e565b0190565b611c839060208101905f818303910152611c55565b90565b15611c8d57565b611c95610142565b62461bcd60e51b815280611cab60048201611c6e565b0390fd5b611cd9611cba610e3c565b611cd3611ccd611cc86134db565b610245565b91610245565b14611c86565b565b916020611cfc929493611cf560408201965f8301906103cc565b01906103cc565b565b5f1b90565b90611d1460018060a01b0391611cfe565b9181191691161790565b611d27906112b5565b90565b90565b90611d42611d3d611d4992611d1e565b611d2a565b8254611d03565b9055565b611d9c90611d5b6065610e2f565b817fe11cddf1816a43318ca175bbc52cd0185436e9cbead7c83acc54a73e461717e391611d92611d89610142565b92839283611cdb565b0390a16065611d2d565b565b611da86033610e2f565b611db3826033611d2d565b90611de7611de17f8be0079c531659141344cd1fd0a4f28419497f9722a3daafe3b4186f6b6457e093611d1e565b91611d1e565b91611df0610142565b80611dfa816101fe565b0390a3565b611e0890611281565b90565b611e1490611dff565b90565b611e20906112b5565b90565b5190565b60209181520190565b90825f9392825e0152565b611e5a611e63602093611e6893611e5181611e23565b93848093611e27565b95869101611e30565b610541565b0190565b611e759061062c565b9052565b611e8290610652565b9052565b90611ec290604080611ea5606084015f8701518582035f870152611e3b565b94611eb860208201516020860190611e6c565b0151910190611e79565b90565b91611ee892611edb60408201935f8301906103cc565b6020818403910152611e86565b90565b611f1c611f177f0000000000000000000000000000000000000000000000000000000000000000611e0b565b611e17565b91639926ee7d919092803b15611f9757611f495f8094611f54611f3d610142565b978896879586946112d1565b845260048401611ec5565b03925af18015611f9257611f66575b50565b611f85905f3d8111611f8b575b611f7d818361055f565b8101906112d7565b5f611f63565b503d611f73565b61133f565b6112cd565b611fa590611281565b90565b611fb190611f9c565b90565b611fbd906112b5565b90565b611ff1611fec7f0000000000000000000000000000000000000000000000000000000000000000611fa8565b611fb4565b9063a0169ddd90823b1561206b576120289261201d5f8094612011610142565b968795869485936112d1565b8352600483016103d9565b03925af180156120665761203a575b50565b612059905f3d811161205f575b612051818361055f565b8101906112d7565b5f612037565b503d612047565b61133f565b6112cd565b60407f7265776172647320696e69746961746f72000000000000000000000000000000917f4543445341536572766963654d616e61676572426173652e6f6e6c79526577615f8201527f726473496e69746961746f723a2063616c6c6572206973206e6f74207468652060208201520152565b6120f06051606092610bb1565b6120f981612070565b0190565b6121129060208101905f8183039101526120e3565b90565b1561211c57565b612124610142565b62461bcd60e51b81528061213a600482016120fd565b0390fd5b6121633361215d6121576121526065610e2f565b610245565b91610245565b14612115565b565b5090565b903590600160c00381360303821215612180570190565b610c85565b9082101561219f57602061219c9202810190612169565b90565b610c71565b9035906001602003813603038212156121e6570180359067ffffffffffffffff82116121e1576020019160408202360383136121dc57565b610c8d565b610c89565b610c85565b5090565b91908110156121ff576040020190565b610c71565b3561220e81610655565b90565b61222061222691939293610652565b92610652565b820180921161223157565b611881565b61223f90610245565b90565b61224b81612236565b0361225257565b5f80fd5b3561226081612242565b90565b61226c906112b5565b90565b612278906112b5565b90565b612284816111bd565b0361228b57565b5f80fd5b9050519061229c8261227b565b565b906020828203126122b7576122b4915f0161228f565b90565b61014c565b6122c590610652565b9052565b6040906122f26122f994969593966122e860608401985f8501906103cc565b60208301906103cc565b01906122bc565b565b9060208282031261231457612311915f016116e6565b90565b61014c565b91602061233a92949361233360408201965f8301906103cc565b01906122bc565b565b60209181520190565b90565b5f80fd5b5f80fd5b5f80fd5b903560016020038236030381121561239557016020813591019167ffffffffffffffff821161239057604082023603831361238b57565b61234c565b612348565b612350565b60209181520190565b90565b905035906123b382611452565b565b506123c49060208101906123a6565b90565b905035906123d482611486565b565b506123e59060208101906123c7565b90565b6123f190611475565b9052565b9060206124206124289361241761240e5f8301836123b5565b5f8601906117b6565b828101906123d6565b9101906123e8565b565b90612437816040936123f5565b0190565b5090565b60400190565b91612453826124599261239a565b926123a3565b90815f905b82821061246c575050505090565b9091929361248e612488600192612483888661243b565b61242a565b9561243f565b92019092919261245e565b905035906124a682612242565b565b506124b7906020810190612499565b90565b6124c390612263565b9052565b903560016020038236030381121561250857016020813591019167ffffffffffffffff82116125035760408202360383136124fe57565b61234c565b612348565b612350565b60209181520190565b90565b50612528906020810190610265565b90565b5061253a906020810190610669565b90565b9060206125686125709361255f6125565f830183612519565b5f8601906102a5565b8281019061252b565b910190611e79565b565b9061257f8160409361253d565b0190565b5090565b60400190565b9161259b826125a19261250d565b92612516565b90815f905b8282106125b4575050505090565b909192936125d66125d06001926125cb8886612583565b612572565b95612587565b9201909291926125a6565b63ffffffff1690565b6125f3816125e1565b036125fa57565b5f80fd5b9050359061260b826125ea565b565b5061261c9060208101906125fe565b90565b612628906125e1565b9052565b903560016020038236030381121561266d57016020813591019167ffffffffffffffff821161266857600182023603831361266357565b61234c565b612348565b612350565b60209181520190565b91906126958161268e8161269a95612672565b80956105c8565b610541565b0190565b61274a9161273c6126fd6126c860c084016126bb5f870187612354565b908683035f880152612445565b6126e26126d860208701876124a8565b60208601906124ba565b6126ef60408601866124c7565b90858303604087015261258d565b9261271861270e606083018361260d565b606085019061261f565b612732612728608083018361260d565b608085019061261f565b60a081019061262c565b9160a081850391015261267b565b90565b906127579161269e565b90565b9035600160c00382360303811215612770570190565b612350565b60200190565b91816127869161233c565b908161279760208302840194612345565b92835f925b8484106127ac5750505050505090565b90919293949560206127d76127d183856001950388526127cc8b8861275a565b61274d565b98612775565b94019401929493919061279c565b9161280a9391926127fd60408201945f8301906103cc565b602081850391015261277b565b90565b916128175f610c42565b915b8261283661283061282b878590612165565b610652565b91610652565b1015612af8576128455f610c42565b61284e5f610c42565b905b8161288461287e6128796128736128698b898c91612185565b60408101906121a4565b906121eb565b610652565b91610652565b10156128d1576128c56128cb916128bf60206128b96128b26128a88c8a8d91612185565b60408101906121a4565b88916121ef565b01612204565b90612211565b91610c5e565b90612850565b91929390506128f56128f060206128ea88878691612185565b01612256565b612263565b60206323b872dd9133906129255f61290c3061226f565b9561293089612919610142565b988997889687956112d1565b8552600485016122c9565b03925af18015612af357612ac7575b5061295f61295a602061295488878691612185565b01612256565b612263565b602063dd62ed3e916129703061226f565b906129ad7f0000000000000000000000000000000000000000000000000000000000000000946129b86129a1610142565b968795869485946112d1565b845260048401611cdb565b03915afa8015612ac2576020915f91612a95575b50926129ec6129e7836129e18a898891612185565b01612256565b612263565b612a385f612a2063095ea7b3977f000000000000000000000000000000000000000000000000000000000000000095612211565b96612a43612a2c610142565b988996879586946112d1565b845260048401612319565b03925af1918215612a9057612a5d92612a64575b50610c5e565b9190612819565b612a849060203d8111612a89575b612a7c818361055f565b81019061229e565b612a57565b503d612a72565b61133f565b612ab59150823d8111612abb575b612aad818361055f565b8101906122fb565b5f6129cc565b503d612aa3565b61133f565b612ae79060203d8111612aec575b612adf818361055f565b81019061229e565b61293f565b503d612ad5565b61133f565b915091612b2c612b277f0000000000000000000000000000000000000000000000000000000000000000611fa8565b611fb4565b90639cb9a5fa91612b3c3061226f565b919392813b15612bb2575f612b6491612b6f8296612b58610142565b988997889687956112d1565b8552600485016127e5565b03925af18015612bad57612b81575b50565b612ba0905f3d8111612ba6575b612b98818361055f565b8101906112d7565b5f612b7e565b503d612b8e565b61133f565b6112cd565b612be8612be37f0000000000000000000000000000000000000000000000000000000000000000611e0b565b611e17565b9063a364f4da90823b15612c6257612c1f92612c145f8094612c08610142565b968795869485936112d1565b8352600483016103d9565b03925af18015612c5d57612c31575b50565b612c50905f3d8111612c56575b612c48818361055f565b8101906112d7565b5f612c2e565b503d612c3e565b61133f565b6112cd565b5190565b612c8a612c93602093612c9893612c8181612c67565b93848093610bb1565b95869101611e30565b610541565b0190565b612cb19160208201915f818403910152612c6b565b90565b612ce5612ce07f0000000000000000000000000000000000000000000000000000000000000000611e0b565b611e17565b9063a98fb35590823b15612d5f57612d1c92612d115f8094612d05610142565b968795869485936112d1565b835260048301612c9c565b03925af18015612d5a57612d2e575b50565b612d4d905f3d8111612d53575b612d45818361055f565b8101906112d7565b5f612d2b565b503d612d3b565b61133f565b6112cd565b612d6c610d78565b50612db85f612da2612d9d7f0000000000000000000000000000000000000000000000000000000000000000611411565b61141d565b631703a01890612db0610142565b9384926112d1565b82528180612dc8600482016101fe565b03915afa908115612e89575f91612e67575b50612def612dea5f8301516115de565b6118ea565b90612df95f610c42565b5b80612e18612e12612e0d5f8601516115de565b610652565b91610652565b1015612e6257612e5d90612e58612e46612e415f612e3a818801518690611646565b5101611666565b6117aa565b612e538691849092611911565b611931565b610c5e565b612dfa565b505090565b612e8391503d805f833e612e7b818361055f565b8101906115a9565b5f612dda565b61133f565b612e999136916105d3565b90565b60200190565b63ffffffff60e01b1690565b612eb781612ea2565b03612ebe57565b5f80fd5b90505190612ecf82612eae565b565b90602082820312612eea57612ee7915f01612ec2565b90565b61014c565b612ef89061062c565b9052565b91612f21939192612f1460408201945f830190612eef565b60208185039101526112ef565b90565b612f3f602092612f5792959495612f396111b9565b50612e8e565b612f51612f4b82611e23565b91612e9c565b20613563565b92630b135d3f60e11b93612fb5612f95612f907f0000000000000000000000000000000000000000000000000000000000000000611411565b61141d565b91612fc0631626ba7e919496612fa9610142565b978896879586956112d1565b855260048501612efc565b03915afa90811561301857612fe691612fe0915f91612fea575b50612ea2565b91612ea2565b1490565b61300b915060203d8111613011575b613003818361055f565b810190612ed1565b5f612fda565b503d612ff9565b61133f565b5090565b903590600160a00381360303821215613038570190565b610c85565b908210156130575760206130549202810190613021565b90565b610c71565b60209181520190565b90565b906130f29060806130ea61309260a084016130855f880188612354565b908683035f880152612445565b946130ad6130a360208301836124a8565b60208601906124ba565b6130c76130bd604083018361252b565b6040860190611e79565b6130e16130d7606083018361260d565b606086019061261f565b8281019061260d565b91019061261f565b90565b906130ff91613068565b90565b9035600160a00382360303811215613118570190565b612350565b60200190565b918161312e9161305c565b908161313f60208302840194613065565b92835f925b8484106131545750505050505090565b909192939495602061317f61317983856001950388526131748b88613102565b6130f5565b9861311d565b940194019294939190613144565b90916131a49260208301925f818503910152613123565b90565b9190916131b35f610c42565b5b806131d16131cb6131c685889061301d565b610652565b91610652565b1015613426578360206131f86131f3826131ed8786889161303d565b01612256565b612263565b6323b872dd9061323c5f339361324761322860406132226132183061226f565b9a8d908d9161303d565b01612204565b613230610142565b988997889687956112d1565b8552600485016122c9565b03925af18015613421576133f5575b50613276613271602061326b8588869161303d565b01612256565b612263565b602063dd62ed3e916132873061226f565b906132c47f0000000000000000000000000000000000000000000000000000000000000000946132cf6132b8610142565b968795869485946112d1565b845260048401611cdb565b03915afa9081156133f0575f916133c2575b50906020856133046132ff836132f98885889161303d565b01612256565b612263565b6133675f61334f63095ea7b39761334a60406133447f0000000000000000000000000000000000000000000000000000000000000000988d908c9161303d565b01612204565b612211565b9661337261335b610142565b988996879586946112d1565b845260048401612319565b03925af19182156133bd5761338c92613391575b50610c5e565b6131b4565b6133b19060203d81116133b6575b6133a9818361055f565b81019061229e565b613386565b503d61339f565b61133f565b6133e3915060203d81116133e9575b6133db818361055f565b8101906122fb565b5f6132e1565b503d6133d1565b61133f565b6134159060203d811161341a575b61340d818361055f565b81019061229e565b613256565b503d613403565b61133f565b5091909161345b6134567f0000000000000000000000000000000000000000000000000000000000000000611fa8565b611fb4565b9163fce36c7d919092803b156134d6576134885f809461349361347c610142565b978896879586946112d1565b84526004840161318d565b03925af180156134d1576134a5575b50565b6134c4905f3d81116134ca575b6134bc818361055f565b8101906112d7565b5f6134a2565b503d6134b2565b61133f565b6112cd565b6134e3610e12565b503390565b5f90565b905090565b5f7f19457468657265756d205369676e6564204d6573736167653a0a333200000000910152565b613524601c80926134ec565b61352d816134f1565b0190565b90565b6135406135459161062c565b613531565b9052565b9061355f613558602093613518565b8092613534565b0190565b613596613587916135726134e8565b5061357b610142565b92839160208301613549565b6020820181038252038261055f565b6135a86135a282611e23565b91612e9c565b209056fea264697066735822122075676e9d68122295114b4219591518cb96267156f70606770f94c1176f9aa51e64736f6c634300081a0033","linkReferences":{}},"methodIdentifiers":{"avsDirectory()":"6b3aa72e","createAVSRewardsSubmission(((address,uint96)[],address,uint256,uint32,uint32)[])":"fce36c7d","createOperatorDirectedAVSRewardsSubmission(((address,uint96)[],address,(address,uint256)[],uint32,uint32,string)[])":"a20b99bf","deregisterOperatorFromAVS(address)":"a364f4da","getOperatorRestakedStrategies(address)":"33cfb7b7","getRestakeableStrategies()":"e481af9d","handleSignedData(bytes,bytes)":"ed022648","handleSignedDataMulti(bytes[],bytes[])":"082cfde6","owner()":"8da5cb5b","registerOperatorToAVS(address,(bytes,bytes32,uint256))":"9926ee7d","renounceOwnership()":"715018a6","rewardsInitiator()":"fc299dee","serviceHandler()":"92e20e5e","setClaimerFor(address)":"a0169ddd","setRewardsInitiator(address)":"3bc28c8c","stakeRegistry()":"68304835","transferOwnership(address)":"f2fde38b","updateAVSMetadataURI(string)":"a98fb355"},"id":0}