{"abi":[{"type":"constructor","inputs":[{"name":"_avsDirectory","type":"address","internalType":"address"},{"name":"_stakeRegistry","type":"address","internalType":"address"},{"name":"_rewardsCoordinator","type":"address","internalType":"address"},{"name":"_delegationManager","type":"address","internalType":"address"},{"name":"_serviceHandler","type":"address","internalType":"address"}],"stateMutability":"nonpayable"},{"type":"function","name":"addPayload","inputs":[{"name":"signedPayload","type":"tuple","internalType":"struct ILayerServiceManager.SignedPayload","components":[{"name":"data","type":"bytes","internalType":"bytes"},{"name":"signature","type":"bytes","internalType":"bytes"}]}],"outputs":[],"stateMutability":"nonpayable"},{"type":"function","name":"addPayloadMulti","inputs":[{"name":"signedPayloads","type":"tuple[]","internalType":"struct ILayerServiceManager.SignedPayload[]","components":[{"name":"data","type":"bytes","internalType":"bytes"},{"name":"signature","type":"bytes","internalType":"bytes"}]}],"outputs":[],"stateMutability":"nonpayable"},{"type":"function","name":"avsDirectory","inputs":[],"outputs":[{"name":"","type":"address","internalType":"address"}],"stateMutability":"view"},{"type":"function","name":"createAVSRewardsSubmission","inputs":[{"name":"rewardsSubmissions","type":"tuple[]","internalType":"struct IRewardsCoordinator.RewardsSubmission[]","components":[{"name":"strategiesAndMultipliers","type":"tuple[]","internalType":"struct IRewardsCoordinator.StrategyAndMultiplier[]","components":[{"name":"strategy","type":"address","internalType":"contract IStrategy"},{"name":"multiplier","type":"uint96","internalType":"uint96"}]},{"name":"token","type":"address","internalType":"contract IERC20"},{"name":"amount","type":"uint256","internalType":"uint256"},{"name":"startTimestamp","type":"uint32","internalType":"uint32"},{"name":"duration","type":"uint32","internalType":"uint32"}]}],"outputs":[],"stateMutability":"nonpayable"},{"type":"function","name":"createOperatorDirectedAVSRewardsSubmission","inputs":[{"name":"operatorDirectedRewardsSubmissions","type":"tuple[]","internalType":"struct IRewardsCoordinator.OperatorDirectedRewardsSubmission[]","components":[{"name":"strategiesAndMultipliers","type":"tuple[]","internalType":"struct IRewardsCoordinator.StrategyAndMultiplier[]","components":[{"name":"strategy","type":"address","internalType":"contract IStrategy"},{"name":"multiplier","type":"uint96","internalType":"uint96"}]},{"name":"token","type":"address","internalType":"contract IERC20"},{"name":"operatorRewards","type":"tuple[]","internalType":"struct IRewardsCoordinator.OperatorReward[]","components":[{"name":"operator","type":"address","internalType":"address"},{"name":"amount","type":"uint256","internalType":"uint256"}]},{"name":"startTimestamp","type":"uint32","internalType":"uint32"},{"name":"duration","type":"uint32","internalType":"uint32"},{"name":"description","type":"string","internalType":"string"}]}],"outputs":[],"stateMutability":"nonpayable"},{"type":"function","name":"deregisterOperatorFromAVS","inputs":[{"name":"operator","type":"address","internalType":"address"}],"outputs":[],"stateMutability":"nonpayable"},{"type":"function","name":"getOperatorRestakedStrategies","inputs":[{"name":"_operator","type":"address","internalType":"address"}],"outputs":[{"name":"","type":"address[]","internalType":"address[]"}],"stateMutability":"view"},{"type":"function","name":"getRestakeableStrategies","inputs":[],"outputs":[{"name":"","type":"address[]","internalType":"address[]"}],"stateMutability":"view"},{"type":"function","name":"owner","inputs":[],"outputs":[{"name":"","type":"address","internalType":"address"}],"stateMutability":"view"},{"type":"function","name":"registerOperatorToAVS","inputs":[{"name":"operator","type":"address","internalType":"address"},{"name":"operatorSignature","type":"tuple","internalType":"struct ISignatureUtils.SignatureWithSaltAndExpiry","components":[{"name":"signature","type":"bytes","internalType":"bytes"},{"name":"salt","type":"bytes32","internalType":"bytes32"},{"name":"expiry","type":"uint256","internalType":"uint256"}]}],"outputs":[],"stateMutability":"nonpayable"},{"type":"function","name":"renounceOwnership","inputs":[],"outputs":[],"stateMutability":"nonpayable"},{"type":"function","name":"rewardsInitiator","inputs":[],"outputs":[{"name":"","type":"address","internalType":"address"}],"stateMutability":"view"},{"type":"function","name":"serviceHandler","inputs":[],"outputs":[{"name":"","type":"address","internalType":"address"}],"stateMutability":"view"},{"type":"function","name":"setClaimerFor","inputs":[{"name":"claimer","type":"address","internalType":"address"}],"outputs":[],"stateMutability":"nonpayable"},{"type":"function","name":"setRewardsInitiator","inputs":[{"name":"newRewardsInitiator","type":"address","internalType":"address"}],"outputs":[],"stateMutability":"nonpayable"},{"type":"function","name":"stakeRegistry","inputs":[],"outputs":[{"name":"","type":"address","internalType":"address"}],"stateMutability":"view"},{"type":"function","name":"transferOwnership","inputs":[{"name":"newOwner","type":"address","internalType":"address"}],"outputs":[],"stateMutability":"nonpayable"},{"type":"function","name":"updateAVSMetadataURI","inputs":[{"name":"_metadataURI","type":"string","internalType":"string"}],"outputs":[],"stateMutability":"nonpayable"},{"type":"function","name":"validatePayload","inputs":[{"name":"signedPayload","type":"tuple","internalType":"struct ILayerServiceManager.SignedPayload","components":[{"name":"data","type":"bytes","internalType":"bytes"},{"name":"signature","type":"bytes","internalType":"bytes"}]}],"outputs":[{"name":"","type":"bool","internalType":"bool"}],"stateMutability":"view"},{"type":"function","name":"validatePayloadMulti","inputs":[{"name":"signedPayloads","type":"tuple[]","internalType":"struct ILayerServiceManager.SignedPayload[]","components":[{"name":"data","type":"bytes","internalType":"bytes"},{"name":"signature","type":"bytes","internalType":"bytes"}]}],"outputs":[{"name":"","type":"bool","internalType":"bool"}],"stateMutability":"view"},{"type":"event","name":"Initialized","inputs":[{"name":"version","type":"uint8","indexed":false,"internalType":"uint8"}],"anonymous":false},{"type":"event","name":"OwnershipTransferred","inputs":[{"name":"previousOwner","type":"address","indexed":true,"internalType":"address"},{"name":"newOwner","type":"address","indexed":true,"internalType":"address"}],"anonymous":false},{"type":"event","name":"RewardsInitiatorUpdated","inputs":[{"name":"prevRewardsInitiator","type":"address","indexed":false,"internalType":"address"},{"name":"newRewardsInitiator","type":"address","indexed":false,"internalType":"address"}],"anonymous":false},{"type":"error","name":"InvalidSignature","inputs":[]}],"bytecode":{"object":"0x610120604052346100cb5761001e6100156101c8565b939290926102a6565b6100266100d0565b61361b610507823960805181818161044601528181610dbb015281816111d0015281816112c001528181611acf0152613005015260a0518181816104c10152818161217f01528181612e4b0152612f48015260c05181818161225401528181612c0201528181612c8701528181612d8f0152818161338a01528181613418015261352f015260e05181611bb40152610100518181816105820152611f83015261361b90f35b6100d6565b60405190565b5f80fd5b601f801991011690565b634e487b7160e01b5f52604160045260245ffd5b90610102906100da565b810190811060018060401b0382111761011a57604052565b6100e4565b9061013261012b6100d0565b92836100f8565b565b5f80fd5b60018060a01b031690565b61014c90610138565b90565b61015881610143565b0361015f57565b5f80fd5b905051906101708261014f565b565b919060a0838203126101c35761018a815f8501610163565b926101988260208301610163565b926101c06101a98460408501610163565b936101b78160608601610163565b93608001610163565b90565b610134565b6101e6613b22803803806101db8161011f565b928339810190610172565b9091929394565b90565b90565b61020761020261020c926101ed565b6101f0565b610138565b90565b610218906101f3565b90565b60209181520190565b5f7f496e76616c696420736572766963652068616e646c6572206164647265737300910152565b610258601f60209261021b565b61026181610224565b0190565b61027a9060208101905f81830391015261024b565b90565b1561028457565b61028c6100d0565b62461bcd60e51b8152806102a260048201610265565b0390fd5b916102b493919091926102df565b6102d9816102d26102cc6102c75f61020f565b610143565b91610143565b141561027d565b61010052565b60a05260805260c05260e0526102f361047d565b565b60081c90565b60ff1690565b61030d610312916102f5565b6102fb565b90565b61031f9054610301565b90565b151590565b60207f616c697a696e6700000000000000000000000000000000000000000000000000917f496e697469616c697a61626c653a20636f6e747261637420697320696e6974695f8201520152565b610381602760409261021b565b61038a81610327565b0190565b6103a39060208101905f818303910152610374565b90565b156103ad57565b6103b56100d0565b62461bcd60e51b8152806103cb6004820161038e565b0390fd5b5f1c90565b60ff1690565b6103e66103eb916103cf565b6103d4565b90565b6103f890546103da565b90565b60ff1690565b5f1b90565b9061041260ff91610401565b9181191691161790565b61043061042b610435926103fb565b6101f0565b6103fb565b90565b90565b9061045061044b6104579261041c565b610438565b8254610406565b9055565b610464906103fb565b9052565b919061047b905f6020850194019061045b565b565b61049761049261048c5f610315565b15610322565b6103a6565b6104a05f6103ee565b6104b36104ad60ff6103fb565b916103fb565b106104bb575b565b6104c660ff5f61043b565b60ff6104fe7f7f26b83ff96e1f2b6a682f133852f6798a09c465da95921460cefb3847402498916104f56100d0565b91829182610468565b0390a16104b956fe60806040526004361015610013575b610bdd565b61001d5f3561015c565b8063216a3e9a1461015757806333cfb7b7146101525780633bc28c8c1461014d57806363710c051461014857806368304835146101435780636b3aa72e1461013e578063715018a6146101395780638da5cb5b1461013457806392e20e5e1461012f5780639926ee7d1461012a5780639aa9fda514610125578063a0169ddd14610120578063a20b99bf1461011b578063a364f4da14610116578063a71f8da014610111578063a98fb3551461010c578063e481af9d14610107578063f2fde38b14610102578063fc299dee146100fd5763fce36c7d0361000e57610ba9565b610aff565b610a88565b610a53565b610a20565b610939565b610906565b6108d2565b61082a565b6107f7565b6107c3565b6105a4565b61054b565b610518565b6104e3565b61048a565b610401565b61034d565b610313565b6101e7565b60e01c90565b60405190565b5f80fd5b5f80fd5b5f80fd5b5f80fd5b908160409103126101865790565b610174565b906020828203126101bb575f82013567ffffffffffffffff81116101b6576101b39201610178565b90565b610170565b61016c565b151590565b6101ce906101c0565b9052565b91906101e5905f602085019401906101c5565b565b34610217576102136102026101fd36600461018b565b610d67565b61020a610162565b918291826101d2565b0390f35b610168565b60018060a01b031690565b6102309061021c565b90565b61023c81610227565b0361024357565b5f80fd5b9050359061025482610233565b565b9060208282031261026f5761026c915f01610247565b90565b61016c565b5190565b60209181520190565b60200190565b61029090610227565b9052565b906102a181602093610287565b0190565b60200190565b906102c86102c26102bb84610274565b8093610278565b92610281565b905f5b8181106102d85750505090565b9091926102f16102eb6001928651610294565b946102a5565b91019190916102cb565b6103109160208201915f8184039101526102ab565b90565b346103435761033f61032e610329366004610256565b610e7c565b610336610162565b918291826102fb565b0390f35b610168565b5f0190565b3461037b57610365610360366004610256565b610eaf565b61036d610162565b8061037781610348565b0390f35b610168565b5f80fd5b5f80fd5b5f80fd5b909182601f830112156103c65781359167ffffffffffffffff83116103c15760200192602083028401116103bc57565b610388565b610384565b610380565b906020828203126103fc575f82013567ffffffffffffffff81116103f7576103f3920161038c565b9091565b610170565b61016c565b346104305761041a6104143660046103cb565b90610fc6565b610422610162565b8061042c81610348565b0390f35b610168565b5f91031261043f57565b61016c565b7f000000000000000000000000000000000000000000000000000000000000000090565b61047190610227565b9052565b9190610488905f60208501940190610468565b565b346104ba5761049a366004610435565b6104b66104a5610444565b6104ad610162565b91829182610475565b0390f35b610168565b7f000000000000000000000000000000000000000000000000000000000000000090565b34610513576104f3366004610435565b61050f6104fe6104bf565b610506610162565b91829182610475565b0390f35b610168565b3461054657610528366004610435565b6105306110a7565b610538610162565b8061054281610348565b0390f35b610168565b3461057b5761055b366004610435565b6105776105666110db565b61056e610162565b91829182610475565b0390f35b610168565b7f000000000000000000000000000000000000000000000000000000000000000090565b346105d4576105b4366004610435565b6105d06105bf610580565b6105c7610162565b91829182610475565b0390f35b610168565b5f80fd5b601f801991011690565b634e487b7160e01b5f52604160045260245ffd5b90610605906105dd565b810190811067ffffffffffffffff82111761061f57604052565b6105e7565b90610637610630610162565b92836105fb565b565b5f80fd5b5f80fd5b67ffffffffffffffff811161065f5761065b6020916105dd565b0190565b6105e7565b90825f939282370152565b9092919261068461067f82610641565b610624565b938185526020850190828401116106a05761069e92610664565b565b61063d565b9080601f830112156106c3578160206106c09335910161066f565b90565b610380565b90565b6106d4816106c8565b036106db57565b5f80fd5b905035906106ec826106cb565b565b90565b6106fa816106ee565b0361070157565b5f80fd5b90503590610712826106f1565b565b9190916060818403126107795761072b6060610624565b925f8201359167ffffffffffffffff83116107745761074f8261076d9483016106a5565b5f86015261076082602083016106df565b6020860152604001610705565b6040830152565b610639565b6105d9565b9190916040818403126107be57610797835f8301610247565b92602082013567ffffffffffffffff81116107b9576107b69201610714565b90565b610170565b61016c565b346107f2576107dc6107d636600461077e565b90611213565b6107e4610162565b806107ee81610348565b0390f35b610168565b346108255761080f61080a36600461018b565b61121f565b610817610162565b8061082181610348565b0390f35b610168565b346108585761084261083d366004610256565b611279565b61084a610162565b8061085481610348565b0390f35b610168565b909182601f830112156108975781359167ffffffffffffffff831161089257602001926020830284011161088d57565b610388565b610384565b610380565b906020828203126108cd575f82013567ffffffffffffffff81116108c8576108c4920161085d565b9091565b610170565b61016c565b34610901576108eb6108e536600461089c565b906112a4565b6108f3610162565b806108fd81610348565b0390f35b610168565b346109345761091e610919366004610256565b611302565b610926610162565b8061093081610348565b0390f35b610168565b3461096a5761096661095561094f3660046103cb565b9061130d565b61095d610162565b918291826101d2565b0390f35b610168565b67ffffffffffffffff811161098d576109896020916105dd565b0190565b6105e7565b909291926109a76109a28261096f565b610624565b938185526020850190828401116109c3576109c192610664565b565b61063d565b9080601f830112156109e6578160206109e393359101610992565b90565b610380565b90602082820312610a1b575f82013567ffffffffffffffff8111610a1657610a1392016109c8565b90565b610170565b61016c565b34610a4e57610a38610a333660046109eb565b61139f565b610a40610162565b80610a4a81610348565b0390f35b610168565b34610a8357610a63366004610435565b610a7f610a6e6113aa565b610a76610162565b918291826102fb565b0390f35b610168565b34610ab657610aa0610a9b366004610256565b6114a9565b610aa8610162565b80610ab281610348565b0390f35b610168565b1c90565b60018060a01b031690565b610ada906008610adf9302610abb565b610abf565b90565b90610aed9154610aca565b90565b610afc60655f90610ae2565b90565b34610b2f57610b0f366004610435565b610b2b610b1a610af0565b610b22610162565b91829182610475565b0390f35b610168565b909182601f83011215610b6e5781359167ffffffffffffffff8311610b69576020019260208302840111610b6457565b610388565b610384565b610380565b90602082820312610ba4575f82013567ffffffffffffffff8111610b9f57610b9b9201610b34565b9091565b610170565b61016c565b34610bd857610bc2610bbc366004610b73565b906114d4565b610bca610162565b80610bd481610348565b0390f35b610168565b5f80fd5b5f90565b5f80fd5b5f80fd5b5f80fd5b903590600160200381360303821215610c33570180359067ffffffffffffffff8211610c2e57602001916001820236038313610c2957565b610bed565b610be9565b610be5565b610c4391369161066f565b90565b60200190565b5190565b90565b610c67610c62610c6c9261021c565b610c50565b61021c565b90565b610c7890610c53565b90565b610c8490610c6f565b90565b610c9090610c53565b90565b610c9c90610c87565b90565b5f80fd5b60e01b90565b63ffffffff60e01b1690565b610cbe81610ca9565b03610cc557565b5f80fd5b90505190610cd682610cb5565b565b90602082820312610cf157610cee915f01610cc9565b90565b61016c565b610cff906106c8565b9052565b60209181520190565b9190610d2681610d1f81610d2b95610d03565b8095610664565b6105dd565b0190565b91610d54939192610d4760408201945f830190610cf6565b6020818503910152610d0c565b90565b610d5f610162565b3d5f823e3d90fd5b610d6f610be1565b50610e1a6020610da6610d8e610d88855f810190610bf1565b90610c38565b610da0610d9a82610c4c565b91610c46565b2061155b565b92630b135d3f60e11b93610e0f610de4610ddf7f0000000000000000000000000000000000000000000000000000000000000000610c7b565b610c93565b91610df8631626ba7e919486810190610bf1565b610e03979197610162565b97889687958695610ca3565b855260048501610d2f565b03915afa908115610e7257610e4091610e3a915f91610e44575b50610ca9565b91610ca9565b1490565b610e65915060203d8111610e6b575b610e5d81836105fb565b810190610cd8565b5f610e34565b503d610e53565b610d57565b606090565b610e8e90610e88610e77565b50611aba565b90565b610ea290610e9d611e2a565b610ea4565b565b610ead90611ec8565b565b610eb890610e91565b565b60209181520190565b5f7f496e76616c6964207369676e6174757265000000000000000000000000000000910152565b610ef76011602092610eba565b610f0081610ec3565b0190565b610f199060208101905f818303910152610eea565b90565b15610f2357565b610f2b610162565b62461bcd60e51b815280610f4160048201610f04565b0390fd5b90565b610f5c610f57610f6192610f45565b610c50565b6106ee565b90565b6001610f7091016106ee565b90565b5090565b634e487b7160e01b5f52603260045260245ffd5b903590600160400381360303821215610fa2570190565b610be5565b90821015610fc1576020610fbe9202810190610f8b565b90565b610f77565b919091610fdc610fd782859061130d565b610f1c565b610fe55f610f48565b5b80611003610ffd610ff8858890610f73565b6106ee565b916106ee565b10156110545761104f9061104a61102861101f85888591610fa7565b5f810190610bf1565b90611042611038878a8791610fa7565b6020810190610bf1565b929091611f79565b610f64565b610fe6565b50509050565b611062611e2a565b61106a611094565b565b61108061107b61108592610f45565b610c50565b61021c565b90565b6110919061106c565b90565b6110a56110a05f611088565b61202e565b565b6110af61105a565b565b5f90565b5f1c90565b6110c66110cb916110b5565b610abf565b90565b6110d890546110ba565b90565b6110e36110b1565b506110ee60336110ce565b90565b60407f6b65526567697374727900000000000000000000000000000000000000000000917f4543445341536572766963654d616e61676572426173652e6f6e6c795374616b5f8201527f6552656769737472793a2063616c6c6572206973206e6f74207468652073746160208201520152565b611171604a606092610eba565b61117a816110f1565b0190565b6111939060208101905f818303910152611164565b90565b1561119d57565b6111a5610162565b62461bcd60e51b8152806111bb6004820161117e565b0390fd5b9061120591611200336111fa6111f47f0000000000000000000000000000000000000000000000000000000000000000610227565b91610227565b14611196565b611207565b565b9061121191612177565b565b9061121d916111bf565b565b6112516112599161123761123282610d67565b610f1c565b611244815f810190610bf1565b9290916020810190610bf1565b929091611f79565b565b61126c90611267611e2a565b61126e565b565b6112779061224c565b565b6112829061125b565b565b90611296916112916123ca565b611298565b565b906112a291612a99565b565b906112ae91611284565b565b6112f5906112f0336112ea6112e47f0000000000000000000000000000000000000000000000000000000000000000610227565b91610227565b14611196565b6112f7565b565b61130090612e43565b565b61130b906112b0565b565b611315610be1565b5061131f5f610f48565b5b8061133d611337611332858790610f73565b6106ee565b916106ee565b10156113795761136061135a61135584868591610fa7565b610d67565b156101c0565b6113725761136d90610f64565b611320565b5050505f90565b505050600190565b6113929061138d611e2a565b611394565b565b61139d90612f40565b565b6113a890611381565b565b6113b2610e77565b506113bb612ff0565b90565b6113cf906113ca611e2a565b611479565b565b60207f6464726573730000000000000000000000000000000000000000000000000000917f4f776e61626c653a206e6577206f776e657220697320746865207a65726f20615f8201520152565b61142b6026604092610eba565b611434816113d1565b0190565b61144d9060208101905f81830391015261141e565b90565b1561145757565b61145f610162565b62461bcd60e51b81528061147560048201611438565b0390fd5b6114a7906114a28161149b6114956114905f611088565b610227565b91610227565b1415611450565b61202e565b565b6114b2906113be565b565b906114c6916114c16123ca565b6114c8565b565b906114d2916132a4565b565b906114de916114b4565b565b5f90565b905090565b5f7f19457468657265756d205369676e6564204d6573736167653a0a333200000000910152565b61151c601c80926114e4565b611525816114e9565b0190565b90565b61153861153d916106c8565b611529565b9052565b90611557611550602093611510565b809261152c565b0190565b61158e61157f9161156a6114e0565b50611573610162565b92839160208301611541565b602082018103825203826105fb565b6115a061159a82610c4c565b91610c46565b2090565b67ffffffffffffffff81116115bc5760208091020190565b6105e7565b6115ca90610227565b90565b6115d6816115c1565b036115dd57565b5f80fd5b905051906115ee826115cd565b565b6bffffffffffffffffffffffff1690565b61160a816115f0565b0361161157565b5f80fd5b9050519061162282611601565b565b919060408382031261165e576116579061163e6040610624565b9361164b825f83016115e1565b5f860152602001611615565b6020830152565b6105d9565b90929192611678611673826115a4565b610624565b9381855260406020860192028301928184116116b757915b83831061169d5750505050565b60206040916116ac8486611624565b815201920191611690565b610388565b9080601f830112156116da578160206116d793519101611663565b90565b610380565b91909160208184031261171f576116f66020610624565b925f82015167ffffffffffffffff811161171a5761171492016116bc565b5f830152565b610639565b6105d9565b90602082820312611754575f82015167ffffffffffffffff811161174f5761174c92016116df565b90565b610170565b61016c565b5190565b67ffffffffffffffff81116117755760208091020190565b6105e7565b9061178c6117878361175d565b610624565b918252565b369037565b906117bb6117a38361177a565b926020806117b1869361175d565b9201910390611791565b565b5f90565b906117cb82611759565b8110156117dc576020809102010190565b610f77565b6117eb90516115c1565b90565b5190565b906117fc826117ee565b81101561180d576020809102010190565b610f77565b9061181c906115c1565b9052565b61182990610c53565b90565b61183590611820565b90565b61184190610c87565b90565b67ffffffffffffffff811161185c5760208091020190565b6105e7565b9050519061186e826106f1565b565b9092919261188561188082611844565b610624565b93818552602080860192028301928184116118c257915b8383106118a95750505050565b602080916118b78486611861565b81520192019161189c565b610388565b9080601f830112156118e5578160206118e293519101611870565b90565b610380565b9060208282031261191a575f82015167ffffffffffffffff81116119155761191292016118c7565b90565b610170565b61016c565b60200190565b61192e90610c87565b90565b61193a90611925565b9052565b9061194b81602093611931565b0190565b60200190565b9061197261196c611965846117ee565b8093610278565b9261191f565b905f5b8181106119825750505090565b90919261199b611995600192865161193e565b9461194f565b9101919091611975565b916119c8926119bb60408201935f830190610468565b6020818403910152611955565b90565b5190565b906119d9826119cb565b8110156119ea576020809102010190565b610f77565b6119f990516106ee565b90565b634e487b7160e01b5f52601160045260245ffd5b611a19906106ee565b5f198114611a275760010190565b6119fc565b67ffffffffffffffff8111611a445760208091020190565b6105e7565b90611a5b611a5683611a2c565b610624565b918252565b369037565b90611a8a611a7283611a49565b92602080611a808693611a2c565b9201910390611a60565b565b90611a9682610274565b811015611aa7576020809102010190565b610f77565b90611ab690610227565b9052565b611ac2610e77565b50611b0e5f611af8611af37f0000000000000000000000000000000000000000000000000000000000000000610c7b565b610c93565b631703a01890611b06610162565b938492610ca3565b82528180611b1e60048201610348565b03915afa908115611da4575f91611d82575b5091611b3e5f840151611759565b611b4781611796565b91611b506117bd565b5b80611b64611b5e856106ee565b916106ee565b1015611ba657611ba190611b9c611b8a5f611b83818b015185906117c1565b51016117e1565b611b9787918490926117f2565b611812565b610f64565b611b51565b50929093505f611bdd611bd87f000000000000000000000000000000000000000000000000000000000000000061182c565b611838565b63900413479290611c008594611c0b611bf4610162565b96879586948594610ca3565b8452600484016119a5565b03915afa908115611d7d575f91611d5b575b5092611c276117bd565b91611c306117bd565b5b80611c44611c3e856106ee565b916106ee565b1015611c9857611c5d611c588783906119cf565b6119ef565b611c6f611c695f610f48565b916106ee565b11611c83575b611c7e90610f64565b611c31565b92611c90611c7e91611a10565b939050611c75565b5091611ca690939193611a65565b91611caf6117bd565b91611cb95f610f48565b5b80611ccd611cc7886106ee565b916106ee565b1015611d5157611ce6611ce18883906119cf565b6119ef565b611cf8611cf25f610f48565b916106ee565b11611d0c575b611d0790610f64565b611cba565b92611d49611d0791611d44611d32611d2d611d28888a906117f2565b6117e1565b611925565b611d3f8991849092611a8c565b611aac565b611a10565b939050611cfe565b5094505050905090565b611d7791503d805f833e611d6f81836105fb565b8101906118ea565b5f611c1d565b610d57565b611d9e91503d805f833e611d9681836105fb565b810190611724565b5f611b30565b610d57565b5f7f4f776e61626c653a2063616c6c6572206973206e6f7420746865206f776e6572910152565b611ddc60208092610eba565b611de581611da9565b0190565b611dfe9060208101905f818303910152611dd0565b90565b15611e0857565b611e10610162565b62461bcd60e51b815280611e2660048201611de9565b0390fd5b611e54611e356110db565b611e4e611e48611e436135d8565b610227565b91610227565b14611e01565b565b916020611e77929493611e7060408201965f830190610468565b0190610468565b565b5f1b90565b90611e8f60018060a01b0391611e79565b9181191691161790565b611ea290610c87565b90565b90565b90611ebd611eb8611ec492611e99565b611ea5565b8254611e7e565b9055565b611f1790611ed660656110ce565b817fe11cddf1816a43318ca175bbc52cd0185436e9cbead7c83acc54a73e461717e391611f0d611f04610162565b92839283611e56565b0390a16065611ea8565b565b611f2290610c53565b90565b611f2e90611f19565b90565b611f3a90610c87565b90565b5f910312611f4757565b61016c565b9290611f6890611f76959360408601918683035f880152610d0c565b926020818503910152610d0c565b90565b9192611fac611fa77f0000000000000000000000000000000000000000000000000000000000000000611f25565b611f31565b906273e1d793929490823b15612029575f94611fe68692611fdb94611fcf610162565b998a9889978896610ca3565b865260048601611f4c565b03925af1801561202457611ff8575b50565b612017905f3d811161201d575b61200f81836105fb565b810190611f3d565b5f611ff5565b503d612005565b610d57565b610c9f565b61203860336110ce565b612043826033611ea8565b906120776120717f8be0079c531659141344cd1fd0a4f28419497f9722a3daafe3b4186f6b6457e093611e99565b91611e99565b91612080610162565b8061208a81610348565b0390a3565b61209890610c53565b90565b6120a49061208f565b90565b6120b090610c87565b90565b60209181520190565b90825f9392825e0152565b6120e66120ef6020936120f4936120dd81610c4c565b938480936120b3565b958691016120bc565b6105dd565b0190565b612101906106c8565b9052565b61210e906106ee565b9052565b9061214e90604080612131606084015f8701518582035f8701526120c7565b94612144602082015160208601906120f8565b0151910190612105565b90565b916121749261216760408201935f830190610468565b6020818403910152612112565b90565b6121a86121a37f000000000000000000000000000000000000000000000000000000000000000061209b565b6120a7565b91639926ee7d919092803b15612223576121d55f80946121e06121c9610162565b97889687958694610ca3565b845260048401612151565b03925af1801561221e576121f2575b50565b612211905f3d8111612217575b61220981836105fb565b810190611f3d565b5f6121ef565b503d6121ff565b610d57565b610c9f565b61223190610c53565b90565b61223d90612228565b90565b61224990610c87565b90565b61227d6122787f0000000000000000000000000000000000000000000000000000000000000000612234565b612240565b9063a0169ddd90823b156122f7576122b4926122a95f809461229d610162565b96879586948593610ca3565b835260048301610475565b03925af180156122f2576122c6575b50565b6122e5905f3d81116122eb575b6122dd81836105fb565b810190611f3d565b5f6122c3565b503d6122d3565b610d57565b610c9f565b60407f7265776172647320696e69746961746f72000000000000000000000000000000917f4543445341536572766963654d616e61676572426173652e6f6e6c79526577615f8201527f726473496e69746961746f723a2063616c6c6572206973206e6f74207468652060208201520152565b61237c6051606092610eba565b612385816122fc565b0190565b61239e9060208101905f81830391015261236f565b90565b156123a857565b6123b0610162565b62461bcd60e51b8152806123c660048201612389565b0390fd5b6123ef336123e96123e36123de60656110ce565b610227565b91610227565b146123a1565b565b5090565b903590600160c0038136030382121561240c570190565b610be5565b9082101561242b57602061242892028101906123f5565b90565b610f77565b903590600160200381360303821215612472570180359067ffffffffffffffff821161246d5760200191604082023603831361246857565b610bed565b610be9565b610be5565b5090565b919081101561248b576040020190565b610f77565b3561249a816106f1565b90565b6124ac6124b2919392936106ee565b926106ee565b82018092116124bd57565b6119fc565b6124cb90610227565b90565b6124d7816124c2565b036124de57565b5f80fd5b356124ec816124ce565b90565b6124f890610c87565b90565b61250490610c87565b90565b612510816101c0565b0361251757565b5f80fd5b9050519061252882612507565b565b9060208282031261254357612540915f0161251b565b90565b61016c565b612551906106ee565b9052565b60409061257e612585949695939661257460608401985f850190610468565b6020830190610468565b0190612548565b565b906020828203126125a05761259d915f01611861565b90565b61016c565b9160206125c69294936125bf60408201965f830190610468565b0190612548565b565b60209181520190565b90565b5f80fd5b5f80fd5b5f80fd5b903560016020038236030381121561262157016020813591019167ffffffffffffffff821161261c57604082023603831361261757565b6125d8565b6125d4565b6125dc565b60209181520190565b90565b9050359061263f826115cd565b565b50612650906020810190612632565b90565b9050359061266082611601565b565b50612671906020810190612653565b90565b61267d906115f0565b9052565b9060206126ac6126b4936126a361269a5f830183612641565b5f860190611931565b82810190612662565b910190612674565b565b906126c381604093612681565b0190565b5090565b60400190565b916126df826126e592612626565b9261262f565b90815f905b8282106126f8575050505090565b9091929361271a61271460019261270f88866126c7565b6126b6565b956126cb565b9201909291926126ea565b90503590612732826124ce565b565b50612743906020810190612725565b90565b61274f906124ef565b9052565b903560016020038236030381121561279457016020813591019167ffffffffffffffff821161278f57604082023603831361278a57565b6125d8565b6125d4565b6125dc565b60209181520190565b90565b506127b4906020810190610247565b90565b506127c6906020810190610705565b90565b9060206127f46127fc936127eb6127e25f8301836127a5565b5f860190610287565b828101906127b7565b910190612105565b565b9061280b816040936127c9565b0190565b5090565b60400190565b916128278261282d92612799565b926127a2565b90815f905b828210612840575050505090565b9091929361286261285c600192612857888661280f565b6127fe565b95612813565b920190929192612832565b63ffffffff1690565b61287f8161286d565b0361288657565b5f80fd5b9050359061289782612876565b565b506128a890602081019061288a565b90565b6128b49061286d565b9052565b90356001602003823603038112156128f957016020813591019167ffffffffffffffff82116128f45760018202360383136128ef57565b6125d8565b6125d4565b6125dc565b60209181520190565b91906129218161291a81612926956128fe565b8095610664565b6105dd565b0190565b6129d6916129c861298961295460c084016129475f8701876125e0565b908683035f8801526126d1565b61296e6129646020870187612734565b6020860190612746565b61297b6040860186612753565b908583036040870152612819565b926129a461299a6060830183612899565b60608501906128ab565b6129be6129b46080830183612899565b60808501906128ab565b60a08101906128b8565b9160a0818503910152612907565b90565b906129e39161292a565b90565b9035600160c003823603038112156129fc570190565b6125dc565b60200190565b9181612a12916125c8565b9081612a23602083028401946125d1565b92835f925b848410612a385750505050505090565b9091929394956020612a63612a5d8385600195038852612a588b886129e6565b6129d9565b98612a01565b940194019294939190612a28565b91612a96939192612a8960408201945f830190610468565b6020818503910152612a07565b90565b91612aa35f610f48565b915b82612ac2612abc612ab78785906123f1565b6106ee565b916106ee565b1015612d8457612ad15f610f48565b612ada5f610f48565b905b81612b10612b0a612b05612aff612af58b898c91612411565b6040810190612430565b90612477565b6106ee565b916106ee565b1015612b5d57612b51612b5791612b4b6020612b45612b3e612b348c8a8d91612411565b6040810190612430565b889161247b565b01612490565b9061249d565b91610f64565b90612adc565b9192939050612b81612b7c6020612b7688878691612411565b016124e2565b6124ef565b60206323b872dd913390612bb15f612b98306124fb565b95612bbc89612ba5610162565b98899788968795610ca3565b855260048501612555565b03925af18015612d7f57612d53575b50612beb612be66020612be088878691612411565b016124e2565b6124ef565b602063dd62ed3e91612bfc306124fb565b90612c397f000000000000000000000000000000000000000000000000000000000000000094612c44612c2d610162565b96879586948594610ca3565b845260048401611e56565b03915afa8015612d4e576020915f91612d21575b5092612c78612c7383612c6d8a898891612411565b016124e2565b6124ef565b612cc45f612cac63095ea7b3977f00000000000000000000000000000000000000000000000000000000000000009561249d565b96612ccf612cb8610162565b98899687958694610ca3565b8452600484016125a5565b03925af1918215612d1c57612ce992612cf0575b50610f64565b9190612aa5565b612d109060203d8111612d15575b612d0881836105fb565b81019061252a565b612ce3565b503d612cfe565b610d57565b612d419150823d8111612d47575b612d3981836105fb565b810190612587565b5f612c58565b503d612d2f565b610d57565b612d739060203d8111612d78575b612d6b81836105fb565b81019061252a565b612bcb565b503d612d61565b610d57565b915091612db8612db37f0000000000000000000000000000000000000000000000000000000000000000612234565b612240565b90639cb9a5fa91612dc8306124fb565b919392813b15612e3e575f612df091612dfb8296612de4610162565b98899788968795610ca3565b855260048501612a71565b03925af18015612e3957612e0d575b50565b612e2c905f3d8111612e32575b612e2481836105fb565b810190611f3d565b5f612e0a565b503d612e1a565b610d57565b610c9f565b612e74612e6f7f000000000000000000000000000000000000000000000000000000000000000061209b565b6120a7565b9063a364f4da90823b15612eee57612eab92612ea05f8094612e94610162565b96879586948593610ca3565b835260048301610475565b03925af18015612ee957612ebd575b50565b612edc905f3d8111612ee2575b612ed481836105fb565b810190611f3d565b5f612eba565b503d612eca565b610d57565b610c9f565b5190565b612f16612f1f602093612f2493612f0d81612ef3565b93848093610eba565b958691016120bc565b6105dd565b0190565b612f3d9160208201915f818403910152612ef7565b90565b612f71612f6c7f000000000000000000000000000000000000000000000000000000000000000061209b565b6120a7565b9063a98fb35590823b15612feb57612fa892612f9d5f8094612f91610162565b96879586948593610ca3565b835260048301612f28565b03925af18015612fe657612fba575b50565b612fd9905f3d8111612fdf575b612fd181836105fb565b810190611f3d565b5f612fb7565b503d612fc7565b610d57565b610c9f565b612ff8610e77565b506130445f61302e6130297f0000000000000000000000000000000000000000000000000000000000000000610c7b565b610c93565b631703a0189061303c610162565b938492610ca3565b8252818061305460048201610348565b03915afa908115613115575f916130f3575b5061307b6130765f830151611759565b611a65565b906130855f610f48565b5b806130a461309e6130995f860151611759565b6106ee565b916106ee565b10156130ee576130e9906130e46130d26130cd5f6130c68188015186906117c1565b51016117e1565b611925565b6130df8691849092611a8c565b611aac565b610f64565b613086565b505090565b61310f91503d805f833e61310781836105fb565b810190611724565b5f613066565b610d57565b5090565b903590600160a00381360303821215613135570190565b610be5565b90821015613154576020613151920281019061311e565b90565b610f77565b60209181520190565b90565b906131ef9060806131e761318f60a084016131825f8801886125e0565b908683035f8801526126d1565b946131aa6131a06020830183612734565b6020860190612746565b6131c46131ba60408301836127b7565b6040860190612105565b6131de6131d46060830183612899565b60608601906128ab565b82810190612899565b9101906128ab565b90565b906131fc91613165565b90565b9035600160a00382360303811215613215570190565b6125dc565b60200190565b918161322b91613159565b908161323c60208302840194613162565b92835f925b8484106132515750505050505090565b909192939495602061327c61327683856001950388526132718b886131ff565b6131f2565b9861321a565b940194019294939190613241565b90916132a19260208301925f818503910152613220565b90565b9190916132b05f610f48565b5b806132ce6132c86132c385889061311a565b6106ee565b916106ee565b1015613523578360206132f56132f0826132ea8786889161313a565b016124e2565b6124ef565b6323b872dd906133395f3393613344613325604061331f613315306124fb565b9a8d908d9161313a565b01612490565b61332d610162565b98899788968795610ca3565b855260048501612555565b03925af1801561351e576134f2575b5061337361336e60206133688588869161313a565b016124e2565b6124ef565b602063dd62ed3e91613384306124fb565b906133c17f0000000000000000000000000000000000000000000000000000000000000000946133cc6133b5610162565b96879586948594610ca3565b845260048401611e56565b03915afa9081156134ed575f916134bf575b50906020856134016133fc836133f68885889161313a565b016124e2565b6124ef565b6134645f61344c63095ea7b39761344760406134417f0000000000000000000000000000000000000000000000000000000000000000988d908c9161313a565b01612490565b61249d565b9661346f613458610162565b98899687958694610ca3565b8452600484016125a5565b03925af19182156134ba576134899261348e575b50610f64565b6132b1565b6134ae9060203d81116134b3575b6134a681836105fb565b81019061252a565b613483565b503d61349c565b610d57565b6134e0915060203d81116134e6575b6134d881836105fb565b810190612587565b5f6133de565b503d6134ce565b610d57565b6135129060203d8111613517575b61350a81836105fb565b81019061252a565b613353565b503d613500565b610d57565b509190916135586135537f0000000000000000000000000000000000000000000000000000000000000000612234565b612240565b9163fce36c7d919092803b156135d3576135855f8094613590613579610162565b97889687958694610ca3565b84526004840161328a565b03925af180156135ce576135a2575b50565b6135c1905f3d81116135c7575b6135b981836105fb565b810190611f3d565b5f61359f565b503d6135af565b610d57565b610c9f565b6135e06110b1565b50339056fea2646970667358221220dd375411f2688a8098bbcea1063dc85f48c1aca70432f0f3f93e33bcfb28171664736f6c634300081a0033","linkReferences":{}},"methodIdentifiers":{"addPayload((bytes,bytes))":"9aa9fda5","addPayloadMulti((bytes,bytes)[])":"63710c05","avsDirectory()":"6b3aa72e","createAVSRewardsSubmission(((address,uint96)[],address,uint256,uint32,uint32)[])":"fce36c7d","createOperatorDirectedAVSRewardsSubmission(((address,uint96)[],address,(address,uint256)[],uint32,uint32,string)[])":"a20b99bf","deregisterOperatorFromAVS(address)":"a364f4da","getOperatorRestakedStrategies(address)":"33cfb7b7","getRestakeableStrategies()":"e481af9d","owner()":"8da5cb5b","registerOperatorToAVS(address,(bytes,bytes32,uint256))":"9926ee7d","renounceOwnership()":"715018a6","rewardsInitiator()":"fc299dee","serviceHandler()":"92e20e5e","setClaimerFor(address)":"a0169ddd","setRewardsInitiator(address)":"3bc28c8c","stakeRegistry()":"68304835","transferOwnership(address)":"f2fde38b","updateAVSMetadataURI(string)":"a98fb355","validatePayload((bytes,bytes))":"216a3e9a","validatePayloadMulti((bytes,bytes)[])":"a71f8da0"},"id":0}