{"abi":[{"type":"constructor","inputs":[{"name":"_avsDirectory","type":"address","internalType":"address"},{"name":"_stakeRegistry","type":"address","internalType":"address"},{"name":"_rewardsCoordinator","type":"address","internalType":"address"},{"name":"_delegationManager","type":"address","internalType":"address"},{"name":"_payloadHandler","type":"address","internalType":"address"}],"stateMutability":"nonpayable"},{"type":"function","name":"addPayload","inputs":[{"name":"signedPayload","type":"tuple","internalType":"struct ILayerServiceManager.SignedPayload","components":[{"name":"data","type":"bytes","internalType":"bytes"},{"name":"signature","type":"bytes","internalType":"bytes"}]}],"outputs":[],"stateMutability":"nonpayable"},{"type":"function","name":"addPayloadMulti","inputs":[{"name":"signedPayloads","type":"tuple[]","internalType":"struct ILayerServiceManager.SignedPayload[]","components":[{"name":"data","type":"bytes","internalType":"bytes"},{"name":"signature","type":"bytes","internalType":"bytes"}]}],"outputs":[],"stateMutability":"nonpayable"},{"type":"function","name":"avsDirectory","inputs":[],"outputs":[{"name":"","type":"address","internalType":"address"}],"stateMutability":"view"},{"type":"function","name":"createAVSRewardsSubmission","inputs":[{"name":"rewardsSubmissions","type":"tuple[]","internalType":"struct IRewardsCoordinator.RewardsSubmission[]","components":[{"name":"strategiesAndMultipliers","type":"tuple[]","internalType":"struct IRewardsCoordinator.StrategyAndMultiplier[]","components":[{"name":"strategy","type":"address","internalType":"contract IStrategy"},{"name":"multiplier","type":"uint96","internalType":"uint96"}]},{"name":"token","type":"address","internalType":"contract IERC20"},{"name":"amount","type":"uint256","internalType":"uint256"},{"name":"startTimestamp","type":"uint32","internalType":"uint32"},{"name":"duration","type":"uint32","internalType":"uint32"}]}],"outputs":[],"stateMutability":"nonpayable"},{"type":"function","name":"createOperatorDirectedAVSRewardsSubmission","inputs":[{"name":"operatorDirectedRewardsSubmissions","type":"tuple[]","internalType":"struct IRewardsCoordinator.OperatorDirectedRewardsSubmission[]","components":[{"name":"strategiesAndMultipliers","type":"tuple[]","internalType":"struct IRewardsCoordinator.StrategyAndMultiplier[]","components":[{"name":"strategy","type":"address","internalType":"contract IStrategy"},{"name":"multiplier","type":"uint96","internalType":"uint96"}]},{"name":"token","type":"address","internalType":"contract IERC20"},{"name":"operatorRewards","type":"tuple[]","internalType":"struct IRewardsCoordinator.OperatorReward[]","components":[{"name":"operator","type":"address","internalType":"address"},{"name":"amount","type":"uint256","internalType":"uint256"}]},{"name":"startTimestamp","type":"uint32","internalType":"uint32"},{"name":"duration","type":"uint32","internalType":"uint32"},{"name":"description","type":"string","internalType":"string"}]}],"outputs":[],"stateMutability":"nonpayable"},{"type":"function","name":"deregisterOperatorFromAVS","inputs":[{"name":"operator","type":"address","internalType":"address"}],"outputs":[],"stateMutability":"nonpayable"},{"type":"function","name":"getOperatorRestakedStrategies","inputs":[{"name":"_operator","type":"address","internalType":"address"}],"outputs":[{"name":"","type":"address[]","internalType":"address[]"}],"stateMutability":"view"},{"type":"function","name":"getRestakeableStrategies","inputs":[],"outputs":[{"name":"","type":"address[]","internalType":"address[]"}],"stateMutability":"view"},{"type":"function","name":"owner","inputs":[],"outputs":[{"name":"","type":"address","internalType":"address"}],"stateMutability":"view"},{"type":"function","name":"payloadHandler","inputs":[],"outputs":[{"name":"","type":"address","internalType":"address"}],"stateMutability":"view"},{"type":"function","name":"registerOperatorToAVS","inputs":[{"name":"operator","type":"address","internalType":"address"},{"name":"operatorSignature","type":"tuple","internalType":"struct ISignatureUtils.SignatureWithSaltAndExpiry","components":[{"name":"signature","type":"bytes","internalType":"bytes"},{"name":"salt","type":"bytes32","internalType":"bytes32"},{"name":"expiry","type":"uint256","internalType":"uint256"}]}],"outputs":[],"stateMutability":"nonpayable"},{"type":"function","name":"renounceOwnership","inputs":[],"outputs":[],"stateMutability":"nonpayable"},{"type":"function","name":"rewardsInitiator","inputs":[],"outputs":[{"name":"","type":"address","internalType":"address"}],"stateMutability":"view"},{"type":"function","name":"setClaimerFor","inputs":[{"name":"claimer","type":"address","internalType":"address"}],"outputs":[],"stateMutability":"nonpayable"},{"type":"function","name":"setRewardsInitiator","inputs":[{"name":"newRewardsInitiator","type":"address","internalType":"address"}],"outputs":[],"stateMutability":"nonpayable"},{"type":"function","name":"stakeRegistry","inputs":[],"outputs":[{"name":"","type":"address","internalType":"address"}],"stateMutability":"view"},{"type":"function","name":"transferOwnership","inputs":[{"name":"newOwner","type":"address","internalType":"address"}],"outputs":[],"stateMutability":"nonpayable"},{"type":"function","name":"updateAVSMetadataURI","inputs":[{"name":"_metadataURI","type":"string","internalType":"string"}],"outputs":[],"stateMutability":"nonpayable"},{"type":"function","name":"validatePayload","inputs":[{"name":"signedPayload","type":"tuple","internalType":"struct ILayerServiceManager.SignedPayload","components":[{"name":"data","type":"bytes","internalType":"bytes"},{"name":"signature","type":"bytes","internalType":"bytes"}]}],"outputs":[{"name":"","type":"bool","internalType":"bool"}],"stateMutability":"view"},{"type":"function","name":"validatePayloadMulti","inputs":[{"name":"signedPayloads","type":"tuple[]","internalType":"struct ILayerServiceManager.SignedPayload[]","components":[{"name":"data","type":"bytes","internalType":"bytes"},{"name":"signature","type":"bytes","internalType":"bytes"}]}],"outputs":[{"name":"","type":"bool","internalType":"bool"}],"stateMutability":"view"},{"type":"event","name":"Initialized","inputs":[{"name":"version","type":"uint8","indexed":false,"internalType":"uint8"}],"anonymous":false},{"type":"event","name":"OwnershipTransferred","inputs":[{"name":"previousOwner","type":"address","indexed":true,"internalType":"address"},{"name":"newOwner","type":"address","indexed":true,"internalType":"address"}],"anonymous":false},{"type":"event","name":"RewardsInitiatorUpdated","inputs":[{"name":"prevRewardsInitiator","type":"address","indexed":false,"internalType":"address"},{"name":"newRewardsInitiator","type":"address","indexed":false,"internalType":"address"}],"anonymous":false},{"type":"error","name":"InvalidSignature","inputs":[]}],"bytecode":{"object":"0x610100604052346100ba5761001e6100156101b7565b9392909261030c565b6100266100bf565b6135ef610570823960805181818161044601528181610da6015281816111bb015281816112ab01528181611aba0152612fd9015260a0518181816104c10152818161215301528181612e1f0152612f1c015260c05181818161222801528181612bd601528181612c5b01528181612d630152818161335e015281816133ec0152613503015260e05181611b9f01526135ef90f35b6100c5565b60405190565b5f80fd5b601f801991011690565b634e487b7160e01b5f52604160045260245ffd5b906100f1906100c9565b810190811060018060401b0382111761010957604052565b6100d3565b9061012161011a6100bf565b92836100e7565b565b5f80fd5b60018060a01b031690565b61013b90610127565b90565b61014781610132565b0361014e57565b5f80fd5b9050519061015f8261013e565b565b919060a0838203126101b257610179815f8501610152565b926101878260208301610152565b926101af6101988460408501610152565b936101a68160608601610152565b93608001610152565b90565b610123565b6101d5613b5f803803806101ca8161010e565b928339810190610161565b9091929394565b90565b90565b6101f66101f16101fb926101dc565b6101df565b610127565b90565b610207906101e2565b90565b60209181520190565b5f7f496e76616c6964207061796c6f61642068616e646c6572206164647265737300910152565b610247601f60209261020a565b61025081610213565b0190565b6102699060208101905f81830391015261023a565b90565b1561027357565b61027b6100bf565b62461bcd60e51b81528061029160048201610254565b0390fd5b5f1b90565b906102ab60018060a01b0391610295565b9181191691161790565b6102c96102c46102ce92610127565b6101df565b610127565b90565b6102da906102b5565b90565b6102e6906102d1565b90565b90565b906103016102fc610308926102dd565b6102e9565b825461029a565b9055565b9261031f9261034b95949290919261034d565b6103448161033d6103376103325f6101fe565b610132565b91610132565b141561026c565b60976102ec565b565b60a05260805260c05260e0526103616104e6565b565b60081c90565b60ff1690565b61037b61038091610363565b610369565b90565b61038d905461036f565b90565b151590565b60207f616c697a696e6700000000000000000000000000000000000000000000000000917f496e697469616c697a61626c653a20636f6e747261637420697320696e6974695f8201520152565b6103ef602760409261020a565b6103f881610395565b0190565b6104119060208101905f8183039101526103e2565b90565b1561041b57565b6104236100bf565b62461bcd60e51b815280610439600482016103fc565b0390fd5b5f1c90565b60ff1690565b6104546104599161043d565b610442565b90565b6104669054610448565b90565b60ff1690565b9061047b60ff91610295565b9181191691161790565b61049961049461049e92610469565b6101df565b610469565b90565b90565b906104b96104b46104c092610485565b6104a1565b825461046f565b9055565b6104cd90610469565b9052565b91906104e4905f602085019401906104c4565b565b6105006104fb6104f55f610383565b15610390565b610414565b6105095f61045c565b61051c61051660ff610469565b91610469565b10610524575b565b61052f60ff5f6104a4565b60ff6105677f7f26b83ff96e1f2b6a682f133852f6798a09c465da95921460cefb38474024989161055e6100bf565b918291826104d1565b0390a161052256fe60806040526004361015610013575b610bc8565b61001d5f3561015c565b8063216a3e9a1461015757806333cfb7b7146101525780633bc28c8c1461014d57806363710c051461014857806368304835146101435780636b3aa72e1461013e578063715018a6146101395780638da5cb5b146101345780639926ee7d1461012f5780639aa9fda51461012a578063a0169ddd14610125578063a20b99bf14610120578063a364f4da1461011b578063a71f8da014610116578063a98fb35514610111578063e481af9d1461010c578063eea8925d14610107578063f2fde38b14610102578063fc299dee146100fd5763fce36c7d0361000e57610b94565b610aea565b610aa8565b610a73565b6109fa565b6109c7565b6108e0565b6108ad565b610879565b6107d1565b61079e565b61076a565b61054b565b610518565b6104e3565b61048a565b610401565b61034d565b610313565b6101e7565b60e01c90565b60405190565b5f80fd5b5f80fd5b5f80fd5b5f80fd5b908160409103126101865790565b610174565b906020828203126101bb575f82013567ffffffffffffffff81116101b6576101b39201610178565b90565b610170565b61016c565b151590565b6101ce906101c0565b9052565b91906101e5905f602085019401906101c5565b565b34610217576102136102026101fd36600461018b565b610d52565b61020a610162565b918291826101d2565b0390f35b610168565b60018060a01b031690565b6102309061021c565b90565b61023c81610227565b0361024357565b5f80fd5b9050359061025482610233565b565b9060208282031261026f5761026c915f01610247565b90565b61016c565b5190565b60209181520190565b60200190565b61029090610227565b9052565b906102a181602093610287565b0190565b60200190565b906102c86102c26102bb84610274565b8093610278565b92610281565b905f5b8181106102d85750505090565b9091926102f16102eb6001928651610294565b946102a5565b91019190916102cb565b6103109160208201915f8184039101526102ab565b90565b346103435761033f61032e610329366004610256565b610e67565b610336610162565b918291826102fb565b0390f35b610168565b5f0190565b3461037b57610365610360366004610256565b610e9a565b61036d610162565b8061037781610348565b0390f35b610168565b5f80fd5b5f80fd5b5f80fd5b909182601f830112156103c65781359167ffffffffffffffff83116103c15760200192602083028401116103bc57565b610388565b610384565b610380565b906020828203126103fc575f82013567ffffffffffffffff81116103f7576103f3920161038c565b9091565b610170565b61016c565b346104305761041a6104143660046103cb565b90610fb1565b610422610162565b8061042c81610348565b0390f35b610168565b5f91031261043f57565b61016c565b7f000000000000000000000000000000000000000000000000000000000000000090565b61047190610227565b9052565b9190610488905f60208501940190610468565b565b346104ba5761049a366004610435565b6104b66104a5610444565b6104ad610162565b91829182610475565b0390f35b610168565b7f000000000000000000000000000000000000000000000000000000000000000090565b34610513576104f3366004610435565b61050f6104fe6104bf565b610506610162565b91829182610475565b0390f35b610168565b3461054657610528366004610435565b610530611092565b610538610162565b8061054281610348565b0390f35b610168565b3461057b5761055b366004610435565b6105776105666110c6565b61056e610162565b91829182610475565b0390f35b610168565b5f80fd5b601f801991011690565b634e487b7160e01b5f52604160045260245ffd5b906105ac90610584565b810190811067ffffffffffffffff8211176105c657604052565b61058e565b906105de6105d7610162565b92836105a2565b565b5f80fd5b5f80fd5b67ffffffffffffffff811161060657610602602091610584565b0190565b61058e565b90825f939282370152565b9092919261062b610626826105e8565b6105cb565b93818552602085019082840111610647576106459261060b565b565b6105e4565b9080601f8301121561066a5781602061066793359101610616565b90565b610380565b90565b61067b8161066f565b0361068257565b5f80fd5b9050359061069382610672565b565b90565b6106a181610695565b036106a857565b5f80fd5b905035906106b982610698565b565b919091606081840312610720576106d260606105cb565b925f8201359167ffffffffffffffff831161071b576106f68261071494830161064c565b5f8601526107078260208301610686565b60208601526040016106ac565b6040830152565b6105e0565b610580565b9190916040818403126107655761073e835f8301610247565b92602082013567ffffffffffffffff81116107605761075d92016106bb565b90565b610170565b61016c565b346107995761078361077d366004610725565b906111fe565b61078b610162565b8061079581610348565b0390f35b610168565b346107cc576107b66107b136600461018b565b61120a565b6107be610162565b806107c881610348565b0390f35b610168565b346107ff576107e96107e4366004610256565b611264565b6107f1610162565b806107fb81610348565b0390f35b610168565b909182601f8301121561083e5781359167ffffffffffffffff831161083957602001926020830284011161083457565b610388565b610384565b610380565b90602082820312610874575f82013567ffffffffffffffff811161086f5761086b9201610804565b9091565b610170565b61016c565b346108a85761089261088c366004610843565b9061128f565b61089a610162565b806108a481610348565b0390f35b610168565b346108db576108c56108c0366004610256565b6112ed565b6108cd610162565b806108d781610348565b0390f35b610168565b346109115761090d6108fc6108f63660046103cb565b906112f8565b610904610162565b918291826101d2565b0390f35b610168565b67ffffffffffffffff811161093457610930602091610584565b0190565b61058e565b9092919261094e61094982610916565b6105cb565b9381855260208501908284011161096a576109689261060b565b565b6105e4565b9080601f8301121561098d5781602061098a93359101610939565b90565b610380565b906020828203126109c2575f82013567ffffffffffffffff81116109bd576109ba920161096f565b90565b610170565b61016c565b346109f5576109df6109da366004610992565b61138a565b6109e7610162565b806109f181610348565b0390f35b610168565b34610a2a57610a0a366004610435565b610a26610a15611395565b610a1d610162565b918291826102fb565b0390f35b610168565b1c90565b60018060a01b031690565b610a4e906008610a539302610a2f565b610a33565b90565b90610a619154610a3e565b90565b610a7060975f90610a56565b90565b34610aa357610a83366004610435565b610a9f610a8e610a64565b610a96610162565b91829182610475565b0390f35b610168565b34610ad657610ac0610abb366004610256565b611494565b610ac8610162565b80610ad281610348565b0390f35b610168565b610ae760655f90610a56565b90565b34610b1a57610afa366004610435565b610b16610b05610adb565b610b0d610162565b91829182610475565b0390f35b610168565b909182601f83011215610b595781359167ffffffffffffffff8311610b54576020019260208302840111610b4f57565b610388565b610384565b610380565b90602082820312610b8f575f82013567ffffffffffffffff8111610b8a57610b869201610b1f565b9091565b610170565b61016c565b34610bc357610bad610ba7366004610b5e565b906114bf565b610bb5610162565b80610bbf81610348565b0390f35b610168565b5f80fd5b5f90565b5f80fd5b5f80fd5b5f80fd5b903590600160200381360303821215610c1e570180359067ffffffffffffffff8211610c1957602001916001820236038313610c1457565b610bd8565b610bd4565b610bd0565b610c2e913691610616565b90565b60200190565b5190565b90565b610c52610c4d610c579261021c565b610c3b565b61021c565b90565b610c6390610c3e565b90565b610c6f90610c5a565b90565b610c7b90610c3e565b90565b610c8790610c72565b90565b5f80fd5b60e01b90565b63ffffffff60e01b1690565b610ca981610c94565b03610cb057565b5f80fd5b90505190610cc182610ca0565b565b90602082820312610cdc57610cd9915f01610cb4565b90565b61016c565b610cea9061066f565b9052565b60209181520190565b9190610d1181610d0a81610d1695610cee565b809561060b565b610584565b0190565b91610d3f939192610d3260408201945f830190610ce1565b6020818503910152610cf7565b90565b610d4a610162565b3d5f823e3d90fd5b610d5a610bcc565b50610e056020610d91610d79610d73855f810190610bdc565b90610c23565b610d8b610d8582610c37565b91610c31565b20611546565b92630b135d3f60e11b93610dfa610dcf610dca7f0000000000000000000000000000000000000000000000000000000000000000610c66565b610c7e565b91610de3631626ba7e919486810190610bdc565b610dee979197610162565b97889687958695610c8e565b855260048501610d1a565b03915afa908115610e5d57610e2b91610e25915f91610e2f575b50610c94565b91610c94565b1490565b610e50915060203d8111610e56575b610e4881836105a2565b810190610cc3565b5f610e1f565b503d610e3e565b610d42565b606090565b610e7990610e73610e62565b50611aa5565b90565b610e8d90610e88611e15565b610e8f565b565b610e9890611eb3565b565b610ea390610e7c565b565b60209181520190565b5f7f496e76616c6964207369676e6174757265000000000000000000000000000000910152565b610ee26011602092610ea5565b610eeb81610eae565b0190565b610f049060208101905f818303910152610ed5565b90565b15610f0e57565b610f16610162565b62461bcd60e51b815280610f2c60048201610eef565b0390fd5b90565b610f47610f42610f4c92610f30565b610c3b565b610695565b90565b6001610f5b9101610695565b90565b5090565b634e487b7160e01b5f52603260045260245ffd5b903590600160400381360303821215610f8d570190565b610bd0565b90821015610fac576020610fa99202810190610f76565b90565b610f62565b919091610fc7610fc28285906112f8565b610f07565b610fd05f610f33565b5b80610fee610fe8610fe3858890610f5e565b610695565b91610695565b101561103f5761103a9061103561101361100a85888591610f92565b5f810190610bdc565b9061102d611023878a8791610f92565b6020810190610bdc565b929091611f64565b610f4f565b610fd1565b50509050565b61104d611e15565b61105561107f565b565b61106b61106661107092610f30565b610c3b565b61021c565b90565b61107c90611057565b90565b61109061108b5f611073565b612002565b565b61109a611045565b565b5f90565b5f1c90565b6110b16110b6916110a0565b610a33565b90565b6110c390546110a5565b90565b6110ce61109c565b506110d960336110b9565b90565b60407f6b65526567697374727900000000000000000000000000000000000000000000917f4543445341536572766963654d616e61676572426173652e6f6e6c795374616b5f8201527f6552656769737472793a2063616c6c6572206973206e6f74207468652073746160208201520152565b61115c604a606092610ea5565b611165816110dc565b0190565b61117e9060208101905f81830391015261114f565b90565b1561118857565b611190610162565b62461bcd60e51b8152806111a660048201611169565b0390fd5b906111f0916111eb336111e56111df7f0000000000000000000000000000000000000000000000000000000000000000610227565b91610227565b14611181565b6111f2565b565b906111fc9161214b565b565b90611208916111aa565b565b61123c6112449161122261121d82610d52565b610f07565b61122f815f810190610bdc565b9290916020810190610bdc565b929091611f64565b565b61125790611252611e15565b611259565b565b61126290612220565b565b61126d90611246565b565b906112819161127c61239e565b611283565b565b9061128d91612a6d565b565b906112999161126f565b565b6112e0906112db336112d56112cf7f0000000000000000000000000000000000000000000000000000000000000000610227565b91610227565b14611181565b6112e2565b565b6112eb90612e17565b565b6112f69061129b565b565b611300610bcc565b5061130a5f610f33565b5b8061132861132261131d858790610f5e565b610695565b91610695565b10156113645761134b61134561134084868591610f92565b610d52565b156101c0565b61135d5761135890610f4f565b61130b565b5050505f90565b505050600190565b61137d90611378611e15565b61137f565b565b61138890612f14565b565b6113939061136c565b565b61139d610e62565b506113a6612fc4565b90565b6113ba906113b5611e15565b611464565b565b60207f6464726573730000000000000000000000000000000000000000000000000000917f4f776e61626c653a206e6577206f776e657220697320746865207a65726f20615f8201520152565b6114166026604092610ea5565b61141f816113bc565b0190565b6114389060208101905f818303910152611409565b90565b1561144257565b61144a610162565b62461bcd60e51b81528061146060048201611423565b0390fd5b6114929061148d8161148661148061147b5f611073565b610227565b91610227565b141561143b565b612002565b565b61149d906113a9565b565b906114b1916114ac61239e565b6114b3565b565b906114bd91613278565b565b906114c99161149f565b565b5f90565b905090565b5f7f19457468657265756d205369676e6564204d6573736167653a0a333200000000910152565b611507601c80926114cf565b611510816114d4565b0190565b90565b6115236115289161066f565b611514565b9052565b9061154261153b6020936114fb565b8092611517565b0190565b61157961156a916115556114cb565b5061155e610162565b9283916020830161152c565b602082018103825203826105a2565b61158b61158582610c37565b91610c31565b2090565b67ffffffffffffffff81116115a75760208091020190565b61058e565b6115b590610227565b90565b6115c1816115ac565b036115c857565b5f80fd5b905051906115d9826115b8565b565b6bffffffffffffffffffffffff1690565b6115f5816115db565b036115fc57565b5f80fd5b9050519061160d826115ec565b565b9190604083820312611649576116429061162960406105cb565b93611636825f83016115cc565b5f860152602001611600565b6020830152565b610580565b9092919261166361165e8261158f565b6105cb565b9381855260406020860192028301928184116116a257915b8383106116885750505050565b6020604091611697848661160f565b81520192019161167b565b610388565b9080601f830112156116c5578160206116c29351910161164e565b90565b610380565b91909160208184031261170a576116e160206105cb565b925f82015167ffffffffffffffff8111611705576116ff92016116a7565b5f830152565b6105e0565b610580565b9060208282031261173f575f82015167ffffffffffffffff811161173a5761173792016116ca565b90565b610170565b61016c565b5190565b67ffffffffffffffff81116117605760208091020190565b61058e565b9061177761177283611748565b6105cb565b918252565b369037565b906117a661178e83611765565b9260208061179c8693611748565b920191039061177c565b565b5f90565b906117b682611744565b8110156117c7576020809102010190565b610f62565b6117d690516115ac565b90565b5190565b906117e7826117d9565b8110156117f8576020809102010190565b610f62565b90611807906115ac565b9052565b61181490610c3e565b90565b6118209061180b565b90565b61182c90610c72565b90565b67ffffffffffffffff81116118475760208091020190565b61058e565b9050519061185982610698565b565b9092919261187061186b8261182f565b6105cb565b93818552602080860192028301928184116118ad57915b8383106118945750505050565b602080916118a2848661184c565b815201920191611887565b610388565b9080601f830112156118d0578160206118cd9351910161185b565b90565b610380565b90602082820312611905575f82015167ffffffffffffffff8111611900576118fd92016118b2565b90565b610170565b61016c565b60200190565b61191990610c72565b90565b61192590611910565b9052565b906119368160209361191c565b0190565b60200190565b9061195d611957611950846117d9565b8093610278565b9261190a565b905f5b81811061196d5750505090565b9091926119866119806001928651611929565b9461193a565b9101919091611960565b916119b3926119a660408201935f830190610468565b6020818403910152611940565b90565b5190565b906119c4826119b6565b8110156119d5576020809102010190565b610f62565b6119e49051610695565b90565b634e487b7160e01b5f52601160045260245ffd5b611a0490610695565b5f198114611a125760010190565b6119e7565b67ffffffffffffffff8111611a2f5760208091020190565b61058e565b90611a46611a4183611a17565b6105cb565b918252565b369037565b90611a75611a5d83611a34565b92602080611a6b8693611a17565b9201910390611a4b565b565b90611a8182610274565b811015611a92576020809102010190565b610f62565b90611aa190610227565b9052565b611aad610e62565b50611af95f611ae3611ade7f0000000000000000000000000000000000000000000000000000000000000000610c66565b610c7e565b631703a01890611af1610162565b938492610c8e565b82528180611b0960048201610348565b03915afa908115611d8f575f91611d6d575b5091611b295f840151611744565b611b3281611781565b91611b3b6117a8565b5b80611b4f611b4985610695565b91610695565b1015611b9157611b8c90611b87611b755f611b6e818b015185906117ac565b51016117cc565b611b8287918490926117dd565b6117fd565b610f4f565b611b3c565b50929093505f611bc8611bc37f0000000000000000000000000000000000000000000000000000000000000000611817565b611823565b63900413479290611beb8594611bf6611bdf610162565b96879586948594610c8e565b845260048401611990565b03915afa908115611d68575f91611d46575b5092611c126117a8565b91611c1b6117a8565b5b80611c2f611c2985610695565b91610695565b1015611c8357611c48611c438783906119ba565b6119da565b611c5a611c545f610f33565b91610695565b11611c6e575b611c6990610f4f565b611c1c565b92611c7b611c69916119fb565b939050611c60565b5091611c9190939193611a50565b91611c9a6117a8565b91611ca45f610f33565b5b80611cb8611cb288610695565b91610695565b1015611d3c57611cd1611ccc8883906119ba565b6119da565b611ce3611cdd5f610f33565b91610695565b11611cf7575b611cf290610f4f565b611ca5565b92611d34611cf291611d2f611d1d611d18611d13888a906117dd565b6117cc565b611910565b611d2a8991849092611a77565b611a97565b6119fb565b939050611ce9565b5094505050905090565b611d6291503d805f833e611d5a81836105a2565b8101906118d5565b5f611c08565b610d42565b611d8991503d805f833e611d8181836105a2565b81019061170f565b5f611b1b565b610d42565b5f7f4f776e61626c653a2063616c6c6572206973206e6f7420746865206f776e6572910152565b611dc760208092610ea5565b611dd081611d94565b0190565b611de99060208101905f818303910152611dbb565b90565b15611df357565b611dfb610162565b62461bcd60e51b815280611e1160048201611dd4565b0390fd5b611e3f611e206110c6565b611e39611e33611e2e6135ac565b610227565b91610227565b14611dec565b565b916020611e62929493611e5b60408201965f830190610468565b0190610468565b565b5f1b90565b90611e7a60018060a01b0391611e64565b9181191691161790565b611e8d90610c72565b90565b90565b90611ea8611ea3611eaf92611e84565b611e90565b8254611e69565b9055565b611f0290611ec160656110b9565b817fe11cddf1816a43318ca175bbc52cd0185436e9cbead7c83acc54a73e461717e391611ef8611eef610162565b92839283611e41565b0390a16065611e93565b565b611f0d90610c3e565b90565b611f1990611f04565b90565b611f2590610c72565b90565b5f910312611f3257565b61016c565b9290611f5390611f61959360408601918683035f880152610cf7565b926020818503910152610cf7565b90565b9192611f80611f7b611f7660976110b9565b611f10565b611f1c565b906273e1d793929490823b15611ffd575f94611fba8692611faf94611fa3610162565b998a9889978896610c8e565b865260048601611f37565b03925af18015611ff857611fcc575b50565b611feb905f3d8111611ff1575b611fe381836105a2565b810190611f28565b5f611fc9565b503d611fd9565b610d42565b610c8a565b61200c60336110b9565b612017826033611e93565b9061204b6120457f8be0079c531659141344cd1fd0a4f28419497f9722a3daafe3b4186f6b6457e093611e84565b91611e84565b91612054610162565b8061205e81610348565b0390a3565b61206c90610c3e565b90565b61207890612063565b90565b61208490610c72565b90565b60209181520190565b90825f9392825e0152565b6120ba6120c36020936120c8936120b181610c37565b93848093612087565b95869101612090565b610584565b0190565b6120d59061066f565b9052565b6120e290610695565b9052565b9061212290604080612105606084015f8701518582035f87015261209b565b94612118602082015160208601906120cc565b01519101906120d9565b90565b916121489261213b60408201935f830190610468565b60208184039101526120e6565b90565b61217c6121777f000000000000000000000000000000000000000000000000000000000000000061206f565b61207b565b91639926ee7d919092803b156121f7576121a95f80946121b461219d610162565b97889687958694610c8e565b845260048401612125565b03925af180156121f2576121c6575b50565b6121e5905f3d81116121eb575b6121dd81836105a2565b810190611f28565b5f6121c3565b503d6121d3565b610d42565b610c8a565b61220590610c3e565b90565b612211906121fc565b90565b61221d90610c72565b90565b61225161224c7f0000000000000000000000000000000000000000000000000000000000000000612208565b612214565b9063a0169ddd90823b156122cb576122889261227d5f8094612271610162565b96879586948593610c8e565b835260048301610475565b03925af180156122c65761229a575b50565b6122b9905f3d81116122bf575b6122b181836105a2565b810190611f28565b5f612297565b503d6122a7565b610d42565b610c8a565b60407f7265776172647320696e69746961746f72000000000000000000000000000000917f4543445341536572766963654d616e61676572426173652e6f6e6c79526577615f8201527f726473496e69746961746f723a2063616c6c6572206973206e6f74207468652060208201520152565b6123506051606092610ea5565b612359816122d0565b0190565b6123729060208101905f818303910152612343565b90565b1561237c57565b612384610162565b62461bcd60e51b81528061239a6004820161235d565b0390fd5b6123c3336123bd6123b76123b260656110b9565b610227565b91610227565b14612375565b565b5090565b903590600160c003813603038212156123e0570190565b610bd0565b908210156123ff5760206123fc92028101906123c9565b90565b610f62565b903590600160200381360303821215612446570180359067ffffffffffffffff82116124415760200191604082023603831361243c57565b610bd8565b610bd4565b610bd0565b5090565b919081101561245f576040020190565b610f62565b3561246e81610698565b90565b61248061248691939293610695565b92610695565b820180921161249157565b6119e7565b61249f90610227565b90565b6124ab81612496565b036124b257565b5f80fd5b356124c0816124a2565b90565b6124cc90610c72565b90565b6124d890610c72565b90565b6124e4816101c0565b036124eb57565b5f80fd5b905051906124fc826124db565b565b9060208282031261251757612514915f016124ef565b90565b61016c565b61252590610695565b9052565b604090612552612559949695939661254860608401985f850190610468565b6020830190610468565b019061251c565b565b9060208282031261257457612571915f0161184c565b90565b61016c565b91602061259a92949361259360408201965f830190610468565b019061251c565b565b60209181520190565b90565b5f80fd5b5f80fd5b5f80fd5b90356001602003823603038112156125f557016020813591019167ffffffffffffffff82116125f05760408202360383136125eb57565b6125ac565b6125a8565b6125b0565b60209181520190565b90565b90503590612613826115b8565b565b50612624906020810190612606565b90565b90503590612634826115ec565b565b50612645906020810190612627565b90565b612651906115db565b9052565b9060206126806126889361267761266e5f830183612615565b5f86019061191c565b82810190612636565b910190612648565b565b9061269781604093612655565b0190565b5090565b60400190565b916126b3826126b9926125fa565b92612603565b90815f905b8282106126cc575050505090565b909192936126ee6126e86001926126e3888661269b565b61268a565b9561269f565b9201909291926126be565b90503590612706826124a2565b565b506127179060208101906126f9565b90565b612723906124c3565b9052565b903560016020038236030381121561276857016020813591019167ffffffffffffffff821161276357604082023603831361275e57565b6125ac565b6125a8565b6125b0565b60209181520190565b90565b50612788906020810190610247565b90565b5061279a9060208101906106ac565b90565b9060206127c86127d0936127bf6127b65f830183612779565b5f860190610287565b8281019061278b565b9101906120d9565b565b906127df8160409361279d565b0190565b5090565b60400190565b916127fb826128019261276d565b92612776565b90815f905b828210612814575050505090565b9091929361283661283060019261282b88866127e3565b6127d2565b956127e7565b920190929192612806565b63ffffffff1690565b61285381612841565b0361285a57565b5f80fd5b9050359061286b8261284a565b565b5061287c90602081019061285e565b90565b61288890612841565b9052565b90356001602003823603038112156128cd57016020813591019167ffffffffffffffff82116128c85760018202360383136128c357565b6125ac565b6125a8565b6125b0565b60209181520190565b91906128f5816128ee816128fa956128d2565b809561060b565b610584565b0190565b6129aa9161299c61295d61292860c0840161291b5f8701876125b4565b908683035f8801526126a5565b6129426129386020870187612708565b602086019061271a565b61294f6040860186612727565b9085830360408701526127ed565b9261297861296e606083018361286d565b606085019061287f565b612992612988608083018361286d565b608085019061287f565b60a081019061288c565b9160a08185039101526128db565b90565b906129b7916128fe565b90565b9035600160c003823603038112156129d0570190565b6125b0565b60200190565b91816129e69161259c565b90816129f7602083028401946125a5565b92835f925b848410612a0c5750505050505090565b9091929394956020612a37612a318385600195038852612a2c8b886129ba565b6129ad565b986129d5565b9401940192949391906129fc565b91612a6a939192612a5d60408201945f830190610468565b60208185039101526129db565b90565b91612a775f610f33565b915b82612a96612a90612a8b8785906123c5565b610695565b91610695565b1015612d5857612aa55f610f33565b612aae5f610f33565b905b81612ae4612ade612ad9612ad3612ac98b898c916123e5565b6040810190612404565b9061244b565b610695565b91610695565b1015612b3157612b25612b2b91612b1f6020612b19612b12612b088c8a8d916123e5565b6040810190612404565b889161244f565b01612464565b90612471565b91610f4f565b90612ab0565b9192939050612b55612b506020612b4a888786916123e5565b016124b6565b6124c3565b60206323b872dd913390612b855f612b6c306124cf565b95612b9089612b79610162565b98899788968795610c8e565b855260048501612529565b03925af18015612d5357612d27575b50612bbf612bba6020612bb4888786916123e5565b016124b6565b6124c3565b602063dd62ed3e91612bd0306124cf565b90612c0d7f000000000000000000000000000000000000000000000000000000000000000094612c18612c01610162565b96879586948594610c8e565b845260048401611e41565b03915afa8015612d22576020915f91612cf5575b5092612c4c612c4783612c418a8988916123e5565b016124b6565b6124c3565b612c985f612c8063095ea7b3977f000000000000000000000000000000000000000000000000000000000000000095612471565b96612ca3612c8c610162565b98899687958694610c8e565b845260048401612579565b03925af1918215612cf057612cbd92612cc4575b50610f4f565b9190612a79565b612ce49060203d8111612ce9575b612cdc81836105a2565b8101906124fe565b612cb7565b503d612cd2565b610d42565b612d159150823d8111612d1b575b612d0d81836105a2565b81019061255b565b5f612c2c565b503d612d03565b610d42565b612d479060203d8111612d4c575b612d3f81836105a2565b8101906124fe565b612b9f565b503d612d35565b610d42565b915091612d8c612d877f0000000000000000000000000000000000000000000000000000000000000000612208565b612214565b90639cb9a5fa91612d9c306124cf565b919392813b15612e12575f612dc491612dcf8296612db8610162565b98899788968795610c8e565b855260048501612a45565b03925af18015612e0d57612de1575b50565b612e00905f3d8111612e06575b612df881836105a2565b810190611f28565b5f612dde565b503d612dee565b610d42565b610c8a565b612e48612e437f000000000000000000000000000000000000000000000000000000000000000061206f565b61207b565b9063a364f4da90823b15612ec257612e7f92612e745f8094612e68610162565b96879586948593610c8e565b835260048301610475565b03925af18015612ebd57612e91575b50565b612eb0905f3d8111612eb6575b612ea881836105a2565b810190611f28565b5f612e8e565b503d612e9e565b610d42565b610c8a565b5190565b612eea612ef3602093612ef893612ee181612ec7565b93848093610ea5565b95869101612090565b610584565b0190565b612f119160208201915f818403910152612ecb565b90565b612f45612f407f000000000000000000000000000000000000000000000000000000000000000061206f565b61207b565b9063a98fb35590823b15612fbf57612f7c92612f715f8094612f65610162565b96879586948593610c8e565b835260048301612efc565b03925af18015612fba57612f8e575b50565b612fad905f3d8111612fb3575b612fa581836105a2565b810190611f28565b5f612f8b565b503d612f9b565b610d42565b610c8a565b612fcc610e62565b506130185f613002612ffd7f0000000000000000000000000000000000000000000000000000000000000000610c66565b610c7e565b631703a01890613010610162565b938492610c8e565b8252818061302860048201610348565b03915afa9081156130e9575f916130c7575b5061304f61304a5f830151611744565b611a50565b906130595f610f33565b5b8061307861307261306d5f860151611744565b610695565b91610695565b10156130c2576130bd906130b86130a66130a15f61309a8188015186906117ac565b51016117cc565b611910565b6130b38691849092611a77565b611a97565b610f4f565b61305a565b505090565b6130e391503d805f833e6130db81836105a2565b81019061170f565b5f61303a565b610d42565b5090565b903590600160a00381360303821215613109570190565b610bd0565b9082101561312857602061312592028101906130f2565b90565b610f62565b60209181520190565b90565b906131c39060806131bb61316360a084016131565f8801886125b4565b908683035f8801526126a5565b9461317e6131746020830183612708565b602086019061271a565b61319861318e604083018361278b565b60408601906120d9565b6131b26131a8606083018361286d565b606086019061287f565b8281019061286d565b91019061287f565b90565b906131d091613139565b90565b9035600160a003823603038112156131e9570190565b6125b0565b60200190565b91816131ff9161312d565b908161321060208302840194613136565b92835f925b8484106132255750505050505090565b909192939495602061325061324a83856001950388526132458b886131d3565b6131c6565b986131ee565b940194019294939190613215565b90916132759260208301925f8185039101526131f4565b90565b9190916132845f610f33565b5b806132a261329c6132978588906130ee565b610695565b91610695565b10156134f7578360206132c96132c4826132be8786889161310e565b016124b6565b6124c3565b6323b872dd9061330d5f33936133186132f960406132f36132e9306124cf565b9a8d908d9161310e565b01612464565b613301610162565b98899788968795610c8e565b855260048501612529565b03925af180156134f2576134c6575b50613347613342602061333c8588869161310e565b016124b6565b6124c3565b602063dd62ed3e91613358306124cf565b906133957f0000000000000000000000000000000000000000000000000000000000000000946133a0613389610162565b96879586948594610c8e565b845260048401611e41565b03915afa9081156134c1575f91613493575b50906020856133d56133d0836133ca8885889161310e565b016124b6565b6124c3565b6134385f61342063095ea7b39761341b60406134157f0000000000000000000000000000000000000000000000000000000000000000988d908c9161310e565b01612464565b612471565b9661344361342c610162565b98899687958694610c8e565b845260048401612579565b03925af191821561348e5761345d92613462575b50610f4f565b613285565b6134829060203d8111613487575b61347a81836105a2565b8101906124fe565b613457565b503d613470565b610d42565b6134b4915060203d81116134ba575b6134ac81836105a2565b81019061255b565b5f6133b2565b503d6134a2565b610d42565b6134e69060203d81116134eb575b6134de81836105a2565b8101906124fe565b613327565b503d6134d4565b610d42565b5091909161352c6135277f0000000000000000000000000000000000000000000000000000000000000000612208565b612214565b9163fce36c7d919092803b156135a7576135595f809461356461354d610162565b97889687958694610c8e565b84526004840161325e565b03925af180156135a257613576575b50565b613595905f3d811161359b575b61358d81836105a2565b810190611f28565b5f613573565b503d613583565b610d42565b610c8a565b6135b461109c565b50339056fea2646970667358221220006edf02745813f9799552fd230c1b845f18b7f69e26de5ca5722ab7a3688c7964736f6c634300081a0033","linkReferences":{}},"methodIdentifiers":{"addPayload((bytes,bytes))":"9aa9fda5","addPayloadMulti((bytes,bytes)[])":"63710c05","avsDirectory()":"6b3aa72e","createAVSRewardsSubmission(((address,uint96)[],address,uint256,uint32,uint32)[])":"fce36c7d","createOperatorDirectedAVSRewardsSubmission(((address,uint96)[],address,(address,uint256)[],uint32,uint32,string)[])":"a20b99bf","deregisterOperatorFromAVS(address)":"a364f4da","getOperatorRestakedStrategies(address)":"33cfb7b7","getRestakeableStrategies()":"e481af9d","owner()":"8da5cb5b","payloadHandler()":"eea8925d","registerOperatorToAVS(address,(bytes,bytes32,uint256))":"9926ee7d","renounceOwnership()":"715018a6","rewardsInitiator()":"fc299dee","setClaimerFor(address)":"a0169ddd","setRewardsInitiator(address)":"3bc28c8c","stakeRegistry()":"68304835","transferOwnership(address)":"f2fde38b","updateAVSMetadataURI(string)":"a98fb355","validatePayload((bytes,bytes))":"216a3e9a","validatePayloadMulti((bytes,bytes)[])":"a71f8da0"},"id":0}