{"abi":[{"type":"constructor","inputs":[{"name":"_avsDirectory","type":"address","internalType":"address"},{"name":"_stakeRegistry","type":"address","internalType":"address"},{"name":"_rewardsCoordinator","type":"address","internalType":"address"},{"name":"_delegationManager","type":"address","internalType":"address"}],"stateMutability":"nonpayable"},{"type":"function","name":"avsDirectory","inputs":[],"outputs":[{"name":"","type":"address","internalType":"address"}],"stateMutability":"view"},{"type":"function","name":"createAVSRewardsSubmission","inputs":[{"name":"rewardsSubmissions","type":"tuple[]","internalType":"struct IRewardsCoordinator.RewardsSubmission[]","components":[{"name":"strategiesAndMultipliers","type":"tuple[]","internalType":"struct IRewardsCoordinator.StrategyAndMultiplier[]","components":[{"name":"strategy","type":"address","internalType":"contract IStrategy"},{"name":"multiplier","type":"uint96","internalType":"uint96"}]},{"name":"token","type":"address","internalType":"contract IERC20"},{"name":"amount","type":"uint256","internalType":"uint256"},{"name":"startTimestamp","type":"uint32","internalType":"uint32"},{"name":"duration","type":"uint32","internalType":"uint32"}]}],"outputs":[],"stateMutability":"nonpayable"},{"type":"function","name":"createOperatorDirectedAVSRewardsSubmission","inputs":[{"name":"operatorDirectedRewardsSubmissions","type":"tuple[]","internalType":"struct IRewardsCoordinator.OperatorDirectedRewardsSubmission[]","components":[{"name":"strategiesAndMultipliers","type":"tuple[]","internalType":"struct IRewardsCoordinator.StrategyAndMultiplier[]","components":[{"name":"strategy","type":"address","internalType":"contract IStrategy"},{"name":"multiplier","type":"uint96","internalType":"uint96"}]},{"name":"token","type":"address","internalType":"contract IERC20"},{"name":"operatorRewards","type":"tuple[]","internalType":"struct IRewardsCoordinator.OperatorReward[]","components":[{"name":"operator","type":"address","internalType":"address"},{"name":"amount","type":"uint256","internalType":"uint256"}]},{"name":"startTimestamp","type":"uint32","internalType":"uint32"},{"name":"duration","type":"uint32","internalType":"uint32"},{"name":"description","type":"string","internalType":"string"}]}],"outputs":[],"stateMutability":"nonpayable"},{"type":"function","name":"deregisterOperatorFromAVS","inputs":[{"name":"operator","type":"address","internalType":"address"}],"outputs":[],"stateMutability":"nonpayable"},{"type":"function","name":"getOperatorRestakedStrategies","inputs":[{"name":"_operator","type":"address","internalType":"address"}],"outputs":[{"name":"","type":"address[]","internalType":"address[]"}],"stateMutability":"view"},{"type":"function","name":"getRestakeableStrategies","inputs":[],"outputs":[{"name":"","type":"address[]","internalType":"address[]"}],"stateMutability":"view"},{"type":"function","name":"owner","inputs":[],"outputs":[{"name":"","type":"address","internalType":"address"}],"stateMutability":"view"},{"type":"function","name":"registerOperatorToAVS","inputs":[{"name":"operator","type":"address","internalType":"address"},{"name":"operatorSignature","type":"tuple","internalType":"struct ISignatureUtils.SignatureWithSaltAndExpiry","components":[{"name":"signature","type":"bytes","internalType":"bytes"},{"name":"salt","type":"bytes32","internalType":"bytes32"},{"name":"expiry","type":"uint256","internalType":"uint256"}]}],"outputs":[],"stateMutability":"nonpayable"},{"type":"function","name":"renounceOwnership","inputs":[],"outputs":[],"stateMutability":"nonpayable"},{"type":"function","name":"rewardsInitiator","inputs":[],"outputs":[{"name":"","type":"address","internalType":"address"}],"stateMutability":"view"},{"type":"function","name":"setClaimerFor","inputs":[{"name":"claimer","type":"address","internalType":"address"}],"outputs":[],"stateMutability":"nonpayable"},{"type":"function","name":"setRewardsInitiator","inputs":[{"name":"newRewardsInitiator","type":"address","internalType":"address"}],"outputs":[],"stateMutability":"nonpayable"},{"type":"function","name":"stakeRegistry","inputs":[],"outputs":[{"name":"","type":"address","internalType":"address"}],"stateMutability":"view"},{"type":"function","name":"transferOwnership","inputs":[{"name":"newOwner","type":"address","internalType":"address"}],"outputs":[],"stateMutability":"nonpayable"},{"type":"function","name":"updateAVSMetadataURI","inputs":[{"name":"_metadataURI","type":"string","internalType":"string"}],"outputs":[],"stateMutability":"nonpayable"},{"type":"function","name":"validate","inputs":[{"name":"data","type":"bytes","internalType":"bytes"},{"name":"signature","type":"bytes","internalType":"bytes"}],"outputs":[],"stateMutability":"view"},{"type":"event","name":"Initialized","inputs":[{"name":"version","type":"uint8","indexed":false,"internalType":"uint8"}],"anonymous":false},{"type":"event","name":"OwnershipTransferred","inputs":[{"name":"previousOwner","type":"address","indexed":true,"internalType":"address"},{"name":"newOwner","type":"address","indexed":true,"internalType":"address"}],"anonymous":false},{"type":"event","name":"RewardsInitiatorUpdated","inputs":[{"name":"prevRewardsInitiator","type":"address","indexed":false,"internalType":"address"},{"name":"newRewardsInitiator","type":"address","indexed":false,"internalType":"address"}],"anonymous":false},{"type":"error","name":"InvalidSignature","inputs":[]}],"bytecode":{"object":"0x610100604052346100ba5761001e6100156101a7565b929190916101cb565b6100266100bf565b61314b61041d823960805181818161038a01528181610bd101528181610e6601528181610f1a015281816116f40152612b35015260a05181818161040501528181611c9e0152818161297b0152612a78015260c051818181611d7301528181612732015281816127b7015281816128bf01528181612eba01528181612f48015261305f015260e051816117d9015261314b90f35b6100c5565b60405190565b5f80fd5b601f801991011690565b634e487b7160e01b5f52604160045260245ffd5b906100f1906100c9565b810190811060018060401b0382111761010957604052565b6100d3565b9061012161011a6100bf565b92836100e7565b565b5f80fd5b60018060a01b031690565b61013b90610127565b90565b61014781610132565b0361014e57565b5f80fd5b9050519061015f8261013e565b565b6080818303126101a257610177825f8301610152565b9261019f6101888460208501610152565b936101968160408601610152565b93606001610152565b90565b610123565b6101c5613568803803806101ba8161010e565b928339810190610161565b90919293565b916101d993919091926101db565b565b906101e79392916101e9565b565b60a05260805260c05260e0526101fd610393565b565b60081c90565b60ff1690565b61021761021c916101ff565b610205565b90565b610229905461020b565b90565b151590565b60209181520190565b60207f616c697a696e6700000000000000000000000000000000000000000000000000917f496e697469616c697a61626c653a20636f6e747261637420697320696e6974695f8201520152565b6102946027604092610231565b61029d8161023a565b0190565b6102b69060208101905f818303910152610287565b90565b156102c057565b6102c86100bf565b62461bcd60e51b8152806102de600482016102a1565b0390fd5b5f1c90565b60ff1690565b6102f96102fe916102e2565b6102e7565b90565b61030b90546102ed565b90565b60ff1690565b5f1b90565b9061032560ff91610314565b9181191691161790565b90565b61034661034161034b9261030e565b61032f565b61030e565b90565b90565b9061036661036161036d92610332565b61034e565b8254610319565b9055565b61037a9061030e565b9052565b9190610391905f60208501940190610371565b565b6103ad6103a86103a25f61021f565b1561022c565b6102b9565b6103b65f610301565b6103c96103c360ff61030e565b9161030e565b106103d1575b565b6103dc60ff5f610351565b60ff6104147f7f26b83ff96e1f2b6a682f133852f6798a09c465da95921460cefb38474024989161040b6100bf565b9182918261037e565b0390a16103cf56fe60806040526004361015610013575b610a5f565b61001d5f3561011c565b80632a3e7f3b1461011757806333cfb7b7146101125780633bc28c8c1461010d57806368304835146101085780636b3aa72e14610103578063715018a6146100fe5780638da5cb5b146100f95780639926ee7d146100f4578063a0169ddd146100ef578063a20b99bf146100ea578063a364f4da146100e5578063a98fb355146100e0578063e481af9d146100db578063f2fde38b146100d6578063fc299dee146100d15763fce36c7d0361000e57610a2b565b610981565b61090a565b6108d5565b6108a2565b6107be565b61078a565b6106e2565b6106ae565b61048f565b61045c565b610427565b6103ce565b610346565b610311565b6101e3565b60e01c90565b60405190565b5f80fd5b5f80fd5b5f80fd5b5f80fd5b5f80fd5b5f80fd5b909182601f8301121561017a5781359167ffffffffffffffff831161017557602001926001830284011161017057565b61013c565b610138565b610134565b90916040828403126101d9575f82013567ffffffffffffffff81116101d457836101aa918401610140565b929093602082013567ffffffffffffffff81116101cf576101cb9201610140565b9091565b610130565b610130565b61012c565b5f0190565b34610215576101ff6101f636600461017f565b92919091610b92565b610207610122565b80610211816101de565b0390f35b610128565b60018060a01b031690565b61022e9061021a565b90565b61023a81610225565b0361024157565b5f80fd5b9050359061025282610231565b565b9060208282031261026d5761026a915f01610245565b90565b61012c565b5190565b60209181520190565b60200190565b61028e90610225565b9052565b9061029f81602093610285565b0190565b60200190565b906102c66102c06102b984610272565b8093610276565b9261027f565b905f5b8181106102d65750505090565b9091926102ef6102e96001928651610292565b946102a3565b91019190916102c9565b61030e9160208201915f8184039101526102a9565b90565b346103415761033d61032c610327366004610254565b610ca6565b610334610122565b918291826102f9565b0390f35b610128565b346103745761035e610359366004610254565b610cd9565b610366610122565b80610370816101de565b0390f35b610128565b5f91031261038357565b61012c565b7f000000000000000000000000000000000000000000000000000000000000000090565b6103b590610225565b9052565b91906103cc905f602085019401906103ac565b565b346103fe576103de366004610379565b6103fa6103e9610388565b6103f1610122565b918291826103b9565b0390f35b610128565b7f000000000000000000000000000000000000000000000000000000000000000090565b3461045757610437366004610379565b610453610442610403565b61044a610122565b918291826103b9565b0390f35b610128565b3461048a5761046c366004610379565b610474610d34565b61047c610122565b80610486816101de565b0390f35b610128565b346104bf5761049f366004610379565b6104bb6104aa610d68565b6104b2610122565b918291826103b9565b0390f35b610128565b5f80fd5b601f801991011690565b634e487b7160e01b5f52604160045260245ffd5b906104f0906104c8565b810190811067ffffffffffffffff82111761050a57604052565b6104d2565b9061052261051b610122565b92836104e6565b565b5f80fd5b5f80fd5b67ffffffffffffffff811161054a576105466020916104c8565b0190565b6104d2565b90825f939282370152565b9092919261056f61056a8261052c565b61050f565b9381855260208501908284011161058b576105899261054f565b565b610528565b9080601f830112156105ae578160206105ab9335910161055a565b90565b610134565b90565b6105bf816105b3565b036105c657565b5f80fd5b905035906105d7826105b6565b565b90565b6105e5816105d9565b036105ec57565b5f80fd5b905035906105fd826105dc565b565b91909160608184031261066457610616606061050f565b925f8201359167ffffffffffffffff831161065f5761063a82610658948301610590565b5f86015261064b82602083016105ca565b60208601526040016105f0565b6040830152565b610524565b6104c4565b9190916040818403126106a957610682835f8301610245565b92602082013567ffffffffffffffff81116106a4576106a192016105ff565b90565b610130565b61012c565b346106dd576106c76106c1366004610669565b90610ea9565b6106cf610122565b806106d9816101de565b0390f35b610128565b34610710576106fa6106f5366004610254565b610ed3565b610702610122565b8061070c816101de565b0390f35b610128565b909182601f8301121561074f5781359167ffffffffffffffff831161074a57602001926020830284011161074557565b61013c565b610138565b610134565b90602082820312610785575f82013567ffffffffffffffff81116107805761077c9201610715565b9091565b610130565b61012c565b346107b9576107a361079d366004610754565b90610efe565b6107ab610122565b806107b5816101de565b0390f35b610128565b346107ec576107d66107d1366004610254565b610f5c565b6107de610122565b806107e8816101de565b0390f35b610128565b67ffffffffffffffff811161080f5761080b6020916104c8565b0190565b6104d2565b90929192610829610824826107f1565b61050f565b93818552602085019082840111610845576108439261054f565b565b610528565b9080601f830112156108685781602061086593359101610814565b90565b610134565b9060208282031261089d575f82013567ffffffffffffffff811161089857610895920161084a565b90565b610130565b61012c565b346108d0576108ba6108b536600461086d565b610f85565b6108c2610122565b806108cc816101de565b0390f35b610128565b34610905576108e5366004610379565b6109016108f0610f90565b6108f8610122565b918291826102f9565b0390f35b610128565b346109385761092261091d366004610254565b61108f565b61092a610122565b80610934816101de565b0390f35b610128565b1c90565b60018060a01b031690565b61095c906008610961930261093d565b610941565b90565b9061096f915461094c565b90565b61097e60655f90610964565b90565b346109b157610991366004610379565b6109ad61099c610972565b6109a4610122565b918291826103b9565b0390f35b610128565b909182601f830112156109f05781359167ffffffffffffffff83116109eb5760200192602083028401116109e657565b61013c565b610138565b610134565b90602082820312610a26575f82013567ffffffffffffffff8111610a2157610a1d92016109b6565b9091565b610130565b61012c565b34610a5a57610a44610a3e3660046109f5565b906110ba565b610a4c610122565b80610a56816101de565b0390f35b610128565b5f80fd5b610a6e91369161055a565b90565b60200190565b5190565b90565b610a92610a8d610a979261021a565b610a7b565b61021a565b90565b610aa390610a7e565b90565b610aaf90610a9a565b90565b610abb90610a7e565b90565b610ac790610ab2565b90565b5f80fd5b60e01b90565b63ffffffff60e01b1690565b610ae981610ad4565b03610af057565b5f80fd5b90505190610b0182610ae0565b565b90602082820312610b1c57610b19915f01610af4565b90565b61012c565b610b2a906105b3565b9052565b60209181520190565b9190610b5181610b4a81610b5695610b2e565b809561054f565b6104c8565b0190565b91610b7f939192610b7260408201945f830190610b21565b6020818503910152610b37565b90565b610b8a610122565b3d5f823e3d90fd5b610ba4602092610bbc92959495610a63565b610bb6610bb082610a77565b91610a71565b20611141565b92630b135d3f60e11b93610c1a610bfa610bf57f0000000000000000000000000000000000000000000000000000000000000000610aa6565b610abe565b91610c25631626ba7e919496610c0e610122565b97889687958695610ace565b855260048501610b5a565b03915afa908115610c9c57610c4b91610c45915f91610c6e575b50610ad4565b91610ad4565b03610c5257565b5f638baa579f60e01b815280610c6a600482016101de565b0390fd5b610c8f915060203d8111610c95575b610c8781836104e6565b810190610b03565b5f610c3f565b503d610c7d565b610b82565b606090565b610cb890610cb2610ca1565b506116df565b90565b610ccc90610cc7611a4f565b610cce565b565b610cd790611aed565b565b610ce290610cbb565b565b610cec611a4f565b610cf4610d21565b565b90565b610d0d610d08610d1292610cf6565b610a7b565b61021a565b90565b610d1e90610cf9565b90565b610d32610d2d5f610d15565b611b3e565b565b610d3c610ce4565b565b5f90565b5f1c90565b610d53610d5891610d42565b610941565b90565b610d659054610d47565b90565b610d70610d3e565b50610d7b6033610d5b565b90565b60209181520190565b60407f6b65526567697374727900000000000000000000000000000000000000000000917f4543445341536572766963654d616e61676572426173652e6f6e6c795374616b5f8201527f6552656769737472793a2063616c6c6572206973206e6f74207468652073746160208201520152565b610e07604a606092610d7e565b610e1081610d87565b0190565b610e299060208101905f818303910152610dfa565b90565b15610e3357565b610e3b610122565b62461bcd60e51b815280610e5160048201610e14565b0390fd5b90610e9b91610e9633610e90610e8a7f0000000000000000000000000000000000000000000000000000000000000000610225565b91610225565b14610e2c565b610e9d565b565b90610ea791611c96565b565b90610eb391610e55565b565b610ec690610ec1611a4f565b610ec8565b565b610ed190611d6b565b565b610edc90610eb5565b565b90610ef091610eeb611ee9565b610ef2565b565b90610efc916125c9565b565b90610f0891610ede565b565b610f4f90610f4a33610f44610f3e7f0000000000000000000000000000000000000000000000000000000000000000610225565b91610225565b14610e2c565b610f51565b565b610f5a90612973565b565b610f6590610f0a565b565b610f7890610f73611a4f565b610f7a565b565b610f8390612a70565b565b610f8e90610f67565b565b610f98610ca1565b50610fa1612b20565b90565b610fb590610fb0611a4f565b61105f565b565b60207f6464726573730000000000000000000000000000000000000000000000000000917f4f776e61626c653a206e6577206f776e657220697320746865207a65726f20615f8201520152565b6110116026604092610d7e565b61101a81610fb7565b0190565b6110339060208101905f818303910152611004565b90565b1561103d57565b611045610122565b62461bcd60e51b81528061105b6004820161101e565b0390fd5b61108d906110888161108161107b6110765f610d15565b610225565b91610225565b1415611036565b611b3e565b565b61109890610fa4565b565b906110ac916110a7611ee9565b6110ae565b565b906110b891612dd4565b565b906110c49161109a565b565b5f90565b905090565b5f7f19457468657265756d205369676e6564204d6573736167653a0a333200000000910152565b611102601c80926110ca565b61110b816110cf565b0190565b90565b61111e611123916105b3565b61110f565b9052565b9061113d6111366020936110f6565b8092611112565b0190565b611174611165916111506110c6565b50611159610122565b92839160208301611127565b602082018103825203826104e6565b61118661118082610a77565b91610a71565b2090565b67ffffffffffffffff81116111a25760208091020190565b6104d2565b6111b090610225565b90565b6111bc816111a7565b036111c357565b5f80fd5b905051906111d4826111b3565b565b6bffffffffffffffffffffffff1690565b6111f0816111d6565b036111f757565b5f80fd5b90505190611208826111e7565b565b91906040838203126112445761123d90611224604061050f565b93611231825f83016111c7565b5f8601526020016111fb565b6020830152565b6104c4565b9092919261125e6112598261118a565b61050f565b93818552604060208601920283019281841161129d57915b8383106112835750505050565b6020604091611292848661120a565b815201920191611276565b61013c565b9080601f830112156112c0578160206112bd93519101611249565b90565b610134565b919091602081840312611305576112dc602061050f565b925f82015167ffffffffffffffff8111611300576112fa92016112a2565b5f830152565b610524565b6104c4565b9060208282031261133a575f82015167ffffffffffffffff81116113355761133292016112c5565b90565b610130565b61012c565b5190565b67ffffffffffffffff811161135b5760208091020190565b6104d2565b9061137261136d83611343565b61050f565b918252565b369037565b906113a161138983611360565b926020806113978693611343565b9201910390611377565b565b5f90565b60016113b391016105d9565b90565b634e487b7160e01b5f52603260045260245ffd5b906113d48261133f565b8110156113e5576020809102010190565b6113b6565b6113f490516111a7565b90565b5190565b90611405826113f7565b811015611416576020809102010190565b6113b6565b90611425906111a7565b9052565b61143290610a7e565b90565b61143e90611429565b90565b61144a90610ab2565b90565b67ffffffffffffffff81116114655760208091020190565b6104d2565b90505190611477826105dc565b565b9092919261148e6114898261144d565b61050f565b93818552602080860192028301928184116114cb57915b8383106114b25750505050565b602080916114c0848661146a565b8152019201916114a5565b61013c565b9080601f830112156114ee578160206114eb93519101611479565b90565b610134565b90602082820312611523575f82015167ffffffffffffffff811161151e5761151b92016114d0565b90565b610130565b61012c565b60200190565b61153790610ab2565b90565b6115439061152e565b9052565b906115548160209361153a565b0190565b60200190565b9061157b61157561156e846113f7565b8093610276565b92611528565b905f5b81811061158b5750505090565b9091926115a461159e6001928651611547565b94611558565b910191909161157e565b916115d1926115c460408201935f8301906103ac565b602081840391015261155e565b90565b5190565b906115e2826115d4565b8110156115f3576020809102010190565b6113b6565b61160290516105d9565b90565b61161961161461161e92610cf6565b610a7b565b6105d9565b90565b634e487b7160e01b5f52601160045260245ffd5b61163e906105d9565b5f19811461164c5760010190565b611621565b67ffffffffffffffff81116116695760208091020190565b6104d2565b9061168061167b83611651565b61050f565b918252565b369037565b906116af6116978361166e565b926020806116a58693611651565b9201910390611685565b565b906116bb82610272565b8110156116cc576020809102010190565b6113b6565b906116db90610225565b9052565b6116e7610ca1565b506117335f61171d6117187f0000000000000000000000000000000000000000000000000000000000000000610aa6565b610abe565b631703a0189061172b610122565b938492610ace565b82528180611743600482016101de565b03915afa9081156119c9575f916119a7575b50916117635f84015161133f565b61176c8161137c565b916117756113a3565b5b80611789611783856105d9565b916105d9565b10156117cb576117c6906117c16117af5f6117a8818b015185906113ca565b51016113ea565b6117bc87918490926113fb565b61141b565b6113a7565b611776565b50929093505f6118026117fd7f0000000000000000000000000000000000000000000000000000000000000000611435565b611441565b639004134792906118258594611830611819610122565b96879586948594610ace565b8452600484016115ae565b03915afa9081156119a2575f91611980575b509261184c6113a3565b916118556113a3565b5b80611869611863856105d9565b916105d9565b10156118bd5761188261187d8783906115d8565b6115f8565b61189461188e5f611605565b916105d9565b116118a8575b6118a3906113a7565b611856565b926118b56118a391611635565b93905061189a565b50916118cb9093919361168a565b916118d46113a3565b916118de5f611605565b5b806118f26118ec886105d9565b916105d9565b10156119765761190b6119068883906115d8565b6115f8565b61191d6119175f611605565b916105d9565b11611931575b61192c906113a7565b6118df565b9261196e61192c9161196961195761195261194d888a906113fb565b6113ea565b61152e565b61196489918490926116b1565b6116d1565b611635565b939050611923565b5094505050905090565b61199c91503d805f833e61199481836104e6565b8101906114f3565b5f611842565b610b82565b6119c391503d805f833e6119bb81836104e6565b81019061130a565b5f611755565b610b82565b5f7f4f776e61626c653a2063616c6c6572206973206e6f7420746865206f776e6572910152565b611a0160208092610d7e565b611a0a816119ce565b0190565b611a239060208101905f8183039101526119f5565b90565b15611a2d57565b611a35610122565b62461bcd60e51b815280611a4b60048201611a0e565b0390fd5b611a79611a5a610d68565b611a73611a6d611a68613108565b610225565b91610225565b14611a26565b565b916020611a9c929493611a9560408201965f8301906103ac565b01906103ac565b565b5f1b90565b90611ab460018060a01b0391611a9e565b9181191691161790565b611ac790610ab2565b90565b90565b90611ae2611add611ae992611abe565b611aca565b8254611aa3565b9055565b611b3c90611afb6065610d5b565b817fe11cddf1816a43318ca175bbc52cd0185436e9cbead7c83acc54a73e461717e391611b32611b29610122565b92839283611a7b565b0390a16065611acd565b565b611b486033610d5b565b611b53826033611acd565b90611b87611b817f8be0079c531659141344cd1fd0a4f28419497f9722a3daafe3b4186f6b6457e093611abe565b91611abe565b91611b90610122565b80611b9a816101de565b0390a3565b611ba890610a7e565b90565b611bb490611b9f565b90565b611bc090610ab2565b90565b5f910312611bcd57565b61012c565b60209181520190565b90825f9392825e0152565b611c05611c0e602093611c1393611bfc81610a77565b93848093611bd2565b95869101611bdb565b6104c8565b0190565b611c20906105b3565b9052565b611c2d906105d9565b9052565b90611c6d90604080611c50606084015f8701518582035f870152611be6565b94611c6360208201516020860190611c17565b0151910190611c24565b90565b91611c9392611c8660408201935f8301906103ac565b6020818403910152611c31565b90565b611cc7611cc27f0000000000000000000000000000000000000000000000000000000000000000611bab565b611bb7565b91639926ee7d919092803b15611d4257611cf45f8094611cff611ce8610122565b97889687958694610ace565b845260048401611c70565b03925af18015611d3d57611d11575b50565b611d30905f3d8111611d36575b611d2881836104e6565b810190611bc3565b5f611d0e565b503d611d1e565b610b82565b610aca565b611d5090610a7e565b90565b611d5c90611d47565b90565b611d6890610ab2565b90565b611d9c611d977f0000000000000000000000000000000000000000000000000000000000000000611d53565b611d5f565b9063a0169ddd90823b15611e1657611dd392611dc85f8094611dbc610122565b96879586948593610ace565b8352600483016103b9565b03925af18015611e1157611de5575b50565b611e04905f3d8111611e0a575b611dfc81836104e6565b810190611bc3565b5f611de2565b503d611df2565b610b82565b610aca565b60407f7265776172647320696e69746961746f72000000000000000000000000000000917f4543445341536572766963654d616e61676572426173652e6f6e6c79526577615f8201527f726473496e69746961746f723a2063616c6c6572206973206e6f74207468652060208201520152565b611e9b6051606092610d7e565b611ea481611e1b565b0190565b611ebd9060208101905f818303910152611e8e565b90565b15611ec757565b611ecf610122565b62461bcd60e51b815280611ee560048201611ea8565b0390fd5b611f0e33611f08611f02611efd6065610d5b565b610225565b91610225565b14611ec0565b565b5090565b5f80fd5b5f80fd5b5f80fd5b903590600160c00381360303821215611f37570190565b611f14565b90821015611f56576020611f539202810190611f20565b90565b6113b6565b903590600160200381360303821215611f9d570180359067ffffffffffffffff8211611f9857602001916040820236038313611f9357565b611f1c565b611f18565b611f14565b5090565b9190811015611fb6576040020190565b6113b6565b35611fc5816105dc565b90565b611fd7611fdd919392936105d9565b926105d9565b8201809211611fe857565b611621565b611ff690610225565b90565b61200281611fed565b0361200957565b5f80fd5b3561201781611ff9565b90565b61202390610ab2565b90565b61202f90610ab2565b90565b151590565b61204081612032565b0361204757565b5f80fd5b9050519061205882612037565b565b9060208282031261207357612070915f0161204b565b90565b61012c565b612081906105d9565b9052565b6040906120ae6120b594969593966120a460608401985f8501906103ac565b60208301906103ac565b0190612078565b565b906020828203126120d0576120cd915f0161146a565b90565b61012c565b9160206120f69294936120ef60408201965f8301906103ac565b0190612078565b565b60209181520190565b90565b5f80fd5b5f80fd5b5f80fd5b903560016020038236030381121561215157016020813591019167ffffffffffffffff821161214c57604082023603831361214757565b612108565b612104565b61210c565b60209181520190565b90565b9050359061216f826111b3565b565b50612180906020810190612162565b90565b90503590612190826111e7565b565b506121a1906020810190612183565b90565b6121ad906111d6565b9052565b9060206121dc6121e4936121d36121ca5f830183612171565b5f86019061153a565b82810190612192565b9101906121a4565b565b906121f3816040936121b1565b0190565b5090565b60400190565b9161220f8261221592612156565b9261215f565b90815f905b828210612228575050505090565b9091929361224a61224460019261223f88866121f7565b6121e6565b956121fb565b92019092919261221a565b9050359061226282611ff9565b565b50612273906020810190612255565b90565b61227f9061201a565b9052565b90356001602003823603038112156122c457016020813591019167ffffffffffffffff82116122bf5760408202360383136122ba57565b612108565b612104565b61210c565b60209181520190565b90565b506122e4906020810190610245565b90565b506122f69060208101906105f0565b90565b90602061232461232c9361231b6123125f8301836122d5565b5f860190610285565b828101906122e7565b910190611c24565b565b9061233b816040936122f9565b0190565b5090565b60400190565b916123578261235d926122c9565b926122d2565b90815f905b828210612370575050505090565b9091929361239261238c600192612387888661233f565b61232e565b95612343565b920190929192612362565b63ffffffff1690565b6123af8161239d565b036123b657565b5f80fd5b905035906123c7826123a6565b565b506123d89060208101906123ba565b90565b6123e49061239d565b9052565b903560016020038236030381121561242957016020813591019167ffffffffffffffff821161242457600182023603831361241f57565b612108565b612104565b61210c565b60209181520190565b91906124518161244a816124569561242e565b809561054f565b6104c8565b0190565b612506916124f86124b961248460c084016124775f870187612110565b908683035f880152612201565b61249e6124946020870187612264565b6020860190612276565b6124ab6040860186612283565b908583036040870152612349565b926124d46124ca60608301836123c9565b60608501906123db565b6124ee6124e460808301836123c9565b60808501906123db565b60a08101906123e8565b9160a0818503910152612437565b90565b906125139161245a565b90565b9035600160c0038236030381121561252c570190565b61210c565b60200190565b9181612542916120f8565b908161255360208302840194612101565b92835f925b8484106125685750505050505090565b909192939495602061259361258d83856001950388526125888b88612516565b612509565b98612531565b940194019294939190612558565b916125c69391926125b960408201945f8301906103ac565b6020818503910152612537565b90565b916125d35f611605565b915b826125f26125ec6125e7878590611f10565b6105d9565b916105d9565b10156128b4576126015f611605565b61260a5f611605565b905b8161264061263a61263561262f6126258b898c91611f3c565b6040810190611f5b565b90611fa2565b6105d9565b916105d9565b101561268d576126816126879161267b602061267561266e6126648c8a8d91611f3c565b6040810190611f5b565b8891611fa6565b01611fbb565b90611fc8565b916113a7565b9061260c565b91929390506126b16126ac60206126a688878691611f3c565b0161200d565b61201a565b60206323b872dd9133906126e15f6126c830612026565b956126ec896126d5610122565b98899788968795610ace565b855260048501612085565b03925af180156128af57612883575b5061271b612716602061271088878691611f3c565b0161200d565b61201a565b602063dd62ed3e9161272c30612026565b906127697f00000000000000000000000000000000000000000000000000000000000000009461277461275d610122565b96879586948594610ace565b845260048401611a7b565b03915afa801561287e576020915f91612851575b50926127a86127a38361279d8a898891611f3c565b0161200d565b61201a565b6127f45f6127dc63095ea7b3977f000000000000000000000000000000000000000000000000000000000000000095611fc8565b966127ff6127e8610122565b98899687958694610ace565b8452600484016120d5565b03925af191821561284c5761281992612820575b506113a7565b91906125d5565b6128409060203d8111612845575b61283881836104e6565b81019061205a565b612813565b503d61282e565b610b82565b6128719150823d8111612877575b61286981836104e6565b8101906120b7565b5f612788565b503d61285f565b610b82565b6128a39060203d81116128a8575b61289b81836104e6565b81019061205a565b6126fb565b503d612891565b610b82565b9150916128e86128e37f0000000000000000000000000000000000000000000000000000000000000000611d53565b611d5f565b90639cb9a5fa916128f830612026565b919392813b1561296e575f6129209161292b8296612914610122565b98899788968795610ace565b8552600485016125a1565b03925af180156129695761293d575b50565b61295c905f3d8111612962575b61295481836104e6565b810190611bc3565b5f61293a565b503d61294a565b610b82565b610aca565b6129a461299f7f0000000000000000000000000000000000000000000000000000000000000000611bab565b611bb7565b9063a364f4da90823b15612a1e576129db926129d05f80946129c4610122565b96879586948593610ace565b8352600483016103b9565b03925af18015612a19576129ed575b50565b612a0c905f3d8111612a12575b612a0481836104e6565b810190611bc3565b5f6129ea565b503d6129fa565b610b82565b610aca565b5190565b612a46612a4f602093612a5493612a3d81612a23565b93848093610d7e565b95869101611bdb565b6104c8565b0190565b612a6d9160208201915f818403910152612a27565b90565b612aa1612a9c7f0000000000000000000000000000000000000000000000000000000000000000611bab565b611bb7565b9063a98fb35590823b15612b1b57612ad892612acd5f8094612ac1610122565b96879586948593610ace565b835260048301612a58565b03925af18015612b1657612aea575b50565b612b09905f3d8111612b0f575b612b0181836104e6565b810190611bc3565b5f612ae7565b503d612af7565b610b82565b610aca565b612b28610ca1565b50612b745f612b5e612b597f0000000000000000000000000000000000000000000000000000000000000000610aa6565b610abe565b631703a01890612b6c610122565b938492610ace565b82528180612b84600482016101de565b03915afa908115612c45575f91612c23575b50612bab612ba65f83015161133f565b61168a565b90612bb55f611605565b5b80612bd4612bce612bc95f86015161133f565b6105d9565b916105d9565b1015612c1e57612c1990612c14612c02612bfd5f612bf68188015186906113ca565b51016113ea565b61152e565b612c0f86918490926116b1565b6116d1565b6113a7565b612bb6565b505090565b612c3f91503d805f833e612c3781836104e6565b81019061130a565b5f612b96565b610b82565b5090565b903590600160a00381360303821215612c65570190565b611f14565b90821015612c84576020612c819202810190612c4e565b90565b6113b6565b60209181520190565b90565b90612d1f906080612d17612cbf60a08401612cb25f880188612110565b908683035f880152612201565b94612cda612cd06020830183612264565b6020860190612276565b612cf4612cea60408301836122e7565b6040860190611c24565b612d0e612d0460608301836123c9565b60608601906123db565b828101906123c9565b9101906123db565b90565b90612d2c91612c95565b90565b9035600160a00382360303811215612d45570190565b61210c565b60200190565b9181612d5b91612c89565b9081612d6c60208302840194612c92565b92835f925b848410612d815750505050505090565b9091929394956020612dac612da68385600195038852612da18b88612d2f565b612d22565b98612d4a565b940194019294939190612d71565b9091612dd19260208301925f818503910152612d50565b90565b919091612de05f611605565b5b80612dfe612df8612df3858890612c4a565b6105d9565b916105d9565b101561305357836020612e25612e2082612e1a87868891612c6a565b0161200d565b61201a565b6323b872dd90612e695f3393612e74612e556040612e4f612e4530612026565b9a8d908d91612c6a565b01611fbb565b612e5d610122565b98899788968795610ace565b855260048501612085565b03925af1801561304e57613022575b50612ea3612e9e6020612e9885888691612c6a565b0161200d565b61201a565b602063dd62ed3e91612eb430612026565b90612ef17f000000000000000000000000000000000000000000000000000000000000000094612efc612ee5610122565b96879586948594610ace565b845260048401611a7b565b03915afa90811561301d575f91612fef575b5090602085612f31612f2c83612f2688858891612c6a565b0161200d565b61201a565b612f945f612f7c63095ea7b397612f776040612f717f0000000000000000000000000000000000000000000000000000000000000000988d908c91612c6a565b01611fbb565b611fc8565b96612f9f612f88610122565b98899687958694610ace565b8452600484016120d5565b03925af1918215612fea57612fb992612fbe575b506113a7565b612de1565b612fde9060203d8111612fe3575b612fd681836104e6565b81019061205a565b612fb3565b503d612fcc565b610b82565b613010915060203d8111613016575b61300881836104e6565b8101906120b7565b5f612f0e565b503d612ffe565b610b82565b6130429060203d8111613047575b61303a81836104e6565b81019061205a565b612e83565b503d613030565b610b82565b509190916130886130837f0000000000000000000000000000000000000000000000000000000000000000611d53565b611d5f565b9163fce36c7d919092803b15613103576130b55f80946130c06130a9610122565b97889687958694610ace565b845260048401612dba565b03925af180156130fe576130d2575b50565b6130f1905f3d81116130f7575b6130e981836104e6565b810190611bc3565b5f6130cf565b503d6130df565b610b82565b610aca565b613110610d3e565b50339056fea26469706673582212202dbf46f64144ea82a13da669184557141747b70a04db3264faa7e9f695c3f29d64736f6c634300081a0033","linkReferences":{}},"methodIdentifiers":{"avsDirectory()":"6b3aa72e","createAVSRewardsSubmission(((address,uint96)[],address,uint256,uint32,uint32)[])":"fce36c7d","createOperatorDirectedAVSRewardsSubmission(((address,uint96)[],address,(address,uint256)[],uint32,uint32,string)[])":"a20b99bf","deregisterOperatorFromAVS(address)":"a364f4da","getOperatorRestakedStrategies(address)":"33cfb7b7","getRestakeableStrategies()":"e481af9d","owner()":"8da5cb5b","registerOperatorToAVS(address,(bytes,bytes32,uint256))":"9926ee7d","renounceOwnership()":"715018a6","rewardsInitiator()":"fc299dee","setClaimerFor(address)":"a0169ddd","setRewardsInitiator(address)":"3bc28c8c","stakeRegistry()":"68304835","transferOwnership(address)":"f2fde38b","updateAVSMetadataURI(string)":"a98fb355","validate(bytes,bytes)":"2a3e7f3b"},"id":1}