{"abi":[{"type":"function","name":"pause","inputs":[{"name":"newPausedStatus","type":"uint256","internalType":"uint256"}],"outputs":[],"stateMutability":"nonpayable"},{"type":"function","name":"pauseAll","inputs":[],"outputs":[],"stateMutability":"nonpayable"},{"type":"function","name":"paused","inputs":[{"name":"index","type":"uint8","internalType":"uint8"}],"outputs":[{"name":"","type":"bool","internalType":"bool"}],"stateMutability":"view"},{"type":"function","name":"paused","inputs":[],"outputs":[{"name":"","type":"uint256","internalType":"uint256"}],"stateMutability":"view"},{"type":"function","name":"pauserRegistry","inputs":[],"outputs":[{"name":"","type":"address","internalType":"contract IPauserRegistry"}],"stateMutability":"view"},{"type":"function","name":"setPauserRegistry","inputs":[{"name":"newPauserRegistry","type":"address","internalType":"contract IPauserRegistry"}],"outputs":[],"stateMutability":"nonpayable"},{"type":"function","name":"unpause","inputs":[{"name":"newPausedStatus","type":"uint256","internalType":"uint256"}],"outputs":[],"stateMutability":"nonpayable"},{"type":"event","name":"Paused","inputs":[{"name":"account","type":"address","indexed":true,"internalType":"address"},{"name":"newPausedStatus","type":"uint256","indexed":false,"internalType":"uint256"}],"anonymous":false},{"type":"event","name":"PauserRegistrySet","inputs":[{"name":"pauserRegistry","type":"address","indexed":false,"internalType":"contract IPauserRegistry"},{"name":"newPauserRegistry","type":"address","indexed":false,"internalType":"contract IPauserRegistry"}],"anonymous":false},{"type":"event","name":"Unpaused","inputs":[{"name":"account","type":"address","indexed":true,"internalType":"address"},{"name":"newPausedStatus","type":"uint256","indexed":false,"internalType":"uint256"}],"anonymous":false}],"bytecode":{"object":"0x60808060405234601557610697908161001a8239f35b5f80fdfe6080806040526004361015610012575f80fd5b5f3560e01c90816310d67a2f146103ee57508063136439dd146102d6578063595c6a67146102215780635ac86ab7146101ee5780635c975abb146101d1578063886f1195146101aa5763fabc1cbc14610069575f80fd5b346101a65760203660031901126101a6575f5460405163755b36bd60e11b81526004803592602091839182906001600160a01b03165afa801561019b576100c2915f9161016c575b506001600160a01b0316331461058d565b60015419811981160361010157806001556040519081527f3582d1828e26bf56bd801502bc021ac0bc8afb57c826e4986b45593c8fad389c60203392a2005b60405162461bcd60e51b815260206004820152603860248201527f5061757361626c652e756e70617573653a20696e76616c696420617474656d7060448201527f7420746f2070617573652066756e6374696f6e616c69747900000000000000006064820152608490fd5b61018e915060203d602011610194575b6101868183610538565b81019061056e565b5f6100b1565b503d61017c565b6040513d5f823e3d90fd5b5f80fd5b346101a6575f3660031901126101a6575f546040516001600160a01b039091168152602090f35b346101a6575f3660031901126101a6576020600154604051908152f35b346101a65760203660031901126101a65760043560ff81168091036101a65760016020911b806001541614604051908152f35b346101a6575f3660031901126101a6575f5460405163237dfb4760e11b815233600482015290602090829060249082906001600160a01b03165afa801561019b57610273915f916102a7575b50610604565b5f196001556040515f1981527fab40a374bc51de372200a8bc981af8c9ecdc08dfdaef0bb6e09f88f3c616ef3d60203392a2005b6102c9915060203d6020116102cf575b6102c18183610538565b8101906105ec565b8261026d565b503d6102b7565b346101a65760203660031901126101a6576004356024602060018060a01b035f54166040519283809263237dfb4760e11b82523360048301525afa801561019b57610327915f916103cf5750610604565b6001548181160361036457806001556040519081527fab40a374bc51de372200a8bc981af8c9ecdc08dfdaef0bb6e09f88f3c616ef3d60203392a2005b60405162461bcd60e51b815260206004820152603860248201527f5061757361626c652e70617573653a20696e76616c696420617474656d70742060448201527f746f20756e70617573652066756e6374696f6e616c69747900000000000000006064820152608490fd5b6103e8915060203d6020116102cf576102c18183610538565b8361026d565b346101a65760203660031901126101a6576004356001600160a01b03811691908290036101a6575f5463755b36bd60e11b8252906001600160a01b03821690602081600481855afa801561019b57610457915f9161051957506001600160a01b0316331461058d565b821561049c5760407f6e9fcd539896fca60e8b0f01dd580233e48a6b0f7df013b89ba7f565869acdb6918151908152846020820152a16001600160a01b031916175f55005b60405162461bcd60e51b815260206004820152604960248201527f5061757361626c652e5f73657450617573657252656769737472793a206e657760448201527f50617573657252656769737472792063616e6e6f7420626520746865207a65726064820152686f206164647265737360b81b608482015260a490fd5b610532915060203d602011610194576101868183610538565b856100b1565b90601f8019910116810190811067ffffffffffffffff82111761055a57604052565b634e487b7160e01b5f52604160045260245ffd5b908160209103126101a657516001600160a01b03811681036101a65790565b1561059457565b60405162461bcd60e51b815260206004820152602a60248201527f6d73672e73656e646572206973206e6f74207065726d697373696f6e6564206160448201526939903ab73830bab9b2b960b11b6064820152608490fd5b908160209103126101a6575180151581036101a65790565b1561060b57565b60405162461bcd60e51b815260206004820152602860248201527f6d73672e73656e646572206973206e6f74207065726d697373696f6e6564206160448201526739903830bab9b2b960c11b6064820152608490fdfea2646970667358221220cdd1b5e1a53d6f04d0541ecdfbd0183b8782d7dae0ed1504d6d9cb4c23b4dc8264736f6c634300081c0033","linkReferences":{}},"methodIdentifiers":{"pause(uint256)":"136439dd","pauseAll()":"595c6a67","paused()":"5c975abb","paused(uint8)":"5ac86ab7","pauserRegistry()":"886f1195","setPauserRegistry(address)":"10d67a2f","unpause(uint256)":"fabc1cbc"},"id":37}