{"abi":[{"type":"function","name":"addTrigger","inputs":[{"name":"data","type":"bytes","internalType":"bytes"}],"outputs":[],"stateMutability":"nonpayable"},{"type":"function","name":"getTrigger","inputs":[{"name":"triggerId","type":"uint64","internalType":"ISimpleTrigger.TriggerId"}],"outputs":[{"name":"","type":"tuple","internalType":"struct ISimpleTrigger.TriggerInfo","components":[{"name":"triggerId","type":"uint64","internalType":"ISimpleTrigger.TriggerId"},{"name":"creator","type":"address","internalType":"address"},{"name":"data","type":"bytes","internalType":"bytes"}]}],"stateMutability":"view"},{"type":"function","name":"nextTriggerId","inputs":[],"outputs":[{"name":"","type":"uint64","internalType":"ISimpleTrigger.TriggerId"}],"stateMutability":"view"},{"type":"function","name":"triggerIdsByCreator","inputs":[{"name":"","type":"address","internalType":"address"},{"name":"","type":"uint256","internalType":"uint256"}],"outputs":[{"name":"","type":"uint64","internalType":"ISimpleTrigger.TriggerId"}],"stateMutability":"view"},{"type":"function","name":"triggersById","inputs":[{"name":"","type":"uint64","internalType":"ISimpleTrigger.TriggerId"}],"outputs":[{"name":"creator","type":"address","internalType":"address"},{"name":"data","type":"bytes","internalType":"bytes"}],"stateMutability":"view"},{"type":"event","name":"NewTrigger","inputs":[{"name":"","type":"bytes","indexed":false,"internalType":"bytes"}],"anonymous":false}],"bytecode":{"object":"0x608060405234601c57600e6020565b610e2d61002b8239610e2d90f35b6026565b60405190565b5f80fdfe60806040526004361015610013575b610788565b61001d5f3561006c565b806342227fa414610067578063913b1fbf14610062578063ce2896121461005d578063e31e0788146100585763e328ed770361000e57610753565b61067d565b610569565b6102b8565b610123565b60e01c90565b60405190565b5f80fd5b5f80fd5b5f91031261008a57565b61007c565b1c90565b67ffffffffffffffff1690565b6100b09060086100b5930261008f565b610093565b90565b906100c391546100a0565b90565b6100d260025f906100b8565b90565b67ffffffffffffffff1690565b90565b6100f96100f46100fe926100d5565b6100e2565b6100d5565b90565b61010a906100e5565b9052565b9190610121905f60208501940190610101565b565b3461015357610133366004610080565b61014f61013e6100c6565b610146610072565b9182918261010e565b0390f35b610078565b5f80fd5b60018060a01b031690565b6101709061015c565b90565b61017c81610167565b0361018357565b5f80fd5b9050359061019482610173565b565b90565b6101a281610196565b036101a957565b5f80fd5b905035906101ba82610199565b565b91906040838203126101e457806101d86101e1925f8601610187565b936020016101ad565b90565b61007c565b6101fd6101f86102029261015c565b6100e2565b61015c565b90565b61020e906101e9565b90565b61021a90610205565b90565b9061022790610211565b5f5260205260405f2090565b634e487b7160e01b5f52603260045260245ffd5b5490565b5f5260205f2090565b91909161026081610247565b83101561027e57600461027460089261024b565b8185040193060290565b610233565b61028e90600161021d565b61029781610247565b8210156102b4576102b1916102ab91610254565b906100b8565b90565b5f80fd5b346102e9576102e56102d46102ce3660046101bc565b90610283565b6102dc610072565b9182918261010e565b0390f35b610078565b6102f7816100d5565b036102fe57565b5f80fd5b9050359061030f826102ee565b565b9060208282031261032a57610327915f01610302565b90565b61007c565b90610339906100e5565b5f5260205260405f2090565b5f1c90565b60018060a01b031690565b61036161036691610345565b61034a565b90565b6103739054610355565b90565b634e487b7160e01b5f52602260045260245ffd5b90600160028304921680156103aa575b60208310146103a557565b610376565b91607f169161039a565b60209181520190565b5f5260205f2090565b905f92918054906103e06103d98361038a565b80946103b4565b916001811690815f1461043757506001146103fb575b505050565b61040891929394506103bd565b915f925b81841061041f57505001905f80806103f6565b6001816020929593955484860152019101929061040c565b92949550505060ff19168252151560200201905f80806103f6565b9061045c916103c6565b90565b601f801991011690565b634e487b7160e01b5f52604160045260245ffd5b906104879061045f565b810190811067ffffffffffffffff8211176104a157604052565b610469565b906104c66104bf926104b6610072565b93848092610452565b038361047d565b565b6104d2905f61032f565b906104ea60016104e35f8501610369565b93016104a6565b90565b6104f690610167565b9052565b5190565b60209181520190565b90825f9392825e0152565b61053161053a60209361053f93610528816104fa565b938480936104fe565b95869101610507565b61045f565b0190565b916105669261055960408201935f8301906104ed565b6020818403910152610512565b90565b3461059a5761058161057c366004610311565b6104c8565b9061059661058d610072565b92839283610543565b0390f35b610078565b5f80fd5b5f80fd5b906105ba6105b3610072565b928361047d565b565b67ffffffffffffffff81116105da576105d660209161045f565b0190565b610469565b90825f939282370152565b909291926105ff6105fa826105bc565b6105a7565b9381855260208501908284011161061b57610619926105df565b565b6105a3565b9080601f8301121561063e5781602061063b933591016105ea565b90565b61059f565b90602082820312610673575f82013567ffffffffffffffff811161066e5761066b9201610620565b90565b610158565b61007c565b5f0190565b346106ab57610695610690366004610643565b610bf4565b61069d610072565b806106a781610678565b0390f35b610078565b6106b9906100e5565b9052565b6106c690610167565b9052565b6106e96106f26020936106f7936106e0816104fa565b938480936103b4565b95869101610507565b61045f565b0190565b61073891604060608201926107165f8201515f8501906106b0565b610728602082015160208501906106bd565b01519060408184039101526106ca565b90565b6107509160208201915f8184039101526106fb565b90565b346107835761077f61076e610769366004610311565b610d94565b610776610072565b9182918261073b565b0390f35b610078565b5f80fd5b61079861079d91610345565b610093565b90565b6107aa905461078c565b90565b90565b6107c46107bf6107c9926107ad565b6100e2565b6100d5565b90565b634e487b7160e01b5f52601160045260245ffd5b6107ec6107f2916100d5565b916100d5565b019067ffffffffffffffff821161080557565b6107cc565b5f1b90565b9061082267ffffffffffffffff9161080a565b9181191691161790565b90565b9061084461083f61084b926100e5565b61082c565b825461080f565b9055565b61085960406105a7565b90565b9061086690610167565b9052565b52565b6108779051610167565b90565b9061088b60018060a01b039161080a565b9181191691161790565b90565b906108ad6108a86108b492610211565b610895565b825461087a565b9055565b5190565b601f602091010490565b1b90565b919060086108e59102916108df5f19846108c6565b926108c6565b9181191691161790565b6109036108fe61090892610196565b6100e2565b610196565b90565b90565b919061092461091f61092c936108ef565b61090b565b9083546108ca565b9055565b5f90565b61094691610940610930565b9161090e565b565b5b818110610954575050565b806109615f600193610934565b01610949565b9190601f8111610977575b505050565b6109836109a8936103bd565b90602061098f846108bc565b830193106109b0575b6109a1906108bc565b0190610948565b5f8080610972565b91506109a181929050610998565b906109ce905f199060080261008f565b191690565b816109dd916109be565b906002021790565b906109ef816104fa565b9067ffffffffffffffff8211610aaf57610a1382610a0d855461038a565b85610967565b602090601f8311600114610a4757918091610a36935f92610a3b575b50506109d3565b90555b565b90915001515f80610a2f565b601f19831691610a56856103bd565b925f5b818110610a9757509160029391856001969410610a7d575b50505002019055610a39565b610a8d910151601f8416906109be565b90555f8080610a71565b91936020600181928787015181550195019201610a59565b610469565b90610abe916109e5565b565b90610aeb60206001610af194610ae35f8201610add5f880161086d565b90610898565b0192016108b8565b90610ab4565b565b90610afd91610ac0565b565b90565b5f5260205f2090565b5490565b919091610b1b81610b0b565b831015610b39576004610b2f600892610b02565b8185040193060290565b610233565b91906008610b60910291610b5a67ffffffffffffffff846108c6565b926108c6565b9181191691161790565b9190610b80610b7b610b88936100e5565b61082c565b908354610b3e565b9055565b9081549168010000000000000000831015610bbc5782610bb4916001610bba95018155610b0f565b90610b6a565b565b610469565b610bcb60606105a7565b90565b90610bd8906100d5565b9052565b610bf19160208201915f818403910152610512565b90565b610cf3610ce491610c32610c2b610c26610c16610c1160026107a0565b6100e5565b610c2060016107b0565b906107e0565b6100e5565b600261082f565b610cd0610c3f60026107a0565b91610c623391610c59610c5061084f565b935f850161085c565b6020830161086a565b91610c7783610c725f849061032f565b610af3565b610c95610c8e610c896001339061021d565b610aff565b8290610b8c565b91610cc76020610ca65f840161086d565b92015191610cbe610cb5610bc1565b955f8701610bce565b6020850161085c565b6040830161086a565b610cd8610072565b9283916020830161073b565b6020820181038252038261047d565b610d297f86eacd23610d81706516de1ed0476c87772fdf939c7c771fbbd7f0230d619e6891610d20610072565b91829182610bdc565b0390a1565b610d3860606105a7565b90565b5f90565b5f90565b606090565b610d50610d2e565b906020808084610d5e610d3b565b815201610d69610d3f565b815201610d74610d43565b81525050565b610d82610d48565b90565b90565b610d91906104a6565b90565b610d9c610d7a565b50610df4610deb610db6610db15f859061032f565b610d85565b610de66001610dc65f8401610369565b920191610ddd610dd4610bc1565b965f8801610bce565b6020860161085c565b610d88565b6040830161086a565b9056fea2646970667358221220255a9c9aa04312cf5bdff125498e67f37315afb99afe48ad261e93291077cbca64736f6c634300081c0033","linkReferences":{}},"methodIdentifiers":{"addTrigger(bytes)":"e31e0788","getTrigger(uint64)":"e328ed77","nextTriggerId()":"42227fa4","triggerIdsByCreator(address,uint256)":"913b1fbf","triggersById(uint64)":"ce289612"},"id":6}