{"abi":[{"type":"function","name":"OPERATOR_AVS_REGISTRATION_TYPEHASH","inputs":[],"outputs":[{"name":"","type":"bytes32","internalType":"bytes32"}],"stateMutability":"view"},{"type":"function","name":"calculateOperatorAVSRegistrationDigestHash","inputs":[{"name":"operator","type":"address","internalType":"address"},{"name":"avs","type":"address","internalType":"address"},{"name":"salt","type":"bytes32","internalType":"bytes32"},{"name":"expiry","type":"uint256","internalType":"uint256"}],"outputs":[{"name":"","type":"bytes32","internalType":"bytes32"}],"stateMutability":"view"},{"type":"function","name":"cancelSalt","inputs":[{"name":"salt","type":"bytes32","internalType":"bytes32"}],"outputs":[],"stateMutability":"nonpayable"},{"type":"function","name":"deregisterOperatorFromAVS","inputs":[{"name":"operator","type":"address","internalType":"address"}],"outputs":[],"stateMutability":"nonpayable"},{"type":"function","name":"domainSeparator","inputs":[],"outputs":[{"name":"","type":"bytes32","internalType":"bytes32"}],"stateMutability":"view"},{"type":"function","name":"operatorSaltIsSpent","inputs":[{"name":"operator","type":"address","internalType":"address"},{"name":"salt","type":"bytes32","internalType":"bytes32"}],"outputs":[{"name":"","type":"bool","internalType":"bool"}],"stateMutability":"view"},{"type":"function","name":"operatorSaltIsSpentMapping","inputs":[{"name":"","type":"address","internalType":"address"},{"name":"","type":"bytes32","internalType":"bytes32"}],"outputs":[{"name":"","type":"bool","internalType":"bool"}],"stateMutability":"view"},{"type":"function","name":"registerOperatorToAVS","inputs":[{"name":"operator","type":"address","internalType":"address"},{"name":"operatorSignature","type":"tuple","internalType":"struct ISignatureUtils.SignatureWithSaltAndExpiry","components":[{"name":"signature","type":"bytes","internalType":"bytes"},{"name":"salt","type":"bytes32","internalType":"bytes32"},{"name":"expiry","type":"uint256","internalType":"uint256"}]}],"outputs":[],"stateMutability":"nonpayable"},{"type":"function","name":"updateAVSMetadataURI","inputs":[{"name":"metadataURI","type":"string","internalType":"string"}],"outputs":[],"stateMutability":"nonpayable"},{"type":"event","name":"AVSMetadataURIUpdated","inputs":[{"name":"avs","type":"address","indexed":true,"internalType":"address"},{"name":"metadataURI","type":"string","indexed":false,"internalType":"string"}],"anonymous":false},{"type":"event","name":"OperatorAVSRegistrationStatusUpdated","inputs":[{"name":"operator","type":"address","indexed":true,"internalType":"address"},{"name":"avs","type":"address","indexed":true,"internalType":"address"},{"name":"status","type":"uint8","indexed":false,"internalType":"enum IAVSDirectory.OperatorAVSRegistrationStatus"}],"anonymous":false}],"bytecode":{"object":"0x608060405234801561001057600080fd5b5061043d806100206000396000f3fe608060405234801561001057600080fd5b50600436106100935760003560e01c8063a364f4da11610066578063a364f4da14610149578063a98fb3551461015a578063d79aceab14610168578063ec76f4421461016f578063f698da251461016857600080fd5b806317ae05e714610098578063374823b5146100d85780639926ee7d1461010f578063a1060c8814610123575b600080fd5b6100c36100a6366004610199565b600060208181529281526040808220909352908152205460ff1681565b60405190151581526020015b60405180910390f35b6100c36100e6366004610199565b6001600160a01b0391909116600090815260208181526040808320938352929052205460ff1690565b61012161011d366004610233565b5050565b005b61013b610131366004610318565b6000949350505050565b6040519081526020016100cf565b61012161015736600461035a565b50565b61012161011d36600461037c565b600061013b565b6101216101573660046103ee565b80356001600160a01b038116811461019457600080fd5b919050565b600080604083850312156101ac57600080fd5b6101b58361017d565b946020939093013593505050565b634e487b7160e01b600052604160045260246000fd5b6040516060810167ffffffffffffffff811182821017156101fc576101fc6101c3565b60405290565b604051601f8201601f1916810167ffffffffffffffff8111828210171561022b5761022b6101c3565b604052919050565b6000806040838503121561024657600080fd5b61024f8361017d565b915060208084013567ffffffffffffffff8082111561026d57600080fd5b908501906060828803121561028157600080fd5b6102896101d9565b82358281111561029857600080fd5b8301601f810189136102a957600080fd5b8035838111156102bb576102bb6101c3565b6102cd601f8201601f19168701610202565b935080845289868284010111156102e357600080fd5b808683018786013760008682860101525050818152838301358482015260408301356040820152809450505050509250929050565b6000806000806080858703121561032e57600080fd5b6103378561017d565b93506103456020860161017d565b93969395505050506040820135916060013590565b60006020828403121561036c57600080fd5b6103758261017d565b9392505050565b6000806020838503121561038f57600080fd5b823567ffffffffffffffff808211156103a757600080fd5b818501915085601f8301126103bb57600080fd5b8135818111156103ca57600080fd5b8660208285010111156103dc57600080fd5b60209290920196919550909350505050565b60006020828403121561040057600080fd5b503591905056fea26469706673582212203cdeb06eb8a3f0db7d81a5bcebe480cee6590dfd088232910a9be737dea86d0764736f6c634300080c0033","linkReferences":{}},"methodIdentifiers":{"OPERATOR_AVS_REGISTRATION_TYPEHASH()":"d79aceab","calculateOperatorAVSRegistrationDigestHash(address,address,bytes32,uint256)":"a1060c88","cancelSalt(bytes32)":"ec76f442","deregisterOperatorFromAVS(address)":"a364f4da","domainSeparator()":"f698da25","operatorSaltIsSpent(address,bytes32)":"374823b5","operatorSaltIsSpentMapping(address,bytes32)":"17ae05e7","registerOperatorToAVS(address,(bytes,bytes32,uint256))":"9926ee7d","updateAVSMetadataURI(string)":"a98fb355"},"id":157}