{"contracts/HelloWorldServiceManager.sol":{"HelloWorldServiceManager":{"abi":[{"type":"constructor","inputs":[{"name":"_avsDirectory","type":"address","internalType":"address"},{"name":"_stakeRegistry","type":"address","internalType":"address"},{"name":"_rewardsCoordinator","type":"address","internalType":"address"},{"name":"_delegationManager","type":"address","internalType":"address"}],"stateMutability":"nonpayable"},{"type":"function","name":"allTaskHashes","inputs":[{"name":"","type":"uint32","internalType":"uint32"}],"outputs":[{"name":"","type":"bytes32","internalType":"bytes32"}],"stateMutability":"view"},{"type":"function","name":"allTaskResponses","inputs":[{"name":"","type":"address","internalType":"address"},{"name":"","type":"uint32","internalType":"uint32"}],"outputs":[{"name":"","type":"bytes","internalType":"bytes"}],"stateMutability":"view"},{"type":"function","name":"avsDirectory","inputs":[],"outputs":[{"name":"","type":"address","internalType":"address"}],"stateMutability":"view"},{"type":"function","name":"createAVSRewardsSubmission","inputs":[{"name":"rewardsSubmissions","type":"tuple[]","internalType":"struct IRewardsCoordinator.RewardsSubmission[]","components":[{"name":"strategiesAndMultipliers","type":"tuple[]","internalType":"struct IRewardsCoordinator.StrategyAndMultiplier[]","components":[{"name":"strategy","type":"address","internalType":"contract IStrategy"},{"name":"multiplier","type":"uint96","internalType":"uint96"}]},{"name":"token","type":"address","internalType":"contract IERC20"},{"name":"amount","type":"uint256","internalType":"uint256"},{"name":"startTimestamp","type":"uint32","internalType":"uint32"},{"name":"duration","type":"uint32","internalType":"uint32"}]}],"outputs":[],"stateMutability":"nonpayable"},{"type":"function","name":"createNewTask","inputs":[{"name":"name","type":"string","internalType":"string"}],"outputs":[{"name":"","type":"tuple","internalType":"struct IHelloWorldServiceManager.Task","components":[{"name":"name","type":"string","internalType":"string"},{"name":"taskCreatedBlock","type":"uint32","internalType":"uint32"}]}],"stateMutability":"nonpayable"},{"type":"function","name":"createOperatorDirectedAVSRewardsSubmission","inputs":[{"name":"operatorDirectedRewardsSubmissions","type":"tuple[]","internalType":"struct IRewardsCoordinator.OperatorDirectedRewardsSubmission[]","components":[{"name":"strategiesAndMultipliers","type":"tuple[]","internalType":"struct IRewardsCoordinator.StrategyAndMultiplier[]","components":[{"name":"strategy","type":"address","internalType":"contract IStrategy"},{"name":"multiplier","type":"uint96","internalType":"uint96"}]},{"name":"token","type":"address","internalType":"contract IERC20"},{"name":"operatorRewards","type":"tuple[]","internalType":"struct IRewardsCoordinator.OperatorReward[]","components":[{"name":"operator","type":"address","internalType":"address"},{"name":"amount","type":"uint256","internalType":"uint256"}]},{"name":"startTimestamp","type":"uint32","internalType":"uint32"},{"name":"duration","type":"uint32","internalType":"uint32"},{"name":"description","type":"string","internalType":"string"}]}],"outputs":[],"stateMutability":"nonpayable"},{"type":"function","name":"deregisterOperatorFromAVS","inputs":[{"name":"operator","type":"address","internalType":"address"}],"outputs":[],"stateMutability":"nonpayable"},{"type":"function","name":"getOperatorRestakedStrategies","inputs":[{"name":"_operator","type":"address","internalType":"address"}],"outputs":[{"name":"","type":"address[]","internalType":"address[]"}],"stateMutability":"view"},{"type":"function","name":"getRestakeableStrategies","inputs":[],"outputs":[{"name":"","type":"address[]","internalType":"address[]"}],"stateMutability":"view"},{"type":"function","name":"latestTaskNum","inputs":[],"outputs":[{"name":"","type":"uint32","internalType":"uint32"}],"stateMutability":"view"},{"type":"function","name":"owner","inputs":[],"outputs":[{"name":"","type":"address","internalType":"address"}],"stateMutability":"view"},{"type":"function","name":"registerOperatorToAVS","inputs":[{"name":"operator","type":"address","internalType":"address"},{"name":"operatorSignature","type":"tuple","internalType":"struct ISignatureUtils.SignatureWithSaltAndExpiry","components":[{"name":"signature","type":"bytes","internalType":"bytes"},{"name":"salt","type":"bytes32","internalType":"bytes32"},{"name":"expiry","type":"uint256","internalType":"uint256"}]}],"outputs":[],"stateMutability":"nonpayable"},{"type":"function","name":"renounceOwnership","inputs":[],"outputs":[],"stateMutability":"nonpayable"},{"type":"function","name":"respondToTask","inputs":[{"name":"task","type":"tuple","internalType":"struct IHelloWorldServiceManager.Task","components":[{"name":"name","type":"string","internalType":"string"},{"name":"taskCreatedBlock","type":"uint32","internalType":"uint32"}]},{"name":"referenceTaskIndex","type":"uint32","internalType":"uint32"},{"name":"signature","type":"bytes","internalType":"bytes"}],"outputs":[],"stateMutability":"nonpayable"},{"type":"function","name":"rewardsInitiator","inputs":[],"outputs":[{"name":"","type":"address","internalType":"address"}],"stateMutability":"view"},{"type":"function","name":"setClaimerFor","inputs":[{"name":"claimer","type":"address","internalType":"address"}],"outputs":[],"stateMutability":"nonpayable"},{"type":"function","name":"setRewardsInitiator","inputs":[{"name":"newRewardsInitiator","type":"address","internalType":"address"}],"outputs":[],"stateMutability":"nonpayable"},{"type":"function","name":"stakeRegistry","inputs":[],"outputs":[{"name":"","type":"address","internalType":"address"}],"stateMutability":"view"},{"type":"function","name":"transferOwnership","inputs":[{"name":"newOwner","type":"address","internalType":"address"}],"outputs":[],"stateMutability":"nonpayable"},{"type":"function","name":"updateAVSMetadataURI","inputs":[{"name":"_metadataURI","type":"string","internalType":"string"}],"outputs":[],"stateMutability":"nonpayable"},{"type":"event","name":"Initialized","inputs":[{"name":"version","type":"uint8","indexed":false,"internalType":"uint8"}],"anonymous":false},{"type":"event","name":"NewTaskCreated","inputs":[{"name":"taskIndex","type":"uint32","indexed":true,"internalType":"uint32"},{"name":"task","type":"tuple","indexed":false,"internalType":"struct IHelloWorldServiceManager.Task","components":[{"name":"name","type":"string","internalType":"string"},{"name":"taskCreatedBlock","type":"uint32","internalType":"uint32"}]}],"anonymous":false},{"type":"event","name":"OwnershipTransferred","inputs":[{"name":"previousOwner","type":"address","indexed":true,"internalType":"address"},{"name":"newOwner","type":"address","indexed":true,"internalType":"address"}],"anonymous":false},{"type":"event","name":"RewardsInitiatorUpdated","inputs":[{"name":"prevRewardsInitiator","type":"address","indexed":false,"internalType":"address"},{"name":"newRewardsInitiator","type":"address","indexed":false,"internalType":"address"}],"anonymous":false},{"type":"event","name":"TaskResponded","inputs":[{"name":"taskIndex","type":"uint32","indexed":true,"internalType":"uint32"},{"name":"task","type":"tuple","indexed":false,"internalType":"struct IHelloWorldServiceManager.Task","components":[{"name":"name","type":"string","internalType":"string"},{"name":"taskCreatedBlock","type":"uint32","internalType":"uint32"}]},{"name":"operator","type":"address","indexed":false,"internalType":"address"}],"anonymous":false}],"userdoc":{},"devdoc":{},"evm":{"bytecode":{"object":"6101003461019a57601f61216738819003918201601f19168301916001600160401b0383118484101761019e5780849260809460405283398101031261019a57610048816101b2565b90610055602082016101b2565b61006d6060610066604085016101b2565b93016101b2565b9260a05260805260c05260e0525f5460ff8160081c166101455760ff8082161061010b575b604051611fa090816101c7823960805181818161057f015281816107db01528181610d74015281816110460152818161128b0152611593015260a0518181816107490152818161080b01528181610d9d0152611002015260c051818181610137015281816108b10152610c6d015260e051816116590152f35b60ff90811916175f557f7f26b83ff96e1f2b6a682f133852f6798a09c465da95921460cefb3847402498602060405160ff8152a15f610092565b60405162461bcd60e51b815260206004820152602760248201527f496e697469616c697a61626c653a20636f6e747261637420697320696e697469604482015266616c697a696e6760c81b6064820152608490fd5b5f80fd5b634e487b7160e01b5f52604160045260245ffd5b51906001600160a01b038216820361019a5756fe6080806040526004361015610012575f80fd5b5f905f3560e01c9081632d89f6fc146118345750806333cfb7b7146115665780633415a49c146110f45780633bc28c8c1461107557806368304835146110315780636b3aa72e14610fed578063715018a614610f9257806385edf87414610ea55780638b00ce7c14610e825780638da5cb5b14610e5a5780639926ee7d14610cd5578063a0169ddd14610c48578063a20b99bf14610873578063a364f4da146107ba578063a98fb3551461072f578063c20bab7f14610630578063e481af9d1461055a578063f2fde38b14610491578063fc299dee146104685763fce36c7d146100fa575f80fd5b346101d75760203660031901126101d7576004356001600160401b0381116104645761012a903690600401611a22565b610135929192611d87565b7f0000000000000000000000000000000000000000000000000000000000000000825b82811061028257506001600160a01b031690813b1561027e576040519363fce36c7d60e01b8552816024860160206004880152526044850160448360051b87010192828690609e19813603015b8383106101e55788808b8181808c0381838f5af180156101da576101c65750f35b816101d091611914565b6101d75780f35b80fd5b6040513d84823e3d90fd5b9091929394956043198a820301865286358281121561027a5760206001928582930190608063ffffffff6102688261022e6102208780611eb0565b60a0885260a0880191611ee4565b95898060a01b036102408983016118a3565b1688870152604081013560408701528361025c6060830161187c565b1660608701520161187c565b169101529801960194930191906101a5565b8980fd5b8280fd5b8360206102e36001600160a01b036102a58361029f878a8d611f48565b01611e84565b1660406102b386898c611f48565b6040516323b872dd60e01b8152336004820152306024820152910135604482015293849283919082906064820190565b03925af1801561040157610448575b506001600160a01b0361030b602061029f84878a611f48565b604051636eb1769f60e11b81523060048201526001600160a01b03851660248201529160209183916044918391165afa9081156104015785918791839161040c575b506020916103b89161038590604061037e888b6001600160a01b036103778a61029f85858c611f48565b1696611f48565b0135611e77565b60405163095ea7b360e01b81526001600160a01b0388166004820152602481019190915293849283919082906044820190565b03925af180156104015790600192916103d3575b5001610158565b6103f39060203d81116103fa575b6103eb8183611914565b810190611e98565b505f6103cc565b503d6103e1565b6040513d87823e3d90fd5b925050506020813d8211610440575b8161042860209383611914565b8101031261043c575184908690602061034d565b5f80fd5b3d915061041b565b61045f9060203d81116103fa576103eb8183611914565b6102f2565b5080fd5b50346101d757806003193601126101d7576065546040516001600160a01b039091168152602090f35b50346101d75760203660031901126101d7576104ab61188d565b6104b3611d2f565b6001600160a01b0316801561050657603380546001600160a01b0319811683179091556001600160a01b03167f8be0079c531659141344cd1fd0a4f28419497f9722a3daafe3b4186f6b6457e08380a380f35b60405162461bcd60e51b815260206004820152602660248201527f4f776e61626c653a206e6577206f776e657220697320746865207a65726f206160448201526564647265737360d01b6064820152608490fd5b50346101d757806003193601126101d7576040516302e0740360e31b815281816004817f00000000000000000000000000000000000000000000000000000000000000006001600160a01b03165afa9081156101da57829161060e575b506105c3815151611cfd565b915b815180518210156105fc57600191906001600160a01b03906105e8908390611cc7565b5151166105f58286611cc7565b52016105c5565b6040518061060a86826118b7565b0390f35b61062a91503d8084833e6106228183611914565b810190611bc5565b5f6105b7565b50346101d75760403660031901126101d75761064a61188d565b610652611869565b9060018060a01b03168252609960205263ffffffff6040832091165f5260205260405f2090604051918181549161068883611a52565b808652926001811690811561070557506001146106c4575b61060a856106b081870382611914565b6040519182916020835260208301906119d3565b815260208120939250905b8082106106eb575090915081016020016106b08261060a6106a0565b9192600181602092548385880101520191019092916106cf565b86955061060a969350602092506106b094915060ff191682840152151560051b82010192936106a0565b50346101d7578061073f36611998565b610747611d2f565b7f00000000000000000000000000000000000000000000000000000000000000006001600160a01b0316803b156107b65760405163a98fb35560e01b81526020600482015291839183918290849082906107a59060248301906119d3565b03925af180156101da576101c65750f35b5050fd5b50346101d75760203660031901126101d757806107d561188d565b610809337f00000000000000000000000000000000000000000000000000000000000000006001600160a01b031614611b29565b7f00000000000000000000000000000000000000000000000000000000000000006001600160a01b031690813b156107b6576040516351b27a6d60e11b81526001600160a01b0390911660048201529082908290602490829084905af180156101da576101c65750f35b50346101d75760203660031901126101d7576004356001600160401b038111610464576108a4903690600401611a22565b6108af929192611d87565b7f0000000000000000000000000000000000000000000000000000000000000000825b828110610a605750919283926001600160a01b031690813b15610a5b57935060405191634e5cd2fd60e11b835280604484013060048601526040602486015252606483019060648160051b850101958092869160be19813603015b84841061094e578880898181808f0381838e5af180156101da576101c65750f35b878a0360631901835285358181121561027a5782019961097f6109718c80611eb0565b60c0845260c0840191611ee4565b9a6001600160a01b03610994602083016118a3565b16602083015260206109a96040830183611eb0565b848f036040860152808f529d9091019c8c5b818110610a2a575050506020610a1a8c9d600194610a0c8563ffffffff6109e5606088990161187c565b16606084015263ffffffff6109fc6080830161187c565b16608084015260a0810190611a8a565b9160a0818503910152611abb565b980194019401939295995061092d565b90919d60408f60019260208392858060a01b03610a46826118a3565b16835201356020820152019f019291016109bb565b505050fd5b909291829483955b610a80610a76858585611e20565b6040810190611e42565b9050871015610ad057610a97610a76858585611e20565b881015610abc576001916020610ab4928a60061b01013590611e77565b960195610a68565b634e487b7160e01b86526032600452602486fd5b909550929390929091906001600160a01b03610af2602061029f85888b611e20565b6040516323b872dd60e01b81523360048201523060248201526044810184905291602091839160649183918b91165af18015610c2157610c2c575b506001600160a01b03610b46602061029f85888b611e20565b604051636eb1769f60e11b81523060048201526001600160a01b03861660248201529160209183916044918391165afa908115610c2157908692918391610bea575b50602091610385610bb1928a610baa8661029f8a8d60018060a01b0395611e20565b1692611e77565b03925af18015610401579060019291610bcc575b50016108d2565b610be39060203d81116103fa576103eb8183611914565b505f610bc5565b9250506020823d8211610c19575b81610c0560209383611914565b8101031261043c5790518591906020610b88565b3d9150610bf8565b6040513d88823e3d90fd5b610c439060203d81116103fa576103eb8183611914565b610b2d565b50346101d75760203660031901126101d75780610c6361188d565b610c6b611d2f565b7f00000000000000000000000000000000000000000000000000000000000000006001600160a01b031690813b156107b65760405163a0169ddd60e01b81526001600160a01b0390911660048201529082908290602490829084905af180156101da576101c65750f35b503461043c57604036600319011261043c57610cef61188d565b602435906001600160401b03821161043c576060600319833603011261043c5760405190606082018281106001600160401b03821117610e465760405282600401356001600160401b03811161043c57610d4f906004369186010161197a565b82526020820191602484013583526044604082019401358452610d9b60018060a01b037f0000000000000000000000000000000000000000000000000000000000000000163314611b29565b7f00000000000000000000000000000000000000000000000000000000000000006001600160a01b031690813b1561043c575f610e0e93819560405197889687958694639926ee7d60e01b865260018060a01b0316600486015260406024860152516060604486015260a48501906119d3565b9151606484015251608483015203925af18015610e3b57610e2d575080f35b610e3991505f90611914565b005b6040513d5f823e3d90fd5b634e487b7160e01b5f52604160045260245ffd5b3461043c575f36600319011261043c576033546040516001600160a01b039091168152602090f35b3461043c575f36600319011261043c57602063ffffffff60975416604051908152f35b3461043c57610eb336611998565b610ebb611b10565b50610ec4611b10565b90815263ffffffff431660208201526040516020810190610ef781610ee985856119f7565b03601f198101835282611914565b51902063ffffffff609754165f52609860205260405f205560975490600163ffffffff8316807f58180a6a0403a63c2b5ce4b85d129d46a80d37851b2216bd0a98b59e7309b84760405180610f4c87826119f7565b0390a2019163ffffffff8311610f7e5763ffffffff61060a93169063ffffffff191617609755604051918291826119f7565b634e487b7160e01b5f52601160045260245ffd5b3461043c575f36600319011261043c57610faa611d2f565b603380546001600160a01b031981169091555f906001600160a01b03167f8be0079c531659141344cd1fd0a4f28419497f9722a3daafe3b4186f6b6457e08280a3005b3461043c575f36600319011261043c576040517f00000000000000000000000000000000000000000000000000000000000000006001600160a01b03168152602090f35b3461043c575f36600319011261043c576040517f00000000000000000000000000000000000000000000000000000000000000006001600160a01b03168152602090f35b3461043c57602036600319011261043c5761108e61188d565b611096611d2f565b606554604080516001600160a01b038084168252841660208201529192917fe11cddf1816a43318ca175bbc52cd0185436e9cbead7c83acc54a73e461717e39190a16001600160a01b03166001600160a01b03199190911617606555005b3461043c57606036600319011261043c576004356001600160401b03811161043c573681900360048201604060031983011261043c57611132611869565b916044356001600160401b03811161043c5761115290369060040161197a565b9363ffffffff60405160208101906020825261117581610ee96040820189611adb565b519020941693845f52609860205260405f2054036114fb57335f52609960205260405f20845f526020526111ac60405f2054611a52565b6114a3578235916022190182121561043c57016004810135906001600160401b03821161043c5760240190803603821361043c57611217602760405183819460208301966602432b6363796160cd1b88528484013781015f838201520301601f198101835282611914565b51902060405160208101917f19457468657265756d205369676e6564204d6573736167653a0a3332000000008352603c820152603c8152611259605c82611914565b51902060405190630b135d3f60e11b82526004820152604060248201526020818061128760448201886119d3565b03817f00000000000000000000000000000000000000000000000000000000000000006001600160a01b03165afa908115610e3b575f91611460575b506001600160e01b031916630b135d3f60e11b0361043c57335f52609960205260405f20825f5260205260405f2083516001600160401b038111610e465761130b8254611a52565b601f811161141b575b506020601f821160011461139257908061137c9493927f8eb2d2fcccf5801e10ff58cd73e8781ba923122963789378771f03c1148b023e96975f92611387575b50508160011b915f199060031b1c19161790555b604051918291604083526040830190611adb565b3360208301520390a2005b015190508780611354565b601f19821695835f52815f20965f5b818110611403575096600192849261137c9796957f8eb2d2fcccf5801e10ff58cd73e8781ba923122963789378771f03c1148b023e999a106113eb575b505050811b019055611368565b01515f1960f88460031b161c191690558780806113de565b838301518955600190980197602093840193016113a1565b825f5260205f20601f830160051c81019160208410611456575b601f0160051c01905b81811061144b5750611314565b5f815560010161143e565b9091508190611435565b90506020813d60201161149b575b8161147b60209383611914565b8101031261043c57516001600160e01b03198116810361043c57846112c3565b3d915061146e565b60405162461bcd60e51b815260206004820152602a60248201527f4f70657261746f722068617320616c726561647920726573706f6e64656420746044820152696f20746865207461736b60b01b6064820152608490fd5b60405162461bcd60e51b815260206004820152603d60248201527f737570706c696564207461736b20646f6573206e6f74206d617463682074686560448201527f206f6e65207265636f7264656420696e2074686520636f6e74726163740000006064820152608490fd5b3461043c57602036600319011261043c5761157f61188d565b6040516302e0740360e31b81525f816004817f00000000000000000000000000000000000000000000000000000000000000006001600160a01b03165afa908115610e3b575f9161181a575b5090815151906115da82611bae565b906115e86040519283611914565b8282526115f483611bae565b602083019490601f19013686375f5b8481106117ec57505060408051639004134760e01b81526001600160a01b0390921660048301526024820152815160448201819052909384916064830191905f5b8181106117ca57505f939283900391508290507f00000000000000000000000000000000000000000000000000000000000000006001600160a01b03165afa928315610e3b575f93611738575b505f5f5b83811061170c57506116a690611cfd565b925f905f5b8481106116c0576040518061060a88826118b7565b6116ca8183611cc7565b516116d8575b6001016116ab565b91600190611704906001600160a01b036116f28688611cc7565b51166116fe828a611cc7565b52611cef565b9290506116d0565b6117168186611cc7565b51611724575b600101611695565b90611730600191611cef565b91905061171c565b9092503d805f833e61174a8183611914565b81019060208183031261043c578051906001600160401b03821161043c57019080601f8301121561043c57815161178081611bae565b9261178e6040519485611914565b81845260208085019260051b82010192831161043c57602001905b8282106117ba575050509183611691565b81518152602091820191016117a9565b82516001600160a01b0316845287945060209384019390920191600101611644565b600190818060a09895981b03611803828551611cc7565b5151166118108287611cc7565b5201949194611603565b61182e91503d805f833e6106228183611914565b826115cb565b3461043c57602036600319011261043c576004359063ffffffff821680920361043c576020915f526098825260405f20548152f35b6024359063ffffffff8216820361043c57565b359063ffffffff8216820361043c57565b600435906001600160a01b038216820361043c57565b35906001600160a01b038216820361043c57565b60206040818301928281528451809452019201905f5b8181106118da5750505090565b82516001600160a01b03168452602093840193909201916001016118cd565b604081019081106001600160401b03821117610e4657604052565b90601f801991011681019081106001600160401b03821117610e4657604052565b9291926001600160401b038211610e46576040519161195e601f8201601f191660200184611914565b82948184528183011161043c578281602093845f960137010152565b9080601f8301121561043c5781602061199593359101611935565b90565b602060031982011261043c57600435906001600160401b03821161043c578060238301121561043c5781602461199593600401359101611935565b805180835260209291819084018484015e5f828201840152601f01601f1916010190565b60208152604063ffffffff6020611a188551848387015260608601906119d3565b9401511691015290565b9181601f8401121561043c578235916001600160401b03831161043c576020808501948460051b01011161043c57565b90600182811c92168015611a80575b6020831014611a6c57565b634e487b7160e01b5f52602260045260245ffd5b91607f1691611a61565b9035601e198236030181121561043c5701602081359101916001600160401b03821161043c57813603831361043c57565b908060209392818452848401375f828201840152601f01601f1916010190565b90602063ffffffff611b0982611b02611af48780611a8a565b604088526040880191611abb565b950161187c565b1691015290565b60405190611b1d826118f9565b5f602083606081520152565b15611b3057565b60405162461bcd60e51b815260206004820152604a60248201527f4543445341536572766963654d616e61676572426173652e6f6e6c795374616b60448201527f6552656769737472793a2063616c6c6572206973206e6f7420746865207374616064820152696b65526567697374727960b01b608482015260a490fd5b6001600160401b038111610e465760051b60200190565b60208183031261043c578051906001600160401b03821161043c57019060208282031261043c5760405191602083018381106001600160401b03821117610e46576040528051906001600160401b03821161043c570181601f8201121561043c57805190611c3282611bae565b92611c406040519485611914565b82845260208085019360061b8301019181831161043c57602001925b828410611c6c5750505050815290565b60408483031261043c5760405190611c83826118f9565b84516001600160a01b038116810361043c5782526020850151906bffffffffffffffffffffffff8216820361043c5782602092836040950152815201930192611c5c565b8051821015611cdb5760209160051b010190565b634e487b7160e01b5f52603260045260245ffd5b5f198114610f7e5760010190565b90611d0782611bae565b611d146040519182611914565b8281528092611d25601f1991611bae565b0190602036910137565b6033546001600160a01b03163303611d4357565b606460405162461bcd60e51b815260206004820152602060248201527f4f776e61626c653a2063616c6c6572206973206e6f7420746865206f776e65726044820152fd5b6065546001600160a01b03163303611d9b57565b60405162461bcd60e51b815260206004820152605160248201527f4543445341536572766963654d616e61676572426173652e6f6e6c795265776160448201527f726473496e69746961746f723a2063616c6c6572206973206e6f7420746865206064820152703932bbb0b932399034b734ba34b0ba37b960791b608482015260a490fd5b9190811015611cdb5760051b8101359060be198136030182121561043c570190565b903590601e198136030182121561043c57018035906001600160401b03821161043c57602001918160061b3603831361043c57565b91908201809211610f7e57565b356001600160a01b038116810361043c5790565b9081602091031261043c5751801515810361043c5790565b9035601e198236030181121561043c5701602081359101916001600160401b03821161043c578160061b3603831361043c57565b916020908281520191905f905b808210611efe5750505090565b909192833560018060a01b03811680910361043c5781526020840135906bffffffffffffffffffffffff821680920361043c57604081600193602083940152019401920190611ef1565b9190811015611cdb5760051b81013590609e198136030182121561043c57019056fea26469706673582212203c65beb6daf4c28636f5af44744162881676248dc378d4007b91bcfeff110d4b64736f6c634300081c0033","opcodes":"PUSH2 0x100 CALLVALUE PUSH2 0x19A JUMPI PUSH1 0x1F PUSH2 0x2167 CODESIZE DUP2 SWAP1 SUB SWAP2 DUP3 ADD PUSH1 0x1F NOT AND DUP4 ADD SWAP2 PUSH1 0x1 PUSH1 0x1 PUSH1 0x40 SHL SUB DUP4 GT DUP5 DUP5 LT OR PUSH2 0x19E JUMPI DUP1 DUP5 SWAP3 PUSH1 0x80 SWAP5 PUSH1 0x40 MSTORE DUP4 CODECOPY DUP2 ADD SUB SLT PUSH2 0x19A JUMPI PUSH2 0x48 DUP2 PUSH2 0x1B2 JUMP JUMPDEST SWAP1 PUSH2 0x55 PUSH1 0x20 DUP3 ADD PUSH2 0x1B2 JUMP JUMPDEST PUSH2 0x6D PUSH1 0x60 PUSH2 0x66 PUSH1 0x40 DUP6 ADD PUSH2 0x1B2 JUMP JUMPDEST SWAP4 ADD PUSH2 0x1B2 JUMP JUMPDEST SWAP3 PUSH1 0xA0 MSTORE PUSH1 0x80 MSTORE PUSH1 0xC0 MSTORE PUSH1 0xE0 MSTORE PUSH0 SLOAD PUSH1 0xFF DUP2 PUSH1 0x8 SHR AND PUSH2 0x145 JUMPI PUSH1 0xFF DUP1 DUP3 AND LT PUSH2 0x10B JUMPI JUMPDEST PUSH1 0x40 MLOAD PUSH2 0x1FA0 SWAP1 DUP2 PUSH2 0x1C7 DUP3 CODECOPY PUSH1 0x80 MLOAD DUP2 DUP2 DUP2 PUSH2 0x57F ADD MSTORE DUP2 DUP2 PUSH2 0x7DB ADD MSTORE DUP2 DUP2 PUSH2 0xD74 ADD MSTORE DUP2 DUP2 PUSH2 0x1046 ADD MSTORE DUP2 DUP2 PUSH2 0x128B ADD MSTORE PUSH2 0x1593 ADD MSTORE PUSH1 0xA0 MLOAD DUP2 DUP2 DUP2 PUSH2 0x749 ADD MSTORE DUP2 DUP2 PUSH2 0x80B ADD MSTORE DUP2 DUP2 PUSH2 0xD9D ADD MSTORE PUSH2 0x1002 ADD MSTORE PUSH1 0xC0 MLOAD DUP2 DUP2 DUP2 PUSH2 0x137 ADD MSTORE DUP2 DUP2 PUSH2 0x8B1 ADD MSTORE PUSH2 0xC6D ADD MSTORE PUSH1 0xE0 MLOAD DUP2 PUSH2 0x1659 ADD MSTORE RETURN JUMPDEST PUSH1 0xFF SWAP1 DUP2 NOT AND OR PUSH0 SSTORE PUSH32 0x7F26B83FF96E1F2B6A682F133852F6798A09C465DA95921460CEFB3847402498 PUSH1 0x20 PUSH1 0x40 MLOAD PUSH1 0xFF DUP2 MSTORE LOG1 PUSH0 PUSH2 0x92 JUMP JUMPDEST PUSH1 0x40 MLOAD PUSH3 0x461BCD PUSH1 0xE5 SHL DUP2 MSTORE PUSH1 0x20 PUSH1 0x4 DUP3 ADD MSTORE PUSH1 0x27 PUSH1 0x24 DUP3 ADD MSTORE PUSH32 0x496E697469616C697A61626C653A20636F6E747261637420697320696E697469 PUSH1 0x44 DUP3 ADD MSTORE PUSH7 0x616C697A696E67 PUSH1 0xC8 SHL PUSH1 0x64 DUP3 ADD MSTORE PUSH1 0x84 SWAP1 REVERT JUMPDEST PUSH0 DUP1 REVERT JUMPDEST PUSH4 0x4E487B71 PUSH1 0xE0 SHL PUSH0 MSTORE PUSH1 0x41 PUSH1 0x4 MSTORE PUSH1 0x24 PUSH0 REVERT JUMPDEST MLOAD SWAP1 PUSH1 0x1 PUSH1 0x1 PUSH1 0xA0 SHL SUB DUP3 AND DUP3 SUB PUSH2 0x19A JUMPI JUMP INVALID PUSH1 0x80 DUP1 PUSH1 0x40 MSTORE PUSH1 0x4 CALLDATASIZE LT ISZERO PUSH2 0x12 JUMPI PUSH0 DUP1 REVERT JUMPDEST PUSH0 SWAP1 PUSH0 CALLDATALOAD PUSH1 0xE0 SHR SWAP1 DUP2 PUSH4 0x2D89F6FC EQ PUSH2 0x1834 JUMPI POP DUP1 PUSH4 0x33CFB7B7 EQ PUSH2 0x1566 JUMPI DUP1 PUSH4 0x3415A49C EQ PUSH2 0x10F4 JUMPI DUP1 PUSH4 0x3BC28C8C EQ PUSH2 0x1075 JUMPI DUP1 PUSH4 0x68304835 EQ PUSH2 0x1031 JUMPI DUP1 PUSH4 0x6B3AA72E EQ PUSH2 0xFED JUMPI DUP1 PUSH4 0x715018A6 EQ PUSH2 0xF92 JUMPI DUP1 PUSH4 0x85EDF874 EQ PUSH2 0xEA5 JUMPI DUP1 PUSH4 0x8B00CE7C EQ PUSH2 0xE82 JUMPI DUP1 PUSH4 0x8DA5CB5B EQ PUSH2 0xE5A JUMPI DUP1 PUSH4 0x9926EE7D EQ PUSH2 0xCD5 JUMPI DUP1 PUSH4 0xA0169DDD EQ PUSH2 0xC48 JUMPI DUP1 PUSH4 0xA20B99BF EQ PUSH2 0x873 JUMPI DUP1 PUSH4 0xA364F4DA EQ PUSH2 0x7BA JUMPI DUP1 PUSH4 0xA98FB355 EQ PUSH2 0x72F JUMPI DUP1 PUSH4 0xC20BAB7F EQ PUSH2 0x630 JUMPI DUP1 PUSH4 0xE481AF9D EQ PUSH2 0x55A JUMPI DUP1 PUSH4 0xF2FDE38B EQ PUSH2 0x491 JUMPI DUP1 PUSH4 0xFC299DEE EQ PUSH2 0x468 JUMPI PUSH4 0xFCE36C7D EQ PUSH2 0xFA JUMPI PUSH0 DUP1 REVERT JUMPDEST CALLVALUE PUSH2 0x1D7 JUMPI PUSH1 0x20 CALLDATASIZE PUSH1 0x3 NOT ADD SLT PUSH2 0x1D7 JUMPI PUSH1 0x4 CALLDATALOAD PUSH1 0x1 PUSH1 0x1 PUSH1 0x40 SHL SUB DUP2 GT PUSH2 0x464 JUMPI PUSH2 0x12A SWAP1 CALLDATASIZE SWAP1 PUSH1 0x4 ADD PUSH2 0x1A22 JUMP JUMPDEST PUSH2 0x135 SWAP3 SWAP2 SWAP3 PUSH2 0x1D87 JUMP JUMPDEST PUSH32 0x0 DUP3 JUMPDEST DUP3 DUP2 LT PUSH2 0x282 JUMPI POP PUSH1 0x1 PUSH1 0x1 PUSH1 0xA0 SHL SUB AND SWAP1 DUP2 EXTCODESIZE ISZERO PUSH2 0x27E JUMPI PUSH1 0x40 MLOAD SWAP4 PUSH4 0xFCE36C7D PUSH1 0xE0 SHL DUP6 MSTORE DUP2 PUSH1 0x24 DUP7 ADD PUSH1 0x20 PUSH1 0x4 DUP9 ADD MSTORE MSTORE PUSH1 0x44 DUP6 ADD PUSH1 0x44 DUP4 PUSH1 0x5 SHL DUP8 ADD ADD SWAP3 DUP3 DUP7 SWAP1 PUSH1 0x9E NOT DUP2 CALLDATASIZE SUB ADD JUMPDEST DUP4 DUP4 LT PUSH2 0x1E5 JUMPI DUP9 DUP1 DUP12 DUP2 DUP2 DUP1 DUP13 SUB DUP2 DUP4 DUP16 GAS CALL DUP1 ISZERO PUSH2 0x1DA JUMPI PUSH2 0x1C6 JUMPI POP RETURN JUMPDEST DUP2 PUSH2 0x1D0 SWAP2 PUSH2 0x1914 JUMP JUMPDEST PUSH2 0x1D7 JUMPI DUP1 RETURN JUMPDEST DUP1 REVERT JUMPDEST PUSH1 0x40 MLOAD RETURNDATASIZE DUP5 DUP3 RETURNDATACOPY RETURNDATASIZE SWAP1 REVERT JUMPDEST SWAP1 SWAP2 SWAP3 SWAP4 SWAP5 SWAP6 PUSH1 0x43 NOT DUP11 DUP3 SUB ADD DUP7 MSTORE DUP7 CALLDATALOAD DUP3 DUP2 SLT ISZERO PUSH2 0x27A JUMPI PUSH1 0x20 PUSH1 0x1 SWAP3 DUP6 DUP3 SWAP4 ADD SWAP1 PUSH1 0x80 PUSH4 0xFFFFFFFF PUSH2 0x268 DUP3 PUSH2 0x22E PUSH2 0x220 DUP8 DUP1 PUSH2 0x1EB0 JUMP JUMPDEST PUSH1 0xA0 DUP9 MSTORE PUSH1 0xA0 DUP9 ADD SWAP2 PUSH2 0x1EE4 JUMP JUMPDEST SWAP6 DUP10 DUP1 PUSH1 0xA0 SHL SUB PUSH2 0x240 DUP10 DUP4 ADD PUSH2 0x18A3 JUMP JUMPDEST AND DUP9 DUP8 ADD MSTORE PUSH1 0x40 DUP2 ADD CALLDATALOAD PUSH1 0x40 DUP8 ADD MSTORE DUP4 PUSH2 0x25C PUSH1 0x60 DUP4 ADD PUSH2 0x187C JUMP JUMPDEST AND PUSH1 0x60 DUP8 ADD MSTORE ADD PUSH2 0x187C JUMP JUMPDEST AND SWAP2 ADD MSTORE SWAP9 ADD SWAP7 ADD SWAP5 SWAP4 ADD SWAP2 SWAP1 PUSH2 0x1A5 JUMP JUMPDEST DUP10 DUP1 REVERT JUMPDEST DUP3 DUP1 REVERT JUMPDEST DUP4 PUSH1 0x20 PUSH2 0x2E3 PUSH1 0x1 PUSH1 0x1 PUSH1 0xA0 SHL SUB PUSH2 0x2A5 DUP4 PUSH2 0x29F DUP8 DUP11 DUP14 PUSH2 0x1F48 JUMP JUMPDEST ADD PUSH2 0x1E84 JUMP JUMPDEST AND PUSH1 0x40 PUSH2 0x2B3 DUP7 DUP10 DUP13 PUSH2 0x1F48 JUMP JUMPDEST PUSH1 0x40 MLOAD PUSH4 0x23B872DD PUSH1 0xE0 SHL DUP2 MSTORE CALLER PUSH1 0x4 DUP3 ADD MSTORE ADDRESS PUSH1 0x24 DUP3 ADD MSTORE SWAP2 ADD CALLDATALOAD PUSH1 0x44 DUP3 ADD MSTORE SWAP4 DUP5 SWAP3 DUP4 SWAP2 SWAP1 DUP3 SWAP1 PUSH1 0x64 DUP3 ADD SWAP1 JUMP JUMPDEST SUB SWAP3 GAS CALL DUP1 ISZERO PUSH2 0x401 JUMPI PUSH2 0x448 JUMPI JUMPDEST POP PUSH1 0x1 PUSH1 0x1 PUSH1 0xA0 SHL SUB PUSH2 0x30B PUSH1 0x20 PUSH2 0x29F DUP5 DUP8 DUP11 PUSH2 0x1F48 JUMP JUMPDEST PUSH1 0x40 MLOAD PUSH4 0x6EB1769F PUSH1 0xE1 SHL DUP2 MSTORE ADDRESS PUSH1 0x4 DUP3 ADD MSTORE PUSH1 0x1 PUSH1 0x1 PUSH1 0xA0 SHL SUB DUP6 AND PUSH1 0x24 DUP3 ADD MSTORE SWAP2 PUSH1 0x20 SWAP2 DUP4 SWAP2 PUSH1 0x44 SWAP2 DUP4 SWAP2 AND GAS STATICCALL SWAP1 DUP2 ISZERO PUSH2 0x401 JUMPI DUP6 SWAP2 DUP8 SWAP2 DUP4 SWAP2 PUSH2 0x40C JUMPI JUMPDEST POP PUSH1 0x20 SWAP2 PUSH2 0x3B8 SWAP2 PUSH2 0x385 SWAP1 PUSH1 0x40 PUSH2 0x37E DUP9 DUP12 PUSH1 0x1 PUSH1 0x1 PUSH1 0xA0 SHL SUB PUSH2 0x377 DUP11 PUSH2 0x29F DUP6 DUP6 DUP13 PUSH2 0x1F48 JUMP JUMPDEST AND SWAP7 PUSH2 0x1F48 JUMP JUMPDEST ADD CALLDATALOAD PUSH2 0x1E77 JUMP JUMPDEST PUSH1 0x40 MLOAD PUSH4 0x95EA7B3 PUSH1 0xE0 SHL DUP2 MSTORE PUSH1 0x1 PUSH1 0x1 PUSH1 0xA0 SHL SUB DUP9 AND PUSH1 0x4 DUP3 ADD MSTORE PUSH1 0x24 DUP2 ADD SWAP2 SWAP1 SWAP2 MSTORE SWAP4 DUP5 SWAP3 DUP4 SWAP2 SWAP1 DUP3 SWAP1 PUSH1 0x44 DUP3 ADD SWAP1 JUMP JUMPDEST SUB SWAP3 GAS CALL DUP1 ISZERO PUSH2 0x401 JUMPI SWAP1 PUSH1 0x1 SWAP3 SWAP2 PUSH2 0x3D3 JUMPI JUMPDEST POP ADD PUSH2 0x158 JUMP JUMPDEST PUSH2 0x3F3 SWAP1 PUSH1 0x20 RETURNDATASIZE DUP2 GT PUSH2 0x3FA JUMPI JUMPDEST PUSH2 0x3EB DUP2 DUP4 PUSH2 0x1914 JUMP JUMPDEST DUP2 ADD SWAP1 PUSH2 0x1E98 JUMP JUMPDEST POP PUSH0 PUSH2 0x3CC JUMP JUMPDEST POP RETURNDATASIZE PUSH2 0x3E1 JUMP JUMPDEST PUSH1 0x40 MLOAD RETURNDATASIZE DUP8 DUP3 RETURNDATACOPY RETURNDATASIZE SWAP1 REVERT JUMPDEST SWAP3 POP POP POP PUSH1 0x20 DUP2 RETURNDATASIZE DUP3 GT PUSH2 0x440 JUMPI JUMPDEST DUP2 PUSH2 0x428 PUSH1 0x20 SWAP4 DUP4 PUSH2 0x1914 JUMP JUMPDEST DUP2 ADD SUB SLT PUSH2 0x43C JUMPI MLOAD DUP5 SWAP1 DUP7 SWAP1 PUSH1 0x20 PUSH2 0x34D JUMP JUMPDEST PUSH0 DUP1 REVERT JUMPDEST RETURNDATASIZE SWAP2 POP PUSH2 0x41B JUMP JUMPDEST PUSH2 0x45F SWAP1 PUSH1 0x20 RETURNDATASIZE DUP2 GT PUSH2 0x3FA JUMPI PUSH2 0x3EB DUP2 DUP4 PUSH2 0x1914 JUMP JUMPDEST PUSH2 0x2F2 JUMP JUMPDEST POP DUP1 REVERT JUMPDEST POP CALLVALUE PUSH2 0x1D7 JUMPI DUP1 PUSH1 0x3 NOT CALLDATASIZE ADD SLT PUSH2 0x1D7 JUMPI PUSH1 0x65 SLOAD PUSH1 0x40 MLOAD PUSH1 0x1 PUSH1 0x1 PUSH1 0xA0 SHL SUB SWAP1 SWAP2 AND DUP2 MSTORE PUSH1 0x20 SWAP1 RETURN JUMPDEST POP CALLVALUE PUSH2 0x1D7 JUMPI PUSH1 0x20 CALLDATASIZE PUSH1 0x3 NOT ADD SLT PUSH2 0x1D7 JUMPI PUSH2 0x4AB PUSH2 0x188D JUMP JUMPDEST PUSH2 0x4B3 PUSH2 0x1D2F JUMP JUMPDEST PUSH1 0x1 PUSH1 0x1 PUSH1 0xA0 SHL SUB AND DUP1 ISZERO PUSH2 0x506 JUMPI PUSH1 0x33 DUP1 SLOAD PUSH1 0x1 PUSH1 0x1 PUSH1 0xA0 SHL SUB NOT DUP2 AND DUP4 OR SWAP1 SWAP2 SSTORE PUSH1 0x1 PUSH1 0x1 PUSH1 0xA0 SHL SUB AND PUSH32 0x8BE0079C531659141344CD1FD0A4F28419497F9722A3DAAFE3B4186F6B6457E0 DUP4 DUP1 LOG3 DUP1 RETURN JUMPDEST PUSH1 0x40 MLOAD PUSH3 0x461BCD PUSH1 0xE5 SHL DUP2 MSTORE PUSH1 0x20 PUSH1 0x4 DUP3 ADD MSTORE PUSH1 0x26 PUSH1 0x24 DUP3 ADD MSTORE PUSH32 0x4F776E61626C653A206E6577206F776E657220697320746865207A65726F2061 PUSH1 0x44 DUP3 ADD MSTORE PUSH6 0x646472657373 PUSH1 0xD0 SHL PUSH1 0x64 DUP3 ADD MSTORE PUSH1 0x84 SWAP1 REVERT JUMPDEST POP CALLVALUE PUSH2 0x1D7 JUMPI DUP1 PUSH1 0x3 NOT CALLDATASIZE ADD SLT PUSH2 0x1D7 JUMPI PUSH1 0x40 MLOAD PUSH4 0x2E07403 PUSH1 0xE3 SHL DUP2 MSTORE DUP2 DUP2 PUSH1 0x4 DUP2 PUSH32 0x0 PUSH1 0x1 PUSH1 0x1 PUSH1 0xA0 SHL SUB AND GAS STATICCALL SWAP1 DUP2 ISZERO PUSH2 0x1DA JUMPI DUP3 SWAP2 PUSH2 0x60E JUMPI JUMPDEST POP PUSH2 0x5C3 DUP2 MLOAD MLOAD PUSH2 0x1CFD JUMP JUMPDEST SWAP2 JUMPDEST DUP2 MLOAD DUP1 MLOAD DUP3 LT ISZERO PUSH2 0x5FC JUMPI PUSH1 0x1 SWAP2 SWAP1 PUSH1 0x1 PUSH1 0x1 PUSH1 0xA0 SHL SUB SWAP1 PUSH2 0x5E8 SWAP1 DUP4 SWAP1 PUSH2 0x1CC7 JUMP JUMPDEST MLOAD MLOAD AND PUSH2 0x5F5 DUP3 DUP7 PUSH2 0x1CC7 JUMP JUMPDEST MSTORE ADD PUSH2 0x5C5 JUMP JUMPDEST PUSH1 0x40 MLOAD DUP1 PUSH2 0x60A DUP7 DUP3 PUSH2 0x18B7 JUMP JUMPDEST SUB SWAP1 RETURN JUMPDEST PUSH2 0x62A SWAP2 POP RETURNDATASIZE DUP1 DUP5 DUP4 RETURNDATACOPY PUSH2 0x622 DUP2 DUP4 PUSH2 0x1914 JUMP JUMPDEST DUP2 ADD SWAP1 PUSH2 0x1BC5 JUMP JUMPDEST PUSH0 PUSH2 0x5B7 JUMP JUMPDEST POP CALLVALUE PUSH2 0x1D7 JUMPI PUSH1 0x40 CALLDATASIZE PUSH1 0x3 NOT ADD SLT PUSH2 0x1D7 JUMPI PUSH2 0x64A PUSH2 0x188D JUMP JUMPDEST PUSH2 0x652 PUSH2 0x1869 JUMP JUMPDEST SWAP1 PUSH1 0x1 DUP1 PUSH1 0xA0 SHL SUB AND DUP3 MSTORE PUSH1 0x99 PUSH1 0x20 MSTORE PUSH4 0xFFFFFFFF PUSH1 0x40 DUP4 KECCAK256 SWAP2 AND PUSH0 MSTORE PUSH1 0x20 MSTORE PUSH1 0x40 PUSH0 KECCAK256 SWAP1 PUSH1 0x40 MLOAD SWAP2 DUP2 DUP2 SLOAD SWAP2 PUSH2 0x688 DUP4 PUSH2 0x1A52 JUMP JUMPDEST DUP1 DUP7 MSTORE SWAP3 PUSH1 0x1 DUP2 AND SWAP1 DUP2 ISZERO PUSH2 0x705 JUMPI POP PUSH1 0x1 EQ PUSH2 0x6C4 JUMPI JUMPDEST PUSH2 0x60A DUP6 PUSH2 0x6B0 DUP2 DUP8 SUB DUP3 PUSH2 0x1914 JUMP JUMPDEST PUSH1 0x40 MLOAD SWAP2 DUP3 SWAP2 PUSH1 0x20 DUP4 MSTORE PUSH1 0x20 DUP4 ADD SWAP1 PUSH2 0x19D3 JUMP JUMPDEST DUP2 MSTORE PUSH1 0x20 DUP2 KECCAK256 SWAP4 SWAP3 POP SWAP1 JUMPDEST DUP1 DUP3 LT PUSH2 0x6EB JUMPI POP SWAP1 SWAP2 POP DUP2 ADD PUSH1 0x20 ADD PUSH2 0x6B0 DUP3 PUSH2 0x60A PUSH2 0x6A0 JUMP JUMPDEST SWAP2 SWAP3 PUSH1 0x1 DUP2 PUSH1 0x20 SWAP3 SLOAD DUP4 DUP6 DUP9 ADD ADD MSTORE ADD SWAP2 ADD SWAP1 SWAP3 SWAP2 PUSH2 0x6CF JUMP JUMPDEST DUP7 SWAP6 POP PUSH2 0x60A SWAP7 SWAP4 POP PUSH1 0x20 SWAP3 POP PUSH2 0x6B0 SWAP5 SWAP2 POP PUSH1 0xFF NOT AND DUP3 DUP5 ADD MSTORE ISZERO ISZERO PUSH1 0x5 SHL DUP3 ADD ADD SWAP3 SWAP4 PUSH2 0x6A0 JUMP JUMPDEST POP CALLVALUE PUSH2 0x1D7 JUMPI DUP1 PUSH2 0x73F CALLDATASIZE PUSH2 0x1998 JUMP JUMPDEST PUSH2 0x747 PUSH2 0x1D2F JUMP JUMPDEST PUSH32 0x0 PUSH1 0x1 PUSH1 0x1 PUSH1 0xA0 SHL SUB AND DUP1 EXTCODESIZE ISZERO PUSH2 0x7B6 JUMPI PUSH1 0x40 MLOAD PUSH4 0xA98FB355 PUSH1 0xE0 SHL DUP2 MSTORE PUSH1 0x20 PUSH1 0x4 DUP3 ADD MSTORE SWAP2 DUP4 SWAP2 DUP4 SWAP2 DUP3 SWAP1 DUP5 SWAP1 DUP3 SWAP1 PUSH2 0x7A5 SWAP1 PUSH1 0x24 DUP4 ADD SWAP1 PUSH2 0x19D3 JUMP JUMPDEST SUB SWAP3 GAS CALL DUP1 ISZERO PUSH2 0x1DA JUMPI PUSH2 0x1C6 JUMPI POP RETURN JUMPDEST POP POP REVERT JUMPDEST POP CALLVALUE PUSH2 0x1D7 JUMPI PUSH1 0x20 CALLDATASIZE PUSH1 0x3 NOT ADD SLT PUSH2 0x1D7 JUMPI DUP1 PUSH2 0x7D5 PUSH2 0x188D JUMP JUMPDEST PUSH2 0x809 CALLER PUSH32 0x0 PUSH1 0x1 PUSH1 0x1 PUSH1 0xA0 SHL SUB AND EQ PUSH2 0x1B29 JUMP JUMPDEST PUSH32 0x0 PUSH1 0x1 PUSH1 0x1 PUSH1 0xA0 SHL SUB AND SWAP1 DUP2 EXTCODESIZE ISZERO PUSH2 0x7B6 JUMPI PUSH1 0x40 MLOAD PUSH4 0x51B27A6D PUSH1 0xE1 SHL DUP2 MSTORE PUSH1 0x1 PUSH1 0x1 PUSH1 0xA0 SHL SUB SWAP1 SWAP2 AND PUSH1 0x4 DUP3 ADD MSTORE SWAP1 DUP3 SWAP1 DUP3 SWAP1 PUSH1 0x24 SWAP1 DUP3 SWAP1 DUP5 SWAP1 GAS CALL DUP1 ISZERO PUSH2 0x1DA JUMPI PUSH2 0x1C6 JUMPI POP RETURN JUMPDEST POP CALLVALUE PUSH2 0x1D7 JUMPI PUSH1 0x20 CALLDATASIZE PUSH1 0x3 NOT ADD SLT PUSH2 0x1D7 JUMPI PUSH1 0x4 CALLDATALOAD PUSH1 0x1 PUSH1 0x1 PUSH1 0x40 SHL SUB DUP2 GT PUSH2 0x464 JUMPI PUSH2 0x8A4 SWAP1 CALLDATASIZE SWAP1 PUSH1 0x4 ADD PUSH2 0x1A22 JUMP JUMPDEST PUSH2 0x8AF SWAP3 SWAP2 SWAP3 PUSH2 0x1D87 JUMP JUMPDEST PUSH32 0x0 DUP3 JUMPDEST DUP3 DUP2 LT PUSH2 0xA60 JUMPI POP SWAP2 SWAP3 DUP4 SWAP3 PUSH1 0x1 PUSH1 0x1 PUSH1 0xA0 SHL SUB AND SWAP1 DUP2 EXTCODESIZE ISZERO PUSH2 0xA5B JUMPI SWAP4 POP PUSH1 0x40 MLOAD SWAP2 PUSH4 0x4E5CD2FD PUSH1 0xE1 SHL DUP4 MSTORE DUP1 PUSH1 0x44 DUP5 ADD ADDRESS PUSH1 0x4 DUP7 ADD MSTORE PUSH1 0x40 PUSH1 0x24 DUP7 ADD MSTORE MSTORE PUSH1 0x64 DUP4 ADD SWAP1 PUSH1 0x64 DUP2 PUSH1 0x5 SHL DUP6 ADD ADD SWAP6 DUP1 SWAP3 DUP7 SWAP2 PUSH1 0xBE NOT DUP2 CALLDATASIZE SUB ADD JUMPDEST DUP5 DUP5 LT PUSH2 0x94E JUMPI DUP9 DUP1 DUP10 DUP2 DUP2 DUP1 DUP16 SUB DUP2 DUP4 DUP15 GAS CALL DUP1 ISZERO PUSH2 0x1DA JUMPI PUSH2 0x1C6 JUMPI POP RETURN JUMPDEST DUP8 DUP11 SUB PUSH1 0x63 NOT ADD DUP4 MSTORE DUP6 CALLDATALOAD DUP2 DUP2 SLT ISZERO PUSH2 0x27A JUMPI DUP3 ADD SWAP10 PUSH2 0x97F PUSH2 0x971 DUP13 DUP1 PUSH2 0x1EB0 JUMP JUMPDEST PUSH1 0xC0 DUP5 MSTORE PUSH1 0xC0 DUP5 ADD SWAP2 PUSH2 0x1EE4 JUMP JUMPDEST SWAP11 PUSH1 0x1 PUSH1 0x1 PUSH1 0xA0 SHL SUB PUSH2 0x994 PUSH1 0x20 DUP4 ADD PUSH2 0x18A3 JUMP JUMPDEST AND PUSH1 0x20 DUP4 ADD MSTORE PUSH1 0x20 PUSH2 0x9A9 PUSH1 0x40 DUP4 ADD DUP4 PUSH2 0x1EB0 JUMP JUMPDEST DUP5 DUP16 SUB PUSH1 0x40 DUP7 ADD MSTORE DUP1 DUP16 MSTORE SWAP14 SWAP1 SWAP2 ADD SWAP13 DUP13 JUMPDEST DUP2 DUP2 LT PUSH2 0xA2A JUMPI POP POP POP PUSH1 0x20 PUSH2 0xA1A DUP13 SWAP14 PUSH1 0x1 SWAP5 PUSH2 0xA0C DUP6 PUSH4 0xFFFFFFFF PUSH2 0x9E5 PUSH1 0x60 DUP9 SWAP10 ADD PUSH2 0x187C JUMP JUMPDEST AND PUSH1 0x60 DUP5 ADD MSTORE PUSH4 0xFFFFFFFF PUSH2 0x9FC PUSH1 0x80 DUP4 ADD PUSH2 0x187C JUMP JUMPDEST AND PUSH1 0x80 DUP5 ADD MSTORE PUSH1 0xA0 DUP2 ADD SWAP1 PUSH2 0x1A8A JUMP JUMPDEST SWAP2 PUSH1 0xA0 DUP2 DUP6 SUB SWAP2 ADD MSTORE PUSH2 0x1ABB JUMP JUMPDEST SWAP9 ADD SWAP5 ADD SWAP5 ADD SWAP4 SWAP3 SWAP6 SWAP10 POP PUSH2 0x92D JUMP JUMPDEST SWAP1 SWAP2 SWAP14 PUSH1 0x40 DUP16 PUSH1 0x1 SWAP3 PUSH1 0x20 DUP4 SWAP3 DUP6 DUP1 PUSH1 0xA0 SHL SUB PUSH2 0xA46 DUP3 PUSH2 0x18A3 JUMP JUMPDEST AND DUP4 MSTORE ADD CALLDATALOAD PUSH1 0x20 DUP3 ADD MSTORE ADD SWAP16 ADD SWAP3 SWAP2 ADD PUSH2 0x9BB JUMP JUMPDEST POP POP POP REVERT JUMPDEST SWAP1 SWAP3 SWAP2 DUP3 SWAP5 DUP4 SWAP6 JUMPDEST PUSH2 0xA80 PUSH2 0xA76 DUP6 DUP6 DUP6 PUSH2 0x1E20 JUMP JUMPDEST PUSH1 0x40 DUP2 ADD SWAP1 PUSH2 0x1E42 JUMP JUMPDEST SWAP1 POP DUP8 LT ISZERO PUSH2 0xAD0 JUMPI PUSH2 0xA97 PUSH2 0xA76 DUP6 DUP6 DUP6 PUSH2 0x1E20 JUMP JUMPDEST DUP9 LT ISZERO PUSH2 0xABC JUMPI PUSH1 0x1 SWAP2 PUSH1 0x20 PUSH2 0xAB4 SWAP3 DUP11 PUSH1 0x6 SHL ADD ADD CALLDATALOAD SWAP1 PUSH2 0x1E77 JUMP JUMPDEST SWAP7 ADD SWAP6 PUSH2 0xA68 JUMP JUMPDEST PUSH4 0x4E487B71 PUSH1 0xE0 SHL DUP7 MSTORE PUSH1 0x32 PUSH1 0x4 MSTORE PUSH1 0x24 DUP7 REVERT JUMPDEST SWAP1 SWAP6 POP SWAP3 SWAP4 SWAP1 SWAP3 SWAP1 SWAP2 SWAP1 PUSH1 0x1 PUSH1 0x1 PUSH1 0xA0 SHL SUB PUSH2 0xAF2 PUSH1 0x20 PUSH2 0x29F DUP6 DUP9 DUP12 PUSH2 0x1E20 JUMP JUMPDEST PUSH1 0x40 MLOAD PUSH4 0x23B872DD PUSH1 0xE0 SHL DUP2 MSTORE CALLER PUSH1 0x4 DUP3 ADD MSTORE ADDRESS PUSH1 0x24 DUP3 ADD MSTORE PUSH1 0x44 DUP2 ADD DUP5 SWAP1 MSTORE SWAP2 PUSH1 0x20 SWAP2 DUP4 SWAP2 PUSH1 0x64 SWAP2 DUP4 SWAP2 DUP12 SWAP2 AND GAS CALL DUP1 ISZERO PUSH2 0xC21 JUMPI PUSH2 0xC2C JUMPI JUMPDEST POP PUSH1 0x1 PUSH1 0x1 PUSH1 0xA0 SHL SUB PUSH2 0xB46 PUSH1 0x20 PUSH2 0x29F DUP6 DUP9 DUP12 PUSH2 0x1E20 JUMP JUMPDEST PUSH1 0x40 MLOAD PUSH4 0x6EB1769F PUSH1 0xE1 SHL DUP2 MSTORE ADDRESS PUSH1 0x4 DUP3 ADD MSTORE PUSH1 0x1 PUSH1 0x1 PUSH1 0xA0 SHL SUB DUP7 AND PUSH1 0x24 DUP3 ADD MSTORE SWAP2 PUSH1 0x20 SWAP2 DUP4 SWAP2 PUSH1 0x44 SWAP2 DUP4 SWAP2 AND GAS STATICCALL SWAP1 DUP2 ISZERO PUSH2 0xC21 JUMPI SWAP1 DUP7 SWAP3 SWAP2 DUP4 SWAP2 PUSH2 0xBEA JUMPI JUMPDEST POP PUSH1 0x20 SWAP2 PUSH2 0x385 PUSH2 0xBB1 SWAP3 DUP11 PUSH2 0xBAA DUP7 PUSH2 0x29F DUP11 DUP14 PUSH1 0x1 DUP1 PUSH1 0xA0 SHL SUB SWAP6 PUSH2 0x1E20 JUMP JUMPDEST AND SWAP3 PUSH2 0x1E77 JUMP JUMPDEST SUB SWAP3 GAS CALL DUP1 ISZERO PUSH2 0x401 JUMPI SWAP1 PUSH1 0x1 SWAP3 SWAP2 PUSH2 0xBCC JUMPI JUMPDEST POP ADD PUSH2 0x8D2 JUMP JUMPDEST PUSH2 0xBE3 SWAP1 PUSH1 0x20 RETURNDATASIZE DUP2 GT PUSH2 0x3FA JUMPI PUSH2 0x3EB DUP2 DUP4 PUSH2 0x1914 JUMP JUMPDEST POP PUSH0 PUSH2 0xBC5 JUMP JUMPDEST SWAP3 POP POP PUSH1 0x20 DUP3 RETURNDATASIZE DUP3 GT PUSH2 0xC19 JUMPI JUMPDEST DUP2 PUSH2 0xC05 PUSH1 0x20 SWAP4 DUP4 PUSH2 0x1914 JUMP JUMPDEST DUP2 ADD SUB SLT PUSH2 0x43C JUMPI SWAP1 MLOAD DUP6 SWAP2 SWAP1 PUSH1 0x20 PUSH2 0xB88 JUMP JUMPDEST RETURNDATASIZE SWAP2 POP PUSH2 0xBF8 JUMP JUMPDEST PUSH1 0x40 MLOAD RETURNDATASIZE DUP9 DUP3 RETURNDATACOPY RETURNDATASIZE SWAP1 REVERT JUMPDEST PUSH2 0xC43 SWAP1 PUSH1 0x20 RETURNDATASIZE DUP2 GT PUSH2 0x3FA JUMPI PUSH2 0x3EB DUP2 DUP4 PUSH2 0x1914 JUMP JUMPDEST PUSH2 0xB2D JUMP JUMPDEST POP CALLVALUE PUSH2 0x1D7 JUMPI PUSH1 0x20 CALLDATASIZE PUSH1 0x3 NOT ADD SLT PUSH2 0x1D7 JUMPI DUP1 PUSH2 0xC63 PUSH2 0x188D JUMP JUMPDEST PUSH2 0xC6B PUSH2 0x1D2F JUMP JUMPDEST PUSH32 0x0 PUSH1 0x1 PUSH1 0x1 PUSH1 0xA0 SHL SUB AND SWAP1 DUP2 EXTCODESIZE ISZERO PUSH2 0x7B6 JUMPI PUSH1 0x40 MLOAD PUSH4 0xA0169DDD PUSH1 0xE0 SHL DUP2 MSTORE PUSH1 0x1 PUSH1 0x1 PUSH1 0xA0 SHL SUB SWAP1 SWAP2 AND PUSH1 0x4 DUP3 ADD MSTORE SWAP1 DUP3 SWAP1 DUP3 SWAP1 PUSH1 0x24 SWAP1 DUP3 SWAP1 DUP5 SWAP1 GAS CALL DUP1 ISZERO PUSH2 0x1DA JUMPI PUSH2 0x1C6 JUMPI POP RETURN JUMPDEST POP CALLVALUE PUSH2 0x43C JUMPI PUSH1 0x40 CALLDATASIZE PUSH1 0x3 NOT ADD SLT PUSH2 0x43C JUMPI PUSH2 0xCEF PUSH2 0x188D JUMP JUMPDEST PUSH1 0x24 CALLDATALOAD SWAP1 PUSH1 0x1 PUSH1 0x1 PUSH1 0x40 SHL SUB DUP3 GT PUSH2 0x43C JUMPI PUSH1 0x60 PUSH1 0x3 NOT DUP4 CALLDATASIZE SUB ADD SLT PUSH2 0x43C JUMPI PUSH1 0x40 MLOAD SWAP1 PUSH1 0x60 DUP3 ADD DUP3 DUP2 LT PUSH1 0x1 PUSH1 0x1 PUSH1 0x40 SHL SUB DUP3 GT OR PUSH2 0xE46 JUMPI PUSH1 0x40 MSTORE DUP3 PUSH1 0x4 ADD CALLDATALOAD PUSH1 0x1 PUSH1 0x1 PUSH1 0x40 SHL SUB DUP2 GT PUSH2 0x43C JUMPI PUSH2 0xD4F SWAP1 PUSH1 0x4 CALLDATASIZE SWAP2 DUP7 ADD ADD PUSH2 0x197A JUMP JUMPDEST DUP3 MSTORE PUSH1 0x20 DUP3 ADD SWAP2 PUSH1 0x24 DUP5 ADD CALLDATALOAD DUP4 MSTORE PUSH1 0x44 PUSH1 0x40 DUP3 ADD SWAP5 ADD CALLDATALOAD DUP5 MSTORE PUSH2 0xD9B PUSH1 0x1 DUP1 PUSH1 0xA0 SHL SUB PUSH32 0x0 AND CALLER EQ PUSH2 0x1B29 JUMP JUMPDEST PUSH32 0x0 PUSH1 0x1 PUSH1 0x1 PUSH1 0xA0 SHL SUB AND SWAP1 DUP2 EXTCODESIZE ISZERO PUSH2 0x43C JUMPI PUSH0 PUSH2 0xE0E SWAP4 DUP2 SWAP6 PUSH1 0x40 MLOAD SWAP8 DUP9 SWAP7 DUP8 SWAP6 DUP7 SWAP5 PUSH4 0x9926EE7D PUSH1 0xE0 SHL DUP7 MSTORE PUSH1 0x1 DUP1 PUSH1 0xA0 SHL SUB AND PUSH1 0x4 DUP7 ADD MSTORE PUSH1 0x40 PUSH1 0x24 DUP7 ADD MSTORE MLOAD PUSH1 0x60 PUSH1 0x44 DUP7 ADD MSTORE PUSH1 0xA4 DUP6 ADD SWAP1 PUSH2 0x19D3 JUMP JUMPDEST SWAP2 MLOAD PUSH1 0x64 DUP5 ADD MSTORE MLOAD PUSH1 0x84 DUP4 ADD MSTORE SUB SWAP3 GAS CALL DUP1 ISZERO PUSH2 0xE3B JUMPI PUSH2 0xE2D JUMPI POP DUP1 RETURN JUMPDEST PUSH2 0xE39 SWAP2 POP PUSH0 SWAP1 PUSH2 0x1914 JUMP JUMPDEST STOP JUMPDEST PUSH1 0x40 MLOAD RETURNDATASIZE PUSH0 DUP3 RETURNDATACOPY RETURNDATASIZE SWAP1 REVERT JUMPDEST PUSH4 0x4E487B71 PUSH1 0xE0 SHL PUSH0 MSTORE PUSH1 0x41 PUSH1 0x4 MSTORE PUSH1 0x24 PUSH0 REVERT JUMPDEST CALLVALUE PUSH2 0x43C JUMPI PUSH0 CALLDATASIZE PUSH1 0x3 NOT ADD SLT PUSH2 0x43C JUMPI PUSH1 0x33 SLOAD PUSH1 0x40 MLOAD PUSH1 0x1 PUSH1 0x1 PUSH1 0xA0 SHL SUB SWAP1 SWAP2 AND DUP2 MSTORE PUSH1 0x20 SWAP1 RETURN JUMPDEST CALLVALUE PUSH2 0x43C JUMPI PUSH0 CALLDATASIZE PUSH1 0x3 NOT ADD SLT PUSH2 0x43C JUMPI PUSH1 0x20 PUSH4 0xFFFFFFFF PUSH1 0x97 SLOAD AND PUSH1 0x40 MLOAD SWAP1 DUP2 MSTORE RETURN JUMPDEST CALLVALUE PUSH2 0x43C JUMPI PUSH2 0xEB3 CALLDATASIZE PUSH2 0x1998 JUMP JUMPDEST PUSH2 0xEBB PUSH2 0x1B10 JUMP JUMPDEST POP PUSH2 0xEC4 PUSH2 0x1B10 JUMP JUMPDEST SWAP1 DUP2 MSTORE PUSH4 0xFFFFFFFF NUMBER AND PUSH1 0x20 DUP3 ADD MSTORE PUSH1 0x40 MLOAD PUSH1 0x20 DUP2 ADD SWAP1 PUSH2 0xEF7 DUP2 PUSH2 0xEE9 DUP6 DUP6 PUSH2 0x19F7 JUMP JUMPDEST SUB PUSH1 0x1F NOT DUP2 ADD DUP4 MSTORE DUP3 PUSH2 0x1914 JUMP JUMPDEST MLOAD SWAP1 KECCAK256 PUSH4 0xFFFFFFFF PUSH1 0x97 SLOAD AND PUSH0 MSTORE PUSH1 0x98 PUSH1 0x20 MSTORE PUSH1 0x40 PUSH0 KECCAK256 SSTORE PUSH1 0x97 SLOAD SWAP1 PUSH1 0x1 PUSH4 0xFFFFFFFF DUP4 AND DUP1 PUSH32 0x58180A6A0403A63C2B5CE4B85D129D46A80D37851B2216BD0A98B59E7309B847 PUSH1 0x40 MLOAD DUP1 PUSH2 0xF4C DUP8 DUP3 PUSH2 0x19F7 JUMP JUMPDEST SUB SWAP1 LOG2 ADD SWAP2 PUSH4 0xFFFFFFFF DUP4 GT PUSH2 0xF7E JUMPI PUSH4 0xFFFFFFFF PUSH2 0x60A SWAP4 AND SWAP1 PUSH4 0xFFFFFFFF NOT AND OR PUSH1 0x97 SSTORE PUSH1 0x40 MLOAD SWAP2 DUP3 SWAP2 DUP3 PUSH2 0x19F7 JUMP JUMPDEST PUSH4 0x4E487B71 PUSH1 0xE0 SHL PUSH0 MSTORE PUSH1 0x11 PUSH1 0x4 MSTORE PUSH1 0x24 PUSH0 REVERT JUMPDEST CALLVALUE PUSH2 0x43C JUMPI PUSH0 CALLDATASIZE PUSH1 0x3 NOT ADD SLT PUSH2 0x43C JUMPI PUSH2 0xFAA PUSH2 0x1D2F JUMP JUMPDEST PUSH1 0x33 DUP1 SLOAD PUSH1 0x1 PUSH1 0x1 PUSH1 0xA0 SHL SUB NOT DUP2 AND SWAP1 SWAP2 SSTORE PUSH0 SWAP1 PUSH1 0x1 PUSH1 0x1 PUSH1 0xA0 SHL SUB AND PUSH32 0x8BE0079C531659141344CD1FD0A4F28419497F9722A3DAAFE3B4186F6B6457E0 DUP3 DUP1 LOG3 STOP JUMPDEST CALLVALUE PUSH2 0x43C JUMPI PUSH0 CALLDATASIZE PUSH1 0x3 NOT ADD SLT PUSH2 0x43C JUMPI PUSH1 0x40 MLOAD PUSH32 0x0 PUSH1 0x1 PUSH1 0x1 PUSH1 0xA0 SHL SUB AND DUP2 MSTORE PUSH1 0x20 SWAP1 RETURN JUMPDEST CALLVALUE PUSH2 0x43C JUMPI PUSH0 CALLDATASIZE PUSH1 0x3 NOT ADD SLT PUSH2 0x43C JUMPI PUSH1 0x40 MLOAD PUSH32 0x0 PUSH1 0x1 PUSH1 0x1 PUSH1 0xA0 SHL SUB AND DUP2 MSTORE PUSH1 0x20 SWAP1 RETURN JUMPDEST CALLVALUE PUSH2 0x43C JUMPI PUSH1 0x20 CALLDATASIZE PUSH1 0x3 NOT ADD SLT PUSH2 0x43C JUMPI PUSH2 0x108E PUSH2 0x188D JUMP JUMPDEST PUSH2 0x1096 PUSH2 0x1D2F JUMP JUMPDEST PUSH1 0x65 SLOAD PUSH1 0x40 DUP1 MLOAD PUSH1 0x1 PUSH1 0x1 PUSH1 0xA0 SHL SUB DUP1 DUP5 AND DUP3 MSTORE DUP5 AND PUSH1 0x20 DUP3 ADD MSTORE SWAP2 SWAP3 SWAP2 PUSH32 0xE11CDDF1816A43318CA175BBC52CD0185436E9CBEAD7C83ACC54A73E461717E3 SWAP2 SWAP1 LOG1 PUSH1 0x1 PUSH1 0x1 PUSH1 0xA0 SHL SUB AND PUSH1 0x1 PUSH1 0x1 PUSH1 0xA0 SHL SUB NOT SWAP2 SWAP1 SWAP2 AND OR PUSH1 0x65 SSTORE STOP JUMPDEST CALLVALUE PUSH2 0x43C JUMPI PUSH1 0x60 CALLDATASIZE PUSH1 0x3 NOT ADD SLT PUSH2 0x43C JUMPI PUSH1 0x4 CALLDATALOAD PUSH1 0x1 PUSH1 0x1 PUSH1 0x40 SHL SUB DUP2 GT PUSH2 0x43C JUMPI CALLDATASIZE DUP2 SWAP1 SUB PUSH1 0x4 DUP3 ADD PUSH1 0x40 PUSH1 0x3 NOT DUP4 ADD SLT PUSH2 0x43C JUMPI PUSH2 0x1132 PUSH2 0x1869 JUMP JUMPDEST SWAP2 PUSH1 0x44 CALLDATALOAD PUSH1 0x1 PUSH1 0x1 PUSH1 0x40 SHL SUB DUP2 GT PUSH2 0x43C JUMPI PUSH2 0x1152 SWAP1 CALLDATASIZE SWAP1 PUSH1 0x4 ADD PUSH2 0x197A JUMP JUMPDEST SWAP4 PUSH4 0xFFFFFFFF PUSH1 0x40 MLOAD PUSH1 0x20 DUP2 ADD SWAP1 PUSH1 0x20 DUP3 MSTORE PUSH2 0x1175 DUP2 PUSH2 0xEE9 PUSH1 0x40 DUP3 ADD DUP10 PUSH2 0x1ADB JUMP JUMPDEST MLOAD SWAP1 KECCAK256 SWAP5 AND SWAP4 DUP5 PUSH0 MSTORE PUSH1 0x98 PUSH1 0x20 MSTORE PUSH1 0x40 PUSH0 KECCAK256 SLOAD SUB PUSH2 0x14FB JUMPI CALLER PUSH0 MSTORE PUSH1 0x99 PUSH1 0x20 MSTORE PUSH1 0x40 PUSH0 KECCAK256 DUP5 PUSH0 MSTORE PUSH1 0x20 MSTORE PUSH2 0x11AC PUSH1 0x40 PUSH0 KECCAK256 SLOAD PUSH2 0x1A52 JUMP JUMPDEST PUSH2 0x14A3 JUMPI DUP3 CALLDATALOAD SWAP2 PUSH1 0x22 NOT ADD DUP3 SLT ISZERO PUSH2 0x43C JUMPI ADD PUSH1 0x4 DUP2 ADD CALLDATALOAD SWAP1 PUSH1 0x1 PUSH1 0x1 PUSH1 0x40 SHL SUB DUP3 GT PUSH2 0x43C JUMPI PUSH1 0x24 ADD SWAP1 DUP1 CALLDATASIZE SUB DUP3 SGT PUSH2 0x43C JUMPI PUSH2 0x1217 PUSH1 0x27 PUSH1 0x40 MLOAD DUP4 DUP2 SWAP5 PUSH1 0x20 DUP4 ADD SWAP7 PUSH7 0x2432B63637961 PUSH1 0xCD SHL DUP9 MSTORE DUP5 DUP5 ADD CALLDATACOPY DUP2 ADD PUSH0 DUP4 DUP3 ADD MSTORE SUB ADD PUSH1 0x1F NOT DUP2 ADD DUP4 MSTORE DUP3 PUSH2 0x1914 JUMP JUMPDEST MLOAD SWAP1 KECCAK256 PUSH1 0x40 MLOAD PUSH1 0x20 DUP2 ADD SWAP2 PUSH32 0x19457468657265756D205369676E6564204D6573736167653A0A333200000000 DUP4 MSTORE PUSH1 0x3C DUP3 ADD MSTORE PUSH1 0x3C DUP2 MSTORE PUSH2 0x1259 PUSH1 0x5C DUP3 PUSH2 0x1914 JUMP JUMPDEST MLOAD SWAP1 KECCAK256 PUSH1 0x40 MLOAD SWAP1 PUSH4 0xB135D3F PUSH1 0xE1 SHL DUP3 MSTORE PUSH1 0x4 DUP3 ADD MSTORE PUSH1 0x40 PUSH1 0x24 DUP3 ADD MSTORE PUSH1 0x20 DUP2 DUP1 PUSH2 0x1287 PUSH1 0x44 DUP3 ADD DUP9 PUSH2 0x19D3 JUMP JUMPDEST SUB DUP2 PUSH32 0x0 PUSH1 0x1 PUSH1 0x1 PUSH1 0xA0 SHL SUB AND GAS STATICCALL SWAP1 DUP2 ISZERO PUSH2 0xE3B JUMPI PUSH0 SWAP2 PUSH2 0x1460 JUMPI JUMPDEST POP PUSH1 0x1 PUSH1 0x1 PUSH1 0xE0 SHL SUB NOT AND PUSH4 0xB135D3F PUSH1 0xE1 SHL SUB PUSH2 0x43C JUMPI CALLER PUSH0 MSTORE PUSH1 0x99 PUSH1 0x20 MSTORE PUSH1 0x40 PUSH0 KECCAK256 DUP3 PUSH0 MSTORE PUSH1 0x20 MSTORE PUSH1 0x40 PUSH0 KECCAK256 DUP4 MLOAD PUSH1 0x1 PUSH1 0x1 PUSH1 0x40 SHL SUB DUP2 GT PUSH2 0xE46 JUMPI PUSH2 0x130B DUP3 SLOAD PUSH2 0x1A52 JUMP JUMPDEST PUSH1 0x1F DUP2 GT PUSH2 0x141B JUMPI JUMPDEST POP PUSH1 0x20 PUSH1 0x1F DUP3 GT PUSH1 0x1 EQ PUSH2 0x1392 JUMPI SWAP1 DUP1 PUSH2 0x137C SWAP5 SWAP4 SWAP3 PUSH32 0x8EB2D2FCCCF5801E10FF58CD73E8781BA923122963789378771F03C1148B023E SWAP7 SWAP8 PUSH0 SWAP3 PUSH2 0x1387 JUMPI JUMPDEST POP POP DUP2 PUSH1 0x1 SHL SWAP2 PUSH0 NOT SWAP1 PUSH1 0x3 SHL SHR NOT AND OR SWAP1 SSTORE JUMPDEST PUSH1 0x40 MLOAD SWAP2 DUP3 SWAP2 PUSH1 0x40 DUP4 MSTORE PUSH1 0x40 DUP4 ADD SWAP1 PUSH2 0x1ADB JUMP JUMPDEST CALLER PUSH1 0x20 DUP4 ADD MSTORE SUB SWAP1 LOG2 STOP JUMPDEST ADD MLOAD SWAP1 POP DUP8 DUP1 PUSH2 0x1354 JUMP JUMPDEST PUSH1 0x1F NOT DUP3 AND SWAP6 DUP4 PUSH0 MSTORE DUP2 PUSH0 KECCAK256 SWAP7 PUSH0 JUMPDEST DUP2 DUP2 LT PUSH2 0x1403 JUMPI POP SWAP7 PUSH1 0x1 SWAP3 DUP5 SWAP3 PUSH2 0x137C SWAP8 SWAP7 SWAP6 PUSH32 0x8EB2D2FCCCF5801E10FF58CD73E8781BA923122963789378771F03C1148B023E SWAP10 SWAP11 LT PUSH2 0x13EB JUMPI JUMPDEST POP POP POP DUP2 SHL ADD SWAP1 SSTORE PUSH2 0x1368 JUMP JUMPDEST ADD MLOAD PUSH0 NOT PUSH1 0xF8 DUP5 PUSH1 0x3 SHL AND SHR NOT AND SWAP1 SSTORE DUP8 DUP1 DUP1 PUSH2 0x13DE JUMP JUMPDEST DUP4 DUP4 ADD MLOAD DUP10 SSTORE PUSH1 0x1 SWAP1 SWAP9 ADD SWAP8 PUSH1 0x20 SWAP4 DUP5 ADD SWAP4 ADD PUSH2 0x13A1 JUMP JUMPDEST DUP3 PUSH0 MSTORE PUSH1 0x20 PUSH0 KECCAK256 PUSH1 0x1F DUP4 ADD PUSH1 0x5 SHR DUP2 ADD SWAP2 PUSH1 0x20 DUP5 LT PUSH2 0x1456 JUMPI JUMPDEST PUSH1 0x1F ADD PUSH1 0x5 SHR ADD SWAP1 JUMPDEST DUP2 DUP2 LT PUSH2 0x144B JUMPI POP PUSH2 0x1314 JUMP JUMPDEST PUSH0 DUP2 SSTORE PUSH1 0x1 ADD PUSH2 0x143E JUMP JUMPDEST SWAP1 SWAP2 POP DUP2 SWAP1 PUSH2 0x1435 JUMP JUMPDEST SWAP1 POP PUSH1 0x20 DUP2 RETURNDATASIZE PUSH1 0x20 GT PUSH2 0x149B JUMPI JUMPDEST DUP2 PUSH2 0x147B PUSH1 0x20 SWAP4 DUP4 PUSH2 0x1914 JUMP JUMPDEST DUP2 ADD SUB SLT PUSH2 0x43C JUMPI MLOAD PUSH1 0x1 PUSH1 0x1 PUSH1 0xE0 SHL SUB NOT DUP2 AND DUP2 SUB PUSH2 0x43C JUMPI DUP5 PUSH2 0x12C3 JUMP JUMPDEST RETURNDATASIZE SWAP2 POP PUSH2 0x146E JUMP JUMPDEST PUSH1 0x40 MLOAD PUSH3 0x461BCD PUSH1 0xE5 SHL DUP2 MSTORE PUSH1 0x20 PUSH1 0x4 DUP3 ADD MSTORE PUSH1 0x2A PUSH1 0x24 DUP3 ADD MSTORE PUSH32 0x4F70657261746F722068617320616C726561647920726573706F6E6465642074 PUSH1 0x44 DUP3 ADD MSTORE PUSH10 0x6F20746865207461736B PUSH1 0xB0 SHL PUSH1 0x64 DUP3 ADD MSTORE PUSH1 0x84 SWAP1 REVERT JUMPDEST PUSH1 0x40 MLOAD PUSH3 0x461BCD PUSH1 0xE5 SHL DUP2 MSTORE PUSH1 0x20 PUSH1 0x4 DUP3 ADD MSTORE PUSH1 0x3D PUSH1 0x24 DUP3 ADD MSTORE PUSH32 0x737570706C696564207461736B20646F6573206E6F74206D6174636820746865 PUSH1 0x44 DUP3 ADD MSTORE PUSH32 0x206F6E65207265636F7264656420696E2074686520636F6E7472616374000000 PUSH1 0x64 DUP3 ADD MSTORE PUSH1 0x84 SWAP1 REVERT JUMPDEST CALLVALUE PUSH2 0x43C JUMPI PUSH1 0x20 CALLDATASIZE PUSH1 0x3 NOT ADD SLT PUSH2 0x43C JUMPI PUSH2 0x157F PUSH2 0x188D JUMP JUMPDEST PUSH1 0x40 MLOAD PUSH4 0x2E07403 PUSH1 0xE3 SHL DUP2 MSTORE PUSH0 DUP2 PUSH1 0x4 DUP2 PUSH32 0x0 PUSH1 0x1 PUSH1 0x1 PUSH1 0xA0 SHL SUB AND GAS STATICCALL SWAP1 DUP2 ISZERO PUSH2 0xE3B JUMPI PUSH0 SWAP2 PUSH2 0x181A JUMPI JUMPDEST POP SWAP1 DUP2 MLOAD MLOAD SWAP1 PUSH2 0x15DA DUP3 PUSH2 0x1BAE JUMP JUMPDEST SWAP1 PUSH2 0x15E8 PUSH1 0x40 MLOAD SWAP3 DUP4 PUSH2 0x1914 JUMP JUMPDEST DUP3 DUP3 MSTORE PUSH2 0x15F4 DUP4 PUSH2 0x1BAE JUMP JUMPDEST PUSH1 0x20 DUP4 ADD SWAP5 SWAP1 PUSH1 0x1F NOT ADD CALLDATASIZE DUP7 CALLDATACOPY PUSH0 JUMPDEST DUP5 DUP2 LT PUSH2 0x17EC JUMPI POP POP PUSH1 0x40 DUP1 MLOAD PUSH4 0x90041347 PUSH1 0xE0 SHL DUP2 MSTORE PUSH1 0x1 PUSH1 0x1 PUSH1 0xA0 SHL SUB SWAP1 SWAP3 AND PUSH1 0x4 DUP4 ADD MSTORE PUSH1 0x24 DUP3 ADD MSTORE DUP2 MLOAD PUSH1 0x44 DUP3 ADD DUP2 SWAP1 MSTORE SWAP1 SWAP4 DUP5 SWAP2 PUSH1 0x64 DUP4 ADD SWAP2 SWAP1 PUSH0 JUMPDEST DUP2 DUP2 LT PUSH2 0x17CA JUMPI POP PUSH0 SWAP4 SWAP3 DUP4 SWAP1 SUB SWAP2 POP DUP3 SWAP1 POP PUSH32 0x0 PUSH1 0x1 PUSH1 0x1 PUSH1 0xA0 SHL SUB AND GAS STATICCALL SWAP3 DUP4 ISZERO PUSH2 0xE3B JUMPI PUSH0 SWAP4 PUSH2 0x1738 JUMPI JUMPDEST POP PUSH0 PUSH0 JUMPDEST DUP4 DUP2 LT PUSH2 0x170C JUMPI POP PUSH2 0x16A6 SWAP1 PUSH2 0x1CFD JUMP JUMPDEST SWAP3 PUSH0 SWAP1 PUSH0 JUMPDEST DUP5 DUP2 LT PUSH2 0x16C0 JUMPI PUSH1 0x40 MLOAD DUP1 PUSH2 0x60A DUP9 DUP3 PUSH2 0x18B7 JUMP JUMPDEST PUSH2 0x16CA DUP2 DUP4 PUSH2 0x1CC7 JUMP JUMPDEST MLOAD PUSH2 0x16D8 JUMPI JUMPDEST PUSH1 0x1 ADD PUSH2 0x16AB JUMP JUMPDEST SWAP2 PUSH1 0x1 SWAP1 PUSH2 0x1704 SWAP1 PUSH1 0x1 PUSH1 0x1 PUSH1 0xA0 SHL SUB PUSH2 0x16F2 DUP7 DUP9 PUSH2 0x1CC7 JUMP JUMPDEST MLOAD AND PUSH2 0x16FE DUP3 DUP11 PUSH2 0x1CC7 JUMP JUMPDEST MSTORE PUSH2 0x1CEF JUMP JUMPDEST SWAP3 SWAP1 POP PUSH2 0x16D0 JUMP JUMPDEST PUSH2 0x1716 DUP2 DUP7 PUSH2 0x1CC7 JUMP JUMPDEST MLOAD PUSH2 0x1724 JUMPI JUMPDEST PUSH1 0x1 ADD PUSH2 0x1695 JUMP JUMPDEST SWAP1 PUSH2 0x1730 PUSH1 0x1 SWAP2 PUSH2 0x1CEF JUMP JUMPDEST SWAP2 SWAP1 POP PUSH2 0x171C JUMP JUMPDEST SWAP1 SWAP3 POP RETURNDATASIZE DUP1 PUSH0 DUP4 RETURNDATACOPY PUSH2 0x174A DUP2 DUP4 PUSH2 0x1914 JUMP JUMPDEST DUP2 ADD SWAP1 PUSH1 0x20 DUP2 DUP4 SUB SLT PUSH2 0x43C JUMPI DUP1 MLOAD SWAP1 PUSH1 0x1 PUSH1 0x1 PUSH1 0x40 SHL SUB DUP3 GT PUSH2 0x43C JUMPI ADD SWAP1 DUP1 PUSH1 0x1F DUP4 ADD SLT ISZERO PUSH2 0x43C JUMPI DUP2 MLOAD PUSH2 0x1780 DUP2 PUSH2 0x1BAE JUMP JUMPDEST SWAP3 PUSH2 0x178E PUSH1 0x40 MLOAD SWAP5 DUP6 PUSH2 0x1914 JUMP JUMPDEST DUP2 DUP5 MSTORE PUSH1 0x20 DUP1 DUP6 ADD SWAP3 PUSH1 0x5 SHL DUP3 ADD ADD SWAP3 DUP4 GT PUSH2 0x43C JUMPI PUSH1 0x20 ADD SWAP1 JUMPDEST DUP3 DUP3 LT PUSH2 0x17BA JUMPI POP POP POP SWAP2 DUP4 PUSH2 0x1691 JUMP JUMPDEST DUP2 MLOAD DUP2 MSTORE PUSH1 0x20 SWAP2 DUP3 ADD SWAP2 ADD PUSH2 0x17A9 JUMP JUMPDEST DUP3 MLOAD PUSH1 0x1 PUSH1 0x1 PUSH1 0xA0 SHL SUB AND DUP5 MSTORE DUP8 SWAP5 POP PUSH1 0x20 SWAP4 DUP5 ADD SWAP4 SWAP1 SWAP3 ADD SWAP2 PUSH1 0x1 ADD PUSH2 0x1644 JUMP JUMPDEST PUSH1 0x1 SWAP1 DUP2 DUP1 PUSH1 0xA0 SWAP9 SWAP6 SWAP9 SHL SUB PUSH2 0x1803 DUP3 DUP6 MLOAD PUSH2 0x1CC7 JUMP JUMPDEST MLOAD MLOAD AND PUSH2 0x1810 DUP3 DUP8 PUSH2 0x1CC7 JUMP JUMPDEST MSTORE ADD SWAP5 SWAP2 SWAP5 PUSH2 0x1603 JUMP JUMPDEST PUSH2 0x182E SWAP2 POP RETURNDATASIZE DUP1 PUSH0 DUP4 RETURNDATACOPY PUSH2 0x622 DUP2 DUP4 PUSH2 0x1914 JUMP JUMPDEST DUP3 PUSH2 0x15CB JUMP JUMPDEST CALLVALUE PUSH2 0x43C JUMPI PUSH1 0x20 CALLDATASIZE PUSH1 0x3 NOT ADD SLT PUSH2 0x43C JUMPI PUSH1 0x4 CALLDATALOAD SWAP1 PUSH4 0xFFFFFFFF DUP3 AND DUP1 SWAP3 SUB PUSH2 0x43C JUMPI PUSH1 0x20 SWAP2 PUSH0 MSTORE PUSH1 0x98 DUP3 MSTORE PUSH1 0x40 PUSH0 KECCAK256 SLOAD DUP2 MSTORE RETURN JUMPDEST PUSH1 0x24 CALLDATALOAD SWAP1 PUSH4 0xFFFFFFFF DUP3 AND DUP3 SUB PUSH2 0x43C JUMPI JUMP JUMPDEST CALLDATALOAD SWAP1 PUSH4 0xFFFFFFFF DUP3 AND DUP3 SUB PUSH2 0x43C JUMPI JUMP JUMPDEST PUSH1 0x4 CALLDATALOAD SWAP1 PUSH1 0x1 PUSH1 0x1 PUSH1 0xA0 SHL SUB DUP3 AND DUP3 SUB PUSH2 0x43C JUMPI JUMP JUMPDEST CALLDATALOAD SWAP1 PUSH1 0x1 PUSH1 0x1 PUSH1 0xA0 SHL SUB DUP3 AND DUP3 SUB PUSH2 0x43C JUMPI JUMP JUMPDEST PUSH1 0x20 PUSH1 0x40 DUP2 DUP4 ADD SWAP3 DUP3 DUP2 MSTORE DUP5 MLOAD DUP1 SWAP5 MSTORE ADD SWAP3 ADD SWAP1 PUSH0 JUMPDEST DUP2 DUP2 LT PUSH2 0x18DA JUMPI POP POP POP SWAP1 JUMP JUMPDEST DUP3 MLOAD PUSH1 0x1 PUSH1 0x1 PUSH1 0xA0 SHL SUB AND DUP5 MSTORE PUSH1 0x20 SWAP4 DUP5 ADD SWAP4 SWAP1 SWAP3 ADD SWAP2 PUSH1 0x1 ADD PUSH2 0x18CD JUMP JUMPDEST PUSH1 0x40 DUP2 ADD SWAP1 DUP2 LT PUSH1 0x1 PUSH1 0x1 PUSH1 0x40 SHL SUB DUP3 GT OR PUSH2 0xE46 JUMPI PUSH1 0x40 MSTORE JUMP JUMPDEST SWAP1 PUSH1 0x1F DUP1 NOT SWAP2 ADD AND DUP2 ADD SWAP1 DUP2 LT PUSH1 0x1 PUSH1 0x1 PUSH1 0x40 SHL SUB DUP3 GT OR PUSH2 0xE46 JUMPI PUSH1 0x40 MSTORE JUMP JUMPDEST SWAP3 SWAP2 SWAP3 PUSH1 0x1 PUSH1 0x1 PUSH1 0x40 SHL SUB DUP3 GT PUSH2 0xE46 JUMPI PUSH1 0x40 MLOAD SWAP2 PUSH2 0x195E PUSH1 0x1F DUP3 ADD PUSH1 0x1F NOT AND PUSH1 0x20 ADD DUP5 PUSH2 0x1914 JUMP JUMPDEST DUP3 SWAP5 DUP2 DUP5 MSTORE DUP2 DUP4 ADD GT PUSH2 0x43C JUMPI DUP3 DUP2 PUSH1 0x20 SWAP4 DUP5 PUSH0 SWAP7 ADD CALLDATACOPY ADD ADD MSTORE JUMP JUMPDEST SWAP1 DUP1 PUSH1 0x1F DUP4 ADD SLT ISZERO PUSH2 0x43C JUMPI DUP2 PUSH1 0x20 PUSH2 0x1995 SWAP4 CALLDATALOAD SWAP2 ADD PUSH2 0x1935 JUMP JUMPDEST SWAP1 JUMP JUMPDEST PUSH1 0x20 PUSH1 0x3 NOT DUP3 ADD SLT PUSH2 0x43C JUMPI PUSH1 0x4 CALLDATALOAD SWAP1 PUSH1 0x1 PUSH1 0x1 PUSH1 0x40 SHL SUB DUP3 GT PUSH2 0x43C JUMPI DUP1 PUSH1 0x23 DUP4 ADD SLT ISZERO PUSH2 0x43C JUMPI DUP2 PUSH1 0x24 PUSH2 0x1995 SWAP4 PUSH1 0x4 ADD CALLDATALOAD SWAP2 ADD PUSH2 0x1935 JUMP JUMPDEST DUP1 MLOAD DUP1 DUP4 MSTORE PUSH1 0x20 SWAP3 SWAP2 DUP2 SWAP1 DUP5 ADD DUP5 DUP5 ADD MCOPY PUSH0 DUP3 DUP3 ADD DUP5 ADD MSTORE PUSH1 0x1F ADD PUSH1 0x1F NOT AND ADD ADD SWAP1 JUMP JUMPDEST PUSH1 0x20 DUP2 MSTORE PUSH1 0x40 PUSH4 0xFFFFFFFF PUSH1 0x20 PUSH2 0x1A18 DUP6 MLOAD DUP5 DUP4 DUP8 ADD MSTORE PUSH1 0x60 DUP7 ADD SWAP1 PUSH2 0x19D3 JUMP JUMPDEST SWAP5 ADD MLOAD AND SWAP2 ADD MSTORE SWAP1 JUMP JUMPDEST SWAP2 DUP2 PUSH1 0x1F DUP5 ADD SLT ISZERO PUSH2 0x43C JUMPI DUP3 CALLDATALOAD SWAP2 PUSH1 0x1 PUSH1 0x1 PUSH1 0x40 SHL SUB DUP4 GT PUSH2 0x43C JUMPI PUSH1 0x20 DUP1 DUP6 ADD SWAP5 DUP5 PUSH1 0x5 SHL ADD ADD GT PUSH2 0x43C JUMPI JUMP JUMPDEST SWAP1 PUSH1 0x1 DUP3 DUP2 SHR SWAP3 AND DUP1 ISZERO PUSH2 0x1A80 JUMPI JUMPDEST PUSH1 0x20 DUP4 LT EQ PUSH2 0x1A6C JUMPI JUMP JUMPDEST PUSH4 0x4E487B71 PUSH1 0xE0 SHL PUSH0 MSTORE PUSH1 0x22 PUSH1 0x4 MSTORE PUSH1 0x24 PUSH0 REVERT JUMPDEST SWAP2 PUSH1 0x7F AND SWAP2 PUSH2 0x1A61 JUMP JUMPDEST SWAP1 CALLDATALOAD PUSH1 0x1E NOT DUP3 CALLDATASIZE SUB ADD DUP2 SLT ISZERO PUSH2 0x43C JUMPI ADD PUSH1 0x20 DUP2 CALLDATALOAD SWAP2 ADD SWAP2 PUSH1 0x1 PUSH1 0x1 PUSH1 0x40 SHL SUB DUP3 GT PUSH2 0x43C JUMPI DUP2 CALLDATASIZE SUB DUP4 SGT PUSH2 0x43C JUMPI JUMP JUMPDEST SWAP1 DUP1 PUSH1 0x20 SWAP4 SWAP3 DUP2 DUP5 MSTORE DUP5 DUP5 ADD CALLDATACOPY PUSH0 DUP3 DUP3 ADD DUP5 ADD MSTORE PUSH1 0x1F ADD PUSH1 0x1F NOT AND ADD ADD SWAP1 JUMP JUMPDEST SWAP1 PUSH1 0x20 PUSH4 0xFFFFFFFF PUSH2 0x1B09 DUP3 PUSH2 0x1B02 PUSH2 0x1AF4 DUP8 DUP1 PUSH2 0x1A8A JUMP JUMPDEST PUSH1 0x40 DUP9 MSTORE PUSH1 0x40 DUP9 ADD SWAP2 PUSH2 0x1ABB JUMP JUMPDEST SWAP6 ADD PUSH2 0x187C JUMP JUMPDEST AND SWAP2 ADD MSTORE SWAP1 JUMP JUMPDEST PUSH1 0x40 MLOAD SWAP1 PUSH2 0x1B1D DUP3 PUSH2 0x18F9 JUMP JUMPDEST PUSH0 PUSH1 0x20 DUP4 PUSH1 0x60 DUP2 MSTORE ADD MSTORE JUMP JUMPDEST ISZERO PUSH2 0x1B30 JUMPI JUMP JUMPDEST PUSH1 0x40 MLOAD PUSH3 0x461BCD PUSH1 0xE5 SHL DUP2 MSTORE PUSH1 0x20 PUSH1 0x4 DUP3 ADD MSTORE PUSH1 0x4A PUSH1 0x24 DUP3 ADD MSTORE PUSH32 0x4543445341536572766963654D616E61676572426173652E6F6E6C795374616B PUSH1 0x44 DUP3 ADD MSTORE PUSH32 0x6552656769737472793A2063616C6C6572206973206E6F742074686520737461 PUSH1 0x64 DUP3 ADD MSTORE PUSH10 0x6B655265676973747279 PUSH1 0xB0 SHL PUSH1 0x84 DUP3 ADD MSTORE PUSH1 0xA4 SWAP1 REVERT JUMPDEST PUSH1 0x1 PUSH1 0x1 PUSH1 0x40 SHL SUB DUP2 GT PUSH2 0xE46 JUMPI PUSH1 0x5 SHL PUSH1 0x20 ADD SWAP1 JUMP JUMPDEST PUSH1 0x20 DUP2 DUP4 SUB SLT PUSH2 0x43C JUMPI DUP1 MLOAD SWAP1 PUSH1 0x1 PUSH1 0x1 PUSH1 0x40 SHL SUB DUP3 GT PUSH2 0x43C JUMPI ADD SWAP1 PUSH1 0x20 DUP3 DUP3 SUB SLT PUSH2 0x43C JUMPI PUSH1 0x40 MLOAD SWAP2 PUSH1 0x20 DUP4 ADD DUP4 DUP2 LT PUSH1 0x1 PUSH1 0x1 PUSH1 0x40 SHL SUB DUP3 GT OR PUSH2 0xE46 JUMPI PUSH1 0x40 MSTORE DUP1 MLOAD SWAP1 PUSH1 0x1 PUSH1 0x1 PUSH1 0x40 SHL SUB DUP3 GT PUSH2 0x43C JUMPI ADD DUP2 PUSH1 0x1F DUP3 ADD SLT ISZERO PUSH2 0x43C JUMPI DUP1 MLOAD SWAP1 PUSH2 0x1C32 DUP3 PUSH2 0x1BAE JUMP JUMPDEST SWAP3 PUSH2 0x1C40 PUSH1 0x40 MLOAD SWAP5 DUP6 PUSH2 0x1914 JUMP JUMPDEST DUP3 DUP5 MSTORE PUSH1 0x20 DUP1 DUP6 ADD SWAP4 PUSH1 0x6 SHL DUP4 ADD ADD SWAP2 DUP2 DUP4 GT PUSH2 0x43C JUMPI PUSH1 0x20 ADD SWAP3 JUMPDEST DUP3 DUP5 LT PUSH2 0x1C6C JUMPI POP POP POP POP DUP2 MSTORE SWAP1 JUMP JUMPDEST PUSH1 0x40 DUP5 DUP4 SUB SLT PUSH2 0x43C JUMPI PUSH1 0x40 MLOAD SWAP1 PUSH2 0x1C83 DUP3 PUSH2 0x18F9 JUMP JUMPDEST DUP5 MLOAD PUSH1 0x1 PUSH1 0x1 PUSH1 0xA0 SHL SUB DUP2 AND DUP2 SUB PUSH2 0x43C JUMPI DUP3 MSTORE PUSH1 0x20 DUP6 ADD MLOAD SWAP1 PUSH12 0xFFFFFFFFFFFFFFFFFFFFFFFF DUP3 AND DUP3 SUB PUSH2 0x43C JUMPI DUP3 PUSH1 0x20 SWAP3 DUP4 PUSH1 0x40 SWAP6 ADD MSTORE DUP2 MSTORE ADD SWAP4 ADD SWAP3 PUSH2 0x1C5C JUMP JUMPDEST DUP1 MLOAD DUP3 LT ISZERO PUSH2 0x1CDB JUMPI PUSH1 0x20 SWAP2 PUSH1 0x5 SHL ADD ADD SWAP1 JUMP JUMPDEST PUSH4 0x4E487B71 PUSH1 0xE0 SHL PUSH0 MSTORE PUSH1 0x32 PUSH1 0x4 MSTORE PUSH1 0x24 PUSH0 REVERT JUMPDEST PUSH0 NOT DUP2 EQ PUSH2 0xF7E JUMPI PUSH1 0x1 ADD SWAP1 JUMP JUMPDEST SWAP1 PUSH2 0x1D07 DUP3 PUSH2 0x1BAE JUMP JUMPDEST PUSH2 0x1D14 PUSH1 0x40 MLOAD SWAP2 DUP3 PUSH2 0x1914 JUMP JUMPDEST DUP3 DUP2 MSTORE DUP1 SWAP3 PUSH2 0x1D25 PUSH1 0x1F NOT SWAP2 PUSH2 0x1BAE JUMP JUMPDEST ADD SWAP1 PUSH1 0x20 CALLDATASIZE SWAP2 ADD CALLDATACOPY JUMP JUMPDEST PUSH1 0x33 SLOAD PUSH1 0x1 PUSH1 0x1 PUSH1 0xA0 SHL SUB AND CALLER SUB PUSH2 0x1D43 JUMPI JUMP JUMPDEST PUSH1 0x64 PUSH1 0x40 MLOAD PUSH3 0x461BCD PUSH1 0xE5 SHL DUP2 MSTORE PUSH1 0x20 PUSH1 0x4 DUP3 ADD MSTORE PUSH1 0x20 PUSH1 0x24 DUP3 ADD MSTORE PUSH32 0x4F776E61626C653A2063616C6C6572206973206E6F7420746865206F776E6572 PUSH1 0x44 DUP3 ADD MSTORE REVERT JUMPDEST PUSH1 0x65 SLOAD PUSH1 0x1 PUSH1 0x1 PUSH1 0xA0 SHL SUB AND CALLER SUB PUSH2 0x1D9B JUMPI JUMP JUMPDEST PUSH1 0x40 MLOAD PUSH3 0x461BCD PUSH1 0xE5 SHL DUP2 MSTORE PUSH1 0x20 PUSH1 0x4 DUP3 ADD MSTORE PUSH1 0x51 PUSH1 0x24 DUP3 ADD MSTORE PUSH32 0x4543445341536572766963654D616E61676572426173652E6F6E6C7952657761 PUSH1 0x44 DUP3 ADD MSTORE PUSH32 0x726473496E69746961746F723A2063616C6C6572206973206E6F742074686520 PUSH1 0x64 DUP3 ADD MSTORE PUSH17 0x3932BBB0B932399034B734BA34B0BA37B9 PUSH1 0x79 SHL PUSH1 0x84 DUP3 ADD MSTORE PUSH1 0xA4 SWAP1 REVERT JUMPDEST SWAP2 SWAP1 DUP2 LT ISZERO PUSH2 0x1CDB JUMPI PUSH1 0x5 SHL DUP2 ADD CALLDATALOAD SWAP1 PUSH1 0xBE NOT DUP2 CALLDATASIZE SUB ADD DUP3 SLT ISZERO PUSH2 0x43C JUMPI ADD SWAP1 JUMP JUMPDEST SWAP1 CALLDATALOAD SWAP1 PUSH1 0x1E NOT DUP2 CALLDATASIZE SUB ADD DUP3 SLT ISZERO PUSH2 0x43C JUMPI ADD DUP1 CALLDATALOAD SWAP1 PUSH1 0x1 PUSH1 0x1 PUSH1 0x40 SHL SUB DUP3 GT PUSH2 0x43C JUMPI PUSH1 0x20 ADD SWAP2 DUP2 PUSH1 0x6 SHL CALLDATASIZE SUB DUP4 SGT PUSH2 0x43C JUMPI JUMP JUMPDEST SWAP2 SWAP1 DUP3 ADD DUP1 SWAP3 GT PUSH2 0xF7E JUMPI JUMP JUMPDEST CALLDATALOAD PUSH1 0x1 PUSH1 0x1 PUSH1 0xA0 SHL SUB DUP2 AND DUP2 SUB PUSH2 0x43C JUMPI SWAP1 JUMP JUMPDEST SWAP1 DUP2 PUSH1 0x20 SWAP2 SUB SLT PUSH2 0x43C JUMPI MLOAD DUP1 ISZERO ISZERO DUP2 SUB PUSH2 0x43C JUMPI SWAP1 JUMP JUMPDEST SWAP1 CALLDATALOAD PUSH1 0x1E NOT DUP3 CALLDATASIZE SUB ADD DUP2 SLT ISZERO PUSH2 0x43C JUMPI ADD PUSH1 0x20 DUP2 CALLDATALOAD SWAP2 ADD SWAP2 PUSH1 0x1 PUSH1 0x1 PUSH1 0x40 SHL SUB DUP3 GT PUSH2 0x43C JUMPI DUP2 PUSH1 0x6 SHL CALLDATASIZE SUB DUP4 SGT PUSH2 0x43C JUMPI JUMP JUMPDEST SWAP2 PUSH1 0x20 SWAP1 DUP3 DUP2 MSTORE ADD SWAP2 SWAP1 PUSH0 SWAP1 JUMPDEST DUP1 DUP3 LT PUSH2 0x1EFE JUMPI POP POP POP SWAP1 JUMP JUMPDEST SWAP1 SWAP2 SWAP3 DUP4 CALLDATALOAD PUSH1 0x1 DUP1 PUSH1 0xA0 SHL SUB DUP2 AND DUP1 SWAP2 SUB PUSH2 0x43C JUMPI DUP2 MSTORE PUSH1 0x20 DUP5 ADD CALLDATALOAD SWAP1 PUSH12 0xFFFFFFFFFFFFFFFFFFFFFFFF DUP3 AND DUP1 SWAP3 SUB PUSH2 0x43C JUMPI PUSH1 0x40 DUP2 PUSH1 0x1 SWAP4 PUSH1 0x20 DUP4 SWAP5 ADD MSTORE ADD SWAP5 ADD SWAP3 ADD SWAP1 PUSH2 0x1EF1 JUMP JUMPDEST SWAP2 SWAP1 DUP2 LT ISZERO PUSH2 0x1CDB JUMPI PUSH1 0x5 SHL DUP2 ADD CALLDATALOAD SWAP1 PUSH1 0x9E NOT DUP2 CALLDATASIZE SUB ADD DUP3 SLT ISZERO PUSH2 0x43C JUMPI ADD SWAP1 JUMP INVALID LOG2 PUSH5 0x6970667358 0x22 SLT KECCAK256 EXTCODECOPY PUSH6 0xBEB6DAF4C286 CALLDATASIZE CREATE2 0xAF PREVRANDAO PUSH21 0x4162881676248DC378D4007B91BCFEFF110D4B6473 PUSH16 0x6C634300081C00330000000000000000 ","linkReferences":{}},"methodIdentifiers":{"allTaskHashes(uint32)":"2d89f6fc","allTaskResponses(address,uint32)":"c20bab7f","avsDirectory()":"6b3aa72e","createAVSRewardsSubmission(((address,uint96)[],address,uint256,uint32,uint32)[])":"fce36c7d","createNewTask(string)":"85edf874","createOperatorDirectedAVSRewardsSubmission(((address,uint96)[],address,(address,uint256)[],uint32,uint32,string)[])":"a20b99bf","deregisterOperatorFromAVS(address)":"a364f4da","getOperatorRestakedStrategies(address)":"33cfb7b7","getRestakeableStrategies()":"e481af9d","latestTaskNum()":"8b00ce7c","owner()":"8da5cb5b","registerOperatorToAVS(address,(bytes,bytes32,uint256))":"9926ee7d","renounceOwnership()":"715018a6","respondToTask((string,uint32),uint32,bytes)":"3415a49c","rewardsInitiator()":"fc299dee","setClaimerFor(address)":"a0169ddd","setRewardsInitiator(address)":"3bc28c8c","stakeRegistry()":"68304835","transferOwnership(address)":"f2fde38b","updateAVSMetadataURI(string)":"a98fb355"}}}}}