{"abi":[{"type":"constructor","inputs":[{"name":"_delegation","type":"address","internalType":"contract IDelegationManager"},{"name":"_eigenPodManager","type":"address","internalType":"contract IEigenPodManager"},{"name":"_slasher","type":"address","internalType":"contract ISlasher"}],"stateMutability":"nonpayable"},{"type":"function","name":"DEPOSIT_TYPEHASH","inputs":[],"outputs":[{"name":"","type":"bytes32","internalType":"bytes32"}],"stateMutability":"view"},{"type":"function","name":"DOMAIN_TYPEHASH","inputs":[],"outputs":[{"name":"","type":"bytes32","internalType":"bytes32"}],"stateMutability":"view"},{"type":"function","name":"addShares","inputs":[{"name":"staker","type":"address","internalType":"address"},{"name":"token","type":"address","internalType":"contract IERC20"},{"name":"strategy","type":"address","internalType":"contract IStrategy"},{"name":"shares","type":"uint256","internalType":"uint256"}],"outputs":[],"stateMutability":"nonpayable"},{"type":"function","name":"addStrategiesToDepositWhitelist","inputs":[{"name":"strategiesToWhitelist","type":"address[]","internalType":"contract IStrategy[]"},{"name":"thirdPartyTransfersForbiddenValues","type":"bool[]","internalType":"bool[]"}],"outputs":[],"stateMutability":"nonpayable"},{"type":"function","name":"delegation","inputs":[],"outputs":[{"name":"","type":"address","internalType":"contract IDelegationManager"}],"stateMutability":"view"},{"type":"function","name":"depositIntoStrategy","inputs":[{"name":"strategy","type":"address","internalType":"contract IStrategy"},{"name":"token","type":"address","internalType":"contract IERC20"},{"name":"amount","type":"uint256","internalType":"uint256"}],"outputs":[{"name":"shares","type":"uint256","internalType":"uint256"}],"stateMutability":"nonpayable"},{"type":"function","name":"depositIntoStrategyWithSignature","inputs":[{"name":"strategy","type":"address","internalType":"contract IStrategy"},{"name":"token","type":"address","internalType":"contract IERC20"},{"name":"amount","type":"uint256","internalType":"uint256"},{"name":"staker","type":"address","internalType":"address"},{"name":"expiry","type":"uint256","internalType":"uint256"},{"name":"signature","type":"bytes","internalType":"bytes"}],"outputs":[{"name":"shares","type":"uint256","internalType":"uint256"}],"stateMutability":"nonpayable"},{"type":"function","name":"domainSeparator","inputs":[],"outputs":[{"name":"","type":"bytes32","internalType":"bytes32"}],"stateMutability":"view"},{"type":"function","name":"eigenPodManager","inputs":[],"outputs":[{"name":"","type":"address","internalType":"contract IEigenPodManager"}],"stateMutability":"view"},{"type":"function","name":"getDeposits","inputs":[{"name":"staker","type":"address","internalType":"address"}],"outputs":[{"name":"","type":"address[]","internalType":"contract IStrategy[]"},{"name":"","type":"uint256[]","internalType":"uint256[]"}],"stateMutability":"view"},{"type":"function","name":"initialize","inputs":[{"name":"initialOwner","type":"address","internalType":"address"},{"name":"initialStrategyWhitelister","type":"address","internalType":"address"},{"name":"_pauserRegistry","type":"address","internalType":"contract IPauserRegistry"},{"name":"initialPausedStatus","type":"uint256","internalType":"uint256"}],"outputs":[],"stateMutability":"nonpayable"},{"type":"function","name":"nonces","inputs":[{"name":"","type":"address","internalType":"address"}],"outputs":[{"name":"","type":"uint256","internalType":"uint256"}],"stateMutability":"view"},{"type":"function","name":"owner","inputs":[],"outputs":[{"name":"","type":"address","internalType":"address"}],"stateMutability":"view"},{"type":"function","name":"pause","inputs":[{"name":"newPausedStatus","type":"uint256","internalType":"uint256"}],"outputs":[],"stateMutability":"nonpayable"},{"type":"function","name":"pauseAll","inputs":[],"outputs":[],"stateMutability":"nonpayable"},{"type":"function","name":"paused","inputs":[{"name":"index","type":"uint8","internalType":"uint8"}],"outputs":[{"name":"","type":"bool","internalType":"bool"}],"stateMutability":"view"},{"type":"function","name":"paused","inputs":[],"outputs":[{"name":"","type":"uint256","internalType":"uint256"}],"stateMutability":"view"},{"type":"function","name":"pauserRegistry","inputs":[],"outputs":[{"name":"","type":"address","internalType":"contract IPauserRegistry"}],"stateMutability":"view"},{"type":"function","name":"removeShares","inputs":[{"name":"staker","type":"address","internalType":"address"},{"name":"strategy","type":"address","internalType":"contract IStrategy"},{"name":"shares","type":"uint256","internalType":"uint256"}],"outputs":[],"stateMutability":"nonpayable"},{"type":"function","name":"removeStrategiesFromDepositWhitelist","inputs":[{"name":"strategiesToRemoveFromWhitelist","type":"address[]","internalType":"contract IStrategy[]"}],"outputs":[],"stateMutability":"nonpayable"},{"type":"function","name":"renounceOwnership","inputs":[],"outputs":[],"stateMutability":"nonpayable"},{"type":"function","name":"setPauserRegistry","inputs":[{"name":"newPauserRegistry","type":"address","internalType":"contract IPauserRegistry"}],"outputs":[],"stateMutability":"nonpayable"},{"type":"function","name":"setStrategyWhitelister","inputs":[{"name":"newStrategyWhitelister","type":"address","internalType":"address"}],"outputs":[],"stateMutability":"nonpayable"},{"type":"function","name":"setThirdPartyTransfersForbidden","inputs":[{"name":"strategy","type":"address","internalType":"contract IStrategy"},{"name":"value","type":"bool","internalType":"bool"}],"outputs":[],"stateMutability":"nonpayable"},{"type":"function","name":"slasher","inputs":[],"outputs":[{"name":"","type":"address","internalType":"contract ISlasher"}],"stateMutability":"view"},{"type":"function","name":"stakerStrategyList","inputs":[{"name":"","type":"address","internalType":"address"},{"name":"","type":"uint256","internalType":"uint256"}],"outputs":[{"name":"","type":"address","internalType":"contract IStrategy"}],"stateMutability":"view"},{"type":"function","name":"stakerStrategyListLength","inputs":[{"name":"staker","type":"address","internalType":"address"}],"outputs":[{"name":"","type":"uint256","internalType":"uint256"}],"stateMutability":"view"},{"type":"function","name":"stakerStrategyShares","inputs":[{"name":"","type":"address","internalType":"address"},{"name":"","type":"address","internalType":"contract IStrategy"}],"outputs":[{"name":"","type":"uint256","internalType":"uint256"}],"stateMutability":"view"},{"type":"function","name":"strategyIsWhitelistedForDeposit","inputs":[{"name":"","type":"address","internalType":"contract IStrategy"}],"outputs":[{"name":"","type":"bool","internalType":"bool"}],"stateMutability":"view"},{"type":"function","name":"strategyWhitelister","inputs":[],"outputs":[{"name":"","type":"address","internalType":"address"}],"stateMutability":"view"},{"type":"function","name":"thirdPartyTransfersForbidden","inputs":[{"name":"","type":"address","internalType":"contract IStrategy"}],"outputs":[{"name":"","type":"bool","internalType":"bool"}],"stateMutability":"view"},{"type":"function","name":"transferOwnership","inputs":[{"name":"newOwner","type":"address","internalType":"address"}],"outputs":[],"stateMutability":"nonpayable"},{"type":"function","name":"unpause","inputs":[{"name":"newPausedStatus","type":"uint256","internalType":"uint256"}],"outputs":[],"stateMutability":"nonpayable"},{"type":"function","name":"withdrawSharesAsTokens","inputs":[{"name":"recipient","type":"address","internalType":"address"},{"name":"strategy","type":"address","internalType":"contract IStrategy"},{"name":"shares","type":"uint256","internalType":"uint256"},{"name":"token","type":"address","internalType":"contract IERC20"}],"outputs":[],"stateMutability":"nonpayable"},{"type":"event","name":"Deposit","inputs":[{"name":"staker","type":"address","indexed":false,"internalType":"address"},{"name":"token","type":"address","indexed":false,"internalType":"contract IERC20"},{"name":"strategy","type":"address","indexed":false,"internalType":"contract IStrategy"},{"name":"shares","type":"uint256","indexed":false,"internalType":"uint256"}],"anonymous":false},{"type":"event","name":"Initialized","inputs":[{"name":"version","type":"uint8","indexed":false,"internalType":"uint8"}],"anonymous":false},{"type":"event","name":"OwnershipTransferred","inputs":[{"name":"previousOwner","type":"address","indexed":true,"internalType":"address"},{"name":"newOwner","type":"address","indexed":true,"internalType":"address"}],"anonymous":false},{"type":"event","name":"Paused","inputs":[{"name":"account","type":"address","indexed":true,"internalType":"address"},{"name":"newPausedStatus","type":"uint256","indexed":false,"internalType":"uint256"}],"anonymous":false},{"type":"event","name":"PauserRegistrySet","inputs":[{"name":"pauserRegistry","type":"address","indexed":false,"internalType":"contract IPauserRegistry"},{"name":"newPauserRegistry","type":"address","indexed":false,"internalType":"contract IPauserRegistry"}],"anonymous":false},{"type":"event","name":"StrategyAddedToDepositWhitelist","inputs":[{"name":"strategy","type":"address","indexed":false,"internalType":"contract IStrategy"}],"anonymous":false},{"type":"event","name":"StrategyRemovedFromDepositWhitelist","inputs":[{"name":"strategy","type":"address","indexed":false,"internalType":"contract IStrategy"}],"anonymous":false},{"type":"event","name":"StrategyWhitelisterChanged","inputs":[{"name":"previousAddress","type":"address","indexed":false,"internalType":"address"},{"name":"newAddress","type":"address","indexed":false,"internalType":"address"}],"anonymous":false},{"type":"event","name":"Unpaused","inputs":[{"name":"account","type":"address","indexed":true,"internalType":"address"},{"name":"newPausedStatus","type":"uint256","indexed":false,"internalType":"uint256"}],"anonymous":false},{"type":"event","name":"UpdatedThirdPartyTransfersForbidden","inputs":[{"name":"strategy","type":"address","indexed":false,"internalType":"contract IStrategy"},{"name":"value","type":"bool","indexed":false,"internalType":"bool"}],"anonymous":false}],"bytecode":{"object":"0x6101003461018057601f612b8a38819003918201601f19168301916001600160401b0383118484101761018457808492606094604052833981010312610180578051906001600160a01b0382168203610180576020810151906001600160a01b03821682036101805760400151916001600160a01b03831683036101805760805260a05260c0525f5460ff8160081c1661012b5760ff808216106100f1575b4660e0526040516129f190816101998239608051818181610403015281816108fb015281816109d201528181610e0a0152611ddc015260a05181611159015260c05181610b68015260e05181611b7d0152f35b60ff90811916175f557f7f26b83ff96e1f2b6a682f133852f6798a09c465da95921460cefb3847402498602060405160ff8152a15f61009e565b60405162461bcd60e51b815260206004820152602760248201527f496e697469616c697a61626c653a20636f6e747261637420697320696e697469604482015266616c697a696e6760c81b6064820152608490fd5b5f80fd5b634e487b7160e01b5f52604160045260245ffdfe6080806040526004361015610012575f80fd5b5f905f3560e01c90816310d67a2f1461174f57508063136439dd1461163657806320606b70146115fc57806332e89ace146111885780634665bcda1461114457806348825e941461110a5780634e5a4263146110c7578063595c6a67146110115780635ac86ab714610fde5780635c975abb14610fc1578063663c1de414610f84578063715018a614610f295780637a7e0d9214610ed95780637ecebe0014610ea1578063886f119514610e795780638b8aac3c14610e415780638c80d4e514610de05780638da5cb5b14610db857806394f649dd14610bfc578063967fc0d214610bd45780639b4da03d14610b97578063b134427114610b53578063b5d8b5b814610a09578063c4623ea11461099f578063c608c7f3146108c9578063c6656702146108a4578063cbc2bd6214610843578063cf756fdf1461061a578063df5b354714610432578063df5cf723146103ed578063e7a050aa1461038a578063f2fde38b146102f9578063f698da25146102d65763fabc1cbc14610194575f80fd5b346102d35760203660031901126102d35760975460405163755b36bd60e11b81526004803592602091839182906001600160a01b03165afa80156102c8576101ee918491610299575b506001600160a01b031633146118e3565b60985419811981160361022e57806098556040519081527f3582d1828e26bf56bd801502bc021ac0bc8afb57c826e4986b45593c8fad389c60203392a280f35b60405162461bcd60e51b815260206004820152603860248201527f5061757361626c652e756e70617573653a20696e76616c696420617474656d7060448201527f7420746f2070617573652066756e6374696f6e616c69747900000000000000006064820152608490fd5b6102bb915060203d6020116102c1575b6102b3818361182c565b8101906118c4565b5f6101dd565b503d6102a9565b6040513d85823e3d90fd5b80fd5b50346102d357806003193601126102d35760206102f1611b7a565b604051908152f35b50346102d35760203660031901126102d3576103136117d4565b61031b612043565b6001600160a01b03811615610336576103339061209b565b80f35b60405162461bcd60e51b815260206004820152602660248201527f4f776e61626c653a206e6577206f776e657220697320746865207a65726f206160448201526564647265737360d01b6064820152608490fd5b50346102d35760603660031901126102d35760206103e06103a96117d4565b6103b1611800565b6103c26001806098541614156119b7565b6103d160026065541415611a03565b60026065556044359133611cb0565b6001606555604051908152f35b50346102d357806003193601126102d3576040517f00000000000000000000000000000000000000000000000000000000000000006001600160a01b03168152602090f35b50346102d35760403660031901126102d35760043567ffffffffffffffff81116106165761046490369060040161187e565b60243567ffffffffffffffff81116106125761048490369060040161187e565b909161049b60018060a01b0360cb54163314611a4f565b81810361059357845b8181106104af578580f35b6001600160a01b036104ca6104c5838589611b56565b611b66565b16865260d160205260ff604087205416156104e8575b6001016104a4565b6001600160a01b036104fe6104c5838589611b56565b16865260d160205260408620600160ff198254161790557f0c35b17d91c96eb2751cd456e1252f42a386e524ef9ff26ecc9950859fdc04fe60206105466104c584868a611b56565b6040516001600160a01b039091168152a16105656104c5828488611b56565b90610571818587611b56565b3591821515830361058f5760019261058891611fe8565b90506104e0565b8780fd5b60405162461bcd60e51b815260206004820152604b60248201527f53747261746567794d616e616765722e61646453747261746567696573546f4460448201527f65706f73697457686974656c6973743a206172726179206c656e67746873206460648201526a0de40dcdee840dac2e8c6d60ab1b608482015260a490fd5b8380fd5b5080fd5b50346102d35760803660031901126102d3576106346117d4565b61063c611800565b6106446117ea565b906064359184549360ff8560081c161594858096610836575b801561081f575b156107c35760ff1981166001178755856107b2575b5061068261267f565b60c9556097546001600160a01b031615806107a0575b15610725576106dd6106e292856106e7966098556040519081527fab40a374bc51de372200a8bc981af8c9ecdc08dfdaef0bb6e09f88f3c616ef3d60203392a2611bb2565b61209b565b61262c565b6106ee5780f35b61ff001981541681557f7f26b83ff96e1f2b6a682f133852f6798a09c465da95921460cefb3847402498602060405160018152a180f35b60405162461bcd60e51b815260206004820152604760248201527f5061757361626c652e5f696e697469616c697a655061757365723a205f696e6960448201527f7469616c697a6550617573657228292063616e206f6e6c792062652063616c6c6064820152666564206f6e636560c81b608482015260a490fd5b506001600160a01b0382161515610698565b61ffff19166101011786555f610679565b60405162461bcd60e51b815260206004820152602e60248201527f496e697469616c697a61626c653a20636f6e747261637420697320616c72656160448201526d191e481a5b9a5d1a585b1a5e995960921b6064820152608490fd5b50303b1580156106645750600160ff821614610664565b50600160ff82161061065d565b50346102d35760403660031901126102d35761085d6117d4565b6001600160a01b0316815260ce60205260408120805460243592908310156102d357602061088b84846118af565b905460405160039290921b1c6001600160a01b03168152f35b50346102d35760203660031901126102d3576103336108c16117d4565b6106e2612043565b503461099b57608036600319011261099b576108e36117d4565b6108eb611800565b906108f4611816565b91610929337f00000000000000000000000000000000000000000000000000000000000000006001600160a01b031614611acd565b6001600160a01b031691823b1561099b57604051636ce5768960e11b81526001600160a01b039283166004820152911660248201526044803590820152905f908290606490829084905af1801561099057610982575080f35b61098e91505f9061182c565b005b6040513d5f823e3d90fd5b5f80fd5b3461099b57608036600319011261099b5761098e6109bb6117d4565b6109c3611800565b6109cb6117ea565b90610a00337f00000000000000000000000000000000000000000000000000000000000000006001600160a01b031614611acd565b606435926123d3565b3461099b57602036600319011261099b5760043567ffffffffffffffff811161099b57610a3a90369060040161187e565b610a4f60018060a01b0360cb54163314611a4f565b5f5b818110610a5a57005b6001906001600160a01b03610a736104c5838688611b56565b165f5260d160205260ff60405f205416610a8e575b01610a51565b818060a01b03610aa26104c5838688611b56565b165f5260d160205260405f2060ff1981541690557f4074413b4b443e4e58019f2855a8765113358c7c72e39509c6af45fc0f5ba0306020610ae76104c5848789611b56565b60405190858060a01b03168152a1610b036104c5828587611b56565b7f77d930df4937793473a95024d87a98fd2ccb9e92d3c2463b3dacd65d3e6a57866040805192858060a01b0316928381525f6020820152a15f5260d360205260405f2060ff198154169055610a88565b3461099b575f36600319011261099b576040517f00000000000000000000000000000000000000000000000000000000000000006001600160a01b03168152602090f35b3461099b57602036600319011261099b576001600160a01b03610bb86117d4565b165f5260d3602052602060ff60405f2054166040519015158152f35b3461099b575f36600319011261099b5760cb546040516001600160a01b039091168152602090f35b3461099b57602036600319011261099b576001600160a01b03610c1d6117d4565b16805f5260ce60205260405f2054610c3481611b3e565b91610c42604051938461182c565b818352610c4e82611b3e565b602084019290601f19013684375f5b818110610d435750505f5260ce60205260405f209060405191826020825491828152019081925f5260205f20905f5b818110610d245750505083610ca291038461182c565b604051938493604085019060408652518091526060850192905f5b818110610d02575050506020908483038286015251918281520191905f5b818110610ce9575050500390f35b8251845285945060209384019390920191600101610cdb565b82516001600160a01b0316855287965060209485019490920191600101610cbd565b82546001600160a01b0316845260209093019260019283019201610c8c565b825f5260cd60205260405f20835f5260ce602052610d648260405f206118af565b905460039190911b1c6001600160a01b03165f90815260209190915260409020548551909190811015610da45760019160208260051b8801015201610c5d565b634e487b7160e01b5f52603260045260245ffd5b3461099b575f36600319011261099b576033546040516001600160a01b039091168152602090f35b3461099b57606036600319011261099b5761098e610dfc6117d4565b610e04611800565b610e38337f00000000000000000000000000000000000000000000000000000000000000006001600160a01b031614611acd565b604435916120e3565b3461099b57602036600319011261099b576001600160a01b03610e626117d4565b165f5260ce602052602060405f2054604051908152f35b3461099b575f36600319011261099b576097546040516001600160a01b039091168152602090f35b3461099b57602036600319011261099b576001600160a01b03610ec26117d4565b165f5260ca602052602060405f2054604051908152f35b3461099b57604036600319011261099b57610ef26117d4565b610efa611800565b6001600160a01b039182165f90815260cd60209081526040808320949093168252928352819020549051908152f35b3461099b575f36600319011261099b57610f41612043565b603380546001600160a01b031981169091555f906001600160a01b03167f8be0079c531659141344cd1fd0a4f28419497f9722a3daafe3b4186f6b6457e08280a3005b3461099b57602036600319011261099b576001600160a01b03610fa56117d4565b165f5260d1602052602060ff60405f2054166040519015158152f35b3461099b575f36600319011261099b576020609854604051908152f35b3461099b57602036600319011261099b5760043560ff811680910361099b5760016020911b806098541614604051908152f35b3461099b575f36600319011261099b5760975460405163237dfb4760e11b815233600482015290602090829060249082906001600160a01b03165afa801561099057611064915f91611098575b5061195a565b5f196098556040515f1981527fab40a374bc51de372200a8bc981af8c9ecdc08dfdaef0bb6e09f88f3c616ef3d60203392a2005b6110ba915060203d6020116110c0575b6110b2818361182c565b810190611942565b8261105e565b503d6110a8565b3461099b57604036600319011261099b576110e06117d4565b602435801515810361099b5761098e9161110560018060a01b0360cb54163314611a4f565b611fe8565b3461099b575f36600319011261099b5760206040517f4337f82d142e41f2a8c10547cd8c859bddb92262a61058e77842e24d9dea92248152f35b3461099b575f36600319011261099b576040517f00000000000000000000000000000000000000000000000000000000000000006001600160a01b03168152602090f35b3461099b5760c036600319011261099b576111a16117d4565b6111a9611800565b6044356111b4611816565b9160843560a43567ffffffffffffffff811161099b573660238201121561099b5780600401356111e381611862565b916111f1604051938461182c565b818352366024838301011161099b57815f9260246020930183860137830101526112226001806098541614156119b7565b61123160026065541415611a03565b60026065556001600160a01b0386165f81815260d3602052604090205490929060ff1661157e57428110611507576001808060a01b03871693845f5260ca60205260405f2054926040519060208201927f4337f82d142e41f2a8c10547cd8c859bddb92262a61058e77842e24d9dea922484528760408401526060830152838060a01b03881660808301528860a08301528460c083015260e082015260e081526112dd6101008261182c565b51902091845f5260ca6020520160405f20556112f7611b7a565b9060405190602082019261190160f01b8452602283015260428201526042815261132260628261182c565b519020853b1561145d579061135d92602092604051809581948293630b135d3f60e11b84526004840152604060248401526044830190611c8c565b03915afa908115610990575f9161141a575b506001600160e01b0319166374eca2c160e11b01611393576020936103e093611cb0565b60405162461bcd60e51b815260206004820152605360248201527f454950313237315369676e61747572655574696c732e636865636b5369676e6160448201527f747572655f454950313237313a2045524331323731207369676e6174757265206064820152721d995c9a599a58d85d1a5bdb8819985a5b1959606a1b608482015260a490fd5b90506020813d602011611455575b816114356020938361182c565b8101031261099b57516001600160e01b03198116810361099b578561136f565b3d9150611428565b6114729161146a916126f7565b919091612765565b6001600160a01b03160361148c576020936103e093611cb0565b60405162461bcd60e51b815260206004820152604760248201527f454950313237315369676e61747572655574696c732e636865636b5369676e6160448201527f747572655f454950313237313a207369676e6174757265206e6f742066726f6d6064820152661039b4b3b732b960c91b608482015260a490fd5b60405162461bcd60e51b815260206004820152604360248201527f53747261746567794d616e616765722e6465706f736974496e746f537472617460448201527f656779576974685369676e61747572653a207369676e617475726520657870696064820152621c995960ea1b608482015260a490fd5b60405162461bcd60e51b815260206004820152604a60248201527f53747261746567794d616e616765722e6465706f736974496e746f537472617460448201527f656779576974685369676e61747572653a207468697264207472616e736665726064820152691cc8191a5cd8589b195960b21b608482015260a490fd5b3461099b575f36600319011261099b5760206040517f8cad95687ba82c2ce50e74f7b754645e5117c3a5bec8151c0726d5857980a8668152f35b3461099b57602036600319011261099b576004356024602060018060a01b03609754166040519283809263237dfb4760e11b82523360048301525afa801561099057611688915f91611730575061195a565b609854818116036116c557806098556040519081527fab40a374bc51de372200a8bc981af8c9ecdc08dfdaef0bb6e09f88f3c616ef3d60203392a2005b60405162461bcd60e51b815260206004820152603860248201527f5061757361626c652e70617573653a20696e76616c696420617474656d70742060448201527f746f20756e70617573652066756e6374696f6e616c69747900000000000000006064820152608490fd5b611749915060203d6020116110c0576110b2818361182c565b8361105e565b3461099b57602036600319011261099b576117686117d4565b60975463755b36bd60e11b8352602090839060049082906001600160a01b03165afa9182156109905761098e926117b0915f916117b557506001600160a01b031633146118e3565b611bb2565b6117ce915060203d6020116102c1576102b3818361182c565b846101dd565b600435906001600160a01b038216820361099b57565b604435906001600160a01b038216820361099b57565b602435906001600160a01b038216820361099b57565b606435906001600160a01b038216820361099b57565b90601f8019910116810190811067ffffffffffffffff82111761184e57604052565b634e487b7160e01b5f52604160045260245ffd5b67ffffffffffffffff811161184e57601f01601f191660200190565b9181601f8401121561099b5782359167ffffffffffffffff831161099b576020808501948460051b01011161099b57565b8054821015610da4575f5260205f2001905f90565b9081602091031261099b57516001600160a01b038116810361099b5790565b156118ea57565b60405162461bcd60e51b815260206004820152602a60248201527f6d73672e73656e646572206973206e6f74207065726d697373696f6e6564206160448201526939903ab73830bab9b2b960b11b6064820152608490fd5b9081602091031261099b5751801515810361099b5790565b1561196157565b60405162461bcd60e51b815260206004820152602860248201527f6d73672e73656e646572206973206e6f74207065726d697373696f6e6564206160448201526739903830bab9b2b960c11b6064820152608490fd5b156119be57565b60405162461bcd60e51b815260206004820152601960248201527f5061757361626c653a20696e64657820697320706175736564000000000000006044820152606490fd5b15611a0a57565b60405162461bcd60e51b815260206004820152601f60248201527f5265656e7472616e637947756172643a207265656e7472616e742063616c6c006044820152606490fd5b15611a5657565b60a460405162461bcd60e51b815260206004820152604460248201527f53747261746567794d616e616765722e6f6e6c7953747261746567795768697460448201527f656c69737465723a206e6f742074686520737472617465677957686974656c6960648201526339ba32b960e11b6084820152fd5b15611ad457565b608460405162461bcd60e51b815260206004820152604060248201527f53747261746567794d616e616765722e6f6e6c7944656c65676174696f6e4d6160448201527f6e616765723a206e6f74207468652044656c65676174696f6e4d616e616765726064820152fd5b67ffffffffffffffff811161184e5760051b60200190565b9190811015610da45760051b0190565b356001600160a01b038116810361099b5790565b467f000000000000000000000000000000000000000000000000000000000000000003611ba75760c95490565b611baf61267f565b90565b6001600160a01b03168015611c0f57609754604080516001600160a01b0383168152602081018490527f6e9fcd539896fca60e8b0f01dd580233e48a6b0f7df013b89ba7f565869acdb69190a16001600160a01b03191617609755565b60405162461bcd60e51b815260206004820152604960248201527f5061757361626c652e5f73657450617573657252656769737472793a206e657760448201527f50617573657252656769737472792063616e6e6f7420626520746865207a65726064820152686f206164647265737360b81b608482015260a490fd5b805180835260209291819084018484015e5f828201840152601f01601f1916010190565b6001600160a01b0382165f81815260d160205260409020549394909390929060ff1615611f67576040519460208601936323b872dd60e01b855233602488015285604488015280606488015260648752611d0b60848861182c565b604080516001600160a01b0384169891969091611d28888461182c565b602083527f5361666545524332303a206c6f772d6c6576656c2063616c6c206661696c65646020840152893b15611f23575f611d93939281925190828d5af13d15611f1b573d90611d7882611862565b91611d858a51938461182c565b82523d5f602084013e612977565b80519081611ea7575b50508451966311f9fbc960e21b8852600488015260248701526020866044815f895af1958615611e9d575f96611e65575b50611dda918691846123d3565b7f00000000000000000000000000000000000000000000000000000000000000006001600160a01b031692833b1561099b578251631452b9d760e11b81526001600160a01b039092166004830152602482015260448101849052915f908390606490829084905af1908115611e5c5750611e52575090565b5f611baf9161182c565b513d5f823e3d90fd5b9195506020823d602011611e95575b81611e816020938361182c565b8101031261099b57611dda91519591611dcd565b3d9150611e74565b84513d5f823e3d90fd5b602080611eb8938301019101611942565b15611ec4575f80611d9c565b845162461bcd60e51b815260206004820152602a60248201527f5361666545524332303a204552433230206f7065726174696f6e20646964206e6044820152691bdd081cdd58d8d9595960b21b6064820152608490fd5b606090612977565b875162461bcd60e51b815260206004820152601d60248201527f416464726573733a2063616c6c20746f206e6f6e2d636f6e74726163740000006044820152606490fd5b60405162461bcd60e51b815260206004820152604d60248201527f53747261746567794d616e616765722e6f6e6c7953747261746567696573576860448201527f6974656c6973746564466f724465706f7369743a207374726174656779206e6f60648201526c1d081dda1a5d195b1a5cdd1959609a1b608482015260a490fd5b604080516001600160a01b039092168083528315156020840152917f77d930df4937793473a95024d87a98fd2ccb9e92d3c2463b3dacd65d3e6a57869190a15f5260d360205260405f209060ff801983541691151516179055565b6033546001600160a01b0316330361205757565b606460405162461bcd60e51b815260206004820152602060248201527f4f776e61626c653a2063616c6c6572206973206e6f7420746865206f776e65726044820152fd5b603380546001600160a01b039283166001600160a01b0319821681179092559091167f8be0079c531659141344cd1fd0a4f28419497f9722a3daafe3b4186f6b6457e05f80a3565b91909181156123685760018060a01b031690815f5260cd60205260405f2060018060a01b0384165f5260205260405f205480821161230757825f5260cd60205260405f2060018060a01b0385165f5260205260405f208282039055146121495750505f90565b5f81815260ce602052604081205491926001600160a01b03165b82821061223c575b50146121bf575f5260ce60205260405f20805480156121ab575f19019061219282826118af565b81549060018060a01b039060031b1b1916905555600190565b634e487b7160e01b5f52603160045260245ffd5b60405162461bcd60e51b815260206004820152604960248201527f53747261746567794d616e616765722e5f72656d6f766553747261746567794660448201527f726f6d5374616b657253747261746567794c6973743a207374726174656779206064820152681b9bdd08199bdd5b9960ba1b608482015260a490fd5b929190825f5260ce602052836122558260405f206118af565b905460039190911b1c6001600160a01b03161461227757600101909192612163565b5f83815260ce602052604090208054939450919290915f1982019182116122f3576122ed916122a5916118af565b60018060a01b0391549060031b1c16845f5260ce6020526122c98360405f206118af565b81546001600160a01b0393841660039290921b91821b9390911b1916919091179055565b5f61216b565b634e487b7160e01b5f52601160045260245ffd5b60405162461bcd60e51b815260206004820152603360248201527f53747261746567794d616e616765722e5f72656d6f76655368617265733a20736044820152720d0c2e4ca82dadeeadce840e8dede40d0d2ced606b1b6064820152608490fd5b60405162461bcd60e51b815260206004820152603e60248201527f53747261746567794d616e616765722e5f72656d6f76655368617265733a207360448201527f68617265416d6f756e742073686f756c64206e6f74206265207a65726f2100006064820152608490fd5b90926001600160a01b039091169081156125c157801561255d57815f5260cd60205260405f2060018060a01b0384165f5260205260405f20541561248c575b815f5260cd60205260405f2060018060a01b0384165f5260205260405f20928354948286018096116122f3577f7cfff908a4b583f36430b25d75964c458d8ede8a99bd61be750e97ee1b2f3a96956080955560405193845260018060a01b0316602084015260018060a01b031660408301526060820152a1565b815f5260ce602052602060405f205410156124d957815f5260ce60205260405f2080546801000000000000000081101561184e576122c9816124d493600188940181556118af565b612412565b60405162461bcd60e51b815260206004820152605060248201527f53747261746567794d616e616765722e5f6164645368617265733a206465706f60448201527f73697420776f756c6420657863656564204d41585f5354414b45525f5354524160648201526f0a88a8eb2be9892a6a8be988a9c8ea8960831b608482015260a490fd5b60405162461bcd60e51b815260206004820152603660248201527f53747261746567794d616e616765722e5f6164645368617265733a207368617260448201527565732073686f756c64206e6f74206265207a65726f2160501b6064820152608490fd5b60405162461bcd60e51b815260206004820152603960248201527f53747261746567794d616e616765722e5f6164645368617265733a207374616b60448201527f65722063616e6e6f74206265207a65726f2061646472657373000000000000006064820152608490fd5b60cb54604080516001600160a01b03808416825290931660208401819052927f4264275e593955ff9d6146a51a4525f6ddace2e81db9391abcc9d1ca48047d299190a16001600160a01b0319161760cb55565b600a602060405161269160408261182c565b828152016922b4b3b2b72630bcb2b960b11b81522060405160208101917f8cad95687ba82c2ce50e74f7b754645e5117c3a5bec8151c0726d5857980a86683526040820152466060820152306080820152608081526126f160a08261182c565b51902090565b81516041810361272357509061271f91602082015190606060408401519301515f1a906128d5565b9091565b60400361275c5760406020830151920151918260ff1c91601b83018093116122f35761271f936001600160ff1b03169260ff16906128d5565b50505f90600290565b60058110156128c157806127765750565b600181036127c35760405162461bcd60e51b815260206004820152601860248201527f45434453413a20696e76616c6964207369676e617475726500000000000000006044820152606490fd5b600281036128105760405162461bcd60e51b815260206004820152601f60248201527f45434453413a20696e76616c6964207369676e6174757265206c656e677468006044820152606490fd5b600381036128685760405162461bcd60e51b815260206004820152602260248201527f45434453413a20696e76616c6964207369676e6174757265202773272076616c604482015261756560f01b6064820152608490fd5b60041461287157565b60405162461bcd60e51b815260206004820152602260248201527f45434453413a20696e76616c6964207369676e6174757265202776272076616c604482015261756560f01b6064820152608490fd5b634e487b7160e01b5f52602160045260245ffd5b907f7fffffffffffffffffffffffffffffff5d576e7357a4501ddfe92f46681b20a0841161296c5760ff1690601b82141580612961575b612956576020935f93608093604051938452868401526040830152606082015282805260015afa15610990575f516001600160a01b0381161561294e57905f90565b505f90600190565b505050505f90600490565b50601c82141561290c565b505050505f90600390565b90919015612983575090565b8151156129935750805190602001fd5b60405162461bcd60e51b8152602060048201529081906129b7906024830190611c8c565b0390fdfea26469706673582212209cb7bac6f16bd2d7fe6198535084fbafd3098025d8ab9aa91b00fd10b139c10064736f6c634300081c0033","linkReferences":{}},"methodIdentifiers":{"DEPOSIT_TYPEHASH()":"48825e94","DOMAIN_TYPEHASH()":"20606b70","addShares(address,address,address,uint256)":"c4623ea1","addStrategiesToDepositWhitelist(address[],bool[])":"df5b3547","delegation()":"df5cf723","depositIntoStrategy(address,address,uint256)":"e7a050aa","depositIntoStrategyWithSignature(address,address,uint256,address,uint256,bytes)":"32e89ace","domainSeparator()":"f698da25","eigenPodManager()":"4665bcda","getDeposits(address)":"94f649dd","initialize(address,address,address,uint256)":"cf756fdf","nonces(address)":"7ecebe00","owner()":"8da5cb5b","pause(uint256)":"136439dd","pauseAll()":"595c6a67","paused()":"5c975abb","paused(uint8)":"5ac86ab7","pauserRegistry()":"886f1195","removeShares(address,address,uint256)":"8c80d4e5","removeStrategiesFromDepositWhitelist(address[])":"b5d8b5b8","renounceOwnership()":"715018a6","setPauserRegistry(address)":"10d67a2f","setStrategyWhitelister(address)":"c6656702","setThirdPartyTransfersForbidden(address,bool)":"4e5a4263","slasher()":"b1344271","stakerStrategyList(address,uint256)":"cbc2bd62","stakerStrategyListLength(address)":"8b8aac3c","stakerStrategyShares(address,address)":"7a7e0d92","strategyIsWhitelistedForDeposit(address)":"663c1de4","strategyWhitelister()":"967fc0d2","thirdPartyTransfersForbidden(address)":"9b4da03d","transferOwnership(address)":"f2fde38b","unpause(uint256)":"fabc1cbc","withdrawSharesAsTokens(address,address,uint256,address)":"c608c7f3"},"id":17}