{"abi":[{"type":"constructor","inputs":[{"name":"_avsDirectory","type":"address","internalType":"address"},{"name":"_stakeRegistry","type":"address","internalType":"address"},{"name":"_rewardsCoordinator","type":"address","internalType":"address"},{"name":"_delegationManager","type":"address","internalType":"address"}],"stateMutability":"nonpayable"},{"type":"function","name":"addSignedDataForTrigger","inputs":[{"name":"payload","type":"tuple","internalType":"struct ILayerServiceManager.Payload","components":[{"name":"triggerId","type":"uint64","internalType":"ILayerTrigger.TriggerId"},{"name":"data","type":"bytes","internalType":"bytes"}]},{"name":"signature","type":"bytes","internalType":"bytes"}],"outputs":[],"stateMutability":"nonpayable"},{"type":"function","name":"avsDirectory","inputs":[],"outputs":[{"name":"","type":"address","internalType":"address"}],"stateMutability":"view"},{"type":"function","name":"createAVSRewardsSubmission","inputs":[{"name":"rewardsSubmissions","type":"tuple[]","internalType":"struct IRewardsCoordinator.RewardsSubmission[]","components":[{"name":"strategiesAndMultipliers","type":"tuple[]","internalType":"struct IRewardsCoordinator.StrategyAndMultiplier[]","components":[{"name":"strategy","type":"address","internalType":"contract IStrategy"},{"name":"multiplier","type":"uint96","internalType":"uint96"}]},{"name":"token","type":"address","internalType":"contract IERC20"},{"name":"amount","type":"uint256","internalType":"uint256"},{"name":"startTimestamp","type":"uint32","internalType":"uint32"},{"name":"duration","type":"uint32","internalType":"uint32"}]}],"outputs":[],"stateMutability":"nonpayable"},{"type":"function","name":"createOperatorDirectedAVSRewardsSubmission","inputs":[{"name":"operatorDirectedRewardsSubmissions","type":"tuple[]","internalType":"struct IRewardsCoordinator.OperatorDirectedRewardsSubmission[]","components":[{"name":"strategiesAndMultipliers","type":"tuple[]","internalType":"struct IRewardsCoordinator.StrategyAndMultiplier[]","components":[{"name":"strategy","type":"address","internalType":"contract IStrategy"},{"name":"multiplier","type":"uint96","internalType":"uint96"}]},{"name":"token","type":"address","internalType":"contract IERC20"},{"name":"operatorRewards","type":"tuple[]","internalType":"struct IRewardsCoordinator.OperatorReward[]","components":[{"name":"operator","type":"address","internalType":"address"},{"name":"amount","type":"uint256","internalType":"uint256"}]},{"name":"startTimestamp","type":"uint32","internalType":"uint32"},{"name":"duration","type":"uint32","internalType":"uint32"},{"name":"description","type":"string","internalType":"string"}]}],"outputs":[],"stateMutability":"nonpayable"},{"type":"function","name":"deregisterOperatorFromAVS","inputs":[{"name":"operator","type":"address","internalType":"address"}],"outputs":[],"stateMutability":"nonpayable"},{"type":"function","name":"getOperatorRestakedStrategies","inputs":[{"name":"_operator","type":"address","internalType":"address"}],"outputs":[{"name":"","type":"address[]","internalType":"address[]"}],"stateMutability":"view"},{"type":"function","name":"getRestakeableStrategies","inputs":[],"outputs":[{"name":"","type":"address[]","internalType":"address[]"}],"stateMutability":"view"},{"type":"function","name":"getSignedDataByTriggerId","inputs":[{"name":"triggerId","type":"uint64","internalType":"ILayerTrigger.TriggerId"}],"outputs":[{"name":"","type":"tuple","internalType":"struct ILayerServiceManager.SignedData","components":[{"name":"data","type":"bytes","internalType":"bytes"},{"name":"signature","type":"bytes","internalType":"bytes"}]}],"stateMutability":"view"},{"type":"function","name":"owner","inputs":[],"outputs":[{"name":"","type":"address","internalType":"address"}],"stateMutability":"view"},{"type":"function","name":"registerOperatorToAVS","inputs":[{"name":"operator","type":"address","internalType":"address"},{"name":"operatorSignature","type":"tuple","internalType":"struct ISignatureUtils.SignatureWithSaltAndExpiry","components":[{"name":"signature","type":"bytes","internalType":"bytes"},{"name":"salt","type":"bytes32","internalType":"bytes32"},{"name":"expiry","type":"uint256","internalType":"uint256"}]}],"outputs":[],"stateMutability":"nonpayable"},{"type":"function","name":"renounceOwnership","inputs":[],"outputs":[],"stateMutability":"nonpayable"},{"type":"function","name":"rewardsInitiator","inputs":[],"outputs":[{"name":"","type":"address","internalType":"address"}],"stateMutability":"view"},{"type":"function","name":"setClaimerFor","inputs":[{"name":"claimer","type":"address","internalType":"address"}],"outputs":[],"stateMutability":"nonpayable"},{"type":"function","name":"setRewardsInitiator","inputs":[{"name":"newRewardsInitiator","type":"address","internalType":"address"}],"outputs":[],"stateMutability":"nonpayable"},{"type":"function","name":"signedDataByTriggerId","inputs":[{"name":"","type":"uint64","internalType":"ILayerTrigger.TriggerId"}],"outputs":[{"name":"data","type":"bytes","internalType":"bytes"},{"name":"signature","type":"bytes","internalType":"bytes"}],"stateMutability":"view"},{"type":"function","name":"stakeRegistry","inputs":[],"outputs":[{"name":"","type":"address","internalType":"address"}],"stateMutability":"view"},{"type":"function","name":"transferOwnership","inputs":[{"name":"newOwner","type":"address","internalType":"address"}],"outputs":[],"stateMutability":"nonpayable"},{"type":"function","name":"updateAVSMetadataURI","inputs":[{"name":"_metadataURI","type":"string","internalType":"string"}],"outputs":[],"stateMutability":"nonpayable"},{"type":"event","name":"AddedSignedDataForTrigger","inputs":[{"name":"triggerId","type":"uint64","indexed":true,"internalType":"ILayerTrigger.TriggerId"}],"anonymous":false},{"type":"event","name":"Initialized","inputs":[{"name":"version","type":"uint8","indexed":false,"internalType":"uint8"}],"anonymous":false},{"type":"event","name":"OwnershipTransferred","inputs":[{"name":"previousOwner","type":"address","indexed":true,"internalType":"address"},{"name":"newOwner","type":"address","indexed":true,"internalType":"address"}],"anonymous":false},{"type":"event","name":"RewardsInitiatorUpdated","inputs":[{"name":"prevRewardsInitiator","type":"address","indexed":false,"internalType":"address"},{"name":"newRewardsInitiator","type":"address","indexed":false,"internalType":"address"}],"anonymous":false}],"bytecode":{"object":"0x6101003461019a57601f61208938819003918201601f19168301916001600160401b0383118484101761019e5780849260809460405283398101031261019a57610048816101b2565b90610055602082016101b2565b61006d6060610066604085016101b2565b93016101b2565b9260a05260805260c05260e0525f5460ff8160081c166101455760ff8082161061010b575b604051611ec290816101c7823960805181818161060a0152818161079901528181610d4301528181610f05015281816110790152611487015260a051818181610704015281816107c901528181610d6c0152610ec1015260c05181818161011d0152818161086f0152610c2b015260e0518161154d0152f35b60ff90811916175f557f7f26b83ff96e1f2b6a682f133852f6798a09c465da95921460cefb3847402498602060405160ff8152a15f610092565b60405162461bcd60e51b815260206004820152602760248201527f496e697469616c697a61626c653a20636f6e747261637420697320696e697469604482015266616c697a696e6760c81b6064820152608490fd5b5f80fd5b634e487b7160e01b5f52604160045260245ffd5b51906001600160a01b038216820361019a5756fe60806040526004361015610011575f80fd5b5f803560e01c8063276f85f21461172857806333cfb7b71461145a5780633bc28c8c146113db5780633dc7ae2e14610f345780636830483514610ef05780636b3aa72e14610eac578063715018a614610e515780638da5cb5b14610e295780639926ee7d14610c93578063a0169ddd14610c06578063a20b99bf14610831578063a364f4da14610778578063a98fb355146106b7578063e481af9d146105e5578063ef7d79b714610540578063f2fde38b14610477578063fc299dee1461044e5763fce36c7d146100e0575f80fd5b346101bd5760203660031901126101bd576004356001600160401b03811161044a57610110903690600401611991565b61011b929192611c98565b7f0000000000000000000000000000000000000000000000000000000000000000825b82811061026857506001600160a01b031690813b15610264576040519363fce36c7d60e01b8552816024860160206004880152526044850160448360051b87010192828690609e19813603015b8383106101cb5788808b8181808c0381838f5af180156101c0576101ac5750f35b816101b6916117fb565b6101bd5780f35b80fd5b6040513d84823e3d90fd5b9091929394956043198a82030186528635828112156102605760206001928582930190608063ffffffff61024e826102146102068780611dc1565b60a0885260a0880191611df5565b95898060a01b036102268983016118f6565b1688870152604081013560408701528361024260608301611e59565b16606087015201611e59565b1691015298019601949301919061018b565b8980fd5b8280fd5b8360206102c96001600160a01b0361028b83610285878a8d611e6a565b01611d95565b16604061029986898c611e6a565b6040516323b872dd60e01b8152336004820152306024820152910135604482015293849283919082906064820190565b03925af180156103e75761042e575b506001600160a01b036102f1602061028584878a611e6a565b604051636eb1769f60e11b81523060048201526001600160a01b03851660248201529160209183916044918391165afa9081156103e7578591879183916103f2575b5060209161039e9161036b906040610364888b6001600160a01b0361035d8a61028585858c611e6a565b1696611e6a565b0135611d88565b60405163095ea7b360e01b81526001600160a01b0388166004820152602481019190915293849283919082906044820190565b03925af180156103e75790600192916103b9575b500161013e565b6103d99060203d81116103e0575b6103d181836117fb565b810190611da9565b505f6103b2565b503d6103c7565b6040513d87823e3d90fd5b925050506020813d8211610426575b8161040e602093836117fb565b810103126104225751849086906020610333565b5f80fd5b3d9150610401565b6104459060203d81116103e0576103d181836117fb565b6102d8565b5080fd5b50346101bd57806003193601126101bd576065546040516001600160a01b039091168152602090f35b50346101bd5760203660031901126101bd576104916118e0565b610499611c40565b6001600160a01b031680156104ec57603380546001600160a01b0319811683179091556001600160a01b03167f8be0079c531659141344cd1fd0a4f28419497f9722a3daafe3b4186f6b6457e08380a380f35b60405162461bcd60e51b815260206004820152602660248201527f4f776e61626c653a206e6577206f776e657220697320746865207a65726f206160448201526564647265737360d01b6064820152608490fd5b50346101bd5760203660031901126101bd5760406105ce916001600160401b03610568611792565b606060208551610577816117e0565b82815201521681526097602052206105e16105ab60016040519361059a856117e0565b6105a38161181c565b85520161181c565b6020830190815260405193849360208552516040602086015260608501906118bc565b9051838203601f190160408501526118bc565b0390f35b50346101bd57806003193601126101bd576040516302e0740360e31b815281816004817f00000000000000000000000000000000000000000000000000000000000000006001600160a01b03165afa9081156101c0578291610695575b5061064e815151611c0e565b915b8151805182101561068757600191906001600160a01b0390610673908390611bc4565b5151166106808286611bc4565b5201610650565b604051806105e1868261190a565b6106b191503d8084833e6106a981836117fb565b810190611ac2565b5f610642565b50346101bd5760203660031901126101bd57806004356001600160401b0381116107755736602382011215610775576106fa90369060248160040135910161194c565b610702611c40565b7f00000000000000000000000000000000000000000000000000000000000000006001600160a01b0316803b156107715760405163a98fb35560e01b81526020600482015291839183918290849082906107609060248301906118bc565b03925af180156101c0576101ac5750f35b5050fd5b50fd5b50346101bd5760203660031901126101bd57806107936118e0565b6107c7337f00000000000000000000000000000000000000000000000000000000000000006001600160a01b031614611a26565b7f00000000000000000000000000000000000000000000000000000000000000006001600160a01b031690813b15610771576040516351b27a6d60e11b81526001600160a01b0390911660048201529082908290602490829084905af180156101c0576101ac5750f35b50346101bd5760203660031901126101bd576004356001600160401b03811161044a57610862903690600401611991565b61086d929192611c98565b7f0000000000000000000000000000000000000000000000000000000000000000825b828110610a1e5750919283926001600160a01b031690813b15610a1957935060405191634e5cd2fd60e11b835280604484013060048601526040602486015252606483019060648160051b850101958092869160be19813603015b84841061090c578880898181808f0381838e5af180156101c0576101ac5750f35b878a036063190183528535818112156102605782019961093d61092f8c80611dc1565b60c0845260c0840191611df5565b9a6001600160a01b03610952602083016118f6565b16602083015260206109676040830183611dc1565b848f036040860152808f529d9091019c8c5b8181106109e85750505060206109d88c9d6001946109ca8563ffffffff6109a36060889901611e59565b16606084015263ffffffff6109ba60808301611e59565b16608084015260a08101906119c1565b9160a08185039101526119f2565b98019401940193929599506108eb565b90919d60408f60019260208392858060a01b03610a04826118f6565b16835201356020820152019f01929101610979565b505050fd5b909291829483955b610a3e610a34858585611d31565b6040810190611d53565b9050871015610a8e57610a55610a34858585611d31565b881015610a7a576001916020610a72928a60061b01013590611d88565b960195610a26565b634e487b7160e01b86526032600452602486fd5b909550929390929091906001600160a01b03610ab0602061028585888b611d31565b6040516323b872dd60e01b81523360048201523060248201526044810184905291602091839160649183918b91165af18015610bdf57610bea575b506001600160a01b03610b04602061028585888b611d31565b604051636eb1769f60e11b81523060048201526001600160a01b03861660248201529160209183916044918391165afa908115610bdf57908692918391610ba8575b5060209161036b610b6f928a610b68866102858a8d60018060a01b0395611d31565b1692611d88565b03925af180156103e7579060019291610b8a575b5001610890565b610ba19060203d81116103e0576103d181836117fb565b505f610b83565b9250506020823d8211610bd7575b81610bc3602093836117fb565b810103126104225790518591906020610b46565b3d9150610bb6565b6040513d88823e3d90fd5b610c019060203d81116103e0576103d181836117fb565b610aeb565b50346101bd5760203660031901126101bd5780610c216118e0565b610c29611c40565b7f00000000000000000000000000000000000000000000000000000000000000006001600160a01b031690813b156107715760405163a0169ddd60e01b81526001600160a01b0390911660048201529082908290602490829084905af180156101c0576101ac5750f35b503461042257604036600319011261042257610cad6118e0565b602435906001600160401b03821161042257606060031983360301126104225760405190606082018281106001600160401b03821117610e155760405282600401356001600160401b0381116104225783013660238201121561042257610d1e90369060246004820135910161194c565b82526020820191602484013583526044604082019401358452610d6a60018060a01b037f0000000000000000000000000000000000000000000000000000000000000000163314611a26565b7f00000000000000000000000000000000000000000000000000000000000000006001600160a01b031690813b15610422575f610ddd93819560405197889687958694639926ee7d60e01b865260018060a01b0316600486015260406024860152516060604486015260a48501906118bc565b9151606484015251608483015203925af18015610e0a57610dfc575080f35b610e0891505f906117fb565b005b6040513d5f823e3d90fd5b634e487b7160e01b5f52604160045260245ffd5b34610422575f366003190112610422576033546040516001600160a01b039091168152602090f35b34610422575f36600319011261042257610e69611c40565b603380546001600160a01b031981169091555f906001600160a01b03167f8be0079c531659141344cd1fd0a4f28419497f9722a3daafe3b4186f6b6457e08280a3005b34610422575f366003190112610422576040517f00000000000000000000000000000000000000000000000000000000000000006001600160a01b03168152602090f35b34610422575f366003190112610422576040517f00000000000000000000000000000000000000000000000000000000000000006001600160a01b03168152602090f35b34610422576040366003190112610422576004356001600160401b038111610422578060040181360391604060031984011261042257602435926001600160401b0384116104225736602385011215610422578360040135916001600160401b038311610422576024850194602484369201011161042257604051602081016020815285356001600160401b038116809103610422576040830152602483019161100481610ff6610fe5868b6119c1565b6040606085015260808401916119f2565b03601f1981018352826117fb565b51902060405160208101917f19457468657265756d205369676e6564204d6573736167653a0a3332000000008352603c820152603c8152611046605c826117fb565b51902060405190630b135d3f60e11b82526004820152604060248201526020818061107560448201898c6119f2565b03817f00000000000000000000000000000000000000000000000000000000000000006001600160a01b03165afa908115610e0a575f91611398575b506001600160e01b031916630b135d3f60e11b03610422573591602219018212156104225701926004840135936001600160401b038511610422576024019184360383136104225761111461111d936040519661110d886117e0565b369161194c565b8552369161194c565b602083019081526001600160401b0361113583611a12565b165f52609760205260405f2092519283516001600160401b038111610e155761115e82546117a8565b601f8111611353575b506020601f82116001146112ee57819060019495965f926112e3575b50505f19600383901b1c191690831b1781555b0190518051906001600160401b038211610e15576111b483546117a8565b601f811161129e575b50602090601f831160011461122e5791806111fc94926001600160401b0396945f92611223575b50508160011b915f199060031b1c1916179055611a12565b167f2f92017ffab44b89df269a59836838368751127b014bb59a3eb1b05e97e653045f80a2005b0151905086806111e4565b90601f19831691845f52815f20925f5b81811061128657509260019285926001600160401b0398966111fc98961061126e575b505050811b019055611a12565b01515f1960f88460031b161c19169055868080611261565b9293602060018192878601518155019501930161123e565b835f5260205f20601f840160051c810191602085106112d9575b601f0160051c01905b8181106112ce57506111bd565b5f81556001016112c1565b90915081906112b8565b015190508680611183565b601f19821695835f52815f20965f5b81811061133b5750916001959697918487959410611323575b505050811b018155611196565b01515f1960f88460031b161c19169055868080611316565b838301518955600190980197602093840193016112fd565b825f5260205f20601f830160051c8101916020841061138e575b601f0160051c01905b8181106113835750611167565b5f8155600101611376565b909150819061136d565b90506020813d6020116113d3575b816113b3602093836117fb565b8101031261042257516001600160e01b03198116810361042257876110b1565b3d91506113a6565b34610422576020366003190112610422576113f46118e0565b6113fc611c40565b606554604080516001600160a01b038084168252841660208201529192917fe11cddf1816a43318ca175bbc52cd0185436e9cbead7c83acc54a73e461717e39190a16001600160a01b03166001600160a01b03199190911617606555005b34610422576020366003190112610422576114736118e0565b6040516302e0740360e31b81525f816004817f00000000000000000000000000000000000000000000000000000000000000006001600160a01b03165afa908115610e0a575f9161170e575b5090815151906114ce82611aab565b906114dc60405192836117fb565b8282526114e883611aab565b602083019490601f19013686375f5b8481106116e057505060408051639004134760e01b81526001600160a01b0390921660048301526024820152815160448201819052909384916064830191905f5b8181106116be57505f939283900391508290507f00000000000000000000000000000000000000000000000000000000000000006001600160a01b03165afa928315610e0a575f9361162c575b505f805b838110611600575061159a90611c0e565b925f905f5b8481106115b457604051806105e1888261190a565b6115be8183611bc4565b516115cc575b60010161159f565b916001906115f8906001600160a01b036115e68688611bc4565b51166115f2828a611bc4565b52611bec565b9290506115c4565b61160a8186611bc4565b51611618575b600101611589565b90611624600191611bec565b919050611610565b9092503d805f833e61163e81836117fb565b810190602081830312610422578051906001600160401b03821161042257019080601f8301121561042257815161167481611aab565b9261168260405194856117fb565b81845260208085019260051b82010192831161042257602001905b8282106116ae575050509183611585565b815181526020918201910161169d565b82516001600160a01b0316845287945060209384019390920191600101611538565b600190818060a09895981b036116f7828551611bc4565b5151166117048287611bc4565b52019491946114f7565b61172291503d805f833e6106a981836117fb565b826114bf565b34610422576020366003190112610422576001600160401b03611749611792565b165f52609760205261178460405f206105e161177060016117698461181c565b930161181c565b6040519384936040855260408501906118bc565b9083820360208501526118bc565b600435906001600160401b038216820361042257565b90600182811c921680156117d6575b60208310146117c257565b634e487b7160e01b5f52602260045260245ffd5b91607f16916117b7565b604081019081106001600160401b03821117610e1557604052565b90601f801991011681019081106001600160401b03821117610e1557604052565b9060405191825f82549261182f846117a8565b808452936001811690811561189a5750600114611856575b50611854925003836117fb565b565b90505f9291925260205f20905f915b81831061187e575050906020611854928201015f611847565b6020919350806001915483858901015201910190918492611865565b90506020925061185494915060ff191682840152151560051b8201015f611847565b805180835260209291819084018484015e5f828201840152601f01601f1916010190565b600435906001600160a01b038216820361042257565b35906001600160a01b038216820361042257565b60206040818301928281528451809452019201905f5b81811061192d5750505090565b82516001600160a01b0316845260209384019390920191600101611920565b9291926001600160401b038211610e155760405191611975601f8201601f1916602001846117fb565b829481845281830111610422578281602093845f960137010152565b9181601f84011215610422578235916001600160401b038311610422576020808501948460051b01011161042257565b9035601e19823603018112156104225701602081359101916001600160401b03821161042257813603831361042257565b908060209392818452848401375f828201840152601f01601f1916010190565b356001600160401b03811681036104225790565b15611a2d57565b60405162461bcd60e51b815260206004820152604a60248201527f4543445341536572766963654d616e61676572426173652e6f6e6c795374616b60448201527f6552656769737472793a2063616c6c6572206973206e6f7420746865207374616064820152696b65526567697374727960b01b608482015260a490fd5b6001600160401b038111610e155760051b60200190565b602081830312610422578051906001600160401b0382116104225701906020828203126104225760405191602083018381106001600160401b03821117610e15576040528051906001600160401b038211610422570181601f8201121561042257805190611b2f82611aab565b92611b3d60405194856117fb565b82845260208085019360061b8301019181831161042257602001925b828410611b695750505050815290565b6040848303126104225760405190611b80826117e0565b84516001600160a01b03811681036104225782526020850151906bffffffffffffffffffffffff821682036104225782602092836040950152815201930192611b59565b8051821015611bd85760209160051b010190565b634e487b7160e01b5f52603260045260245ffd5b5f198114611bfa5760010190565b634e487b7160e01b5f52601160045260245ffd5b90611c1882611aab565b611c2560405191826117fb565b8281528092611c36601f1991611aab565b0190602036910137565b6033546001600160a01b03163303611c5457565b606460405162461bcd60e51b815260206004820152602060248201527f4f776e61626c653a2063616c6c6572206973206e6f7420746865206f776e65726044820152fd5b6065546001600160a01b03163303611cac57565b60405162461bcd60e51b815260206004820152605160248201527f4543445341536572766963654d616e61676572426173652e6f6e6c795265776160448201527f726473496e69746961746f723a2063616c6c6572206973206e6f7420746865206064820152703932bbb0b932399034b734ba34b0ba37b960791b608482015260a490fd5b9190811015611bd85760051b8101359060be1981360301821215610422570190565b903590601e198136030182121561042257018035906001600160401b03821161042257602001918160061b3603831361042257565b91908201809211611bfa57565b356001600160a01b03811681036104225790565b90816020910312610422575180151581036104225790565b9035601e19823603018112156104225701602081359101916001600160401b038211610422578160061b3603831361042257565b916020908281520191905f905b808210611e0f5750505090565b909192833560018060a01b0381168091036104225781526020840135906bffffffffffffffffffffffff821680920361042257604081600193602083940152019401920190611e02565b359063ffffffff8216820361042257565b9190811015611bd85760051b81013590609e198136030182121561042257019056fea26469706673582212208ee1eeae9968e203c45c6856218e0022cc58cf96aa1a80f01e5225a2b5a1d50b64736f6c634300081a0033","linkReferences":{}},"methodIdentifiers":{"addSignedDataForTrigger((uint64,bytes),bytes)":"3dc7ae2e","avsDirectory()":"6b3aa72e","createAVSRewardsSubmission(((address,uint96)[],address,uint256,uint32,uint32)[])":"fce36c7d","createOperatorDirectedAVSRewardsSubmission(((address,uint96)[],address,(address,uint256)[],uint32,uint32,string)[])":"a20b99bf","deregisterOperatorFromAVS(address)":"a364f4da","getOperatorRestakedStrategies(address)":"33cfb7b7","getRestakeableStrategies()":"e481af9d","getSignedDataByTriggerId(uint64)":"ef7d79b7","owner()":"8da5cb5b","registerOperatorToAVS(address,(bytes,bytes32,uint256))":"9926ee7d","renounceOwnership()":"715018a6","rewardsInitiator()":"fc299dee","setClaimerFor(address)":"a0169ddd","setRewardsInitiator(address)":"3bc28c8c","signedDataByTriggerId(uint64)":"276f85f2","stakeRegistry()":"68304835","transferOwnership(address)":"f2fde38b","updateAVSMetadataURI(string)":"a98fb355"},"id":0}