{"abi":[{"type":"constructor","inputs":[{"name":"_avsDirectory","type":"address","internalType":"address"},{"name":"_stakeRegistry","type":"address","internalType":"address"},{"name":"_rewardsCoordinator","type":"address","internalType":"address"},{"name":"_delegationManager","type":"address","internalType":"address"}],"stateMutability":"nonpayable"},{"type":"function","name":"addRawData","inputs":[{"name":"data","type":"bytes","internalType":"bytes"},{"name":"signature","type":"bytes","internalType":"bytes"}],"outputs":[],"stateMutability":"view"},{"type":"function","name":"addSignedPayloadForTrigger","inputs":[{"name":"signedPayload","type":"tuple","internalType":"struct ILayerServiceManager.SignedPayload","components":[{"name":"data","type":"bytes","internalType":"bytes"},{"name":"signature","type":"bytes","internalType":"bytes"}]},{"name":"triggerId","type":"uint64","internalType":"ILayerTrigger.TriggerId"}],"outputs":[],"stateMutability":"nonpayable"},{"type":"function","name":"addSignedPayloadMulti","inputs":[{"name":"signedPayloads","type":"tuple[]","internalType":"struct ILayerServiceManager.SignedPayload[]","components":[{"name":"data","type":"bytes","internalType":"bytes"},{"name":"signature","type":"bytes","internalType":"bytes"}]}],"outputs":[],"stateMutability":"view"},{"type":"function","name":"avsDirectory","inputs":[],"outputs":[{"name":"","type":"address","internalType":"address"}],"stateMutability":"view"},{"type":"function","name":"createAVSRewardsSubmission","inputs":[{"name":"rewardsSubmissions","type":"tuple[]","internalType":"struct IRewardsCoordinator.RewardsSubmission[]","components":[{"name":"strategiesAndMultipliers","type":"tuple[]","internalType":"struct IRewardsCoordinator.StrategyAndMultiplier[]","components":[{"name":"strategy","type":"address","internalType":"contract IStrategy"},{"name":"multiplier","type":"uint96","internalType":"uint96"}]},{"name":"token","type":"address","internalType":"contract IERC20"},{"name":"amount","type":"uint256","internalType":"uint256"},{"name":"startTimestamp","type":"uint32","internalType":"uint32"},{"name":"duration","type":"uint32","internalType":"uint32"}]}],"outputs":[],"stateMutability":"nonpayable"},{"type":"function","name":"createOperatorDirectedAVSRewardsSubmission","inputs":[{"name":"operatorDirectedRewardsSubmissions","type":"tuple[]","internalType":"struct IRewardsCoordinator.OperatorDirectedRewardsSubmission[]","components":[{"name":"strategiesAndMultipliers","type":"tuple[]","internalType":"struct IRewardsCoordinator.StrategyAndMultiplier[]","components":[{"name":"strategy","type":"address","internalType":"contract IStrategy"},{"name":"multiplier","type":"uint96","internalType":"uint96"}]},{"name":"token","type":"address","internalType":"contract IERC20"},{"name":"operatorRewards","type":"tuple[]","internalType":"struct IRewardsCoordinator.OperatorReward[]","components":[{"name":"operator","type":"address","internalType":"address"},{"name":"amount","type":"uint256","internalType":"uint256"}]},{"name":"startTimestamp","type":"uint32","internalType":"uint32"},{"name":"duration","type":"uint32","internalType":"uint32"},{"name":"description","type":"string","internalType":"string"}]}],"outputs":[],"stateMutability":"nonpayable"},{"type":"function","name":"deregisterOperatorFromAVS","inputs":[{"name":"operator","type":"address","internalType":"address"}],"outputs":[],"stateMutability":"nonpayable"},{"type":"function","name":"getOperatorRestakedStrategies","inputs":[{"name":"_operator","type":"address","internalType":"address"}],"outputs":[{"name":"","type":"address[]","internalType":"address[]"}],"stateMutability":"view"},{"type":"function","name":"getRestakeableStrategies","inputs":[],"outputs":[{"name":"","type":"address[]","internalType":"address[]"}],"stateMutability":"view"},{"type":"function","name":"owner","inputs":[],"outputs":[{"name":"","type":"address","internalType":"address"}],"stateMutability":"view"},{"type":"function","name":"registerOperatorToAVS","inputs":[{"name":"operator","type":"address","internalType":"address"},{"name":"operatorSignature","type":"tuple","internalType":"struct ISignatureUtils.SignatureWithSaltAndExpiry","components":[{"name":"signature","type":"bytes","internalType":"bytes"},{"name":"salt","type":"bytes32","internalType":"bytes32"},{"name":"expiry","type":"uint256","internalType":"uint256"}]}],"outputs":[],"stateMutability":"nonpayable"},{"type":"function","name":"renounceOwnership","inputs":[],"outputs":[],"stateMutability":"nonpayable"},{"type":"function","name":"rewardsInitiator","inputs":[],"outputs":[{"name":"","type":"address","internalType":"address"}],"stateMutability":"view"},{"type":"function","name":"setClaimerFor","inputs":[{"name":"claimer","type":"address","internalType":"address"}],"outputs":[],"stateMutability":"nonpayable"},{"type":"function","name":"setRewardsInitiator","inputs":[{"name":"newRewardsInitiator","type":"address","internalType":"address"}],"outputs":[],"stateMutability":"nonpayable"},{"type":"function","name":"signedPayloadByTriggerId","inputs":[{"name":"","type":"uint64","internalType":"ILayerTrigger.TriggerId"}],"outputs":[{"name":"data","type":"bytes","internalType":"bytes"},{"name":"signature","type":"bytes","internalType":"bytes"}],"stateMutability":"view"},{"type":"function","name":"stakeRegistry","inputs":[],"outputs":[{"name":"","type":"address","internalType":"address"}],"stateMutability":"view"},{"type":"function","name":"transferOwnership","inputs":[{"name":"newOwner","type":"address","internalType":"address"}],"outputs":[],"stateMutability":"nonpayable"},{"type":"function","name":"updateAVSMetadataURI","inputs":[{"name":"_metadataURI","type":"string","internalType":"string"}],"outputs":[],"stateMutability":"nonpayable"},{"type":"event","name":"AddedSignedPayloadForTrigger","inputs":[{"name":"triggerId","type":"uint64","indexed":true,"internalType":"ILayerTrigger.TriggerId"}],"anonymous":false},{"type":"event","name":"Initialized","inputs":[{"name":"version","type":"uint8","indexed":false,"internalType":"uint8"}],"anonymous":false},{"type":"event","name":"OwnershipTransferred","inputs":[{"name":"previousOwner","type":"address","indexed":true,"internalType":"address"},{"name":"newOwner","type":"address","indexed":true,"internalType":"address"}],"anonymous":false},{"type":"event","name":"RewardsInitiatorUpdated","inputs":[{"name":"prevRewardsInitiator","type":"address","indexed":false,"internalType":"address"},{"name":"newRewardsInitiator","type":"address","indexed":false,"internalType":"address"}],"anonymous":false},{"type":"error","name":"InvalidSignature","inputs":[]}],"bytecode":{"object":"0x6101003461019a57601f61206b38819003918201601f19168301916001600160401b0383118484101761019e5780849260809460405283398101031261019a57610048816101b2565b90610055602082016101b2565b61006d6060610066604085016101b2565b93016101b2565b9260a05260805260c05260e0525f5460ff8160081c166101455760ff8082161061010b575b604051611ea490816101c782396080518181816105c20152818161074201528181610cf801528181610efa01528181611398015261197c015260a0518181816106bb0152818161077201528181610d210152610eb6015260c05181818161019d015281816108140152610be2015260e0518161145e0152f35b60ff90811916175f557f7f26b83ff96e1f2b6a682f133852f6798a09c465da95921460cefb3847402498602060405160ff8152a15f610092565b60405162461bcd60e51b815260206004820152602760248201527f496e697469616c697a61626c653a20636f6e747261637420697320696e697469604482015266616c697a696e6760c81b6064820152608490fd5b5f80fd5b634e487b7160e01b5f52604160045260245ffd5b51906001600160a01b038216820361019a5756fe6080806040526004361015610012575f80fd5b5f3560e01c90816333cfb7b71461136d575080633bc28c8c146112ee5780634db45857146111e657806361a0504714610f295780636830483514610ee55780636b3aa72e14610ea1578063715018a614610e465780638ad8b58f14610deb5780638da5cb5b14610dc35780639926ee7d14610c49578063a0169ddd14610bbf578063a20b99bf146107d9578063a364f4da14610723578063a98fb35514610670578063e481af9d1461059e578063f2fde38b146104d7578063fc299dee146104af578063fce36c7d146101625763ff82dae0146100ed575f80fd5b3461015e57602036600319011261015e576004356001600160401b03811680910361015e575f52609760205261014c60405f2061015a6101386001610131846117a0565b93016117a0565b604051938493604085526040850190611840565b908382036020850152611840565b0390f35b5f80fd5b3461015e57602036600319011261015e576004356001600160401b03811161015e576101929036906004016116a5565b9061019b611c7a565b7f00000000000000000000000000000000000000000000000000000000000000005f5b8381106102e257506001600160a01b031690813b1561015e579160405192839163fce36c7d60e01b835280602484016020600486015252604483019060448160051b8501019280925f90609e1983360301905b84831061024657875f81808a0381838e5af1801561023b5761022f57005b5f61023991611702565b005b6040513d5f823e3d90fd5b91939590929496506043198982030182528635908382121561015e5760208091876001940190608063ffffffff6102cc826102926102848780611da3565b60a0885260a0880191611dd7565b95898060a01b036102a489830161164f565b168887015260408101356040870152836102c060608301611e3b565b16606087015201611e3b565b1691015298019201930190939188969593610211565b5f60206103436001600160a01b03610305836102ff878b8b611e4c565b01611d77565b166040610313868a8a611e4c565b6040516323b872dd60e01b8152336004820152306024820152910135604482015293849283919082906064820190565b03925af1801561023b57610493575b506001600160a01b0361036b60206102ff848888611e4c565b604051636eb1769f60e11b81523060048201526001600160a01b0385166024820152929160209184916044918391165afa91821561023b575f9261045f575b505f91602090610417906103e46001600160a01b036103ce856102ff888d8d611e4c565b169160406103dd878c8c611e4c565b0135611d6a565b60405163095ea7b360e01b81526001600160a01b0388166004820152602481019190915294859283919082906044820190565b03925af191821561023b57600192610431575b50016101be565b6104519060203d8111610458575b6104498183611702565b810190611d8b565b508561042a565b503d61043f565b91506020823d821161048b575b8161047960209383611702565b8101031261015e5790519060206103aa565b3d915061046c565b6104aa9060203d8111610458576104498183611702565b610352565b3461015e575f36600319011261015e576065546040516001600160a01b039091168152602090f35b3461015e57602036600319011261015e576104f0611639565b6104f8611c22565b6001600160a01b0316801561054a57603380546001600160a01b0319811683179091556001600160a01b03167f8be0079c531659141344cd1fd0a4f28419497f9722a3daafe3b4186f6b6457e05f80a3005b60405162461bcd60e51b815260206004820152602660248201527f4f776e61626c653a206e6577206f776e657220697320746865207a65726f206160448201526564647265737360d01b6064820152608490fd5b3461015e575f36600319011261015e576040516302e0740360e31b81525f816004817f00000000000000000000000000000000000000000000000000000000000000006001600160a01b03165afa90811561023b575f9161064e575b50610606815151611bf0565b905f5b8151805182101561064057600191906001600160a01b039061062c908390611bce565b5151166106398286611bce565b5201610609565b6040518061015a8682611663565b61066a91503d805f833e6106628183611702565b810190611abc565b816105fa565b3461015e57602036600319011261015e576004356001600160401b03811161015e573660238201121561015e576106b1903690602481600401359101611723565b6106b9611c22565b7f00000000000000000000000000000000000000000000000000000000000000006001600160a01b0316803b1561015e5760405163a98fb35560e01b815260206004820152905f9082908183816107136024820189611840565b03925af1801561023b5761022f57005b3461015e57602036600319011261015e5761073c611639565b610770337f00000000000000000000000000000000000000000000000000000000000000006001600160a01b031614611a20565b7f00000000000000000000000000000000000000000000000000000000000000006001600160a01b031690813b1561015e576040516351b27a6d60e11b81526001600160a01b039091166004820152905f908290602490829084905af1801561023b5761022f57005b3461015e57602036600319011261015e576004356001600160401b03811161015e576108099036906004016116a5565b90610812611c7a565b7f00000000000000000000000000000000000000000000000000000000000000005f5b8381106109e557506001600160a01b031690813b1561015e57604051928391634e5cd2fd60e11b835281604484013060048601526040602486015252606483019160648160051b85010192825f9060be19813603015b8483106108a957875f81808a0381838e5af1801561023b5761022f57005b919395909294965060631989820301855286358281121561015e578301906108e26108d48380611da3565b60c0845260c0840191611dd7565b916001600160a01b036108f76020830161164f565b166020830152602061090c6040830183611da3565b848603604086015280865294909101935f905b8082106109b55750505063ffffffff61093a60608301611e3b565b16606083015263ffffffff61095160808301611e3b565b16608083015260a0810135601e198236030181121561015e570190602082359201906001600160401b03831161015e57823603821361015e578360209384938360a06109a395600199039101526118b8565b9801950193019091889695939261088b565b909194604080600192838060a01b036109cd8a61164f565b1681526020890135602082015201960192019061091f565b9091925f935f945b610a056109fb858585611d13565b6040810190611d35565b9050861015610a5557610a1c6109fb858585611d13565b871015610a41576001916020610a39928960061b01013590611d6a565b9501946109ed565b634e487b7160e01b5f52603260045260245ffd5b91945092916001600160a01b03610a7260206102ff848989611d13565b6040516323b872dd60e01b81523360048201523060248201526044810185905291602091839160649183915f91165af1801561023b57610ba3575b506001600160a01b03610ac660206102ff848989611d13565b604051636eb1769f60e11b81523060048201526001600160a01b0386166024820152939160209185916044918391165afa92831561023b578686915f95610b6a575b50916103e45f95610b3293610b2b60206102ff89829960018060a01b0395611d13565b1692611d6a565b03925af191821561023b57600192610b4c575b5001610835565b610b639060203d8111610458576104498183611702565b5085610b45565b945050506020833d8211610b9b575b81610b8660209383611702565b8101031261015e5791519184866103e4610b08565b3d9150610b79565b610bba9060203d8111610458576104498183611702565b610aad565b3461015e57602036600319011261015e57610bd8611639565b610be0611c22565b7f00000000000000000000000000000000000000000000000000000000000000006001600160a01b031690813b1561015e5760405163a0169ddd60e01b81526001600160a01b039091166004820152905f908290602490829084905af1801561023b5761022f57005b3461015e57604036600319011261015e57610c62611639565b602435906001600160401b03821161015e576060600319833603011261015e5760405190606082018281106001600160401b03821117610daf5760405282600401356001600160401b03811161015e5783013660238201121561015e57610cd3903690602460048201359101611723565b82526020820191602484013583526044604082019401358452610d1f60018060a01b037f0000000000000000000000000000000000000000000000000000000000000000163314611a20565b7f00000000000000000000000000000000000000000000000000000000000000006001600160a01b031690813b1561015e575f610d9293819560405197889687958694639926ee7d60e01b865260018060a01b0316600486015260406024860152516060604486015260a4850190611840565b9151606484015251608483015203925af1801561023b5761022f57005b634e487b7160e01b5f52604160045260245ffd5b3461015e575f36600319011261015e576033546040516001600160a01b039091168152602090f35b3461015e57604036600319011261015e576004356001600160401b03811161015e57610e1b9036906004016116d5565b602435916001600160401b03831161015e57610e3e6102399336906004016116d5565b9290916118d8565b3461015e575f36600319011261015e57610e5e611c22565b603380546001600160a01b031981169091555f906001600160a01b03167f8be0079c531659141344cd1fd0a4f28419497f9722a3daafe3b4186f6b6457e08280a3005b3461015e575f36600319011261015e576040517f00000000000000000000000000000000000000000000000000000000000000006001600160a01b03168152602090f35b3461015e575f36600319011261015e576040517f00000000000000000000000000000000000000000000000000000000000000006001600160a01b03168152602090f35b3461015e57604036600319011261015e576004356001600160401b03811161015e5780600401906040600319823603011261015e57602435906001600160401b03821680920361015e57610f916024610f828580611886565b9190930192610e3e8487611886565b815f52609760205260405f20610fa78480611886565b906001600160401b038211610daf57610fc08354611768565b601f81116111a1575b505f90601f83116001146111365791806110039594926001945f9261112b575b50505f19600383901b1c191690831b1781555b0193611886565b6001600160401b038194929411610daf5761101e8254611768565b601f81116110e6575b505f601f821160011461108457819293945f92611079575b50508160011b915f199060031b1c19161790555b7f41b42d39b4c7441eedf9cb7c1a70d2f7771846ab84d9f245ec091d4dfa14855b5f80a2005b01359050848061103f565b601f19821694835f5260205f20915f5b8781106110ce5750836001959697106110b5575b505050811b019055611053565b01355f19600384901b60f8161c191690558480806110a8565b90926020600181928686013581550194019101611094565b825f5260205f20601f830160051c81019160208410611121575b601f0160051c01905b8181106111165750611027565b5f8155600101611109565b9091508190611100565b013590508880610fe9565b601f19831691845f5260205f20925f5b818110611189575092600194919285938361100399989610611170575b505050811b018155610ffc565b01355f19600384901b60f8161c19169055888080611163565b91936020600181928787013581550195019201611146565b835f5260205f20601f840160051c810191602085106111dc575b601f0160051c01905b8181106111d15750610fc9565b5f81556001016111c4565b90915081906111bb565b3461015e57602036600319011261015e576004356001600160401b03811161015e576112169036906004016116a5565b5f5b63ffffffff811690828210156102395761124c61125661124261123c858789611864565b80611886565b9290948688611864565b6020810190611886565b939091303b1561015e5761129e5f9361128c966040519788958695638ad8b58f60e01b87526040600488015260448701916118b8565b848103600319016024860152916118b8565b0381305afa91821561023b5763ffffffff926112de575b501663ffffffff81146112ca57600101611218565b634e487b7160e01b5f52601160045260245ffd5b5f6112e891611702565b846112b5565b3461015e57602036600319011261015e57611307611639565b61130f611c22565b606554604080516001600160a01b038084168252841660208201529192917fe11cddf1816a43318ca175bbc52cd0185436e9cbead7c83acc54a73e461717e39190a16001600160a01b03166001600160a01b03199190911617606555005b3461015e57602036600319011261015e57611386611639565b6302e0740360e31b8252905f816004817f00000000000000000000000000000000000000000000000000000000000000006001600160a01b03165afa90811561023b575f9161161f575b5090815151906113df82611aa5565b906113ed6040519283611702565b8282526113f983611aa5565b602083019490601f19013686375f5b8481106115f157505060408051639004134760e01b81526001600160a01b0390921660048301526024820152815160448201819052909384916064830191905f5b8181106115cf57505f939283900391508290507f00000000000000000000000000000000000000000000000000000000000000006001600160a01b03165afa92831561023b575f9361153d575b505f805b83811061151157506114ab90611bf0565b925f905f5b8481106114c5576040518061015a8882611663565b6114cf8183611bce565b516114dd575b6001016114b0565b91600190611509906001600160a01b036114f78688611bce565b5116611503828a611bce565b52611be2565b9290506114d5565b61151b8186611bce565b51611529575b60010161149a565b90611535600191611be2565b919050611521565b9092503d805f833e61154f8183611702565b81019060208183031261015e578051906001600160401b03821161015e57019080601f8301121561015e57815161158581611aa5565b926115936040519485611702565b81845260208085019260051b82010192831161015e57602001905b8282106115bf575050509183611496565b81518152602091820191016115ae565b82516001600160a01b0316845287945060209384019390920191600101611449565b600190818060a09895981b03611608828551611bce565b5151166116158287611bce565b5201949194611408565b61163391503d805f833e6106628183611702565b826113d0565b600435906001600160a01b038216820361015e57565b35906001600160a01b038216820361015e57565b60206040818301928281528451809452019201905f5b8181106116865750505090565b82516001600160a01b0316845260209384019390920191600101611679565b9181601f8401121561015e578235916001600160401b03831161015e576020808501948460051b01011161015e57565b9181601f8401121561015e578235916001600160401b03831161015e576020838186019501011161015e57565b90601f801991011681019081106001600160401b03821117610daf57604052565b9291926001600160401b038211610daf576040519161174c601f8201601f191660200184611702565b82948184528183011161015e578281602093845f960137010152565b90600182811c92168015611796575b602083101461178257565b634e487b7160e01b5f52602260045260245ffd5b91607f1691611777565b9060405191825f8254926117b384611768565b808452936001811690811561181e57506001146117da575b506117d892500383611702565b565b90505f9291925260205f20905f915b8183106118025750509060206117d8928201015f6117cb565b60209193508060019154838589010152019101909184926117e9565b9050602092506117d894915060ff191682840152151560051b8201015f6117cb565b805180835260209291819084018484015e5f828201840152601f01601f1916010190565b9190811015610a415760051b81013590603e198136030182121561015e570190565b903590601e198136030182121561015e57018035906001600160401b03821161015e5760200191813603831361015e57565b908060209392818452848401375f828201840152601f01601f1916010190565b906118fb61190960209495936040519283918783019588875260408401916118b8565b03601f198101835282611702565b519020604051838101917f19457468657265756d205369676e6564204d6573736167653a0a3332000000008352603c820152603c815261194a605c82611702565b5190206119786040519485938493630b135d3f60e11b855260048501526040602485015260448401916118b8565b03817f00000000000000000000000000000000000000000000000000000000000000006001600160a01b03165afa90811561023b575f916119dd575b506001600160e01b031916630b135d3f60e11b036119ce57565b638baa579f60e01b5f5260045ffd5b90506020813d602011611a18575b816119f860209383611702565b8101031261015e57516001600160e01b03198116810361015e575f6119b4565b3d91506119eb565b15611a2757565b60405162461bcd60e51b815260206004820152604a60248201527f4543445341536572766963654d616e61676572426173652e6f6e6c795374616b60448201527f6552656769737472793a2063616c6c6572206973206e6f7420746865207374616064820152696b65526567697374727960b01b608482015260a490fd5b6001600160401b038111610daf5760051b60200190565b60208183031261015e578051906001600160401b03821161015e57019060208282031261015e5760405191602083018381106001600160401b03821117610daf576040528051906001600160401b03821161015e570181601f8201121561015e57805190611b2982611aa5565b92611b376040519485611702565b82845260208085019360061b8301019181831161015e57602001925b828410611b635750505050815290565b60408483031261015e5760405190604082018281106001600160401b03821117610daf5760405284516001600160a01b038116810361015e5782526020850151906bffffffffffffffffffffffff8216820361015e5782602092836040950152815201930192611b53565b8051821015610a415760209160051b010190565b5f1981146112ca5760010190565b90611bfa82611aa5565b611c076040519182611702565b8281528092611c18601f1991611aa5565b0190602036910137565b6033546001600160a01b03163303611c3657565b606460405162461bcd60e51b815260206004820152602060248201527f4f776e61626c653a2063616c6c6572206973206e6f7420746865206f776e65726044820152fd5b6065546001600160a01b03163303611c8e57565b60405162461bcd60e51b815260206004820152605160248201527f4543445341536572766963654d616e61676572426173652e6f6e6c795265776160448201527f726473496e69746961746f723a2063616c6c6572206973206e6f7420746865206064820152703932bbb0b932399034b734ba34b0ba37b960791b608482015260a490fd5b9190811015610a415760051b8101359060be198136030182121561015e570190565b903590601e198136030182121561015e57018035906001600160401b03821161015e57602001918160061b3603831361015e57565b919082018092116112ca57565b356001600160a01b038116810361015e5790565b9081602091031261015e5751801515810361015e5790565b9035601e198236030181121561015e5701602081359101916001600160401b03821161015e578160061b3603831361015e57565b916020908281520191905f905b808210611df15750505090565b909192833560018060a01b03811680910361015e5781526020840135906bffffffffffffffffffffffff821680920361015e57604081600193602083940152019401920190611de4565b359063ffffffff8216820361015e57565b9190811015610a415760051b81013590609e198136030182121561015e57019056fea2646970667358221220be08a5e3ab09d695c0c795ca7c9beb9131c0df3cd5df3f967230a2da665ee33b64736f6c634300081a0033","linkReferences":{}},"methodIdentifiers":{"addRawData(bytes,bytes)":"8ad8b58f","addSignedPayloadForTrigger((bytes,bytes),uint64)":"61a05047","addSignedPayloadMulti((bytes,bytes)[])":"4db45857","avsDirectory()":"6b3aa72e","createAVSRewardsSubmission(((address,uint96)[],address,uint256,uint32,uint32)[])":"fce36c7d","createOperatorDirectedAVSRewardsSubmission(((address,uint96)[],address,(address,uint256)[],uint32,uint32,string)[])":"a20b99bf","deregisterOperatorFromAVS(address)":"a364f4da","getOperatorRestakedStrategies(address)":"33cfb7b7","getRestakeableStrategies()":"e481af9d","owner()":"8da5cb5b","registerOperatorToAVS(address,(bytes,bytes32,uint256))":"9926ee7d","renounceOwnership()":"715018a6","rewardsInitiator()":"fc299dee","setClaimerFor(address)":"a0169ddd","setRewardsInitiator(address)":"3bc28c8c","signedPayloadByTriggerId(uint64)":"ff82dae0","stakeRegistry()":"68304835","transferOwnership(address)":"f2fde38b","updateAVSMetadataURI(string)":"a98fb355"},"id":0}