{"abi":[{"type":"constructor","inputs":[{"name":"_avsDirectory","type":"address","internalType":"address"},{"name":"_stakeRegistry","type":"address","internalType":"address"},{"name":"_rewardsCoordinator","type":"address","internalType":"address"},{"name":"_delegationManager","type":"address","internalType":"address"}],"stateMutability":"nonpayable"},{"type":"function","name":"addSignedPayloadForTrigger","inputs":[{"name":"signedPayload","type":"tuple","internalType":"struct ILayerServiceManager.SignedPayload","components":[{"name":"payload","type":"tuple","internalType":"struct ILayerServiceManager.Payload","components":[{"name":"triggerId","type":"uint64","internalType":"ILayerTrigger.TriggerId"},{"name":"data","type":"bytes","internalType":"bytes"}]},{"name":"signature","type":"bytes","internalType":"bytes"}]}],"outputs":[],"stateMutability":"nonpayable"},{"type":"function","name":"addSignedPayloadForTriggerMulti","inputs":[{"name":"signedPayloads","type":"tuple[]","internalType":"struct ILayerServiceManager.SignedPayload[]","components":[{"name":"payload","type":"tuple","internalType":"struct ILayerServiceManager.Payload","components":[{"name":"triggerId","type":"uint64","internalType":"ILayerTrigger.TriggerId"},{"name":"data","type":"bytes","internalType":"bytes"}]},{"name":"signature","type":"bytes","internalType":"bytes"}]}],"outputs":[],"stateMutability":"nonpayable"},{"type":"function","name":"avsDirectory","inputs":[],"outputs":[{"name":"","type":"address","internalType":"address"}],"stateMutability":"view"},{"type":"function","name":"createAVSRewardsSubmission","inputs":[{"name":"rewardsSubmissions","type":"tuple[]","internalType":"struct IRewardsCoordinator.RewardsSubmission[]","components":[{"name":"strategiesAndMultipliers","type":"tuple[]","internalType":"struct IRewardsCoordinator.StrategyAndMultiplier[]","components":[{"name":"strategy","type":"address","internalType":"contract IStrategy"},{"name":"multiplier","type":"uint96","internalType":"uint96"}]},{"name":"token","type":"address","internalType":"contract IERC20"},{"name":"amount","type":"uint256","internalType":"uint256"},{"name":"startTimestamp","type":"uint32","internalType":"uint32"},{"name":"duration","type":"uint32","internalType":"uint32"}]}],"outputs":[],"stateMutability":"nonpayable"},{"type":"function","name":"createOperatorDirectedAVSRewardsSubmission","inputs":[{"name":"operatorDirectedRewardsSubmissions","type":"tuple[]","internalType":"struct IRewardsCoordinator.OperatorDirectedRewardsSubmission[]","components":[{"name":"strategiesAndMultipliers","type":"tuple[]","internalType":"struct IRewardsCoordinator.StrategyAndMultiplier[]","components":[{"name":"strategy","type":"address","internalType":"contract IStrategy"},{"name":"multiplier","type":"uint96","internalType":"uint96"}]},{"name":"token","type":"address","internalType":"contract IERC20"},{"name":"operatorRewards","type":"tuple[]","internalType":"struct IRewardsCoordinator.OperatorReward[]","components":[{"name":"operator","type":"address","internalType":"address"},{"name":"amount","type":"uint256","internalType":"uint256"}]},{"name":"startTimestamp","type":"uint32","internalType":"uint32"},{"name":"duration","type":"uint32","internalType":"uint32"},{"name":"description","type":"string","internalType":"string"}]}],"outputs":[],"stateMutability":"nonpayable"},{"type":"function","name":"deregisterOperatorFromAVS","inputs":[{"name":"operator","type":"address","internalType":"address"}],"outputs":[],"stateMutability":"nonpayable"},{"type":"function","name":"getOperatorRestakedStrategies","inputs":[{"name":"_operator","type":"address","internalType":"address"}],"outputs":[{"name":"","type":"address[]","internalType":"address[]"}],"stateMutability":"view"},{"type":"function","name":"getRestakeableStrategies","inputs":[],"outputs":[{"name":"","type":"address[]","internalType":"address[]"}],"stateMutability":"view"},{"type":"function","name":"owner","inputs":[],"outputs":[{"name":"","type":"address","internalType":"address"}],"stateMutability":"view"},{"type":"function","name":"registerOperatorToAVS","inputs":[{"name":"operator","type":"address","internalType":"address"},{"name":"operatorSignature","type":"tuple","internalType":"struct ISignatureUtils.SignatureWithSaltAndExpiry","components":[{"name":"signature","type":"bytes","internalType":"bytes"},{"name":"salt","type":"bytes32","internalType":"bytes32"},{"name":"expiry","type":"uint256","internalType":"uint256"}]}],"outputs":[],"stateMutability":"nonpayable"},{"type":"function","name":"renounceOwnership","inputs":[],"outputs":[],"stateMutability":"nonpayable"},{"type":"function","name":"rewardsInitiator","inputs":[],"outputs":[{"name":"","type":"address","internalType":"address"}],"stateMutability":"view"},{"type":"function","name":"setClaimerFor","inputs":[{"name":"claimer","type":"address","internalType":"address"}],"outputs":[],"stateMutability":"nonpayable"},{"type":"function","name":"setRewardsInitiator","inputs":[{"name":"newRewardsInitiator","type":"address","internalType":"address"}],"outputs":[],"stateMutability":"nonpayable"},{"type":"function","name":"signedDataByTriggerId","inputs":[{"name":"","type":"uint64","internalType":"ILayerTrigger.TriggerId"}],"outputs":[{"name":"data","type":"bytes","internalType":"bytes"},{"name":"signature","type":"bytes","internalType":"bytes"}],"stateMutability":"view"},{"type":"function","name":"stakeRegistry","inputs":[],"outputs":[{"name":"","type":"address","internalType":"address"}],"stateMutability":"view"},{"type":"function","name":"transferOwnership","inputs":[{"name":"newOwner","type":"address","internalType":"address"}],"outputs":[],"stateMutability":"nonpayable"},{"type":"function","name":"updateAVSMetadataURI","inputs":[{"name":"_metadataURI","type":"string","internalType":"string"}],"outputs":[],"stateMutability":"nonpayable"},{"type":"event","name":"AddedSignedPayloadForTrigger","inputs":[{"name":"triggerId","type":"uint64","indexed":true,"internalType":"ILayerTrigger.TriggerId"}],"anonymous":false},{"type":"event","name":"Initialized","inputs":[{"name":"version","type":"uint8","indexed":false,"internalType":"uint8"}],"anonymous":false},{"type":"event","name":"OwnershipTransferred","inputs":[{"name":"previousOwner","type":"address","indexed":true,"internalType":"address"},{"name":"newOwner","type":"address","indexed":true,"internalType":"address"}],"anonymous":false},{"type":"event","name":"RewardsInitiatorUpdated","inputs":[{"name":"prevRewardsInitiator","type":"address","indexed":false,"internalType":"address"},{"name":"newRewardsInitiator","type":"address","indexed":false,"internalType":"address"}],"anonymous":false},{"type":"error","name":"InvalidSignature","inputs":[]}],"bytecode":{"object":"0x6101003461019a57601f61209b38819003918201601f19168301916001600160401b0383118484101761019e5780849260809460405283398101031261019a57610048816101b2565b90610055602082016101b2565b61006d6060610066604085016101b2565b93016101b2565b9260a05260805260c05260e0525f5460ff8160081c166101455760ff8082161061010b575b604051611ed490816101c78239608051818181610543015281816106c701528181610c92015281816110cd01528181611260015261144f015260a051818181610640015281816106f7015281816110f6015261121c015260c05181818161011a015281816107980152610b3b015260e051816115150152f35b60ff90811916175f557f7f26b83ff96e1f2b6a682f133852f6798a09c465da95921460cefb3847402498602060405160ff8152a15f610092565b60405162461bcd60e51b815260206004820152602760248201527f496e697469616c697a61626c653a20636f6e747261637420697320696e697469604482015266616c697a696e6760c81b6064820152608490fd5b5f80fd5b634e487b7160e01b5f52604160045260245ffd5b51906001600160a01b038216820361019a5756fe60806040526004361015610011575f80fd5b5f3560e01c8063276f85f2146116f057806333cfb7b7146114225780633bc28c8c146113a357806351caeaba1461128f578063683048351461124b5780636b3aa72e14611207578063715018a6146111ac5780638da5cb5b146111845780639926ee7d1461101e5780639d1e405314610ba2578063a0169ddd14610b18578063a20b99bf1461075e578063a364f4da146106a8578063a98fb355146105f5578063e481af9d1461051f578063f2fde38b14610458578063fc299dee146104305763fce36c7d146100df575f80fd5b3461025f57602036600319011261025f576004356001600160401b03811161025f5761010f903690600401611901565b90610118611caa565b7f00000000000000000000000000000000000000000000000000000000000000005f5b83811061026357506001600160a01b031690813b1561025f579160405192839163fce36c7d60e01b835280602484016020600486015252604483019060448160051b8501019280925f90609e1983360301905b8483106101c357875f81808a0381838e5af180156101b8576101ac57005b5f6101b6916117b0565b005b6040513d5f823e3d90fd5b91939590929496506043198982030182528635908382121561025f5760208091876001940190608063ffffffff6102498261020f6102018780611dd3565b60a0885260a0880191611e07565b95898060a01b036102218983016118ab565b1688870152604081013560408701528361023d60608301611e6b565b16606087015201611e6b565b169101529801920193019093918896959361018e565b5f80fd5b5f60206102c46001600160a01b0361028683610280878b8b611e7c565b01611da7565b166040610294868a8a611e7c565b6040516323b872dd60e01b8152336004820152306024820152910135604482015293849283919082906064820190565b03925af180156101b857610414575b506001600160a01b036102ec6020610280848888611e7c565b604051636eb1769f60e11b81523060048201526001600160a01b0385166024820152929160209184916044918391165afa9182156101b8575f926103e0575b505f91602090610398906103656001600160a01b0361034f85610280888d8d611e7c565b1691604061035e878c8c611e7c565b0135611d9a565b60405163095ea7b360e01b81526001600160a01b0388166004820152602481019190915294859283919082906044820190565b03925af19182156101b8576001926103b2575b500161013b565b6103d29060203d81116103d9575b6103ca81836117b0565b810190611dbb565b505f6103ab565b503d6103c0565b91506020823d821161040c575b816103fa602093836117b0565b8101031261025f57905190602061032b565b3d91506103ed565b61042b9060203d81116103d9576103ca81836117b0565b6102d3565b3461025f575f36600319011261025f576065546040516001600160a01b039091168152602090f35b3461025f57602036600319011261025f57610471611895565b610479611c52565b6001600160a01b031680156104cb57603380546001600160a01b0319811683179091556001600160a01b03167f8be0079c531659141344cd1fd0a4f28419497f9722a3daafe3b4186f6b6457e05f80a3005b60405162461bcd60e51b815260206004820152602660248201527f4f776e61626c653a206e6577206f776e657220697320746865207a65726f206160448201526564647265737360d01b6064820152608490fd5b3461025f575f36600319011261025f576040516302e0740360e31b81525f816004817f00000000000000000000000000000000000000000000000000000000000000006001600160a01b03165afa9081156101b8575f916105d3575b50610587815151611c20565b905f5b815180518210156105c157600191906001600160a01b03906105ad908390611bfe565b5151166105ba8286611bfe565b520161058a565b604051806105cf86826118bf565b0390f35b6105ef91503d805f833e6105e781836117b0565b810190611afc565b8161057b565b3461025f57602036600319011261025f576004356001600160401b03811161025f573660238201121561025f57610636903690602481600401359101611931565b61063e611c52565b7f00000000000000000000000000000000000000000000000000000000000000006001600160a01b0316803b1561025f5760405163a98fb35560e01b815260206004820152905f9082908183816106986024820189611871565b03925af180156101b8576101ac57005b3461025f57602036600319011261025f576106c1611895565b6106f5337f00000000000000000000000000000000000000000000000000000000000000006001600160a01b031614611a1a565b7f00000000000000000000000000000000000000000000000000000000000000006001600160a01b031690813b1561025f576040516351b27a6d60e11b81526001600160a01b039091166004820152905f908290602490829084905af180156101b8576101ac57005b3461025f57602036600319011261025f576004356001600160401b03811161025f5761078e903690600401611901565b610796611caa565b7f00000000000000000000000000000000000000000000000000000000000000005f5b82811061094357506001600160a01b031690813b1561025f57604051928391634e5cd2fd60e11b835280604484013060048601526040602486015252606483019160648260051b8501019281925f60be1984360301925b82821061082e57875f81808a0381838e5af180156101b8576101ac57005b919395909294965060631989820301825286358581121561025f578601906108676108598380611dd3565b60c0845260c0840191611e07565b916001600160a01b0361087c602083016118ab565b16602083015260206108916040830183611dd3565b848603604086015280865294909101935f5b818110610913575050506109016001936020936108f38463ffffffff6108cc6060899801611e6b565b16606084015263ffffffff6108e360808301611e6b565b16608084015260a081019061198b565b9160a08185039101526119bc565b98019201920188969593919492610810565b909194604080600192838060a01b0361092b8a6118ab565b168152602089810135908201520196019291016108a3565b90915f935f945b610962610958858585611d43565b6040810190611d65565b90508610156109b257610979610958858585611d43565b87101561099e576001916020610996928960061b01013590611d9a565b95019461094a565b634e487b7160e01b5f52603260045260245ffd5b9094509092916001600160a01b036109d0602061028084888a611d43565b6040516323b872dd60e01b81523360048201523060248201526044810185905291602091839160649183915f91165af180156101b857610afc575b506001600160a01b03610a24602061028084888a611d43565b604051636eb1769f60e11b81523060048201526001600160a01b0386166024820152939160209185916044918391165afa9283156101b8575f93610ac7575b505f92602091610a8f91610365906001600160a01b03610a8886610280898d8f611d43565b1692611d9a565b03925af19182156101b857600192610aa9575b50016107b9565b610ac09060203d81116103d9576103ca81836117b0565b5085610aa2565b92506020833d8211610af4575b81610ae1602093836117b0565b8101031261025f57915191610a8f610a63565b3d9150610ad4565b610b139060203d81116103d9576103ca81836117b0565b610a0b565b3461025f57602036600319011261025f57610b31611895565b610b39611c52565b7f00000000000000000000000000000000000000000000000000000000000000006001600160a01b031690813b1561025f5760405163a0169ddd60e01b81526001600160a01b039091166004820152905f908290602490829084905af180156101b8576101ac57005b3461025f57602036600319011261025f576004356001600160401b03811161025f57806004016040600319833603011261025f576024610be28280611976565b604051610c0d81610bff60208201946020865260408301906119dc565b03601f1981018352826117b0565b51902060405160208101917f19457468657265756d205369676e6564204d6573736167653a0a3332000000008352603c820152603c8152610c4f605c826117b0565b5190209201916020610c618484611a9f565b9092610c8e6040519485938493630b135d3f60e11b855260048501526040602485015260448401916119bc565b03817f00000000000000000000000000000000000000000000000000000000000000006001600160a01b03165afa9081156101b8575f91610fdb575b506001600160e01b031916630b135d3f60e11b03610fcc57610d2c610d0c92610d23610d03610cf98580611976565b6020810190611a9f565b95909285611a9f565b91909260405196610d1c88611795565b3691611931565b85523691611931565b602083019081526001600160401b03610d4d610d488480611976565b611ad1565b165f52609760205260405f2092519283516001600160401b038111610f0357610d76825461175d565b601f8111610f87575b506020601f8211600114610f2257819060019495965f92610f17575b50505f19600383901b1c191690831b1781555b0190518051906001600160401b038211610f0357610dcc835461175d565b601f8111610ebe575b50602090601f8311600114610e4b579282610d48936001600160401b039693610e19965f92610e40575b50508160011b915f199060031b1c19161790555b80611976565b167f41b42d39b4c7441eedf9cb7c1a70d2f7771846ab84d9f245ec091d4dfa14855b5f80a2005b015190508780610dff565b90601f19831691845f52815f20925f5b818110610ea65750936001600160401b039693610e19969360019383610d489810610e8e575b505050811b019055610e13565b01515f1960f88460031b161c19169055878080610e81565b92936020600181928786015181550195019301610e5b565b835f5260205f20601f840160051c81019160208510610ef9575b601f0160051c01905b818110610eee5750610dd5565b5f8155600101610ee1565b9091508190610ed8565b634e487b7160e01b5f52604160045260245ffd5b015190508680610d9b565b601f19821695835f52815f20965f5b818110610f6f5750916001959697918487959410610f57575b505050811b018155610dae565b01515f1960f88460031b161c19169055868080610f4a565b83830151895560019098019760209384019301610f31565b825f5260205f20601f830160051c81019160208410610fc2575b601f0160051c01905b818110610fb75750610d7f565b5f8155600101610faa565b9091508190610fa1565b638baa579f60e01b5f5260045ffd5b90506020813d602011611016575b81610ff6602093836117b0565b8101031261025f57516001600160e01b03198116810361025f5783610cca565b3d9150610fe9565b3461025f57604036600319011261025f57611037611895565b602435906001600160401b03821161025f576060600319833603011261025f5760405190606082018281106001600160401b03821117610f035760405282600401356001600160401b03811161025f5783013660238201121561025f576110a8903690602460048201359101611931565b825260208201916024840135835260446040820194013584526110f460018060a01b037f0000000000000000000000000000000000000000000000000000000000000000163314611a1a565b7f00000000000000000000000000000000000000000000000000000000000000006001600160a01b031690813b1561025f575f61116793819560405197889687958694639926ee7d60e01b865260018060a01b0316600486015260406024860152516060604486015260a4850190611871565b9151606484015251608483015203925af180156101b8576101ac57005b3461025f575f36600319011261025f576033546040516001600160a01b039091168152602090f35b3461025f575f36600319011261025f576111c4611c52565b603380546001600160a01b031981169091555f906001600160a01b03167f8be0079c531659141344cd1fd0a4f28419497f9722a3daafe3b4186f6b6457e08280a3005b3461025f575f36600319011261025f576040517f00000000000000000000000000000000000000000000000000000000000000006001600160a01b03168152602090f35b3461025f575f36600319011261025f576040517f00000000000000000000000000000000000000000000000000000000000000006001600160a01b03168152602090f35b3461025f57602036600319011261025f576004356001600160401b03811161025f576112bf903690600401611901565b905f5b8263ffffffff821610156101b6576112e6641fffffffe08260051b16830183611976565b90303b1561025f57604051639d1e405360e01b81526020600482015291803536829003603e190181121561025f57836113525f93611340611335849560406024870152836064870191016119dc565b91602081019061198b565b848303602319016044860152906119bc565b038183305af19182156101b85763ffffffff92611393575b501663ffffffff811461137f576001016112c2565b634e487b7160e01b5f52601160045260245ffd5b5f61139d916117b0565b8461136a565b3461025f57602036600319011261025f576113bc611895565b6113c4611c52565b606554604080516001600160a01b038084168252841660208201529192917fe11cddf1816a43318ca175bbc52cd0185436e9cbead7c83acc54a73e461717e39190a16001600160a01b03166001600160a01b03199190911617606555005b3461025f57602036600319011261025f5761143b611895565b6040516302e0740360e31b81525f816004817f00000000000000000000000000000000000000000000000000000000000000006001600160a01b03165afa9081156101b8575f916116d6575b50908151519061149682611ae5565b906114a460405192836117b0565b8282526114b083611ae5565b602083019490601f19013686375f5b8481106116a857505060408051639004134760e01b81526001600160a01b0390921660048301526024820152815160448201819052909384916064830191905f5b81811061168657505f939283900391508290507f00000000000000000000000000000000000000000000000000000000000000006001600160a01b03165afa9283156101b8575f936115f4575b505f805b8381106115c8575061156290611c20565b925f905f5b84811061157c57604051806105cf88826118bf565b6115868183611bfe565b51611594575b600101611567565b916001906115c0906001600160a01b036115ae8688611bfe565b51166115ba828a611bfe565b52611c12565b92905061158c565b6115d28186611bfe565b516115e0575b600101611551565b906115ec600191611c12565b9190506115d8565b9092503d805f833e61160681836117b0565b81019060208183031261025f578051906001600160401b03821161025f57019080601f8301121561025f57815161163c81611ae5565b9261164a60405194856117b0565b81845260208085019260051b82010192831161025f57602001905b82821061167657505050918361154d565b8151815260209182019101611665565b82516001600160a01b0316845287945060209384019390920191600101611500565b600190818060a09895981b036116bf828551611bfe565b5151166116cc8287611bfe565b52019491946114bf565b6116ea91503d805f833e6105e781836117b0565b82611487565b3461025f57602036600319011261025f576004356001600160401b03811680910361025f575f52609760205261174f60405f206105cf61173b6001611734846117d1565b93016117d1565b604051938493604085526040850190611871565b908382036020850152611871565b90600182811c9216801561178b575b602083101461177757565b634e487b7160e01b5f52602260045260245ffd5b91607f169161176c565b604081019081106001600160401b03821117610f0357604052565b90601f801991011681019081106001600160401b03821117610f0357604052565b9060405191825f8254926117e48461175d565b808452936001811690811561184f575060011461180b575b50611809925003836117b0565b565b90505f9291925260205f20905f915b818310611833575050906020611809928201015f6117fc565b602091935080600191548385890101520191019091849261181a565b90506020925061180994915060ff191682840152151560051b8201015f6117fc565b805180835260209291819084018484015e5f828201840152601f01601f1916010190565b600435906001600160a01b038216820361025f57565b35906001600160a01b038216820361025f57565b60206040818301928281528451809452019201905f5b8181106118e25750505090565b82516001600160a01b03168452602093840193909201916001016118d5565b9181601f8401121561025f578235916001600160401b03831161025f576020808501948460051b01011161025f57565b9291926001600160401b038211610f03576040519161195a601f8201601f1916602001846117b0565b82948184528183011161025f578281602093845f960137010152565b903590603e198136030182121561025f570190565b9035601e198236030181121561025f5701602081359101916001600160401b03821161025f57813603831361025f57565b908060209392818452848401375f828201840152601f01601f1916010190565b908135916001600160401b03831680930361025f57611a07604091611a17948452602081019061198b565b91909281602082015201916119bc565b90565b15611a2157565b60405162461bcd60e51b815260206004820152604a60248201527f4543445341536572766963654d616e61676572426173652e6f6e6c795374616b60448201527f6552656769737472793a2063616c6c6572206973206e6f7420746865207374616064820152696b65526567697374727960b01b608482015260a490fd5b903590601e198136030182121561025f57018035906001600160401b03821161025f5760200191813603831361025f57565b356001600160401b038116810361025f5790565b6001600160401b038111610f035760051b60200190565b60208183031261025f578051906001600160401b03821161025f57019060208282031261025f5760405191602083018381106001600160401b03821117610f03576040528051906001600160401b03821161025f570181601f8201121561025f57805190611b6982611ae5565b92611b7760405194856117b0565b82845260208085019360061b8301019181831161025f57602001925b828410611ba35750505050815290565b60408483031261025f5760405190611bba82611795565b84516001600160a01b038116810361025f5782526020850151906bffffffffffffffffffffffff8216820361025f5782602092836040950152815201930192611b93565b805182101561099e5760209160051b010190565b5f19811461137f5760010190565b90611c2a82611ae5565b611c3760405191826117b0565b8281528092611c48601f1991611ae5565b0190602036910137565b6033546001600160a01b03163303611c6657565b606460405162461bcd60e51b815260206004820152602060248201527f4f776e61626c653a2063616c6c6572206973206e6f7420746865206f776e65726044820152fd5b6065546001600160a01b03163303611cbe57565b60405162461bcd60e51b815260206004820152605160248201527f4543445341536572766963654d616e61676572426173652e6f6e6c795265776160448201527f726473496e69746961746f723a2063616c6c6572206973206e6f7420746865206064820152703932bbb0b932399034b734ba34b0ba37b960791b608482015260a490fd5b919081101561099e5760051b8101359060be198136030182121561025f570190565b903590601e198136030182121561025f57018035906001600160401b03821161025f57602001918160061b3603831361025f57565b9190820180921161137f57565b356001600160a01b038116810361025f5790565b9081602091031261025f5751801515810361025f5790565b9035601e198236030181121561025f5701602081359101916001600160401b03821161025f578160061b3603831361025f57565b916020908281520191905f905b808210611e215750505090565b909192833560018060a01b03811680910361025f5781526020840135906bffffffffffffffffffffffff821680920361025f57604081600193602083940152019401920190611e14565b359063ffffffff8216820361025f57565b919081101561099e5760051b81013590609e198136030182121561025f57019056fea26469706673582212202dd4dc44f9a658d217c5b5ffb4988e07e0719bdea98711519aaa706b9c1fca6564736f6c634300081a0033","linkReferences":{}},"methodIdentifiers":{"addSignedPayloadForTrigger(((uint64,bytes),bytes))":"9d1e4053","addSignedPayloadForTriggerMulti(((uint64,bytes),bytes)[])":"51caeaba","avsDirectory()":"6b3aa72e","createAVSRewardsSubmission(((address,uint96)[],address,uint256,uint32,uint32)[])":"fce36c7d","createOperatorDirectedAVSRewardsSubmission(((address,uint96)[],address,(address,uint256)[],uint32,uint32,string)[])":"a20b99bf","deregisterOperatorFromAVS(address)":"a364f4da","getOperatorRestakedStrategies(address)":"33cfb7b7","getRestakeableStrategies()":"e481af9d","owner()":"8da5cb5b","registerOperatorToAVS(address,(bytes,bytes32,uint256))":"9926ee7d","renounceOwnership()":"715018a6","rewardsInitiator()":"fc299dee","setClaimerFor(address)":"a0169ddd","setRewardsInitiator(address)":"3bc28c8c","signedDataByTriggerId(uint64)":"276f85f2","stakeRegistry()":"68304835","transferOwnership(address)":"f2fde38b","updateAVSMetadataURI(string)":"a98fb355"},"id":0}