{"abi":[{"type":"constructor","inputs":[{"name":"_avsDirectory","type":"address","internalType":"address"},{"name":"_stakeRegistry","type":"address","internalType":"address"},{"name":"_rewardsCoordinator","type":"address","internalType":"address"},{"name":"_delegationManager","type":"address","internalType":"address"}],"stateMutability":"nonpayable"},{"type":"function","name":"addSignedPayloadForTrigger","inputs":[{"name":"signedPayload","type":"tuple","internalType":"struct ILayerServiceManager.SignedPayload","components":[{"name":"payload","type":"tuple","internalType":"struct ILayerServiceManager.Payload","components":[{"name":"triggerId","type":"uint64","internalType":"ILayerTrigger.TriggerId"},{"name":"data","type":"bytes","internalType":"bytes"}]},{"name":"signature","type":"bytes","internalType":"bytes"}]}],"outputs":[],"stateMutability":"nonpayable"},{"type":"function","name":"addSignedPayloadForTriggerMulti","inputs":[{"name":"signedPayloads","type":"tuple[]","internalType":"struct ILayerServiceManager.SignedPayload[]","components":[{"name":"payload","type":"tuple","internalType":"struct ILayerServiceManager.Payload","components":[{"name":"triggerId","type":"uint64","internalType":"ILayerTrigger.TriggerId"},{"name":"data","type":"bytes","internalType":"bytes"}]},{"name":"signature","type":"bytes","internalType":"bytes"}]}],"outputs":[],"stateMutability":"nonpayable"},{"type":"function","name":"avsDirectory","inputs":[],"outputs":[{"name":"","type":"address","internalType":"address"}],"stateMutability":"view"},{"type":"function","name":"createAVSRewardsSubmission","inputs":[{"name":"rewardsSubmissions","type":"tuple[]","internalType":"struct IRewardsCoordinator.RewardsSubmission[]","components":[{"name":"strategiesAndMultipliers","type":"tuple[]","internalType":"struct IRewardsCoordinator.StrategyAndMultiplier[]","components":[{"name":"strategy","type":"address","internalType":"contract IStrategy"},{"name":"multiplier","type":"uint96","internalType":"uint96"}]},{"name":"token","type":"address","internalType":"contract IERC20"},{"name":"amount","type":"uint256","internalType":"uint256"},{"name":"startTimestamp","type":"uint32","internalType":"uint32"},{"name":"duration","type":"uint32","internalType":"uint32"}]}],"outputs":[],"stateMutability":"nonpayable"},{"type":"function","name":"createOperatorDirectedAVSRewardsSubmission","inputs":[{"name":"operatorDirectedRewardsSubmissions","type":"tuple[]","internalType":"struct IRewardsCoordinator.OperatorDirectedRewardsSubmission[]","components":[{"name":"strategiesAndMultipliers","type":"tuple[]","internalType":"struct IRewardsCoordinator.StrategyAndMultiplier[]","components":[{"name":"strategy","type":"address","internalType":"contract IStrategy"},{"name":"multiplier","type":"uint96","internalType":"uint96"}]},{"name":"token","type":"address","internalType":"contract IERC20"},{"name":"operatorRewards","type":"tuple[]","internalType":"struct IRewardsCoordinator.OperatorReward[]","components":[{"name":"operator","type":"address","internalType":"address"},{"name":"amount","type":"uint256","internalType":"uint256"}]},{"name":"startTimestamp","type":"uint32","internalType":"uint32"},{"name":"duration","type":"uint32","internalType":"uint32"},{"name":"description","type":"string","internalType":"string"}]}],"outputs":[],"stateMutability":"nonpayable"},{"type":"function","name":"deregisterOperatorFromAVS","inputs":[{"name":"operator","type":"address","internalType":"address"}],"outputs":[],"stateMutability":"nonpayable"},{"type":"function","name":"getOperatorRestakedStrategies","inputs":[{"name":"_operator","type":"address","internalType":"address"}],"outputs":[{"name":"","type":"address[]","internalType":"address[]"}],"stateMutability":"view"},{"type":"function","name":"getRestakeableStrategies","inputs":[],"outputs":[{"name":"","type":"address[]","internalType":"address[]"}],"stateMutability":"view"},{"type":"function","name":"initialize","inputs":[{"name":"_layerTrigger","type":"address","internalType":"address"}],"outputs":[],"stateMutability":"nonpayable"},{"type":"function","name":"layerTrigger","inputs":[],"outputs":[{"name":"","type":"address","internalType":"contract ILayerTrigger"}],"stateMutability":"view"},{"type":"function","name":"onERC721Received","inputs":[{"name":"","type":"address","internalType":"address"},{"name":"","type":"address","internalType":"address"},{"name":"","type":"uint256","internalType":"uint256"},{"name":"","type":"bytes","internalType":"bytes"}],"outputs":[{"name":"","type":"bytes4","internalType":"bytes4"}],"stateMutability":"nonpayable"},{"type":"function","name":"owner","inputs":[],"outputs":[{"name":"","type":"address","internalType":"address"}],"stateMutability":"view"},{"type":"function","name":"registerOperatorToAVS","inputs":[{"name":"operator","type":"address","internalType":"address"},{"name":"operatorSignature","type":"tuple","internalType":"struct ISignatureUtils.SignatureWithSaltAndExpiry","components":[{"name":"signature","type":"bytes","internalType":"bytes"},{"name":"salt","type":"bytes32","internalType":"bytes32"},{"name":"expiry","type":"uint256","internalType":"uint256"}]}],"outputs":[],"stateMutability":"nonpayable"},{"type":"function","name":"renounceOwnership","inputs":[],"outputs":[],"stateMutability":"nonpayable"},{"type":"function","name":"rewardsInitiator","inputs":[],"outputs":[{"name":"","type":"address","internalType":"address"}],"stateMutability":"view"},{"type":"function","name":"setClaimerFor","inputs":[{"name":"claimer","type":"address","internalType":"address"}],"outputs":[],"stateMutability":"nonpayable"},{"type":"function","name":"setRewardsInitiator","inputs":[{"name":"newRewardsInitiator","type":"address","internalType":"address"}],"outputs":[],"stateMutability":"nonpayable"},{"type":"function","name":"signedDataByTriggerId","inputs":[{"name":"","type":"uint64","internalType":"ILayerTrigger.TriggerId"}],"outputs":[{"name":"data","type":"bytes","internalType":"bytes"},{"name":"signature","type":"bytes","internalType":"bytes"}],"stateMutability":"view"},{"type":"function","name":"stakeRegistry","inputs":[],"outputs":[{"name":"","type":"address","internalType":"address"}],"stateMutability":"view"},{"type":"function","name":"transferOwnership","inputs":[{"name":"newOwner","type":"address","internalType":"address"}],"outputs":[],"stateMutability":"nonpayable"},{"type":"function","name":"updateAVSMetadataURI","inputs":[{"name":"_metadataURI","type":"string","internalType":"string"}],"outputs":[],"stateMutability":"nonpayable"},{"type":"event","name":"AddedSignedPayloadForTrigger","inputs":[{"name":"triggerId","type":"uint64","indexed":true,"internalType":"ILayerTrigger.TriggerId"}],"anonymous":false},{"type":"event","name":"DebugBytes32","inputs":[{"name":"message","type":"string","indexed":false,"internalType":"string"},{"name":"data","type":"bytes32","indexed":false,"internalType":"bytes32"}],"anonymous":false},{"type":"event","name":"DebugString","inputs":[{"name":"message","type":"string","indexed":false,"internalType":"string"},{"name":"data","type":"string","indexed":false,"internalType":"string"}],"anonymous":false},{"type":"event","name":"Initialized","inputs":[{"name":"version","type":"uint8","indexed":false,"internalType":"uint8"}],"anonymous":false},{"type":"event","name":"OwnershipTransferred","inputs":[{"name":"previousOwner","type":"address","indexed":true,"internalType":"address"},{"name":"newOwner","type":"address","indexed":true,"internalType":"address"}],"anonymous":false},{"type":"event","name":"RewardsInitiatorUpdated","inputs":[{"name":"prevRewardsInitiator","type":"address","indexed":false,"internalType":"address"},{"name":"newRewardsInitiator","type":"address","indexed":false,"internalType":"address"}],"anonymous":false},{"type":"error","name":"InvalidSignature","inputs":[{"name":"messageHash","type":"bytes32","internalType":"bytes32"},{"name":"signature","type":"bytes","internalType":"bytes"}]},{"type":"error","name":"MintingFailed","inputs":[{"name":"creator","type":"address","internalType":"address"},{"name":"uri","type":"string","internalType":"string"}]},{"type":"error","name":"TriggerNotFound","inputs":[{"name":"triggerId","type":"uint64","internalType":"ILayerTrigger.TriggerId"}]}],"bytecode":{"object":"0x6101003461019c57601f61288d38819003918201601f19168301916001600160401b038311848410176101a15780849260809460405283398101031261019c57610048816101b7565b90610055602082016101b7565b61006d6060610066604085016101b7565b93016101b7565b9260a05260805260c05260e05260005460ff8160081c166101475760ff8082161061010c575b6040516126c190816101cc82396080518181816105750152818161083401528181610dfe0152818161168f015281816118280152611a35015260a0518181816107ac01528181610864015281816116b801526117e3015260c05181818161013e015281816109060152610cb2015260e05181611aff0152f35b60ff90811916176000557f7f26b83ff96e1f2b6a682f133852f6798a09c465da95921460cefb3847402498602060405160ff8152a138610093565b60405162461bcd60e51b815260206004820152602760248201527f496e697469616c697a61626c653a20636f6e747261637420697320696e697469604482015266616c697a696e6760c81b6064820152608490fd5b600080fd5b634e487b7160e01b600052604160045260246000fd5b51906001600160a01b038216820361019c5756fe6080604052600436101561001257600080fd5b60003560e01c8063150b7a0214611d78578063276f85f214611d0957806330d583da14611ce057806333cfb7b714611a075780633bc28c8c1461198857806351caeaba1461185757806368304835146118125780636b3aa72e146117cd578063715018a6146117705780638da5cb5b146117475780639926ee7d146115f15780639d1e405314610d1a578063a0169ddd14610c8f578063a20b99bf146108cc578063a364f4da14610815578063a98fb35514610761578063c4d66de81461062a578063e481af9d1461054f578063f2fde38b14610487578063fc299dee1461045e5763fce36c7d1461010357600080fd5b34610288576020366003190112610288576004356001600160401b03811161028857610133903690600401612022565b9061013c61247b565b7f000000000000000000000000000000000000000000000000000000000000000060005b83811061028d57506001600160a01b031690813b15610288579160405192839163fce36c7d60e01b835280602484016020600486015252604483019060448160051b850101928092600090609e1983360301905b8483106101ec5787600081808a0381838e5af180156101e0576101d357005b60006101de91611e28565b005b6040513d6000823e3d90fd5b9193959092949650604319898203018252863590838212156102885760208091876001940190608063ffffffff6102728261023861022a87806125a4565b60a0885260a08801916125d8565b95898060a01b0361024a898301611df9565b1688870152604081013560408701528361026660608301612638565b16606087015201612638565b16910152980192019301909391889695936101b4565b600080fd5b600060206102ef6001600160a01b036102b1836102ab878b8b612649565b01612578565b1660406102bf868a8a612649565b6040516323b872dd60e01b8152336004820152306024820152910135604482015293849283919082906064820190565b03925af180156101e057610442575b506001600160a01b0361031760206102ab848888612649565b604051636eb1769f60e11b81523060048201526001600160a01b03851660248201529160209183916044918391165afa9081156101e05760009161040d575b50600091906020906103c5906103926001600160a01b0361037c856102ab888d8d612649565b1691604061038b878c8c612649565b013561256b565b60405163095ea7b360e01b81526001600160a01b0388166004820152602481019190915294859283919082906044820190565b03925af19182156101e0576001926103df575b5001610160565b6103ff9060203d8111610406575b6103f78183611e28565b81019061258c565b50386103d8565b503d6103ed565b906020823d821161043a575b8161042660209383611e28565b810103126104375750516020610356565b80fd5b3d9150610419565b6104599060203d8111610406576103f78183611e28565b6102fe565b34610288576000366003190112610288576065546040516001600160a01b039091168152602090f35b34610288576020366003190112610288576104a0611dcd565b6104a8612423565b6001600160a01b031680156104fb57603380546001600160a01b0319811683179091556001600160a01b03167f8be0079c531659141344cd1fd0a4f28419497f9722a3daafe3b4186f6b6457e0600080a3005b60405162461bcd60e51b815260206004820152602660248201527f4f776e61626c653a206e6577206f776e657220697320746865207a65726f206160448201526564647265737360d01b6064820152608490fd5b34610288576000366003190112610288576040516302e0740360e31b81526000816004817f00000000000000000000000000000000000000000000000000000000000000006001600160a01b03165afa9081156101e057600091610607575b506105ba8151516123f1565b9060005b815180518210156105f557600191906001600160a01b03906105e19083906123ce565b5151166105ee82866123ce565b52016105be565b604051806106038682611fdf565b0390f35b61062491503d806000833e61061c8183611e28565b8101906122d1565b816105ae565b3461028857602036600319011261028857610643611dcd565b6000549060ff8260081c161591828093610754575b801561073d575b156106e15760ff198116600117600055826106cf575b5060018060a01b03166001600160601b0360a01b609854161760985561069757005b61ff0019600054166000557f7f26b83ff96e1f2b6a682f133852f6798a09c465da95921460cefb3847402498602060405160018152a1005b61ffff19166101011760005582610675565b60405162461bcd60e51b815260206004820152602e60248201527f496e697469616c697a61626c653a20636f6e747261637420697320616c72656160448201526d191e481a5b9a5d1a585b1a5e995960921b6064820152608490fd5b50303b15801561065f5750600160ff82161461065f565b50600160ff821610610658565b34610288576020366003190112610288576004356001600160401b0381116102885736602382011215610288576107a2903690602481600401359101611e64565b6107aa612423565b7f00000000000000000000000000000000000000000000000000000000000000006001600160a01b0316803b156102885760405163a98fb35560e01b8152602060048201529060009082908183816108056024820189611fba565b03925af180156101e0576101d357005b346102885760203660031901126102885761082e611dcd565b610862337f00000000000000000000000000000000000000000000000000000000000000006001600160a01b0316146120f4565b7f00000000000000000000000000000000000000000000000000000000000000006001600160a01b031690813b15610288576040516351b27a6d60e11b81526001600160a01b039091166004820152906000908290602490829084905af180156101e0576101d357005b34610288576020366003190112610288576004356001600160401b038111610288576108fc903690600401612022565b61090461247b565b7f000000000000000000000000000000000000000000000000000000000000000060005b828110610ab557506001600160a01b031690813b1561028857604051928391634e5cd2fd60e11b835280604484013060048601526040602486015252606483019160648260051b850101928192600060be1984360301925b82821061099f5787600081808a0381838e5af180156101e0576101d357005b9193959092949650606319898203018252863585811215610288578601906109d86109ca83806125a4565b60c0845260c08401916125d8565b916001600160a01b036109ed60208301611df9565b1660208301526020610a0260408301836125a4565b8486036040860152808652949091019360005b818110610a8557505050610a73600193602093610a658463ffffffff610a3e6060899801612638565b16606084015263ffffffff610a5560808301612638565b16608084015260a0810190612067565b9160a0818503910152612098565b98019201920188969593919492610980565b909194604080600192838060a01b03610a9d8a611df9565b16815260208981013590820152019601929101610a15565b9091600093845b610ad4610aca858585612514565b6040810190612536565b9050861015610b2657610aeb610aca858585612514565b871015610b10576001916020610b08928960061b0101359061256b565b950194610abc565b634e487b7160e01b600052603260045260246000fd5b909450909291906001600160a01b03610b4560206102ab85888a612514565b6040516323b872dd60e01b8152336004820152306024820152604481018490529160209183916064918391600091165af180156101e057610c73575b506001600160a01b03610b9a60206102ab85888a612514565b604051636eb1769f60e11b81523060048201526001600160a01b03861660248201529160209183916044918391165afa9081156101e057600091610c40575b5060009291602091610c089190610392906001600160a01b03610c01866102ab898d8f612514565b169261256b565b03925af19182156101e057600192610c22575b5001610928565b610c399060203d8111610406576103f78183611e28565b5085610c1b565b906020823d8211610c6b575b81610c5960209383611e28565b81010312610437575051610c08610bd9565b3d9150610c4c565b610c8a9060203d8111610406576103f78183611e28565b610b81565b3461028857602036600319011261028857610ca8611dcd565b610cb0612423565b7f00000000000000000000000000000000000000000000000000000000000000006001600160a01b031690813b156102885760405163a0169ddd60e01b81526001600160a01b039091166004820152906000908290602490829084905af180156101e0576101d357005b34610288576020366003190112610288576004356001600160401b03811161028857806004019060406003198236030112610288576024610d5b8380612052565b604051610d8681610d7860208201946020865260408301906120b9565b03601f198101835282611e28565b51902060405160208101917f19457468657265756d205369676e6564204d6573736167653a0a3332000000008352603c820152603c8152610dc8605c82611e28565b519020910190610dfa6020610ddd8486612179565b604051630b135d3f60e11b815293849283929087600485016121ab565b03817f00000000000000000000000000000000000000000000000000000000000000006001600160a01b03165afa9081156101e0576000916115aa575b506001600160e01b031916630b135d3f60e11b0361158157506098546001600160a01b031690610e6f610e6a8480612052565b6121c2565b6001600160401b036040519163e328ed7760e01b8352166004820152600081602481865afa9081156101e057600091611459575b5060600180519092906001600160a01b03161561142f57906020939160008051602061266c83398151915260a060405160408152601e60408201527f466f756e6420747269676765722c20617474656d7074696e67206d696e740000606082015260808882015260006080820152a1610f4f610f2b610f228580612052565b87810190612179565b9690876040519889928484013781016000838201520301601f198101875286611e28565b83516001600160a01b031690803b156102885785600091610f879383604051809681958294636902622f60e11b845260048401612225565b03925af1908161141e575b506110d8575050600060033d116110c6575b6308c379a01461102e575b60008051602061266c83398151915260a060405160408152601d60408201527f4d696e74696e67206661696c656420776974686f757420726561736f6e00000060608201526080602082015260006080820152a15160405162c1c0b960e51b815291829161102a91906001600160a01b031660048401612225565b0390fd5b611036612247565b806110415750610faf565b61109c60008051602061266c8339815191529160405191829160408352601a60408401527f4d696e74696e67206661696c6564207769746820726561736f6e0000000000006060840152608060208401526080830190611fba565b0390a15160405162c1c0b960e51b815291829161102a91906001600160a01b031660048401612225565b5060046000803e60005160e01c610fa4565b9061116c61114c9260008051602061266c83398151915260a0604051604081526012604082015271135a5b9d1a5b99c81cdd58d8d95cdcd99d5b60721b60608201526080602082015260006080820152a16111636111436111398580612052565b6020810190612179565b95909285612179565b9190926040519661115c88611e0d565b3691611e64565b85523691611e64565b602083019081526001600160401b03611188610e6a8480612052565b166000526097602052604060002092519283516001600160401b03811161134c576111b38254611eb9565b601f81116113d6575b506020601f821160011461136d5781906001949596600092611362575b5050600019600383901b1c191690831b1781555b0190518051906001600160401b03821161134c5761120b8354611eb9565b601f8111611304575b50602090601f831160011461128d579282610e6a936001600160401b03969361125a96600092611282575b50508160011b916000199060031b1c19161790555b80612052565b167f41b42d39b4c7441eedf9cb7c1a70d2f7771846ab84d9f245ec091d4dfa14855b600080a2005b01519050878061123f565b90601f1983169184600052816000209260005b8181106112ec5750936001600160401b03969361125a969360019383610e6a98106112d3575b505050811b019055611254565b015160001960f88460031b161c191690558780806112c6565b929360206001819287860151815501950193016112a0565b836000526020600020601f840160051c81019160208510611342575b601f0160051c01905b8181106113365750611214565b60008155600101611329565b9091508190611320565b634e487b7160e01b600052604160045260246000fd5b0151905086806111d9565b601f1982169583600052816000209660005b8181106113be57509160019596979184879594106113a5575b505050811b0181556111ed565b015160001960f88460031b161c19169055868080611398565b8383015189556001909801976020938401930161137f565b826000526020600020601f830160051c81019160208410611414575b601f0160051c01905b81811061140857506111bc565b600081556001016113fb565b90915081906113f2565b600061142991611e28565b85610f92565b6001600160401b03611444610e6a8680612052565b63534c53af60e01b6000521660045260246000fd5b3d8083833e6114688183611e28565b810190602081830312611565578051906001600160401b03821161157d57019160a083830312610437576040519260a084018481106001600160401b038211176115695760405280516001600160401b038116810361156557845260208101516001600160401b03811161156557836114e291830161220b565b602085015260408101516001600160401b038111611565578361150691830161220b565b604085015260608101516001600160a01b03811681036115655760608501526080810151906001600160401b03821161156557019082601f8301121561043757506060929181602061155a935191016121d6565b608082015290610ea3565b8280fd5b634e487b7160e01b83526041600452602483fd5b8380fd5b61158e61102a9284612179565b604051638f4a234f60e01b8152938493909290600485016121ab565b6020813d6020116115e9575b816115c360209383611e28565b810103126115e55751906001600160e01b031982168203610437575084610e37565b5080fd5b3d91506115b6565b346102885760403660031901126102885761160a611dcd565b602435906001600160401b03821161028857606060031983360301126102885760405190606082018281106001600160401b0382111761134c5760405282600401356001600160401b0381116102885761166a9060043691860101611e9b565b825260208201916024840135835260446040820194013584526116b660018060a01b037f00000000000000000000000000000000000000000000000000000000000000001633146120f4565b7f00000000000000000000000000000000000000000000000000000000000000006001600160a01b031690813b1561028857600061172a93819560405197889687958694639926ee7d60e01b865260018060a01b0316600486015260406024860152516060604486015260a4850190611fba565b9151606484015251608483015203925af180156101e0576101d357005b34610288576000366003190112610288576033546040516001600160a01b039091168152602090f35b3461028857600036600319011261028857611789612423565b603380546001600160a01b031981169091556000906001600160a01b03167f8be0079c531659141344cd1fd0a4f28419497f9722a3daafe3b4186f6b6457e08280a3005b34610288576000366003190112610288576040517f00000000000000000000000000000000000000000000000000000000000000006001600160a01b03168152602090f35b34610288576000366003190112610288576040517f00000000000000000000000000000000000000000000000000000000000000006001600160a01b03168152602090f35b34610288576020366003190112610288576004356001600160401b03811161028857611887903690600401612022565b906000915b8063ffffffff841610156101de576000926118b3641fffffffe08260051b16840184612052565b303b1561198457604051639d1e405360e01b81526020600482015290859080359036819003603e19018212156115655761192184929161190f611904859460406024870152836064870191016120b9565b916020810190612067565b84830360231901604486015290612098565b038183305af18015611979579463ffffffff939495611969575b50501663ffffffff811461195357600101919061188c565b634e487b7160e01b600052601160045260246000fd5b61197291611e28565b848061193b565b6040513d87823e3d90fd5b8480fd5b34610288576020366003190112610288576119a1611dcd565b6119a9612423565b606554604080516001600160a01b038084168252841660208201529192917fe11cddf1816a43318ca175bbc52cd0185436e9cbead7c83acc54a73e461717e39190a16001600160a01b03166001600160a01b03199190911617606555005b3461028857602036600319011261028857611a20611dcd565b6040516302e0740360e31b81526000816004817f00000000000000000000000000000000000000000000000000000000000000006001600160a01b03165afa9081156101e057600091611cc5575b509081515190611a7d826122ba565b90611a8b6040519283611e28565b828252611a97836122ba565b602083019490601f190136863760005b848110611c9757505060408051639004134760e01b81526001600160a01b03909216600483015260248201528151604482018190529093849160648301919060005b818110611c7557506000939283900391508290507f00000000000000000000000000000000000000000000000000000000000000006001600160a01b03165afa9283156101e057600093611be2575b506000805b838110611bb65750611b4e906123f1565b9260009060005b848110611b6a57604051806106038882611fdf565b611b7481836123ce565b51611b82575b600101611b55565b91600190611bae906001600160a01b03611b9c86886123ce565b5116611ba8828a6123ce565b526123e2565b929050611b7a565b611bc081866123ce565b51611bce575b600101611b3d565b90611bda6001916123e2565b919050611bc6565b9290923d8083833e611bf48183611e28565b810190602081830312611565578051906001600160401b03821161157d570181601f8201121561156557805190611c2a826122ba565b93611c386040519586611e28565b82855260208086019360051b8301019384116104375750602001905b828210611c65575050509183611b38565b8151815260209182019101611c54565b82516001600160a01b0316845287945060209384019390920191600101611ae9565b600190818060a09895981b03611cae8285516123ce565b515116611cbb82876123ce565b5201949194611aa7565b611cda91503d806000833e61061c8183611e28565b82611a6e565b34610288576000366003190112610288576098546040516001600160a01b039091168152602090f35b34610288576020366003190112610288576004356001600160401b038116809103610288576000526097602052611d6a6040600020610603611d566001611d4f84611ef3565b9301611ef3565b604051938493604085526040850190611fba565b908382036020850152611fba565b3461028857608036600319011261028857611d91611dcd565b50611d9a611de3565b506064356001600160401b03811161028857611dba903690600401611e9b565b50604051630a85bd0160e11b8152602090f35b600435906001600160a01b038216820361028857565b602435906001600160a01b038216820361028857565b35906001600160a01b038216820361028857565b604081019081106001600160401b0382111761134c57604052565b90601f801991011681019081106001600160401b0382111761134c57604052565b6001600160401b03811161134c57601f01601f191660200190565b929192611e7082611e49565b91611e7e6040519384611e28565b829481845281830111610288578281602093846000960137010152565b9080601f8301121561028857816020611eb693359101611e64565b90565b90600182811c92168015611ee9575b6020831014611ed357565b634e487b7160e01b600052602260045260246000fd5b91607f1691611ec8565b9060405191826000825492611f0784611eb9565b8084529360018116908115611f755750600114611f2e575b50611f2c92500383611e28565b565b90506000929192526020600020906000915b818310611f59575050906020611f2c9282010138611f1f565b6020919350806001915483858901015201910190918492611f40565b905060209250611f2c94915060ff191682840152151560051b82010138611f1f565b60005b838110611faa5750506000910152565b8181015183820152602001611f9a565b90602091611fd381518092818552858086019101611f97565b601f01601f1916010190565b602060408183019282815284518094520192019060005b8181106120035750505090565b82516001600160a01b0316845260209384019390920191600101611ff6565b9181601f84011215610288578235916001600160401b038311610288576020808501948460051b01011161028857565b903590603e1981360301821215610288570190565b9035601e19823603018112156102885701602081359101916001600160401b03821161028857813603831361028857565b908060209392818452848401376000828201840152601f01601f1916010190565b908135916001600160401b038316809303610288576120e4604091611eb69484526020810190612067565b9190928160208201520191612098565b156120fb57565b60405162461bcd60e51b815260206004820152604a60248201527f4543445341536572766963654d616e61676572426173652e6f6e6c795374616b60448201527f6552656769737472793a2063616c6c6572206973206e6f7420746865207374616064820152696b65526567697374727960b01b608482015260a490fd5b903590601e198136030182121561028857018035906001600160401b0382116102885760200191813603831361028857565b604090611eb6949281528160208201520191612098565b356001600160401b03811681036102885790565b909291926121e381611e49565b916121f16040519384611e28565b829482845282820111610288576020611f2c930190611f97565b9080601f83011215610288578151611eb6926020016121d6565b6001600160a01b039091168152604060208201819052611eb692910190611fba565b600060443d10611eb6576040513d600319016004823e8051913d60248401116001600160401b038411176122b457828201928351916001600160401b0383116122ac573d840160031901858401602001116122ac5750611eb692910160200190611e28565b949350505050565b92915050565b6001600160401b03811161134c5760051b60200190565b602081830312610288578051906001600160401b0382116102885701906020828203126102885760405191602083018381106001600160401b0382111761134c576040528051906001600160401b038211610288570181601f820112156102885780519061233e826122ba565b9261234c6040519485611e28565b82845260208085019360061b8301019181831161028857602001925b8284106123785750505050815290565b604084830312610288576040519061238f82611e0d565b84516001600160a01b03811681036102885782526020850151906001600160601b03821682036102885782602092836040950152815201930192612368565b8051821015610b105760209160051b010190565b60001981146119535760010190565b906123fb826122ba565b6124086040519182611e28565b8281528092612419601f19916122ba565b0190602036910137565b6033546001600160a01b0316330361243757565b606460405162461bcd60e51b815260206004820152602060248201527f4f776e61626c653a2063616c6c6572206973206e6f7420746865206f776e65726044820152fd5b6065546001600160a01b0316330361248f57565b60405162461bcd60e51b815260206004820152605160248201527f4543445341536572766963654d616e61676572426173652e6f6e6c795265776160448201527f726473496e69746961746f723a2063616c6c6572206973206e6f7420746865206064820152703932bbb0b932399034b734ba34b0ba37b960791b608482015260a490fd5b9190811015610b105760051b8101359060be1981360301821215610288570190565b903590601e198136030182121561028857018035906001600160401b03821161028857602001918160061b3603831361028857565b9190820180921161195357565b356001600160a01b03811681036102885790565b90816020910312610288575180151581036102885790565b9035601e19823603018112156102885701602081359101916001600160401b038211610288578160061b3603831361028857565b916020908281520191906000905b8082106125f35750505090565b909192833560018060a01b0381168091036102885781526020840135906001600160601b038216809203610288576040816001936020839401520194019201906125e6565b359063ffffffff8216820361028857565b9190811015610b105760051b81013590609e198136030182121561028857019056fea57bb8357696c0239aa116d4ee1079a34c9ef41b001ce54c57d611f24536111aa264697066735822122047a3f2bde744f9ca085112ec2fb51d54b861030f34e47eeeedd41b3a8f8e6ebe64736f6c634300081a0033","linkReferences":{}},"methodIdentifiers":{"addSignedPayloadForTrigger(((uint64,bytes),bytes))":"9d1e4053","addSignedPayloadForTriggerMulti(((uint64,bytes),bytes)[])":"51caeaba","avsDirectory()":"6b3aa72e","createAVSRewardsSubmission(((address,uint96)[],address,uint256,uint32,uint32)[])":"fce36c7d","createOperatorDirectedAVSRewardsSubmission(((address,uint96)[],address,(address,uint256)[],uint32,uint32,string)[])":"a20b99bf","deregisterOperatorFromAVS(address)":"a364f4da","getOperatorRestakedStrategies(address)":"33cfb7b7","getRestakeableStrategies()":"e481af9d","initialize(address)":"c4d66de8","layerTrigger()":"30d583da","onERC721Received(address,address,uint256,bytes)":"150b7a02","owner()":"8da5cb5b","registerOperatorToAVS(address,(bytes,bytes32,uint256))":"9926ee7d","renounceOwnership()":"715018a6","rewardsInitiator()":"fc299dee","setClaimerFor(address)":"a0169ddd","setRewardsInitiator(address)":"3bc28c8c","signedDataByTriggerId(uint64)":"276f85f2","stakeRegistry()":"68304835","transferOwnership(address)":"f2fde38b","updateAVSMetadataURI(string)":"a98fb355"},"id":0}