{"abi":[{"type":"constructor","inputs":[{"name":"_avsDirectory","type":"address","internalType":"address"},{"name":"_stakeRegistry","type":"address","internalType":"address"},{"name":"_rewardsCoordinator","type":"address","internalType":"address"},{"name":"_delegationManager","type":"address","internalType":"address"}],"stateMutability":"nonpayable"},{"type":"function","name":"addSignedPayloadForTrigger","inputs":[{"name":"signedPayload","type":"tuple","internalType":"struct ILayerServiceManager.SignedPayload","components":[{"name":"payload","type":"tuple","internalType":"struct ILayerServiceManager.Payload","components":[{"name":"triggerId","type":"uint64","internalType":"ILayerTrigger.TriggerId"},{"name":"data","type":"bytes","internalType":"bytes"}]},{"name":"signature","type":"bytes","internalType":"bytes"}]}],"outputs":[],"stateMutability":"nonpayable"},{"type":"function","name":"addSignedPayloadForTriggerMulti","inputs":[{"name":"signedPayloads","type":"tuple[]","internalType":"struct ILayerServiceManager.SignedPayload[]","components":[{"name":"payload","type":"tuple","internalType":"struct ILayerServiceManager.Payload","components":[{"name":"triggerId","type":"uint64","internalType":"ILayerTrigger.TriggerId"},{"name":"data","type":"bytes","internalType":"bytes"}]},{"name":"signature","type":"bytes","internalType":"bytes"}]}],"outputs":[],"stateMutability":"nonpayable"},{"type":"function","name":"avsDirectory","inputs":[],"outputs":[{"name":"","type":"address","internalType":"address"}],"stateMutability":"view"},{"type":"function","name":"createAVSRewardsSubmission","inputs":[{"name":"rewardsSubmissions","type":"tuple[]","internalType":"struct IRewardsCoordinator.RewardsSubmission[]","components":[{"name":"strategiesAndMultipliers","type":"tuple[]","internalType":"struct IRewardsCoordinator.StrategyAndMultiplier[]","components":[{"name":"strategy","type":"address","internalType":"contract IStrategy"},{"name":"multiplier","type":"uint96","internalType":"uint96"}]},{"name":"token","type":"address","internalType":"contract IERC20"},{"name":"amount","type":"uint256","internalType":"uint256"},{"name":"startTimestamp","type":"uint32","internalType":"uint32"},{"name":"duration","type":"uint32","internalType":"uint32"}]}],"outputs":[],"stateMutability":"nonpayable"},{"type":"function","name":"createOperatorDirectedAVSRewardsSubmission","inputs":[{"name":"operatorDirectedRewardsSubmissions","type":"tuple[]","internalType":"struct IRewardsCoordinator.OperatorDirectedRewardsSubmission[]","components":[{"name":"strategiesAndMultipliers","type":"tuple[]","internalType":"struct IRewardsCoordinator.StrategyAndMultiplier[]","components":[{"name":"strategy","type":"address","internalType":"contract IStrategy"},{"name":"multiplier","type":"uint96","internalType":"uint96"}]},{"name":"token","type":"address","internalType":"contract IERC20"},{"name":"operatorRewards","type":"tuple[]","internalType":"struct IRewardsCoordinator.OperatorReward[]","components":[{"name":"operator","type":"address","internalType":"address"},{"name":"amount","type":"uint256","internalType":"uint256"}]},{"name":"startTimestamp","type":"uint32","internalType":"uint32"},{"name":"duration","type":"uint32","internalType":"uint32"},{"name":"description","type":"string","internalType":"string"}]}],"outputs":[],"stateMutability":"nonpayable"},{"type":"function","name":"deregisterOperatorFromAVS","inputs":[{"name":"operator","type":"address","internalType":"address"}],"outputs":[],"stateMutability":"nonpayable"},{"type":"function","name":"getOperatorRestakedStrategies","inputs":[{"name":"_operator","type":"address","internalType":"address"}],"outputs":[{"name":"","type":"address[]","internalType":"address[]"}],"stateMutability":"view"},{"type":"function","name":"getRestakeableStrategies","inputs":[],"outputs":[{"name":"","type":"address[]","internalType":"address[]"}],"stateMutability":"view"},{"type":"function","name":"getSignedDataByTriggerId","inputs":[{"name":"triggerId","type":"uint64","internalType":"ILayerTrigger.TriggerId"}],"outputs":[{"name":"","type":"tuple","internalType":"struct LayerServiceManager.SignedData","components":[{"name":"data","type":"bytes","internalType":"bytes"},{"name":"signature","type":"bytes","internalType":"bytes"}]}],"stateMutability":"view"},{"type":"function","name":"owner","inputs":[],"outputs":[{"name":"","type":"address","internalType":"address"}],"stateMutability":"view"},{"type":"function","name":"registerOperatorToAVS","inputs":[{"name":"operator","type":"address","internalType":"address"},{"name":"operatorSignature","type":"tuple","internalType":"struct ISignatureUtils.SignatureWithSaltAndExpiry","components":[{"name":"signature","type":"bytes","internalType":"bytes"},{"name":"salt","type":"bytes32","internalType":"bytes32"},{"name":"expiry","type":"uint256","internalType":"uint256"}]}],"outputs":[],"stateMutability":"nonpayable"},{"type":"function","name":"renounceOwnership","inputs":[],"outputs":[],"stateMutability":"nonpayable"},{"type":"function","name":"rewardsInitiator","inputs":[],"outputs":[{"name":"","type":"address","internalType":"address"}],"stateMutability":"view"},{"type":"function","name":"setClaimerFor","inputs":[{"name":"claimer","type":"address","internalType":"address"}],"outputs":[],"stateMutability":"nonpayable"},{"type":"function","name":"setRewardsInitiator","inputs":[{"name":"newRewardsInitiator","type":"address","internalType":"address"}],"outputs":[],"stateMutability":"nonpayable"},{"type":"function","name":"signedDataByTriggerId","inputs":[{"name":"","type":"uint64","internalType":"ILayerTrigger.TriggerId"}],"outputs":[{"name":"data","type":"bytes","internalType":"bytes"},{"name":"signature","type":"bytes","internalType":"bytes"}],"stateMutability":"view"},{"type":"function","name":"stakeRegistry","inputs":[],"outputs":[{"name":"","type":"address","internalType":"address"}],"stateMutability":"view"},{"type":"function","name":"transferOwnership","inputs":[{"name":"newOwner","type":"address","internalType":"address"}],"outputs":[],"stateMutability":"nonpayable"},{"type":"function","name":"updateAVSMetadataURI","inputs":[{"name":"_metadataURI","type":"string","internalType":"string"}],"outputs":[],"stateMutability":"nonpayable"},{"type":"event","name":"AddedSignedPayloadForTrigger","inputs":[{"name":"triggerId","type":"uint64","indexed":true,"internalType":"ILayerTrigger.TriggerId"}],"anonymous":false},{"type":"event","name":"Initialized","inputs":[{"name":"version","type":"uint8","indexed":false,"internalType":"uint8"}],"anonymous":false},{"type":"event","name":"OwnershipTransferred","inputs":[{"name":"previousOwner","type":"address","indexed":true,"internalType":"address"},{"name":"newOwner","type":"address","indexed":true,"internalType":"address"}],"anonymous":false},{"type":"event","name":"RewardsInitiatorUpdated","inputs":[{"name":"prevRewardsInitiator","type":"address","indexed":false,"internalType":"address"},{"name":"newRewardsInitiator","type":"address","indexed":false,"internalType":"address"}],"anonymous":false}],"bytecode":{"object":"0x6101003461019a57601f61218438819003918201601f19168301916001600160401b0383118484101761019e5780849260809460405283398101031261019a57610048816101b2565b90610055602082016101b2565b61006d6060610066604085016101b2565b93016101b2565b9260a05260805260c05260e0525f5460ff8160081c166101455760ff8082161061010b575b604051611fbd90816101c782396080518181816105f30152818161077301528181610d3e015281816111a3015281816113360152611525015260a0518181816106ec015281816107a3015281816111cc01526112f2015260c051818181610125015281816108440152610be7015260e051816115eb0152f35b60ff90811916175f557f7f26b83ff96e1f2b6a682f133852f6798a09c465da95921460cefb3847402498602060405160ff8152a15f610092565b60405162461bcd60e51b815260206004820152602760248201527f496e697469616c697a61626c653a20636f6e747261637420697320696e697469604482015266616c697a696e6760c81b6064820152608490fd5b5f80fd5b634e487b7160e01b5f52604160045260245ffd5b51906001600160a01b038216820361019a5756fe60806040526004361015610011575f80fd5b5f3560e01c8063276f85f2146117c657806333cfb7b7146114f85780633bc28c8c1461147957806351caeaba1461136557806368304835146113215780636b3aa72e146112dd578063715018a6146112825780638da5cb5b1461125a5780639926ee7d146110f45780639d1e405314610c4e578063a0169ddd14610bc4578063a20b99bf1461080a578063a364f4da14610754578063a98fb355146106a1578063e481af9d146105cf578063ef7d79b71461052a578063f2fde38b14610463578063fc299dee1461043b5763fce36c7d146100ea575f80fd5b3461026a57602036600319011261026a576004356001600160401b03811161026a5761011a9036906004016119ea565b90610123611d93565b7f00000000000000000000000000000000000000000000000000000000000000005f5b83811061026e57506001600160a01b031690813b1561026a579160405192839163fce36c7d60e01b835280602484016020600486015252604483019060448160051b8501019280925f90609e1983360301905b8483106101ce57875f81808a0381838e5af180156101c3576101b757005b5f6101c191611899565b005b6040513d5f823e3d90fd5b91939590929496506043198982030182528635908382121561026a5760208091876001940190608063ffffffff6102548261021a61020c8780611ebc565b60a0885260a0880191611ef0565b95898060a01b0361022c898301611994565b1688870152604081013560408701528361024860608301611f54565b16606087015201611f54565b1691015298019201930190939188969593610199565b5f80fd5b5f60206102cf6001600160a01b036102918361028b878b8b611f65565b01611e90565b16604061029f868a8a611f65565b6040516323b872dd60e01b8152336004820152306024820152910135604482015293849283919082906064820190565b03925af180156101c35761041f575b506001600160a01b036102f7602061028b848888611f65565b604051636eb1769f60e11b81523060048201526001600160a01b0385166024820152929160209184916044918391165afa9182156101c3575f926103eb575b505f916020906103a3906103706001600160a01b0361035a8561028b888d8d611f65565b16916040610369878c8c611f65565b0135611e83565b60405163095ea7b360e01b81526001600160a01b0388166004820152602481019190915294859283919082906044820190565b03925af19182156101c3576001926103bd575b5001610146565b6103dd9060203d81116103e4575b6103d58183611899565b810190611ea4565b505f6103b6565b503d6103cb565b91506020823d8211610417575b8161040560209383611899565b8101031261026a579051906020610336565b3d91506103f8565b6104369060203d81116103e4576103d58183611899565b6102de565b3461026a575f36600319011261026a576065546040516001600160a01b039091168152602090f35b3461026a57602036600319011261026a5761047c61197e565b610484611d3b565b6001600160a01b031680156104d657603380546001600160a01b0319811683179091556001600160a01b03167f8be0079c531659141344cd1fd0a4f28419497f9722a3daafe3b4186f6b6457e05f80a3005b60405162461bcd60e51b815260206004820152602660248201527f4f776e61626c653a206e6577206f776e657220697320746865207a65726f206160448201526564647265737360d01b6064820152608490fd5b3461026a57602036600319011261026a576001600160401b0361054b611830565b6060602060405161055b8161187e565b8281520152165f5260976020526105b860405f206105cb6105956001604051936105848561187e565b61058d816118ba565b8552016118ba565b60208301908152604051938493602085525160406020860152606085019061195a565b9051838203601f1901604085015261195a565b0390f35b3461026a575f36600319011261026a576040516302e0740360e31b81525f816004817f00000000000000000000000000000000000000000000000000000000000000006001600160a01b03165afa9081156101c3575f9161067f575b50610637815151611d09565b905f5b8151805182101561067157600191906001600160a01b039061065d908390611ce7565b51511661066a8286611ce7565b520161063a565b604051806105cb86826119a8565b61069b91503d805f833e6106938183611899565b810190611be5565b8161062b565b3461026a57602036600319011261026a576004356001600160401b03811161026a573660238201121561026a576106e2903690602481600401359101611a1a565b6106ea611d3b565b7f00000000000000000000000000000000000000000000000000000000000000006001600160a01b0316803b1561026a5760405163a98fb35560e01b815260206004820152905f908290818381610744602482018961195a565b03925af180156101c3576101b757005b3461026a57602036600319011261026a5761076d61197e565b6107a1337f00000000000000000000000000000000000000000000000000000000000000006001600160a01b031614611b03565b7f00000000000000000000000000000000000000000000000000000000000000006001600160a01b031690813b1561026a576040516351b27a6d60e11b81526001600160a01b039091166004820152905f908290602490829084905af180156101c3576101b757005b3461026a57602036600319011261026a576004356001600160401b03811161026a5761083a9036906004016119ea565b610842611d93565b7f00000000000000000000000000000000000000000000000000000000000000005f5b8281106109ef57506001600160a01b031690813b1561026a57604051928391634e5cd2fd60e11b835280604484013060048601526040602486015252606483019160648260051b8501019281925f60be1984360301925b8282106108da57875f81808a0381838e5af180156101c3576101b757005b919395909294965060631989820301825286358581121561026a578601906109136109058380611ebc565b60c0845260c0840191611ef0565b916001600160a01b0361092860208301611994565b166020830152602061093d6040830183611ebc565b848603604086015280865294909101935f5b8181106109bf575050506109ad60019360209361099f8463ffffffff6109786060899801611f54565b16606084015263ffffffff61098f60808301611f54565b16608084015260a0810190611a74565b9160a0818503910152611aa5565b980192019201889695939194926108bc565b909194604080600192838060a01b036109d78a611994565b1681526020898101359082015201960192910161094f565b90915f935f945b610a0e610a04858585611e2c565b6040810190611e4e565b9050861015610a5e57610a25610a04858585611e2c565b871015610a4a576001916020610a42928960061b01013590611e83565b9501946109f6565b634e487b7160e01b5f52603260045260245ffd5b9094509092916001600160a01b03610a7c602061028b84888a611e2c565b6040516323b872dd60e01b81523360048201523060248201526044810185905291602091839160649183915f91165af180156101c357610ba8575b506001600160a01b03610ad0602061028b84888a611e2c565b604051636eb1769f60e11b81523060048201526001600160a01b0386166024820152939160209185916044918391165afa9283156101c3575f93610b73575b505f92602091610b3b91610370906001600160a01b03610b348661028b898d8f611e2c565b1692611e83565b03925af19182156101c357600192610b55575b5001610865565b610b6c9060203d81116103e4576103d58183611899565b5085610b4e565b92506020833d8211610ba0575b81610b8d60209383611899565b8101031261026a57915191610b3b610b0f565b3d9150610b80565b610bbf9060203d81116103e4576103d58183611899565b610ab7565b3461026a57602036600319011261026a57610bdd61197e565b610be5611d3b565b7f00000000000000000000000000000000000000000000000000000000000000006001600160a01b031690813b1561026a5760405163a0169ddd60e01b81526001600160a01b039091166004820152905f908290602490829084905af180156101c3576101b757005b3461026a57602036600319011261026a576004356001600160401b03811161026a57806004016040600319833603011261026a576024610c8e8280611a5f565b604051610cb981610cab6020820194602086526040830190611ac5565b03601f198101835282611899565b51902060405160208101917f19457468657265756d205369676e6564204d6573736167653a0a3332000000008352603c820152603c8152610cfb605c82611899565b5190209201916020610d0d8484611b88565b9092610d3a6040519485938493630b135d3f60e11b85526004850152604060248501526044840191611aa5565b03817f00000000000000000000000000000000000000000000000000000000000000006001600160a01b03165afa9081156101c3575f916110b1575b506001600160e01b031916630b135d3f60e11b0361107857610dd8610db892610dcf610daf610da58580611a5f565b6020810190611b88565b95909285611b88565b91909260405196610dc88861187e565b3691611a1a565b85523691611a1a565b602083019081526001600160401b03610df9610df48480611a5f565b611bba565b165f52609760205260405f2092519283516001600160401b038111610faf57610e228254611846565b601f8111611033575b506020601f8211600114610fce57819060019495965f92610fc3575b50505f19600383901b1c191690831b1781555b0190518051906001600160401b038211610faf57610e788354611846565b601f8111610f6a575b50602090601f8311600114610ef7579282610df4936001600160401b039693610ec5965f92610eec575b50508160011b915f199060031b1c19161790555b80611a5f565b167f41b42d39b4c7441eedf9cb7c1a70d2f7771846ab84d9f245ec091d4dfa14855b5f80a2005b015190508780610eab565b90601f19831691845f52815f20925f5b818110610f525750936001600160401b039693610ec5969360019383610df49810610f3a575b505050811b019055610ebf565b01515f1960f88460031b161c19169055878080610f2d565b92936020600181928786015181550195019301610f07565b835f5260205f20601f840160051c81019160208510610fa5575b601f0160051c01905b818110610f9a5750610e81565b5f8155600101610f8d565b9091508190610f84565b634e487b7160e01b5f52604160045260245ffd5b015190508680610e47565b601f19821695835f52815f20965f5b81811061101b5750916001959697918487959410611003575b505050811b018155610e5a565b01515f1960f88460031b161c19169055868080610ff6565b83830151895560019098019760209384019301610fdd565b825f5260205f20601f830160051c8101916020841061106e575b601f0160051c01905b8181106110635750610e2b565b5f8155600101611056565b909150819061104d565b60405162461bcd60e51b8152602060048201526011602482015270496e76616c6964207369676e617475726560781b6044820152606490fd5b90506020813d6020116110ec575b816110cc60209383611899565b8101031261026a57516001600160e01b03198116810361026a5783610d76565b3d91506110bf565b3461026a57604036600319011261026a5761110d61197e565b602435906001600160401b03821161026a576060600319833603011261026a5760405190606082018281106001600160401b03821117610faf5760405282600401356001600160401b03811161026a5783013660238201121561026a5761117e903690602460048201359101611a1a565b825260208201916024840135835260446040820194013584526111ca60018060a01b037f0000000000000000000000000000000000000000000000000000000000000000163314611b03565b7f00000000000000000000000000000000000000000000000000000000000000006001600160a01b031690813b1561026a575f61123d93819560405197889687958694639926ee7d60e01b865260018060a01b0316600486015260406024860152516060604486015260a485019061195a565b9151606484015251608483015203925af180156101c3576101b757005b3461026a575f36600319011261026a576033546040516001600160a01b039091168152602090f35b3461026a575f36600319011261026a5761129a611d3b565b603380546001600160a01b031981169091555f906001600160a01b03167f8be0079c531659141344cd1fd0a4f28419497f9722a3daafe3b4186f6b6457e08280a3005b3461026a575f36600319011261026a576040517f00000000000000000000000000000000000000000000000000000000000000006001600160a01b03168152602090f35b3461026a575f36600319011261026a576040517f00000000000000000000000000000000000000000000000000000000000000006001600160a01b03168152602090f35b3461026a57602036600319011261026a576004356001600160401b03811161026a576113959036906004016119ea565b905f5b8263ffffffff821610156101c1576113bc641fffffffe08260051b16830183611a5f565b90303b1561026a57604051639d1e405360e01b81526020600482015291803536829003603e190181121561026a57836114285f9361141661140b84956040602487015283606487019101611ac5565b916020810190611a74565b84830360231901604486015290611aa5565b038183305af19182156101c35763ffffffff92611469575b501663ffffffff811461145557600101611398565b634e487b7160e01b5f52601160045260245ffd5b5f61147391611899565b84611440565b3461026a57602036600319011261026a5761149261197e565b61149a611d3b565b606554604080516001600160a01b038084168252841660208201529192917fe11cddf1816a43318ca175bbc52cd0185436e9cbead7c83acc54a73e461717e39190a16001600160a01b03166001600160a01b03199190911617606555005b3461026a57602036600319011261026a5761151161197e565b6040516302e0740360e31b81525f816004817f00000000000000000000000000000000000000000000000000000000000000006001600160a01b03165afa9081156101c3575f916117ac575b50908151519061156c82611bce565b9061157a6040519283611899565b82825261158683611bce565b602083019490601f19013686375f5b84811061177e57505060408051639004134760e01b81526001600160a01b0390921660048301526024820152815160448201819052909384916064830191905f5b81811061175c57505f939283900391508290507f00000000000000000000000000000000000000000000000000000000000000006001600160a01b03165afa9283156101c3575f936116ca575b505f805b83811061169e575061163890611d09565b925f905f5b84811061165257604051806105cb88826119a8565b61165c8183611ce7565b5161166a575b60010161163d565b91600190611696906001600160a01b036116848688611ce7565b5116611690828a611ce7565b52611cfb565b929050611662565b6116a88186611ce7565b516116b6575b600101611627565b906116c2600191611cfb565b9190506116ae565b9092503d805f833e6116dc8183611899565b81019060208183031261026a578051906001600160401b03821161026a57019080601f8301121561026a57815161171281611bce565b926117206040519485611899565b81845260208085019260051b82010192831161026a57602001905b82821061174c575050509183611623565b815181526020918201910161173b565b82516001600160a01b03168452879450602093840193909201916001016115d6565b600190818060a09895981b03611795828551611ce7565b5151166117a28287611ce7565b5201949194611595565b6117c091503d805f833e6106938183611899565b8261155d565b3461026a57602036600319011261026a576001600160401b036117e7611830565b165f52609760205261182260405f206105cb61180e6001611807846118ba565b93016118ba565b60405193849360408552604085019061195a565b90838203602085015261195a565b600435906001600160401b038216820361026a57565b90600182811c92168015611874575b602083101461186057565b634e487b7160e01b5f52602260045260245ffd5b91607f1691611855565b604081019081106001600160401b03821117610faf57604052565b90601f801991011681019081106001600160401b03821117610faf57604052565b9060405191825f8254926118cd84611846565b808452936001811690811561193857506001146118f4575b506118f292500383611899565b565b90505f9291925260205f20905f915b81831061191c5750509060206118f2928201015f6118e5565b6020919350806001915483858901015201910190918492611903565b9050602092506118f294915060ff191682840152151560051b8201015f6118e5565b805180835260209291819084018484015e5f828201840152601f01601f1916010190565b600435906001600160a01b038216820361026a57565b35906001600160a01b038216820361026a57565b60206040818301928281528451809452019201905f5b8181106119cb5750505090565b82516001600160a01b03168452602093840193909201916001016119be565b9181601f8401121561026a578235916001600160401b03831161026a576020808501948460051b01011161026a57565b9291926001600160401b038211610faf5760405191611a43601f8201601f191660200184611899565b82948184528183011161026a578281602093845f960137010152565b903590603e198136030182121561026a570190565b9035601e198236030181121561026a5701602081359101916001600160401b03821161026a57813603831361026a57565b908060209392818452848401375f828201840152601f01601f1916010190565b908135916001600160401b03831680930361026a57611af0604091611b009484526020810190611a74565b9190928160208201520191611aa5565b90565b15611b0a57565b60405162461bcd60e51b815260206004820152604a60248201527f4543445341536572766963654d616e61676572426173652e6f6e6c795374616b60448201527f6552656769737472793a2063616c6c6572206973206e6f7420746865207374616064820152696b65526567697374727960b01b608482015260a490fd5b903590601e198136030182121561026a57018035906001600160401b03821161026a5760200191813603831361026a57565b356001600160401b038116810361026a5790565b6001600160401b038111610faf5760051b60200190565b60208183031261026a578051906001600160401b03821161026a57019060208282031261026a5760405191602083018381106001600160401b03821117610faf576040528051906001600160401b03821161026a570181601f8201121561026a57805190611c5282611bce565b92611c606040519485611899565b82845260208085019360061b8301019181831161026a57602001925b828410611c8c5750505050815290565b60408483031261026a5760405190611ca38261187e565b84516001600160a01b038116810361026a5782526020850151906bffffffffffffffffffffffff8216820361026a5782602092836040950152815201930192611c7c565b8051821015610a4a5760209160051b010190565b5f1981146114555760010190565b90611d1382611bce565b611d206040519182611899565b8281528092611d31601f1991611bce565b0190602036910137565b6033546001600160a01b03163303611d4f57565b606460405162461bcd60e51b815260206004820152602060248201527f4f776e61626c653a2063616c6c6572206973206e6f7420746865206f776e65726044820152fd5b6065546001600160a01b03163303611da757565b60405162461bcd60e51b815260206004820152605160248201527f4543445341536572766963654d616e61676572426173652e6f6e6c795265776160448201527f726473496e69746961746f723a2063616c6c6572206973206e6f7420746865206064820152703932bbb0b932399034b734ba34b0ba37b960791b608482015260a490fd5b9190811015610a4a5760051b8101359060be198136030182121561026a570190565b903590601e198136030182121561026a57018035906001600160401b03821161026a57602001918160061b3603831361026a57565b9190820180921161145557565b356001600160a01b038116810361026a5790565b9081602091031261026a5751801515810361026a5790565b9035601e198236030181121561026a5701602081359101916001600160401b03821161026a578160061b3603831361026a57565b916020908281520191905f905b808210611f0a5750505090565b909192833560018060a01b03811680910361026a5781526020840135906bffffffffffffffffffffffff821680920361026a57604081600193602083940152019401920190611efd565b359063ffffffff8216820361026a57565b9190811015610a4a5760051b81013590609e198136030182121561026a57019056fea26469706673582212205f3f073982824de09273c9e4ea8dd7dd1ed2c083cc21a2aeae48f70cca36413f64736f6c634300081a0033","linkReferences":{}},"methodIdentifiers":{"addSignedPayloadForTrigger(((uint64,bytes),bytes))":"9d1e4053","addSignedPayloadForTriggerMulti(((uint64,bytes),bytes)[])":"51caeaba","avsDirectory()":"6b3aa72e","createAVSRewardsSubmission(((address,uint96)[],address,uint256,uint32,uint32)[])":"fce36c7d","createOperatorDirectedAVSRewardsSubmission(((address,uint96)[],address,(address,uint256)[],uint32,uint32,string)[])":"a20b99bf","deregisterOperatorFromAVS(address)":"a364f4da","getOperatorRestakedStrategies(address)":"33cfb7b7","getRestakeableStrategies()":"e481af9d","getSignedDataByTriggerId(uint64)":"ef7d79b7","owner()":"8da5cb5b","registerOperatorToAVS(address,(bytes,bytes32,uint256))":"9926ee7d","renounceOwnership()":"715018a6","rewardsInitiator()":"fc299dee","setClaimerFor(address)":"a0169ddd","setRewardsInitiator(address)":"3bc28c8c","signedDataByTriggerId(uint64)":"276f85f2","stakeRegistry()":"68304835","transferOwnership(address)":"f2fde38b","updateAVSMetadataURI(string)":"a98fb355"},"id":0}