{"abi":[{"type":"function","name":"createTokenRoot","inputs":[{"name":"tokenLeaves","type":"bytes32[]","internalType":"bytes32[]"}],"outputs":[{"name":"","type":"bytes32","internalType":"bytes32"}],"stateMutability":"pure"}],"bytecode":{"object":"0x60808060405234601b576104f090816100208239308160320152f35b5f80fdfe60806040526004361015610011575f80fd5b5f3560e01c80631a4121f7146101d95763c3e8a50f1461002f575f80fd5b307f0000000000000000000000000000000000000000000000000000000000000000146101585760403660031901126101585760043567ffffffffffffffff8111610158573660238201121561015857806004013567ffffffffffffffff8111610158573660248260051b840101116101585760243567ffffffffffffffff8111610158576100c2903690600401610281565b6100cb82610269565b926100d96040519485610247565b828452601f196100e884610269565b015f5b8181106101b65750505f5b8381101561015c576024600582901b830101356001600160a01b03811691908290036101585760019161012885610338565b6040519161013583610217565b8252602082015261014682886102de565b5261015181876102de565b50016100f6565b5f80fd5b846040518091602082016020835281518091526020604084019201905f5b818110610188575050500390f35b825180516001600160a01b03168552602090810151818601528695506040909401939092019160010161017a565b6020906040516101c581610217565b5f81525f83820152828289010152016100eb565b60203660031901126101585760043567ffffffffffffffff81116101585761020f61020a6020923690600401610281565b610338565b604051908152f35b6040810190811067ffffffffffffffff82111761023357604052565b634e487b7160e01b5f52604160045260245ffd5b90601f8019910116810190811067ffffffffffffffff82111761023357604052565b67ffffffffffffffff81116102335760051b60200190565b9080601f8301121561015857813561029881610269565b926102a66040519485610247565b81845260208085019260051b82010192831161015857602001905b8282106102ce5750505090565b81358152602091820191016102c1565b80518210156102f25760209160051b010190565b634e487b7160e01b5f52603260045260245ffd5b9061031082610269565b61031d6040519182610247565b828152809261032e601f1991610269565b0190602036910137565b9060028251905b8181106104b2576103509150610306565b5f5b835181101561037a5780610368600192866102de565b5161037382856102de565b5201610352565b5090915080518060011c9161038e83610306565b925f5b8181106104465750505060021c805b6103b357508051156102f2576020015190565b5f5b8181106103c6575060011c806103a0565b600181901b906001600160ff1b0381168103610432576103e682856102de565b5160018301809311610432576103fe600193866102de565b51604051906020820192835260408201526040815261041e606082610247565b51902061042b82866102de565b52016103b5565b634e487b7160e01b5f52601160045260245ffd5b600181901b906001600160ff1b03811681036104325761046682856102de565b51600183018093116104325761047e600193866102de565b51604051906020820192835260408201526040815261049e606082610247565b5190206104ab82886102de565b5201610391565b60011b61033f56fea26469706673582212209e5275b0991176fb6548f90d50038393859551a44b6698cdabd24a45d975a9f564736f6c634300081c0033","linkReferences":{}},"methodIdentifiers":{"createEarnerLeaves(address[],bytes32[])":"c3e8a50f","createTokenRoot(bytes32[])":"1a4121f7"},"id":8}